:020000040800F2
:1000000018080020D50100084F2300089D21000892
:100010004D230008F9050008912A0008000000009F
:10002000000000000000000000000000672500083C
:10003000650600080000000051230008D1250008D3
:10004000EF010008EF010008EF010008EF010008D0
:10005000EF010008EF01000869060008EF01000841
:10006000EF010008EF010008EF010008EF010008B0
:10007000EF010008EF010008FD050008090600086F
:10008000EF010008EF010008EF010008EF01000890
:10009000EF010008EF010008EF010008EF01000880
:1000A000EF01000855260008EF010008EF010008E5
:1000B000EF010008EF010008EF010008EF01000860
:1000C000EF010008EF010008EF010008EF01000850
:1000D000EF0100087D2A0008EF010008EF01000889
:1000E000EF010008EF010008EF010008EF01000830
:1000F000EF010008EF010008EF010008EF01000820
:10010000EF010008EF010008EF010008EF0100080F
:10011000EF010008EF010008EF010008EF010008FF
:10012000EF010008EF010008EF010008EF010008EF
:1001300000F002F800F03FF80AA090E8000C8244BA
:100140008344AAF10107DA4501D100F034F8AFF297
:10015000090EBAE80F0013F0010F18BFFB1A43F0A5
:1001600001031847402B0000602B0000103A24BF09
:1001700078C878C1FAD8520724BF30C830C144BF0C
:1001800004680C607047000000230024002500264E
:10019000103A28BF78C1FBD8520728BF30C148BFEA
:1001A0000B607047642900F06B80002070471FB51A
:1001B0001FBD10B510BD00F0EDF91146FFF7F7FFB8
:1001C00002F0DCFC00F00BFA03B4FFF7F2FF03BC13
:1001D00002F0B7FC0948804709480047FEE7FEE700
:1001E000FEE7FEE7FEE7FEE7FEE7FEE7FEE7FEE7E7
:1001F00004480549054A064B70470000512600088F
:1002000031010008180200201808002018040020FE
:1002100018040020704700000FB4044910B503AA69
:10022000029800F089F910BC5DF814FB140000205E
:1002300070B5044685690068C10601D5302600E026
:100240002026C00707D070BDD4E901213046904771
:10025000206A401C20626D1EF6D570BD70B5044644
:1002600085690078C00707D170BDD4E9012120203D
:100270009047206A401C20626D1EF6D570BD0000BC
:100280002DE9F0410646002410687529314616A56F
:1002900010D0AFF30080002802DA404213A507E037
:1002A00031688A0701D512A502E0490704D511A5D6
:1002B000012401E0AFF3008000210A2206F12407A7
:1002C00009E0B0FBF2FCB0FBF2F302FB1C003030A3
:1002D00078541846491C0028F3D123462A46304654
:1002E000BDE8F04100F0CFB8000000002D00000094
:1002F0002B000000200000002DE9F05F8946044635
:100300004FF0000ADFF824B1FB44C0F820A02046DB
:10031000E168884700287DD0252806D0D4E901214E
:100320009047206A401C2062F1E700255F46204686
:10033000E16888472028064607DB312E05D2B81928
:1003400010F8200C08B10543F1E7A80701D525F006
:100350000405C4F81CA00027C4F818A02A2E09D050
:10036000304602F0E7FB38B304EB8708303EC8F8AC
:10037000186019E059F8041B204604EB87029161CC
:10038000E1688847012F064618D1E069002820DA85
:1003900025F020051DE0D8F8180000EB800006EBE2
:1003A00040003038C8F818002046E1688847064603
:1003B00002F0C0FB0028EED1012F0AD02E2E08D16A
:1003C0002046E16888477F1C0646022F45F020053D
:1003D000C4DBA069002803DA404245F00105A061B2
:1003E000E80701D025F01005A6B1A6F141001928B3
:1003F00002D8203645F400654A463146204625603D
:100400004D46FFF7CFFE60B1012807D0ED1D25F066
:10041000070000E007E000F1080978E705F10409AA
:1004200075E730467AE7206ABDE8F09F842900002E
:100430004FF0000200B5134694469646203922BF7D
:10044000A0E80C50A0E80C50B1F12001BFF4F7AFC8
:10045000090728BFA0E80C5048BF0CC05DF804EBAA
:10046000890028BF40F8042B08BF704748BF20F818
:10047000022B11F0804F18BF00F8012B7047704716
:100480007047704770472DE9F0470D4699469246F0
:10049000044600F124080168880604D5E06921F0CB
:1004A0001001216000E00120A84201DD471B00E0AF
:1004B0000027A1697A1902EB0900081AA0612078C7
:1004C000C00602D42046FFF7B3FE002608E0D4E9B8
:1004D00001211AF806009047206A401C761C206211
:1004E0004E45F4DB2078C0060AD52046FFF7A0FE73
:1004F00006E0D4E9012130209047206A401C2062A8
:10050000381EA7F10107F4DC07E0D4E9012118F84F
:1005100005009047206A401C2062281EA5F10105B5
:10052000F3DC2046FFF79AFE2078000602D5022071
:10053000BDE8F0870120FBE7074B70B50D467B4413
:1005400000F011F80446284600F020F810B14FF0F2
:10055000FF3070BD204670BD2326000001694A1C93
:1005600002610878704700B58FB0CDE901310021F4
:10057000059105497944CDE9031011466846FFF716
:10058000BBFE0FB000BD0000E5FFFFFF007B00F0E9
:1005900080007047754600F02BF8AE4605006946AE
:1005A000534620F00700854618B020B5FFF720FE1F
:1005B000BDE820404FF000064FF000074FF0000864
:1005C0004FF0000B21F00701AC46ACE8C009ACE8E5
:1005D000C009ACE8C009ACE8C0098D46704710B549
:1005E0000446AFF300802046BDE81040FFF7ECBDA5
:1005F00000487047B4010020FEE70000014800F009
:10060000FFB8000070010020014800F0F9B80000B8
:100610002C01002030B590F840500124AC40C56B4F
:100620006C60046863604368102B036803D09960B2
:100630000068C26030BD9A600068C16030BD0000D3
:1006400010B500290AD00A460146054801F064FDAC
:10065000002803D0BDE8104000F014B810BD000021
:10066000E80000207047000005480168C90705D070
:10067000016841F00101016002F00CBA704700000E
:100680001404014072B6FEE710B590F82110002264
:10069000022905D00421816380F82020012010BDAB
:1006A00001680B6823F00E030B6001680B6823F0F0
:1006B00001030B6090F84030C46B012101FA03F391
:1006C000636080F8211080F82020104610BD0000E3
:1006D0002DE9F05F90F821100024022903D00421B5
:1006E0008163012485E001680A6822F00E020A6035
:1006F00001680A6822F001020A603F4E3E4FB215BF
:10070000DFF8F4C0DFF8F090DFF8ECA0DFF8E8B035
:10071000DFF8E4E00168783F13011502ACF1640CE6
:10072000A9F15009AAF13C0AABF1280BAEF1140E65
:100730004FF48018B14227D9B9420ED0614512D08A
:1007400049451DD0514518D0594518D0714501D1A2
:10075000424615E0294EB14201D1012210E0274E58
:100760001436B14201D110220AE0244E2836B1429B
:1007700006D0224A3C32914201D11A4600E02A4674
:100780001E49091F0A602BE0B94213D0614517D0FA
:10079000494522D051451DD059451DD0714501D143
:1007A00042461AE0B14202D14FF0807215E0134E7A
:1007B000B14201D1012210E0104E1436B14201D1F4
:1007C00010220AE00D4E2836B14206D00B4A3C32C8
:1007D000914201D11A4600E02A46074980394A6011
:1007E000012180F82110002180F82010416B01B117
:1007F00088472046BDE8F09F800002400804024080
:100800002DE9F05FC16B0A6801680B68046C4FF05A
:10081000040808FA04F8844D844E854FDFF814C2AA
:10082000DFF81492DFF814A2DFF814B2DFF814E254
:1008300018EA020F65D05FEA437862D50A6892062B
:1008400003D40A6822F004020A60DFF8F0814FF452
:100850008062016808F1140813011402414524D98B
:10086000A9420DD0B1420FD0B9421AD0614515D07E
:10087000494515D0514501D1120312E0594501D126
:1008800004220EE0714501D140220AE06D4D14357D
:10089000A94206D06B4A2832914201D11A4600E0A3
:1008A00022466749091F0A6029E0A94213D0B142D4
:1008B00015D0B94220D061451BD049451BD05145C8
:1008C00002D14FF4800217E0414502D14FF080621F
:1008D00012E0594501D104220EE0714501D14022B8
:1008E0000AE0584D1435A94206D0564A28329142A2
:1008F00001D11A4600E022464B4908394A60C16AD4
:1009000071E04FF0020808FA04F818EA020F70D0FC
:100910005FEA83786DD50A68920606D40A6822F0E9
:100920000A020A60012180F82110DFF810814FF4DB
:100930000072016808F1140813011402414524D91A
:10094000A9420DD0B1420FD0B9421AD0614515D09D
:10095000494515D0514501D1120312E0594501D145
:1009600002220EE0714501D120220AE0354D1435F6
:10097000A94206D0334A2832914201D11A4600E0FA
:1009800022462F49091F0A6029E0A94213D0B1422B
:1009900015D0B94220D061451BD049451BD05145E7
:1009A00002D14FF4001217E0414502D14FF000721E
:1009B00012E0594501D102220EE0714501D12022F9
:1009C0000AE0204D1435A94206D01E4A2832914231
:1009D00001D11A4600E02246134908394A60002135
:1009E00080F82010816A00291CD0BDE8F05F08471C
:1009F000FFE70825A540154214D01A0712D50A684A
:100A000022F00E020A6090F84020C36B012101FA27
:100A100002F25A60816380F82110002180F82010D2
:100A2000016BE0E7BDE8F09F080002401C000240B7
:100A30003000024044000240580002406C00024076
:100A4000080402401C04024030B560B11A4B026831
:100A500014219A4209D2194B1344B3FBF1F18900D6
:100A6000016417490AE0012030BD134B5B42134477
:100A7000B3FBF1F1890001640F490839C163022118
:100A800080F82110136843F6F0718B43F0E90114EC
:100A90002143D0E902452C432143046921434469A1
:100AA00021438469214319431160002141630122DC
:100AB00042770177084630BD08040240F8FFFDBFC9
:100AC0000000024070B5044690F82000002501287F
:100AD0000CD0012084F8200094F821600020012E21
:100AE00006D084F820000225284670BD022070BD83
:100AF000022684F82160A0632068066826F00106BB
:100B000006602046FFF786FDE06A0028206801683D
:100B100002D041F00E0106E021F0040101602068DE
:100B2000016841F00A0101602068016841F001019B
:100B30000160D9E72DE9F84FDFF8C891002409F1E9
:100B4000040A0AF1040B23460F270BF1040ED1E02F
:100B50000125A54006EA0502AA4276D1DFF8A8C120
:100B60004E68A6EB0C0866452BD00DDC032E34D066
:100B700005DC36B3012E19D0022E2FD11BE0112E29
:100B800016D0122E2AD119E0B8F5881F19D006DC2C
:100B9000B8F5803F15D0B8F5801F1FD111E0B8F52A
:100BA000001F0ED0B8F5041F18D10AE0CB6815E07D
:100BB000CB681B1D12E0CB6808330FE0CB680C3309
:100BC0000CE08B682BB1012B4FF0080303D045617B
:100BD00004E0042302E0056100E00023FF2A01D8BD
:100BE000064601E000F104064FEA840501D9A5F1AB
:100BF0002005D6F8008007FA05FC28EA0C0803FA5D
:100C000005F548EA0508C6F800804D68ED0070D586
:100C10003E4DAE6946F00106AE61AD6924F00306B3
:100C200005F0010500953A4D06EB050CDCF808507F
:100C3000A607360F07FA06F825EA0805DFF8D4807C
:100C4000404503D14FF0000825E052E0DFF8C880AE
:100C5000404502D14FF001081DE0DFF8C08040455B
:100C600002D14FF0020816E0DFF8B480404502D10F
:100C70004FF003080FE0DFF8AC80404502D14FF0A1
:100C8000040808E0DFF8A080404502D14FF00508D5
:100C900001E04FF0060808FA06F848EA0508CCF823
:100CA00008804D68D9F80060ED034D4601D5164324
:100CB00000E096432E604D68DAF80060AD035546BB
:100CC00001D5164300E096432E604D68DBF80060C6
:100CD000ED025D4601D5164300E096432E604D6857
:100CE000DEF80060AD02754601D5164300E096437C
:100CF0002E60641C0A681646E2407FF429AFBDE806
:100D0000F88F0000000401400000111000100240A4
:100D10000000014000080140000C014000100140AB
:100D20000014014000180140001C0140C26821EA83
:100D300002030A4043EA0241016170470AB10161BE
:100D400070470904FBE70000014880687047000015
:100D500018000020024881680278114481607047C1
:100D600018000020074810B5016841F0100101602B
:100D7000032000F075F80F2000F006F800F024F8CA
:100D8000002010BD0020024070B50D4D04464FF408
:100D90007A712878B1FBF0F00A490968B1FBF0F0EC
:100DA00000F0C7FD48B9102C07D200222146501E82
:100DB00000F036F800206C6070BD012070BD0000AE
:100DC00018000020240000200C4808B5816941F07B
:100DD00001018161816901F001010091C16941F066
:100DE0008051C161C06900F08050009004484168A2
:100DF00021F0E06141F00071416008BD0010024047
:100E000000000140002809DB00F01F020121914091
:100E10004009800000F1E020C0F800117047000098
:100E2000F0B40E4B1B680C46C3F30223C3F1070555
:100E3000042D00D90425191D072901D2002300E043
:100E4000DB1E012606FA05F1491E214099409E400D
:100E5000761E16403143F0BC01F05CBE0CED00E0A4
:100E6000064900F0070208684FF6FF03184040EA01
:100E70000220034A10430860704700000CED00E0B8
:100E80000000FA05014901200862704700000E4287
:100E900010B52CA401461DCC86B08DE81D002DA0F8
:100EA0002D4C00680490002004292FD00BDC012970
:100EB0002FD0022928D100F077F96168C1F3813180
:100EC000491C49001EE0082920D010291CD1616866
:100ED0002268D20118D5C1F38342C9031DF802006C
:100EE00009D5616804AAC1F34041515C1B4AB2FBB9
:100EF000F1F1484301E01A4948436168490203D4CB
:100F000040000321B0FBF1F006B010BD00F05CF929
:100F1000FAE7226AC2F30121012903D1920701D520
:100F2000C803F1E7022905D1626A920702D549F6A2
:100F30004040E9E70329E7D121688903E4D54FF26E
:100F40002440E1E702030405060708090A0B0C0D1B
:100F50000E0F1010010200000010024000127A0073
:100F600000093D002DE9F84305460078354CC007DF
:100F700054D0E0690026C00008D4E06940F08050F9
:100F8000E061E069012600F0805000902E48016881
:100F9000C90512D40168804641F480710160FFF7F1
:100FA000D3FE074605E000BFFFF7CEFEC01B642856
:100FB00023D8D8F80000C005F6D5206A10F4407098
:100FC00021D0A98801F4407181421CD0206A1F49B8
:100FD000012220F440700A6000220A602062C007EB
:100FE00011D0FFF7B1FE074641F2883808E000BF94
:100FF000FFF7AAFEC11B414502D90320BDE8F883D3
:10100000206A8007F4D5206A696820F4407008439C
:1010100020621EB1E06920F08050E06128788007EE
:1010200005D56068A96820F44040084360602878CE
:10103000C00605D56068696920F4800008436060D7
:101040000020DBE7001002400070004040044242F4
:101050002DE9F0470F46050061D0434E306800F09F
:101060000700B84209D2306820F0070038433060EA
:10107000306800F00700B84251D128683B4C810726
:1010800012D5400703D5606840F4E06060602878BE
:10109000000703D5606840F4605060606068A9682C
:1010A00020F0F000084360602878C00728D0686806
:1010B000012810D02168022810D0890700292EDAD3
:1010C000616821F0030101436160FFF73DFE804646
:1010D00041F288390DE021688903EFE78901EDE7E6
:1010E000FFF732FEA0EB0801494502D90320BDE815
:1010F000F0876068696800F00C00B0EB810FEFD1F9
:10110000306800F00700B8420BD9306820F00700C3
:1011100038433060306800F00700B84201D0012049
:10112000E5E72878400705D56068E96820F4E060C5
:10113000084360602878000706D56068296920F4B4
:10114000605040EAC100606000F03EF86168084A03
:10115000C1F30311515CC8400649086006480068A5
:10116000FFF712FE0020C2E70020024000100240FC
:10117000782C0008240000201C0000200148006892
:1011800070470000240000200448054900684968B1
:10119000044AC1F30221515CC8407047240000207A
:1011A00000100240882C000804480549006849687E
:1011B000044AC1F3C221515CC8407047240000209A
:1011C00000100240882C000812A185B00FC98DE8DC
:1011D0000F0014A0144A006804905168134801F0ED
:1011E0000C03042B10D0082B0ED1C1F38343C90389
:1011F0001DF803000AD5516804AAC1F34041515CAF
:101200000A4A5043B0FBF1F005B070470849484323
:10121000FAE7000002030405060708090A0B0C0D93
:101220000E0F1010010200000010024000127A00A0
:1012300000093D002DE9F84F040070D02078C04D22
:10124000C00749D06868C0F38100012807D06868EA
:10125000C0F38100022809D16868C00306D5286858
:10126000800339D560680028E7D035E06068B0F5C4
:10127000803F0BD010B1B0F5A02F11D0286820F41A
:1012800080302860286820F4802002E0286840F43C
:1012900080302860606890B1FFF756FD06460AE08E
:1012A000286840F480202860F0E700BFFFF74CFD7D
:1012B000801B642873D828688003F7D50CE0FFF7FB
:1012C00043FD064605E000BFFFF73EFD801B642896
:1012D000F0D828688003F7D420789A4E80074FF022
:1012E00001094FF0000839D5686810F00C0F07D0DD
:1012F0006868C0F38100022809D16868C00306D479
:101300002868800714D52069012808D110E02069D9
:10131000B0B1C6F80090FFF717FD074605E00AE1F7
:10132000FFF712FDC01B0228C4D828688007F7D534
:101330002868616920F0F80040EAC10028600DE0EB
:10134000C6F80080FFF700FD074604E0FFF7FCFC4D
:10135000C01B022823D828688007F7D4207800070C
:101360002CD57948A169D9B1C0F80090FFF7ECFC01
:10137000074604E0FFF7E8FCC01B02280FD8686AA4
:101380008007F7D571484FF4FA510068B0FBF1F0CF
:10139000009000BF0098411E0091FAD20EE080E05C
:1013A000C0F80080FFF7D0FC074604E0FFF7CCFC54
:1013B000C01B022875D8686A8007F7D420784007D8
:1013C00060D5E8690027C00008D4E86940F0805083
:1013D000E861E869012700F0805000905C480168EE
:1013E000C90513D40168834641F480710160FFF799
:1013F000ABFC824606E000BFFFF7A6FCA0EB0A00AC
:1014000064284ED8DBF80000C005F5D5E068012857
:101410000AD008B1052813D0286A20F001002862FC
:10142000286A20F0040002E0286A40F001002862E7
:10143000E06841F2883B98B1FFF786FC82460BE0FA
:10144000286A40F004002862EEE700BFFFF77CFC4A
:10145000A0EB0A0159455AD8286A8007F6D50CE056
:10146000FFF772FC824605E0FFF76EFCA0EB0A0175
:1014700059454CD8286A8007F6D41FB1E86920F096
:101480008050E861E06988B36968C1F3810102298D
:1014900044D00228C6F8608004D0FFF755FC04460B
:1014A00038E034E0FFF750FC074604E0FFF74CFC5F
:1014B000C01B02282BD828688001F7D4206AB0F519
:1014C000803F05D16868A16820F400300843686057
:1014D000D4E908010843696821F47411084368607D
:1014E000C6F86090FFF730FC044606E025E000BF38
:1014F000FFF72AFC001B022809D828688001F7D5CD
:101500001BE000BFFFF720FC001B022802D90320CC
:10151000BDE8F88F28688001F4D40EE00128F7D0E8
:101520006868226A00F48031914204D1616A00F453
:101530007010884201D00120EAE70020E8E70000AF
:101540000010024000004242800442422400002079
:1015500000700040024850F8210080B2704700003F
:10156000006C0040024800EB810091B201607047BE
:10157000006C0040F8B505004FF0000016460C4620
:10158000009006D02CB100226946284600F019F8D8
:1015900008B10120F8BD287B2070E87BE070697BF2
:1015A0006170A97BA17056B100F0DCFEE07060783C
:1015B00000F0D8FE6070A07800F0D4FEA07000208B
:1015C000F8BD2DE9F04791460C465FEA00084AD085
:1015D00084B3D8F800004068400744D4404600F087
:1015E0005FFF4FF461620546B0FBF2F1B0FBF2F32E
:1015F00002FB13503C23B0FBF3F0B5FBF2F6607036
:1016000002FB1650B0FBF3F203FB1200A070182986
:1016100031D31820B1FBF0F7B1FBF0F200FB121050
:101620002070404600F035FF411C04D0A84202D98A
:10163000461B02E017E04FF0FF36A7EB071000EB68
:101640004000C0EB001005EBC0152946404600F0F5
:1016500076FF40B9701C01D0711900E03146404658
:1016600000F059FF10B10120BDE8F087394640462F
:1016700000F083FE00E02170B9F1000F0BD020785C
:1016800000F070FE2070607800F06CFE6070A07852
:1016900000F068FEA0700020E6E7000070B50400CE
:1016A00003D0607C002610B105E0012070BD2674D7
:1016B000204600F043F802206074204600F010F944
:1016C000042578BB204600F0AFFE58BB2068416877
:1016D00021F007014160A06820B11748016821F09E
:1016E000010101601448001F0168A26821F46071C3
:1016F000114301606068411C04D10120FFF7C8FB61
:1017000080B1401E21688A6822F00F0242EA10422E
:101710008A602168CA6860F30F02CA60204600F040
:101720009DFE08B16574C0E7E67301206073A07385
:101730006074002070BD0000306C004008B5006887
:10174000084988420DD1FFF79DFB0748C16941F068
:101750000061C161C069054900F00060009001208E
:10176000086008BD00280040001002403C044242CE
:101770002DE9F0410D4604003BD0C5B3207C012883
:101780003AD04FF0010884F8108002206074E878A5
:1017900072B300F0DEFDE073687800F0DAFD60738C
:1017A000A87800F0D6FDA073C2B2617BE07B00F0A8
:1017B00087FE20732870204600F072FE4FF46161AE
:1017C000B0FBF1F1002518292DD91822B1FBF2F157
:1017D000A1EB011101EB4101C1EB011100EBC116BD
:1017E0003146204600F0ABFE0427C8B90BE000E00C
:1017F00004E00120BDE8F0810220FBE7E073687897
:101800006073A878CFE7204600F043FE411C0AD061
:10181000B04208D206490144204600F07CFE10B1D7
:1018200067742574E5E784F8118025740020E1E7EA
:10183000805101002DE9F0410D46040024D01DB374
:10184000207C012823D04FF0010884F8108002206A
:1018500060742878EAB100F07CFD4FF4616100FB10
:1018600001F6687800F075FDC0EB001006EB80060D
:10187000A87800F06EFD35182946204600F05FFE7E
:101880000026042710BB0FE00120BDE8F0810220F4
:10189000FBE74FF4616148436978C1EB011100EB4C
:1018A0008100A9784518E7E72068416821F0050123
:1018B0004160204600F0EDFD411C0AD0A84208D24C
:1018C00006490144204600F026FE10B167742674D4
:1018D000DAE784F8118026740020D6E780510100F1
:1018E00070B504000AD02068416821F00801416009
:1018F000FFF72AFA05464FF47A7608E0012070BD1A
:10190000FFF722FA401BB04201D9032070BD2068C6
:1019100040680007F4D5002070BD4FF0E021042896
:10192000086903D020F004000861704740F004000B
:10193000FAE710B5401EB0F1807F01D3012010BD41
:101940004FF0E02460610F21601701F0E3F8002000
:10195000A06107202061002010BD70477047000083
:1019600070B590F83C20012A2CD0012480F83C402E
:10197000022280F83D2003685A689D6822F07006B4
:101980000A6832435A60104B02689A420ED00F4BDD
:101990009A420BD0B2F1804F08D00D4B9A4205D03D
:1019A0000C4B9A4202D00C4B9A4204D1496825F064
:1019B00080031943916080F83D40002180F83C107D
:1019C000084670BD022070BD002C0140003401406B
:1019D0000004004000080040000C004010B5040066
:1019E00003D094F83D0010B107E0012010BD0020A5
:1019F00084F83C00204600F01FF8022084F83D00E7
:101A0000211D206800F02CFE012084F8460084F897
:101A10003E0084F83F0084F8400084F8410084F8D8
:101A2000420084F8430084F8440084F8450084F8B8
:101A30003D00002010BD000008B500680B49884239
:101A400012D10B48816941F40061816180690022F3
:101A500000F40060009011461920FFF7E1F9BDE89D
:101A600008401920FFF7CEB908BD0000002C014046
:101A70000010024090F83D10012901D0012070476C
:101A8000022180F83D100168CA6842F00102CA6074
:101A900000680E4988420ED00D4988420BD0B0F143
:101AA000804F08D00B49884205D00B49884202D0AC
:101AB0000A49884204D1816801F00701062903D050
:101AC000016841F00101016000207047002C0140D5
:101AD000003401400004004000080040000C0040B9
:101AE00070B5044690F83C00012817D0012584F811
:101AF0003C50022084F83D002068826822F0770282
:101B000022F47F4282600868502830D00DDC202803
:101B10004DD005DC98B310283BD148E0022070BDC1
:101B2000302844D0402834D139E0602828D07028AB
:101B300006D0B0F5805F2CD0B0F5005F29D10AE067
:101B4000CB68D1E90121206800F0D0FD20688168D0
:101B500041F0770109E0CB68D1E90121206800F06C
:101B6000C5FD2068816841F48041816011E0CA6848
:101B70004968206800F0CCFD5021206807E016E09D
:101B8000CA684968206800F0D4FD6021206800F030
:101B9000B7FD84F83D50002084F83C0070BDCA6851
:101BA0004968206800F0B4FD40212068EFE7226812
:101BB00001461046EBE7704770B5044600680169BE
:101BC0004FF00005C943890715D4C168C943890787
:101BD00011D4E91E01610120207720688069800707
:101BE000204602D0FFF7E7FF04E000F098F8204617
:101BF00000F096F8257720680169C943490717D492
:101C0000C168C943490713D46FF004010161022080
:101C100020772068806910F4407F204602D0FFF7CB
:101C2000CAFF04E000F07BF8204600F079F8257741
:101C300020680169C943090716D4C168C943090767
:101C400012D46FF008010161042020772068C06978
:101C50008007204602D0FFF7AEFF04E000F05FF8F7
:101C6000204600F05DF8257720680169C943C90660
:101C700017D4C168C943C90613D46FF010010161BC
:101C8000082020772068C06910F4407F204602D0E9
:101C9000FFF791FF04E000F042F8204600F040F822
:101CA000257720680169C943C90708D1C168C943BC
:101CB000C90704D1891E0161204600F033F820686D
:101CC0000169C943090609D4C168C943090605D495
:101CD0006FF0800101612046FFF73FFE2068016937
:101CE000C943490609D4C168C943490605D46FF000
:101CF00040010161204600F021F820680169C943D4
:101D000089060BD4C168C943890607D46FF0200146
:101D100001612046BDE87040FFF720BE70BD7047EE
:101D2000704700000349884203D103480168491CF9
:101D3000016070473C000020080000207047704799
:101D400010B504460068416994F83D20C1F3C01104
:101D5000212A0BD151B1416921F080014161606BB1
:101D600008B1FEF791FC204600F090FD2068416923
:101D700094F83E20C1F38011222A0BD151B1416960
:101D800021F040014161A06B08B1FEF77DFC2046C7
:101D900000F064FD002010BD70470000F8B5026837
:101DA00004461068D168536910F00F0F4FF000051A
:101DB00053D003F0010601F4907737435FD0C20798
:101DC00005D0CA0503D5226C42F001022264420705
:101DD00005D5DA0703D0226C42F0020222648207A2
:101DE00005D5DA0703D0226C42F004022264020710
:101DF00007D501F02002324303D0226C42F00802E2
:101E00002264226C002A34D0800604D5880602D5CC
:101E1000204600F044FD20684069216CC0F380102A
:101E2000090700D430B3204600F018FD206841694E
:101E300049061BD5416921F040014161A06BA8B161
:101E400058494163A06BFEF743FC002811D0A06BFA
:101E5000416B01B0BDE8F040084783060FD58B0603
:101E60000DD52046BDE8F84000F019BD2046FFF72B
:101E700093FFF8BD2046FFF78FFF2564F8BD266B62
:101E80002023012E52D1C60650D5CE064ED510685D
:101E900050680090506940062AD5A16B08684068D8
:101EA0000004000CEAD0A68D8642E7D9E085886957
:101EB000202818D0D06820F48070D0602068416954
:101EC00021F0010141612068416921F04001416137
:101ED00084F83E3025632068C16821F01001C1609C
:101EE000A06BFEF7D1FBA08DE18D401A81B219E005
:101EF000A08DE18D401A81B2E08D0028BED000296E
:101F0000BCD0D06820F49070D0602068426922F084
:101F10000102426184F83E3025632068C26822F0E5
:101F20001002C2602046FFF70AFFF8BD05062BD558
:101F30000D0629D594F83D002128F6D1A068B0F50A
:101F4000805F01D12069B0B1206A411C2162216803
:101F500000784860E08C401E0004000CE084E4D16E
:101F60002068C16821F08001C1602068C16841F02B
:101F70004001C160F8BD206A0088C0F308005060CD
:101F8000206A801C2062E5E74006F3D54806F1D5BB
:101F9000D168204621F04001D16084F83D3000F046
:101FA000FBF8F8BD5727000870B5040004D094F87A
:101FB0003D00002510B106E0012070BD84F83C50C2
:101FC000204600F023F8242084F83D002068C168F2
:101FD00021F40051C160204600F0BCFC206801697A
:101FE00021F4904101612068416921F02A01416199
:101FF0002068C16841F40051C1602564202084F844
:102000003D0084F83E00002070BD0000F0B585B0B2
:1020100000240646009401940294039400682D491C
:10202000884254D12C48816941F4804181618169A1
:1020300001F480410491816941F00401816180696A
:10204000264D00F0040004904FF400700090022030
:1020500001900320039069462846FEF76BFD281582
:10206000CDE90004694628460294FEF763FD1D4D44
:102070001B488027C5E90004C5E902472C616C6153
:10208000AC612846EC61FEF7DFFC08B1FEF7FAFA16
:10209000B5636E62134D12484435143801C51020E3
:1020A00091C5104845F8104944306C61AC61EC6151
:1020B000FEF7CAFC08B1FEF7E5FA75630022114687
:1020C00025206E62FEF7ACFE2520FEF79BFE05B0D4
:1020D000F0BD00000038014000100240000801403F
:1020E000580002402C01002090F83E30202B0ED1E9
:1020F00059B152B190F83C30012B08D0012380F83F
:102100003C300023036300F081BC012070470220B3
:10211000704770477047000070B5044690F83D0066
:10212000202830D169B362B394F83C0001282AD04A
:10213000012084F83C002162A284E2840025256409
:10214000212084F83D00636B10489862636B10484F
:10215000D862636B0F481863606B1346456326684B
:10216000606B321DFEF7AEFC21686FF04000086026
:1021700084F83C502068416941F0800141610020B1
:1021800070BD012070BD022070BD00002528000830
:10219000532800086727000870477047FEE70000D3
:1021A0000D4808B5416941F00101416140690022D3
:1021B00000F00100009011460E20FEF731FE0E20C7
:1021C000FEF720FE002211460F20FEF729FEBDE893
:1021D00008400F20FEF716BE0010024010B586B072
:1021E000002000900190029003900D48816941F019
:1021F0000401816180690B4C00F00400012204900D
:1022000011462046FEF79AFD01210220CDE9021079
:102210000091019169462046FEF78CFC06B010BD86
:1022200000100240000801401CB500200190009001
:102230001C481B4901604FF0FF3141604FF4807131
:102240008160FFF72BFA08B1FEF71CFA012115484F
:10225000FFF780F9A0F5905134391FD006248DF88E
:1022600004408DF805408DF80640012201A90D4873
:10227000FFF7E0FA08B1FEF705FA8DF800408DF897
:1022800001408DF802408DF803400122694605485F
:10229000FFF76EFA002801D0FEF7F4F91CBD00002C
:1022A000002800402800002010B586B000241848FF
:1022B00000940194029403940494144905940160D9
:1022C0003F21C0E9011440F2E731C0E90314802145
:1022D000C0E90541FFF782FB08B1FEF7D3F94FF4DF
:1022E0008050009069460A48FFF7FAFB08B1FEF7F4
:1022F000C9F9049404A906480594FFF731FB0028A6
:1023000001D0FEF7BFF906B010BD0000002C01405F
:102310003C0000200C4810B50A4901604FF4E1313F
:102320004160002181600C22C160C0E9041281611A
:10233000C161FFF739FE002803D0BDE81040FEF769
:10234000A1B910BD00380140E8000020FEE7FEE71B
:102350007047010901EB810100F00F0000EB410023
:10236000C0B27047002102E00A38C0B2491C0A28F6
:10237000FAD2090740EA116070472DE9F04104469E
:102380000025C07B627BA37B42E0012A16D0032A92
:1023900014D0052A12D0072A10D0082A0ED00A2AF3
:1023A0000CD00C2A0AD0042A10D0062A0ED0092AF2
:1023B0000CD00B2A0AD0022A0DD028E01F2B0CD3F8
:1023C0000C2A05D101221346401C20E01E2B04D309
:1023D0000123521C1BE01C2B02D203F1010316E067
:1023E00011D183B29E0710D16426B3FBF6F706FB2A
:1023F000173636B94FF4C876B3FBF6F706FB17333A
:102400001BB91D2303E01D2B01D1032201236D1CE9
:102410008D42BAD3D1B2E0736173DAB2A27300F025
:102420004FF82073BDE8F08170B50446FEF78CFCD0
:1024300005464FF47A7606E0FEF786FC401BB04274
:1024400001D9032070BD206840688006F4D520685B
:10245000416841F010014160002070BD70B5044634
:102460000068416821F010014160FEF76DFC0546EF
:102470004FF47A7607E000BFFEF766FC401BB042DF
:1024800001D9032070BD206840688006F4D5002083
:1024900070BD0168086A496A89B241EA0040704724
:1024A000006881698AB2C1698BB2816989B28A4246
:1024B00003D0C06961F31F40704743EA0240704790
:1024C000F0B56424C1EBC1030927A500072603EB7F
:1024D00001130329B3FBF7F100F5FA60114401443D
:1024E0000AD2401EB0FBF4F201EB9001B0FBF5F014
:1024F000891A0844001D08E0B0FBF4F201EB9001DA
:10250000B0FBF5F0891A0844801CB0FBF6F106FB1D
:102510001100C0B2F0BD70B50D4606460024FFF7AD
:1025200083FF48B93168280C08623168A8B2486254
:102530003046FFF793FF00B10124204670BD70B50F
:102540000D4606460024FFF76FFF48B93168280C96
:1025500088613168A8B2C8613046FFF77FFF00B1DB
:102560000124204670BD70471CB504460020019030
:10257000009020798DF8040060798DF80500A0792D
:102580008DF80600012201A91048FFF753F908B1A0
:10259000FEF778F8E0798DF8000060788DF8030098
:1025A000A0788DF80100E0788DF8020001226946DC
:1025B0000648FFF7DDF808B1FEF764F841F234226F
:1025C00001210248FEF7CEFF1CBD000028000020BC
:1025D000FEF7C0BB70B596B028216846FDF728FF0E
:1025E00014210AA8FDF724FF18210FA8FDF720FFEA
:1025F00001250A2000901020CDE9045000244FF45A
:1026000060100226CDE90840CDE906566846FEF77F
:1026100011FE08B172B6FEE70F20CDE90A064FF4AD
:102620008060CDE90C4002210AA80E94FEF710FD4F
:1026300008B172B6FEE74FF40070CDE90F500FA855
:10264000FEF790FC002801D072B6FEE716B070BD10
:10265000704700000148FFF7AFBA00003C000020BF
:10266000F0B502681C4B1D4D1D4E1E4F1E4C4FF009
:10267000804C984209D0A04207D0604505D0A842BE
:1026800003D0B04201D0B84204D122F0700E4A68A3
:1026900042EA0E02984209D0A04207D0604505D018
:1026A000A84203D0B04201D0B84203D122F4407511
:1026B000CA682A434D6922F080022A4302608A6870
:1026C000C2620A688262984201D0A04201D10969BF
:1026D000016301214161F0BD002C01400004004074
:1026E00000080040000C00400034014010B5846830
:1026F00042EA032224F47F440A432243826010BD4D
:10270000826822F070020A4342F00701816070473C
:1027100010B5036A046A24F001040462846924F099
:10272000F00444EA021423F00A020A4384610262BC
:1027300010BD10B5036A23F0100303628369046AB5
:1027400023F4704343EA023224F0A00343EA011168
:102750008261016210BD10B5406A0021C185C1844B
:10276000FFF71AFB10BD70B5446A2068406994F801
:102770003D10C0F3C0100025212904D118B1E58413
:10278000204600F083F82068406994F83E10C0F3BA
:102790008010222904D118B1E585204600F05EF8AA
:1027A000206C40F0100020642046FFF7F5FA70BD61
:1027B00010B50146406A0968096889061BD40021E2
:1027C000C1850168CA6822F48072CA6001684A69DA
:1027D00022F001024A6101684A6922F040024A611E
:1027E000202180F83E10016B012904D10168CA68DC
:1027F00022F01002CA60016B012902D0FFF789FCA8
:1028000010BD818DFFF79BFA10BD10B5406A016BBA
:10281000012902D0FFF77EFC10BD818D4908FFF72A
:102820008EFA10BD10B50146406A0968096889062C
:102830000CD40021C18401684A6922F080024A61F7
:102840000068C16841F04001C16010BDFFF7A4FC01
:1028500010BD10B5406AFFF7A0FC10BD0168CA6842
:1028600022F49072CA6001684A6922F001024A614A
:10287000016B012904D10168CA6822F01002CA6004
:10288000202180F83E100021016370470168CA686A
:1028900022F0C002CA60202180F83D10704708B5C0
:1028A00090F83E10222901D0022008BD82684FF422
:1028B00080539A4201D1016921B1816A9A421BD0A9
:1028C0004AB10AE00268816A5268C2F308020A80CB
:1028D000816A891C08E0026972B10268526802F0DC
:1028E0007F020A70816A491C8162C18D491E0904F8
:1028F000090CC18503D019E002685268F1E701684C
:10290000CA6822F02002CA600168CA6822F4807294
:10291000CA6001684A6922F001024A61202180F8F8
:102920003E10016B012903D0FFF7F3FB002008BD27
:10293000002101630168CA6822F01002CA600168C0
:102940000A68D20602D50A6849680091818DFFF7AE
:10295000F6F9EBE770B5044600680169E26821F416
:102960004051114301612169A0680843616908432E
:102970002168CA6841F20C639A430243CA60206826
:102980004169A26921F44071114341611E492068E7
:10299000884202D1FEF708FC01E0FEF7F5FB00EBF0
:1029A000C00101EB0012606864218000B2FBF0F30B
:1029B000B3FBF1F36FF018067343B2FBF0F5B2FB13
:1029C000F0F605EB8305322303EB0515B5FBF1F5B6
:1029D000B6FBF1F605F0F00505EB0615B2FBF0F6D7
:1029E000B2FBF0F0B0FBF1F06FF01802504306EBD1
:1029F000800003EB0010B0FBF1F0216800F00F0045
:102A00002844886070BD00000038014038B58162FC
:102A100082850025134604460564222084F83E0082
:102A2000A26B13489062A26B1248D062A26B12484C
:102A30001063A06B0A4645632168A06B091DFEF771
:102A400041F8206801684168009184F83C50C168F1
:102A500041F48071C1602068416941F00101416128
:102A60002068416941F040014161002038BD00000B
:102A7000B12700080B2800086727000810B500F0F0
:102A800025F8BDE810400148FFF788B9E8000020AC
:102A9000FEE700000B4810B501780B4CAA290DD0B9
:102AA0002178FDF7CDFD0020207060700549BDE85C
:102AB0001040642201F16400FFF716BB401CFFF7D1
:102AC00053FDF0E784000020100000200E4808B5F8
:102AD00000680168C1F30011002914D00168406842
:102AE00000900948FFF72CF9074844300068406817
:102AF000C0F164010548017001214170044801687A
:102B000041F00101016008BDE80000201000002034
:102B1000100401400907090E002804DB00F1E02041
:102B200080F80014704700F00F0000F1E02080F8FA
:102B3000141D704730380A2801D201207047002048
:102B40007047704710B50420FEF7E7FEFEF716FB4E
:102B50000249B0FBF1F00249086010BD40420F008D
:102B60000000002004490A685206FCD5024AC1B29E
:102B7000121D11607047000000380140FEF7F2F8A6
:102B8000FFF728FDFFF72AFBFFF70AFBFFF78CFB97
:102B9000FFF7C0FBFFF748FBFFF7D4FF22480168AF
:102BA00041F001010160002203210620FEF738F9FF
:102BB0000620FEF727F91D480068C16841F01001A2
:102BC000C16064221A491948FFF78EFA1948FEF7C6
:102BD00051FF19A0FDF720FB1B4C4FF4FA756068FC
:102BE000A842FCD30020606001211848FEF79EF83F
:102BF000002215491648FEF7E4FC1349002208316B
:102C00001348FEF7B7FC1048083083784278C17843
:102C100010A0FDF701FB0C4883784278017812A0E0
:102C2000FDF7FAFADBE7000000040140E8000020AD
:102C3000840000203C00002073746D333266313014
:102C4000335243540D0A00000400002000080140E4
:102C5000280000203230253032642F253032642F96
:102C60002530326420000000253032643A253032AD
:102C7000643A2530326400000000000000000000CB
:102C80000102030406070809000000000102030412
:102C90000400000800000000000000020001000025
:102CA00010000000C42C00080000002028000000D4
:102CB0006C010008EC2C000828000020F007000040
:102CC0008801000800000000000000000000000073
:102CD00000000000000000000000000001000000F3
:0C2CE00010000000000000000024F400C0
:0400000508000131BD
:00000001FF
