:020000040800F2
:1000000060090020AD010008771B0008DF1500081B
:10001000751B0008ED0700087D1F000800000000A8
:100020000000000000000000000000007D1C00082F
:10003000C908000800000000791B00087F1C0008A8
:10004000C7010008C7010008C7010008C701000870
:10005000C7010008C7010008C7010008C701000860
:10006000C7010008C7010008C7010008C701000850
:10007000C7010008C7010008C7010008C701000840
:10008000C7010008C7010008C70100080000000000
:10009000000000000000000000000000C701000890
:1000A000C7010008C7010008C7010008C701000810
:1000B000C7010008C7010008C7010008C701000800
:1000C000C7010008C7010008C7010008C7010008F0
:1000D000C7010008711F0008C701000800000000E8
:1000E000C7010008C7010008C701000800000000A0
:1000F000000000000000000000000000C701000830
:1001000000000000C7010008C7010008C70100087F
:1001100000000000000000000000000000000000DF
:10012000C7010008C7010008C7010008C70100088F
:10013000C7010008000000000000000000000000EF
:10014000000000000000000000000000C7010008DF
:10015000C7010008C7010008C7010008C70100085F
:10016000C7010008C70100080000000000000000EF
:10017000000000000000000000000000000000007F
:1001800000000000C701000800000000000000009F
:10019000C7010008C7010008DFF80CD000F0F6F92D
:1001A00000480047052900086009002006488047EC
:1001B00006480047FEE7FEE7FEE7FEE7FEE7FEE74C
:1001C000FEE7FEE7FEE7FEE7051D000899010008CF
:1001D0002DE9F05F0546002092469B46884606467C
:1001E000814640241BE0284641464746224600F00F
:1001F00017F953465A46C01A914110D31146184672
:10020000224600F0FEF82D1A67EB01084F46224601
:100210000120002100F0F5F817EB00094E41201EE7
:10022000A4F10104DFDC484631462A464346BDE8D6
:10023000F09FD2B201E000F8012B491EFBD27047BB
:100240000022F6E710B513460A4604461946FFF7A2
:10025000F0FF204610BD2DE9FE4F804681EA0300E5
:10026000C00F0C46009021F0004123F00045B8EB90
:100270000200A94105D24046214690461C460B4645
:10028000024623F00040104347D0270DC7F30A0071
:10029000C3F30A510290401A019040286BDAC3F36D
:1002A000130040F4801B0098924620B10023D2EB4B
:1002B000030A63EB0B0B01985946C0F1400250460C
:1002C00000F09FF806460D4650465946019A00F048
:1002D000B7F810EB08006141002487EA115284EA64
:1002E000E7731A4340D0009A62B3019A012A4FEA99
:1002F000075215DC001B61EB02014FF0004202EADD
:100300000752CDE90042001C41F5801132462B46D0
:1003100000F0EEF803B0BDE8F08F40462146F9E763
:10032000001B61EB0201001C41F5801300185B41CA
:100330002018A2F5001747EB030140EAD570B61963
:100340006D4111E06D084FEA360645EAC0754FEA87
:100350000752001B61EB0201001C41F580114908A6
:100360004FEA30000019514132462B4603B0BDE838
:10037000F04F00F0AEB80098012240000023D0EB0F
:10038000020263EBE073009821464FEAE074B8EB99
:10039000000061EB0401E9E783F000435BE781F0D3
:1003A000004158E700F0004230F000400AD0C10D93
:1003B00001F56071C0F3160042EA0151C20840071E
:1003C0001143704700200146704701F0004330B4EC
:1003D00021F0004150EA010206D00A0DA2F5607238
:1003E000C1F31301002A02DC30BC00207047440F27
:1003F00044EAC104C100E01830BC00EBC25000F078
:1004000031B8202A04DB203A00FA02F100207047BC
:100410009140C2F1200320FA03F319439040704742
:10042000202A04DB203A21FA02F00021704721FA49
:1004300002F3D040C2F120029140084319467047B0
:10044000202A06DBCB17203A41FA02F043EAE07398
:1004500006E041FA02F3D040C2F120029140084385
:10046000194670470029A8BF7047401C490008BFC3
:1004700020F00100704710B4B0FA80FC00FA0CF0D4
:1004800050EA010404BF10BC704749B1CCF120040C
:1004900021FA04F411FA0CF118BF01212143084399
:1004A000A3EB0C01CB1D4FEA00614FEA102042BFC5
:1004B000002010BC704700EBC35010440029A4BFBB
:1004C00010BC7047401C490008BF20F0010010BC60
:1004D000704710B5141E73F1000408DA401C41F196
:1004E000000192185B411A4301D120F0010010BDB8
:1004F0002DE9F04D92469B4611B1B1FA81F202E02E
:10050000B0FA80F220329046FFF77BFF04460F4698
:1005100040EA0A0041EA0B0153465A46084313D009
:10052000114653EA010019D0C8F140025046FFF7C6
:1005300077FF05460E46504659464246FFF761FF93
:10054000084305D0012004E020463946BDE8F08D7F
:100550000020054346EAE0762C4337430A986305BA
:10056000E40AA0EB08000022FD0A44EA47540A30DE
:1005700002D500200146E9E7010510196941DDE9CE
:10058000084500196941BDE8F04DA2E7064C074D4A
:1005900006E0E06840F0010394E807009847103453
:1005A000AC42F6D3FFF7FCFD4877000868770008F7
:1005B0002DE9FE4F81EA030404F0004421F00041DC
:1005C00000944FF0000B23F0004350EA01045ED08A
:1005D00052EA03045BD0C3F30A54C1F30A552C4416
:1005E000A4F2F3340194A0FB0254C1F3130141F4CB
:1005F0008011C3F3130343F4801301FB024400FB97
:10060000034E840A970A44EA815447EA8357A4FBBD
:10061000076802958D0A05FB07854FEA932C04FBBA
:100620000C542705029D4FEA065847EA1637B5EBEA
:1006300008056EEB070C870E920E47EA811742EA17
:100640008312A7FB0201B6EB0B0164EB00042B0D38
:1006500043EA0C335E1844EB1C50DA465146E7FB84
:100660000201C5F313044FEA0B3343EA14534FEA74
:100670000432019C43EA0603A4F10C040294009C9A
:10068000CDE900B4FFF734FF03B0BDE8F08F0020E0
:100690000146F9E72DE9F04D81EA030404F0004B2F
:1006A00021F0004514464FF0000A23F0004150EAC3
:1006B000050220D054EA01021DD0C5F30A570246B4
:1006C000C5F31303C1F31300C1F30A5640F48015B8
:1006D00043F48013A7EB0608101BD64608F2FD383A
:1006E00073EB050002D308F1010801E092185B41A9
:1006F000B8F1000F03DA00200146BDE8F08D0020BC
:100700004FF48011064684460EE0171B73EB050775
:1007100005D3121B63EB050306434CEA010C4908A1
:100720004FEA300092185B4150EA0107EDD152EADE
:10073000030012D082EA040083EA0501084305D0D1
:10074000101BAB4106D20122002306E000224FF02D
:10075000004302E06FF0010253101AEB06004CEB6D
:10076000085110EB0A0041EB0B01BDE8F04DFFF71B
:10077000B0BE0EB5C10F80EAE0700844CA07002180
:1007800040F233438DE80E000A460B46FFF7B0FEF9
:1007900003B000BD0EB540F2334102910021CDE916
:1007A00000110A460B46FFF7A3FE03B000BD70B56B
:1007B000C1F30A5201F000450024C1F3130140F2D5
:1007C000FF3341F480119A4201DA002070BD40F2FB
:1007D00033439A42A2F2334203DC5242FFF720FE37
:1007E00000E090402C43F1D0404270BDFEE7000095
:1007F0000A2839D890B31D4924220B280A7033D215
:10080000DFE800F032060A0E12161A1E22272D000B
:100810000520487106207047092048720A20704759
:100820000D2048730E207047112048741220704725
:100830001520487516207047192048761A207047F1
:100840001D2048771E207047212081F8210022209A
:100850007047252081F825002620704704E02920D4
:1008600081F829002A20F8E70020F6E7300500206B
:1008700001B50A282DED020B12D8002810D00B2844
:100880000ED2DFE800F00D06080E10121416181A2A
:100890001C00012200E005220A49684600F016F813
:1008A0000EBD0922F8E70D22F6E71122F4E7152222
:1008B000F2E71922F0E71D22EEE72122ECE72522DC
:1008C000EAE70000300500207047704703788B543A
:1008D000114443784B7082788A70C078C870704732
:1008E00090F83510022903D080214165012070471E
:1008F000052180F835100068016821F001010160D0
:100900000020704770B5044600F0DEF80546601C14
:1009100002D004480078044400F0D6F8401BA042FE
:10092000FAD370BD040000202DE9F84F00224FF0EB
:10093000010803254FF00F0E0B6808FA02F423405C
:10094000A34271D14E68012E05D0022E03D0112E84
:1009500001D0122E15D18668570005FA07FC26EA49
:100960000C06D1F80CC00CFA07FC4CEA060CC0F8D7
:1009700008C04668A6430C79C4F30014944034437D
:100980004460C668570005FA07FC8C6826EA0C0626
:10099000BC403443C4604C68022C01D0122C13D1EB
:1009A000D40800EB8404A346D4F8209054074FEAFF
:1009B000D46A0EFA0AF629EA06090E6906FA0AF658
:1009C00046EA0906CBF8206004680E7924EA0C0494
:1009D00006F00306BE40264306604C68E40056D588
:1009E0002E4C266846F480462660246822F00306D2
:1009F00004F4804400942A4C3444A446D4F80848B3
:100A00009607370F0EFA07F6B443264EB04201D1CF
:100A1000002615E0244EB04201D1012610E0234EFD
:100A2000B04202D102260BE031E0214EB04201D1AA
:100A3000032605E01F4EB04201D1042600E0072640
:100A4000BE402643CCF808681B4E34684F689C4370
:100A5000FF0300D51C433460174E361D34684F68C1
:100A60009C43BF0300D51C433460134E08363468E2
:100A70004F689C43FF0200D51C4334600E4E0C3679
:100A800034684F689C43BF0200D51C433460521C3D
:100A9000102AFFF451AFBDE8F88F0000443802403F
:100AA0000030014000000240000402400008024003
:100AB000000C024000100240003C01400AB181617C
:100AC00070470904FBE70000014880687047000098
:100AD0000400002002488168027811448160704758
:100AE000040000200B4810B5016841F4007101605A
:100AF000016841F480610160016841F48071016026
:100B0000032000F06FF8002000F006F800F024F851
:100B1000002010BD003C024070B50D4D04464FF45E
:100B20007A712878B1FBF0F00A490968B1FBF0F05E
:100B300000F024FC48B9102C07D200222146501E98
:100B400000F030F800206C6070BD012070BD000026
:100B500004000020100000200A4808B5016841F494
:100B600080410160006800F4804000900548001F4B
:100B7000016841F080510160006800F080500090F1
:100B800008BD000044380240002809DB00F01F02C5
:100B9000012191404009800000F1E020C0F80011DF
:100BA00070470000F0B40E4B1B680C46C3F30223E1
:100BB000C3F10705042D00D90425191D072901D209
:100BC000002300E0DB1E012606FA05F1491E214044
:100BD00099409E40761E16403143F0BC01F0E7B9C3
:100BE0000CED00E0064900F0070208684FF6FF032D
:100BF000184040EA0220034A104308607047000092
:100C00000CED00E00000FA052DE9F0470E46050066
:100C100065D0DFF81481D8F80000F7B200F00F00BB
:100C2000B04207D288F80070D8F8000000F00F003A
:100C3000B04254D128683D4C810712D5400703D5F6
:100C4000206840F4E05020602878000703D5206831
:100C500040F4604020602068A96820F0F00008435C
:100C600020602878C0072DD03049686808390128ED
:100C700012D0022813D0032811D00968890700294F
:100C80002DDA216821F0030101432160FFF71CFFE9
:100C9000814641F2883A0EE009688903EFE7096866
:100CA0008901ECE7FFF710FFA0EB0901514502D9DC
:100CB0000320BDE8F0872068696800F00C00B0EB05
:100CC000810FEFD1D8F80010404601F00F01B1427A
:100CD00007D90770006800F00F00B04201D0012072
:100CE000E7E72878400705D52068E96820F4E05058
:100CF000084320602878000706D52068296920F479
:100D0000604040EAC100206000F038F82168084ADD
:100D1000C1F30311515CC8400649086006480068E9
:100D2000FFF7FAFE0020C4E7003C0240083802400A
:100D30000C76000810000020080000200448054937
:100D400000680968044AC1F38221515CC8407047B9
:100D500010000020083802401C76000804480549AD
:100D600000680968044AC1F34231515CC8407047C9
:100D700010000020083802401C760008154810B505
:100D8000006810F00C02144813D04110042A0FD050
:100D9000082A0ED10F4C241F2268236802F03F025C
:100DA0005B0207D52068C0F38810A0FB010106E0B4
:100DB000084610BD2168C1F38811A1FB0001002382
:100DC000FFF706FA2168C1F30141491C4900B0FB55
:100DD000F1F010BD083802400024F4002DE9F84F6E
:100DE00004006ED02078DFF83C93C007A9F1040519
:100DF0004AD009F104000168C1F38101012908D03A
:100E00000068C0F3810002280AD1D9F8000040022E
:100E100006D52868800337D560680028E1D033E024
:100E20006068B0F5803F10D0B0F5A02F286810D0D2
:100E300020F480302860286820F4802028606068D2
:100E4000A8B1FFF741FE06460DE0286840F4803067
:100E5000F4E740F480202860F7E700BFFFF734FE96
:100E6000801B642873D828688003F7D50CE0FFF74F
:100E70002BFE064605E000BFFFF726FE801B642818
:100E8000F0D828688003F7D42078DFF89C828007A8
:100E90004FF0000A3ED5A348001D016811F00C0F69
:100EA00008D00068C0F3810002280BD1D9F80000F7
:100EB000400207D42868800716D5E068012800D1D1
:100EC00012E02BE1E068B8B10120C8F80000FFF79C
:100ED000FBFD064605E000BFFFF7F6FD801B02287C
:100EE000C0D828688007F7D52868216920F0F80065
:100EF00040EAC10028600DE0C8F800A0FFF7E4FD5B
:100F0000064604E0FFF7E0FD801B02281FD8286892
:100F10008007F7D42078000722D5824E8348616984
:100F2000703671B101210160FFF7CEFD074604E084
:100F3000FFF7CAFDC01B022809D830688007F7D523
:100F40000EE0C0F800A0FFF7BFFD074605E082E015
:100F5000FFF7BAFDC01B02287DD830688007F7D4A0
:100F60002078400768D5DFF8BCB100270BF13C0BB7
:100F7000DBF80000C0000BD4DBF8001041F080511A
:100F8000CBF80010DBF80000012700F08050009043
:100F9000674E3068C00510D4306840F4807030600F
:100FA000FFF792FD009005E0FFF78EFD0099401AD3
:100FB000022850D83068C005F6D55A4EA0686C3665
:100FC00001280FD00528306810D020F001003060D3
:100FD000306820F004003060A068B8B1FFF774FDFD
:100FE00000900FE0306840F00100F4E740F00400AA
:100FF0003060F7E7FFF768FD0099411A41F2883049
:10100000814266D830688007F4D50EE0FFF75CFDBA
:10101000009007E0FFF758FD0099411A41F288302F
:10102000814256D830688007F4D42FB1DBF8001025
:1010300021F08051CBF80010A069C8B33949091DCF
:101040000968C1F3810102294AD00228504607D01D
:10105000C8F8600000E03CE0FFF736FD04463BE0E6
:101060004746C8F86000FFF72FFD064605E000BFC1
:10107000FFF72AFD801B02282BD828688001F7D4AF
:10108000D4E907010843A16A2A4A490802EB014151
:10109000626A41EA8211084394F82C1040EA016127
:1010A000C9F8001001203866FFF70EFD044606E07F
:1010B00036E000BFFFF708FD001B022809D82868AA
:1010C0008001F7D52CE000BFFFF7FEFC001B0228D3
:1010D00002D90320BDE8F88F28688001F4D41FE00E
:1010E0000128F7D0D9F80000E26900F480019142AC
:1010F00014D1226A00F03F0191420FD147F6C0712E
:10110000626A0140914209D1A26A00F440319142E1
:1011100004D1E16A00F07060884201D00120D9E773
:101120000020D7E70438024000004742800E4742C3
:10113000007000400000FFFF70B5040005D00025DE
:10114000A56294F8510010B106E0012070BD84F84A
:101150005050204600F030F8022084F851002068FA
:10116000016821F040010160D4E901010843D4E99C
:1011700003121143084361690843218B01F4007194
:101180000843E1690843216A0843A16A08432168CA
:101190000860A069042101EA1040616A08432168DF
:1011A00048602068C16921F40061C1616565012062
:1011B00084F85100002070BD10B586B0044614219B
:1011C0006846FFF73DF813492068884220D112484D
:1011D0000021026842F400420260006800F400400E
:1011E00005900D481038026842F002020260006863
:1011F00000F002000590282000900220CDE90101B6
:10120000032003900620049069460448FFF78CFBF6
:1012100006B010BD003C00404038024000040240CF
:101220002DE9F84F044690F8500000271D46164659
:10123000894601280DD04FF0010B84F850B0FFF71C
:1012400043FC804694F85100BA46012804D0022796
:101250008EE00220BDE8F88FB9F1000F7DD0002E9E
:101260007BD0032084F85100C4F854A0C4F8309017
:10127000A686E686C4F838A0A4F83CA0A4F83EA050
:10128000C4F844A0C4F840A0A068B0F5004F04D151
:101290002068016841F480410160206801684906C6
:1012A00003D4016841F040010160E068B0F5006FCF
:1012B000606803D030B3012E24D040E008B1012E85
:1012C0001CD1206B21680088C86006E02068816816
:1012D000890709D5216B0988C160206B801C2063B8
:1012E000E08E401EE08609E0FFF7EEFBA0EB080071
:1012F000A84202D3681C01D031E07DB3E08E002803
:10130000E4D11FE0206B21680078087306E02068B4
:101310008168890709D5216B09780173206B401C0E
:101320002063E08E401EE08609E0FFF7CDFBA0EBD6
:101330000800A84202D3681C01D010E075B1E08E0D
:101340000028E4D142462946204600F021FC08B19D
:1013500020206065A06820B107E008E0FFE70327D0
:1013600006E02068C16880680090606D00B10127C8
:1013700084F851B084F850A038466BE710B5401E91
:10138000B0F1807F01D3012010BD4FF0E0246061F7
:101390000F21601700F00BFE0020A06107202061E4
:1013A000002010BD7047000070B502680446106848
:1013B000D168536910F00F0F52D003F0010501F40A
:1013C00090762E435FD0C20705D0CA0503D5E26BE5
:1013D00042F00102E263420705D5DA0703D0E26B6F
:1013E00042F00202E263820705D5DA0703D0E26B1E
:1013F00042F00402E263020707D501F020022A430B
:1014000003D0E26B42F00802E263E26B002A33D0C1
:10141000800604D5880602D5204600F097FC206897
:101420004069E16BC0F38010090700D428B320465F
:1014300000F07EFC2068416949061AD5416921F017
:1014400040014161606BA0B11B490165606BFFF712
:1014500047FA002810D0606B016DBDE87040084766
:10146000830610D58B060ED52046BDE8704000F0EF
:101470006DBC2046FFF796FF70BD2046FFF792FF38
:101480000020E06370BD030606D50B0604D5204698
:10149000BDE8704000F03ABD4006F3D54806F1D5EE
:1014A000D168204621F04001D160202184F8391014
:1014B00000F094F870BD0000211D000870B5040014
:1014C00004D094F83900002510B106E0012070BD69
:1014D00084F83850204600F023F8242084F839009E
:1014E0002068C16821F40051C160204600F07AFCF8
:1014F0002068016921F4904101612068416921F06F
:101500002A0141612068C16841F40051C160E5636E
:10151000202084F8390084F83A00002070BD0000D3
:1015200010B586B0044614216846FEF789FE1849B6
:101530002068884229D117480021026842F0100231
:101540000260006800F0100005901248143802682C
:1015500042F001020260006800F0010005904FF4C3
:10156000C06000900220CDE9010103200390072014
:10157000049069460848FFF7D7F900221146252054
:10158000FFF710FB2520FFF7FFFA06B010BD0000A3
:10159000001001404438024000000240704790F8BB
:1015A0003930202B18D1A9B1A2B190F83830012BD5
:1015B00012D001628284C2840021C163212280F89A
:1015C000392080F838100068C16841F08001C1609E
:1015D0000020704701207047022070477047FEE7E7
:1015E0002DE9F04107461C4615460E462A2000F01C
:1015F00007FA2837B8B200F01FFA2835A8B200F071
:101600001BFA2B2000F0FCF93536B0B200F014FACA
:101610003534A0B200F010FABDE8F0412C2000F003
:10162000EFB908B5002100908723F022084600F0AA
:1016300001F808BD2DE9F047141A5F1A641C7F1CDD
:101640007C43002564004FF49068089E444502D90D
:10165000A4F590654446FFF7C3FF370ADFF84C90C6
:10166000DFF84CA0F6B20020494606E001F8107001
:1016700001EB4002401C567080B2B0EB540FF5D322
:10168000012210215046FFF719FAA1B2074800F0D5
:10169000F1F8002D07D0454502D9A5F59065E2E7A0
:1016A0002C460025DFE7BDE8F08700001800002089
:1016B0000004024010B56E4C002280212046FFF746
:1016C000FDF97820FFF71EF9002240212046FFF7A0
:1016D000F5F97820FFF716F9012240212046FFF79F
:1016E000EDF97820FFF70EF9112000F089F9782044
:1016F000FFF708F9362000F083F9702000F08EF92A
:101700003A2000F07DF9052000F088F9B22000F0C1
:1017100077F90C2000F082F90C2000F07FF900200E
:1017200000F07CF9332000F079F9332000F076F9ED
:10173000B72000F065F9352000F070F9BB2000F00B
:101740005FF9192000F06AF9C02000F059F92C2047
:1017500000F064F9C22000F053F9012000F05EF9B6
:10176000C32000F04DF9122000F058F9C42000F019
:1017700047F9202000F052F9C62000F041F90F206F
:1017800000F04CF9D02000F03BF9A42000F046F91D
:10179000A12000F043F9E02000F032F9D02000F061
:1017A0003DF9042000F03AF90D2000F037F911203E
:1017B00000F034F9132000F031F92B2000F02EF95D
:1017C0003F2000F02BF9542000F028F94C2000F0C5
:1017D00025F9182000F022F90D2000F01FF90B2048
:1017E00000F01CF91F2000F019F9232000F016F971
:1017F000E12000F005F9D02000F010F9042000F0FD
:101800000DF90C2000F00AF9112000F007F913205F
:1018100000F004F92C2000F001F93F2000F0FEF860
:10182000442000F0FBF8512000F0F8F82F2000F0E1
:10183000F5F81F2000F0F2F81F2000F0EFF820204C
:1018400000F0ECF8232000F0E9F8212000F0D8F8AF
:10185000292000F0D5F800218623EF220846FFF763
:10186000BFFE20460122BDE810408021FFF726B9C7
:101870000004024000F082B92DE9F05F203AD7B2AF
:101880001C46F022A2EB540282425BD3C4F18702D1
:101890008A4257DB0A19521E93B200EB5402521EC1
:1018A00092B2FFF79DFE3F4E102C1AD0202C18D07C
:1018B0000C2C49D0182C45D13B4907EB47004FF081
:1018C000300A002401EB00194FEA060819F80460F9
:1018D000E00756D004270025300654D5B8F800009C
:1018E00053E0600700D0012000EBD400610810FB3A
:1018F00001F000F0FF082D48002500EB071A00F565
:10190000BE5000EBC71BB1461AE0102C09D0202CAA
:1019100018D11BF805600027300605D5B9F800007E
:1019200004E01AF80560F6E7B9F8020000F084F860
:1019300070067F1C060EFFB2082FEDD36D1CEDB2B2
:101940004545E2D3BDE8F09F194807EB47014FF04A
:101950000C09002400EB8108002518F804703806F3
:1019600001D5308800E0708800F066F878066D1CBC
:10197000070EEDB2062DF2D3641CE4B24C45EBD356
:10198000E0E70827A7E7B8F8020000F055F870066E
:101990006D1C060EEDB2BD429ED3641CE4B25445EC
:1019A00094D3CFE700000020BC340008CC2E000800
:1019B000582A00082DE9F047044600F0FF091019E5
:1019C0000D46DDE908A61FFA80F8581987B210E025
:1019D000444503D305EB0A004C4685B2BD420DD207
:1019E000534629462046FFF747FF04EB5A0084B2CE
:1019F000761C3278A2F120005E28E9D9BDE8F08794
:101A000001B5002210210448FFF758F8012168466B
:101A1000FFF730FF08BD00000004024001B50122BD
:101A200010210448FFF74AF801216846FFF722FF1A
:101A300008BD00000004024008B500210091010A21
:101A40008DF800108DF80100012210210348FFF7E6
:101A500035F802216846FFF70DFF08BD000402407B
:101A6000F0B587B014216846FEF7EAFB1D48002553
:101A7000016841F080010160016801F08001059179
:101A8000016841F001010160016801F00101059167
:101A9000016841F0020101600068134E00F002008D
:101AA0000590012207213046FFF708F80F4F00226A
:101AB000D0213846FFF702F801240720CDE90004C1
:101AC00069463046CDE90245FEF72EFFD020CDE92C
:101AD00000040320CDE9024069463846FEF724FFA2
:101AE00007B0F0BD30380240000002400004024060
:101AF000114810B50F4901604FF4827141604FF4F5
:101B00000041816000210222C0E9031201224261EA
:101B10005202C0E906210162416281620A21C1626A
:101B2000FFF70AFB002803D0BDE81040FEF7CDBE4A
:101B300010BD0000003C0040980400200C4810B587
:101B40000A4901604FF47A314160002181600C2222
:101B5000C160C0E904128161C161FFF7AFFC0028D8
:101B600003D0BDE81040FEF7B0BE10BD001001402C
:101B7000F0040020FEE77047704700000A46014667
:101B80004FF47A730148FFF74BBB00009804002024
:101B900038B504461248134B0068B0FBF3F04FF41D
:101BA0007A73584300906068B0F5827F0DD10B4680
:101BB000009200228021204600F016F870B1606D7E
:101BC00040F020006065032038BD009830B1401E11
:101BD000009020688068C0430006F6D5002038BD1C
:101BE0001000002000366E012DE9F0411D46174619
:101BF0000E460446DDF8188008E0681C06D0FEF7A3
:101C000063FFA0EB0800A8420BD255B120688068A2
:101C100036EA000030D00020B842EED10020BDE806
:101C2000F0812068416821F0E00141606068B0F512
:101C3000827F0BD1A068B0F5004F02D0B0F5806F65
:101C400004D12068016821F040010160A06AB0F56C
:101C5000005F09D12068016821F40051016020680B
:101C6000016841F400510160012084F85100002016
:101C700084F850000320D2E70120CDE77047FEF73B
:101C800029BF000030B593B030216846FEF7D8FA7E
:101C900014210CA8FEF7D4FA18480025016841F079
:101CA00080510160006800F0805011901448016874
:101CB00041F4404101600068022400F4404011906A
:101CC00001200090000401908001CDE9064008AA9F
:101CD0000420642182E813000B906846FFF77EF829
:101CE0000CA90F2081E83100E002CDE90F050321A6
:101CF0000CA8FEF789FF13B030BD00004038024049
:101D0000007000400548016841F47001016003491A
:101D10004FF00060803908607047000088ED00E0F7
:101D200010B5806B0021C185C184FFF73BFB10BD5E
:101D30000168CA6822F49072CA6001684A6922F098
:101D400001024A61202180F83A10704710B590F8DE
:101D50003A10222901D0022010BD8168B1F5805FC0
:101D600011D00169002901681FD0496801F07F0383
:101D7000816A4A1C82620B70C18D491E0904090CDC
:101D8000C18518D02BE00269816A002A0268526876
:101D900005D0D2B20A80816A491C8162ECE7C2F3A5
:101DA00008020A80816A891CF7E74A68816A4B1C2D
:101DB00083620A70E0E70168CA6822F02002CA6004
:101DC0000168CA6822F48072CA6001684A6922F018
:101DD00001024A61202180F83A10FFF7DFFB002062
:101DE00010BD00002DE9F041044600680169E26879
:101DF00021F44051114301612169A068E26908435F
:101E00006169114308432168CA6849F20C639A4327
:101E10000243CA6020684169A26921F440711143FC
:101E20004161E069192764253226B0F5004F354A33
:101E3000354920684FF0000806D0884201D0904212
:101E400036D1FEF78BFF35E0884201D0904202D1B7
:101E5000FEF784FF01E0FEF771FF61684A18A0FBFE
:101E6000070148EB0803FEF7B3F90146B0FBF5F0B4
:101E70000201B1FBF5F06FF01803584301EB80004D
:101E800006EBC000B0FBF5F000F0F80002EB4002FA
:101E9000B1FBF5F0584301EB800006EBC000B0FB4E
:101EA000F5F000F00700216810448860BDE8F0817B
:101EB000FEF744FF61688B0F8A00A0FB0701FEF765
:101EC00087F90146B0FBF5F06FF01802504301EBC3
:101ED000800006EB0010B0FBF5F000F0F002B1FB63
:101EE000F5F002EB0012B1FBF5F06FF01803584368
:101EF00001EB800006EB0010B0FBF5F000F00F00E6
:101F0000D1E70000001401400010014090F83910A2
:101F1000212901D0022070478168B1F5805F016AF4
:101F20000BD04A1C0262026809785160C18C491EBC
:101F30000904090CC1840ED017E009880268C1F3B6
:101F40000801516001690029016A02D0491C01623F
:101F5000ECE7891CFBE70168CA6822F08002CA60CE
:101F60000068C16841F04001C16000207047000076
:101F70000148FFF719BA0000F0040020FEE703B49F
:101F800001984100009850EAC12018BF04204A0D72
:101F900018BF40F0010040F2FF72B2EB515F08BF82
:101FA00040F00200012808BF052002B07047090771
:101FB000090E002804DB00F1E02080F800147047CF
:101FC00000F00F0000F1E02080F8141D70470000C1
:101FD00010B52F499FED2C1B2DED020B84B00598F9
:101FE00020F000408842DCBF00209DED040B32DD74
:101FF0002849884209D1049840B94FF0010000F007
:102000006FFC00F03DFC06B010BD05DB9DED040B40
:1020100000F02AFC06B010BD68469DED040B00F0F0
:102020003BF810F0030011D0012818D09DED021BE1
:102030009DED000B02281AD000F04AFA51EC100B6B
:1020400081F0004106B041EC100B10BD9DED021B6C
:102050009DED000B012000F06FFB06B010BD9DED63
:10206000021B9DED000B00F033FA06B010BD0120FD
:1020700000F062FB51EC100B81F0004106B041EC26
:10208000100B10BD00000000000000000000000068
:10209000FB21E93F0000F07F2DE9F14F04462DEDD3
:1020A000020B2DED088B8AB09FEDE70B80ED020B44
:1020B000139EE74826F0004585420ADC9DED120B91
:1020C000002084ED000B0AB0BDEC088B03B0BDE826
:1020D000F08FE0489FEDE0AB9FEDE1BBA84247DD0C
:1020E000E14F9FEDE39B9FEDE48B9DED120B53ECD5
:1020F0001A2B51EC100B002E1CDDFEF74DF941ECB4
:10210000100BBD4208D053EC1B2B51EC100BFEF70B
:1021100043F9C4E900010BE053EC192B51EC100B0F
:10212000FEF73AF953EC182BFEF736F9C4E9000133
:102130000120C8E7FEF78FF841EC100BBD4208D034
:1021400053EC1B2B51EC100BFEF785F8C4E9000192
:102150000BE053EC192B51EC100BFEF77CF853EC11
:10216000182BFEF778F8C4E900014FF0FF30AAE71A
:10217000C348A84279DB9DED120B51EC100B00F027
:10218000B5FB41EC180B9FEDC00B53EC102BFEF789
:102190000FFA9FEDBF1B53EC112BFEF75CF8FEF717
:1021A00006FB0746FEF7E5FA41EC190B53EC1A2B38
:1021B000FEF7FEF953EC182BFEF7F1F841EC180B83
:1021C00053EC1B2B51EC190BFEF7F2F9DFF8C8A208
:1021D00041EC100B4FEA15580125FA4453EC102B33
:1021E00051EC180BFEF7D8F8032DC4E900013DD0DF
:1021F000C1F30A5005EB4511A8EB000011398142EB
:1022000034DA0AEB051BB0EE48AA9BED000BF0EEAA
:1022100068AA53EC102B51EC190BFEF7C9F941ECED
:102220001B0B51EC1A0B53EC1B2BFEF7B5F841ECD2
:10223000180B51EC1A0B53EC182BFEF7ADF853ECBE
:102240001B2BFEF7A9F89BED020B41EC1A0B53EC8C
:10225000102B51EC190BFEF7ABF953EC1A2BFEF7D0
:102260009BF841EC100B6D1CB8E70EE0002EA8BFE8
:102270003846BFF628AF94ED000B51EC100B81F0FF
:102280000041C4E9000178421DE7C6F3130040F4A1
:10229000801EC6F30A50A0F2F530471100F01F056A
:1022A000C5F12000DDF848B00890002006900790A6
:1022B0000520EC467949002D07EB0002794408BF60
:1022C00051F8221009D051F8223001EB8201AB40C5
:1022D0004A68089922FA01F11943A1FB0E26A1FBD5
:1022E0000B131A449A4234BF0123002303EB060860
:1022F0000CEB8003D3E901A60E448E4234BF0121CA
:10230000002192448A4411B1924502D903E09245DA
:1023100001D2012100E00021C3E901A641444CF8AB
:102320002010011EA0F10100C4DC029800F1005051
:10233000850F0298DDE903678000DDF81480FEF761
:1023400018FA41EC1A0B3046FEF724FA9FED541BA5
:1023500053EC112BFEF72CF941EC1B0B3846FEF722
:1023600019FA9FED511B53EC112BFEF721F941ECAB
:10237000180B4046FEF70EFA9FED4D1B53EC112B48
:10238000FEF716F941EC190B51EC180B53EC192B15
:10239000FDF761FF53EC1B2BFDF75DFF53EC1A2B90
:1023A000FDF759FFCDE90801002008909DED080BCD
:1023B00053EC1A2B51EC100BFDF7EEFF53EC1B2BDB
:1023C000FDF7EAFF53EC182BFDF7E6FF53EC192B52
:1023D000FDF7E5FF9FED381B53EC112BFEF7E8F8F6
:1023E0009FED370B41EC180B53EC102B9DED080BB8
:1023F00051EC100BFEF7DCF853EC182BFDF72BFF1C
:102400009FED310B41EC180B53EC102B9DED080B9D
:1024100051EC100BFEF7CCF853EC182BFDF71BFF1B
:1024200041EC100B139810F0004F06D06D4251ECA8
:10243000100B81F0004141EC100B284684ED000B9D
:1024400041E6000000000000000000000000000065
:10245000FB21E93F7CD9024000004054FB21F93FB9
:102460003163621A61B4D03DFB21F93F00000000E6
:102470000000601A61B4D03D7370032E8A19A33B2B
:10248000FB2139410000000083C8C96D305FE43F83
:10249000000000000000E03F7A540000C853000034
:1024A000000000000000103E000000000000103C92
:1024B000000000000000103A182D4454FB21F93DA3
:1024C0003326A611460B113C00000054FB21F93DB8
:1024D00010B52DED040B2DED088B82B0B0EE419AB6
:1024E000F0EE619A0B9820F000449FED4BABB4F1F5
:1024F000795F11DA9DED0A0B51EC100BFEF757F9DD
:10250000002801BFB0EE4A0AF0EE6A0A02B0BDEC44
:10251000088B04BF04B010BD9DED0A0B53EC102BCB
:1025200051EC100BFEF744F841EC180B3C48062127
:10253000B0EE480AF0EE680A784400F081F853ECF7
:10254000182B51EC100BFEF733F89DED0A0B41EC04
:102550001B0B53EC192B51EC100BFEF729F841EC37
:10256000190B53EC1B2B51EC180BFEF721F853EC15
:10257000192BFDF711FF9FED2C0B41EC190B53ECC0
:10258000102B51EC180BFEF713F841EC100B2848F8
:10259000844210DA53EC192B51EC100BFDF7FCFEC2
:1025A00053EC1A2BFDF7FBFE41EC100B02B0BDEC17
:1025B000088B04B010BD1F48A042BCBF9FED1E1B7E
:1025C0008DED001B06DBA4F50010019000200090AB
:1025D0009DED001B51EC100B53EC112BFDF7DCFEB5
:1025E0009DED000B41EC180B53EC102B51EC1A0B2A
:1025F000FDF7D2FE41EC1A0B53EC192B51EC180BE2
:10260000FDF7CAFE53EC1A2BFDF7C9FE41EC100B87
:10261000CCE7000000000000000000000000F03FD8
:10262000EC50000000000000000000000000E03F4F
:102630003333D33F0000E93F000000000000D23FE9
:1026400070B504462DED028B4D1E00EBC500B0EEBB
:10265000408AF0EE608A90ED000B35F0060017D04E
:1026600053EC182B51EC100BFDF7A2FF41EC100BB3
:102670006D1E04EBC50090ED001B51EC100B53ECEC
:10268000112BFDF7E8FD41EC100B35F00600E7D10A
:10269000022D36D0042D1CD0062D1CBFBDEC028BA4
:1026A00070BD53EC182B51EC100BFDF781FF94ED2E
:1026B0000A1B53EC112BFDF7CEFD53EC182BFDF745
:1026C00077FF94ED081B53EC112BFDF7C4FD41EC93
:1026D000100B53EC182B51EC100BFDF769FF94ED28
:1026E000061B53EC112BFDF7B6FD53EC182BFDF731
:1026F0005FFF94ED040B53EC102BFDF7ACFD41ECA8
:10270000100B53EC182B51EC100BFDF751FF94ED0F
:10271000021B53EC112BFDF79EFD53EC182BFDF71C
:1027200047FF94ED001B53EC112BFDF794FDBDEC1E
:10273000028B41EC100B70BD31B504462DED040B3E
:102740002DED0A8BB0EE41BAF0EE61BA0B989DED1B
:102750000A0B20F00040B0F1795F0DDA51EC100B5C
:10276000FFF70DFC042808BF00F09AF89DED0A0B56
:10277000BDEC0A8B05B030BD53EC102B51EC100BA7
:10278000FDF716FF41EC180B9DED0A0B53EC182BCF
:1027900051EC100BFDF70CFF41EC190B2C48B0EE7F
:1027A000480AF0EE680A05217844FFF749FF9FEDDB
:1027B0002ACBB0EE40AAF0EE60AA9CB353EC1C2BDF
:1027C00051EC190BFDF7F4FE41EC1C0B53EC1A2BEA
:1027D00051EC190BFDF7ECFE9FED210B41EC190BB1
:1027E00053EC102B51EC1B0BFDF7E2FE53EC192BB5
:1027F000FDF7D2FD53EC182BFDF7DAFE53EC1B2B43
:10280000FDF7CAFD53EC1C2BFDF7C6FD9DED0A1B21
:1028100053EC112BFDF7C3FDBDEC0A8B05B041EC69
:10282000100B30BDFFE753EC1A2B51EC180BFDF7E2
:10283000BFFE53EC1C2BFDF70EFD53EC192BFDF7DF
:10284000B7FE9DED0A1B53EC112BFDF704FDE3E7EA
:10285000744F000000000000495555555555C5BF3F
:10286000000000000000E03F10B553EC102B51ECCD
:10287000100BFDF7F0FC41EC100B10BD0000000048
:102880009FED050B10B553EC102B51EC100BFDF721
:1028900001FF41EC100B10BD000000000000000023
:1028A0009FED050B10B553EC102B51EC100BFDF701
:1028B0007FFE41EC100B10BD000000000000001076
:1028C00002E008C8121F08C1002AFAD170477047F9
:1028D000002001E001C1121F002AFBD17047000057
:1028E00001490860704700001400002082B0CDE963
:1028F000000121F0004001909DED000B02B051EC71
:10290000100B70472DED0A8B82B0FEF7EBF8FFF746
:10291000B9F9FFF7A5F8FFF7EBF8FFF70FF9FEF7A6
:10292000C9FE4FF47840FEF77CFE3D494FF6FF703C
:102930003C4A088000211180052100908123EA2271
:102940000846FEF777FE202537A0CDE90050062186
:102950002B46EA220846FFF72DF835A0CDE90050B6
:102960002023EA2226210620FFF724F89FED329B40
:102970009FED33AB9FED34BB2046FDF713FD41ECDB
:10298000100BFFF725FB51EC100BFDF71EFD08EEB9
:10299000900A2046FDF706FD53EC192BFDF75BFC72
:1029A00041EC100BFFF714FB51EC100BFDF70DFD84
:1029B00008EE100A2046FDF7F5FC53EC1A2BFDF744
:1029C0004AFC41EC100BFFF703FB51EC100BFDF739
:1029D000FCFC0CEE100A0120B0EE680AFDF748FF7F
:1029E0000220B0EE480AFDF743FF0320B0EE4C0A88
:1029F000FDF73EFF0320FDF7FBFE02461449154894
:102A0000FEF7CDFD2046FDF7CDFC53EC1B2BFDF76B
:102A100022FCFDF7DAFC04460A20FDF773FFABE762
:102A200002000020000000205446544C43440000A3
:102A30003133352A32343000B81E85EB51B80040AE
:102A4000B81E85EB51B810409A9999999999B93F58
:102A500030050020F004002000000000000000000D
:102A600000000000000020202020200000200000A6
:102A70002828500000000000000000000000505016
:102A8000F85050F850500000002070A8A060302886
:102A9000A8702000000048A8B0A874345448000072
:102AA00000002050506CA8A89468000040408000AE
:102AB000000000000000000008101020202020204E
:102AC000101008004020201010101010202040008E
:102AD00000000020A87070A8200000000000001076
:102AE000107C10100000000000000000000000003A
:102AF000404080000000000000FC000000000000DA
:102B00000000000000000000004000000004080871
:102B1000101020204040800000007088888888883D
:102B2000887000000000206020202020207000001D
:102B3000000070888810204080F800000000708835
:102B4000083008088870000000001030305090F8FD
:102B5000103800000000F88080F0880888700000BD
:102B60000000304880B0C8888870000000007808F5
:102B700010102020202000000000708888708888B5
:102B800088700000000070888898680890600000D5
:102B900000000000200000000020000000000000F5
:102BA00000200000002020000000081020404020ED
:102BB0001008000000000000FC00FC000000000005
:102BC000000040201008081020400000000070881D
:102BD00088102020002000000000384494B4B4B8CD
:102BE00044380000000020203050507848CC0000CD
:102BF0000000F0484870484848F00000000078881D
:102C000080808080887000000000F0484848484874
:102C100048F000000000F8485070504048F80000AC
:102C20000000F8485070504040E000000000384874
:102C300080809C88483000000000CC484878484894
:102C400048CC00000000F8202020202020F80000C0
:102C500000007C1010101010101090E00000EC48E4
:102C60005060504848EC00000000E04040404040C8
:102C700044FC00000000DCD8D8D8A8A8A8AC00000C
:102C80000000DC486868585848E800000000708878
:102C900088888888887000000000F04848704040AC
:102CA00040E0000000007088888888E8987018006C
:102CB0000000F0484870504848EC00000000788858
:102CC0008060100888F000000000F8A82020202074
:102CD000207000000000CC484848484848300000B8
:102CE0000000CC4848505030202000000000A8A828
:102CF000A8A87050505000000000D850502020501C
:102D000050D800000000D850505020202070000003
:102D10000000F8901020204048F8000038202020C3
:102D200020202020202038000040402020201010AB
:102D30001008080070101010101010101010700003
:102D40002050000000000000000000000000000013
:102D500000000000000000FC402000000000000017
:102D6000000000000000000000304838483C00002F
:102D700000C040404070484848700000000000001B
:102D80000038484048300000001808080838484813
:102D9000483C000000000000003048784038000047
:102DA0000018242020782020207800000000000057
:102DB000003C48304038443800C0404040704848EB
:102DC00048EC00000020200000602020207000005F
:102DD0000010100000301010101010E000C0404033
:102DE0004058506050C8000000E0202020202020E3
:102DF00020F800000000000000F0A8A8A8A800002B
:102E00000000000000F0484848EC0000000000000E
:102E100000304848483000000000000000F04848FA
:102E2000487040E000000000003848484838081C5E
:102E30000000000000D8604040E0000000000000FA
:102E40000078403008780000000000202078202022
:102E5000203800000000000000D84848483C00002E
:102E60000000000000D850502020000000000000AA
:102E700000A8A870505000000000000000D85020AA
:102E800050D800000000000000CC4848301020C09E
:102E900000000000007810202078000018101010AA
:102EA000103010101010180010101010101010100A
:102EB0001010101060202020201020202020600002
:102EC000689000000000000000000000000000000A
:102ED00000000000000000000000000000000010E2
:102EE0001010101010100000101000000012242408
:102EF0004800000000000000000000000000001278
:102F000012127E2424247E24242400000000083C85
:102F10004A4A48380C0A0A4A4A3C08080000004459
:102F2000A4A8A8B0541A2A2A4A440000000000307D
:102F3000484848506EA4949889760000006020208C
:102F40004000000000000000000000000002040833
:102F50000810101010101008080402000040201083
:102F600010080808080808101020400000000000A1
:102F70001010D63838D610100000000000000000F5
:102F8000000808087F080808000000000000000092
:102F90000000000000000000602020400000000051
:102FA000000000007E0000000000000000000000A3
:102FB000000000000000000060600000000002044B
:102FC00004040808101010202040400000000018E1
:102FD00024424242424242422418000000000008BB
:102FE0003808080808080808083E00000000003CEF
:102FF0004242420204081020427E00000000003CD1
:103000004242020418040242423C00000000000454
:103010000C0C142424447F04041F00000000007ED4
:10302000404040784402024244380000000000184A
:103030002440405C62424242221C00000000007EAC
:103040004204040808101010101000000000003C9A
:103050004242422418244242423C00000000003810
:1030600044424242463A0202241800000000000096
:1030700000001818000000001818000000000000F0
:1030800000000010000000000010101000000002FE
:103090000408102040201008040200000000000076
:1030A00000007E00007E00000000000000000040E4
:1030B0002010080402040810204000000000003C1A
:1030C0004242620408080800181800000000003896
:1030D000445AAAAAAAAAAA5C423C00000000001016
:1030E00010182828243C444242E70000000000F861
:1030F000444444784442424244F800000000003E08
:10310000424280808080804244380000000000F805
:10311000444242424242424244F80000000000FC65
:10312000424848784848404242FC0000000000FC09
:10313000424848784848404040E000000000003CD9
:1031400044448080808E844444380000000000E7BE
:10315000424242427E42424242E700000000007C7E
:103160001010101010101010107C00000000003E15
:103170000808080808080808080888F0000000EE99
:10318000444850705048484444EE0000000000E0BD
:10319000404040404040404042FE0000000000EE01
:1031A0006C6C6C6C6C54545454D60000000000C716
:1031B000626252524A4A4A4646E200000000003823
:1031C000448282828282828244380000000000FCB5
:1031D000424242427C40404040E000000000003853
:1031E00044828282828282B24C380600000000FC57
:1031F0004242427C4848444442E300000000003E12
:103200004242402018040242427C0000000000FEBE
:10321000921010101010101010380000000000E77D
:103220004242424242424242423C0000000000E729
:10323000424244242428281810100000000000D620
:1032400054545454546C282828280000000000E7E7
:10325000422424181818242442E70000000000EE3D
:103260004444282810101010103800000000007E80
:10327000840408081020204242FC0000001E1010A8
:10328000101010101010101010101E000000402020
:103290002020101010080804040402020078080816
:1032A000080808080808080808087800001824001A
:1032B000000000000000000000000000000000000E
:1032C0000000000000000000000000FF006010008F
:1032D00000000000000000000000000000000000EE
:1032E00000000038440C34444C360000000000005C
:1032F000C040405864424242645800000000000050
:103300000000001C22404040221C00000000000081
:103310000602023E42424242463B000000000000DC
:103320000000003C42427E40423C000000000000A1
:103330000C12107C10101010107C00000000000017
:103340000000003E444438403C42423C0000000043
:10335000C040405C6242424242E700000000003050
:103360003000007010101010107C00000000000CE5
:103370000C00001C04040404040444780000000051
:10338000C040404E4850704844EE0000000000101D
:103390007010101010101010107C000000000000C1
:1033A000000000FE4949494949ED000000000000C5
:1033B000000000DC6242424242E7000000000000E0
:1033C0000000003C42424242423C0000000000003B
:1033D000000000D864424242645840E0000000000F
:1033E0000000001A26424242261A0207000000008E
:1033F000000000EE3220202020F800000000000035
:103400000000003E42403C02427C00000000000000
:103410000010107C10101010120C000000000000B2
:10342000000000C642424242463B0000000000004D
:10343000000000EE444428281010000000000000A6
:10344000000000DB894A5A542424000000000000D8
:103450000000007624181818246E000000000000F8
:10346000000000E74224241818101060000000003B
:103470000000007E44081010227E000000030404B7
:1034800004040404080404040404030008080808ED
:1034900008080808080808080808080800C02020CC
:1034A00020202020102020202020C000205A0400AE
:1034B000000000000000000000000000000000000C
:1034C00000000000000000000000000000000000FC
:1034D00000000000000000000000000000000000EC
:1034E00000000000000000000000000000000000DC
:1034F00000000000060006000600060006000600A8
:1035000006000200040004000400000000000000A7
:103510000600060006000000000000000000000099
:10352000066006600CC01980110022000000000037
:10353000000000000000000000000000000000008B
:10354000000000000000000000000000000000007B
:103550000000000008400840084008407FE07FE08D
:10356000104010801080108010807FE07FE020806D
:10357000208020802080000000000000000000006B
:103580000000020002000F801AC032C033C03200B7
:103590001A000E0007000380038002C032C03AC048
:1035A00032C012800F000200020000000000000084
:1035B00000000000708050808900890089008A0026
:1035C0008A005C0075C005400A200A2012201220E3
:1035D0001220214021C00000000000000000000077
:1035E000000000001C0036003600360036003600B1
:1035F000340019E038805880CC80CC80C680C70069
:10360000C31063903CE000000000000000000000D8
:103610003000380008000800100020000000000002
:10362000000000000000000000000000000000009A
:10363000000000000000000000000000000000008A
:103640000020004000800100010002000200040090
:10365000040004000400040004000400020002004E
:103660000100010000800040002000000000000078
:1036700040002000100008000800040004000200C0
:103680000200020002000200020002000400040026
:1036900008000800100020004000000000000000AA
:1036A0000000000000000000020003000200623081
:1036B00072F00B800F807AF062300200020002008C
:1036C00000000000000000000000000000000000FA
:1036D00000000000000000000000020002000200E4
:1036E000020002007FF0020002000200020002005D
:1036F00000000000000000000000000000000000CA
:1037000000000000000000000000000000000000B9
:1037100000000000000000000000000000000000A9
:1037200030003800080008001000200000000000F1
:103730000000000000000000000000000000000089
:10374000000000007FE0000000000000000000001A
:103750000000000000000000000000000000000069
:103760000000000000000000000000000000000059
:103770000000000000000000000000000000000049
:103780003800380038000000000000000000000091
:1037900000200060004000C00080008001000100A7
:1037A00002000200060004000400080008001000E7
:1037B0001000300020006000400000000000000009
:1037C0000000000000000F00198030C030C06060B1
:1037D000606060606060606060606060606030C0B9
:1037E00030C019800F000000000000000000000041
:1037F00000000000000002003E0006000600060077
:103800000600060006000600060006000600060088
:10381000060006003FC0000000000000000000009D
:103820000000000000001F00218040C060C060C098
:1038300000C0008001800300060004000800104062
:10384000204060407FC00000000000000000000039
:103850000000000000001E006300618061800180A4
:10386000018003000E000180008000C000C060C025
:1038700060C061801F000000000000000000000028
:1038800000000000000001800180038005800580A9
:10389000098011801180218041807FF001800180AA
:1038A0000180018007E0000000000000000000002F
:1038B0000000000000003FC0200020002000200089
:1038C00020002F00318020C000C000C060C060C058
:1038D000418021801F000000000000000000000067
:1038E000000000000000078018C030C03000200039
:1038F0006000678068C070606060606060602060C9
:10390000304018C00F000000000000000000000060
:103910000000000000001FE0306020402080008098
:103920000080010001000200020002000600060003
:103930000600060006000000000000000000000075
:103940000000000000001F8030C0606060606060A8
:10395000304038C00F00138030C06060606060602D
:10396000606030C00F800000000000000000000018
:103970000000000000000F00308030C06040606038
:103980006060606060E031601E60006000C000C088
:10399000308031801E0000000000000000000000A8
:1039A0000000000000000000000000000000000017
:1039B00007000700070000000000000000000000F2
:1039C00007000700070000000000000000000000E2
:1039D00000000000000000000000000000000000E7
:1039E00006000600000000000000000000000000CB
:1039F00000000600060002000400040000000000B1
:103A000000000000002000400080010002000400CF
:103A1000080010002000100008000400020001004F
:103A200000800040002000000000000000000000B6
:103A30000000000000000000000000000000000086
:103A40007FE00000000000007FE0000000000000B8
:103A50000000000000000000000000000000000066
:103A60000000000020001000080004000200010017
:103A7000008000400020004000800100020004009F
:103A800008001000200000000000000000000000FE
:103A900000000000000007C01860203020303030E7
:103AA000303000E00180020002000200000000004F
:103AB00007000700070000000000000000000000F1
:103AC00000000000070018C0304033A026A066A008
:103AD00065A06D206D206D206D206D402780302009
:103AE000304018C00F00000000000000000000007F
:103AF000000000000000060006000A000B0009009C
:103B000009001100118010801F8020C020C02040BB
:103B100040404060F0F000000000000000000000A5
:103B20000000000000007F0031C030C030C030C055
:103B300030C031803F0030C0304030603060306095
:103B4000306030C07F8000000000000000000000F6
:103B500000000000000007C018C0306030202020A6
:103B60006000600060006000600060006020302045
:103B7000304018C00F0000000000000000000000EE
:103B8000000000000000FE00318030C030C0306016
:103B9000306030603060306030603060306030C045
:103BA00030C03180FE000000000000000000000076
:103BB000000000000000FFC060C0602060206000C6
:103BC000610061007F0061006100610060006020B1
:103BD00060206040FFC00000000000000000000006
:103BE000000000000000FFC060C060206020600096
:103BF000610061007F0061006100610060006000A1
:103C000060006000F80000000000000000000000FC
:103C10000000000000000F001880304030402040BD
:103C2000600060006000600063F060C060C030C091
:103C300030C018C00F0000000000000000000000AD
:103C4000000000000000F0F0606060606060606094
:103C5000606060607FE060606060606060606060C5
:103C600060606060F0F000000000000000000000F4
:103C70000000000000003FC006000600060006002D
:103C80000600060006000600060006000600060004
:103C9000060006003FC00000000000000000000019
:103CA0000000000000001FE0030003000300030009
:103CB00003000300030003000300030003000300EC
:103CC000030003000300630066003C0000000000E6
:103CD000000000000000F3C0618063006200640027
:103CE00068006C007400760062006300610061800F
:103CF000608060C0F1E000000000000000000000F3
:103D0000000000000000F80060006000600060003B
:103D10006000600060006000600060006000602083
:103D200060206040FFC000000000000000000000B4
:103D3000000000000000E0E061C061C071C071C01F
:103D400072C072C052C05AC05AC05CC04CC04CC095
:103D50004CC048C0E1E0000000000000000000008E
:103D600000000000000071F03040384038402C4026
:103D70002C402640264022402340214021C021C023
:103D800020C020C0F840000000000000000000003B
:103D90000000000000000F00198030C0304060605B
:103DA0006060606060606060606060606060304063
:103DB00030C019800F00000000000000000000006B
:103DC000000000000000FF0060C060606060606094
:103DD0006060606061C07F00600060006000600043
:103DE00060006000F800000000000000000000001B
:103DF0000000000000000F00198030C030406060FB
:103E00006060606060606060606060606E603240F2
:103E100033C019800F0001E000C000000000000066
:103E2000000000000000FF8060C0606060606060B3
:103E3000606060C07F00620063006100618060C0FC
:103E400060C06060F0700000000000000000000032
:103E50000000000000001F4030C060406040600073
:103E600070003C001F0007C001C000E040604060DF
:103E7000606030C00F800000000000000000000003
:103E80000000000000007FE046208610861006003B
:103E900006000600060006000600060006000600F2
:103EA000060006001F800000000000000000000067
:103EB00000000000000078E03040304030403040EA
:103EC0003040304030403040304030403040304072
:103ED000304018800F0000000000000000000000CB
:103EE000000000000000F0E0604020802080308072
:103EF000308011001100190019000A000A000E009C
:103F00000C0004000400000000000000000000009D
:103F1000000000000000EF70462042206220622076
:103F20002640264027402740394039801980198093
:103F300011801100110000000000000000000000CE
:103F400000000000000079E0308010801880090037
:103F50000D0006000400060006000B000900118099
:103F6000108020C071E00000000000000000000090
:103F7000000000000000F0F0602020403040108081
:103F800018801D000D000E00060006000600060049
:103F9000060006001F800000000000000000000076
:103FA0000000000000003FE0304060C04080018021
:103FB00001000200020004000400080018001020A4
:103FC000302020407FC00000000000000000000002
:103FD00007C00400040004000400040004000400FE
:103FE00004000400040004000400040004000400B1
:103FF000040004000400040007C0000000000000EA
:104000000000000020002000100010000800080040
:104010000800040004000200020003000100010087
:1040200000800080004000400040002000000000B0
:104030003E00020002000200020002000200020034
:104040000200020002000200020002000200020060
:1040500002000200020002003E0000000000060014
:1040600009001080000000000000000000000000B7
:104070000000000000000000000000000000000040
:104080000000000000000000000000000000000030
:104090000000000000000000000000000000000020
:1040A0000000000000000000000000000000000010
:1040B00000000000000000000000FFF00000000011
:1040C00018000600000000000000000000000000D2
:1040D00000000000000000000000000000000000E0
:1040E00000000000000000000000000000000000D0
:1040F00000000000000000000000000000000000C0
:104100000F8030C030C000C007C038C070C060C071
:1041100060C071D03E700000000000000000000090
:10412000000000001000700030003000300030004F
:1041300033803CC038603060306030603060306068
:10414000304038C027800000000000000000000060
:10415000000000000000000000000000000000005F
:104160000F0031803180618060006000600060403D
:10417000304030800F000000000000000000000010
:1041800000000000004003C000C000C000C000C02C
:104190001EC031C030C060C060C060C060C060C0C0
:1041A00020C031E01E800000000000000000000080
:1041B00000000000000000000000000000000000FF
:1041C000078018C01040306030603FE030003000A1
:1041D00018201840078000000000000000000000C8
:1041E00000000000000003C006600C600C000C0022
:1041F0007F800C000C000C000C000C000C000C006C
:104200000C000C003F8000000000000000000000D7
:10421000000000000000000000000000000000009E
:104220000FE01B6031803180318019801F00300029
:104230003F0033C060C060C071C01F0000000000BC
:10424000000000001000700030003000300030002E
:10425000378038C030C030C030C030C030C030C00F
:1042600030C030C079E00000000000000000000015
:104270000000000000000600060000000000020030
:104280003E000600060006000600060006000600C6
:10429000060006003FC00000000000000000000013
:1042A0000000000000000380038000000000008088
:1042B0000F800180018001800180018001800180E8
:1042C000018001800180018033003E000000000079
:1042D000000000001000700030003000300030009E
:1042E00031C031003100320036003A0031003180F7
:1042F000308030C079E000000000000000000000C5
:104300000000000002003E00060006000600060055
:10431000060006000600060006000600060006006D
:10432000060006003FC00000000000000000000082
:10433000000000000000000000000000000000007D
:10434000ECE0776066606660666066606660666026
:1043500066606660FFF000000000000000000000E2
:10436000000000000000000000000000000000004D
:10437000778038C030C030C030C030C030C030C0AE
:1043800030C030C079E000000000000000000000F4
:10439000000000000000000000000000000000001D
:1043A0000F00198030C060606060606060606060B5
:1043B00030C030C00F00000000000000000000000E
:1043C00000000000000000000000000000000000ED
:1043D000778038C03060306030603060306030608E
:1043E00030C038C03780300030007C000000000052
:1043F00000000000000000000000000000000000BD
:104400001E4031C030C060C060C060C060C060C0CD
:1044100020C031C01EC000C000C003E0000000008A
:10442000000000000000000000000000000000008C
:10443000F9C01A601C601800180018001800180055
:1044400018001800FF00000000000000000000003D
:10445000000000000000000000000000000000005C
:104460000FC038C0304030401C000F0003C020C0D7
:1044700020C031C03F8000000000000000000000AC
:104480000000000000000000040004000C000C000C
:104490007F800C000C000C000C000C000C000C00C9
:1044A0000C400C40078000000000000000000000ED
:1044B00000000000000000000000000000001040AC
:1044C00071C030C030C030C030C030C030C030C02B
:1044D00030C039E01E800000000000000000000035
:1044E00000000000000000000000000000000000CC
:1044F00078E0304010801080188009000D000D0019
:10450000060006000400000000000000000000009B
:10451000000000000000000000000000000000009B
:10452000EF704620622026402640374039801980AF
:104530001980198010000000000000000000000039
:10454000000000000000000000000000000000006B
:104550003DE0188008800D000600060007000900F5
:10456000108010C079E00000000000000000000092
:10457000000000000000000000000000000000003B
:1045800079E0108010801080090009000D000600FD
:1045900006000600040004002400380000000000AB
:1045A000000000000000000000000000000000000B
:1045B0003F80218023002200060004000C001840E8
:1045C000104030C03F8000000000000000000000EC
:1045D00000C0010001000100010001000100010014
:1045E00001000200040002000100010001000100BE
:1045F000010001000100010000C0000002000200F3
:10460000020002000200020002000200020002009A
:10461000020002000200020002000200020002008A
:10462000020002000200020002000200000000007E
:104630003000080008000800080008000800080012
:104640000800040002000400080008000800080038
:1046500008000800080008003000000000003800D2
:104660004420432001C000000000000000000000C2
:10467000000000000000000000000000000000003A
:10468000000000000000000000000000000000002A
:10469000000000000000000000000000000000001A
:1046A000000000000000000000000000000000000A
:1046B00000000000000000000000000000000000FA
:1046C00000000000000000000000000000000000EA
:1046D00000000000000000000000000000000000DA
:1046E00000000000000000000000000000000000CA
:1046F00000000000000000000000000000000000BA
:1047000000000000000000000000000000000000A9
:10471000000000000000000003C003C003C003C08D
:1047200003C003C001C001800180018001800180BD
:10473000018001800180000000000000018003C0B2
:1047400003C0018000000000000000000000000025
:104750000000000000000000000000000000000059
:104760000000000000000000000000000000000049
:104770000000000000000000000000000000000039
:104780000000000000000000000000000000000029
:104790000318073807380E700C6018C031802100EC
:1047A0000000000000000000000000000000000009
:1047B00000000000000000000000000000000000F9
:1047C00000000000000000000000000000000000E9
:1047D00000000000000000000000000000000000D9
:1047E00000000000000000000000000000000000C9
:1047F00000000000000000000000000000000000B9
:1048000000000000000000000000000000000000A8
:104810000000000000000000040804080408040868
:1048200004087FFE7FFE7FFE0810081008100810A5
:10483000081008107FFE7FFE7FFE18301020102029
:104840001020102000000000000000000000000008
:104850000000000000000000000000000000000058
:104860000000000000000000000000000000000048
:104870000000000000000000000000000000000038
:104880000000000000000000000000000000000028
:10489000000000000100010003C00D3009181918C4
:1048A000193819381D000D000F00070003C001E082
:1048B00001F0013001380118391839183118313038
:1048C000196007C0010001000100000000000000A5
:1048D00000000000000000000000000000000000D8
:1048E00000000000000000000000000000000000C8
:1048F00000000000000000000000000000000000B8
:1049000000000000000000000000000000000000A7
:10491000000000000000000038106C104420C62089
:10492000C640C640C640C680C68044806D38396CDB
:10493000024402C602C604C604C608C608C6084425
:10494000106C1038000000000000000000000000A3
:104950000000000000000000000000000000000057
:104960000000000000000000000000000000000047
:104970000000000000000000000000000000000037
:104980000000000000000000000000000000000027
:1049900000000000000000000F001900318031808D
:1049A00031803180310033003A001C00387C3C10EB
:1049B0004C10CE10C620C720C320C1C0C1C260E6C3
:1049C000317C1E38000000000000000000000000E4
:1049D00000000000000000000000000000000000D7
:1049E00000000000000000000000000000000000C7
:1049F00000000000000000000000000000000000B7
:104A000000000000000000000000000000000000A6
:104A100038003C003C000C000C0008003000600036
:104A20000000000000000000000000000000000086
:104A30000000000000000000000000000000000076
:104A40000000000000000000000000000000000066
:104A50000000000000000000000000000000000056
:104A60000000000000000000000000000000000046
:104A70000000000000000000000000000000000036
:104A80000000000000000000000000000000000026
:104A90000002000400080018003000200060004000
:104AA00000C000C001800180018001800180018080
:104AB00001800180018000C000C000400060002033
:104AC0000030001800080004000200000000000090
:104AD00000000000000000000000000000000000D6
:104AE00000000000000000000000000000000000C6
:104AF00000000000000000000000000000000000B6
:104B000000000000000000000000000000000000A5
:104B100040002000100018000C00040006000200F5
:104B20000300030001800180018001800180018079
:104B300001800180018003000300030006000400DF
:104B40000C001800100020004000000000000000D1
:104B50000000000000000000000000000000000055
:104B60000000000000000000000000000000000045
:104B70000000000000000000000000000000000035
:104B80000000000000000000000000000000000025
:104B900000000000000000000000000000C001C094
:104BA00001C030C6388E1C9C06B001C001C006B0E2
:104BB0001C9C388E318601C001C001C0000000007D
:104BC00000000000000000000000000000000000E5
:104BD00000000000000000000000000000000000D5
:104BE00000000000000000000000000000000000C5
:104BF00000000000000000000000000000000000B5
:104C000000000000000000000000000000000000A4
:104C10000000000000000000000000000000008014
:104C20000080008000800080008000803FFE0080C7
:104C30000080008000800080008000800000000074
:104C40000000000000000000000000000000000064
:104C50000000000000000000000000000000000054
:104C60000000000000000000000000000000000044
:104C70000000000000000000000000000000000034
:104C80000000000000000000000000000000000024
:104C90000000000000000000000000000000000014
:104CA0000000000000000000000000000000000004
:104CB00000000000000000000000000038003C0080
:104CC0003C000C000C0008003000600000000000F8
:104CD00000000000000000000000000000000000D4
:104CE00000000000000000000000000000000000C4
:104CF00000000000000000000000000000000000B4
:104D000000000000000000000000000000000000A3
:104D10000000000000000000000000000000000093
:104D20000000000000000000000000007FFE000006
:104D30000000000000000000000000000000000073
:104D40000000000000000000000000000000000063
:104D50000000000000000000000000000000000053
:104D60000000000000000000000000000000000043
:104D70000000000000000000000000000000000033
:104D80000000000000000000000000000000000023
:104D90000000000000000000000000000000000013
:104DA0000000000000000000000000000000000003
:104DB00000000000000000000000000018003C009F
:104DC0003C0018000000000000000000000000008F
:104DD00000000000000000000000000000000000D3
:104DE00000000000000000000000000000000000C3
:104DF00000000000000000000000000000000000B3
:104E000000000000000000000000000000000000A2
:104E10000000000200060004000C0008001800104A
:104E2000003000200060004000C0008001800100D0
:104E300003000200060004000C0008001800100027
:104E40003000200060004000000000000000000072
:104E50000000000000000000000000000000000052
:104E60000000000000000000000000000000000042
:104E70000000000000000000000000000000000032
:104E80000000000000000000000000000000000022
:104E9000000000000000000003C006200C301818BD
:104EA00018181808300C300C300C300C300C300C4A
:104EB000300C300C300C300C1808181818180C3046
:104EC000062003C0000000000000000000000000F9
:104ED00000000000000000000000000000000000D2
:104EE00000000000000000000000000000000000C2
:104EF00000000000000000000000000000000000B2
:104F000000000000000000000000000000000000A1
:104F10000000000000000000008001801F80018070
:104F20000180018001800180018001800180018079
:104F30000180018001800180018001800180018069
:104F400003C01FF800000000000000000000000087
:104F50000000000000000000000000000000000051
:104F60000000000000000000000000000000000041
:104F70000000000000000000000000000000000031
:104F80000000000000000000000000000000000021
:104F9000000000000000000007E008381018200C96
:104FA000200C300C300C000C001800180030006091
:104FB00000C0018003000200040408041004200C57
:104FC0003FF83FF800000000000000000000000073
:104FD00000000000000000000000000000000000D1
:104FE00000000000000000000000000000000000C1
:104FF00000000000000000000000000000000000B1
:1050000000000000000000000000000000000000A0
:10501000000000000000000007C0186030303018A9
:1050200030183018001800180030006003C00070FD
:1050300000180008000C000C300C300C3008301840
:10504000183007C000000000000000000000000051
:105050000000000000000000000000000000000050
:105060000000000000000000000000000000000040
:105070000000000000000000000000000000000030
:105080000000000000000000000000000000000020
:1050900000000000000000000060006000E000E090
:1050A00001600160026004600460086008601060D4
:1050B0003060206040607FFC006000600060006045
:1050C000006003FC00000000000000000000000081
:1050D00000000000000000000000000000000000D0
:1050E00000000000000000000000000000000000C0
:1050F00000000000000000000000000000000000B0
:10510000000000000000000000000000000000009F
:1051100000000000000000000FFC0FFC1000100059
:10512000100010001000100013E0143018181008C0
:10513000000C000C000C000C300C300C2018201857
:10514000183007C000000000000000000000000050
:10515000000000000000000000000000000000004F
:10516000000000000000000000000000000000003F
:10517000000000000000000000000000000000002F
:10518000000000000000000000000000000000001F
:10519000000000000000000001E006180C180818CC
:1051A000180010001000300033E03630381838088E
:1051B000300C300C300C300C300C180C18080C185B
:1051C0000E3003E0000000000000000000000000BE
:1051D00000000000000000000000000000000000CF
:1051E00000000000000000000000000000000000BF
:1051F00000000000000000000000000000000000AF
:10520000000000000000000000000000000000009E
:1052100000000000000000001FFC1FFC1008301000
:10522000201020200020004000400040008000802E
:10523000010001000100010003000300030003005E
:105240000300030000000000000000000000000058
:10525000000000000000000000000000000000004E
:10526000000000000000000000000000000000003E
:10527000000000000000000000000000000000002E
:10528000000000000000000000000000000000001E
:10529000000000000000000007E00C301818300C7F
:1052A000300C300C380C38081E180F2007C018F0CE
:1052B00030783038601C600C600C600C600C30186A
:1052C000183007C0000000000000000000000000CF
:1052D00000000000000000000000000000000000CE
:1052E00000000000000000000000000000000000BE
:1052F00000000000000000000000000000000000AE
:10530000000000000000000000000000000000009D
:10531000000000000000000007C018203010301806
:105320006008600C600C600C600C600C701C302C11
:10533000186C0F8C000C0018001800103030306012
:1053400030C00F80000000000000000000000000DE
:10535000000000000000000000000000000000004D
:10536000000000000000000000000000000000003D
:10537000000000000000000000000000000000002D
:10538000000000000000000000000000000000001D
:10539000000000000000000000000000000000000D
:1053A000000000000000018003C003C00180000075
:1053B000000000000000000000000000018003C0A9
:1053C00003C0018000000000000000000000000099
:1053D00000000000000000000000000000000000CD
:1053E00000000000000000000000000000000000BD
:1053F00000000000000000000000000000000000AD
:10540000000000000000000000000000000000009C
:10541000000000000000000000000000000000008C
:1054200000000000000000000380038003800000F3
:1054300000000000000000000000000000000380E9
:1054400003800380018003000300000000000000CF
:10545000000000000000000000000000000000004C
:10546000000000000000000000000000000000003C
:10547000000000000000000000000000000000002C
:10548000000000000000000000000000000000001C
:1054900000000000000000000004000800100020D0
:1054A000004000800100020004000800100010000D
:1054B00008000400020001000080004000200010ED
:1054C00000080004000000000000000000000000D0
:1054D00000000000000000000000000000000000CC
:1054E00000000000000000000000000000000000BC
:1054F00000000000000000000000000000000000AC
:10550000000000000000000000000000000000009B
:10551000000000000000000000000000000000008B
:105520000000000000007FFE0000000000000000FE
:1055300000007FFE000000000000000000000000EE
:10554000000000000000000000000000000000005B
:10555000000000000000000000000000000000004B
:10556000000000000000000000000000000000003B
:10557000000000000000000000000000000000002B
:10558000000000000000000000000000000000001B
:1055900000000000000000002000100008000400CF
:1055A00002000100008000400020001000080008F8
:1055B00000100020004000800100020004000800EC
:1055C00010002000000000000000000000000000AB
:1055D00000000000000000000000000000000000CB
:1055E00000000000000000000000000000000000BB
:1055F00000000000000000000000000000000000AB
:10560000000000000000000000000000000000009A
:10561000000000000000000003E00C18180C100649
:105620003006380638063806000C0018007000C036
:10563000008000800080008000000000018003C026
:1056400003C0018000000000000000000000000016
:10565000000000000000000000000000000000004A
:10566000000000000000000000000000000000003A
:10567000000000000000000000000000000000002A
:10568000000000000000000000000000000000001A
:10569000000000000000000003E006100C081804E1
:1056A00030D431B22132633263226622662266220E
:1056B00066626664666426E8333030021004180CB3
:1056C0000C1803E0000000000000000000000000D3
:1056D00000000000000000000000000000000000CA
:1056E00000000000000000000000000000000000BA
:1056F00000000000000000000000000000000000AA
:105700000000000000000000000000000000000099
:10571000000000000000000003800380038003807D
:1057200004C004C004C004C00C40086008600860E5
:1057300008201FF0103010301030201820182018CA
:10574000601CF83E000000000000000000000000A7
:105750000000000000000000000000000000000049
:105760000000000000000000000000000000000039
:105770000000000000000000000000000000000029
:105780000000000000000000000000000000000019
:1057900000000000000000007FE018381818180C06
:1057A000180C180C180C180C181818301FE01818C2
:1057B000180C180418061806180618061806180CEF
:1057C00018187FF00000000000000000000000003A
:1057D00000000000000000000000000000000000C9
:1057E00000000000000000000000000000000000B9
:1057F00000000000000000000000000000000000A9
:105800000000000000000000000000000000000098
:10581000000000000000000003E0061C080C180651
:105820003002300230006000600060006000600004
:105830006000600060006000300230021004180850
:105840000C1003E000000000000000000000000059
:105850000000000000000000000000000000000048
:105860000000000000000000000000000000000038
:105870000000000000000000000000000000000028
:105880000000000000000000000000000000000018
:1058900000000000000000007FC0187018181808F1
:1058A000180C180C180618061806180618061806FC
:1058B0001806180618061804180C180C18181818CA
:1058C00018607FC000000000000000000000000021
:1058D00000000000000000000000000000000000C8
:1058E00000000000000000000000000000000000B8
:1058F00000000000000000000000000000000000A8
:105900000000000000000000000000000000000097
:1059100000000000000000007FFC180C18041802B2
:105920001802180018001810181018301FF018303E
:10593000181018101800180018001802180218047F
:10594000180C7FFC000000000000000000000000B8
:105950000000000000000000000000000000000047
:105960000000000000000000000000000000000037
:105970000000000000000000000000000000000027
:105980000000000000000000000000000000000017
:1059900000000000000000007FFC181C1804180222
:1059A0001802180018001810181018301FF01830BE
:1059B00018101810181018001800180018001800F7
:1059C00018007E0000000000000000000000000041
:1059D00000000000000000000000000000000000C7
:1059E00000000000000000000000000000000000B7
:1059F00000000000000000000000000000000000A7
:105A00000000000000000000000000000000000096
:105A1000000000000000000003C00C30081018183F
:105A20003008300820006000600060006000600006
:105A3000607E601860182018301830181018181878
:105A40000C2007C000000000000000000000000063
:105A50000000000000000000000000000000000046
:105A60000000000000000000000000000000000036
:105A70000000000000000000000000000000000026
:105A80000000000000000000000000000000000016
:105A90000000000000000000FC3F300C300C300C17
:105AA000300C300C300C300C300C300C3FFC300C17
:105AB000300C300C300C300C300C300C300C300C06
:105AC000300CFC3F0000000000000000000000005F
:105AD00000000000000000000000000000000000C6
:105AE00000000000000000000000000000000000B6
:105AF00000000000000000000000000000000000A6
:105B00000000000000000000000000000000000095
:105B100000000000000000001FF8018001800180EB
:105B2000018001800180018001800180018001806D
:105B3000018001800180018001800180018001805D
:105B400001801FF8000000000000000000000000BD
:105B50000000000000000000000000000000000045
:105B60000000000000000000000000000000000035
:105B70000000000000000000000000000000000025
:105B80000000000000000000000000000000000015
:105B9000000000000000000007FE006000600060E0
:105BA00000600060006000600060006000600060F5
:105BB00000600060006000600060006000600060E5
:105BC00000600060706070C071803F0000000000E5
:105BD00000000000000000000000000000000000C5
:105BE00000000000000000000000000000000000B5
:105BF00000000000000000000000000000000000A5
:105C00000000000000000000000000000000000094
:105C100000000000000000007E7C18301820186092
:105C2000184018801880190019001B001D801D8065
:105C300018C018C0186018601830183018301818BC
:105C400018187E3E00000000000000000000000068
:105C50000000000000000000000000000000000044
:105C60000000000000000000000000000000000034
:105C70000000000000000000000000000000000024
:105C80000000000000000000000000000000000014
:105C900000000000000000007E001800180018003E
:105CA0001800180018001800180018001800180034
:105CB000180018001800180018001802180218041C
:105CC000180C7FFC00000000000000000000000035
:105CD00000000000000000000000000000000000C4
:105CE00000000000000000000000000000000000B4
:105CF00000000000000000000000000000000000A4
:105D00000000000000000000000000000000000093
:105D10000000000000000000F00F381C381C381C88
:105D2000381C382C2C2C2C2C2C2C2C4C2C4C264C51
:105D3000264C264C268C228C238C238C230C230C63
:105D4000210CF13F000000000000000000000000F6
:105D50000000000000000000000000000000000043
:105D60000000000000000000000000000000000033
:105D70000000000000000000000000000000000023
:105D80000000000000000000000000000000000013
:105D90000000000000000000F01F380438042C044C
:105DA0002C0426042604230423042184218420C4F3
:105DB00020C42064206420342034201C201C200CAB
:105DC000200CF804000000000000000000000000AB
:105DD00000000000000000000000000000000000C3
:105DE00000000000000000000000000000000000B3
:105DF00000000000000000000000000000000000A3
:105E00000000000000000000000000000000000092
:105E1000000000000000000003C00C30181810083B
:105E2000300C300C60046006600660066006600698
:105E30006006600660062006300C300C100818184A
:105E40000C3003C000000000000000000000000053
:105E50000000000000000000000000000000000042
:105E60000000000000000000000000000000000032
:105E70000000000000000000000000000000000022
:105E80000000000000000000000000000000000012
:105E900000000000000000007FF01818180C180621
:105EA00018061806180618061806180C18181FE009
:105EB0001800180018001800180018001800180022
:105EC00018007E000000000000000000000000003C
:105ED00000000000000000000000000000000000C2
:105EE00000000000000000000000000000000000B2
:105EF00000000000000000000000000000000000A2
:105F00000000000000000000000000000000000091
:105F1000000000000000000003C00C30181810083A
:105F2000300C300C60066006600660066006600695
:105F30006006600660066006278438CC386C1878E6
:105F40000C7003E00032003C001C00000000000068
:105F50000000000000000000000000000000000041
:105F60000000000000000000000000000000000031
:105F70000000000000000000000000000000000021
:105F80000000000000000000000000000000000011
:105F900000000000000000007FE018381818180CFE
:105FA000180C180C180C180C181818301FE018C012
:105FB00018C0186018601860183018301830181899
:105FC00018187E1E00000000000000000000000005
:105FD00000000000000000000000000000000000C1
:105FE00000000000000000000000000000000000B1
:105FF00000000000000000000000000000000000A1
:106000000000000000000000000000000000000090
:1060100000000000000000000FC818783018601859
:1060200060086008600070003C001F0007C001F0BD
:1060300000780018001C400C400C600C200C30183C
:10604000383027E0000000000000000000000000E1
:106050000000000000000000000000000000000040
:106060000000000000000000000000000000000030
:106070000000000000000000000000000000000020
:106080000000000000000000000000000000000010
:1060900000000000000000003FFC318421864182A6
:1060A00041820180018001800180018001800180A6
:1060B00001800180018001800180018001800180D8
:1060C000018007E000000000000000000000000068
:1060D00000000000000000000000000000000000C0
:1060E00000000000000000000000000000000000B0
:1060F00000000000000000000000000000000000A0
:10610000000000000000000000000000000000008F
:106110000000000000000000FC3E3008300830089D
:1061200030083008300830083008300830083008AF
:1061300030083008300830083008300830081810AF
:106140001C2007C00000000000000000000000004C
:10615000000000000000000000000000000000003F
:10616000000000000000000000000000000000002F
:10617000000000000000000000000000000000001F
:10618000000000000000000000000000000000000F
:1061900000000000000000007C1E180C1808180801
:1061A00018080C100C100C100C100C2006200620E7
:1061B0000620064003400340034003800180018025
:1061C00001000100000000000000000000000000CD
:1061D00000000000000000000000000000000000BF
:1061E00000000000000000000000000000000000AF
:1061F000000000000000000000000000000000009F
:10620000000000000000000000000000000000008E
:106210000000000000000000F3CF6186618421844B
:10622000208430C431C431C431C831C811C81248C7
:106230001A681A681A701C700C700C700C300C20E4
:1062400008200820000000000000000000000000FE
:10625000000000000000000000000000000000003E
:10626000000000000000000000000000000000002E
:10627000000000000000000000000000000000001E
:10628000000000000000000000000000000000000E
:1062900000000000000000007C3E180818100C10E0
:1062A0000C2006200640034003800180018001800D
:1062B00001C002C002600460047008300830181881
:1062C000101C7C3E000000000000000000000000E8
:1062D00000000000000000000000000000000000BE
:1062E00000000000000000000000000000000000AE
:1062F000000000000000000000000000000000009E
:10630000000000000000000000000000000000008D
:1063100000000000000000007E3E38081808181039
:106320000C100C100C2006200620034003400380B4
:106330000180018001800180018001800180018055
:10634000018007E0000000000000000000000000E5
:10635000000000000000000000000000000000003D
:10636000000000000000000000000000000000002D
:10637000000000000000000000000000000000001D
:10638000000000000000000000000000000000000D
:1063900000000000000000001FFE1C0C180C30184C
:1063A000201800300060006000C000C00180018043
:1063B00003000300060006000C0018021806300453
:1063C000301C7FFC00000000000000000000000006
:1063D00000000000000000000000000000000000BD
:1063E00000000000000000000000000000000000AD
:1063F000000000000000000000000000000000009D
:10640000000000000000000000000000000000008C
:10641000000003FC0300030003000300030003006B
:106420000300030003000300030003000300030054
:106430000300030003000300030003000300030044
:1064400003000300030003FC000000000000000044
:10645000000000000000000000000000000000003C
:10646000000000000000000000000000000000002C
:10647000000000000000000000000000000000001C
:10648000000000000000000000000000000000000C
:106490000000000000001800180008000C000400B4
:1064A0000600060002000300010001800180008058
:1064B00000C0004000600060003000300030001874
:1064C0000018000C000C000C00060000000000008A
:1064D00000000000000000000000000000000000BC
:1064E00000000000000000000000000000000000AC
:1064F000000000000000000000000000000000009C
:10650000000000000000000000000000000000008B
:1065100000003FC000C000C000C000C000C000C0FC
:1065200000C000C000C000C000C000C000C000C06B
:1065300000C000C000C000C000C000C000C000C05B
:1065400000C000C000C03FC000000000000000000C
:10655000000000000000000000000000000000003B
:10656000000000000000000000000000000000002B
:10657000000000000000000000000000000000001B
:10658000000000000000000000000000000000000B
:1065900003C003E006200810000000000000000017
:1065A00000000000000000000000000000000000EB
:1065B00000000000000000000000000000000000DB
:1065C00000000000000000000000000000000000CB
:1065D00000000000000000000000000000000000BB
:1065E00000000000000000000000000000000000AB
:1065F000000000000000000000000000000000009B
:10660000000000000000000000000000000000008A
:10661000000000000000000000000000000000007A
:10662000000000000000000000000000000000006A
:10663000000000000000000000000000000000005A
:1066400000000000000000000000FFFF000000004C
:10665000000000000000000000000000000000003A
:10666000000000000000000000000000000000002A
:10667000000000000000000000000000000000001A
:10668000000000000000000000000000000000000A
:106690001E00030000800000000000000000000059
:1066A00000000000000000000000000000000000EA
:1066B00000000000000000000000000000000000DA
:1066C00000000000000000000000000000000000CA
:1066D00000000000000000000000000000000000BA
:1066E00000000000000000000000000000000000AA
:1066F000000000000000000000000000000000009A
:106700000000000000000000000000000000000089
:106710000000000000000000000000000000000079
:1067200000000000000007E0183030183018301862
:10673000003807D81C1830186018601860186019E5
:1067400030791F8E000000000000000000000000F3
:106750000000000000000000000000000000000039
:106760000000000000000000000000000000000029
:106770000000000000000000000000000000000019
:106780000000000000000000000000000000000009
:106790000000000000000800780018001800180031
:1067A00018001800180019E01A381C181C0C180CD6
:1067B000180C180C180C180C180C180C18081C18AD
:1067C0001C3013E00000000000000000000000008A
:1067D00000000000000000000000000000000000B9
:1067E00000000000000000000000000000000000A9
:1067F0000000000000000000000000000000000099
:106800000000000000000000000000000000000088
:106810000000000000000000000000000000000078
:1068200000000000000003E00E100C1818183018CB
:1068300030003000300030003000300418041808F8
:106840000C1003E000000000000000000000000049
:106850000000000000000000000000000000000038
:106860000000000000000000000000000000000028
:106870000000000000000000000000000000000018
:106880000000000000000000000000000000000008
:106890000000000000000008007800180018001830
:1068A00000180018001807D80C38181818183018D5
:1068B00030183018301830183018301810181838B0
:1068C0000C5E0790000000000000000000000000C7
:1068D00000000000000000000000000000000000B8
:1068E00000000000000000000000000000000000A8
:1068F0000000000000000000000000000000000098
:106900000000000000000000000000000000000087
:106910000000000000000000000000000000000077
:1069200000000000000003C00C3008181808300CEC
:10693000300C300C3FFC30003000300018041808D8
:106940000E1803E00000000000000000000000003E
:106950000000000000000000000000000000000037
:106960000000000000000000000000000000000027
:106970000000000000000000000000000000000017
:106980000000000000000000000000000000000007
:106990000000000000000000007C018601060306E4
:1069A0000300030003003FF803000300030003009B
:1069B00003000300030003000300030003000300BF
:1069C00003001FF0000000000000000000000000B5
:1069D00000000000000000000000000000000000B7
:1069E00000000000000000000000000000000000A7
:1069F0000000000000000000000000000000000097
:106A00000000000000000000000000000000000086
:106A10000000000000000000000000000000000076
:106A200000000000000003EE0C36081818181818B3
:106A3000181808180C300FE0180018001FC00FF8C5
:106A4000181C300C300C300C181807E00000000047
:106A50000000000000000000000000000000000036
:106A60000000000000000000000000000000000026
:106A70000000000000000000000000000000000016
:106A80000000000000000000000000000000000006
:106A9000000000000000080078001800180018002E
:106AA00018001800180019E01A301C1818181818C7
:106AB0001818181818181818181818181818181856
:106AC00018187E7E0000000000000000000000009A
:106AD00000000000000000000000000000000000B6
:106AE00000000000000000000000000000000000A6
:106AF0000000000000000000000000000000000096
:106B00000000000000000000000000000000000085
:106B10000000000000000000018003C001800000B0
:106B20000000000000801F80018001800180018042
:106B3000018001800180018001800180018001804D
:106B400001801FF8000000000000000000000000AD
:106B50000000000000000000000000000000000035
:106B60000000000000000000000000000000000025
:106B70000000000000000000000000000000000015
:106B80000000000000000000000000000000000005
:106B90000000000000000000003800780030000015
:106BA00000000000001003F0003000300030003022
:106BB0000030003000300030003000300030003055
:106BC000003000300030186018400F8000000000D6
:106BD00000000000000000000000000000000000B5
:106BE00000000000000000000000000000000000A5
:106BF0000000000000000000000000000000000095
:106C00000000000000000000000000000000000084
:106C100000000000000008007800180018001800AC
:106C2000180018001800187C183018201840188018
:106C300019801B801EC01CC018601830183018182E
:106C4000181C7E3E00000000000000000000000054
:106C50000000000000000000000000000000000034
:106C60000000000000000000000000000000000024
:106C70000000000000000000000000000000000014
:106C80000000000000000000000000000000000004
:106C900000000000000000801F8001800180018052
:106CA00001800180018001800180018001800180DC
:106CB00001800180018001800180018001800180CC
:106CC00001801FF80000000000000000000000002C
:106CD00000000000000000000000000000000000B4
:106CE00000000000000000000000000000000000A4
:106CF0000000000000000000000000000000000094
:106D00000000000000000000000000000000000083
:106D10000000000000000000000000000000000073
:106D2000000000002000EF3C71C66186618661862C
:106D3000618661866186618661866186618661861B
:106D40006186F3CF0000000000000000000000009A
:106D50000000000000000000000000000000000033
:106D60000000000000000000000000000000000023
:106D70000000000000000000000000000000000013
:106D80000000000000000000000000000000000003
:106D900000000000000000000000000000000000F3
:106DA00000000000000009E07A301C1818181818BC
:106DB0001818181818181818181818181818181853
:106DC00018187E7E00000000000000000000000097
:106DD00000000000000000000000000000000000B3
:106DE00000000000000000000000000000000000A3
:106DF0000000000000000000000000000000000093
:106E00000000000000000000000000000000000082
:106E10000000000000000000000000000000000072
:106E200000000000000003C00C3008181818100CF7
:106E3000300C300C300C300C300C300C181818188A
:106E40000C3003C000000000000000000000000043
:106E50000000000000000000000000000000000032
:106E60000000000000000000000000000000000022
:106E70000000000000000000000000000000000012
:106E80000000000000000000000000000000000002
:106E900000000000000000000000000000000000F2
:106EA00000000000000009E07A301C181808180CD7
:106EB000180C180C180C180C180C180C18181C1896
:106EC0001E3019E01800180018007E0000000000B5
:106ED00000000000000000000000000000000000B2
:106EE00000000000000000000000000000000000A2
:106EF0000000000000000000000000000000000092
:106F00000000000000000000000000000000000081
:106F10000000000000000000000000000000000071
:106F200000000000000003C80C781838181830184A
:106F30003018301830183018301830181018183829
:106F40000C780798001800180018007E0000000058
:106F50000000000000000000000000000000000031
:106F60000000000000000000000000000000000021
:106F70000000000000000000000000000000000011
:106F80000000000000000000000000000000000001
:106F900000000000000000000000000000000000F1
:106FA000000000000000061C7E66068607800700C1
:106FB00006000600060006000600060006000600A1
:106FC00006007FE00000000000000000000000005C
:106FD00000000000000000000000000000000000B1
:106FE00000000000000000000000000000000000A1
:106FF0000000000000000000000000000000000091
:107000000000000000000000000000000000000080
:107010000000000000000000000000000000000070
:1070200000000000000003E4061C0C0C0C040C041F
:107030000E0007C001F00078001C100C100C180C9A
:107040001C1813F000000000000000000000000009
:107050000000000000000000000000000000000030
:107060000000000000000000000000000000000020
:107070000000000000000000000000000000000010
:107080000000000000000000000000000000000000
:1070900000000000000000000000000001000100EE
:1070A0000100030007003FF8030003000300030092
:1070B00003000300030003000300030003040304B0
:1070C000018800F000000000000000000000000047
:1070D00000000000000000000000000000000000B0
:1070E00000000000000000000000000000000000A0
:1070F0000000000000000000000000000000000090
:10710000000000000000000000000000000000007F
:10711000000000000000000000000000000000006F
:10712000000000000808787818181818181818189F
:1071300018181818181818181818181818181838AF
:107140000C5E07900000000000000000000000003E
:10715000000000000000000000000000000000002F
:10716000000000000000000000000000000000001F
:10717000000000000000000000000000000000000F
:1071800000000000000000000000000000000000FF
:1071900000000000000000000000000000000000EF
:1071A0000000000000007C3E180C180818180C1095
:1071B0000C100420062006200340034003C0018079
:1071C000018001000000000000000000000000003D
:1071D00000000000000000000000000000000000AF
:1071E000000000000000000000000000000000009F
:1071F000000000000000000000000000000000008F
:10720000000000000000000000000000000000007E
:10721000000000000000000000000000000000006E
:10722000000000000000FBCF61862184318431849E
:1072300031C811C81AC81A481A700E700C700C3078
:107240000C200420000000000000000000000000EE
:10725000000000000000000000000000000000002E
:10726000000000000000000000000000000000001E
:10727000000000000000000000000000000000000E
:1072800000000000000000000000000000000000FE
:1072900000000000000000000000000000000000EE
:1072A0000000000000003E7C0C100E100620034081
:1072B00003400180018001C00260046004300818AE
:1072C00018187C7E00000000000000000000000094
:1072D00000000000000000000000000000000000AE
:1072E000000000000000000000000000000000009E
:1072F000000000000000000000000000000000008E
:10730000000000000000000000000000000000007D
:10731000000000000000000000000000000000006D
:107320000000000000007C3E1818181008100C1017
:107330000420062006200240034001400180018015
:1073400001000100010002003E003C0000000000BE
:10735000000000000000000000000000000000002D
:10736000000000000000000000000000000000001D
:10737000000000000000000000000000000000000D
:1073800000000000000000000000000000000000FD
:1073900000000000000000000000000000000000ED
:1073A0000000000000003FF830383030206020E05E
:1073B00000C001800380030006000E040C04180CBA
:1073C00030183FF80000000000000000000000003E
:1073D00000000000000000000000000000000000AD
:1073E000000000000000000000000000000000009D
:1073F000000000000000000000000000000000008D
:10740000000000000000000000000000000000007C
:10741000000C001000200020002000200020002090
:107420000020002000200020002000C0018000403B
:10743000002000200020002000200020002000204C
:107440000020002000200010000C000000000000C0
:10745000000000000000000000000000000000002C
:10746000000000000000000000000000000000001C
:10747000000000000000000000000000000000000C
:1074800000000000000000000000000000800080FC
:1074900000800080008000800080008000800080EC
:1074A00000800080008000800080008000800080DC
:1074B00000800080008000800080008000800080CC
:1074C00000800080008000800080008000000000BC
:1074D00000000000000000000000000000000000AC
:1074E000000000000000000000000000000000009C
:1074F000000000000000000000000000000000008C
:10750000000000000000000000000000000000007B
:107510001800040002000200020002000200020043
:1075200002000200020002000200018000C001000F
:10753000020002000200020002000200020002003B
:107540000200020002000400180000000000000019
:10755000000000000000000000000000000000002B
:10756000000000000000000000000000000000001B
:10757000000000000000000000000000000000000B
:1075800000000000000000000000000000001E00DD
:1075900023004182408200E4003800000000000027
:1075A00000000000000000000000000000000000DB
:1075B00000000000000000000000000000000000CB
:1075C00000000000000000000000000000000000BB
:1075D00000000000000000000000000000000000AB
:1075E000000000000000000000000000000000009B
:1075F000000000000000000000000000000000008B
:10760000000000000000000000000000000000007A
:107610000000000001020304060708090000000042
:1076200001020304000000004C5555555555A53F77
:107630007751C1166CC156BF9015CB19A001FA3E07
:10764000AD529C804F7E92BEC4B1B4BD9EEE213E31
:10765000D43888BEE9FAA8BD00004054FB21F93FA8
:107660003163621A61B4D03D0000601A61B4D03D4C
:107670007370032E8A19A33B0000002E8A19A33BC6
:10768000C14920259A837B390000000000000000DA
:107690006E83F9A22915444ED15727FCC0DD34F57D
:1076A000999562DB4190433CAB6351FE61C5BBDE03
:1076B0003A6E24B7E0D24D42EA2E49061C92D10917
:1076C0001CEB1DFE3EA729B1F53582E88444BB2E94
:1076D00026709CE9417E5FB439D69139F4395383E1
:1076E0008B5F849C3B28F9BDFF97F81F0F9805DE40
:1076F0008B112FEF1F6D0A5ACF7E366DB709CB273E
:10770000663F464F2DEA5F9EC7BA27757BF1E5EBD2
:10771000F739073DEA92528AB15FFB6B085D8D1F16
:10772000A6F810111111813FD561C119A0012ABF1E
:107730007DFEB157E31DC73EEB9C2B8AE6E55ABEA2
:107740007CD5CF5A3AD9E53D687700080000002083
:1077500018000000C02800088077000818000020EA
:1077600048090000D0280008FF7F00000100000049
:1077700010000000000000000024F40000000000E1
:040000050800019955
:00000001FF
