:020000040800F2
:100000001017002011020008C15B0008E52A000853
:10001000555B0008410300088D67000800000000E0
:10002000000000000000000000000000955F0008D4
:100030002104000800000000C35B0008975F00086F
:100040002B0200082B0200082B0200082B020008DC
:100050002B0200082B0200082B0200082B020008CC
:100060002B0200082B0200082B0200082B020008BC
:100070002B0200082B0200082B0200082B020008AC
:100080002B0200082B0200082B0200082B0200089C
:100090002B0200082B0200082B0200082B0200088C
:1000A0002B0200086D6000082B0200082B020008DC
:1000B0002B0200082B0200082B0200082B0200086C
:1000C0002B0200082B0200082B0200082B0200085C
:1000D0002B020008796700082B0200082B02000899
:1000E0002B0200082B0200082B0200082B0200083C
:1000F0002B0200082B0200082B0200082B0200082C
:100100002B0200082B0200082B0200082B0200081B
:100110002B0200082B0200082B0200082B0200080B
:100120002B0200082B020008450300082B020008E0
:100130002B0200082B0200082B0200082B020008EB
:100140002B0200082B0200082B0200082B020008DB
:100150002B0200082B020008510300082B020008A4
:100160002B0200082B0200082B0200082B020008BB
:100170002B0200082B0200082B02000800000000E0
:100180002B0200082B0200082B0200082B0200089B
:100190002B0200082B0200082B0200082B0200088B
:1001A0002B0200082B0200082B0200082B0200087B
:1001B0002B020008295700082B0200082B02000818
:1001C0002B0200082B020008000000002B02000890
:1001D0002B0200082B0200082B0200082B0200084B
:1001E0002B0200082B0200082B0200082B0200083B
:1001F0002B0200082B020008DFF810D000F08EF868
:100200000048004701710008AFF30080101700207C
:100210000648804706480047FEE7FEE7FEE7FEE7A0
:10022000FEE7FEE7FEE7FEE7FEE7FEE751600008B7
:10023000F90100082DE9F05F0546002092469B4633
:1002400088460646814640241BE0284641464746EC
:10025000224600F053F853465A46C01A914110D333
:1002600011461846224600F03AF82D1A67EB0108AD
:100270004F4622460120002100F031F817EB00091B
:100280004E41201EA4F10104DFDC484631462A46D7
:100290004346BDE8F09F40EA01039B0703D009E015
:1002A00008C9121F08C0042AFAD203E011F8013B62
:1002B00000F8013B521EF9D27047D2B201E000F8BB
:1002C000012B491EFBD270470022F6E710B51346FA
:1002D0000A4604461946FFF7F0FF204610BD202AC3
:1002E00004DB203A00FA02F1002070479140C2F18D
:1002F000200320FA03F3194390407047202A04DBBF
:10030000203A21FA02F00021704721FA02F3D0408E
:10031000C2F120029140084319467047064C074D30
:1003200006E0E06840F0010394E8070098471034C5
:10033000AC42F6D3FFF764FF04BF000824BF0008F7
:10034000FEE70000014800F0F9B90000501200205B
:10035000014800F0F3B90000B01200200168182332
:10036000CAB2103AB2FBF3F2054B6FF30901032A4C
:100370009B5CC36500D9091D816508467047000074
:100380009CBE000810B583694FF0C074826A0146B4
:10039000002053B1B3F5005F15D072B1012A0CD023
:1003A000022A0AD0032A09D104E01AB1012A06D090
:1003B000022A03D1C96AC90100D5012010BDC96A4A
:1003C000A142FAD010BD002AF7D0012AF2D0022AA9
:1003D000F3D0032AF3D010BD30B50468256825F4A6
:1003E00080252560046863608368402B036803D020
:1003F00099600068C26030BD9A600068C16030BD1D
:100400000A460146054810B502F01EFB002803D03D
:10041000BDE8104000F005B810BD0000CC11002070
:1004200070477047F0B5B3F5804F05D06FF070415D
:1004300040F822100020F0BD8C688E89D1E9003789
:1004400025028C6950F8221045EA064543EA071355
:10045000034F2B43394023430B4340F82230E9E755
:100460000000F0CF2DE9F043D1E902C84A68D1E994
:10047000045342EA0C0248EA050842EA080242EA4A
:10048000030251F8183BBCF1080F994691E8F011AE
:1004900050F8233042EA04028C6942EA05020D6AF0
:1004A00042EA0602CE6942EA0702144F42EA080213
:1004B00042EA0C0242EA040242EA050203EA0703A6
:1004C00042EA060242EA0302A1F1180101D142F018
:1004D000400240F829200A6BB2F5801F05D10A6856
:1004E0004AB1026842F4801202600A681AB10268D6
:1004F000496B0A4302600020BDE8F0838004C0FF1E
:10050000F0B58C6800EB8202B1F80CC0D1E900367E
:100510000D8A2702124C47EA0C4743EA06130E7D68
:100520003B4304EB055C55686701D1F818E043EAEA
:100530000C0307EB0666334305F0404543EA0E0320
:100540002B4353600268D20207D5098A426804EB44
:10055000015122F47002114341600020F0BD0000FF
:100560000000F0FFF0B5D1E90125D1E90343D1E95D
:1005700005762A43D1F800C044EA0304D1E90735DF
:1005800042EA0402496A42EA0702BCF1010F42EA68
:10059000060208D004681A432A430A43E30BDB032C
:1005A0001A4302600BE0066844682B4326F4F845C2
:1005B00029430B4303606FF30E0422434260002083
:1005C000F0BD426942EA410141610020704770B5C7
:1005D00091E81C00C9686FF01F0506691A4305EB16
:1005E000441444EA41210A4306EA45431A4302619E
:1005F000002070BD2DE9F043914691E81C006FF09A
:100600000F05521E2E0105EB03131A430B7E06EB5A
:1006100004268C8A2F034FEA054C0D8A32434FF093
:100620007F4808EB0366CB68B9F1010F07EB05457E
:100630000CEB04540CD081683F1107EB03331A43D1
:100640002A432243324301F070410A43826011E0A1
:100650008168DFF828C0C7681B03A3F580532343D4
:100660002A4301EA0C0132430B43836007F07044D4
:100670002243C2600020BDE8F0830000FF0F0FFF9F
:100680002DE9F041876D044600F026FB064694F8FC
:1006900035000025022806D080206065012084F8FE
:1006A0003450BDE8F0812068016821F01601016036
:1006B0002068416921F080014161206C08B9A06C7B
:1006C00020B12068016821F00801016020680168FC
:1006D00021F0010101600CE000F0FEFA801B05280A
:1006E00007D920216165032084F8345084F835004F
:1006F000D7E720680068C007EED194F85C203F205F
:1007000001219040B86084F8345084F835100020FE
:10071000C7E790F83510022903D0802141650120F8
:100720007047052180F835100068016821F001014B
:10073000016000207047406D704700002DE9F843CC
:1007400004464FF00009644B0820CDF800904FF4A8
:100750001652A56D94F85C101B682E68B3FBF2F777
:1007600000FA01F131420FD021680A6852070BD517
:100770000A6822F004020A6094F85C108840A860BD
:10078000606D40F00100606594F85C104FF0010866
:1007900008FA01F0304208D021684969090604D5F9
:1007A000A860606D40F00200606594F85C10042061
:1007B0008840304208D021680968890704D5A860BC
:1007C000606D40F00400606594F85C101020884073
:1007D000304218D021680968090714D5A86020683C
:1007E0000168490304D50068000308D5A16C07E03F
:1007F0000168C90503D4016821F008010160216C7A
:1008000009B12046884794F85C1020208840304287
:1008100031D021680968C9062DD5A86094F8350043
:1008200005282068016806D0490347D50068000301
:100830001DD4616C1CE021F0160101602068416943
:1008400021F080014161206C08B9A06C20B12068C2
:10085000016821F00801016094F85C303F229A4061
:10086000AA6084F8349084F83580216D1FE0E16B34
:1008700009B120468847606D00282BD0606DC00705
:1008800014D0052084F835002068016821F00101AA
:1008900001600098401C0090B84203D820680068AE
:1008A000C007F6D184F8349084F83580E16C0029D3
:1008B00010D001B02046BDE8F04308470168C905E3
:1008C000D5D4036823F01003036084F8349084F8CF
:1008D0003580CCE7BDE8F883400000202DE9F047E3
:1008E000044600F0F9F9054664B14FF0000984F8B8
:1008F0003490022184F835102068016821F001014C
:1009000001600EE00120BDE8F08700BF00F0E4F9CF
:10091000401B052805D920216165032084F8350096
:10092000F1E720680068C007F0D1D4E90020D4E9DD
:100930000251D4E9043C284304F118051943084343
:10094000116895E8E00140EA0C001C4B284319406F
:1009500040EA060040EA0700B8F1040F40EA01004F
:1009600003D1D4E90B131943084310602068012612
:10097000656A4069042D20F0070045EA00050CD1A6
:10098000D4E90A01054341B12046FFF7FBFC20B141
:100990004020606584F83560B4E7206845612046F2
:1009A000FFF7DCFC94F85C303F229A408260C4F888
:1009B000549084F835600020A5E700003F8010E0E7
:1009C0002DE9F041044690F8340000250128A66D79
:1009D0000ED094F835C00127002084F83470BCF1A3
:1009E000010F07D0022584F834002846BDE8F081C5
:1009F0000220FBE7022784F8357060652046FFF788
:100A0000EBFC94F85C103F208840B06020680168DF
:100A100041F0160101602068416941F080014161A7
:100A2000206C20B12068016841F008010160206855
:100A3000016841F001010160D7E70000F0B587B01F
:100A400014216846FFF740FC1D480168002935D194
:100A5000012101601B48016841F00101016000684B
:100A600002240025694600F00100059003264FF698
:100A70003F000C278DE8F100134800F02FF80D20FF
:100A800069468DE8F100114800F028F848F2371067
:100A900069468DE8F1000E4800F020F84FF68070AE
:100AA00069468DE8F1000B4800F018F84EF2B3707B
:100AB00069468DE8F100084800F010F807B0F0BD75
:100AC0002000002038380240001402400008024094
:100AD0000018024000100240000C02402DE9F84FBF
:100AE00000224FF001094FF0030A4FF00F0E00BF34
:100AF0000B6809FA02F42340A34270D14D68012D1E
:100B000005D0022D03D0112D01D0122D11D18568F1
:100B10005700CE680AFA07FC25EA0C05BE402E43B2
:100B2000866045680E79A543C6F3001696402E43AD
:100B30004660C56856008F680AFA06F4A543B740B8
:100B40002F43C7604D68022D01D0122D12D1D50858
:100B50000F694FEA427C00EB8505AB462D6A4FEAF0
:100B6000DC6C0EFA0CF807FA0CF725EA08052F439F
:100B7000CBF820700D79076805F00305A743B54051
:100B80003D4305604C68E40074D53D4C256845F450
:100B900080452560246822F00307960704F480440A
:100BA0000094384C360F2744D7F80848DFF8D8C0EF
:100BB0000EFA06F5604524EA050401D100252EE071
:100BC000324DA84201D1012529E0314DA84201D181
:100BD000022524E02F4DA84202D103251FE049E061
:100BE0002D4DA84201D1042519E02C4DA84201D178
:100BF000052514E02A4DA84201D106250FE0294D14
:100C0000A84201D107250AE0274DA84201D10825B5
:100C100005E0264DA84201D1092500E00A25B5408E
:100C2000234E2543C7F808584D683468ED0324EA7D
:100C3000030400D51C431E4D34602D1D4E682C68E6
:100C4000B60324EA030400D51C43194E2C60083671
:100C50004D683468ED0224EA030400D51C43144DAA
:100C600034600C354E682C68B60224EA030400D5C3
:100C70001C432C60521C102AFFF43AAFBDE8F88FD9
:100C800044380240003001400000024000040240AD
:100C900000080240000C0240001002400014024014
:100CA00000180240001C02400020024000240240C4
:100CB000003C01400069084000D0012070474269B3
:100CC00021EA02030A4043EA0241816170470AB106
:100CD000816170470904FBE70148806870470000A4
:100CE0003400002002488168027811448160704716
:100CF00034000020094810B5016841F4007101601A
:100D0000016841F480710160032000F0BDF800200B
:100D100000F006F800F072F8002010BD003C024020
:100D200070B50D4D04464FF47A700C4A297812685C
:100D3000B0FBF1F0B2FBF0F001F03BFA48B9102C37
:100D400007D200222146501E00F07EF800206C6081
:100D500070BD012070BD0000340000204000002064
:100D6000F0B5154C4378211D0A1D23600378F3B1BB
:100D700043680B60057BC67A817A437B2D07847BB1
:100D800045EA0665C77B90F809C0067A90F800E04E
:100D900045EAC14040EA834040EA444040EA074017
:100DA00040EA0C2040EA460040EA0E0001E0002044
:100DB00008601060F0BD000098ED00E0BFF35F8FA9
:100DC000044800210368034A23F48033036070322F
:100DD0001160704724ED00E0074A40F00100064929
:100DE00070321060086840F480300860BFF34F8FA5
:100DF000BFF36F8F7047000024ED00E00A4808B58C
:100E0000016841F080510160006800F0805000905E
:100E10000548001D016841F480410160006800F44C
:100E20008040009008BD000040380240002809DBE7
:100E3000410900F01F028900012001F1E0219040EA
:100E4000C1F80001704700000E4BF0B41B680D465E
:100E5000C3F30223C3F10706042E00D90426191D8B
:100E6000072901D2002300E0DB1E012404FA06F169
:100E70009C40491E2940641E994014402143F0BC07
:100E800005F0B2BE0CED00E0064900F0070210B517
:100E90004FF6FF040868044B204040EA0220184344
:100EA000086010BD0CED00E00000FA051848F8B528
:100EB000016841F0805101600068164C00F08050DC
:100EC0000090206840F480302060FFF705FF4FF469
:100ED0007A76054605E000BFFFF7FEFE401BB042F4
:100EE0000FD86068C003F7D5206840F40030206058
:100EF000FFF7F2FE054606E0FFF7EEFE401BB042AC
:100F000001D90320F8BD60688003F5D50020F8BD45
:100F100040380240007000400248016841F480718E
:100F200001607047007000402DE9F84F17468B466E
:100F30000446FFF7D1FE824694F8400001280ED007
:100F400001264FF0000884F8406094F84100012821
:100F500007D0022584F840802846BDE8F88F02209B
:100F6000FBE74FF00209C4F8448084F84190002266
:100F7000202153462046009704F038FF0500E9D1B0
:100F800000225946204604F01DFEDBF8240058B923
:100F90000122534602212046009704F027FF050056
:100FA000D8D12168C1F80C9084F84160D2E70000E4
:100FB000F8B50446FFF790FE064624B194F84100C8
:100FC000002510B109E00120F8BD84F8405020460A
:100FD00000F046F841F28830A06420686FF0FF020C
:100FE000A168036802EB012223F4F8511143016068
:100FF000A06C0022202133460090204604F0F6FE2B
:1010000030BBD4E90767226894F804C0E16813682C
:101010003143114E47EA0C6C104F41EA0C0133404A
:101020004FF0010E194311602168D4E90526B4F888
:1010300010C04B6832433B4043EA0C431A434A60BA
:1010400021680A6842F001020A60656484F841E0A0
:1010500084F84050F8BD00002FFFFF00FEF8E0FFCD
:101060002DE9F04387B0044614216846FFF72CF9B8
:101070002349206888423FD12248016841F002019B
:101080000160006800F0020005901E480838016801
:1010900041F020010160016801F020010591016823
:1010A00041F002010160006802240025DFF8589039
:1010B00000F002000590032669460927C0208DE84C
:1010C000F1004846FFF70AFD30024FF00A088DE8AC
:1010D000710169464846FFF701FD042069468DE825
:1010E000F1000A4F3846FFF7F9FC402138468DE8F9
:1010F00072016946FFF7F2FC07B0BDE8F08300001B
:10110000001000A0383802400014024000040240E1
:101110002DE9F84F15460E460446FFF7DDFD8246E1
:101120002068816994F8403000F12009012B0DD02E
:1011300001274FF0000884F8407094F84120012AFC
:1011400006D0022084F84080BDE8F88F0220FBE73B
:10115000C4F84480A6B3222284F841200269521CBC
:10116000A2630269521C62632663426922F04062F4
:1011700042F080624261206881610EE006212046D3
:1011800004F034FEC8B999F80000216B0870206B98
:10119000401C2063A06B401EA063A06B53464FF021
:1011A000010200950028E9D14FF00201204604F029
:1011B0001DFE10B922680221D16084F84170C1E798
:1011C000FFE7616C012041F008016164BAE70000AB
:1011D0002DE9F84F15460E460446FFF77DFD94F8BD
:1011E000401082462068012900F120090ED0012715
:1011F0004FF0000884F8407094F84110012907D09E
:101200005FF0020084F84080BDE8F88F0220FBE721
:10121000C4F8448086B3122184F841100169491C46
:10122000E1620169491CA1626662416921F0406185
:1012300041610EE00421204604F0D8FDC8B9606A7F
:10124000017889F80010606A401C6062E06A401E04
:10125000E062E06A53464FF0010200950028E9D1B0
:101260004FF00201204604F0C1FD10B922680221AE
:10127000D16084F84170C5E7FFE7616C012041F05F
:1012800008016164BEE700002DE9F84F04460078CC
:10129000DFF824944FF000063746C0070ED0D9F887
:1012A000001021F40001C9F80010D9F80010626B99
:1012B0001143C9F80010606B00B90126FE4D20688B
:1012C000843500030ED5E16B286820F440100843F4
:1012D0002860E06BB0F5801F01D010B102E001265C
:1012E00000E0012720684FF4800BC0020CD5216C70
:1012F000286820F4400008432860206C584501D13C
:10130000012601E000B901272068C10100D50126AE
:10131000800666D5E8483830016841F080510160A8
:101320000068DFF898A300F080500090DAF8001011
:1013300041F48071CAF80010FFF7CEFC804605E04A
:10134000FFF7CAFCA0EB080064287DD8DAF800009B
:10135000C005F5D5DFF8608308F16808D8F800000B
:1013600010F440702AD0218E01F44071814225D0C2
:10137000D8F80010D8F8002021F4407142F48032EF
:10138000C8F80020D8F8002022F48032C8F80020E5
:10139000C8F80010D8F80000C0070FD0FFF79CFC79
:1013A000824607E0FFF798FCA0EB0A0141F2883083
:1013B0008142CAD8D8F800008007F3D5206BC0F36B
:1013C000012103297ED0D9F8001021F4F811C9F8C1
:1013D0000010228ED8F80010C2F30B021143C8F897
:1013E00000102078C00607D5286820F0807028609B
:1013F0002868A16B084328602188AF4888304904D9
:1014000005D5626E016821F44031114301602188E5
:10141000090405D5A26E016821F440211143016041
:101420002168C90305D5E26E016821F4401111431A
:1014300001602168890305D5226F016821F440010C
:1014400011430160217800E034E1490605D5626C62
:10145000016821F00301114301602178090605D5D7
:10146000A26C016821F00C01114301602188C905BB
:1014700005D5E26C016821F030011143016021883B
:10148000890505D5226D016821F0C0011143016075
:101490002188490505D5626D016821F44071114329
:1014A00001602188090505D5A26D016821F440611C
:1014B000114301602188C90407D5E26D016821F458
:1014C000405100E068E0114301602188890405D59E
:1014D000226E016821F440411143016021684902F4
:1014E00005D5A26F016821F0806111430160216878
:1014F0004FF0006A890209D5E26F016821F00061AE
:1015000011430160E16F514500D1012721680A07AD
:1015100000D50127490305D5626F016821F04071AC
:10152000114301602168090206D5D4F880200168C2
:1015300021F08051114301602168490106D5D4F89A
:101540008420016821F000511143016020680001EE
:1015500006D5D4F88810286820F000700843286069
:101560002068C00006D5D4F88C10286820F0806070
:1015700008432860DFF84891012E02D020688001DE
:101580007ED5D9F800004E4620F08060C9F80000F2
:10159000FFF7A2FB80460FE04A4AD9F8003010401E
:1015A00023F4F8120243C9F8002012E7FFF794FB76
:1015B000A0EB080064287DD830680001F6D42178BB
:1015C0003D487C30C90712D0616B81B9237A6268CB
:1015D0000168D0F800C09201C1F3014142EA014222
:1015E000CCF3036142EA016141EA037101602168C1
:1015F0000A0303D5E26BB2F5801F04D0C9021AD5E5
:10160000216C594517D16368016894F80CC00268D1
:101610009B01C1F3014143EA0141C2F3027241EA75
:101620000C6141EA027101602968626A21F01F01C0
:10163000521E114329602168C90110D5238A6268AE
:101640000168D0F800C09201C1F3036142EA03428D
:1016500042EA0162CCF3027142EA01710160216841
:1016600089010CD56168228A237B94F808C089011E
:1016700041EA024141EA036141EA0C71016000E084
:1016800011E03168B04641F080613160FFF724FB22
:10169000064604E0FFF720FB801B64280AD8D8F830
:1016A00000000001F6D5E7B3D9F800004E4620F05F
:1016B000805009E07BE000000838024000700040E4
:1016C00000380240FFFCFF0FC9F80000FFF704FBE1
:1016D000074604E0FFF700FBC01B642867D83068AA
:1016E000C0438000F6D5216835480A0301D5E26B76
:1016F0001AB1C9021DD5216CD9B963690168277E69
:1017000002689B01C1F3014143EA0143C2F3027144
:1017100043EA076242EA0171016029686FF0FF0342
:1017200000E04BE0A26A21F4F85103EB02221143DE
:1017300029602168890212D5E16F51450FD1238CB0
:101740006269016807689201C1F3036142EA0342DA
:1017500042EA0162C7F3027142EA01710160217835
:10176000090716D561690268D0F800C08B01277F90
:10177000C2F30362CCF3014143EA014141EA026151
:1017800041EA077101602868E16A20F440300843AB
:101790002860306840F080503060FFF79DFA0446C2
:1017A00008E000BFFFF798FA001B642802D9032065
:1017B000BDE8F88F3068C0438000F3D40020F7E71D
:1017C000883802402DE9F04705000F4663D0444EAB
:1017D000306800F00F00B84209D2306820F00F00E6
:1017E00038433060306800F00F00B84253D12868A9
:1017F0003C4C810712D5400703D5206840F4E050E7
:1018000020602878000703D5206840F460402060FD
:10181000A968206820F0F000084320602878C007FD
:101820002AD0304968680839012810D00968022890
:1018300010D0890700292EDA216821F00301014325
:101840002160FFF749FA804641F288390DE00968C6
:101850008903EFE78901EDE7FFF73EFAA0EB080106
:10186000494502D90320BDE8F0876868216801F086
:101870000C01B1EB800FEFD1306800F00F00B842DF
:101880000BD9306820F00F0038433060306800F02A
:101890000F00B84201D00120E5E72878400705D5C0
:1018A000E968206820F4E0500843206028780007A9
:1018B00006D52869216821F4604141EAC000206012
:1018C00000F038F82168084AC1F30311515CC840A0
:1018D0000649086006480068FFF722FA0020C2E7C0
:1018E000003C024008380240A4BE0008400000202E
:1018F000380000200449054809680068044AC1F31B
:101900008221515CC84070470838024040000020E6
:10191000B4BE00080449054809680068044AC1F3D8
:101920004231515CC84070470838024040000020F6
:10193000B4BE0008154910B51548096811F00C022D
:1019400013D01449042A0FD0082A0ED10F4C241F9B
:101950002268236802F03F025B0207D52068C0F3CB
:101960008810A0FB010106E0084610BD2168C1F304
:101970008811A1FB00010023FEF75CFC2168C1F384
:101980000141491C4900B0FBF1F010BD083802408C
:101990000024F40040787D012DE9F84F04004FF059
:1019A00000076ED02078DFF87CA3AAF10408C007F6
:1019B000A8F104054CD0DAF800105046C1F38101BB
:1019C000012908D00068C0F3810002280AD1D8F8A4
:1019D0000000400206D52868800339D560680028D9
:1019E000DFD035E06068B0F5803F0BD010B1B0F5C6
:1019F000A02F11D0286820F480302860286820F4B7
:101A0000802002E0286840F480302860606890B14F
:101A1000FFF762F906460AE0286840F48020286053
:101A2000F0E700BFFFF758F9801B642872D82868D8
:101A30008003F7D50CE0FFF74FF9064605E000BF3D
:101A4000FFF74AF9801B6428F0D828688003F7D490
:101A50002078800742D5DAF80010504611F00C0FBC
:101A600008D00068C0F3810002280BD1D8F800002C
:101A7000400207D42868800718D5E068012800D103
:101A800014E04AE1E0680028286817D040F001001F
:101A90002860FFF721F9064605E000BFFFF71CF9B3
:101AA000801B0228C2D828688007F7D520692968DA
:101AB00021F0F80141EAC00028600FE020F00100A9
:101AC0002860FFF709F9064605E000BFFFF704F9B3
:101AD000801B02281ED828688007F7D420780007CA
:101AE00029D5904861696C3000298146016812D07F
:101AF00041F001010160FFF7EFF8064605E000BF85
:101B0000FFF7EAF8801B022804D8D9F80000800704
:101B1000F6D510E089E021F001010160FFF7DCF863
:101B2000064604E0FFF7D8F8801B02287DD8D9F8D4
:101B300000008007F6D4207840076BD5DFF8E491E9
:101B400009F13809D9F80000C0000BD4D9F8001009
:101B500041F08051C9F80010D9F80000012700F0C9
:101B60008050009070480168C90512D4016883460E
:101B700041F480710160FFF7AFF8064605E000BF51
:101B8000FFF7AAF8801B64284FD8DBF80000C005D7
:101B9000F6D5644EA068683601280AD008B1052839
:101BA00011D0306820F001003060306820F004006F
:101BB00002E0306840F001003060A068A0B1FFF79B
:101BC0008BF883460CE0306840F004003060F0E7AA
:101BD000FFF782F8A0EB0B0141F28830814268D810
:101BE00030688007F4D50EE0FFF776F8834607E00B
:101BF000FFF772F8A0EB0B0141F28830814258D810
:101C000030688007F4D42FB1D9F8001021F080514A
:101C1000C9F80010A069E0B3DAF80010C1F381013F
:101C200002294DD00228286800E042E020F08070B0
:101C3000286003D0FFF750F804463DE0FFF74CF86A
:101C4000064604E0FFF748F8801B022831D82868D0
:101C50008001F7D4D4E90921DFF8D0C0D4E9070620
:101C600094F830304F0894F82C1030430CEB0744B4
:101C700044EA8212104340EA016040EA0370C8F867
:101C80000000286840F080702860FFF725F80446BF
:101C900005E044E0FFF720F8001B022809D8286877
:101CA0008001F7D53BE000BFFFF716F8001B0228C4
:101CB00002D90320BDE8F88F28688001F4D42EE013
:101CC0000128D8F8000028D0E16900F480028A4297
:101CD00023D1216A00F03F028A421ED1626A47F690
:101CE000C0710140B1EB821F17D1A16A4FF0FF32E2
:101CF00000F4403302EB5101B3EB014F0DD194F8E6
:101D00002C1000F07062B2EB016F06D194F8301025
:101D100000F0E040B0EB017F01D00120CAE70020D5
:101D2000C8E7000008380240007000400000FFFFD4
:101D30000068503050F8210070470068503040F87B
:101D40002120704710B50B4601680F48002A4968EA
:101D500001EA000101F03F044FEA1140D870C1F3DD
:101D600004225A709C70C1F3423119700AD104F0F8
:101D700061F8D870587804F05DF85870987804F0DD
:101D800059F89870002010BD3FFFFF0030B50B469A
:101D90000168144D4024002A896A59600168096964
:101DA000C1F30E0199600068016801EA050104EAC7
:101DB0001142C1F305401870C1F306245C7001F0B4
:101DC0007F0199701A730AD104F034F818705878AA
:101DD00004F030F85870987804F02CF898700020CF
:101DE00030BD00007F7F7F002DE9F041040002D06C
:101DF000607F18B107E00120BDE8F0810020207766
:101E0000204600F04BF802206077CA212268532058
:101E1000516221684862204604F020F84FF0FF0527
:101E20004FF0040618BB20681B4A8168114081608E
:101E3000D4E90013D4E9042788683A4318431043CF
:101E400088602168E068086120682189026942EAA7
:101E5000014101612068C16821F08001C1602068F2
:101E60008068800607D4204600F002F918B1206887
:101E700045626677BFE720680122C16C21F0080146
:101E8000C1642068A369C16C1943C16420684562BC
:101E900062770020B0E70000BFFF8FFF00680449B1
:101EA000884204D10348016841F400410160704751
:101EB00000280040703802402DE9F0470446007FBA
:101EC0000B46012821D04FF0010984F81C90022113
:101ED0006177EAB159789878DA781B78090240EA94
:101EE000024541EA433005432268CA21532051622A
:101EF00021684862204603F0B1FF4FF000064FF022
:101F0000FF074FF0040860BB1AE00220BDE8F0872D
:101F10005878C10603D500F0EF000A305870D87821
:101F200003F091FF0204587803F08DFF42EA00228B
:101F3000987803F088FF1978024342EA4135D3E7E5
:101F400021680F4805404D602068C16821F080017C
:101F5000C1602068806880060AD4204600F088F8B6
:101F600030B121684F6284F81D8001202677CDE7CB
:101F700021684F6284F81D9000202677C6E7000094
:101F80003FFFFF002DE9F0470446007F0D46012882
:101F900028D04FF0010A84F81CA002216177206844
:101FA0004FF0000680684FEA4060F2B1002800DB85
:101FB0002E7369782A78A8782B7B090240EA0247B9
:101FC00041EA034007432268CA2153205162216835
:101FD0004862204603F042FF4FF0FF084FF004092B
:101FE000A0BB16E00220BDE8F087002800DB2E73BE
:101FF000287803F028FF0204687803F024FF42EAFF
:102000000022A87803F01FFF297B024342EA014720
:10201000D9E72168154807400F602068816821F4DE
:10202000802181602068D5E9041283681143194337
:1020300081602068C16821F08001C16020688068EB
:1020400080060BD4204600F013F838B12268C2F89D
:10205000248084F81D9001202677C4E72268C2F806
:10206000248084F81DA000202677BCE77F7F7F00B6
:1020700070B504460068C16821F0A001C160FEF798
:102080002BFE4FF47A76054607E000BFFEF724FEEC
:10209000401BB04201D9032070BD2068C068800693
:1020A000F4D5002070BD70B504000D4603D094F83F
:1020B0002C0010B107E0012070BD002084F82D0035
:1020C000204600F011F8022084F82C002068211D21
:1020D000FEF748FAD4E900022946FEF78BFA012000
:1020E00084F82C00002070BDFEF7A8BC10B5044693
:1020F00090F82C00022809D0022084F82C002068D7
:10210000FEF75FFA012084F82C00002010BD0000CB
:1021100070B5044690F82C000D4602280DD0022020
:1021200084F82C002068FEF752FA2868022805D0AF
:102130005FF0010084F82C00002070BD0520F9E755
:1021400070B5040015460E4603D094F8450010B152
:1021500007E0012070BD002084F84400204600F014
:102160001AF8206804F10801FEF77CF9A2683146EC
:102170002068FEF7C5F9E36A2946D4E90102FEF7B3
:1021800051F9A168206850F8212042F0010240F87E
:102190002120002070BDFEF751BC04284FF0E02044
:1021A000016903D021F004010161704741F004018D
:1021B000FAE7401EB0F1807F10B501D3012010BDB9
:1021C0004FF0E02460610F21601704F00DFD002046
:1021D000A0610721216110BD704770477047000062
:1021E000F0B590F83C20012A3BD01F4E012480F826
:1021F0003C40022280F83D2002681C4D5368B242E8
:10220000D2F808C001D0AA4203D14F6823F470036A
:102210003B430F6823F070031F4357600268B242CC
:1022200013D0B2F1804F10D0114B9A420DD0114B08
:102230009A420AD0104B9A4207D0AA4205D00F4BBF
:102240009A4202D00E4B9A4204D189682CF0800346
:1022500019439160002180F83D4080F83C10084609
:10226000F0BD0220F0BD000000000140000401406C
:102270000004004000080040000C00400040014005
:102280000018004010B5040003D094F83D0010B1D0
:1022900007E0012010BD002084F83C00204600F03B
:1022A00023F8022084F83D002068211D03F0E4FE9D
:1022B000012084F8480084F83E0084F83F0084F848
:1022C000400084F8410084F8420084F8430084F818
:1022D000440084F8450084F8460084F8470084F8F8
:1022E0003D00002010BD000008B500680649884286
:1022F00008D10648016841F001010160006800F062
:102300000100009008BD0000000001404438024078
:1023100090F83D10012901D001207047174A022191
:1023200080F83D100168CB6843F00103CB60006882
:10233000904214D0B0F1804F11D0114988420ED094
:10234000104988420BD01049884208D00F49884272
:1023500005D00F49884202D00E49884207D18168D2
:102360000D4A1140062906D0B1F5803F03D001681F
:1023700041F00101016000207047000000000140B1
:102380000004004000080040000C00400004014030
:1023900000400140001800400700010070B50446ED
:1023A00090F83C00012817D0324B012584F83C50AE
:1023B000022084F83D0022689068184020F47F4095
:1023C00090600868502830D00DDC20284DD005DC06
:1023D00098B310283BD148E0022070BD302844D08B
:1023E000402834D139E0602828D0702806D0B0F5D4
:1023F000805F2CD0B0F5005F29D10AE04A682068E0
:10240000D1E9021303F09EFE2068816841F0770154
:1024100009E04A682068D1E9021303F093FE2068BE
:10242000816841F48041816011E0CA684968206890
:1024300003F099FE2068502107E016E0CA68496859
:10244000206803F0A1FE2068602103F084FE0020D4
:1024500084F83D5084F83C0070BDCA684968206823
:1024600003F081FE20684021EFE722680146104614
:10247000EBE7000088FFFEFF704770B50446006878
:1024800000250169C943890715D4C168C943890773
:1024900011D4EA1E0261012121772068806980073A
:1024A000204602D0FFF7E8FF04E000F0A7F820463E
:1024B00000F0A5F8257720680169C943490717D4BA
:1024C000C168C943490713D402216FF004020261B5
:1024D00021772068806910F4407F204602D0FFF702
:1024E000CBFF04E000F08AF8204600F088F825775A
:1024F00020680169C943090716D4C168C94309079F
:1025000012D404216FF00802026121772068C069AB
:102510008007204602D0FFF7AFFF04E000F06EF81E
:10252000204600F06CF8257720680169C943C90688
:1025300017D4C168C943C90613D408216FF010022B
:10254000026121772068C06910F4407F204602D0E4
:10255000FFF792FF04E000F051F8204600F04FF83A
:10256000257720680169C943C90708D1C168C943F3
:10257000C90704D1891E0161204600F041F8206896
:102580000169C943090609D4C168C943090605D4CC
:102590006FF0800101612046FFF71FFE206801698E
:1025A000C943C90509D4C168C943090605D46FF4F4
:1025B000807101612046FFF70FFE20680169C94361
:1025C000490609D4C168C943490605D46FF04001E2
:1025D0000161204600F020F820680169C94389069E
:1025E0000BD4C168C943890607D46FF0200101618B
:1025F0002046BDE87040FFF7F1BD70BD70477047E1
:102600000349884203D103490888401C0880704769
:10261000401100201600002070477047704770B5C9
:10262000044600681026A16FE56F8268120612D575
:10263000212910D1816821F080018160E06E38B1DC
:10264000FEF71EF820B1E06EFEF775F820281BD0CB
:10265000204603F0DBFE20688168490612D5222D52
:1026600010D1816821F040018160206F38B1FEF700
:1026700007F820B1206FFEF75EF8202804D020462E
:1026800003F0ACFE002070BDC4F88060032070BD74
:10269000704700002DE9F04102680446002540F62D
:1026A0000F06D06911689368304205D1860678D547
:1026B0008E0676D5616EF2E0814F03F001060F4081
:1026C00037437ED0C70709D0CF0507D5012717624A
:1026D000D4F8802042F00102C4F8802082070AD595
:1026E000DA0708D0276802223A62D4F8802042F044
:1026F0000402C4F8802042070AD5DA0708D023680C
:1027000004221A62D4F8802042F00202C4F8802029
:1027100002070CD501F02002324308D023680822BA
:102720001A62D4F8802042F00802C4F88020020522
:102730000BD54A0109D523684FF400621A62D4F818
:10274000802042F02002C4F88020D4F88020002AA3
:102750002FD0800605D5880603D5616E09B12046C5
:1027600088472168D4F880008968490602D410F0AF
:10277000280F20D0204603F031FE206881684906EA
:1027800014D5816821F040018160206F70B14D49FE
:102790000165206FFDF7BDFF00280AD0206F016D95
:1027A00001E00EE02046BDE8F04108472046FFF773
:1027B0006FFFBDE8F0812046FFF76AFFC4F8805044
:1027C000F7E7276E2026012F59D1C70657D5CF0628
:1027D00055D5102010622068816849062ED5226FD9
:1027E000116849680904090CE3D0B4F858308B42E9
:1027F000DFD9A4F85A10D169B1F5807F17D00168EC
:1028000021F4807101602068816821F001018160FC
:102810002068816821F040018160E66725662068B4
:10282000016821F010010160206FFDF729FFB4F865
:102830005800B4F85A10401A81B21CE0B4F858108D
:10284000B4F85A20B4F85A30891A89B2002BB0D0A3
:102850000029AED0026822F490720260206882687B
:1028600022F001028260E6672566656620680268DC
:1028700022F0100202602046FFF7CFFE99E7C70260
:1028800008D55B0206D54FF4801010622046FFF792
:10289000C5FE8EE7030605D50B0603D5A16E0029FC
:1028A00080D186E7400684D5480682D51168204647
:1028B00021F040011160A667A56600F011F978E7E4
:1028C00020010004D162000810B5040002D0A06FFE
:1028D00010B107E0012010BD002084F874002046EC
:1028E00000F026F82420A0672068016821F001018B
:1028F0000160204603F092FD0128ECD0606A10B11F
:10290000204603F053FC2068416821F49041416067
:102910002068816821F02A0181602068016841F007
:10292000010101602046BDE8104003F0A3BC000097
:102930002DE9F04387B0074614216846FDF7C4FC33
:102940002B493868884250D12A48016841F010016B
:102950000160006800F010000590264814380168F6
:1029600041F00101016000680024022100F0010033
:1029700005904FF4C06007238DE8130003221E4822
:10298000CDE903236946FEF7A9F81C4E4FF4806990
:102990001B4A4FF0006830463260C6E90184C6E940
:1029A00003497461B461F46134627462FDF796FFA7
:1029B00008B1FDF736FD114D40233E676035B76322
:1029C00005F108000E4A783280E818026C6128464A
:1029D000AC61EC612C626C62C5E90028FDF77EFFFA
:1029E00008B1FDF71EFDFD66AF6307B0BDE8F083DB
:1029F0000010014044380240000002405012002004
:102A00004064024030B4C36F202B18D1A1B19AB1F9
:102A100090F87430012B12D0012480F87440002308
:102A2000036603685C68240203D51C6844F0806474
:102A30001C6030BC03F00CBE012030BC704702208B
:102A4000FBE770477047000070B50446806F202890
:102A50003DD171B36AB394F87400012837D0A4F85B
:102A60005020A4F852200025E06E0123E1642121CA
:102A700084F87430C4F88050A167E0B1154913465A
:102A8000C163E16E14480864E16E1448C864E06EE6
:102A900005652068E66E00F12802E16C3046FDF71E
:102AA0008FFF40B11021C4F88010202084F87450AA
:102AB000A067012070BD21684020086284F874502E
:102AC0002068816841F080018160002070BD022093
:102AD00070BD0000A5630008D3630008E56200082C
:102AE00070477047FEE700002DE9F047314C0128A0
:102AF000DFF8C4804FF40057DFF8C0904FF00106B4
:102B00002F4D1DD02078A0B108212846FEF7D2F81D
:102B1000C0B104212846FEF7CDF898B139464046A9
:102B2000FEF7C8F870B101214846FEF7C3F8012846
:102B300008D008212846FEF7BDF8012826D037E046
:102B40002670E1E70A2004F0A9FA0020207008218D
:102B50002846FEF7AFF880B104212846FEF7AAF810
:102B600070B139464046FEF7A5F858B101214846F4
:102B7000FEF7A0F8012807D01AE00120BDE8F08791
:102B80000220FBE70320F9E70420F7E704212846A9
:102B9000FEF790F801280BD139464046FEF78AF837
:102BA000012805D101214846FEF784F800B92670B6
:102BB0000020E3E70400002000080240000002407B
:102BC000001C02400A4970B50646088800244D885A
:102BD00021464543204602F085FB02F093FDB0B24A
:102BE000044901E00880641CAC42FBD370BD0000C6
:102BF00044000020000008602DE9F04F354900280E
:102C00004FF448794FF02C034FF4A0764FF02A048C
:102C10004FF4F0724FF02B05888845F2105E4FF0AC
:102C2000F00749F2413C45F2103A0ED04FF001084E
:102C300081F806800E806045B3464F8001D0504534
:102C40002BD10B814C818D813AE04FF0000881F847
:102C500006800F8060454E8001D0504507D10B8122
:102C600050454C818D8130D10E804A802DE07045D9
:102C700008D14FF4305008814FF428534B814FF462
:102C80002C5405E0A0F5C856633E1ED10B814D8142
:102C90008C810A80A1F8029017E0704506D14FF4AC
:102CA00030534FF428544FF42C5503E0A0F5C85688
:102CB000633E05D10B814C818D81A1F800904A8043
:102CC000504502D10A80A1F802B00020BDE8F04FC3
:102CD00002F02CBA440000202DE9F041354C060AE0
:102CE0009046024620460D460F0AA1884089A1F56C
:102CF0001343413B0CD0A1F5A643103B08D0A1F5EE
:102D0000AA43103B10D0A1F5C853633B25D048E03F
:102D100002F0ECFC304602F0DDFCD0B202F0DAFC4E
:102D2000A08902F0E3FC36E002F0E0FC304602F05D
:102D3000D1FC6089401C80B202F0D8FCD0B202F015
:102D4000C9FCA08902F0D2FC384602F0C3FCA0897D
:102D5000401C80B202F0CAFC20E0A17919B9218898
:102D6000891A491E8AB202F0C1FC160A304602F0E6
:102D7000B1FCD0B202F0AEFC304602F0ABFCD0B2F7
:102D800002F0A8FCA08902F0B1FC384602F0A2FCD7
:102D9000E8B202F09FFC384602F09CFCE8B202F078
:102DA00099FC054A2189931C1180A3F80080BDE895
:102DB000F081000044000020FEFF07602DE9F05F75
:102DC000D32002F093FC02F07DF9FD4CA08002F0CC
:102DD00079F9A08002F076F94FF6FF7909EA002030
:102DE000A08002F06FF9A28849F2413845F210360E
:102DF00045F21055104341F663174045A08048D076
:102E0000D42002F073FC02F05DF9A08002F05AF9C0
:102E1000A08002F057F909EA00204A46A08002F09B
:102E200051F9A1880843A080B04232D04FF45A40F3
:102E300002F05CFC02F046F9A0804FF45B4002F027
:102E400055FC02F03FF902EA0020A0804FF45C40FC
:102E500002F04CFC02F036F9A1880843A080B0F5DE
:102E6000004F7CD0A84214D0A12002F03FFC02F019
:102E700029F9A08002F026F902EA0020A08002F0E1
:102E800021F9A2881043A080A0F5AE41613900D19C
:102E9000A780CCA0A18803F083FEA08840457DD107
:102EA000CF2002F023FC002002F014FCC12002F02D
:102EB00011FC302002F00EFCED2002F017FC642023
:102EC00002F008FC032002F005FC122002F002FCD4
:102ED000812002F0FFFBE82002F008FC852002F0D0
:102EE000F9FB102002F0F6FB7A2002F0F3FBCB2076
:102EF00002F0FCFB392002F0EDFB2C2002F0EAFB93
:102F0000002002F0E7FB342002F0E4FB022002F094
:102F1000E1FBF72002F0EAFB202002F0DBFBEA20D5
:102F200002F0E4FB002002F0D5FB002002F0D2FB0F
:102F3000C02002F0DBFB1B2002F0CCFBC12002F022
:102F4000D5FB012002F0C6FBC52002F0CFFB3020EC
:102F500002F0C0FB302002F0BDFBC72000E0B7E06C
:102F600002F0C4FBB72002F0B5FB362002F0BEFB36
:102F7000482002F0AFFB3A2002F0B8FB552002F0E7
:102F8000A9FBB12002F0B2FB002002F0A3FB1A2043
:102F900002F0A0FBB62002F0A9FB00E09AE00A20B4
:102FA00002F098FBA22002F095FBF22002F09EFBBB
:102FB000002002F08FFB262002F098FB012002F097
:102FC00089FBE02002F092FB0F2002F083FB2A2015
:102FD00002F080FB282002F07DFB082002F07AFB43
:102FE0000E2002F077FB082002F074FB542002F060
:102FF00071FBA92002F06EFB432002F06BFB0A205C
:1030000002F068FB0F2002F065FB002002F062FB7B
:10301000002002F05FFB002002F05CFB002002F0C9
:1030200059FBE12002F062FB002002F053FB152067
:1030300002F050FB172002F04DFB072002F04AFB84
:10304000112002F047FB062002F044FB2B2002F087
:1030500041FB562002F03EFB3C2002F03BFB0520EA
:1030600002F038FB102002F035FB0F2002F032FB9B
:103070003F2002F02FFB3F2002F02CFB0F2002F03C
:1030800029FB2B2002F032FB002002F023FB002062
:1030900002F020FB012002F01DFB3F2002F01AFB92
:1030A0002A2002F023FB002002F014FB002002F093
:1030B00011FB002002F00EFBEF2002F00BFB1120B1
:1030C00002F014FB782003F0E9FF292001F00ABF89
:1030D000A580DEE6B0427DD1ED2002F007FB0120A5
:1030E00002F0F8FAFE2002F0F5FAEE2002F0FEFA05
:1030F000DE2002F0EFFA212002F0ECFAF12002F0DB
:10310000F5FA012002F0E6FADF2002F0EFFA1020D3
:1031100002F0E0FAC42002F0E9FA8F2002F0DAFAB5
:10312000C62002F0E3FA002002F0D4FAE22002F016
:10313000D1FAE22002F0CEFAE22002F0CBFABF2070
:1031400002F0D4FAAA2002F0C5FAB02002F0CEFABA
:103150000D2002F0BFFA002002F0BCFA0D2002F0B0
:10316000B9FA002002F0B6FA112002F0B3FA0020FA
:1031700002F0B0FA192002F0ADFA002002F0AAFA2B
:10318000212002F0A7FA002002F0A4FA2D2002F07C
:10319000A1FA002002F09EFA3D2002F09BFA0020E6
:1031A00002F098FA5D2002F095FA002002F092FAFF
:1031B0005D2002F08FFA002002F08CFAB1200AE0C4
:1031C00044000020204C43442049443A25780D0A0D
:1031D00000000000FEE302F089FA802002F07AFA93
:1031E000002002F077FA8B2002F074FA002002F03F
:1031F00071FA962002F06EFA002002F06BFAB2200B
:1032000002F074FA002002F065FA002002F062FA7F
:10321000022002F05FFA002002F05CFA032002F0C4
:1032200059FA002002F056FAB32002F05FFA0020AB
:1032300002F050FA002002F04DFA002002F04AFAA3
:10324000002002F047FA002002F044FA002002F0C9
:1032500041FA002002F03EFA002002F03BFA002082
:1032600002F038FA002002F035FA002002F032FABB
:10327000002002F02FFA002002F02CFA002002F0C9
:1032800029FA002002F026FA002002F023FA00209A
:1032900002F020FA002002F01DFA002002F01AFAD3
:1032A000002002F017FA002002F014FA002002F0C9
:1032B00011FA002002F00EFA002002F00BFAB420FE
:1032C00002F014FA8B2002F005FA002002F002FA54
:1032D000962002F0FFF9002002F0FCF9A12002F094
:1032E000F9F9002002F0F6F9B52002F0FFF902200A
:1032F00002F0F0F9002002F0EDF9032002F0EAF903
:10330000002002F0E7F9042002F0E4F9002002F0C6
:10331000E1F9B62002F0EAF9002002F0DBF9002022
:1033200002F0D8F9B72002F0E1F9002002F0D2F95A
:10333000002002F0CFF93F2002F0CCF9002002F08B
:10334000C9F95E2002F0C6F9002002F0C3F964203A
:1033500002F0C0F9002002F0BDF98C2002F0BAF9A9
:10336000002002F0B7F9AC2002F0B4F9002002F01E
:10337000B1F9DC2002F0AEF9002002F0ABF97020C8
:1033800002F0A8F9002002F0A5F9902002F0A2F9BD
:10339000002002F09FF9EB2002F09CF9002002F0DF
:1033A00099F9DC2002F096F9002002F093F9B82098
:1033B00002F09CF9002002F08DF9002002F08AF959
:1033C000002002F087F9002002F084F9002002F0CA
:1033D00081F9002002F07EF9002002F07BF9002044
:1033E00002F078F9BA2002F081F9242002F072F993
:1033F000002002F06FF9002002F06CF9002002F0CA
:1034000069F9C12002F072F9202002F063F900206E
:1034100002F060F9542002F05DF9002002F05AF940
:10342000FF2002F057F9002002F054F9C22002F008
:103430005DF90A2002F04EF9002002F04BF9042059
:1034400002F048F9002002F045F9C32002F04EF9DD
:103450003C2002F03FF9002002F03CF93A2002F053
:1034600039F9002002F036F9392002F033F9002052
:1034700002F030F9372002F02DF9002002F02AF98D
:103480003C2002F027F9002002F024F9362002F057
:1034900021F9002002F01EF9322002F01BF9002071
:1034A00002F018F92F2002F015F9002002F012F9AD
:1034B0002C2002F00FF9002002F00CF9292002F074
:1034C00009F9002002F006F9262002F003F9002095
:1034D00002F000F9242002F0FDF8002002F0FAF8D2
:1034E000242002F0F7F8002002F0F4F8232002F084
:1034F000F1F8002002F0EEF83C2002F0EBF800209A
:1035000002F0E8F8362002F0E5F8002002F0E2F8D8
:10351000322002F0DFF8002002F0DCF82F2002F069
:10352000D9F8002002F0D6F82C2002F0D3F80020C1
:1035300002F0D0F8292002F0CDF8002002F0CAF8FD
:10354000262002F0C7F8002002F0C4F8242002F080
:10355000C1F8002002F0BEF8242002F0BBF80020E1
:1035600002F0B8F8232002F0B5F8002002F0B2F81B
:10357000C42002F0BBF8622002F0ACF8002002F098
:10358000A9F8052002F0A6F8002002F0A3F8842094
:1035900002F0A0F8002002F09DF8F02002F09AF866
:1035A000002002F097F8182002F094F8002002F0B2
:1035B00091F8A42002F08EF8002002F08BF8182079
:1035C00002F088F8002002F085F8502002F082F81E
:1035D000002002F07FF80C2002F07CF8002002F0BE
:1035E00079F8172002F076F8002002F073F89520A1
:1035F00002F070F8002002F06DF8F32002F06AF893
:10360000002002F067F8E62002F064F8002002F0E3
:1036100061F8C52002F06AF8322002F05BF8002061
:1036200002F058F8442002F055F8002002F052F859
:10363000652002F04FF8002002F04CF8762002F0EE
:1036400049F8002002F046F8882002F043F80020F4
:1036500002F040F8C62002F049F8202002F03AF8C3
:10366000002002F037F8172002F034F8002002F0B2
:1036700031F8012002F02EF8002002F02BF8C720CC
:1036800002F034F8002002F025F8002002F022F8C1
:10369000002002F01FF8002002F01CF8C82002F001
:1036A00025F8002002F016F8002002F013F80020A0
:1036B00002F010F8002002F00DF8C92002F016F810
:1036C000002002F007F8002002F004F8002002F0C9
:1036D00001F8002001F0FEFF002001F0FBFF0020B8
:1036E00001F0F8FF002001F0F5FF002001F0F2FFEB
:1036F000002001F0EFFF002001F0ECFF002001F0BE
:10370000E9FF002001F0E6FF002001F0E3FF0020C8
:1037100001F0E0FF002001F0DDFF002001F0DAFF02
:10372000E02001F0E3FF162001F0D4FF002001F0BB
:10373000D1FF1C2001F0CEFF002001F0CBFF2120A3
:1037400001F0C8FF002001F0C5FF362001F0C2FFE4
:10375000002001F0BFFF462001F0BCFF002001F077
:10376000B9FF522001F0B6FF002001F0B3FF642042
:1037700001F0B0FF002001F0ADFF7A2001F0AAFFB8
:10378000002001F0A7FF8B2001F0A4FF002001F032
:10379000A1FF992001F09EFF002001F09BFFA820CF
:1037A00001F098FF002001F095FFB92001F092FF91
:1037B000002001F08FFFC42001F08CFF002001F0F9
:1037C00089FFCA2001F086FF002001F083FFD2208C
:1037D00001F080FF002001F07DFFD92001F07AFF89
:1037E000002001F077FFE02001F074FF002001F0DD
:1037F00071FFF32001F06EFF002001F06BFFE1206C
:1038000001F074FF162001F065FF002001F062FF57
:103810001C2001F05FFF002001F05CFF222001F07E
:1038200059FF002001F056FF362001F053FF002021
:1038300001F050FF452001F04DFF002001F04AFF4C
:10384000522001F047FF002001F044FF642001F006
:1038500041FF002001F03EFF7A2001F03BFF0020F5
:1038600001F038FF8B2001F035FF002001F032FF1E
:10387000992001F02FFF002001F02CFFA82001F07B
:1038800029FF002001F026FFB92001F023FF0020CE
:1038900001F020FFC42001F01DFF002001F01AFFFD
:1038A000CA2001F017FF002001F014FFD22001F020
:1038B00011FF002001F00EFFD82001F00BFF0020C7
:1038C00001F008FFE02001F005FF002001F002FFF9
:1038D000F32001F0FFFE002001F0FCFEE22001F0E9
:1038E00005FF052001F0F6FE002001F0F3FE0B209D
:1038F00001F0F0FE002001F0EDFE1B2001F0EAFED9
:10390000002001F0E7FE342001F0E4FE002001F089
:10391000E1FE442001F0DEFE002001F0DBFE4F203E
:1039200001F0D8FE002001F0D5FE612001F0D2FEAA
:10393000002001F0CFFE792001F0CCFE002001F044
:10394000C9FE882001F0C6FE002001F0C3FE9720CA
:1039500001F0C0FE002001F0BDFEA62001F0BAFE7D
:10396000002001F0B7FEB72001F0B4FE002001F006
:10397000B1FEC22001F0AEFE002001F0ABFEC72078
:1039800001F0A8FE002001F0A5FED12001F0A2FE6A
:10399000002001F09FFED62001F09CFE002001F0E7
:1039A00099FEDD2001F096FE002001F093FEF32049
:1039B00001F090FE002001F08DFEE32001F096FE64
:1039C000052001F087FE002001F084FE0A2001F0AE
:1039D00081FE00E004E3002001F07CFE1C2001F0E9
:1039E00079FE002001F076FE332001F073FE002006
:1039F00001F070FE442001F06DFE002001F06AFE2F
:103A0000502001F067FE002001F064FE622001F00A
:103A100061FE002001F05EFE782001F05BFE0020D8
:103A200001F058FE882001F055FE002001F052FE02
:103A3000972001F04FFE002001F04CFEA62001F07F
:103A400049FE002001F046FEB72001F043FE0020B1
:103A500001F040FEC22001F03DFE002001F03AFEE0
:103A6000C72001F037FE002001F034FED12001F024
:103A700031FE002001F02EFED52001F02BFE0020AB
:103A800001F028FEDD2001F025FE002001F022FEDD
:103A9000F32001F01FFE002001F01CFEE42001F0E5
:103AA00025FE012001F016FE002001F013FE01208A
:103AB00001F010FE002001F00DFE022001F00AFED0
:103AC000002001F007FE2A2001F004FE002001F092
:103AD00001FE3C2001F0FEFD002001F0FBFD4B202B
:103AE00001F0F8FD002001F0F5FD5D2001F0F2FD90
:103AF000002001F0EFFD742001F0ECFD002001F04A
:103B0000E9FD842001F0E6FD002001F0E3FD9320B3
:103B100001F0E0FD002001F0DDFDA22001F0DAFD62
:103B2000002001F0D7FDB32001F0D4FD002001F00A
:103B3000D1FDBE2001F0CEFD002001F0CBFDC42060
:103B400001F0C8FD002001F0C5FDCD2001F0C2FD4F
:103B5000002001F0BFFDD32001F0BCFD002001F0EA
:103B6000B9FDDD2001F0B6FD002001F0B3FDF3202A
:103B700001F0B0FD002001F0ADFDE52001F0B6FD43
:103B8000002001F0A7FD002001F0A4FD002001F0BD
:103B9000A1FD002001F09EFD022001F09BFD002010
:103BA00001F098FD292001F095FD002001F092FD23
:103BB0003C2001F08FFD002001F08CFD4B2001F036
:103BC00089FD002001F086FD5D2001F083FD0020CD
:103BD00001F080FD742001F07DFD002001F07AFDF0
:103BE000842001F077FD002001F074FD932001F0A6
:103BF00071FD002001F06EFDA22001F06BFD0020A0
:103C000001F068FDB32001F065FD002001F062FDC8
:103C1000BE2001F05FFD002001F05CFDC42001F03A
:103C200059FD002001F056FDCD2001F053FD00208C
:103C300001F050FDD32001F04DFD002001F04AFDC0
:103C4000DC2001F047FD002001F044FDF32001F0ED
:103C500041FD002001F03EFDE62001F047FD11206E
:103C600001F038FD002001F035FD342001F032FD77
:103C7000002001F02FFD562001F02CFD002001F066
:103C800029FD762001F026FD002001F023FD77209C
:103C900001F020FD002001F01DFD662001F01AFD5D
:103CA000002001F017FD882001F014FD002001F034
:103CB00011FD992001F00EFD002001F00BFDBB204D
:103CC00001F008FD002001F005FD992001F002FD42
:103CD000002001F0FFFC662001F0FCFC002001F058
:103CE000F9FC552001F0F6FC002001F0F3FC552012
:103CF00001F0F0FC002001F0EDFC452001F0EAFCB1
:103D0000002001F0E7FC432001F0E4FC002001F07A
:103D1000E1FC442001F0DEFC002001F0DBFCE720A8
:103D200001F0E4FC322001F0D5FC002001F0D2FCCF
:103D3000552001F0CFFC002001F0CCFC762001F0F2
:103D4000C9FC002001F0C6FC662001F0C3FC002085
:103D500001F0C0FC672001F0BDFC002001F0BAFCBE
:103D6000672001F0B7FC002001F0B4FC872001F0CF
:103D7000B1FC002001F0AEFC992001F0ABFC00206A
:103D800001F0A8FCBB2001F0A5FC002001F0A2FC82
:103D9000992001F09FFC002001F09CFC772001F0AD
:103DA00099FC002001F096FC442001F093FC0020D7
:103DB00001F090FC562001F08DFC002001F08AFCFF
:103DC000232001F087FC002001F084FC332001F067
:103DD00081FC002001F07EFC452001F07BFC0020EE
:103DE00001F078FCE82001F081FC002001F072FC79
:103DF000002001F06FFC992001F06CFC002001F024
:103E000069FC872001F066FC002001F063FC88203B
:103E100001F060FC002001F05DFC772001F05AFC0D
:103E2000002001F057FC662001F054FC002001F056
:103E300051FC882001F04EFC002001F04BFCAA2030
:103E400001F048FC002001F045FCBB2001F042FCE1
:103E5000002001F03FFC992001F03CFC002001F023
:103E600039FC662001F036FC002001F033FC5520BF
:103E700001F030FC002001F02DFC552001F02AFC5F
:103E8000002001F027FC442001F024FC002001F078
:103E900021FC442001F01EFC002001F01BFC5520F9
:103EA00001F018FC002001F015FCE92001F01EFCD7
:103EB000AA2001F00FFC002001F00CFC002001F012
:103EC00009FC002001F006FC002001F00FFCAA20F4
:103ED00001F000FCCF2001F009FC002001F0FAFB0A
:103EE000002001F0F7FB002001F0F4FB002001F0BE
:103EF000F1FB002001F0EEFB002001F0EBFB0020C5
:103F000001F0E8FB002001F0E5FB002001F0E2FBFE
:103F1000002001F0DFFB002001F0DCFB002001F0BD
:103F2000D9FB002001F0D6FB002001F0D3FB0020DC
:103F300001F0D0FB002001F0CDFB002001F0CAFB16
:103F4000F02001F0D3FB002001F0C4FB502001F071
:103F5000C1FB002001F0BEFB002001F0BBFB0020F4
:103F600001F0B8FBF32001F0C1FB002001F0B2FB2F
:103F7000F92001F0BBFB062001F0ACFB102001F0A2
:103F8000A9FB292001F0A6FB002001F0A3FB3A20A9
:103F900001F0ACFB552001F09DFB112001F0A6FBC8
:103FA000642003F07BF8292001F0A0FB352001F00C
:103FB0009DFB002001F08EFB512001F097FBFF20BC
:103FC00001F088FB532001F091FB2C2001F082FBD3
:103FD000552001F08BFB822001F07CFB2C20FDE3BF
:103FE000A8427DD14FF4704A5521504601F094FB10
:103FF0004FF2010BAA21584601F08EFB52214FF2DD
:10400000020001F089FB08214FF2030001F084FB5C
:1040100001214FF2040001F07FFB0D214FF43040ED
:1040200001F07AFB0D214BF2010001F075FB0D212F
:104030004BF2020001F070FB34214FF4364001F0E6
:104040006BFB34214BF2016001F066FB34214BF233
:10405000026001F061FB0D214FF4314001F05CFB87
:104060000D214BF2011001F057FB0D214BF2021014
:1040700001F052FB34214FF4374001F04DFB342165
:104080004BF2017001F048FB34214BF2027001F059
:1040900043FB00214FF4324001F03EFB00214BF284
:1040A000012001F039FB00214BF2022001F034FB2A
:1040B00024214FF4384001F02FFB24214BF601005E
:1040C00001F02AFB24214BF6020001F025FB01211F
:1040D0004FF43F4001F020FB0F214FF4334000E04C
:1040E000FEE301F019FB0F214BF2013001F014FB4C
:1040F0000F214BF2023001F00FFB34214FF4394015
:1041000001F00AFB34214BF6011001F005FB3421CC
:104110004BF6021001F000FB08214FF4354001F08E
:10412000FBFA08214BF2015001F0F6FA08214BF29C
:10413000025001F0F1FA03214FF4424001F0ECFA91
:1041400024214FF43A4001F0E7FA24214BF60120F4
:1041500001F0E2FA24214BF6022001F0DDFA002101
:104160004FF43C4001F0D8FA78214BF6014001F0C1
:10417000D3FA00214BF6024001F0CEFA00214FF4B1
:104180003D4001F0C9FA78214BF6015001F0C4FA24
:1041900000214BF6025001F0BFFA00214FF43E40DF
:1041A00001F0BAFA64214BF6016001F0B5FA002182
:1041B0004FF4514001F0B0FA33214DF2011001F0FB
:1041C000ABFA00214DF2021001F0A6FA34214DF2B3
:1041D000031001F0A1FA00214DF2041001F09CFA45
:1041E0003A214DF2051001F097FA00214DF2061028
:1041F00001F092FA4A214DF2071001F08DFA0021E8
:104200004DF2081001F088FA5C214DF2091001F01E
:1042100083FA00214DF20A1001F07EFA81214DF25D
:104220000B1001F079FA00214DF20C1001F074FA34
:10423000A6214DF20D1001F06FFA00214DF20E1083
:1042400001F06AFAE5214DF20F1001F065FA012143
:104250004DF2101001F060FA13214DF2111001F02F
:104260005BFA01214DF2121001F056FA54214DF281
:10427000131001F051FA01214DF2141001F04CFA23
:1042800082214DF2151001F047FA01214DF216106E
:1042900001F042FACA214DF2171001F03DFA022155
:1042A0004DF2181001F038FA00214DF2191001F00A
:1042B00033FA02214DF21A1001F02EFA01214DF2CB
:1042C0001B1001F029FA02214DF21C1001F024FA12
:1042D00034214DF21D1001F01FFA02214DF21E1083
:1042E00001F01AFA67214DF21F1001F015FA0221B0
:1042F0004DF2201001F010FA84214DF2211001F04E
:104300000BFA02214DF2221001F006FAA4214DF21F
:10431000231001F001FA02214DF2241001F0FCF902
:10432000B7214DF2251001F0F7F902214DF22610C8
:1043300001F0F2F9CF214DF2271001F0EDF9022141
:104340004DF2281001F0E8F9DE214DF2291001F0BC
:10435000E3F902214DF22A1001F0DEF9F2214DF2CB
:104360002B1001F0D9F902214DF22C1001F0D4F9F3
:10437000FE214DF22D1001F0CFF903214DF22E1048
:1043800001F0CAF910214DF22F1001F0C5F90321F7
:104390004DF2301001F0C0F933214DF2311001F02F
:1043A000BBF903214DF2321001F0B6F96D214DF247
:1043B000331001F0B1F900214FF4524001F0ACF993
:1043C00033214DF2012001F0A7F900214DF2022026
:1043D00001F0A2F934214DF2032001F09DF90021F2
:1043E0004DF2042001F098F93A214DF2052001F038
:1043F00093F900214DF2062001F08EF94A214DF289
:10440000072001F089F900214DF2082001F084F91C
:104410005C214DF2092001F07FF900214DF20A20C4
:1044200001F07AF981214DF20B2001F075F900219C
:104430004DF20C2001F070F9A6214DF20D2001F093
:104440006BF900214DF20E2001F066F9E5214DF2E5
:104450000F2001F061F901214DF2102001F05CF90B
:1044600013214DF2112001F057F901214DF21220D4
:1044700001F052F954214DF2132001F04DF90121C0
:104480004DF2142001F048F982214DF2152001F07F
:1044900043F901214DF2162001F03EF9CA214DF2F7
:1044A000172001F039F902214DF2182001F034F9FA
:1044B00000214DF2192001F02FF902214DF21A20AE
:1044C00001F02AF901214DF21B2001F025F902210A
:1044D0004DF21C2001F020F934214DF21D2001F095
:1044E0001BF902214DF21E2001F016F967214DF251
:1044F0001F2001F011F902214DF2202001F00CF9EA
:1045000084214DF2212001F007F902214DF22220F1
:1045100001F002F9A4214DF2232001F0FDF802215F
:104520004DF2242001F0F8F8B7214DF2252001F0DA
:10453000F3F802214DF2262001F0EEF8CF214DF2E2
:10454000272001F0E9F802214DF2282001F0E4F8DB
:10455000DE214DF2292001F0DFF802214DF22A2060
:1045600001F0DAF8F2214DF22B2001F0D5F802210A
:104570004DF22C2001F0D0F8FE214DF22D2001F05B
:10458000CBF803214DF22E2001F0C6F810214DF298
:104590002F2001F0C1F803214DF2302001F0BCF8CA
:1045A00033214DF2312001F0B7F803214DF23220D2
:1045B00001F0B2F86D214DF2332001F0ADF8002189
:1045C0004FF4534001F0A8F833214DF2013001F0CF
:1045D000A3F800214DF2023001F09EF834214DF293
:1045E000033001F099F800214DF2043001F094F805
:1045F0003A214DF2053001F08FF800214DF20630DE
:1046000001F08AF84A214DF2073001F085F80021C7
:104610004DF2083001F080F85C214DF2093001F0D4
:104620007BF800214DF20A3001F076F881214DF23D
:104630000B3001F071F800214DF20C3001F06CF8F4
:10464000A6214DF20D3001F067F800214DF20E3039
:1046500001F062F8E5214DF20F3001F05DF8012123
:104660004DF2103001F058F813214DF2113001F0E5
:1046700053F801214DF2123001F04EF854214DF261
:10468000133001F049F801214DF2143001F044F8E3
:1046900082214DF2153001F03FF801214DF2163024
:1046A00001F03AF8CA214DF2173001F035F8022135
:1046B0004DF2183001F030F800214DF2193001F0C0
:1046C0002BF802214DF21A3001F026F801214DF2AB
:1046D0001B3001F021F802214DF21C3001F01CF8D2
:1046E00034214DF21D3001F017F802214DF21E3039
:1046F00001F012F867214DF21F3001F00DF8022190
:104700004DF2203001F008F884214DF2213001F003
:1047100003F802214DF2223000F0FEFFA4214DF2F9
:10472000233000F0F9FF02214DF2243000F0F4FFB5
:10473000B7214DF2253000F0EFFF02214DF2263077
:1047400000F0EAFFCF214DF2273000F0E5FF022113
:104750004DF2283000F0E0FFDE214DF2293000F06C
:10476000DBFF02214DF22A3000F0D6FFF2214DF29C
:104770002B3000F0D1FF02214DF22C3000F0CCFFA5
:10478000FE214DF22D3000F0C7FF03214DF22E30F7
:1047900000F0C2FF10214DF22F3000F0BDFF0321C9
:1047A0004DF2303000F0B8FF33214DF2313000F0DF
:1047B000B3FF03214DF2323000F0AEFF6D214DF218
:1047C000333000F0A9FF00214FF4544000F0A4FF63
:1047D00033214DF2014000F09FFF00E082E3002111
:1047E0004DF2024000F098FF34214DF2034000F0FA
:1047F00093FF00214DF2044000F08EFF3A214DF26C
:10480000054000F089FF00214DF2064000F084FFD2
:104810004A214DF2074000F07FFF00214DF2084091
:1048200000F07AFF5C214DF2094000F075FF002195
:104830004DF20A4000F070FF81214DF20B4000F074
:104840006BFF00214DF20C4000F066FFA6214DF2F7
:104850000D4000F061FF00214DF20E4000F05CFFC2
:10486000E5214DF20F4000F057FF01214DF21040BD
:1048700000F052FF13214DF2114000F04DFF0121D5
:104880004DF2124000F048FF54214DF2134000F069
:1048900043FF01214DF2144000F03EFF82214DF212
:1048A000154000F039FF01214DF2164000F034FFB1
:1048B000CA214DF2174000F02FFF02214DF218409F
:1048C00000F02AFF00214DF2194000F025FF0221DF
:1048D0004DF21A4000F020FF01214DF21B4000E094
:1048E00003E300F019FF02214DF21C4000F014FF19
:1048F00034214DF21D4000F00FFF02214DF21E4009
:1049000000F00AFF67214DF21F4000F005FF022171
:104910004DF2204000F000FF84214DF2214000F0D4
:10492000FBFE02214DF2224000F0F6FEA4214DF2E2
:10493000234000F0F1FE02214DF2244000F0ECFE95
:10494000B7214DF2254000F0E7FE02214DF226404E
:1049500000F0E2FECF214DF2274000F0DDFE022103
:104960004DF2284000F0D8FEDE214DF2294000F043
:10497000D3FE02214DF22A4000F0CEFEF2214DF28C
:104980002B4000F0C9FE02214DF22C4000F0C4FE85
:10499000FE214DF22D4000F0BFFE03214DF22E40CE
:1049A00000F0BAFE10214DF22F4000F0B5FE0321B9
:1049B0004DF2304000F0B0FE33214DF2314000F0B6
:1049C000ABFE03214DF2324000F0A6FE6D214DF208
:1049D000334000F0A1FE00214FF4554000F09CFE52
:1049E00033214DF2015000F097FE00214DF20250AC
:1049F00000F092FE34214DF2035000F08DFE0021B4
:104A00004DF2045000F088FE3A214DF2055000F0BE
:104A100083FE00214DF2065000F07EFE4A214DF249
:104A2000075000F079FE00214DF2085000F074FEAE
:104A30005C214DF2095000F06FFE00214DF20A504A
:104A400000F06AFE81214DF20B5000F065FE00215E
:104A50004DF20C5000F060FEA6214DF20D5000F01A
:104A60005BFE00214DF20E5000F056FEE5214DF2A6
:104A70000F5000F051FE01214DF2105000F04CFE9D
:104A800013214DF2115000F047FE01214DF212505A
:104A900000F042FE54214DF2135000F03DFE012182
:104AA0004DF2145000F038FE82214DF2155000F006
:104AB00033FE01214DF2165000F02EFECA214DF2B8
:104AC000175000F029FE02214DF2185000F024FE8C
:104AD00000214DF2195000F01FFE02214DF21A5034
:104AE00000F01AFE01214DF21B5000F015FE0221CC
:104AF0004DF21C5000F010FE34214DF21D5000F01C
:104B00000BFE02214DF21E5000F006FE67214DF211
:104B10001F5000F001FE02214DF2205000F0FCFD7C
:104B200084214DF2215000F0F7FD02214DF2225078
:104B300000F0F2FDA4214DF2235000F0EDFD022122
:104B40004DF2245000F0E8FDB7214DF2255000F061
:104B5000E3FD02214DF2265000F0DEFDCF214DF2A3
:104B6000275000F0D9FD02214DF2285000F0D4FD6D
:104B7000DE214DF2295000F0CFFD02214DF22A50E6
:104B800000F0CAFDF2214DF22B5000F0C5FD0221CC
:104B90004DF22C5000F0C0FDFE214DF22D5000F0E2
:104BA000BBFD03214DF22E5000F0B6FD10214DF259
:104BB0002F5000F0B1FD03214DF2305000F0ACFD5C
:104BC00033214DF2315000F0A7FD03214DF2325058
:104BD00000F0A2FD6D214DF2335000F09DFD00214B
:104BE0004FF4564000F098FD33214DF2016000F083
:104BF00093FD00214DF2026000F08EFD34214DF254
:104C0000036000F089FD00214DF2046000F084FD96
:104C10003A214DF2056000F07FFD00214DF2066063
:104C200000F07AFD4A214DF2076000F075FD002189
:104C30004DF2086000F070FD5C214DF2096000F05B
:104C40006BFD00214DF20A6000F066FD81214DF2FE
:104C50000B6000F061FD00214DF20C6000F05CFD86
:104C6000A6214DF20D6000F057FD00214DF20E60BF
:104C700000F052FDE5214DF20F6000F04DFD0121E5
:104C80004DF2106000F048FD13214DF2116000F06C
:104C900043FD01214DF2126000F03EFD54214DF222
:104CA000136000F039FD01214DF2146000F034FD75
:104CB00082214DF2156000F02FFD01214DF21660AA
:104CC00000F02AFDCA214DF2176000F025FD0221F7
:104CD0004DF2186000F020FD00214DF2196000F047
:104CE0001BFD02214DF21A6000F016FD01214DF26C
:104CF0001B6000F011FD02214DF21C6000F00CFD64
:104D000034214DF21D6000F007FD02214DF21E60BE
:104D100000F002FD67214DF21F6000F0FDFC022152
:104D20004DF2206000F0F8FC84214DF2216000F08B
:104D3000F3FC02214DF2226000F0EEFCA4214DF2C2
:104D4000236000F0E9FC02214DF2246000F0E4FC55
:104D5000B7214DF2256000F0DFFC02214DF2266004
:104D600000F0DAFCCF214DF2276000F0D5FC0221E3
:104D70004DF2286000F0D0FCDE214DF2296000F0F9
:104D8000CBFC02214DF22A6000F0C6FCF2214DF26C
:104D90002B6000F0C1FC02214DF22C6000F0BCFC45
:104DA000FE214DF22D6000F0B7FC03214DF22E6084
:104DB00000F0B2FC10214DF22F6000F0ADFC032199
:104DC0004DF2306000F0A8FC33214DF2316000F06C
:104DD000A3FC03214DF2326000F09EFC6D214DF2E8
:104DE000336000F099FC5521504600F095FCAA2153
:104DF000584600F091FC52214FF2020000F08CFC6A
:104E000008214FF2030000F087FC00214FF204005C
:104E100000F082FCCC214FF4314000F07DFC0021F9
:104E20004BF2011000F078FC05214FF4364000F001
:104E300073FC70214FF4374000F06EFC70214BF290
:104E4000017000F069FC01214FF4384000F064FC6F
:104E500003214BF6010000F05FFC03214BF602003A
:104E600000F05AFC03214BF6030000F055FC022130
:104E70004FF43C4000F050FC00214BF6014000F0A4
:104E80004BFC00214BF6024000F046FCD0214FF4D1
:104E9000494000F041FC02214CF6011000F03CFCBE
:104EA00050214CF6021000F037FC50214CF6031054
:104EB00000F032FC50214CF6041000F02DFC0021D3
:104EC0004FF4545000F028FC55214FF4685000F086
:104ED00023FC4FF4885000F009FC782002F0ECF835
:104EE0004FF4245000F002FCB9E0B842FCD1E220BB
:104EF00000F0FCFB1D2000F0EDFB022000F0EAFBBF
:104F0000042000F0E7FB642002F0D6F8E02000F077
:104F1000EDFB012000F0DEFB0A2002F0BFF8E020EC
:104F200000F0E4FB032000F0D5FB0C2002F0B6F803
:104F3000012000F0DBFB0A2002F0B0F8E62000F0D0
:104F4000D5FB2F2000F0C6FBFF2000F0C3FBFF20A5
:104F500000F0C0FBB02000F0C9FB202000F0BAFB3D
:104F6000002000F0B7FB032000F0B4FB40F21F303C
:104F700000F0B0FB012000F0ADFB40F2DF1000F0CC
:104F8000A9FB002000F0A6FBB42000F0AFFB04203A
:104F900000F0A0FB40F21F4000F09CFB002000F05E
:104FA00099FB2E2000F096FB002000F093FB0020E0
:104FB00000F090FB002000F08DFB002000F08AFB49
:104FC000B62000F093FB022000F084FB4FF4037046
:104FD00000F080FB002000F07DFB172000F07AFB42
:104FE000152000F077FB002000F074FB002000F09B
:104FF00071FBF02000F07AFB032000F06BFB29200E
:1050000000F074FBD02000F071FB002000F062FB88
:10501000BE2000F06BFB052000F05CFBFE2000F0E2
:1050200059FB012000F056FB002000F053FB00204C
:1050300000F050FB002000F04DFBB82000F056FBC4
:10504000032000F047FB012000F044FBBA2000F0F1
:105050004DFB012000F03EFB642000F03DF8A088ED
:10506000404505D0B04203D0A84201D0B84219D182
:105070004FF02040D0F8041121F00F01C0F80411C6
:10508000D0F8041121F47061C0F80411D0F80411B3
:1050900041F00501C0F80411D0F8041141F4A061F9
:1050A000C0F804110020FDF7A7FD054801222021CA
:1050B000FBF70DFE4846BDE8F05FFDF783BD00003D
:1050C00000040240034808B50088ADF80000BDF8B0
:1050D000000008BD000008600246BE2000B500F0D8
:1050E00005FB052000F0F6FA00EE102A9FED0D1BDF
:1050F000B8EE400B20EE010BBCEEC00B10EE100A18
:1051000080B200F0E7FA012000F0E4FAFF2000F09E
:10511000E1FA002000F0DEFA5DF804EB002000F078
:10512000D9BA00006666666666660440F0B56C4CE7
:10513000002541F663172146A2798988012A01D00A
:105140001AB11BE0B94202D118E0B94216D10828C1
:1051500014D2DFE800F00406080A0C0E1012062034
:105160000CE007200AE0042008E0052006E001200A
:1051700004E0002002E0032000E0022045F21032AB
:10518000A1F5134345F21056413B05D0914203D09F
:10519000B14201D0B94277D1082812D2DFE800F03D
:1051A000110406080A0C0E1080250AE0402508E0CC
:1051B000C02506E0202504E0602502E0A02500E0EF
:1051C000E025B14202D14FF4585000E03620914220
:1051D00005D0B14203D0B94201D045F008052946B7
:1051E00000F09AFAA188B9420AD06288A8062088FD
:1051F00002D5904202D303E0904201D92280608020
:10520000B142608941D100F071FA002000F062FAE9
:105210006089401C80B200F069FA002000F05AFA60
:105220006089801C80B200F061FA2088401EC0F3C3
:105230000F2000F04FFA6089C01C80B200F056FACF
:105240002078401EC0B200F045FAA08900F04EFA66
:10525000002000F03FFAA089401C80B200F046FA1E
:10526000002000F037FAA089801C80B200F03EFADE
:105270006088401EC0F30F2000F02CFAA089C01CEB
:1052800080B200F033FA22E028E000F02FFA00208C
:1052900000F020FA002000F01DFA2088401EC0F324
:1052A0000F2000F017FA2078401EC0B200F012FA6A
:1052B000A08900F01BFA002000F00CFA002000F09A
:1052C00009FA6088401EC0F30F2000F003FAA078AE
:1052D000BDE8F040401EC0B200F0FCB9F0BD0000D7
:1052E00044000020F0B53F4A060A04460D46104629
:1052F0000F0A91884089A1F51343413B28D0A1F5BD
:10530000A643103B24D0A1F5C853633B2FD0A1F591
:10531000AA43103B64D100F0E9F9304600F0DAF915
:105320005089401C80B200F0E1F9E0B200F0D2F9FF
:10533000908900F0DBF9384600F0CCF99089401CE8
:1053400080B200F0D3F9E8B2BDE8F04000F0C2B995
:1053500000F0CCF9304600F0BDF9E0B200F0BAF947
:10536000908900F0C3F9384600F0B4F9EBE7917981
:1053700029B300F0BBF9304600F0ACF9E0B200F020
:10538000A9F91088401EC0F30F2000F0A3F910788F
:10539000401EC0B200F09EF9908900F0A7F938468F
:1053A00000F098F9E8B200F095F95088401EC0F37B
:1053B0000F2000F08FF99078401EC0B2C4E711882A
:1053C000091B491E8CB200F091F9002000F082F90F
:1053D000002000F07FF9200A00F07CF9E0B2D9E764
:1053E000F0BD0000440000202DE9FC4FDFF87C9167
:1053F0000D461944044683185B1E8618B9F804004C
:105400004FEA034C491E761EA0F51343413BC1F3FE
:10541000072301934FEA152300934B46B6B21FFAB8
:1054200081F85B894FEA1C6B4FEA142A0BD0A0F578
:10543000A647103F07D099F8067041F6631C012F6C
:105440001ED160451CD1184600F050F9504600F0BE
:1054500041F9E0B200F03EF9584600F03BF9F0B2F5
:1054600000F038F9B9F80C0000F040F9009800F0AD
:1054700031F9E8B200F02EF9019800F02BF96CE058
:10548000604526D1B9F800008EB2801A001B84B2A4
:10549000184600F02BF9200A00F01CF9E0B200F0E9
:1054A00019F92244521EC2F30F2000F013F9D0B2B2
:1054B00000F010F9B9F80C0000F018F9009800F0AD
:1054C00009F9E8B200F006F9300A00F003F9F0B289
:1054D00045E0A0F5AA41103945D1184600F006F97B
:1054E000504600F0F7F8B9F80A00401C80B200F00E
:1054F000FDF8E0B200F0EEF8B9F80A00801C80B2C6
:1055000000F0F4F8584600F0E5F8B9F80A00C01CBD
:1055100080B200F0EBF8F0B200F0DCF8B9F80C0063
:1055200000F0E4F8009800F0D5F8B9F80C00401C41
:1055300080B200F0DBF8E8B200F0CCF8B9F80C006B
:10554000801C80B200F0D2F8019800F0C3F8B9F8DE
:105550000C00C01C80B200F0C9F808F0FF00BDE8E4
:10556000FC4F00F0B7B8BDE8FC8F000044000020FD
:1055700030B502FB03F4039DFFF736FF00F0C2F8DD
:105580000549002004E000BF35F810200A80401CC7
:10559000A042F9D330BD0000000008602DE9FF4FA4
:1055A00058071D460C468A4600D00120DFF8B8B0E7
:1055B000690800EBD500002610FB01F1203A01F04C
:1055C000FF09D0B202904BE00C2D11D0102D14D059
:1055D000182D17D0202D45D10298244901EBC01079
:1055E0004FF00008875D380613D52148026814E0A3
:1055F0000298204900EB400008E002981E4901EBA8
:105600000010EDE702981D4900EBC00001EB80009F
:10561000E6E70D9828B91648426821460098FDF73C
:105620005BFB7906BBF80200641CA4B20F0EA0421B
:1056300018D9A4EB0A00A84209D100985446BBF837
:105640000010401C80B2009081420BD906E008F1A6
:10565000010000F0FF08B8F1080FC4D3761CF6B2C1
:105660004E45B1D3BDE8FF8F440000201C8F0008D9
:10567000080000205C770008D07B0008C08100088B
:105680002DE9F84F0D46044658194FF0000A11193C
:1056900087B21FFA81F8DDE90AB604F0FF0912E0CB
:1056A000444503D305EB0B004C4685B2BD420FD2F7
:1056B0005B4629462046CDF800A0FFF76FFF04EBBC
:1056C0005B0084B2761C3278A2F120005E28E7D914
:1056D000BDE8F88F01B5BDF800100348ADF8001023
:1056E000BDF80010018008BD0000086001B5BDF8DC
:1056F00000100348ADF80010BDF80010018008BD8F
:10570000FEFF0760024803490089088070470000D7
:1057100044000020FEFF0760024B9A1C1880118095
:1057200070470000FEFF076004480168090203D5C6
:10573000016841F40001016001F02AB8143C014005
:105740007FB500240094019402940394FBF736FB88
:105750001B218DF808108DF80C4001258DF80940AB
:105760004FF0C0408DF80D4003228DF800508DF8A9
:105770000A408DF80E408DF80140019068468DF882
:105780000B208DF80F50FBF7EBFA68078DF80150EE
:105790001221019068468DF808108DF80E50FBF725
:1057A000DFFA0420FBF718FB7FBD0000054808B5B1
:1057B000016841F480010160006800F480000090FD
:1057C00008BD000030380240F0B595B01C21684695
:1057D000FAF77AFD1C2107A8FAF776FD1C210EA81E
:1057E000FAF772FD31480024314A10254FF020436A
:1057F0004FF0110C2F0203600126C0E90124C460A0
:10580000AA02C0E9044584610F21C461C0E90847C8
:10581000C0E90A42D20104634463C0E90E42046451
:1058200001A85522009180E84600CDE90641CDE966
:10583000045C089107AA0B95CDE909161B48694637
:10584000CDE90CC4FCF77CFC08B1FAF7EAFD174877
:105850000822DFF85CC002214C300CF13C0C4FF404
:10586000C07EC0F800C04FF0400CC0E90146C0E95E
:105870000325C0F814C00D03C0E906E48E020662D9
:10588000C0E909750EA80623042480E80E00074825
:10589000CDE912414C30119314910EA9FCF703FC91
:1058A000002801D0FAF7BDFD15B0F0BD541000205E
:1058B000040100A0F0B587B014216846FAF704FD92
:1058C0003C48016841F004010160016801F00401F5
:1058D0000591016841F020010160016801F020019B
:1058E0000591016841F080010160016801F08001CB
:1058F0000591016841F001010160016801F00101B9
:105900000591016841F002010160016801F00201A6
:105910000591016841F040010160016801F040011A
:105920000591016841F010010160016801F010016A
:105930000591016841F008010160006801221E4FD5
:10594000032100F0080005903846FBF7C0F900225B
:1059500038462021FBF7BBF9002569460124029453
:105960006003CDE900051548FBF7B8F80220009464
:105970006946CDE901501248FBF7B0F80C206946A2
:10598000CDE900050F480294FBF7A8F80326694605
:10599000CDE90064CDE902453846FBF79FF82020A9
:1059A0006946CDE90004CDE902463846FBF796F892
:1059B00007B0F0BD30380240000402400008024049
:1059C00000000240001C02402DE9F0410C4800217B
:1059D00018270A4A02237E01C0E90561C161042437
:1059E0001025016280E8BC00FBF7E2FA002803D032
:1059F000BDE8F041FAF715BDBDE8F081001000A048
:105A0000D410002010B588B018216846FAF75CFC65
:105A10002448002422497F220694FF23E0E8021450
:105A200080E81C00C46004611E48FCF7DDF908B181
:105A3000FAF7F7FC1B480021FCF77AF945F250020F
:105A400090422AD017480021FCF777F914208DF8EE
:105A5000000025218DF801108DF802400122114827
:105A6000694604940594FCF78DFA08B1FAF7D9FC5D
:105A700006208DF8180010218DF8191016228DF8C7
:105A80001A200848212301228DF81B3006A9FCF7B3
:105A900013FA002801D0FAF7C4FC08B010BD0000CA
:105AA000002800402011002030B587B0184800249D
:105AB0001649D72240F2E7330094802501940294DE
:105AC000039404940594069480E81600C0E9033416
:105AD000C0E90545FCF7D6FB08B1FAF7A2FC4FF484
:105AE000805000900A486946FCF758FC08B1FAF764
:105AF00098FC074804A9049405940694FCF770FBED
:105B0000002801D0FAF78DFC07B030BD000001403D
:105B1000401100200D48002110B50B4C0C220C4BFD
:105B20000460C0E90131C160C0E904128161C16152
:105B300001624162FCF7C8FE002803D0BDE81040B6
:105B4000FAF76FBC10BD000000100140CC1100201E
:105B5000009411000DA001F023F84FF47A74204650
:105B600001F09CFA0FA001F01BF8204601F096FA14
:105B7000BFF34F8F1048114A016801F4E0611143EF
:105B80000160BFF34F8F00BFFDE700004D656D2042
:105B9000416363657373204572726F7221210D0A30
:105BA00000000000536F6674205265736574696E5F
:105BB000672E2E2E0D0A00000CED00E00400FA0501
:105BC000704770472DE9F0434B6A4FF040652BB1A9
:105BD000AA4203D004688B6A5B1E23618B69002B89
:105BE00068D00C6AB4B303688C68DC61CC69FCB122
:105BF000D1E90B38D1F824C04E6B8F8A43EA0803F1
:105C000046EA0C0633430E6A43EA8743D1E9037C34
:105C100043EA0C0333438E693B430F682343046814
:105C200033433B4365E0006849688161BDE8F08328
:105C3000D1E90B364F6A4C6B8D8A33433C430E6976
:105C400023430C6A43EA85438D6933430968234340
:105C50002B4362E0FFE7CC69B4F1000918D0D1E929
:105C60000B484F6A4E6BB1F814C044EA08043E4337
:105C70000F683443CE6844EA8C44344344EA090450
:105C80001C4303683C431443AA425C61CBD1CDE77B
:105C9000D1E90B464F6A4D6BB1F814C034433D4314
:105CA00000682C43096844EA8C441C430C431443A9
:105CB0004461BBE70B6AABB303688C68DC61CC69F9
:105CC000E4B1D1E90B38D1F824C04E6B8F8A43EA96
:105CD000080346EA0C0633430E6A43EA8743D1E9D8
:105CE000037C43EA0C0333438E693B43234304683C
:105CF00033431343AA42636195D197E7D1E90B3649
:105D00004F6A4C6B8D8A33433C430E6923430C6AC4
:105D100043EA854389693343234300680B431343B4
:105D2000436183E7FFE7CC6984B1D1E90B384F6A5F
:105D30004E6BB1F814C043EA08033E433343CE68C8
:105D400043EA8C43334323430468D2E74C6A002C74
:105D50009DD0D1E90B368F8A4D6B016833432543C3
:105D60002B4343EA8740104348615FE7074A491ED7
:105D700010B51268116141F2883201460348FBF701
:105D8000C7F9002800D0012010BD0000D410002069
:105D9000F0B58FB014AC94E8E000002403960997A6
:105DA0000D94CDE907540B940C94CDE90523CDE96E
:105DB0000001044841F288326946FBF7B5F80FB09C
:105DC000F0BD0000D4100020074A491E10B512682B
:105DD000116141F2883201460348FBF7F9F90028C6
:105DE00000D0012010BD0000D41000202DE9F041AA
:105DF000984616460F460446069D08E0681C06D0E5
:105E0000FAF76AFFA0EB0800A8420AD84DB1206853
:105E10008068384000D00120B042EFD10020BDE8BA
:105E2000F081042084F84100606C40F0010060645F
:105E30000120F4E7020900F00F0102EB820001EB00
:105E40004000C0B27047002102E00A38491CC0B2CD
:105E50000A28FAD2090740EA1160704770B5044673
:105E60000068C168490614D44FF0FF31C160FAF7E9
:105E700033FF4FF47A76054607E000BFFAF72CFFB0
:105E8000401BB04201D9032070BD2068C0684006A5
:105E9000F4D5002070BD000010B588B0044618216C
:105EA0006846FAF711FA00200690617901228DF810
:105EB0000010A1798DF80110E1798DF80210694682
:105EC000049005901048FCF75DF808B1FAF7A9FABC
:105ED000207901228DF8180006A9A0788DF8190004
:105EE000E0788DF81A0060788DF81B000648FBF703
:105EF000E3FF08B1FAF795FA0348002145F2500292
:105F0000FBF71BFF08B010BD201100200023012269
:105F10001846114610B500F021F84FF4FA7001F060
:105F2000CBF8002301221846022100F017F80023C5
:105F300008221846032100F011F801220421002054
:105F40004FF40C7300F00AF8BDE81040024840F22C
:105F50003731FCF7CBB80000A01000201FB54FF080
:105F6000000410B1012802D002E0102400E008244F
:105F70000748CDE902234FF48052CDE90014694669
:105F8000FCF7C6F8002800D0012004B010BD0000C6
:105F9000A01000207047FAF7A5BE000070B5B8B099
:105FA000342124A8FAF790F9142131A8FAF78CF9D2
:105FB00090216846FAF788F9FAF7AEFF224801689F
:105FC00021F01801016020483038016841F080510B
:105FD0000160006800F0805036901C48016841F470
:105FE00040410160006802241925E10300F44040AB
:105FF00036908B012C954FF4D8760520CDE92A43B5
:1060000024ABCDE92D6401222F9483E8070024A856
:10601000FBF7C2FCFAF74AFFE2024FF4A051002559
:10602000CDE9341231AA0F20072182E8310031A8CE
:10603000FBF7C8FB60201195E1010C9100906846C8
:10604000FBF722F938B070BD703802400070004094
:1060500005484FF000610368034A43F4700303608E
:10606000803A11607047000088ED00E00148FCF7BD
:1060700004BA000040110020F0B5274B4FF0804ECD
:10608000264D02689842264E264F274C09D070456F
:1060900007D0A84205D0B04203D0B84201D0A042F8
:1060A00005D1D1F804C022F070024CEA02029842F5
:1060B0001BD0704519D0A84217D0B04215D0B842B5
:1060C00013D0A04211D0194DA8420ED0184DA842AD
:1060D0000BD0184DA84208D0174DA84205D0174D37
:1060E000A84202D0164DA84203D1CD6822F44072D6
:1060F0002A434D6922F080022A43026098428A684E
:10610000C2620A68826201D0A04201D109690163BA
:1061100001214161F0BD0000000001400004004089
:1061200000080040000C0040000401400040014015
:10613000004401400048014000180040001C00409D
:106140000020004042EA032283680A4323F47F418F
:106150000A4382607047826822F070020A4342F06C
:1061600007018160704710B5036A046A23F00A03CF
:1061700024F00104046284690B4324F0F00141EA35
:1061800002118161036210BD10B5036A23F0100390
:1061900003628369046A23F4704324F0A00443EA91
:1061A0000232826144EA0111016210BD90F82410AC
:1061B000C90706D00168836A4A6822F400321A438C
:1061C0004A6090F82410890706D50168C36A4A68B6
:1061D00022F480321A434A6090F82410490706D509
:1061E0000168036B4A6822F480221A434A6090F8DF
:1061F0002410090706D50168436B4A6822F400425F
:106200001A434A6090F82410C90606D50168836BCA
:106210008A6822F480521A438A6090F82410890612
:1062200006D50168C36B8A6822F400521A438A605B
:1062300090F82410490611D50168036C4A6822F4CD
:1062400080121A434A60016CB1F5801F06D10168C3
:10625000436C4A6822F4C0021A434A6090F8241042
:10626000090606D50168826C486820F400201043B6
:1062700048607047F8B500260446C0F88060FAF719
:106280002BFD054620686FF07E470068000708D5A3
:1062900000222B464FF400112046009700F01AFA16
:1062A00060B92068006840070AD500222B464FF4E9
:1062B00080012046009700F00DFA08B10320F8BDD8
:1062C0002020A067E0672666002084F87460F8BD8F
:1062D00010B5806B0021A0F85A10A0F85210FCF7FE
:1062E000D7F910BD70B5846B00252168A06FE66FEB
:1062F0008968090606D5212804D1A4F85250204601
:1063000000F084F820688068400606D5222E04D16B
:10631000A4F85A50204600F061F8D4F8800040F00C
:106320001000C4F880002046FCF7B2F970BD10B52B
:10633000C169806BB1F5807F1BD00021A0F85A1095
:10634000202201680B6823F480730B6001688B685E
:1063500023F001038B6001688B6823F040038B609E
:10636000C267016E012904D101680A6822F0100297
:106370000A60016E012902D0FCF763FB10BDB0F882
:106380005810FCF74AF910BD10B5806B016E012959
:1063900002D0FCF757FB10BDB0F858104908FCF7C5
:1063A0003CF910BD10B5C169806BB1F5807F0DD08F
:1063B0000021A0F8521001688A6822F080028A60E9
:1063C0000068016841F04001016010BDFCF788FBE6
:1063D00010BD10B5806BFCF784FB10BD01680A6826
:1063E00022F490720A6001688A6822F001028A60D1
:1063F000016E012904D101680A6822F010020A60C6
:1064000000212022C2670166416670470168202290
:106410000B6823F0C0030B60826770472DE9F041E1
:1064200004460368C2698168D4E90450DFF8F4C106
:106430007D4E29431F68002510437C4A014307EA2B
:106440000C070F431F604FF400402168E7684B685A
:1064500023F440533B434B602768A369216AD7F874
:1064600008C019432CF430630B43BB602168B14270
:106470000AD1116811F0030152D001297CD0022900
:1064800071D003296ED184E0694B99420AD1116819
:1064900011F00C0167D0042965D0082975D00C29AA
:1064A00060D176E0634B99420AD1116811F0300156
:1064B00059D010296BD0202967D0302952D168E0FB
:1064C0005D4B99420AD1116811F0C0014BD04029AF
:1064D0005DD0802959D0C02944D15AE0574B994208
:1064E0000DD1116811F440713DD0B1F5807F4ED0CF
:1064F000B1F5007F49D0B1F5407F33D149E0504B31
:1065000099420FD1116811F4406109D0B1F5806F43
:106510003DD0B1F5006F38D0B1F5406F22D138E0F1
:10652000012120E0474B99420DD1116811F44051EF
:1065300019D0B1F5805F2AD0B1F5005F25D0B1F553
:10654000405F0FD125E0404B99420BD1116811F407
:10655000404108D0B1F5804F19D0814215D0B1F536
:10656000404F16D01021E369384A4FF6EF76834248
:106570002FD109294BD201E009E006E0DFE801F064
:106580000B0E11471347474716000221EBE7042182
:10659000E9E70821E7E7FBF7ADF906E0FBF7BAF911
:1065A00003E0104602E0FBF7C5F988B361684000DC
:1065B00000EB5100B0FBF1F080B2A0F11001B1424C
:1065C00025D84FF6F0732168C0F3420218401043FB
:1065D00020E009291BD2DFE801F005080B1A0D1A8B
:1065E0001A1A1000FBF786F906E0FBF793F903E0AF
:1065F000104602E0FBF79EF950B1616800EB5100D4
:10660000B0FBF1F080B2A0F11001B14201D9012537
:1066100001E02168C86000206066A0662846BDE8E9
:10662000F0810000F369FFEF001001409038024054
:106630000044004000480040004C00400050004032
:106640000014014000780040007C00400024F40069
:1066500070B50446006F002522236165A4F8582018
:10666000C4F88050E367D8B117491346C163216F5E
:1066700016480864216F1648C864206F0565666D6A
:106680002168206F32462431FAF79AF940B110217F
:10669000C4F88010202084F87450A067012070BDD9
:1066A00084F874502068016841F4807101602068AA
:1066B000816841F0010181602068816841F04001FA
:1066C0008160002070BD00002F630008896300080E
:1066D000E56200082DE9F0479A4617460E46044643
:1066E000089D4FF000094FF0200839E0681C37D0B2
:1066F000FAF7F2FAA0EB0A00A84222D80DB32068FC
:10670000016849072CD5C069C043000528D4236817
:106710004FF40061196221680B6823F4D0730B6099
:1067200021688B6823F001038B60C4F87880C4F87B
:106730007C80C4F8808000BF032084F87490BDE89A
:10674000F08721680B6823F4D0730B6021688B6895
:1067500023F001038B60C4F87880C4F87C80EBE7F9
:106760002068C06936EA000004D00020B842BDD0DD
:106770000020E4E70120F9E710B500F047F8BDE894
:1067800010400148FBF786BFCC110020FEE7000057
:10679000184870B5184C0078D8B1184D18482968B9
:1067A000B1FBF0F200FB121016496268084416496A
:1067B000F9F771FD6068296808442860002060606E
:1067C000207040221049BDE8704001F14000FCF704
:1067D00019B90D480178AA2902D14178BB2905D001
:1067E0006068C1B20848F9F70BFEE7E7801CFFF7C5
:1067F00053FBE3E7140000202800002018000020CD
:1068000000B80B00000000C08C1100200E4810B52D
:106810000068C169C1F30011002913D01021016281
:106820000948FBF7FCFE0848084A84300849012360
:1068300000684068C0F1400048600B70106840F488
:106840000000106010BD0000CC110020103C014081
:10685000280000203EB5040300F02AF900F0CEF82D
:106860004FF44051002288108DE807008310214624
:106870002020FFF78DFABDE83E4000F0BFB80000D1
:106880007FB500F035F800F069F81849A0F56F42BF
:10689000183A488028D1032000F084F800248DF8AD
:1068A0000C00C0074FF440750AD100F001F9002236
:1068B0002B46B7201146009401940294FFF768FA22
:1068C00000F0F6F84FF04070009400222B4611467D
:1068D000CDE90140C020FFF75BFA30208DF80C00B5
:1068E000012103A8FFF770FA7FBD0000100000200F
:1068F0003EB5022000F056F80446800706D400F0AA
:10690000D7F8022044F0020100F022F900200090A4
:106910004FF4807302460146019002903820FFF741
:1069200037FA0249012008703EBD00001000002027
:106930003EB5154604464FF44052901083038DE84F
:106940000D00831008220B20FFF722FA03B029461E
:106950002046BDE83040FFF709BA00001FB51049D6
:106960004FF40050097829B14FF44062910302912D
:106970000B1404E04FF48062910302910B14CDE9F3
:106980000020002290201146FFF702FA022103A8FE
:10699000FFF7ECF9BDF80C0004B040BA10BD0000E0
:1069A000100000201FB5002101288DF80C1003D025
:1069B000022803D0032803D0052002E0352000E0A0
:1069C00015200D4A127822B14FF040720091131435
:1069D00003E04FF0807200911314CDE90112002200
:1069E0001146FFF7D5F9012103A8FFF7BFF99DF87C
:1069F0000C0004B010BD00001000002010B50120F4
:106A0000FFF7D0FFC007FAD110BD00002DE9F05FFD
:106A1000C1F30B06DFF894800F0B8946C6F580544E
:106A20008246A242154600D81446404639034FF428
:106A300080528B46FFF77CFF002006E0321818F8E2
:106A40000210FF2903D1401C80B2A042F6D3A0421D
:106A500023D23846FFF7FEFE002006E083191AF81D
:106A60000020401C80B208F80320A042F6D34FF467
:106A7000805259464FEA080000F030F8A54212D083
:106A8000291B4FF000068DB27F1C4FF480508542C9
:106A9000A244A14405D90446C7E7224649465046C8
:106AA000EAE72C46C1E7BDE8F09F00005200002055
:106AB00009480EB50178002000900190029011B1B4
:106AC0004FF4407301E04FF480730022062011461A
:106AD000FFF75EF90EBD0000100000202DE9F04127
:106AE00007460E46C8B21546C0F58074A24200D8CB
:106AF00014464FF4807822463146384600F00EF8AE
:106B0000A54209D0291B8DB245452744264401D909
:106B10004446F0E72C46EEE7BDE8F081FEB51646A8
:106B20000C460546FFF7C4FF4FF44051881082031E
:106B30008DE807008310214600220220FFF728F984
:106B400031462846FFF740F9BDE8FE40FFF756BF43
:106B500003B5012883B004D002280BD003280BD042
:106B600001200E490A78002142B14FF04072009195
:106B7000131407E03120F4E71120F2E74FF08072A0
:106B800000911314CDE9011200221146FFF700F91C
:106B9000012104A8FFF718F905B000BD100000207E
:106BA0000FB4054B10B503A9044A029800F03CF855
:106BB00010BC5DF814FB0000ED70000830000020F0
:106BC0000FB4084B10B504A902AA039800F02CF8E2
:106BD000044602A9002000F052FA204610BC5DF8DD
:106BE00014FB00007F700008090700284FEA1161BC
:106BF00004DB00F1E02080F80014704700F00F0083
:106C000000F1E02080F8141D704702E008C8121F50
:106C100008C1002AFAD170477047002001E001C185
:106C2000121F002AFBD170472DE9FF4F8DB00F4690
:106C30000546002606E025280BD0DDE90F12904717
:106C40006D1C761C28780028F5D111B03046BDE8BF
:106C5000F08F0024A246A1460122E94900E0044346
:106C600015F8013F203B02FA03F00842F7D12878DB
:106C70002A2810D06FF02F022878A0F130010929BE
:106C800014D80AEB8A0102EB410144F0020400EB44
:106C9000010A6D1CF0E701CF5FEA000A03D544F456
:106CA0000054CAF1000A44F002046D1C28782E2812
:106CB00017D115F8010F44F004042A280ED06FF004
:106CC0002F022878A0F1300109290AD809EB89019F
:106CD00002EB410100EB01096D1CF2E757F8049B40
:106CE0006D1C28786C280FD006DC4C2817D068283B
:106CF0000DD06A2814D104E0742810D07A280FD15E
:106D00000DE044F400140AE044F4801401E044F47B
:106D100040146978814202D104F580146D1C6D1C09
:106D200028786E281ED00CDC632830D004DC0028C4
:106D30008BD0582811D19FE0642867D069280CD1E6
:106D400064E073282DD004DC6F2872D0702804D141
:106D500094E075286ED078286DD0DDE90F12904749
:106D6000761C4BE1C4F30250022806D0032809D058
:106D7000042801CF09D0066040E101CFF117C0E936
:106D800000613BE101CF068038E1067036E117F87B
:106D9000040B8DF8000000208DF80100EB46012067
:106DA00003E057F804BB4FF0FF3061074FF00001DC
:106DB00002D40DE008F10101884649450FDA80450B
:106DC000F8DB1BF808100029F4D108E008F10101F4
:106DD00088468142FADB1BF808100029F6D1DDE96C
:106DE0000F23AAEB08008146214600F031F9304418
:106DF00000EB080604E0DDE90F121BF8010B9047D9
:106E0000B8F10108F7D221464846F2E00A21C4F35E
:106E100002524FF0000B0891022A04D001CFC11793
:106E2000032A09D00AE0FF1D27F00707F7E802014F
:106E300008E02CE01EE01FE000B2C117042A01D1D7
:106E400040B2C117021E71F1000206DA0023D0EB36
:106E5000030063EB01012D2202E0220504D52B2261
:106E60008DF82420012203E0E20701D02022F7E779
:106E7000904653E00A210BE0102109E010214FF069
:106E8000000B44F004044FF00809089103E00821C6
:106E90004FF0000B0891C4F30252022A04D001CF34
:106EA0000021032A06D006E0FF1D27F00707F7E8B8
:106EB000020103E080B2042A00D1C0B24FF0000802
:106EC00022072BD52A78702A07D0DDF820C08CF055
:106ED000100C5CEA0B0C05D00EE040228DF824204B
:106EE000012208E050EA010306D030238DF8243057
:106EF0008DF8252002229046089B83F0080353EA70
:106F00000B030BD150EA010201D1620706D53022F2
:106F10008DF824204FF00108A9F101092A78582A98
:106F200004D038A20B9208AA0A920BE03AA2F9E721
:106F30005B46089AF9F77EF90B9B9B5C0A9A521EF6
:106F40000A92137050EA0102F2D10A98ADEB0000E8
:106F500000F1200B600702D524F4803401E04FF0EB
:106F60000109D94502DDA9EB0B0000E0002000EB90
:106F70000B0141440890AAEB010AE00306D4DDE9C5
:106F80000F232146504600F063F806444FF00009F5
:106F900008E009A911F80900DDE90F12904709F18D
:106FA0000109761CC145F4DBE0030CD5DDE90F23B4
:106FB0002146504600F04CF8064404E0DDE90F128B
:106FC00030209047761C0899481E08900029F5DC6F
:106FD00008E00A980A990078491C0A91DDE90F1225
:106FE0009047761CBBF10001ABF1010BF1DC2146AF
:106FF0005046DDE90F2300F019F806446D1C21E628
:10700000092801003031323334353637383961627E
:107010006364656600000000303132333435363742
:107020003839414243444546000000002DE9F04113
:10703000044600251E461746880404D405E0394658
:107040002020B0476D1C641EF9D52846BDE8F081AC
:107050002DE9F041044600251E469046C80301D59F
:10706000302700E02027880404D505E04146384653
:10707000B0476D1C641EF9D52846BDE8F0810A684A
:10708000531C0B601070704710B504460420FBF7CA
:1070900084F80148046010BD0000002070B5002491
:1070A00005464FF47A7603E0304600F005F8641C9C
:1070B000AC42F9D370BD00000B49002270B54FF00F
:1070C000E024096865694843A369A1699942FCD035
:1070D00002D2A3EB010302E0A5EB010633441A44FC
:1070E0000B468242F1D370BD000000200349CA69FB
:1070F0005206FCD5C2B28A627047000000100140FF
:1071000094B0FEF71DFBBFF34F8FBFF36F8FFF49A6
:107110004FF000094846C1F80090BFF34F8FBFF30E
:107120006F8FFB490A6842F400320A60BFF34F8F49
:10713000BFF36F8FF64A70321060BFF34F8F101F8E
:1071400043F6FF750068F14C1034C0F34E32C0F3C3
:10715000C90305EA4216184646EA80772760401EB2
:10716000FAD2521EF5D2BFF34F8F086840F4803038
:107170000860BFF34F8FBFF36F8FF9F7BBFDE34894
:107180004C30016841F004010160FEF707FFFEF793
:1071900091FBFEF70BFBFEF7BDFCFEF785FCFEF74F
:1071A00013FBFEF72FFCFEF70FFC002219201146FF
:1071B000F9F74AFE1920F9F739FE00222520114679
:1071C000F9F742FE2520F9F731FE00223A20114658
:1071D000F9F73AFE3A20F9F729FE00224620114637
:1071E000F9F732FE4620F9F721FED820FFF74CFFD1
:1071F000FFF746FBC748016841F400010160002227
:107200000F215D20F9F720FE5D20F9F70FFEC2483F
:10721000FBF77EF8C1480068016841F01001016089
:10722000BF494022BD48FBF7EDFBBE48FEF76EFEAE
:10723000BC4840F2AB21FAF759FF3220FFF72EFF8E
:10724000FBF7BCFD10244EF618761DE0B6A0102307
:10725000C822CDE90040ED211E20FEF711FA4FF4BF
:10726000FA752846FFF71AFFB4A01023C822CDE90B
:107270000040ED211E20FEF703FA2846FFF70EFF1F
:10728000B4480221F9F71BFDFFF768FBB042DDD1DE
:10729000B14FB2A04FF0180B40F2DF181F265C462A
:1072A0001E215B463E604246CDE900B00A20FEF753
:1072B000E7F9ADA0424618233C21CDE900400A2061
:1072C000FEF7DEF9ACA0424618235A21CDE9004072
:1072D0000A20FEF7D5F9ABA0424618237821CDE964
:1072E00000400A20FEF7CCF9AAA0424620254FF420
:1072F000C8712B46CDE900500A20FEF7C1F9A7A0BE
:10730000FFF74EFCAAA0FFF74BFCB848FFF748FC7C
:10731000B74C4FF43E7A3E6002AE0020FBF7E4FB30
:107320000228607006D0042842D001287DD00328AE
:107330007CD0DAE0207810B3AE494FF4487384F87B
:1073400000904FF4F072009100210846FEF710F90A
:1073500090A04746202342464FF4C871CDE9005023
:107360000A20FEF78DF9A4A03A4620234FF4C871F5
:10737000CDE900505A20FEF783F9A3A06BE085A168
:1073800047460120207020234246CDE900510A20C3
:107390004FF4C871FEF774F99EA03A4620234FF4CB
:1073A000C871CDE900505A20FEF76AF99DA052E05D
:1073B00078A04746202342464FF4C871CDE90050DB
:1073C0000A20FEF75DF99AA03A4620234FF4C871CF
:1073D000CDE900505A20FEF753F998A03A462023F1
:1073E00040F2B311CDE900500A20FEF749F9C4F884
:1073F0000890B84693484BF680376168084460604F
:10740000D4E901107B4A014410443A46FFF7FEFAE2
:10741000A0688DA1C219A26002A8FFF7D1FB2023AA
:1074200042466A2040F2B31101E017E032E0CDE9B4
:107430000056FEF725F98348A16840428142DFD11A
:1074400082A0424620234FF4C871CDE900505A2053
:10745000FEF716F981A0FFF7A3FB46E079496068C3
:107460004942884202D34A421044606048464BF683
:107470008037C4F8089061685E4A014410443A4677
:10748000FFF756FA6F49A06849423844A060884225
:10749000F1D316E06B486268404207111044C4E91A
:1074A000010900BFD4E90110524A014410443A4690
:1074B000FFF73EFA6349A06849423844A060884219
:1074C000F0D34C4800214FF4487300904FF4F07211
:1074D0000846FEF74DF864A0424620235146CDE908
:1074E00000504FF4C870FEF7CBF86088B0F5FA7F13
:1074F000FFF413AF17480221A4F80290F9F7DFFB5D
:107500005A4800220CA9FAF741FCB1E050EF00E024
:1075100014ED00E0003C014040110020CC1100209F
:107520008C110020A0100020515350492043686561
:10753000636B204661696C6564210000506C656175
:10754000736520436865636B212020202020202064
:107550002000000000040240080000204B45593084
:107560003A204C61737400004B4559313A526563BF
:10757000204D6F64650000004B4559323A204E653E
:1075800078740000574B5F55503A53617665204D33
:107590006F6465004D4F44453A000000CAB1BCE439
:1075A000C8D5C6DAC9E8B6A8B7BDB7A80D0A0000A5
:1075B000484558B8F1CABDB7A2CBCD204141202BD8
:1075C000204242202B20C4EA202B20D4C2202B2092
:1075D000C8D5202B20D6DC202B20CAB1202B20B7E9
:1075E000D6202B20C3EB0D0A00000000BCBE000813
:1075F00014000020000000C04E6F726D616C204DC1
:107600006F64652020200000B3A3B9E6C4A3CABDFF
:107610000D0A0000526563204D6F64652020202014
:1076200020200000BDD3CAD5C4A3CABD0D0A0000E6
:1076300053415645202E2E2E20202000496E646591
:10764000783A00000048F4FF25640000577269741E
:10765000652046696E69736820202000B1A3B4E6F6
:10766000CAFDBEDD0D0A00004F4B000020110020B6
:107670009DF832002AA19DF831309DF8302000900D
:1076800002A8FFF79DFA18235F46D22200210A20A4
:10769000CDE900B6FDF7F4FF2648002212A9FAF75B
:1076A00051FB9DF84A0024A19DF849309DF84B20DC
:1076B000009002A8FFF784FA1823D2220021C820E4
:1076C000CDE90076FDF7DCFF9DF8482020A102A857
:1076D000FFF776FA1823D2220021CDE900764FF485
:1076E000C870FDF7CDFFAFF2AC00CDE9005020230C
:1076F00047460A2042465146FDF7C2FF16486168D8
:10770000B1FBF0F2AFF2C00102A8FFF759FA202353
:107710003A466A205146CDE90056FDF7B1FFFCE537
:1077200054696D653A253032643A253032643A2521
:107730003032640020110020446174653A323025F3
:107740003032642D253032642D2530326400000043
:107750005765656B3A25640000B80B000000000017
:107760000000000000000000000000003F4000009A
:107770000000000000003000400030004000000029
:1077800009000BC03D000BC03D00090018C024409B
:107790007FE0224031800000180024C01B000D80D3
:1077A0003240018003801C4027401C80074000407D
:1077B0001000600000000000000000000000000059
:1077C00000001F80204040200000402020401F80FB
:1077D00000000000090006001F80060009000000EC
:1077E000040004003F80040004000000001000605A
:1077F0000000000000000000040004000400040079
:107800000400000000000040000000000000000034
:10781000002001C006003800400000001F8020400A
:10782000204020401F800000000010403FC000406A
:107830000000000018C021402240244018400000F1
:1078400010802040244024401B80000002000D00D6
:1078500011003FC0014000003C80244024402440EF
:10786000238000001F802440244034400380000017
:107870003000200027C03800200000001B8024407A
:10788000244024401B8000001C0022C022402240D3
:107890001F80000000000000084000000000000001
:1078A0000000000004600000000000000000040070
:1078B0000A00110020804040090009000900090069
:1078C0000900000000004040208011000A00040070
:1078D0001800200023402400180000001F802040D2
:1078E000274029401F400000004007C039000F001A
:1078F00001C0004020403FC0244024401B800000C5
:107900001F802040204020403080000020403FC0A9
:10791000204020401F80000020403FC024402E40D7
:1079200030C0000020403FC024402E003000000046
:107930000F001080204022403380020020403FC0D2
:10794000040004003FC02040204020403FC02040B1
:10795000204000000060202020203FC020002000A8
:1079600020403FC024400B0030C0204020403FC09A
:1079700020400040004000C03FC03C0003C03C002D
:107980003FC0000020403FC00C4023003FC020000B
:107990001F802040204020401F80000020403FC02A
:1079A00024402400180000001F802140214020E0D6
:1079B0001FA0000020403FC02440260019C0004006
:1079C00018C0244024402240318000003000204074
:1079D0003FC020403000000020003F8000400040B9
:1079E0003F80200020003E0001C00700380020003A
:1079F000380007C03C0007C038000000204039C0F4
:107A0000060039C0204000002000384007C0384040
:107A100020000000304021C02640384020C0000037
:107A2000000000007FE040204020000000007000C7
:107A30000C000380004000000000402040207FE058
:107A400000000000000020004000200000000000B6
:107A500000100010001000100010001000000000C6
:107A600040000000000000000000028005400540CA
:107A700003C0004020003FC00440044003800000D9
:107A80000000038004400440064000000000038022
:107A9000044024403FC000400000038005400540F2
:107AA00003400000000004401FC024402440200088
:107AB000000002E0055005500650042020403FC061
:107AC0000440040003C000400000044027C0004000
:107AD0000000000000100010041027E0000000006B
:107AE00020403FC00140070004C004402040204027
:107AF0003FC000400040000007C0040007C0040071
:107B000003C00000044007C00440040003C000405C
:107B1000000003800440044003800000041007F0CC
:107B2000045004400380000000000380044004501F
:107B300007F00010044007C00240040004000000E9
:107B4000000006400540054004C00000000004009D
:107B50001F800440004000000400078000400440F3
:107B600007C000400400070004C0018006000400B4
:107B7000060001C0070001C006000000044006C066
:107B8000010006C0044000000410071004E001805A
:107B9000060004000000044005C006400440000048
:107BA0000000000004007BE0402000000000000016
:107BB0000000FFF000000000000040207BE0040017
:107BC0000000000040008000400020002000400035
:107BD00000000000000000000000000000000000A5
:107BE0000000000000001FCC000C0000000000009E
:107BF0000000080030006000080030006000000055
:107C0000022003FC1E20022003FC1E200220000094
:107C100000000E1811043FFF10840C7800000000D3
:107C20000F0010840F3800C0077818840078000017
:107C300000780F8410C411240E9800E4008400081A
:107C40000800680070000000000000000000000054
:107C500000000000000007E01818200440020000A7
:107C6000000040022004181807E000000000000097
:107C70000240024001800FF00180024002400000FB
:107C80000080008000800FF80080008000800000ED
:107C90000001000D000E00000000000000000000C8
:107CA0000000008000800080008000800080008054
:107CB0000000000C000C00000000000000000000AC
:107CC0000000000600180060018006001800200077
:107CD000000007F0080810041004080807F000006E
:107CE0000000080408041FFC000400040000000059
:107CF00000000E0C10141024104411840E0C00000F
:107D000000000C1810041104110412880C700000FB
:107D1000000000E00320042408241FFC00240000CD
:107D200000001F98108411041104108810700000C6
:107D3000000007F008881104110418880070000082
:107D400000001C00100010FC13001C0010000000BC
:107D500000000E3811441084108411440E380000C5
:107D600000000700088C10441044088807F0000049
:107D7000000000000000030C030C000000000000E5
:107D800000000000000101060000000000000000EB
:107D900000000080014002200410080810040000C8
:107DA00002200220022002200220022002200000E5
:107DB00000001004080804100220014000800000A8
:107DC00000000E001200100C106C10800F0000005C
:107DD00003E00C1813E4142417C4082807D000008B
:107DE0000004003C03C41C40074000E4001C0004E5
:107DF00010041FFC1104110411040E88007000000F
:107E000003E00C1810041004100410081C100000EB
:107E100010041FFC100410041004080807F00000F0
:107E200010041FFC1104110417C4100408180000EA
:107E300010041FFC1104110017C0100008000000FE
:107E400003E00C181004100410441C7800400000DB
:107E500010041FFC10840080008010841FFC10049C
:107E60000000100410041FFC1004100400000000A7
:107E700000030001100110011FFE1000100000009F
:107E800010041FFC110403801464181C100400006B
:107E900010041FFC1004000400040004000C000087
:107EA00010041FFC1F0000FC1F001FFC100400003A
:107EB00010041FFC0C04030000E010181FFC10004D
:107EC00007F00808100410041004080807F0000068
:107ED00010041FFC10841080108010800F00000020
:107EE00007F0081810241024101C080A07F20000DC
:107EF00010041FFC1104110011C011300E0C0004FD
:107F000000000E1C11041084108410441C38000062
:107F10001800100010041FFC1004100018000000CE
:107F200010001FF810040004000410041FF81000D3
:107F300010001E0011E0001C007013801C001000D7
:107F40001FC0103C00E01F0000E0103C1FC00000FC
:107F50001004180C163401C001C01634180C10049B
:107F600010001C00130400FC13041C00100000008F
:107F70000804101C1064108413041C041018000062
:107F80000000000000007FFE4002400240020000AE
:107F9000000030000C0003800060001C00030000A3
:107FA00000004002400240027FFE0000000000008E
:107FB00000000000200040004000400020000000C1
:107FC00000010001000100010001000100010001A9
:107FD0000000400040002000000000000000000001
:107FE00000000098012401440144014400FC000405
:107FF00010001FFC008801040104008800700000CC
:1080000000000070008801040104010400880000E1
:108010000000007000880104010411081FFC000426
:10802000000000F8014401440144014400C800007C
:108030000000010401040FFC1104110411001800D8
:10804000000000D601290129012901C9010600000B
:1080500010041FFC008401000100010400FC000466
:1080600000000104190419FC0004000400000000D1
:108070000000000300010101190119FE00000000C9
:1080800010041FFC0024004001B4010C0104000096
:108090000000100410041FFC000400040000000095
:1080A000010401FC0104010001FC0104010000FCC9
:1080B000010401FC008401000100010400FC000433
:1080C000000000F8010401040104010400F80000AC
:1080D000010101FF00850104010400880070000017
:1080E00000000070008801040104010501FF000187
:1080F0000104010401FC008401040100018000006E
:10810000000000CC01240124012401240198000076
:1081100000000100010007F8010401040000000054
:10812000010001F8000400040004010801FC00043F
:10813000010001800170000C00100160018001004D
:1081400001F0010C003001C00030010C01F0010011
:1081500000000104018C00740170018C0104000016
:10816000010101810171000E001801600180010010
:1081700000000184010C013401440184010C000061
:10818000000000000000000001003EFC4002400230
:108190000000000000000000FFFF000000000000E1
:1081A0000000400240023EFC010000000000000010
:1081B000000060008000800040004000200020009F
:1081C00000000000000000000000000000000000AF
:1081D000000000000000000000000000000000009F
:1081E000000000000000000000000000000000008F
:1081F0000000000F80380FFE380F803800000000AC
:10820000000000000000000000000000000001006D
:10821000000600000C0000380000310000060000DD
:108220000C000038000030000000000000000000DA
:1082300061800067F807F98000618000618000615B
:10824000800061800067F807F9800061800000000D
:1082500000000000000001C0E003E0F00630080468
:1082600018081FFFFE040E080787F00381E00000D6
:108270000000000001F000060C00040408060C7069
:1082800001F9C0000E00003BE000EC1807080804EC
:108290000C180003E00000000001E00007F003F804
:1082A00018041C0804170807E1D003C0E00023B03D
:1082B000003C080020080000100000000000000141
:1082C00000003100003200001C000000000000002F
:1082D000000000000000000000000000000000009E
:1082E000000000000000000000000000000000008E
:1082F0007F0001FFC00780F00C0018100004200070
:10830000020000000000002000021000040C001811
:108310000780F001FFC0007F0000000000000000A7
:1083200000000000000000000000000042000066A5
:1083300000006600003C0000180003FFC0001800A9
:10834000003C0000660000660000420000000000E3
:10835000080000080000080000080000080001FFF5
:10836000C000080000080000080000080000080025
:1083700000000000000100003100003200001C007D
:1083800000000000000000000000000000000000ED
:1083900000000000000000000800000800000800C5
:1083A00000080000080000080000080000080000A5
:1083B00008000008000000000000000000000000AD
:1083C0003800003800003800000000000000000005
:1083D000000000000000000000000000000000009D
:1083E000000600001C000070000180000E00003834
:1083F0000000C0000700001C00003000000000006A
:10840000000000007F8001FFE00380700600180478
:10841000000804000806001803807001FFE0007FD8
:1084200080000000000000000000010008010008BA
:1084300001000803FFF807FFF8000008000008002B
:10844000000800000000000000000001C03802C069
:1084500058040098040118040218040418061C1893
:1084600003F81801E0F8000000000000000000011F
:10847000C0E003C0F0040008040808040808061857
:108480000803F41801E7F00001E00000000000001C
:10849000000000000300000D00001100006100005A
:1084A000810803010807FFF80FFFF8000108000129
:1084B000080000000000000000E007FCD0060808EB
:1084C000061008061008061008061838060FF006F1
:1084D00007C0000000000000000000003F8001FF16
:1084E000E00384300208180410080410080410087F
:1084F000071810030FF00007C00000000000000084
:10850000000003C0000700000600000600F8060790
:10851000F806180006E00007000006000000000052
:1085200000000001E1E003F7F0063410041808042D
:108530001808040C08040C0806161803F3F001C10F
:10854000E000000000000000F80003FC30030638E3
:108550000402080402080402080404100308F001DD
:10856000FFC0007F000000000000000000000000CD
:108570000000000000000000703800703800703803
:1085800000000000000000000000000000000000EB
:10859000000000000000000000000000301A003061
:1085A0001C000000000000000000000000000000AF
:1085B000000000000000000800001400002200007D
:1085C00041000080800100400200200400100800EB
:1085D0000800000000000000210000210000210030
:1085E00000210000210000210000210000210000E6
:1085F0002100002100000000000000000000080031
:1086000008040010020020010040008080004100AA
:108610000022000014000008000000000000000319
:10862000C00004C000040000080038080F38080823
:10863000380810000C300007E00003C00000000004
:10864000000000003F8000FFE0038070020F100672
:10865000708804C088048308047F8802C0900301E6
:108660002000FE400000080000180001F8003E084D
:1086700001C20007020007E20000FE00001FC80060
:1086800001F800003800000804000807FFF807FFA1
:10869000F80408080408080408080408080618086C
:1086A00003F41801E7F00001E00000000000000002
:1086B0003F8001FFE00380700200180400080400FE
:1086C000080400080400100600200780C000000015
:1086D00004000807FFF807FFF80400080400080476
:1086E000000804001802001003807001FFE0007F02
:1086F0008000000004000807FFF807FFF8040808DE
:10870000040808040808040808043E0804000806D1
:10871000001801006000000004000807FFF807FFD0
:10872000F8040808040800040800040800043E00D7
:1087300006000006000001800000000000000000AC
:108740003F8001FFE0038070060018040008040267
:10875000080402080203F00783F000020000020090
:1087600004000807FFF807FFF804080800080000E5
:10877000080000080000080004080807FFF807FFC9
:10878000F8040008000000000000040008040008CD
:1087900004000807FFF807FFF804000804000804B5
:1087A00000080000000000000000000000060000BB
:1087B0000700000104000104000104000307FFFE9C
:1087C00007FFFC0400000400000400000400080788
:1087D000FFF807FFF8040C08001800003E0004C76B
:1087E000800503C80600F8040038040018000008DB
:1087F00004000807FFF807FFF8040008000008005D
:108800000008000008000008000008000018000030
:108810006000000004000807FFF807800807FC005C
:10882000007FC00003F80007C00078000780080739
:10883000FFF807FFF804000804000807FFF8070026
:108840000803C00000E000003800001E0000070020
:108850000001C00400F007FFF80400000000000061
:108860007F8001FFE0038070060018040008040008
:108870000806001803003001FFE0007F80000000C0
:1088800004000807FFF807FFF804040804040004C4
:108890000400040400040400060C0003F80001F0C6
:1088A00000000000000000007F8001FFE0038070F6
:1088B0000600880400880400C806003C03003E014E
:1088C000FFE6007F8400000004000807FFF807FFB0
:1088D000F8040808040800040C00040F00040BC08E
:1088E0000610F003F03801E0080000080000000165
:1088F000E0F803F030063010041808041808040CDF
:1089000008040C080206180207F00781E0000000C6
:1089100001800006000004000004000004000807B5
:10892000FFF807FFF8040008040000040000060038
:108930000001800004000007FFE007FFF0040018BA
:1089400000000800000800000800000800000804FB
:10895000001007FFE004000004000006000007E02C
:108960000007FE00041FE00001F80000380001E0ED
:10897000043E0007C00006000004000004000007D9
:10898000E00007FFC0041FF80007C007F80007FF5A
:1089900080043FF80007C004F8000700000400004E
:1089A00000000004000806001807C07805F1C800A0
:1089B0003E00001F800463E80780F80600180400EA
:1089C0000800000004000006000007800007E0081F
:1089D000047C08001FF80007F800180804E00807E6
:1089E000000006000004000000000001000806006E
:1089F000380400F80403E8040F08047C0805F008B4
:108A000007C0080700180400600000000000000014
:108A100000000000000000000000003FFFFE2000FA
:108A200002200002200002200002200002000000BC
:108A300000000000000008000007000000C0000067
:108A400038000006000001C000003000000E0000E9
:108A500001000000000000000000200002200002D1
:108A60002000022000022000023FFFFE0000000064
:108A700000000000000000000000000000000000F6
:108A8000000800001000003000002000003000004E
:108A900010000008000000000000000000000100BD
:108AA00000010000010000010000010000010000C1
:108AB00001000001000001000001000001000001B0
:108AC0000000000000000000002000002000001056
:108AD0000000100000000000000000000000000086
:108AE000000000000000000000F00019F8001B1852
:108AF000002208002608002408002410003FF80087
:108B00001FF800000800001800000004000007FF24
:108B1000F80FFFF0001818001008002008002008C7
:108B2000003018001FF0000FC0000000000000001F
:108B300007C0001FF00018300020080020080020A7
:108B400008003C08001C100000600000000000004D
:108B50000000000007C0001FF000381800200800C7
:108B6000200800200804101007FFF80FFFF0000095
:108B7000100000000000000000000007C0001FF00F
:108B800000123000221800220800220800320800DB
:108B90001E10000E20000000000000002000002039
:108BA0000800200801FFF803FFF806200804200849
:108BB000042008072000030000000000000000005F
:108BC000000E000E6E001FF30031B10020B1002036
:108BD000B1003191001F13002E1E00200E00300046
:108BE00000000004000807FFF80FFFF8001008005D
:108BF0002000002000002008003FF8001FF80000BF
:108C0000080000000000000000000020080020080C
:108C1000002008063FF8063FF800000800000800A2
:108C2000000800000000000000000000000000003C
:108C300003000003002001002001002003063FFE86
:108C4000063FFC00000000000000000000000004DF
:108C5000000807FFF80FFFF8000188000300002F4D
:108C6000C00038F80020380020080000080000008C
:108C700000000000000004000804000804000807C9
:108C8000FFF80FFFF80000080000080000080000CF
:108C900000000000002008003FF8003FF800100826
:108CA000002000003FF8003FF800100800200000FE
:108CB0003FF8003FF8000008000000002008003FD7
:108CC000F8003FF800100800100000200000200805
:108CD000003FF8001FF8000008000000000000003E
:108CE00007C0000FF00018300030080020080020F6
:108CF00008003008001830000FF00007C000000026
:108D0000000000002001003FFF003FFF00101100A5
:108D10002009002008002008003038001FF0000F54
:108D2000C00000000000000007C0001FF00038185D
:108D3000002008002008002009001011001FFF007B
:108D40003FFF000001000000002008002008002074
:108D500008003FF8003FF80008080010080020084D
:108D60000020000030000030000000000000000083
:108D70000000000C78001E180033080023080021B2
:108D8000080021880021980030F0003860000000C1
:108D900000000000200000200000200000FFF00381
:108DA000FFF8002008002008002008000030000024
:108DB00000000000000000002000003FF0007FF8ED
:108DC000000018000008000008002010003FF80014
:108DD0007FF00000100000000000000020000030C4
:108DE00000003C00003F800023F00000780000708D
:108DF000002380003C000030000020000020000024
:108E00003C00003FE00023F80000E0002700003EA7
:108E100000003FE00021F80001E0003E00002000DB
:108E2000000000002008002008003838003E6800DC
:108E300027800003C8002CF80038380020180020D4
:108E400008000000000000002000003003003C018A
:108E5000003F830023EC000070002380003C0000F2
:108E6000200000200000000000000000000000388A
:108E7000080020380020F80023E8002F88003E0872
:108E800000380800201800007000000000000000FA
:108E900000000000000000000000000008000014B6
:108EA000001FF7FC30000620000200000000000058
:108EB00000000000000000000000000000000000B2
:108EC0000000FFFFFF0000000000000000000000A5
:108ED000000000000000000000002000023000063A
:108EE0001FF7FC0014000008000000000000000054
:108EF00000000000000000000000001800006000FA
:108F000000400000400000200000100000080000A9
:108F10000400000400000C0000100000000000002D
:108F20000000000000000000000000000000000041
:108F30000000000000000000000000000000000031
:108F40000000000000000000000000000000000021
:108F50000000000000000000000000000000000011
:108F60000000000000000000000000000000000001
:108F700000000000000000000000000000000000F1
:108F800000000000000000000000000000000000E1
:108F900000000000000000000000000000000000D1
:108FA00000000000000000000000000000000000C1
:108FB0000000000007F000C007FFE1E007F001E05B
:108FC000000000C0000000000000000000000000E1
:108FD0000000000000000000000000000000000091
:108FE0000000000000000000000000000000000081
:108FF0000000000000000000000000000000000071
:109000000000000000000000000000000000000060
:109010000000000000000000000000000000000050
:10902000000000000020000001C0000007800000D8
:109030001F0000001E0000001C20000001C00000F6
:10904000078000001F0000001E0000001C00000040
:109050000000000000000000000000000000000010
:109060000000000000000000000000000000000000
:1090700000000000000000000000000000000000F0
:1090800000000000000000000000000000000000E0
:1090900000000000000000000000000000000000D0
:1090A00000180C0000180C0000180FE0001FFC0056
:1090B00003F80C0000180C0000180C0000180C003D
:1090C00000180C0000180FE0001FFC0003F80C0053
:1090D00000180C0000180C00000000000000000048
:1090E0000000000000000000000000000000000080
:1090F0000000000000000000000000000000000070
:10910000000000000000000000000000000000005F
:10911000000000000000000000000000000000004F
:109120000000000000000780007807C000FC064037
:10913000010E002003070020020380200FFFFFFC28
:109140000201C0200200E0600130704001F03F8069
:1091500000F01F0000000000000000000000000000
:1091600000000000000000000000000000000000FF
:1091700000000000000000000000000000000000EF
:1091800000000000000000000000000000000000DF
:1091900000000000000000000000000000FE0000D1
:1091A00001FF00000301800002008060030181C014
:1091B00001FF070000FE18000000E0000003BF00F0
:1091C000000CFFC00071806001C1002003018060BD
:1091D0000000FFC000003F00000000000000000091
:1091E000000000000000000000000000000000007F
:1091F000000000000000000000000000000000006F
:10920000000000000000000000000000000000005E
:1092100000000000000000000000000000001F002F
:1092200000007FC000FCC0C001FF80600303E0209D
:109230000202782002061E2003FC074001F0038092
:10924000000103C000011C600001E02000010020BB
:10925000000100400000018000000000000000004C
:1092600000000000000000000000000000000000FE
:1092700000000000000000000000000000000000EE
:1092800000000000000000000000000000000000DE
:1092900000000000000000000000000000000000CE
:1092A000002000001C6000001C4000001F80000027
:1092B0000F0000000000000000000000000000009F
:1092C000000000000000000000000000000000009E
:1092D000000000000000000000000000000000008E
:1092E000000000000000000000000000000000007E
:1092F000000000000000000000000000000000006E
:10930000000000000000000000000000000000005D
:10931000000000000000000000000000000000004D
:10932000000000000000000000000000000000003D
:1093300000000000000000000007F800003FFF00F0
:10934000007807C001C000E00300003004000008FE
:1093500008000004100000020000000000000000EF
:1093600000000000000000000000000000000000FD
:1093700000000000000000000000000000000000ED
:1093800000000000000000000000000000000000DD
:1093900000000000000000000000000000000000CD
:1093A0001000000208000004040000080300003060
:1093B00001C000E0007807C0003FFF000007F80090
:1093C000000000000000000000000000000000009D
:1093D000000000000000000000000000000000008D
:1093E000000000000000000000000000000000007D
:1093F000000000000000000000000000000000006D
:10940000000000000000000000000000000000005C
:10941000000000000000000000000000000000004C
:1094200000000000000C1800000E3800000E38008C
:1094300000063000000360000061438000FFFF80F1
:10944000006143000003600000063000000E380099
:10945000000E3800000C18000000000000000000A2
:1094600000000000000000000000000000000000FC
:1094700000000000000000000000000000000000EC
:1094800000000000000000000000000000000000DC
:1094900000000000000000000000000000000000CC
:1094A000000000000000800000008000000080003C
:1094B000000080000000800000008000007FFF00AE
:1094C000000080000000800000008000000080009C
:1094D000000080000000800000000000000000008C
:1094E000000000000000000000000000000000007C
:1094F000000000000000000000000000000000006C
:10950000000000000000000000000000000000005B
:10951000000000000000000000000000000000004B
:1095200000000001000000E3000000E2000000FC79
:1095300000000078000000000000000000000000B3
:10954000000000000000000000000000000000001B
:10955000000000000000000000000000000000000B
:1095600000000000000000000000000000000000FB
:1095700000000000000000000000000000000000EB
:1095800000000000000000000000000000000000DB
:1095900000000000000000000000000000000000CB
:1095A00000008000000080000000800000008000BB
:1095B00000008000000080000000800000008000AB
:1095C000000080000000800000008000000080009B
:1095D000000080000000800000000000000000008B
:1095E000000000000000000000000000000000007B
:1095F000000000000000000000000000000000006B
:10960000000000000000000000000000000000005A
:10961000000000000000000000000000000000004A
:1096200000000000000000C0000001E0000001E0B8
:10963000000000C00000000000000000000000006A
:10964000000000000000000000000000000000001A
:10965000000000000000000000000000000000000A
:1096600000000000000000000000000000000000FA
:1096700000000000000000000000000000000000EA
:1096800000000000000000000000000000000000DA
:1096900000000000000000000000000000000000CA
:1096A0000000000C00000038000000E00000038013
:1096B00000000E00000038000000E0000003800001
:1096C000000E00000038000000E0000003800000F1
:1096D0000E00000018000000000000000000000064
:1096E000000000000000000000000000000000007A
:1096F000000000000000000000000000000000006A
:109700000000000000000000000000000000000059
:109710000000000000000000000000000000000049
:1097200000000000000FF800007FFF0000F007803D
:10973000018000C003000060020000200200002041
:109740000200002003000060018000C000E00380F0
:10975000007FFF00000FF800000000000000000084
:1097600000000000000000000000000000000000F9
:1097700000000000000000000000000000000000E9
:1097800000000000000000000000000000000000D9
:1097900000000000000000000000000000000000C9
:1097A0000000000000000000008000200080002079
:1097B000008000200080006001FFFFE003FFFFE069
:1097C00000000060000000200000002000000020D9
:1097D0000000000000000000000000000000000089
:1097E0000000000000000000000000000000000079
:1097F0000000000000000000000000000000000069
:109800000000000000000000000000000000000058
:109810000000000000000000000000000000000048
:1098200000000000007800E0009801600100026084
:109830000200046002000860020010600200206064
:1098400002004060030080600183006001FE00E0D0
:10985000007C078000000000000000000000000005
:1098600000000000000000000000000000000000F8
:1098700000000000000000000000000000000000E8
:1098800000000000000000000000000000000000D8
:1098900000000000000000000000000000000000C8
:1098A0000000000000F0078001F007C00100004048
:1098B000020000200201002002010020020100201D
:1098C000030380200186804001FCC0C000787F80B7
:1098D00000001E000000000000000000000000006A
:1098E0000000000000000000000000000000000078
:1098F0000000000000000000000000000000000068
:109900000000000000000000000000000000000057
:109910000000000000000000000000000000000047
:109920000000080000003800000048000001880026
:1099300000060800000C0810003008100040081055
:1099400001FFFFF003FFFFF003FFFFF0000008102E
:1099500000000810000008100000000000000000D7
:1099600000000000000000000000000000000000F7
:1099700000000000000000000000000000000000E7
:1099800000000000000000000000000000000000D7
:1099900000000000000000000000000000000000C7
:1099A0000000000000000780001F864003E1002047
:1099B000030200200304002003040020030400200D
:1099C0000304002003060040030301C00301FF80DD
:1099D00003007E0000000000000000000000000006
:1099E0000000000000000000000000000000000077
:1099F0000000000000000000000000000000000067
:109A00000000000000000000000000000000000056
:109A10000000000000000000000000000000000046
:109A2000000000000007FC00003FFF000070C38042
:109A3000008180C0010100600302002002020020BA
:109A400002020020020200200203004001C180C087
:109A500000C0FF8000007E00000000000000000049
:109A600000000000000000000000000000000000F6
:109A700000000000000000000000000000000000E6
:109A800000000000000000000000000000000000D6
:109A900000000000000000000000000000000000C6
:109AA0000000000000F0000003C000000380000080
:109AB00003000000030007E003003FE00301C000D3
:109AC000030600000318000003600000038000008C
:109AD0000300000000000000000000000000000083
:109AE0000000000000000000000000000000000076
:109AF0000000000000000000000000000000000066
:109B00000000000000000000000000000000000055
:109B10000000000000000000000000000000000045
:109B200000001F0000783F8000FC60C0018EC04034
:109B30000307802002030020020180200201802010
:109B40000201C0200301E040018670C000FC3F809C
:109B500000781F000000000000000000000000006E
:109B600000000000000000000000000000000000F5
:109B700000000000000000000000000000000000E5
:109B800000000000000000000000000000000000D5
:109B900000000000000000000000000000000000C5
:109BA000003F000000FF81C001C0C1C00100602073
:109BB000020020200200202002002020020020605D
:109BC000020040C00100C18000C18F00007FFE0084
:109BD000001FF00000000000000000000000000076
:109BE0000000000000000000000000000000000075
:109BF0000000000000000000000000000000000065
:109C00000000000000000000000000000000000054
:109C10000000000000000000000000000000000044
:109C20000000000000000000000000000000000034
:109C300000000000000300C0000781E0000781E091
:109C4000000300C000000000000000000000000051
:109C50000000000000000000000000000000000004
:109C600000000000000000000000000000000000F4
:109C700000000000000000000000000000000000E4
:109C800000000000000000000000000000000000D4
:109C900000000000000000000000000000000000C4
:109CA00000000000000000000000000000000000B4
:109CB00000000000000600660006007800000000BA
:109CC0000000000000000000000000000000000094
:109CD0000000000000000000000000000000000084
:109CE0000000000000000000000000000000000074
:109CF0000000000000000000000000000000000064
:109D00000000000000000000000000000000000053
:109D10000000000000000000000000000000000043
:109D200000000000000080000001C000000360008F
:109D300000063000000C180000180C00003006006F
:109D40000060030000C0018001000040020000200C
:109D500004000010000000000000000000000000EF
:109D600000000000000000000000000000000000F3
:109D700000000000000000000000000000000000E3
:109D800000000000000000000000000000000000D3
:109D900000000000000000000000000000000000C3
:109DA0000004100000041000000410000004100063
:109DB0000004100000041000000410000004100053
:109DC0000004100000041000000410000004100043
:109DD000000410000004100000000000000000005B
:109DE0000000000000000000000000000000000073
:109DF0000000000000000000000000000000000063
:109E00000000000000000000000000000000000052
:109E10000000000000000000000000000000000042
:109E200000000000040000100200002001000040BB
:109E300000C00180006003000030060000180C0024
:109E4000000C180000063000000360000001C00094
:109E50000000800000000000000000000000000082
:109E600000000000000000000000000000000000F2
:109E700000000000000000000000000000000000E2
:109E800000000000000000000000000000000000D2
:109E900000000000000000000000000000000000C2
:109EA000000000000078000001F800000238000007
:109EB00002000000040000C0040079E0040081E01A
:109EC000040100C0040300000202000003060000B9
:109ED00001FC000000F8000000000000000000008D
:109EE0000000000000000000000000000000000072
:109EF0000000000000000000000000000000000062
:109F00000000000000000000000000000000000051
:109F10000000000000000000000000000000000041
:109F2000000FF800003FFE000070078000C000C076
:109F30000101F8400307FC20021E04200230082023
:109F400002203020023FFC20013F044001800CC071
:109F500000E03180001FC20000000000000000008F
:109F600000000000000000000000000000000000F1
:109F700000000000000000000000000000000000E1
:109F800000000000000000000000000000000000D1
:109F900000000000000000000000000000000020A1
:109FA00000000060000003E000003E200003E0200D
:109FB000003E200003E020000380200007FC20007A
:109FC000003FE0000003FE2000003FE0000001E051
:109FD0000000002000000020000000000000000041
:109FE0000000000000000000000000000000000071
:109FF0000000000000000000000000000000000061
:10A000000000000000000000000000000000000050
:10A010000000000000000000000000000000000040
:10A02000020000200200002003FFFFE003FFFFE02A
:10A030000201002002010020020100200201002094
:10A0400002010020030300200186806001FCC0C0E3
:10A0500000F87F8000001F000000000000000000EA
:10A0600000000000000000000000000000000000F0
:10A0700000000000000000000000000000000000E0
:10A0800000000000000000000000000000000000D0
:10A0900000000000000000000000000000000000C0
:10A0A0000007F800003FFF000070078000C000C0FC
:10A0B00001000040030000200200002002000020F8
:10A0C000020000200200002001000040018000C0CA
:10A0D00003C0018000300600000000000000000006
:10A0E0000000000000000000000000000000000070
:10A0F0000000000000000000000000000000000060
:10A10000000000000000000000000000000000004F
:10A11000000000000000000000000000000000003F
:10A12000020000200200002003FFFFE003FFFFE029
:10A130000200002002000020020000200200002097
:10A140000300006001000040018000C000F00780B3
:10A15000007FFE00000FF80000000000000000007B
:10A1600000000000000000000000000000000000EF
:10A1700000000000000000000000000000000000DF
:10A1800000000000000000000000000000000000CF
:10A1900000000000000000000000000000000000BF
:10A1A000020000200200002003FFFFE003FFFFE0A9
:10A1B0000201002002010020020100200201002013
:10A1C0000201002002038020020FE0200300006053
:10A1D00003C000E000600300000000000000000079
:10A1E000000000000000000000000000000000006F
:10A1F000000000000000000000000000000000005F
:10A20000000000000000000000000000000000004E
:10A21000000000000000000000000000000000003E
:10A22000020000200200002003FFFFE003FFFFE028
:10A2300002010020020100200201000002010000D2
:10A24000020100000201000002038000030FE00091
:10A250000300000003C000000060000000000000D8
:10A2600000000000000000000000000000000000EE
:10A2700000000000000000000000000000000000DE
:10A2800000000000000000000000000000000000CE
:10A2900000000000000000000000000000000000BE
:10A2A0000007F800003FFE000070078001C001C0F9
:10A2B00001000040030000200200002002000020F6
:10A2C00002000020010020200100204003C03F8048
:10A2D00000303F800000200000002000000000004F
:10A2E000000000000000000000000000000000006E
:10A2F000000000000000000000000000000000005E
:10A30000000000000000000000000000000000004D
:10A31000000000000000000000000000020000201B
:10A320000200002003FFFFE003FFFFE002008020A7
:10A3300002008020000080000000800000008000FB
:10A34000020080200200802003FFFFE003FFFFE007
:10A3500002000020020000200000000000000000B9
:10A3600000000000000000000000000000000000ED
:10A3700000000000000000000000000000000000DD
:10A3800000000000000000000000000000000000CD
:10A3900000000000000000000000000000000000BD
:10A3A0000000000000000000020000200200002069
:10A3B000020000200200002003FFFFE003FFFFE097
:10A3C0000200002002000020020000200200002005
:10A3D000000000000000000000000000000000007D
:10A3E000000000000000000000000000000000006D
:10A3F000000000000000000000000000000000005D
:10A40000000000000000000000000000000000004C
:10A41000000000000000000000000000000000003C
:10A420000000000E0000000F0000000F00000001FF
:10A430000200000102000001020000030200000609
:10A4400003FFFFFC03FFFFF8020000000200000012
:10A4500002000000020000000000000000000000F8
:10A4600000000000000000000000000000000000EC
:10A4700000000000000000000000000000000000DC
:10A4800000000000000000000000000000000000CC
:10A4900000000000000000000000000000000000BC
:10A4A000020000200200002003FFFFE003FFFFE0A6
:10A4B0000200C0200201002000078000000FE00021
:10A4C0000030F80002603E2003800F20030003E00C
:10A4D000020000E002000020000000200000000058
:10A4E000000000000000000000000000000000006C
:10A4F000000000000000000000000000000000005C
:10A50000000000000000000000000000000000004B
:10A51000000000000000000000000000000000003B
:10A52000020000200200002003FFFFE003FFFFE025
:10A530000200002002000020000000200000002097
:10A54000000000200000002000000020000000604B
:10A55000000000E000000300000000000000000018
:10A5600000000000000000000000000000000000EB
:10A5700000000000000000000000000000000000DB
:10A5800000000000000000000000000000000000CB
:10A590000000000000000000000000000200002099
:10A5A0000200002003FFFFE003E0002003FF002083
:10A5B000001FF0000001FF8000000FE000001E00FF
:10A5C0000003E000003E002003E0002003FFFFE066
:10A5D00003FFFFE002000020020000200000000056
:10A5E000000000000000000000000000000000006B
:10A5F000000000000000000000000000000000005B
:10A60000000000000000000000000000000000004A
:10A610000000000000000000000000000200002018
:10A620000200002003FFFFE00380002003F0002071
:10A6300000FC0000001F00000007C0000001F00047
:10A6400000007C0002001F80020007E003FFFFE023
:10A6500002000000020000000000000000000000F6
:10A6600000000000000000000000000000000000EA
:10A6700000000000000000000000000000000000DA
:10A6800000000000000000000000000000000000CA
:10A6900000000000000000000000000000000000BA
:10A6A000000FF800003FFE0000F00780018000C0AE
:10A6B00001000040020000200200002002000020F3
:10A6C0000200002001000040018000C000F0038073
:10A6D000003FFE00000FF800000000000000000036
:10A6E000000000000000000000000000000000006A
:10A6F000000000000000000000000000000000005A
:10A700000000000000000000000000000000000049
:10A710000000000000000000000000000000000039
:10A72000020000200200002003FFFFE003FFFFE023
:10A7300002008020020080200200800002008000D1
:10A7400002008000020080000301800001830000FD
:10A7500000FE0000007C000000000000000000007F
:10A7600000000000000000000000000000000000E9
:10A7700000000000000000000000000000000000D9
:10A7800000000000000000000000000000000000C9
:10A7900000000000000000000000000000000000B9
:10A7A000000FF800007FFF0000F00380018001C06F
:10A7B00001000640020004200200042002000620DE
:10A7C000020003E0010000F80180005C00E0038C5F
:10A7D000003FFF0C000FFC1800000000000000000C
:10A7E0000000000000000000000000000000000069
:10A7F0000000000000000000000000000000000059
:10A800000000000000000000000000000000000048
:10A810000000000000000000000000000000000038
:10A82000020000200200002003FFFFE003FFFFE022
:10A830000201002002010020020180000201E0006C
:10A840000201FC0003033F80018607E001FC00E0F9
:10A8500000F80020000000200000000000000000C0
:10A8600000000000000000000000000000000000E8
:10A8700000000000000000000000000000000000D8
:10A8800000000000000000000000000000000000C8
:10A8900000000000000000000000000000000000B8
:10A8A000000000000078060000FE01E0018600C004
:10A8B00003030040020300200201802002018020E7
:10A8C0000201C0200200C0200100E060018070C0D1
:10A8D00003E03F8000001F000000000000000000B7
:10A8E0000000000000000000000000000000000068
:10A8F0000000000000000000000000000000000058
:10A900000000000000000000000000000000000047
:10A910000000000000000000000000000000000037
:10A92000006000000380000003000000020000003F
:10A93000020000200200002003FFFFE003FFFFE011
:10A9400002000020020000200200000002000000BF
:10A950000380000000E00000000000000000000094
:10A9600000000000000000000000000000000000E7
:10A9700000000000000000000000000000000000D7
:10A9800000000000000000000000000000000000C7
:10A9900000000000000000000000000002000000B5
:10A9A0000200000003FFFF0003FFFFC002000040A1
:10A9B00002000060000000200000002000000020D5
:10A9C00000000020020000400200008003FFFF00A2
:10A9D0000200000002000000000000000000000073
:10A9E0000000000000000000000000000000000067
:10A9F0000000000000000000000000000000000057
:10AA00000000000000000000000000000000000046
:10AA10000000000000000000000000000000000036
:10AA2000020000000200000003C0000003FC000060
:10AA3000023FC0000003F80000007F80000007E034
:10AA400000000780000078000203C000023C000004
:10AA500003C000000200000002000000000000002F
:10AA600000000000000000000000000000000000E6
:10AA700000000000000000000000000000000000D6
:10AA800000000000000000000000000000000000C6
:10AA900000000000000000000000000002000000B4
:10AAA00003C0000003FF8000023FFE0002007FE0C1
:10AAB00000000F000200F00003EF000003FF800021
:10AAC000020FFE0000003FE000001F000207E00050
:10AAD00003F8000003000000020000000000000076
:10AAE0000000000000000000000000000000000066
:10AAF0000000000000000000000000000000000056
:10AB00000000000000000000000000000000000045
:10AB10000000000000000000000000000000000035
:10AB20000200002002000020038000E003F0032068
:10AB300002FC0C20021F30000007C0000007F000DC
:10AB400002187C0002601F20038003E0020000E086
:10AB500002000020000000200000000000000000B3
:10AB600000000000000000000000000000000000E5
:10AB700000000000000000000000000000000000D5
:10AB800000000000000000000000000000000000C5
:10AB900000000000000000000000000000000000B5
:10ABA000020000000300000003C0000003F80000E2
:10ABB000023E0020020FC0200001FFE000007FE005
:10ABC00000038020021C00200270000003800000AF
:10ABD0000200000002000000000000000000000071
:10ABE0000000000000000000000000000000000065
:10ABF0000000000000000000000000000000000055
:10AC00000000000000000000000000000000000044
:10AC10000000000000000000000000000000000034
:10AC200000000020006000E0038003E003000FA0AC
:10AC300002003E200200F8200203E020020F8020E4
:10AC4000023E00200278002003E00060038000E064
:10AC500002000300000000000000000000000000EF
:10AC600000000000000000000000000000000000E4
:10AC700000000000000000000000000000000000D4
:10AC800000000000000000000000000000000000C4
:10AC900000000000000000000000000000000000B4
:10ACA00000000000000000000000000000000000A4
:10ACB000000000001FFFFFFC100000041000000453
:10ACC0001000000410000004100000041000000434
:10ACD0001000000400000000000000000000000060
:10ACE0000000000000000000000000000000000064
:10ACF0000000000000000000000000000000000054
:10AD00000000000000000000000000000000000043
:10AD10000000000000000000000000000000000033
:10AD200000000000000000000700000003C0000059
:10AD300000780000001E00000003C0000000F000CA
:10AD400000001E0000000780000000F00000003C32
:10AD500000000006000000000000000000000000ED
:10AD600000000000000000000000000000000000E3
:10AD700000000000000000000000000000000000D3
:10AD800000000000000000000000000000000000C3
:10AD900000000000000000000000000000000000B3
:10ADA0000000000010000004100000041000000467
:10ADB0001000000410000004100000041000000443
:10ADC0001FFFFFFC0000000000000000000000006A
:10ADD0000000000000000000000000000000000073
:10ADE0000000000000000000000000000000000063
:10ADF0000000000000000000000000000000000053
:10AE00000000000000000000000000000000000042
:10AE10000000000000000000000000000000000032
:10AE20000000000000000000000000000200000020
:10AE300004000000080000001800000010000000DE
:10AE400018000000180000000400000002000000CC
:10AE500000000000000000000000000000000000F2
:10AE600000000000000000000000000000000000E2
:10AE700000000000000000000000000000000000D2
:10AE800000000000000000000000000000000000C2
:10AE900000000000000000000000000000000001B1
:10AEA000000000010000000100000001000000019E
:10AEB000000000010000000100000001000000018E
:10AEC000000000010000000100000001000000017E
:10AED000000000010000000100000001000000006F
:10AEE0000000000000000000000000000000000062
:10AEF0000000000000000000000000000000000052
:10AF00000000000000000000000000000000000041
:10AF10000000000000000000000000000000000031
:10AF20000000000000000000100000001000000001
:10AF300010000000180000000800000004000000DD
:10AF40000000000000000000000000000000000001
:10AF500000000000000000000000000000000000F1
:10AF600000000000000000000000000000000000E1
:10AF700000000000000000000000000000000000D1
:10AF800000000000000000000000000000000000C1
:10AF900000000000000000000000000000000000B1
:10AFA0000000038000018FC000038C6000061820A1
:10AFB0000004102000041020000420200004204081
:10AFC000000620400003FFC00001FFE00000002059
:10AFD00000000020000000C0000000000000000091
:10AFE0000000000000000000000000000000000061
:10AFF0000000000000000000000000000000000051
:10B000000000000000000000000000000000000040
:10B010000000000000000000000000000000000030
:10B02000020000000200000003FFFFE007FFFFC076
:10B03000000180C000020060000200200004002027
:10B04000000400200004002000060040000300C0AF
:10B050000001FF800000FE00000000000000000072
:10B0600000000000000000000000000000000000E0
:10B0700000000000000000000000000000000000D0
:10B0800000000000000000000000000000000000C0
:10B0900000000000000000000000000000000000B0
:10B0A0000000000000007E000001FF80000381C05E
:10B0B00000020040000600200004002000040020E0
:10B0C00000040020000600200003C0400001C080F2
:10B0D000000003000000000000000000000000006D
:10B0E0000000000000000000000000000000000060
:10B0F0000000000000000000000000000000000050
:10B10000000000000000000000000000000000003F
:10B11000000000000000000000000000000000002F
:10B120000000000000007E000001FF80000380C0DE
:10B13000000600600004002000040020000400203D
:10B14000020400400202008003FFFFE007FFFFC08F
:10B15000000000400000004000000000000000006F
:10B1600000000000000000000000000000000000DF
:10B1700000000000000000000000000000000000CF
:10B1800000000000000000000000000000000000BF
:10B1900000000000000000000000000000000000AF
:10B1A0000000000000007E000001FF80000311C0CD
:10B1B0000002104000041060000410200004102061
:10B1C0000004102000061020000310400001F0C011
:10B1D00000007100000000000000000000000000FE
:10B1E000000000000000000000000000000000005F
:10B1F000000000000000000000000000000000004F
:10B20000000000000000000000000000000000003E
:10B21000000000000000000000000000000000002E
:10B2200000000000000400000004002000040020D2
:10B2300000040020007FFFE001FFFFE00104002088
:10B240000304002002040020020400200204000085
:10B250000200000001C0000001C00000000000006A
:10B2600000000000000000000000000000000000DE
:10B2700000000000000000000000000000000000CE
:10B2800000000000000000000000000000000000BE
:10B2900000000000000000000000000000000000AE
:10B2A000000000000000001C0000E33E0003FFC29D
:10B2B00000020CC3000404C1000404C1000404C162
:10B2C000000404C100060CC10003F8C30005F062CD
:10B2D0000006007E0006003C0000000000000000A8
:10B2E000000000000000000000000000000000005E
:10B2F000000000000000000000000000000000004E
:10B30000000000000000000000000000000000003D
:10B31000000000000000000000000000000000002D
:10B32000020000200200002003FFFFE007FFFFE013
:10B3300000010020000200200006000000040000C0
:10B340000004000000040020000600200003FFE0CD
:10B350000001FFE0000000200000002000000000CD
:10B3600000000000000000000000000000000000DD
:10B3700000000000000000000000000000000000CD
:10B3800000000000000000000000000000000000BD
:10B3900000000000000000000000000000000000AD
:10B3A0000000000000000000000400200004002055
:10B3B00000040020000400200387FFE0038FFFE06B
:10B3C000038000200000002000000020000000207A
:10B3D000000000000000000000000000000000006D
:10B3E000000000000000000000000000000000005D
:10B3F000000000000000000000000000000000004D
:10B40000000000000000000000000000000000003C
:10B41000000000000000000000000000000000002C
:10B42000000000000000000000000006000000070F
:10B430000000000100000001000400010004000100
:10B4400000040003000400060387FFFC038FFFF8DD
:10B450000380000000000000000000000000000069
:10B4600000000000000000000000000000000000DC
:10B4700000000000000000000000000000000000CC
:10B4800000000000000000000000000000000000BC
:10B4900000000000000000000000000000000000AC
:10B4A000020000200200002003FFFFE007FFFFE092
:10B4B0000000082000001020000030000000FC0008
:10B4C00000058E00000707A0000601E0000400E070
:10B4D0000004002000000020000000000000000028
:10B4E000000000000000000000000000000000005C
:10B4F000000000000000000000000000000000004C
:10B50000000000000000000000000000000000003B
:10B51000000000000000000000000000000000002B
:10B5200000000000000000000200002002000020D7
:10B53000020000200200002003FFFFE007FFFFE001
:10B54000000000200000002000000020000000207B
:10B5500000000000000000000000000000000000EB
:10B5600000000000000000000000000000000000DB
:10B5700000000000000000000000000000000000CB
:10B5800000000000000000000000000000000000BB
:10B5900000000000000000000000000000000000AB
:10B5A000000400200007FFE0000FFFE00002002081
:10B5B00000040000000400200007FFE00003FFE09B
:10B5C0000002002000040000000400200007FFE04B
:10B5D0000003FFE000000020000000000000000069
:10B5E000000000000000000000000000000000005B
:10B5F000000000000000000000000000000000004B
:10B60000000000000000000000000000000000003A
:10B61000000000000000000000000000000000002A
:10B6200000040020000400200007FFE0000FFFE0FE
:10B6300000010020000200200002000000040000C1
:10B640000004000000040020000600200003FFE0CA
:10B650000001FFE0000000200000002000000000CA
:10B6600000000000000000000000000000000000DA
:10B6700000000000000000000000000000000000CA
:10B6800000000000000000000000000000000000BA
:10B6900000000000000000000000000000000000AA
:10B6A0000000000000007E000000FF80000381C059
:10B6B00000020040000600200004002000040020DA
:10B6C000000400200006002000020040000381C0AA
:10B6D0000001FF8000007E0000000000000000006C
:10B6E000000000000000000000000000000000005A
:10B6F000000000000000000000000000000000004A
:10B700000000000000000000000000000000000039
:10B710000000000000000000000000000000000029
:10B7200000040001000400010007FFFF000FFFFFFD
:10B73000000100C1000200410004002000040020BC
:10B74000000400200004002000060040000301C0A7
:10B750000001FF8000007E000000000000000000EB
:10B7600000000000000000000000000000000000D9
:10B7700000000000000000000000000000000000C9
:10B7800000000000000000000000000000000000B9
:10B7900000000000000000000000000000000000A9
:10B7A0000000000000007E000001FF80000380C058
:10B7B00000020060000400200004002000040020BB
:10B7C0000004002000020041000300C10003FFFF4D
:10B7D0000007FFFF00000001000000010000000062
:10B7E0000000000000000000000000000000000059
:10B7F0000000000000000000000000000000000049
:10B800000000000000000000000000000000000038
:10B810000000000000000000000000000000000028
:10B820000004002000040020000400200004002088
:10B83000000FFFE0000FFFE00000C020000100202B
:10B8400000020020000600200004000000040000A8
:10B8500000070000000300000000000000000000DE
:10B8600000000000000000000000000000000000D8
:10B8700000000000000000000000000000000000C8
:10B8800000000000000000000000000000000000B8
:10B8900000000000000000000000000000000000A8
:10B8A00000000000000003E00001C0E00003E040F1
:10B8B0000006302000043020000418200004182066
:10B8C0000004182000040C2000020C60000307C0D4
:10B8D000000783800000000000000000000000005E
:10B8E0000000000000000000000000000000000058
:10B8F0000000000000000000000000000000000048
:10B900000000000000000000000000000000000037
:10B910000000000000000000000000000000000027
:10B92000000000000004000000040000000400000B
:10B93000000C0000001FFF8000FFFFC0000400603B
:10B940000004002000040020000400200004004047
:10B950000000018000000000000000000000000066
:10B9600000000000000000000000000000000000D7
:10B9700000000000000000000000000000000000C7
:10B9800000000000000000000000000000000000B7
:10B9900000000000000000000000000000000000A7
:10B9A00000040000000400000007FF80000FFFC03B
:10B9B00000000060000000200000002000000020C7
:10B9C0000000002000040040000400800007FFE0A9
:10B9D000000FFFC000000040000000400000000019
:10B9E0000000000000000000000000000000000057
:10B9F0000000000000000000000000000000000047
:10BA00000000000000000000000000000000000036
:10BA10000000000000000000000000000000000026
:10BA20000004000000040000000780000007F00090
:10BA30000004FE0000041FC0000003E000000380BB
:10BA400000001C00000460000007800000060000E9
:10BA500000040000000000000000000000000000E2
:10BA600000000000000000000000000000000000D6
:10BA700000000000000000000000000000000000C6
:10BA800000000000000000000000000000000000B6
:10BA900000000000000000000000000000040000A2
:10BAA000000600000007C0000007FC0000043F8003
:10BAB000000003E000040F800006F0000007F00023
:10BAC0000007FF8000040FE00000038000043C003A
:10BAD0000007C00000060000000400000000000095
:10BAE0000000000000000000000000000000000056
:10BAF0000000000000000000000000000000000046
:10BB00000000000000000000000000000000000035
:10BB10000000000000000000000000000000000025
:10BB2000000000200004002000040060000700E086
:10BB3000000783200007E6000004F80000003C0036
:10BB400000045E20000587A0000601E000040060FC
:10BB500000040020000000200000000000000000A1
:10BB600000000000000000000000000000000000D5
:10BB700000000000000000000000000000000000C5
:10BB800000000000000000000000000000000000B5
:10BB900000000000000000000000000000000000A5
:10BBA0000004000000040003000700030007E00198
:10BBB0000004F80100041F02000007FC000000E080
:10BBC00000000700000438000007C0000006000065
:10BBD000000400000004000000000000000000005D
:10BBE0000000000000000000000000000000000055
:10BBF0000000000000000000000000000000000045
:10BC00000000000000000000000000000000000034
:10BC10000000000000000000000000000000000024
:10BC20000000000000078060000600E0000403E060
:10BC3000000407A000040E2000043C200004702033
:10BC40000005E0200007802000070060000400E0FD
:10BC50000000038000000000000000000000000061
:10BC600000000000000000000000000000000000D4
:10BC700000000000000000000000000000000000C4
:10BC800000000000000000000000000000000000B4
:10BC900000000000000000000000000000000000A4
:10BCA0000000000000000000000000000000000094
:10BCB0000000000000000000000080000000800084
:10BCC0000001400007FE3FF80800000410000002D9
:10BCD0001000000200000000000000000000000052
:10BCE0000000000000000000000000000000000054
:10BCF0000000000000000000000000000000000044
:10BD00000000000000000000000000000000000033
:10BD10000000000000000000000000000000000023
:10BD20000000000000000000000000000000000013
:10BD3000000000000000000000000000FFFFFFFF07
:10BD400000000000000000000000000000000000F3
:10BD500000000000000000000000000000000000E3
:10BD600000000000000000000000000000000000D3
:10BD700000000000000000000000000000000000C3
:10BD800000000000000000000000000000000000B3
:10BD900000000000000000000000000000000000A3
:10BDA0000000000010000002100000020800000463
:10BDB00007FE3FF800014000000080000000800006
:10BDC0000000000000000000000000000000000073
:10BDD0000000000000000000000000000000000063
:10BDE0000000000000000000000000000000000053
:10BDF0000000000000000000000000000000000043
:10BE00000000000000000000000000000000000032
:10BE10000000000000000000000000000000000022
:10BE2000180000003000000040000000400000004A
:10BE3000400000002000000030000000080000006A
:10BE400004000000020000000200000002000000E8
:10BE50000C000000180000000000000000000000BE
:10BE600000000000000000000000000000000000D2
:10BE700000000000000000000000000000000000C2
:10BE800000000000000000000000000000000000B2
:10BE90000000000000000000000000000006101676
:10BEA000000610160000000000000000010203045C
:10BEB000060708090000000001020304C9E8B6A84B
:10BEC00032303231C4EA3130D4C23136C8D520D60E
:10BED000DCC1F92031343A35383A3330202020A102
:10BEE000B0414120424220323020323120313020D6
:10BEF0003136203036203134203538203330A1B16E
:10BF00000D0A000024BF00080000002044000000CB
:10BF10000A6C000868BF000844000020CC1600002E
:10BF20001A6C00080000000001000000000000FF83
:10BF3000FFFFFFFF000018EF0000000000000000FE
:10BF400000000000000000000000000000000000F1
:10BF500000000000000000000100000010000000D0
:08BF6000000000000024F400C1
:04000005080001F9F5
:00000001FF
