:020000040800F2
:10000000D009002005010008A32000080D190008F0
:10001000A1200008C1010008952700080000000089
:10002000000000000000000000000000DD220008C9
:100030002D02000800000000A5200008152300087C
:100040001F0100081F0100081F0100081F01000810
:100050001F0100081F010008310200084D020008BE
:100060001F0100081F0100081F0100081F010008F0
:100070001F0100081F010008C5010008D101000888
:100080001F0100081F0100081F0100081F010008D0
:100090001F0100081F0100081F0100081F010008C0
:1000A0001F010008792300081F0100081F01000834
:1000B0001F0100081F0100081F0100081F010008A0
:1000C0001F0100081F0100081F0100081F01000890
:1000D0001F010008812700081F0100081F010008F8
:1000E0001F0100081F0100081F010008DFF810D0E1
:1000F00000F054F800480047F12A0008AFF30080F0
:10010000D00900200648804706480047FEE7FEE782
:10011000FEE7FEE7FEE7FEE7FEE7FEE7FEE7FEE7B7
:1001200077230008ED00000840EA01039B0703D095
:1001300009E008C9121F08C0042AFAD203E011F826
:10014000013B00F8013B521EF9D27047D2B201E0E8
:1001500000F8012B491EFBD270470022F6E710B5CC
:1001600013460A4604461946FFF7F0FF204610BD25
:1001700030B50B46014600202022012409E021FA77
:1001800002F59D4205D303FA02F5491B04FA02F574
:100190002844151EA2F10102F1DC30BD064C074DCA
:1001A00006E0E06840F0010394E807009847103447
:1001B000AC42F6D3FFF79EFFF02C0008102D00088C
:1001C000FEE70000014800F0B5B800008C030020F5
:1001D000014800F0AFB800004803002030B590F8A7
:1001E00040500124AC40C56B6C6004686360436898
:1001F000102B036803D099600068C26030BD9A601C
:100200000068C16030BD000010B500290AD00A4660
:100210000146054801F038FB002803D0BDE8104036
:1002200000F017B810BD0000040300207047000064
:1002300005480168C90705D0016841F00101016066
:1002400002F0AABA7047000014040140022000F036
:1002500087B972B6FEE710B590F821100022022986
:1002600005D00421816380F82020012010BD0168A1
:100270000B6823F00E030B6001680B6823F0010389
:100280000B6090F84030C46B012101FA03F3636006
:1002900080F8211080F82020104610BD10B590F88D
:1002A00021100024022903D00421816301243DE0B0
:1002B00001680A6822F00E020A6001680A6822F0EA
:1002C00001020A601A4A0168914201D1012121E02C
:1002D000174A1432914201D110211BE0144A2832EE
:1002E000914201D1891515E0114A3C32914201D168
:1002F00089140FE00E4A5032914202D14FF48031FE
:1003000008E00B4A6432914202D14FF4801101E0BF
:100310004FF08071064A083A5160012180F821109F
:10032000002180F82010416B01B18847204610BDA4
:10033000080002402DE9F05FC16B0C6801680B6892
:10034000D0F840C0042202FA0CF2494DDFF824A193
:10035000494E4A4FDFF828B1DFF828E122422CD07D
:100360005A072AD50A68920603D40A6822F00402C2
:100370000A600168A94201D1042219E0514501D166
:10038000402215E0B14202D14FF4806210E0B94240
:1003900002D14FF480420BE0594502D14FF4802244
:1003A00006E0714502D14FF4800201E04FF0806217
:1003B0002F4908394A60C16A3BE04FF0020808FA49
:1003C0000CF818EA040F4FF000094FF0010235D085
:1003D0005FEA837832D50B689B0605D40B6823F05F
:1003E0000A030B6080F821200168A94201D1022292
:1003F00019E0514501D1202215E0B14202D14FF45C
:10040000007210E0B94202D14FF400520BE059459E
:1004100002D14FF4003206E0714502D14FF40012D0
:1004200001E04FF00072124908394A6080F82090CC
:10043000816A00291AD0BDE8F05F0847082505FA4F
:100440000CF5254212D01B0710D50B6823F00E03C4
:100450000B6090F84010C36B02FA01F1596082639F
:1004600080F8212080F82090016BE2E7BDE8F09F42
:10047000080002401C0002403000024044000240DC
:10048000580002406C00024030B528B308C8134938
:1004900014221944B1FBF2F18900C1631049816350
:1004A000022141771A6843F6F0718A43D0E90014BB
:1004B0002143D0E902452C43214304692143446987
:1004C00021438469214311431960002141630122C2
:1004D00042770177084630BD012030BDF8FFFDBFEF
:1004E0000000024070B5044690F820000025012865
:1004F0000CD0012084F8200094F821600020012E07
:1005000006D084F820000225284670BD022070BD68
:10051000022684F82160A0632068066826F00106A0
:1005200006602046FFF75AFEE06A0028206801684E
:1005300002D041F00E0106E021F0040101602068C4
:10054000016841F00A0101602068016841F0010181
:100550000160D9E7022801D101F020BB70470000FB
:10056000044910B50A68024202D00860FFF7F2FFA2
:1005700010BD0000140401402DE9F84FDFF8B891D8
:10058000002409F1040A0AF1040B23460F270BF19A
:10059000040EC9E00125A5402A40AA427DD1674E3C
:1005A000D1F804C0ACEB0608B44532D014DCBCF181
:1005B000030F3AD009DCBCF1000F2AD0BCF1010FC7
:1005C0001CD0BCF1020F31D11DE0BCF1110F17D0CE
:1005D000BCF1120F2AD119E0B8F5881F19D006DC3A
:1005E000B8F5803F15D0B8F5801F1FD111E0B8F5E0
:1005F000001F0ED0B8F5041F18D10AE0CB6815E033
:10060000CB681B1D12E0CB6808330FE0CB680C33BE
:100610000CE08B682BB1012B4FF0080303D0456130
:1006200004E0042302E0056100E00023FF2A01D872
:10063000064601E000F104064FEA840501D9A5F160
:100640002005D6F8008007FA05FC28EA0C0803FA12
:1006500005F548EA0508C6F800804D68ED0062D54A
:10066000374DAE6946F00106AE61AD6924F0030670
:1006700005F001050095334D06EB050CDCF808503C
:10068000A607360F07FA06F825EA0805DFF8B8804E
:10069000404503D14FF0000817E044E0DFF8AC809C
:1006A000404502D14FF001080FE0DFF8A48040453B
:1006B00002D14FF0020808E0DFF89880404502D1EF
:1006C0004FF0030801E04FF0040808FA06F848EA82
:1006D0000508CCF808804D68D9F80060ED034D4658
:1006E00001D5164300E096432E604D68DAF80060AD
:1006F000AD03554601D5164300E096432E604D6884
:10070000DBF80060ED025D4601D5164300E096433C
:100710002E604D68DEF80060AD02754601D51643C7
:1007200000E096432E60641C0D682A46E5407FF485
:1007300031AFBDE8F88F0000000401400000111047
:10074000001002400000014000080140000C014080
:1007500000100140001401400AB101617047090412
:10076000FBE700000148806870470000100000208F
:1007700002488168027811448160704710000020AF
:10078000074810B5016841F010010160032000F036
:1007900075F8002000F006F800F024F8002010BDE5
:1007A0000020024070B50D4D04464FF47A71287850
:1007B000B1FBF0F00A490968B1FBF0F000F07BFCF6
:1007C00048B9102C07D200222146501E00F036F8FE
:1007D00000206C6070BD012070BD00001000002082
:1007E0001C0000200C4808B5816941F001018161BD
:1007F000816901F001010091C16941F08051C1613D
:10080000C06900F0805000900448416821F0E06128
:1008100041F00071416008BD00100240000001403D
:10082000002809DB00F01F020121914040098000EF
:1008300000F1E020C0F8001170470000F0B40E4B4A
:100840001B680C46C3F30223C3F10705042D00D92E
:100850000425191D072901D2002300E0DB1E012613
:1008600006FA05F1491E214099409E40761E164029
:100870003143F0BC01F0DABF0CED00E0064900F0B6
:10088000070208684FF6FF03184040EA0220034AB7
:1008900010430860704700000CED00E00000FA050E
:1008A0002DE9F0470F46050061D0434E306800F057
:1008B0000700B84209D2306820F0070038433060A2
:1008C000306800F00700B84251D128683B4C8107DE
:1008D00012D5400703D5606840F4E0606060287876
:1008E000000703D5606840F4605060606068A968E4
:1008F00020F0F000084360602878C00728D06868BE
:10090000012810D02168022810D0890700292EDA8A
:10091000616821F0030101436160FFF723FF804616
:1009200041F288390DE021688903EFE78901EDE79D
:10093000FFF718FFA0EB0801494502D90320BDE8E5
:10094000F0876068696800F00C00B0EB810FEFD1B0
:10095000306800F00700B8420BD9306820F007007B
:1009600038433060306800F00700B84201D0012001
:10097000E5E72878400705D56068E96820F4E0607D
:10098000084360602878000706D56068296920F46C
:10099000605040EAC100606000F038F86168084AC1
:1009A000C1F30311515CC84006490860064800685D
:1009B000FFF7F8FE0020C2E70020024000100240CE
:1009C000882C00081C000020140000200448054961
:1009D00000684968044AC1F30221515CC84070476D
:1009E0001C00002000100240982C00080448054913
:1009F00000684968044AC1F3C221515CC84070478D
:100A00001C00002000100240982C000812A185B0A4
:100A10000FC98DE80F0014A0144A006804905168B3
:100A2000134801F00C03042B10D0082B0ED1C1F396
:100A30008343C9031DF803000AD5516804AAC1F312
:100A40004041515C0A4A5043B0FBF1F005B0704799
:100A500008494843FAE700000203040506070809AD
:100A60000A0B0C0D0E0F10100102000000100240C6
:100A700000127A0000093D002DE9F84F040070D003
:100A80002078C04DC00749D06868C0F381000128B4
:100A900007D06868C0F38100022809D16868C003E4
:100AA00006D52868800339D560680028E7D035E08E
:100AB0006068B0F5803F0BD010B1B0F5A02F11D019
:100AC000286820F480302860286820F4802002E024
:100AD000286840F480302860606890B1FFF742FEDB
:100AE00006460AE0286840F480202860F0E700BF4E
:100AF000FFF738FE801B642873D828688003F7D579
:100B00000CE0FFF72FFE064605E000BFFFF72AFEC8
:100B1000801B6428F0D828688003F7D420789A4E88
:100B200080074FF001094FF0000839D5686810F0D0
:100B30000C0F07D06868C0F38100022809D16868EB
:100B4000C00306D42868800714D52069012808D17D
:100B500010E02069B0B1C6F80090FFF703FE074629
:100B600005E00AE1FFF7FEFDC01B0228C4D8286893
:100B70008007F7D52868616920F0F80040EAC100D5
:100B800028600DE0C6F80080FFF7ECFD074604E0A2
:100B9000FFF7E8FDC01B022823D828688007F7D498
:100BA000207800072CD57948A169D9B1C0F8009008
:100BB000FFF7D8FD074604E0FFF7D4FDC01B02286D
:100BC0000FD8686A8007F7D571484FF4FA5100686A
:100BD000B0FBF1F0009000BF0098411E0091FAD2E6
:100BE0000EE080E0C0F80080FFF7BCFD074604E09F
:100BF000FFF7B8FDC01B022875D8686A8007F7D4D4
:100C00002078400760D5E8690027C00008D4E8696B
:100C100040F08050E861E869012700F080500090C2
:100C20005C480168C90513D40168834641F48071AA
:100C30000160FFF797FD824606E000BFFFF792FDD7
:100C4000A0EB0A0064284ED8DBF80000C005F5D5FB
:100C5000E06801280AD008B1052813D0286A20F0DE
:100C600001002862286A20F0040002E0286A40F0AF
:100C700001002862E06841F2883B98B1FFF772FDFD
:100C800082460BE0286A40F004002862EEE700BFCD
:100C9000FFF768FDA0EB0A0159455AD8286A80077A
:100CA000F6D50CE0FFF75EFD824605E0FFF75AFD42
:100CB000A0EB0A0159454CD8286A8007F6D41FB129
:100CC000E86920F08050E861E06988B36968C1F3A1
:100CD0008101022944D00228C6F8608004D0FFF7C1
:100CE00041FD044638E034E0FFF73CFD074604E0F0
:100CF000FFF738FDC01B02282BD828688001F7D4E5
:100D0000206AB0F5803F05D16868A16820F4003002
:100D100008436860D4E908010843696821F4741144
:100D200008436860C6F86090FFF71CFD044606E0C3
:100D300025E000BFFFF716FD001B022809D8286830
:100D40008001F7D51BE000BFFFF70CFD001B022858
:100D500002D90320BDE8F88F28688001F4D40EE0A2
:100D60000128F7D06868226A00F48031914204D1EA
:100D7000616A00F47010884201D00120EAE7002087
:100D8000E8E70000001002400000424280044242B6
:100D90001C0000200070004070B5040009D0606A9B
:100DA000002540B125616561A56294F8510040B10C
:100DB0000CE0012070BD6068B0F5827FF4D0E56181
:100DC000F2E784F85050204600F040F8022084F802
:100DD00051002068016821F040010160A08821894C
:100DE00000F4827001F404410843A18901F4006118
:100DF0000843217C01F002010843217D01F001013B
:100E00000843218B01F400710843217F01F0380170
:100E1000084394F8201001F080010843218D01F46B
:100E20000051084321680860A069042101EA1040CC
:100E3000216848602068C16921F40061C16165656D
:100E4000012084F85100002070BD000030B585B04D
:100E50000024009401940294039400681449884289
:100E600023D11448816941F480518161816901F481
:100E700080510491816941F00401816180690E4DC6
:100E800000F004000490A0200090022001900320B4
:100E9000039069462846FFF76FFB4020CDE9000428
:100EA000694628460294FFF767FB05B030BD000095
:100EB0000030014000100240000801402DE9F84FC9
:100EC000044690F8500000270A9E1D4692468B4625
:100ED0004FF0010901280ED0012084F85000FFF7DF
:100EE00041FC804694F85100616801280CD0B1F5AE
:100EF000827F07D102E00220BDE8F88FA16809B91E
:100F0000042801D00227C2E0BBF1000F27D0BAF1BC
:100F1000000F24D01DB394F85100042802D00520FE
:100F200084F8510000206065C4F838A0E587A587E3
:100F3000C4F830B0E586A586206460642068016846
:100F4000490603D4016841F040010160E068B0F552
:100F5000006F606805D0E8B3012D46D07FE001271F
:100F600095E008B1012D39D1206B21680088C86057
:100F7000206B801C2063E08E401EE0862EE02068FF
:100F8000816889070FD5E18E69B1B9F1010F0AD1E6
:100F9000216B0988C160206B801C2063E08E401E9D
:100FA000E0864FF0000920688168C9070CD0E18F06
:100FB00051B1C068A16B0880A06B801CA063E08F5A
:100FC000401EE0874FF00109FFF7CCFBA0EB0800C3
:100FD000B04200E009E001D3701C50D1E08E00283F
:100FE000CDD1E08F0028CAD13FE0206B2168007886
:100FF0000873206B401C2063E08E401EE0862EE0CC
:101000002068816889070FD5E18E69B1B9F1010FB8
:101010000AD1216B09780173206B401C2063E08E9C
:10102000401EE0864FF0000920688168C9070CD097
:10103000E18F51B1C068A16B0870A06B401CA06328
:10104000E08F401EE0874FF00109FFF78BFBA0EB1C
:101050000800B04202D3701C01D010E07EB1E08ED7
:101060000028CDD1E08F0028CAD142463146204623
:1010700001F0C8F828B101272020606507E00327A8
:1010800005E0A06818B92068C16880680090012058
:1010900084F85100002084F8500038462CE74FF0C7
:1010A000E0210428086903D020F00400086170479B
:1010B00040F00400FAE710B5401EB0F1807F01D384
:1010C000012010BD4FF0E02460610F21601701F096
:1010D000ADFB0020A06107202061002010BD7047FB
:1010E0007047000070B590F83C20012A26D00124FA
:1010F00080F83C40022280F83D2003685A689D68D1
:1011000022F070060A6832435A600D4B02689A4218
:1011100008D0B2F1804F05D00A4B9A4202D00A4B58
:101120009A4204D1496825F080031943916080F800
:101130003D40002180F83C10084670BD022070BD83
:10114000002C0140000400400008004010B50400DD
:1011500003D094F83D0010B107E0012010BD00203D
:1011600084F83C00204600F01FF8022084F83D007F
:10117000211D206801F006F9012084F8460084F85A
:101180003E0084F83F0084F8400084F8410084F871
:10119000420084F8430084F8440084F8450084F851
:1011A0003D00002010BD000008B5114A016811483B
:1011B000914211D1816941F400618161806900220D
:1011C00000F40060009011461920FFF737FBBDE8DE
:1011D00008401920FFF724BBB1F1804F07D1C16946
:1011E00041F00101C161C06900F00100009008BD3B
:1011F000002C01400010024090F83D10012901D060
:1012000001207047022180F83D100168CA6842F051
:101210000102CA6000680B49884208D0B0F1804FD3
:1012200005D00949884202D00849884204D1816822
:1012300001F00701062903D0016841F001010160B6
:1012400000207047002C01400004004000080040CE
:1012500070B5044690F83C00012817D0012584F8A9
:101260003C50022084F83D002068826822F077021A
:1012700022F47F4282600868502830D00DDC20289C
:101280004DD005DC98B310283BD148E0022070BD5A
:10129000302844D0402834D139E0602828D0702844
:1012A00006D0B0F5805F2CD0B0F5005F29D10AE000
:1012B000CB68D1E90121206801F09AF820688168A3
:1012C00041F0770109E0CB68D1E90121206801F004
:1012D0008FF82068816841F48041816011E0CA681C
:1012E0004968206801F096F85021206807E016E070
:1012F000CA684968206801F09EF86021206801F002
:1013000081F884F83D50002084F83C0070BDCA6824
:101310004968206801F07EF840212068EFE72268E4
:1013200001461046EBE7704770B504460068016956
:101330004FF00005C943890715D4C168C94389071F
:1013400011D4E91E0161012020772068806980079F
:10135000204602D0FFF7E7FF04E000F098F82046AF
:1013600000F096F8257720680169C943490717D42A
:10137000C168C943490713D46FF004010161022019
:1013800020772068806910F4407F204602D0FFF764
:10139000CAFF04E000F07BF8204600F079F82577DA
:1013A00020680169C943090716D4C168C943090700
:1013B00012D46FF008010161042020772068C06911
:1013C0008007204602D0FFF7AEFF04E000F05FF890
:1013D000204600F05DF8257720680169C943C906F9
:1013E00017D4C168C943C90613D46FF01001016155
:1013F000082020772068C06910F4407F204602D082
:10140000FFF791FF04E000F042F8204600F040F8BA
:10141000257720680169C943C90708D1C168C94354
:10142000C90704D1891E0161204600F033F8206805
:101430000169C943090609D4C168C943090605D42D
:101440006FF0800101612046FFF749FE20680169C5
:10145000C943490609D4C168C943490605D46FF098
:1014600040010161204600F021F820680169C9436C
:1014700089060BD4C168C943890607D46FF02001DF
:1014800001612046BDE87040FFF72ABE70BD70477D
:10149000704700000349884203D103490888401C73
:1014A00008807047800000200800002070477047C7
:1014B00010B504460068416994F83D20C1F3C0119D
:1014C000212A0BD151B1416921F080014161606B4A
:1014D00008B1FEF7C0FE204601F05AF820684169C5
:1014E00094F83E20C1F38011222A0BD151B14169F9
:1014F00021F040014161A06B08B1FEF7ACFE20462F
:1015000001F02EF8002010BD70470000F8B5026809
:1015100004461068D168536910F00F0F4FF00005B2
:1015200053D003F0010601F4907737435FD0C20730
:1015300005D0CA0503D5226C42F00102226442079D
:1015400005D5DA0703D0226C42F00202226482073A
:1015500005D5DA0703D0226C42F0040222640207A8
:1015600007D501F02002324303D0226C42F008027A
:101570002264226C002A34D0800604D5880602D565
:10158000204601F00EF820684069216CC0F38010FD
:10159000090700D430B3204600F0E2FF206841691B
:1015A00049061BD5416921F040014161A06BA8B1FA
:1015B00058494163A06BFEF771FE002811D0A06B63
:1015C000416B01B0BDE8F040084783060FD58B069C
:1015D0000DD52046BDE8F84000F0E3BF2046FFF7F8
:1015E00093FFF8BD2046FFF78FFF2564F8BD266BFB
:1015F0002023012E52D1C60650D5CE064ED51068F6
:1016000050680090506940062AD5A16B0868406870
:101610000004000CEAD0A68D8642E7D9E0858869EF
:10162000202818D0D06820F48070D06020684169EC
:1016300021F0010141612068416921F040014161CF
:1016400084F83E3025632068C16821F01001C16034
:10165000A06BFEF700FEA08DE18D401A81B219E06B
:10166000A08DE18D401A81B2E08D0028BED0002906
:10167000BCD0D06820F49070D0602068426922F01D
:101680000102426184F83E3025632068C26822F07E
:101690001002C2602046FFF70AFFF8BD05062BD5F1
:1016A0000D0629D594F83D002128F6D1A068B0F5A3
:1016B000805F01D12069B0B1206A411C216221689C
:1016C00000784860E08C401E0004000CE084E4D107
:1016D0002068C16821F08001C1602068C16841F0C4
:1016E0004001C160F8BD206A0088C0F30800506066
:1016F000206A801C2062E5E74006F3D54806F1D554
:10170000D168204621F04001D16084F83D3000F0DE
:10171000FBF8F8BD5B24000870B5040004D094F811
:101720003D00002510B106E0012070BD84F83C505A
:10173000204600F023F8242084F83D002068C1688A
:1017400021F40051C160204600F086FF2068016945
:1017500021F4904101612068416921F02A01416131
:101760002068C16841F40051C1602564202084F8DC
:101770003D0084F83E00002070BD0000F0B585B04B
:1017800000240646009401940294039400682D49B5
:10179000884254D12C48816941F48041816181693A
:1017A00001F480410491816941F004018161806903
:1017B000264D00F0040004904FF4007000900220C9
:1017C00001900320039069462846FEF7D5FE2815B0
:1017D000CDE90004694628460294FEF7CDFE1D4D72
:1017E0001B488027C5E90004C5E902472C616C61EC
:1017F000AC612846EC61FEF747FE08B1FEF729FD13
:10180000B5636E62134D12484435143801C510207B
:1018100091C5104845F8104944306C61AC61EC61E9
:10182000FEF732FE08B1FEF714FD75630022114683
:1018300025206E62FFF702F82520FEF7F1FF05B0C4
:10184000F0BD0000003801400010024000080140D7
:10185000580002404803002090F83E30202B0ED163
:1018600059B152B190F83C30012B08D0012380F8D7
:101870003C300023036300F04BBF0120704702207F
:10188000704770477047000070B5044690F83D00FF
:10189000202830D169B362B394F83C0001282AD0E3
:1018A000012084F83C002162A284E28400252564A2
:1018B000212084F83D00636B10489862636B1048E8
:1018C000D862636B0F481863606B134645632668E4
:1018D000606B321DFEF706FE21686FF04000086065
:1018E00084F83C502068416941F08001416100204A
:1018F00070BD012070BD022070BD000029250008C8
:10190000572500086B24000870477047FEE7000069
:1019100086B000F06FFA142224496846FEF704FCF2
:1019200000246E4622A056F8241000F06FFF641CBD
:10193000E4B2052CF6D31F4C00270120277001F0DC
:101940007BF84FF001084FF031092078102817D0AC
:1019500003DC38B10128F8D025E0112820D0312847
:10196000F3D020E084F8008000F016FC20B984F861
:10197000009011A000F04AFF15A000F047FFE4E737
:10198000C52000F0EDF90546014615A000F03EFF28
:1019900006EB850050F8041C15A000F037FF02E0AC
:1019A00015A000F033FF2770CFE70000102C0008CF
:1019B000257300000000002052756E415352204CE8
:1019C000445F4153525F4552524F520D0A0000008E
:1019D000E5BC80E5A78BE8AF86E588AB5C720A00C2
:1019E000E8AF86E588ABE7A0813A25640D0A0000E0
:1019F00025730D0A00000000E697A0E6B395E8AF56
:101A000086E588AB0D0A00002DE9F0419CB0642208
:101A100027496846FEF788FB26A10126D1E9000187
:101A20000024E846CDE9190100F0A4F8C0B319A8D4
:101A3000015DC12000F0BAF90021C32000F0B6F921
:101A40000421082000F0B2F9012001F003F8002180
:101A5000082000F0ABF9012000F0FCFF04EB84014A
:101A6000002508EB8107795D31B1052000F09EF972
:101A70006D1CEDB2142DF6D32946B92000F096F96D
:101A8000FF21B22000F092F90421372000F08EF9F6
:101A9000641CE4B2052CC7D31CB03046BDE8F0810D
:101AA000FFE7214605A000F0B1FE0026F4E70000A4
:101AB000242C000801020304050000004C445F418F
:101AC00073724164644669786564204453502062AF
:101AD000757379204B3A25640D0A000010B550212A
:101AE000352000F063F909211C2000F05FF9202166
:101AF000BD2000F05BF90121082000F057F9052016
:101B000000F0A8FF0021082000F050F9052000F0A7
:101B1000A1FF00F02FF8E0B1FF21B22000F046F95C
:101B20000621372000F042F90621372000F03EF967
:101B3000052000F08FFF0B211C2000F037F9102149
:101B4000292000F033F90021BD2000F02FF90120F9
:101B500010BD02A000F05AFE002010BD4C445F41B1
:101B6000737252756E2044535020627573790D0A5A
:101B70000000000070B500252C46B22000F0F0F8FF
:101B8000212808D00A2000F065FF641CE4B2142C60
:101B9000F3D3284670BD0125FBE7000010B503A074
:101BA00000F034FEBDE8104000F07EBAE590ACE5F0
:101BB00088B0E5A3B0E99FB3200000001A4910B532
:101BC0000820487000F032F80021BD2000F0EEF847
:101BD0004821172000F0EAF8052000F03BFF8021A3
:101BE0003C2000F0E3F807213E2000F0DFF8FF2161
:101BF000382000F0DBF807213A2000F0D7F8002168
:101C0000402000F0D3F80821422000F0CFF8002156
:101C1000442000F0CBF80821462000F0C7F8BDE8CA
:101C20001040012000F016BF0000002010B5062073
:101C300000F096F80446000702D538A000F0E6FD53
:101C4000A00602D53DA000F0E1FD3521172000F0EF
:101C5000ADF8052000F0FEFE062000F081F80446F5
:101C6000000702D52DA000F0D1FDA00602D533A0BB
:101C700000F0CCFD0321892000F098F8052000F049
:101C8000E9FE4321CF2000F091F8052000F0E2FEAC
:101C90000221CB2000F08AF80B21112000F086F8F9
:101CA0002E484FF00001407840284FF01E0029D008
:101CB00000F07CF83F21192000F078F848211B2023
:101CC00000F074F81F211D2000F070F8052000F0CE
:101CD000C1FE0421CD2000F069F84C21172000F04E
:101CE00065F8012000F0B6FE0021B92000F05EF892
:101CF0004F21CF2000F05AF8FF21BDE810406F209F
:101D000000F054B800F052F80F21192000F04EF8FE
:101D100018211B2000F04AF82C21D4E74649464FF1
:101D20005F4441544120E5B7B2E6BBA1EFBC8CE46F
:101D3000B88DE883BDE586990D0A00004649464FF7
:101D40005F45585420E5B7B2E6BBA1EFBC8CE4B8C0
:101D50008DE883BDE586990D0A0000000000002093
:101D600038B50446002204210E48FEF7F5FC0E4D5E
:101D7000002204212846FEF7EFFC05208DF8000024
:101D80008DF8014000208DF802000321684600F024
:101D9000A7FA0446012204212846FEF7DDFC20466E
:101DA00038BD0000000C014000080140F8B50C46A9
:101DB0000546002204210D48FEF7CEFC0C4E002201
:101DC00004213046FEF7C8FC04208DF800008DF891
:101DD00001508DF802400321684600F081FA01228B
:101DE00004213046FEF7B8FCF8BD0000000C0140AD
:101DF0000008014070B50122154D94022146284685
:101E0000FEF7AAFC642000F025FE002221462846A9
:101E1000FEF7A2FC642000F01DFE012221462846A8
:101E2000FEF79AFC642000F015FE0A4C0022042103
:101E30002046FEF791FC642000F00CFE01220421F4
:101E40002046FEF789FCBDE87040642000F002BE29
:101E5000000C0140000801400D4808B5416941F0FF
:101E6000010141614069002200F00100009011462B
:101E70000E20FEF7E3FC0E20FEF7D2FC00221146F6
:101E80000F20FEF7DBFCBDE808400F20FEF7C8BCC2
:101E9000001002402DE9F04186B000252848009549
:101EA000019502950395816941F020018161816965
:101EB00001F020010491816941F00401816181698F
:101EC00001F004010491816941F008018161806998
:101ED0001C4F00F008000490012204213846FEF750
:101EE0003BFCDFF8648040F2044601223146404664
:101EF000FEF732FC042001248DE8310002256946FA
:101F000038460395FEF738FB10480095CDE90104EB
:101F100069464046FEF730FBCDE90064694640461D
:101F2000CDE90245FEF728FB002203210720FEF73A
:101F300085FC0720FEF774FC06B0BDE8F0810000C8
:101F40000010024000080140000C01400000211078
:101F5000104810B50E4901604FF4827141600021B4
:101F600002228160C0E903121202C0E90512282290
:101F7000C0E90721416281620A21C162FEF70CFFBC
:101F8000002803D0BDE81040FEF763B910BD000083
:101F9000003001402800002010B586B00024184809
:101FA00000940194029403940494144905940160EC
:101FB0004721C0E9011440F2E731C0E90314802150
:101FC000C0E90541FFF7C2F808B1FEF742F94FF446
:101FD0008050009069460A48FFF73AF908B1FEF7C9
:101FE00038F9049404A906480594FFF77BF8002803
:101FF00001D0FEF72EF906B010BD0000002C014004
:102000008000002010B586B000241648009401948A
:102010000294039404944FF080410594C0E90014A5
:102020004FF6FF71C0E9024104618461FFF78EF849
:1020300008B1FEF70EF94FF4805000906946094848
:10204000FFF706F908B1FEF704F9049404A905485E
:102050000594FFF747F8002801D0FEF7FAF806B01C
:1020600010BD0000C80000200C4810B50A490160EE
:102070004FF4E1314160002181600C22C160C0E970
:1020800004128161C161FFF747FB002803D0BDE85E
:102090001040FEF7DEB810BD0038014004030020F8
:1020A000FEE7FEE77047000070B52B20FFF758FEF3
:1020B0002B4C0021A0702920FFF778FE0021022080
:1020C000FFF774FEA0784FF01106C00609D5B220C4
:1020D000FFF746FE212804D1BF20FFF741FE352837
:1020E0000AD0A078000714D51EA000F08FFBFFF7E0
:1020F00081FE002020700DE0BA20FFF731FE05467A
:10210000014620A000F082FB6D1E032D01D8102097
:10211000F0E7267000212B20FFF748FE00211C204D
:10212000FFF744FE00212920FFF740FE0021022096
:10213000FFF73CFE00212B20FFF738FE0021BA20DC
:10214000FFF734FE0021BC20FFF730FE01210820FC
:10215000FFF72CFEBDE8704000210820FFF726BEE7
:1021600000000020E88AAFE78987E58685E983A833
:10217000E5B7B2E7BB8FE587BAE78EB0E99499E897
:10218000AFAF0000E88EB7E58F96E7BB93E69E9C65
:102190003A25640D0A00000070B500244FEA0405DA
:1021A000FFF70CFD642000F055FCFFF72DFC40B15B
:1021B0000A2000F04FFCFFF791FC30B101252846C2
:1021C00070BDFFF717FE07A002E0FFF713FE0AA09D
:1021D00000F01CFB322000F03DFC641CE4B2052C36
:1021E000DED3ECE74C445F41737241646446697826
:1021F00065640D0A000000004C445F417372527523
:102200006E0D0A0038B50B4600920446002280216C
:1022100000F008F8002804D0606D40F020006065F0
:10222000032038BD2DE9F8431E46914688460446F2
:10223000089DFEF797FA401B351AFEF793FA0746FA
:1022400025480068C0F3CB30684338E0701C37D0B5
:10225000FEF788FAC01BA84203D215B1009860B3FC
:102260002CE02068416821F0E00141606068B0F531
:10227000827F0BD1A068B0F5004F02D0B0F5806F1F
:1022800004D12068016821F040010160A06AB0F526
:10229000005F09D12068016821F4005101602068C5
:1022A000016841F400510160012084F851000020D0
:1022B00084F850000320BDE8F8830025401E0090FC
:1022C0002068816838EA010004D000214945BDD169
:1022D0000020F0E70121F9E71C0000207047000012
:1022E000F8B506460C46084600F05CFC05464FF67D
:1022F000FF70009023462A4631460548FEF7DEFD72
:10230000281910F8014C284600F0CAFB2046F8BDF9
:1023100028000020FEF72CBA30B58FB0282168467F
:10232000FDF71BFF14210AA8FDF717FF0121080480
:10233000CDE900100024029402250491CDE9075054
:102340004FF4E01009906846FEF796FB08B172B6AC
:10235000FEE70F20CDE90A054FF48060CDE90C407F
:1023600002210AA80E94FEF79BFA002801D072B64B
:10237000FEE70FB030BD70470148FEF7D5BF000043
:1023800080000020F0B50268164B174C174D4FF037
:102390008047984205D0B84203D0A04201D0A8425D
:1023A00003D122F070064A683243984205D0B84201
:1023B00003D0A04201D0A84203D122F44074CA68DD
:1023C00022434C6922F08002224302608A68C26282
:1023D0000A688262984201D1096901630121416161
:1023E000F0BD0000002C0140000400400008004047
:1023F00010B5846842EA032224F47F440A4322434E
:10240000826010BD826822F070020A4342F0070128
:102410008160704710B5036A046A24F00104046205
:10242000846924F0F00444EA021423F00A020A4307
:102430008461026210BD10B5036A23F010030362C9
:102440008369046A23F4704343EA023224F0A00350
:1024500043EA01118261016210BD10B5406A00219A
:10246000C185C184FFF750F810BD70B5446A20687B
:10247000406994F83D10C0F3C0100025212904D113
:1024800018B1E584204600F083F82068406994F88C
:102490003E10C0F38010222904D118B1E5852046F2
:1024A00000F05EF8206C40F0100020642046FFF73A
:1024B0002BF870BD10B50146406A096809688906A5
:1024C0001BD40021C1850168CA6822F48072CA60E9
:1024D00001684A6922F001024A6101684A6922F0F2
:1024E00040024A61202180F83E10016B012904D18D
:1024F0000168CA6822F01002CA60016B012902D08B
:10250000FFF7BFF910BD818DFEF7D1FF10BD10B5EB
:10251000406A016B012902D0FFF7B4F910BD818D2B
:102520004908FEF7C4FF10BD10B50146406A0968AE
:10253000096889060CD40021C18401684A6922F027
:1025400080024A610068C16841F04001C16010BD6D
:10255000FFF7DAF910BD10B5406AFFF7D6F910BDE4
:102560000168CA6822F49072CA6001684A6922F060
:1025700001024A61016B012904D10168CA6822F095
:102580001002CA60202180F83E10002101637047CC
:102590000168CA6822F0C002CA60202180F83D109C
:1025A000704708B590F83E10222901D0022008BDDE
:1025B00082684FF480539A4201D1016921B1816A46
:1025C0009A421BD04AB10AE00268816A5268C2F39B
:1025D00008020A80816A891C08E0026972B10268F7
:1025E000526802F07F020A70816A491C8162C18DC3
:1025F000491E0904090CC18503D019E0026852681C
:10260000F1E70168CA6822F02002CA600168CA685E
:1026100022F48072CA6001684A6922F001024A61AC
:10262000202180F83E10016B012903D0FFF729F922
:10263000002008BD002101630168CA6822F0100271
:10264000CA6001680A68D20602D50A684968009122
:10265000818DFEF72CFFEBE770B504460068016939
:10266000E26821F44051114301612169A0680843E7
:10267000616908432168CA6841F20C639A430243C6
:10268000CA6020684169A26921F440711143416127
:102690001E492068884202D1FEF7A8F901E0FEF742
:1026A00095F900EBC00101EB001260686421800025
:1026B000B2FBF0F3B3FBF1F36FF018067343B2FB18
:1026C000F0F5B2FBF0F605EB8305322303EB0515BD
:1026D000B5FBF1F5B6FBF1F605F0F00505EB0615D7
:1026E000B2FBF0F6B2FBF0F0B0FBF1F06FF01802C5
:1026F000504306EB800003EB0010B0FBF1F02168C3
:1027000000F00F002844886070BD000000380140D0
:1027100038B581628285002513460446056422206F
:1027200084F83E00A26B13489062A26B1248D062FC
:10273000A26B12481063A06B0A4645632168A06B28
:10274000091DFDF7CFFE206801684168009184F8FB
:102750003C50C16841F48071C1602068416941F01A
:10276000010141612068416941F04001416100205F
:1027700038BD0000B52400080F2500086B240008B0
:1027800010B500F01FF8BDE810400148FEF7BEBECE
:1027900004030020FEE7000010B5084C217808482B
:1027A000FDF732FD0020207060700549BDE8104043
:1027B0004FF4FA7201F5FA70FFF74EB80A000020E4
:1027C000100100200E4808B500680168C1F300112F
:1027D000002914D00168406800900948FEF768FE9F
:1027E0000748443000684068C0F5FA710548017038
:1027F000012141700448016841F00101016008BDF8
:10280000040300200A000020100401400FB4054B0F
:1028100010B503A9044A029800F028F810BC5DF82E
:1028200014FB0000892A00080C0000200907090E8B
:10283000002804DB00F1E02080F80014704700F06D
:102840000F0000F1E02080F8141D704702E008C876
:10285000121F08C1002AFAD170477047002001E01A
:1028600001C1121F002AFBD1704700002DE9FF4F64
:102870008BB09A460F460546002606E025280BD069
:1028800052460D9990476D1C761C28780028F5D18A
:102890000FB03046BDE8F08F0024A0460122604909
:1028A00000E0044315F8013F203B02FA03F0084220
:1028B000F7D128782E2817D115F8010F44F0040419
:1028C0002A280ED06FF02F022878A0F130010929B4
:1028D0000AD808EB880102EB410100EB01086D1CEE
:1028E000F2E757F8048B6D1C287869283ED006DC87
:1028F0000028CDD063280BD0642804D136E073289B
:1029000010D075284BD052460D999047761C85E023
:1029100017F8040B8DF8000000208DF80100E9463F
:10292000012003E057F8049B4FF0FF3061074FF0A0
:10293000000401D40AE0641C44450DDA8442FADB49
:1029400019F804100029F6D106E0641C8442FCDB6F
:1029500019F804100029F8D1264404E019F8010BF5
:1029600052460D999047641EF8D257E001CF4FF0C0
:102970000A0B002802DA40422D2102E0210504D58D
:102980002B218DF82410012103E0E10705D020213F
:10299000F7E70DF1200908910CE00021F9E701CFDC
:1029A0004FF00A0BF9E75946FDF7E2FB01F130025F
:1029B00009F8012D0028F6D1ADEB090000F1200B3C
:1029C000600701D44FF00108D84502DDA8EB0B00E9
:1029D00000E000208046002406E009A85246005D81
:1029E0000D999047641C761C08988442F5DB04E03E
:1029F000302052460D999047761CB8F10001A8F19D
:102A00000108F5DC05E019F8010B52460D999047D5
:102A1000761CBBF10001ABF1010BF4DC6D1C34E75B
:102A20000928010010B504460420FEF738FB0148D0
:102A3000046010BD0400002070B5054600244FF46A
:102A40007A7603E0304600F005F8641CAC42F9D316
:102A500070BD000070B54FF0E0240022656909499F
:102A6000A36909684843A1699942FCD002D2A3EB4B
:102A7000010302E0A5EB010633441A440B468242EF
:102A8000F1D370BD0400002004490A685206FCD549
:102A9000024AC1B2121D11607047000000380140A7
:102AA00010B5002821D0114B0022001F196803E047
:102AB000814203D80A4649680029F9D152B1136806
:102AC000841A9C4204D1006818441060104602E049
:102AD000506000E0186039B102680B1A934203D1CC
:102AE0000B681A4402604968416010BD2000002054
:102AF000FDF746FEFFF710FCFFF7CCF9FFF7ACF946
:102B0000FFF7B2FAFFF748FAFFF77CFAFFF720FA6F
:102B10004820FFF787FF1648016841F00101016076
:102B200000220F210620FDF789FE0620FDF778FE22
:102B300010480068C16841F01001C1604FF4FA7498
:102B400022460D490B48FEF787FE0C48FEF754FB62
:102B50000BA0FFF75BFEFEF7DBFE26460C4C0025C4
:102B60002088B042FCD325800AA0FFF74FFEF7E78C
:102B70000004014004030020100100208000002018
:102B80004C44333332305F544553540D0A00000037
:102B90000800002068656C6C6F20776F726C640DA4
:102BA0000A000000F0B50B30154D20F0070100249D
:102BB000144A0FE003688B420BD38B4205D95E1A8F
:102BC00043184768C3E9006700E04368136002C028
:102BD00004E0021D10680028ECD12046002802D134
:102BE000286808B10020F0BD064A07481060074A6F
:102BF000121A22F00702C0E9002401202860D7E75A
:102C00002400002020000020D4030020D005002054
:102C1000A02C0008B02C0008D02C0008E02C0008E4
:102C2000C02C000873686F75206469616E20746F32
:102C30006E67000000000000716920636865000095
:102C4000000000000000000000000000686F6E67D8
:102C5000207365000000000000000000000000007C
:102C60006C7620736500000000000000000000008A
:102C7000000000006C616E20736500000000000021
:102C80000000000000000000000000000000000044
:102C90000102030406070809000000000102030402
:102CA00031E38081E6898BE794B5E7AD920D0A00A8
:102CB00032E38081E6B1BDE8BDA65C720A00000087
:102CC00035E38081E8939DE889B25C720A000000D8
:102CD00033E38081E7BAA2E889B25C720A0000009F
:102CE00034E38081E7BBBFE889B25C720A00000070
:102CF000102D000800000020280000004C280008CB
:102D0000382D000828000020A80900005C280008D1
:102D100000000000000000000000000000000000B3
:102D20000100000010000000000000000024F4007A
:082D300000000000000000009B
:04000005080000ED02
:00000001FF
