:020000040800F2
:1000000020060020D50000086D1A0008A11800087D
:1000100000000000000000000000000000000000E0
:10002000000000000000000000000000B71A0008F7
:100030000000000000000000B51A0008B91A00080E
:10004000E7000008E7000008E7000008E7000008F4
:10005000E7000008E7000008E7000008E7000008E4
:10006000E7000008E700000809020008E7000008B0
:10007000E7000008E700000800000000891B0008F6
:1000800000000000E7000008000000000000000081
:10009000E700000800000000E7000008E700000893
:1000A000E7000008E7000008E7000008A5210008B5
:1000B000E7000008E7000008E7000008E700000884
:1000C0000348854600F08EF8004800470D230008DD
:1000D000200600200448804704480047FEE7FEE76A
:1000E000FEE7FEE7FEE7FEE7351B0008C10000085B
:1000F00030B50B46014600202022012409E00D46C0
:10010000D5409D4205D31D469540491B2546954047
:1001100040191546521E002DF1DC30BDF0B51FB45C
:100120000646002082B005464024019100901BE065
:10013000019922460F46304600F042F8049A059B8A
:10014000801A994110D310461946224600F028F82B
:10015000361A8F410197224601200021009F00F0AE
:100160001FF838184D4100902046641E0028DFDC3F
:10017000019B00982946324607B0F0BDD2B201E09B
:100180000270401C491EFBD270470022F6E710B5F2
:1001900013460A4604461946FFF7F0FF204610BDF5
:1001A00010B5202A04DB0146203A9140002010BD02
:1001B000914020239C1A0346E3401943904010BD10
:1001C00010B5202A04DB0846203AD040002110BD9B
:1001D0000B46D340D0402024A21A91400843194630
:1001E00010BD0000064C0125064E05E0E36807CC73
:1001F0002B430C3C98471034B442F7D3FFF764FF0D
:10020000542400087424000810B5034800F077F85F
:10021000024800F074F810BDD801002090010020C1
:1002200030B5446C1C252C400125A540046C65604C
:10023000046863608368102B036803D099600068CA
:10024000C26030BD9A600068C16030BD0A4610B51A
:100250000146044801F0CCFA002801D000F004F86F
:1002600010BD000010010020704730B5014620315C
:100270004A790023022A04D00422C2630B710120B0
:1002800030BD026814680E25AC431460026814681F
:10029000640864001460446C1C221440012215465A
:1002A000006CA54045604A7118460B7130BD70B5B1
:1002B0000024014620314A79022A03D00421C16377
:1002C000012418E0026813680E25AB43136002682E
:1002D00013685B085B001360436C1C22134001220F
:1002E00015469D40036C5D604A7100220A71816B66
:1002F000002900D08847204670BDC06B7047F0B41D
:10030000016C0D6801680C68466C1C2304221E40B9
:100310001746B7402F420ED067070CD50C68A406CD
:1003200002D40C6894430C60416C19408A40016C03
:100330004A60016B1AE00227B74002462F40203284
:10034000002F17D0A70715D50C68A40605D40C6894
:100350000A25AC430C6001215171446C02211C4000
:10036000036CA140596000211171C16A002918D0A5
:10037000F0BC08470827B7402F4212D0240710D5F9
:100380000C680E25AC430C60446C01211C400B46EC
:10039000A340046C6360C163517100211171416B12
:1003A000E4E7F0BC7047000070B504003CD01F4883
:1003B000256814212818FFF79BFE800060641C4804
:1003C00020640221204620300246417129681948E4
:1003D000E3680140A0686669184323693343184302
:1003E000A3691843E3691843236A18430843286044
:1003F0000121A0688903884210D00D488030836AAB
:10040000656C1C210D400F26AE40B3438362656CC2
:1004100063680D40816AAB400B4383620020E06358
:1004200001215171107170BD012070BDF8FFFDBF39
:10043000000002400F80FFFFF8B504468C462030D4
:1004400001790025012909D001260671417900278B
:10045000012905D0077102252846F8BD0220F8BD04
:1004600002214171E7632068016849084900016081
:1004700061462046FFF7D4FE206B00282068016803
:1004800001D00E2205E0042291430160206801683A
:100490000A22114301602068016831430160DBE7F3
:1004A000F8B500230124A2E027469F403A4070D0CF
:1004B0004D68022D01D0122D14D1DD08AD002D188C
:1004C00000952D6A5E07AC46F50E0F26AE46AE408F
:1004D0006546B543AC460E697546AE4065462E434B
:1004E000009D2E624D68012D05D0022D03D0112DE7
:1004F00001D0122D16D185680326AC465D00AE46AC
:10050000AE406546B543AC46CE687546AE406546DE
:100510002E43866046680D79BE43ED06ED0F9D4083
:100520003543456006685F000325BD40AE46AE43D7
:100530000D79B446AE07B60FBE4065462E43066041
:10054000C6687546AE438D68BD403543C5604D688D
:10055000ED004BD5294D6E6B26436E639E08284DEA
:10056000B6007519AC46AD689E07360F0F27B74029
:10057000BD4305273F07B84201D1002715E0214FB1
:10058000B84201D1012710E01F4FB84202D1022723
:100590000BE02BE01D4FB84201D1032705E01C4FB3
:1005A000B84201D1052700E00627B7402F43654632
:1005B000AF60184D2E684F689643FF0300D5164371
:1005C0002E606E684F689643BF0300D516436E6079
:1005D000AE684F689643FF0200D51643AE60EE68E2
:1005E0004F689643BF0200D51643EE605B1C0A6855
:1005F0001546DD4000D057E7F8BD0000001002406E
:10060000000001400004005000080050000C0050A1
:10061000001C005000040140002A01D08161704795
:100620008162704701480068704700000C0000209C
:1006300002480168491C0160704700000C0000205E
:1006400010B508480024016840221143016020468B
:1006500000F00AF8002801D0012401E000F01CF8A5
:10066000204610BD0020024070B5054609487D2196
:100670000024C9000068FFF73BFD00F0C3FC002820
:1006800001D0012404E000222946501E00F01AF88F
:10069000204670BD100000200448416B0122114328
:1006A0004163816B02041143816370470010024073
:1006B000C106C90E0120884001490860704700004A
:1006C00000E100E010B501F0D3F910BDF8B5044623
:1006D0000068614D810601D400057DD55E4E00277E
:1006E000403EB06BC00004D4B06B31040843B0632B
:1006F00001275A480168C90511D4016882151143C0
:100700000160FFF78FFF009005E0FFF78BFF009976
:10071000401A642844D851480068C005F5D53168AE
:1007200003200005626801401040884205D1032380
:10073000A0681B051840884208D09003800F03284A
:1007400004D13068800301D50120F8BD2869032158
:100750000904084029D00A40824202D02278920639
:1007600006D4A2680A4082421FD0208800051CD50A
:1007700028692A6988430121C9040A432A612A6930
:100780008A432A612861C0050FD5FFF74BFF00900F
:1007900008E0FFF747FF0099411A3148814201D92B
:1007A0000320F8BD28698005F3D561688803800FB0
:1007B000032805D132680005824301400A433260B4
:1007C0002869032261681204114008432861002F40
:1007D00006D0B16B012000E002E000078143B16365
:1007E0002078C00705D0E868E168800880000843E9
:1007F000E8602078800705D5E8680C2188432169E6
:100800000843E8602078400706D5E868032189029C
:10081000884361690843E8602078000706D5E868E6
:10082000032109038843A1690843E8602078400652
:1008300006D5E868012189068843216A0843E860F3
:100840002078000606D5E868032189048843E16919
:100850000843E8600020F8BD4010024000700040EE
:1008600088130000F8B50E4605007DD05348006897
:10087000C007C00FB0420AD2504801684908490079
:10088000314301600068C007C00FB04271D12878C1
:100890004B4C800705D5E068F0218843A9680843E0
:1008A000E0602878C00752D06868022817D0032873
:1008B00018D02168012818D08905002959DAE16883
:1008C000890889000143E160FFF7ACFE69680746CB
:1008D000022912D003291CD0012926D033E0216837
:1008E0008903EAE721688901E7E74907E5E7FFF7B8
:1008F00099FEC11B3348814223D8E0680007800F6E
:100900000228F4D123E0FFF78DFEC11B2D48814260
:1009100017D8E0680007800F0328F4D117E0FFF72D
:1009200081FEC11B274881420BD8E0680007800F79
:100930000128F4D10BE0FFF775FEC11B214881426D
:1009400001D90320F8BDE0680007800FF3D11B48F0
:100950000168C907C90FB1420DD9016849084900AA
:1009600031430160006800E003E0C007C00FB042FF
:1009700001D00120F8BD2878400706D5E06807219E
:1009800009028843E9680843E0602878000707D532
:10099000E0680721C90288432969C9000843E0606B
:1009A00000F036F8E168084A0906090F515CC840B2
:1009B000064908600020FFF757FEF8BD00200240FE
:1009C00000100240881300003024000810000020AE
:1009D000044805490068C968044A4905490F515C43
:1009E000C840704710000020001002404924000851
:1009F000044805490068C968044A8904490F515CE4
:100A0000C840704710000020001002404924000830
:100A100010B5184AD1680C20084004280BD00828CB
:100A200010D00C2810D050680004410F0120C003E2
:100A3000491C884010BD1068C00601D50E4810BD85
:100A40000E4810BD0E4810BD88020E4B000F185CFA
:100A50000902D368890F491CDB0301D5084A05E068
:100A60001268D20601D5044A00E0044A5043FFF759
:100A70003FFB10BD0010024000093D000024F400BF
:100A8000001BB70040240008FEB505007ED0FE4CD8
:100A9000E7680C20E668074001200004064028783B
:100AA000C00747D0082F05D00C2F0AD10120000421
:100AB000864206D1206880033CD568680028E5D0CE
:100AC00038E0012069680004814203D121680143B4
:100AD000216011E0052301221B0492049942216840
:100AE00002D111432160F1E7814321602168014077
:100AF0000091206890432060686800280DD0FFF7BF
:100B000091FD009005E0FFF78DFD0099401A6428E3
:100B10007AD820688003F6D50CE0FFF783FD0090BB
:100B200005E0FFF77FFD0099401A6428F0D820689F
:100B30008003F6D42878800755D50923E868042F68
:100B40000DD00C2F01D1002E09D000283BD02168F8
:100B5000994301432160FFF765FD064627E02168C0
:100B6000490701D5002891D061681F2212029143E4
:100B70002A6912021143616021689943014321608F
:100B8000FFF746FFE16809060A0F00E0BBE1BF4935
:100B9000895CC840BE4908600020FFF765FD002859
:100BA00072D120E0FFF73EFD801B0228B0D82068FC
:100BB0004007F7D560681F210902884329690902A7
:100BC000084360600FE02068400840002060FFF7A5
:100BD00029FD064604E0FFF725FD801B022897D873
:100BE00020684007F7D42878C0065FD5002F0CD0C6
:100BF000E869002849D02068FF21013108432060BE
:100C0000FFF710FD06462DE0E4E02068800502D5E0
:100C1000E8690028A7D06068072149038843696A0A
:100C2000084360606068298C0002000A09060843D6
:100C30006060686A410B0120C003491C8840E1687C
:100C400009060A0F9149895CC84091490860002053
:100C5000FFF70AFD002817D128E0FFF7E3FC801B0F
:100C60000228A3D820688005F7D5606807214903CA
:100C70008843696A084360606068298C0002000A42
:100C800009060843606011E023E12168FF2001307C
:100C900081432160FFF7C6FC064604E0FFF7C2FC73
:100CA000801B02289BD820688005F7D42878794ECD
:100CB000000724D568690028306910D00121084355
:100CC0003061FFF7AFFC009005E0FFF7ABFC009947
:100CD000401A02287ED830698007F6D50FE0400818
:100CE00040003061FFF79EFC009005E0FFF79AFCA2
:100CF0000099401A02286DD830698007F6D4287808
:100D0000400764D500200290A06BC00006D4A06B01
:100D1000012109070843A063012002905E48016891
:100D2000C90511D40168821511430160FFF77AFCEF
:100D3000009005E0FFF776FC0099401A642849D836
:100D400055480068C005F5D5FF20AA6801308242E9
:100D500003D131690143316111E001218902002A87
:100D600007D005231B029A4203D132690A4332613C
:100D7000EFE7326982433261306988433061A868A5
:100D800000280ED0FFF74EFC009006E0FFF74AFC6B
:100D90000099411A414881421CD830698005F5D537
:100DA0000DE0FFF73FFC009006E0FFF73BFC0099E9
:100DB000411A3A4881420DD830698005F5D402982D
:100DC000002804D0A16B012000078143A16328788B
:100DD000800600E07CE02ED53148A9694314002943
:100DE00016D0A26801210A43A260626B0A436263C3
:100DF000016A19430162FFF715FC064604E0FFF79C
:100E000011FC801B022863D8A0688007F7D512E088
:100E1000A16849084900A160016A99430162FFF78E
:100E200001FC064604E0FFF7FDFB801B02284FD8BB
:100E3000A0688007F7D4A86A002866D00C2F4DD090
:100E4000012636060228206805D0B0432060FFF74F
:100E5000E9FB05463EE0B0432060FFF7E3FB0746B1
:100E600004E0FFF7DFFBC01B022831D820688001B7
:100E7000F7D4296BE86AE2680843696BFD231B0419
:100E80009A43114308430DE000100240302400084B
:100E90001000002040100240007000408813000045
:100EA00000000140E060206830432060FFF7BAFB9B
:100EB000054604E0FFF7B6FB401B022808D820686F
:100EC0008001F7D521E0FFF7ADFB401B022801D9D7
:100ED0000320FEBD20688001F5D416E00128F8D07B
:100EE000E06801210904EA6A014091420BD10F2117
:100EF00089042A6B0140914205D1032189050840EC
:100F0000696B884201D00120FEBD0020FEBD70B596
:100F1000040007D0002625464035A662687C0028DC
:100F200002D005E0012070BD2E74204600F030F89C
:100F30000220687420680168402291430160A16822
:100F4000606822690843E16811430843616901222E
:100F50000843A169520211400843E1690843216A2C
:100F60000843A16A084321680860A0690421000CB5
:100F70000840616A0843216848602068C16992009E
:100F80009143C161666501206874002070BD000056
:100F900010B586B0044614216846FFF7F6F81049EC
:100FA0002068884219D10F48816B012292031143B6
:100FB0008163C26A02210A43C262C06A0191084089
:100FC0000590072040030090002103200291049126
:100FD000039069460448FFF763FA06B010BD0000AD
:100FE0000038004000100240000400500422044970
:100FF0000428086902D09043086170471043FBE75A
:1010000000E000E0094910B5401E884201D90120E6
:1010100010BD074C60610321081F00F029FD00206E
:10102000A06107202061002010BD0000FFFFFF002D
:1010300000E000E0F0B502462032137E012B15D00F
:10104000012717760223537605686C68AB68702613
:10105000B4430E68496826438024A34319436E6055
:1010600000688160577600201076F0BD0220F0BD48
:10107000704770B50446006801690025C9438907B7
:10108000002915DBC168C943890711D4E91E016134
:1010900001202076206880698007204602D0FFF773
:1010A000E7FF04E000F09EF8204600F035F92576D1
:1010B00020680169C943490717D4C168C943490772
:1010C00013D40421C943016102202076206880697D
:1010D0008005800F204602D0FFF7CAFF04E000F031
:1010E00081F8204600F018F9257620680169C94387
:1010F000090716D4C168C943090712D40821C94396
:101100000161042020762068C0698007204602D053
:10111000FFF7AEFF04E000F065F8204600F0FCF8B1
:10112000257620680169C943C90617D4C168C94337
:10113000C90613D41021C943016108202076206814
:10114000C0698005800F204602D0FFF791FF04E0C0
:1011500000F048F8204600F0DFF8257620680169A5
:10116000C943C90708D1C168C943C90704D1891E49
:101170000161204600F0FAF820680169C943490678
:1011800009D4C168C943490605D44021C943016156
:10119000204600F0ECF870BD10B586B0044614216E
:1011A0006846FEF7F2FF012120688907884214D1C2
:1011B0000B48C16A01221143C162C06A022110407A
:1011C0000590072000900020029003900191049167
:1011D000052069460007FFF763F906B010BD00005F
:1011E000001002407047F8B5064604462036307EAF
:1011F0000D4601280DD0012030760220707604279C
:10120000002A08D0042A16D0082A2AD00C2A4DD148
:1012100037E00220F8BD206800F0FAFC2068816900
:1012200008221143816120688169B9438161206886
:101230008169EA6812E0206800F002FD2068826996
:101240000121C9020A438261206881690122920258
:101250009143816120688169EA68120211438161CA
:1012600024E0206800F005FD2068C26908210A43D7
:10127000C2612068C169B943C1612068C169EA6877
:1012800012E0206800F010FD2068C1690122D2023E
:101290001143C1612068C269012189028A43C26188
:1012A0002068C169EA6812021143C16101207076A9
:1012B00000203076F8BD70B5040005D025462035F5
:1012C000687E002802D006E0012070BD002028764C
:1012D000204600F00BF802206876211D206800F0FF
:1012E0005DFC01206876002070BD000010B500682C
:1012F0000121890788420CD10648816B01221143E4
:101300008163002211460F20FFF7DCF90F20FFF761
:10131000CFF910BD00100240704710B502680446B6
:10132000002906D0042907D0082919D00C2907D193
:1013300019E0D068022301E0D06804231843D0608C
:101340000122206800F056FC206881684907490F97
:10135000062903D00168012211430160002010BD5D
:10136000D0680823EAE7D0681023E7E770477047A2
:10137000704770B5416F0446856F0068826810261B
:101380001206002A14DA212912D1816880229143A1
:101390008160A06E002808D0FEF767FF002804D007
:1013A000A06EFEF7AAFF20281DD0204600F0ABFD5E
:1013B00020688168490614D5222D12D18168402207
:1013C00091438160E06E002808D0FEF74EFF0028B0
:1013D00004D0E06EFEF791FF202804D0204600F0F4
:1013E00082FD002070BDE667032070BD70470000DD
:1013F000F8B502680446D0691168936805072D0F97
:101400005BD0DD07ED0FFF2621360E402E4367D05F
:10141000C60706D0CE0504D501261662E26F324318
:10142000E267870702220426002F06DADF0704D0CE
:1014300027683A62E76F3743E767470706D5DB0758
:1014400004D023681E62E36F1343E367020709D5E4
:1014500020220A402A4305D0236808221A62E36F3B
:101460001343E367E26F002A2FD0800606D5880673
:1014700004D5216E002901D020468847E06F2168FD
:101480008968490601D4000724D5204600F02BFDC9
:1014900020688168490619D581684022914381609E
:1014A000E06E002812D020498163E06EFEF7FFFE57
:1014B00000280AD0E06E816B06E0850610D58D0607
:1014C0000ED5216E1CE020468847F8BD2046FFF768
:1014D0008DFFF8BD2046FFF789FF0020E067F8BDCB
:1014E000C50208D55B0206D5012000051062204622
:1014F000FFF73EFFF8BD030605D50B0603D5616E69
:101500000029E0D1F8BD4006FCD54806FAD513689D
:10151000204640218B4313602021616700216166D2
:1015200000F0BCF9F8BD0000091E000810B5040069
:1015300003D0606F002802D007E0012010BD002119
:1015400070200155204600F027F8242060672068AD
:101550000168490849000160204600F0DDFC0128CF
:10156000ECD0606A002802D0204600F0B8FB20686A
:1015700041680922D20291434160206881682A2291
:101580009143816020680168012211430160204677
:1015900000F00AFC10BD0000F0B587B0064614212B
:1015A0006846FEF7F2FD2B493068884250D12A4840
:1015B000416B0122920311434163C16A012211432D
:1015C000C162C06A002410400590032040020090D0
:1015D0000220032701A991C1042004900520694637
:1015E0000007FEF75DFF1E4D1C48AC60EC6081C536
:1015F000EC602C6180276C61AF60AC611848083DDD
:10160000FEF7D2FE002801D0FEF72EFEF566AE6290
:10161000134D124848351438286003206860294665
:101620001020083191C16C61AC61EC6128462C62DC
:10163000FEF7BAFE002801D0FEF716FEB5660022BE
:1016400011461B20AE62FFF73DF81B20FFF730F874
:1016500007B0F0BD003801400010024030000240E9
:1016600090010020F8B50446806F20284DD1002954
:101670000BD0002A09D00123A0681B03984206D191
:101680002069002803D1C80701D00120F8BD2546F4
:101690006035287C012838D00120287458206165E5
:1016A00002530026E6672220A067E06E002819D0CA
:1016B0001749C162E16E17480863E16E1648486336
:1016C000E06E13468663676D21683A462431E06E0A
:1016D000FEF7B2FE002805D01020E0672E7420200F
:1016E0006067D2E72E7420680168FF22013211433F
:1016F000016020688168012211438160206881684F
:101700004022114381600020F8BD0220F8BD000096
:10171000651E0008A31E00081D1E000870477047C4
:10172000FFB50446406F83B017460D4620285CD1B4
:10173000002D0AD0002F08D0A168C001814207D136
:101740002069002804D1E80702D0012007B0F0BDCD
:10175000204660300290007C012846D0029801218A
:1017600001740020E06721206067FEF75BFF2646DA
:1017700040360190378277820120A16800038142C0
:1017800002D12069002802D02F46002511E0002751
:101790000FE000228021204600F0D2FC002815D165
:1017A000002F15D02168387888627F1C708A401E0F
:1017B0007082708A019B002806980090E9D100226F
:1017C0004021204600F0BCFC002808D00320BDE7E3
:1017D00028882168C005C00D8862AD1CE6E720207E
:1017E0006067029900200874B0E70220AEE70000AD
:1017F000F8B50446406F202847D100290BD0002AB5
:1018000009D00123A0681B03984206D12069002853
:1018100003D1C80701D00120F8BD25466035287CDA
:10182000012832D00120287420464030E164028231
:1018300042820026E66721206067A06E002819D04A
:101840001349C162A16E13480863A16E1248486330
:10185000A06E134686632768E16C3A462832A06E74
:10186000FEF7EAFD002805D01020E0672E74202046
:101870006067D0E72168402008622E742068816884
:101880008022114381600020F8BD0220F8BD0000D5
:10189000AD1E0008DD1E00081D1E000870477047C1
:1018A000FEE7000008B50848016B012211430163FF
:1018B000006B10400022009011460A20FEF702FF44
:1018C0000A20FEF7F5FE08BD00100240F0B587B013
:1018D00014216846FEF759FC1B48C26A04210A43DA
:1018E000C262C26A0A400592C26A80210A43C26289
:1018F000C26A0A400592C16A01242143C162C16AD9
:1019000021400591C16A02252943C162C06A0F4F77
:10191000284026030590224631463846FEF77CFED5
:101920006003009000200190029069460848FEF78D
:10193000B7FD019469463846009603950294FEF778
:10194000AFFD07B0F0BD00000010024000040050E1
:101950000008005010B50E480C490160FF21053108
:10196000416000218160C16001614161C16101226A
:10197000016252024162826181620721C162FFF706
:10198000C6FA002801D0FEF76FFC10BD00380040F9
:101990001800002010B586B00024059401212348CA
:1019A00004940094019402948907039401601F2118
:1019B000846041601E490461C16080214161FFF77C
:1019C0007AFC002801D0FEF74FFC049404A91748C4
:1019D0000594FFF72FFB002801D0FEF745FC60209F
:1019E00000900220029001940022694603940F485F
:1019F000FFF7F9FB002801D0FEF736FC0422694608
:101A00000A48FFF7F0FB002801D0FEF72DFC082262
:101A100069460648FFF7E7FB002801D0FEF724FCE3
:101A20000248FFF7B9FB06B010BD000070000020AF
:101A3000E703000010B50C480A490160E1214902A2
:101A4000416000218160C16001618161C1610C223E
:101A5000016242614162FFF769FD002801D0FEF793
:101A600003FC10BD00380140100100207047000049
:101A70008307FF22DB0E9A408907090E9940002850
:101A80000BDA0007000F0838830808489B00181875
:101A9000C36993430B43C3617047830804489B00A9
:101AA0001B181868904308431860704700ED00E069
:101AB00000E400E07047704710B5FEF7B9FD10BDB7
:101AC00030B59DB038216846FEF75FFB142117A89A
:101AD000FEF75BFB24210EA8FEF757FB14480168B4
:101AE0000322D2029143C21489180160500101906F
:101AF0000B900320022180040C900125880500959D
:101B00000D900A916846FEF7BFFF0F201790002442
:101B10000320189019941A9401211B9417A8FEF71A
:101B2000A1FE0EA80E951194FEF7D0FD1DB030BD9C
:101B30000070004010480168821511430160C168BF
:101B40000E4A1140C16001680D4A11400160816870
:101B500049084900816001680122920491430160B3
:101B6000C168FD2212049143C16000210161054951
:101B7000C003886070470000001002400C40FF88DE
:101B8000F6FFF6FE00ED00E010B500F040F8024868
:101B9000FFF76FFA10BD00007000002070B50268FA
:101BA00001239B07114C124D984203D0A04201D053
:101BB000A84203D17026B2434E683243984203D004
:101BC000A04201D0A84204D103231B029A43CB6850
:101BD0001A4380239A430B691A4302608A68C262DF
:101BE000096881620121416170BD00000008014067
:101BF0000014014010B5CB06DB0E0121046A9940A8
:101C00008C430462016A9A401143016210BD70471F
:101C100030B5026A520852000262026A456883695E
:101C20007024A3439C080B68A40023430224A2430E
:101C30008C6845601443836149684163046230BD28
:101C400030B5026A10239A430262036A45688269CA
:101C500073242402A2430C682402144320229343D9
:101C60008A68456012011A4384614968816302628F
:101C700030BD30B5026AFF2301339A430262026A23
:101C80004568C3697024A3439C080B68A4002343E0
:101C900001246402A2438C68456024021443C3619A
:101CA0004968C163046230BD30B5026A01231B0379
:101CB0009A430262036A4568C26973242402A243FC
:101CC0000C68240214430122520393438A6845603E
:101CD00012031A43C46149680164026230BD10B541
:101CE000818CC90707D001684A6801235B049A43C5
:101CF000836A1A434A60818C890707D501684A685C
:101D000001231B049A43C36A1A434A60818C490722
:101D100007D501684A6801239B049A43036B1A4361
:101D20004A60818C090707D501684A680123DB03F3
:101D30009A43436B1A434A60818CC90607D50268EF
:101D4000916801231B039943836B19439160818C34
:101D5000890607D501688A6801235B039A43C36B30
:101D60001A438A60818C490612D503685A6801219A
:101D70000905046C8A4322435A60026C8A4207D1E7
:101D80000268516803235B059943436C1943516012
:101D9000818C090607D501684A680123DB04806C41
:101DA0009A4302434A6010BDF8B500260446C66750
:101DB000FEF738FC054620680068124F000709D579
:101DC00001212B46002249052046009700F0B8F972
:101DD00000280DD12068006840070BD501212B4653
:101DE000002289052046009700F0AAF9002801D0BA
:101DF0000320F8BD20206067A067603426740020AF
:101E0000F8BD0000FFFFFF0110B5806A0022014607
:101E100040314A834A82FFF7E9FA10BD70B5846AFF
:101E2000606FA56F2168896800260906002906DA17
:101E3000212804D152200653204600F064F820687F
:101E40008068400606D5222D04D15A20065320462C
:101E500000F049F8E06F10210843E0672046FFF7E3
:101E6000C5FA70BD10B501460968806A096889061F
:101E700014D400225A210A5201680A68FF23013350
:101E80009A430A6001688A68520852008A600168B1
:101E90008A6840239A438A6020218167FFF73EFCCD
:101EA00010BD10B5806AFFF73AFC10BD10B50146B1
:101EB0000968806A096889060DD4002252210A52F5
:101EC00001688A6880239A438A600068016840221A
:101ED0001143016010BDFFF7E1FC10BD10B5806A31
:101EE000FFF7DDFC10BD01680A68FF2321339A4328
:101EF0000A6001688A68520852008A60202181675E
:101F000000210166704701680A68C0239A430A608D
:101F10002021416770470000F8B504462669A26891
:101F2000E76932436669102000253E432368324347
:101F300078491E68784F3E4016431E6023685A68F1
:101F400003263603B243E66832435A602368A26927
:101F50008B4201D0266A32439E680B273F02BE4364
:101F600016439E606D4E23686D4AB3420CD1D26811
:101F70009207920F06D0012A38D0022A34D0032AC1
:101F800020D11EE001201DE0664EB3420AD1D26886
:101F90000C26324026D0042A28D0082A24D00C2A25
:101FA00010D10EE08B420DD1D6680322920216406A
:101FB00018D001229202B61A18D0B61A14D096423E
:101FC00000D10820564A0126403A574FF6038B426B
:101FD00036D100280CD002280DD0042812D00828B1
:101FE0001FD11CE00020EDE70220EBE70420E9E729
:101FF000FEF7EEFC08E01068C00601D5384605E0A3
:102000004A4803E0FEF704FD002873D062685100DF
:102010005118814205D81103814202D303E03046B2
:10202000F4E7012566E0010E06025008002330188F
:102030005941FEF773F803210902411A3C4A55E061
:10204000E169B14232D1030000F0F4F809070A0D4A
:1020500006250606062B0600E3E7FEF7B9FC1CE0A2
:10206000FEF7C6FC19E010686168C00602D5480892
:10207000304A01E0304A48088018FEF739F880B24B
:1020800001462E4A10399142CBD8511C014000071D
:10209000400F08432CE0FEF7BBFC616840004A0893
:1020A000EAE76168012248081204E5E7030000F04E
:1020B000C1F809070A0D06260606062C0600B0E739
:1020C000FEF786FC1DE0FEF793FC1AE010686168DD
:1020D000C00602D54808C01902E014484A08101882
:1020E000FEF706F880B20146144A1039914298D89A
:1020F0002168C8600020206660662846F8BDFEF7AB
:1021000087FC61684A088018EAE761684808801916
:10211000E6E7000000480040F369FFEF00380140A7
:10212000401002400044004000093D000024F4003B
:10213000FFFC0F0000127A000048E801EFFF0000EA
:10214000FFB581B017460E4604460A9D09E0681C9B
:1021500007D0FEF767FA0499401AA8420CD8002D60
:102160000AD02068C1693046884318D00020B842A0
:10217000EDD0002005B0F0BD20680168FF22A1323B
:1021800091430160206881684908490081602020EE
:102190006067A0670020603420740320EAE7012014
:1021A000E5E7000010B500F01FF80248FFF720F93E
:1021B00010BD00001001002010B5094C217809481D
:1021C000FEF744F800202070607021780548FDF784
:1021D000DCFF044964228818FFF744FA10BD0000B0
:1021E00008000020AC00002010B50B480068C16951
:1021F000C906C90F0ED0102101620748FFF7B9F8D0
:1022000005488030006840686421091A034801705D
:102210000121417010BD00001001002008000020C5
:1022200010B5024A024900F021F810BDF122000861
:102230001400002030B47446641E2578641CAB4240
:1022400000D21D46635D5B00E31830BC184702E016
:1022500008C8121F08C1002AFAD170477047002031
:1022600001E001C1121F002AFBD17047F8B51646E4
:102270000F460446002503E03946B047641C6D1C38
:1022800020780028F8D12846F8BD000010B5044693
:102290000420FEF7ABFE0148046010BD00000020E2
:1022A00070B500247D260546F60003E0304600F0B8
:1022B00005F8641CAC42F9D370BD000070B50A4C3F
:1022C000002365690949A26909684843A1699142E7
:1022D000FCD0914201D2521A01E06E1AB218D31802
:1022E0000A468342F2D370BD00E000E00000002007
:1022F00013B5044B012269460348FFF711FA009811
:102300001CBD0000FFFF000010010020FEF798F93F
:10231000FFF7D6FBFFF7DAFAFFF7C4FAFFF71AFB6D
:10232000FFF788FBFFF736FB2020FFF7AFFF3848A9
:102330000068016810221143016064223549344865
:10234000FFF790F900213448FEF7E7FF04213248F7
:10235000FEF7E3FF08213048FEF7DFFF2FA0FFF76D
:102360005FFF00272C4E304C7D25ED002760316843
:10237000206848630120FFF793FF2068401C20601D
:10238000A842F4DB27603168206888630120FFF7EA
:1023900087FF2068401C2060A842F4DB276031687A
:1023A0002068C8630120FFF77BFF2068401C206085
:1023B000A842F4DB276020683168281A48630120AE
:1023C000FFF76EFF2068401C2060A842F3DB276007
:1023D00020683168281A88630120FFF761FF2068B0
:1023E000401C2060A842F3DB276020683168281A6F
:1023F000C8630120FFF754FF2068401C2060A842FA
:10240000F3DB0A4800780028B0D0FFF7D5FEADE72F
:1024100010010020AC0000207000002053544D3308
:10242000324C3035330D0A00040000200900002032
:102430000000000000000000010203040607080974
:10244000030406080C1018203000000000010203ED
:1024500004000000742400080000002018000000A0
:102460004E2200088C2400081800002008060000F6
:102470005E220008000000000000000000000000D4
:0C24800000000000000020000000000030
:04000005080000C12E
:00000001FF
