:020000040800F2
:1000000018180020D5010008B71F0008851E000839
:10001000B51F0008FD050008E924000800000000E5
:10002000000000000000000000000000492000085F
:100030006906000800000000B91F00084B200008F6
:10004000EF010008EF010008EF010008EF010008D0
:10005000EF010008EF0100086D060008EF0100083D
:10006000EF010008EF010008EF010008EF010008B0
:10007000EF010008EF010008010600080D06000866
:10008000EF010008EF010008EF010008EF01000890
:10009000EF010008EF010008EF010008EF01000880
:1000A000EF010008AD200008EF010008EF01000893
:1000B000EF010008EF010008EF010008EF01000860
:1000C000EF010008EF010008EF010008EF01000850
:1000D000EF010008D5240008EF010008EF01000837
:1000E000EF010008EF010008EF010008EF01000830
:1000F000EF010008EF010008EF010008EF01000820
:10010000EF010008EF010008EF010008EF0100080F
:10011000EF010008EF010008EF010008EF010008FF
:10012000EF010008EF010008EF010008EF010008EF
:1001300000F002F800F03FF80AA090E8000C8244BA
:100140008344AAF10107DA4501D100F034F8AFF297
:10015000090EBAE80F0013F0010F18BFFB1A43F0A5
:1001600001031847B8260000D8260000103A24BF23
:1001700078C878C1FAD8520724BF30C830C144BF0C
:1001800004680C607047000000230024002500264E
:10019000103A28BF78C1FBD8520728BF30C148BFEA
:1001A0000B607047782900F07D80002070471FB5F4
:1001B0001FBD10B510BD00F0EFF91146FFF7F7FFB6
:1001C00002F002FA00F00DFA03B4FFF7F2FF03BCED
:1001D00002F0DDF90948804709480047FEE7FEE7DD
:1001E000FEE7FEE7FEE7FEE7FEE7FEE7FEE7FEE7E7
:1001F00004480549054A064B70470000AB2000083B
:1002000031010008181200201818002018140020CE
:10021000181400207047B2F120030AD5C2F1200360
:1002200020FA02F001FA03F321FA02F140EA030096
:10023000704721FA03F04FF0000170470FB40449F2
:1002400010B503AA029800F079F910BC5DF814FB10
:100250000800002070B5044685690068C10601D514
:10026000302600E02026C00707D070BDD4E9012168
:1002700030469047206A401C20626D1EF6D570BD46
:1002800070B5044685690078C00707D170BDD4E910
:10029000012120209047206A401C20626D1EF6D567
:1002A00070BD000070B504460D4621461068AFF3DE
:1002B00000802188090502D50F4A7A4402E00E4ADF
:1002C0007A440E32002104F1240305E000F00F0609
:1002D0000009965D5E54491C0028F7D12078002360
:1002E000000704D5702D02D009B102231132204637
:1002F000BDE8704000F0C9B8222500002DE9F05F8C
:10030000894604464FF0000ADFF824B1FB44C0F8E8
:1003100020A02046E168884700287DD0252806D007
:10032000D4E901219047206A401C2062F1E70025B2
:100330005F462046E16888472028064607DB312EC5
:1003400005D2B81910F8200C08B10543F1E7A80749
:1003500001D525F00405C4F81CA00027C4F818A096
:100360002A2E09D0304602F00BF938B304EB870887
:10037000303EC8F8186019E059F8041B204604EB19
:1003800087029161E1688847012F064618D1E0692C
:10039000002820DA25F020051DE0D8F8180000EB31
:1003A000800006EB40003038C8F818002046E168AD
:1003B0008847064602F0E4F80028EED1012F0AD063
:1003C0002E2E08D12046E16888477F1C0646022F62
:1003D00045F02005C4DBA069002803DA404245F05F
:1003E0000105A061E80701D025F01005A6B1A6F12E
:1003F0004100192802D8203645F400654A463146A6
:10040000204625604D46FFF7CDFE60B1012807D09C
:10041000ED1D25F0070000E007E000F1080978E78E
:1004200005F1040975E730467AE7206ABDE8F09FD8
:10043000F82400004FF0000200B51346944696469B
:10044000203922BFA0E80C50A0E80C50B1F12001E7
:10045000BFF4F7AF090728BFA0E80C5048BF0CC095
:100460005DF804EB890028BF40F8042B08BF7047F3
:1004700048BF20F8022B11F0804F18BF00F8012B65
:10048000704770477047704770472DE9F0470D4639
:1004900099469246044600F124080168880604D56E
:1004A000E06921F01001216000E00120A84201DD97
:1004B000471B00E00027A1697A1902EB0900081A1E
:1004C000A0612078C00602D42046FFF7C3FE0026B4
:1004D00008E0D4E901211AF806009047206A401C80
:1004E000761C20624E45F4DB2078C0060AD52046F3
:1004F000FFF7B0FE06E0D4E9012130209047206AE2
:10050000401C2062381EA7F10107F4DC07E0D4E9A3
:10051000012118F805009047206A401C2062281E1F
:10052000A5F10105F3DC2046FFF7AAFE20780006BE
:1005300002D50220BDE8F0870120FBE7074B70B52C
:100540000D467B4400F011F80446284600F020F8E0
:1005500010B14FF0FF3070BD204670BD6B20000021
:1005600001694A1C02610878704700B58FB0CDE977
:1005700001310021059105497944CDE90310114667
:100580006846FFF7BBFE0FB000BD0000E5FFFFFFB0
:10059000007B00F080007047754600F02BF8AE46F7
:1005A00005006946534620F00700854618B020B57F
:1005B000FFF71EFEBDE820404FF000064FF0000799
:1005C0004FF000084FF0000B21F00701AC46ACE8FB
:1005D000C009ACE8C009ACE8C009ACE8C0098D4668
:1005E000704710B50446AFF300802046BDE81040C8
:1005F000FFF7EABD00487047B8110020FEE7000091
:10060000014800F089B9000054110020014800F0B1
:1006100083B900001011002030B590F8405001243B
:10062000AC40C56B6C60046863604368102B036862
:1006300003D099600068C26030BD9A600068C160F4
:1006400030BD000010B500290AD00A460146054811
:1006500001F0D6FB002803D0BDE8104000F014B82C
:1006600010BD0000CC100020704700000548016854
:10067000C90705D0016841F00101016001F036BFF2
:10068000704700001404014072B6FEE706490020DE
:10069000C8610648016941F004010161016941F046
:1006A00040010161704700009811002000200240C5
:1006B000064A0021D16106490A6942F002020A6134
:1006C0004861086940F040000861704798110020B7
:1006D00000200240044B0022DA61044A136943F00F
:1006E000010313610180704798110020002002402F
:1006F00014480022C168CB06134904D5CA6942F0E8
:100700000202CA611022C3685B0705D5CB6943F0BA
:100710000103CB6142F00402C369DB0707D0CB6958
:1007200043F00403CB61C16921F00101C161A2F56D
:100730008071013901D0C2607047C16921F00101A7
:10074000C1617047002002409811002070B5054635
:1007500000F038FC0646114C09E0681C07D025B1B2
:1007600000F030FC801BA84201D9032070BDE06876
:10077000C007F2D1E068800601D52020E060E06883
:10078000C00605D4E069C00702D1E068400703D580
:10079000FFF7AEFF012070BD002070BD00200240B9
:1007A00010B590F821100022022905D004218163A0
:1007B00080F82020012010BD01680B6823F00E0393
:1007C0000B6001680B6823F001030B6090F8403068
:1007D000C46B012101FA03F3636080F8211080F8F3
:1007E0002020104610BD00002DE9F05F90F8211088
:1007F0000024022903D004218163012485E00168DB
:100800000A6822F00E020A6001680A6822F00102FA
:100810000A603F4E3E4FB215DFF8F4C0DFF8F090AB
:10082000DFF8ECA0DFF8E8B0DFF8E4E00168783F3B
:1008300013011502ACF1640CA9F15009AAF13C0AAC
:10084000ABF1280BAEF1140E4FF48018B14227D94A
:10085000B9420ED0614512D049451DD0514518D03E
:10086000594518D0714501D1424615E0294EB14293
:1008700001D1012210E0274E1436B14201D11022DD
:100880000AE0244E2836B14206D0224A3C32914238
:1008900001D11A4600E02A461E49091F0A602BE0D2
:1008A000B94213D0614517D0494522D051451DD0DA
:1008B00059451DD0714501D142461AE0B14202D1DD
:1008C0004FF0807215E0134EB14201D1012210E0C9
:1008D000104E1436B14201D110220AE00D4E2836D6
:1008E000B14206D00B4A3C32914201D11A4600E097
:1008F0002A46074980394A60012180F821100021E9
:1009000080F82010416B01B188472046BDE8F09F78
:1009100080000240080402402DE9F05FC16B0A68C4
:1009200001680B68046C4FF0040808FA04F8844D61
:10093000844E854FDFF814C2DFF81492DFF814A25A
:10094000DFF814B2DFF814E218EA020F65D05FEAAC
:10095000437862D50A68920603D40A6822F004023A
:100960000A60DFF8F0814FF48062016808F1140832
:1009700013011402414524D9A9420DD0B1420FD030
:10098000B9421AD0614515D0494515D0514501D11C
:10099000120312E0594501D104220EE0714501D144
:1009A00040220AE06D4D1435A94206D06B4A283228
:1009B000914201D11A4600E022466749091F0A60A8
:1009C00029E0A94213D0B14215D0B94220D06145E7
:1009D0001BD049451BD0514502D14FF4800217E08E
:1009E000414502D14FF0806212E0594501D1042205
:1009F0000EE0714501D140220AE0584D1435A9425C
:100A000006D0564A2832914201D11A4600E02246C9
:100A10004B4908394A60C16A71E04FF0020808FA90
:100A200004F818EA020F70D05FEA83786DD50A687F
:100A3000920606D40A6822F00A020A60012180F8B0
:100A40002110DFF810814FF40072016808F11408DA
:100A500013011402414524D9A9420DD0B1420FD04F
:100A6000B9421AD0614515D0494515D0514501D13B
:100A7000120312E0594501D102220EE0714501D165
:100A800020220AE0354D1435A94206D0334A2832D7
:100A9000914201D11A4600E022462F49091F0A60FF
:100AA00029E0A94213D0B14215D0B94220D0614506
:100AB0001BD049451BD0514502D14FF4001217E01D
:100AC000414502D14FF0007212E0594501D1022296
:100AD0000EE0714501D120220AE0204D1435A942D3
:100AE00006D01E4A2832914201D11A4600E0224621
:100AF000134908394A60002180F82010816A0029D2
:100B00001CD0BDE8F05F0847FFE70825A540154267
:100B100014D01A0712D50A6822F00E020A6090F863
:100B20004020C36B012101FA02F25A60816380F810
:100B30002110002180F82010016BE0E7BDE8F09F54
:100B4000080002401C000240300002404400024005
:100B5000580002406C000240080402401C0402409D
:100B600030B560B11A4B026814219A4209D2194B70
:100B70001344B3FBF1F18900016417490AE0012035
:100B800030BD134B5B421344B3FBF1F189000164A8
:100B90000F490839C163022180F82110136843F618
:100BA000F0718B43F0E901142143D0E902452C4355
:100BB0002143046921434469214384692143194342
:100BC000116000214163012242770177084630BD60
:100BD00008040240F8FFFDBF0000024070B5044663
:100BE00090F82000002501280CD0012084F8200076
:100BF00094F821600020012E06D084F82000022500
:100C0000284670BD022070BD022684F82160A063D2
:100C10002068066826F0010606602046FFF7FCFC07
:100C2000E06A00282068016802D041F00E0106E069
:100C300021F0040101602068016841F00A010160AF
:100C40002068016841F001010160D9E72DE9F04712
:100C5000054626480F460126017E01290FD00121B5
:100C6000814601762868DFF888804CF250340228EB
:100C700008D0A2462046FFF769FDA8B131E0022066
:100C8000BDE8F0872046FFF761FD08BB0120FFF7B4
:100C9000FDFC2046FFF75AFDD8F81010064621F05B
:100CA0000401C8F810101CE04FF0FF303860AC6849
:100CB00011E02046FFF7FCFC5046FFF747FDD8F84F
:100CC0001010060021F00201C8F8101001D03C609D
:100CD00007E004F50064D5E9020100EBC120A04261
:100CE000E7D8002189F818103046C9E7981100208C
:100CF000002002400348016941F0800101610020A9
:100D000070470000002002402DE9F05F07461C48B4
:100D100088460024017E15461E46012909D001217E
:100D2000814601764CF2503A5046FFF70FFD18B15C
:100D300022E00220BDE8F09F012F02D0022F00D058
:100D40000427D346DFF83CA0220128463146FFF7AE
:100D500062FA81B208EB4400FFF7BCFC5846FFF78B
:100D6000F5FCDAF8102022F00102CAF8102018B9B8
:100D7000641CE4B2BC42E7D3002289F81820D9E70A
:100D80009811002000200240064900200A6912063E
:100D900007D5054A4A60054A4A600969090600D52F
:100DA000012070470020024023016745AB89EFCD49
:100DB0002DE9F84FDFF8C891002409F1040A0AF17F
:100DC000040B23460F270BF1040ED1E00125A540AB
:100DD00006EA0502AA4276D1DFF8A8C14E68A6EB62
:100DE0000C0866452BD00DDC032E34D005DC36B361
:100DF000012E19D0022E2FD11BE0112E16D0122E4B
:100E00002AD119E0B8F5881F19D006DCB8F5803F63
:100E100015D0B8F5801F1FD111E0B8F5001F0ED016
:100E2000B8F5041F18D10AE0CB6815E0CB681B1D8C
:100E300012E0CB6808330FE0CB680C330CE08B6812
:100E40002BB1012B4FF0080303D0456104E00423CC
:100E500002E0056100E00023FF2A01D8064601E018
:100E600000F104064FEA840501D9A5F12005D6F862
:100E7000008007FA05FC28EA0C0803FA05F548EAA1
:100E80000508C6F800804D68ED0070D53E4DAE698E
:100E900046F00106AE61AD6924F0030605F00105D8
:100EA00000953A4D06EB050CDCF80850A607360F06
:100EB00007FA06F825EA0805DFF8D480404503D193
:100EC0004FF0000825E052E0DFF8C880404502D12D
:100ED0004FF001081DE0DFF8C080404502D14FF01F
:100EE000020816E0DFF8B480404502D14FF0030855
:100EF0000FE0DFF8AC80404502D14FF0040808E075
:100F0000DFF8A080404502D14FF0050801E04FF026
:100F1000060808FA06F848EA0508CCF808804D6883
:100F2000D9F80060ED034D4601D5164300E0964325
:100F30002E604D68DAF80060AD03554601D51643C2
:100F400000E096432E604D68DBF80060ED025D46E0
:100F500001D5164300E096432E604D68DEF8006030
:100F6000AD02754601D5164300E096432E60641C21
:100F70000A681646E2407FF429AFBDE8F88F00000A
:100F80000004014000001110001002400000014068
:100F900000080140000C0140001001400014014015
:100FA00000180140001C0140C26821EA02030A4007
:100FB00043EA0241016170470AB1016170470904C7
:100FC000FBE7000001488068704700001000002027
:100FD0000248816802781144816070471000002047
:100FE000074810B5016841F010010160032000F0CE
:100FF00075F80F2000F006F800F024F8002010BD6E
:101000000020024070B50D4D04464FF47A712878E7
:10101000B1FBF0F00A490968B1FBF0F000F0FEFA0C
:1010200048B9102C07D200222146501E00F036F895
:1010300000206C6070BD012070BD00001000002019
:101040001C0000200C4808B5816941F00101816154
:10105000816901F001010091C16941F08051C161D4
:10106000C06900F0805000900448416821F0E061C0
:1010700041F00071416008BD0010024000000140D5
:10108000002809DB00F01F02012191404009800087
:1010900000F1E020C0F8001170470000F0B40E4BE2
:1010A0001B680C46C3F30223C3F10705042D00D9C6
:1010B0000425191D072901D2002300E0DB1E0126AB
:1010C00006FA05F1491E214099409E40761E1640C1
:1010D0003143F0BC01F044BA0CED00E0064900F0E9
:1010E000070208684FF6FF03184040EA0220034A4F
:1010F00010430860704700000CED00E00000FA05A6
:101100002DE9F0470F46050061D0434E306800F0EE
:101110000700B84209D2306820F007003843306039
:10112000306800F00700B84251D128683B4C810775
:1011300012D5400703D5606840F4E060606028780D
:10114000000703D5606840F4605060606068A9687B
:1011500020F0F000084360602878C00728D0686855
:10116000012810D02168022810D0890700292EDA22
:10117000616821F0030101436160FFF723FF8046AE
:1011800041F288390DE021688903EFE78901EDE735
:10119000FFF718FFA0EB0801494502D90320BDE87D
:1011A000F0876068696800F00C00B0EB810FEFD148
:1011B000306800F00700B8420BD9306820F0070013
:1011C00038433060306800F00700B84201D0012099
:1011D000E5E72878400705D56068E96820F4E06015
:1011E000084360602878000706D56068296920F404
:1011F000605040EAC100606000F03EF86168084A53
:10120000C1F30311515CC8400649086006480068F4
:10121000FFF7F8FE0020C2E7002002400010024065
:10122000C82700081C0000201400002001480068A6
:10123000704700001C000020044805490068496808
:10124000044AC1F30221515CC84070471C000020D1
:1012500000100240D8270008044805490068496882
:10126000044AC1F3C221515CC84070471C000020F1
:1012700000100240D827000812A185B00FC98DE8E0
:101280000F0014A0144A006804905168134801F03C
:101290000C03042B10D0082B0ED1C1F38343C903D8
:1012A0001DF803000AD5516804AAC1F34041515CFE
:1012B0000A4A5043B0FBF1F005B070470849484373
:1012C000FAE7000002030405060708090A0B0C0DE3
:1012D0000E0F1010010200000010024000127A00F0
:1012E00000093D002DE9F84F040070D02078C04D72
:1012F000C00749D06868C0F38100012807D068683A
:10130000C0F38100022809D16868C00306D52868A7
:10131000800339D560680028E7D035E06068B0F513
:10132000803F0BD010B1B0F5A02F11D0286820F469
:1013300080302860286820F4802002E0286840F48B
:1013400080302860606890B1FFF73CFE06460AE0F6
:10135000286840F480202860F0E700BFFFF732FEE5
:10136000801B642873D828688003F7D50CE0FFF74A
:1013700029FE064605E000BFFFF724FE801B642817
:10138000F0D828688003F7D420789A4E80074FF071
:1013900001094FF0000839D5686810F00C0F07D02C
:1013A0006868C0F38100022809D16868C00306D4C8
:1013B0002868800714D52069012808D110E0206929
:1013C000B0B1C6F80090FFF7FDFD074605E00AE161
:1013D000FFF7F8FDC01B0228C4D828688007F7D59E
:1013E0002868616920F0F80040EAC10028600DE03B
:1013F000C6F80080FFF7E6FD074604E0FFF7E2FDD0
:10140000C01B022823D828688007F7D4207800075B
:101410002CD57948A169D9B1C0F80090FFF7D2FD69
:10142000074604E0FFF7CEFDC01B02280FD8686A0C
:101430008007F7D571484FF4FA510068B0FBF1F01E
:10144000009000BF0098411E0091FAD20EE080E0AB
:10145000C0F80080FFF7B6FD074604E0FFF7B2FDD5
:10146000C01B022875D8686A8007F7D42078400727
:1014700060D5E8690027C00008D4E86940F08050D2
:10148000E861E869012700F0805000905C4801683D
:10149000C90513D40168834641F480710160FFF7E8
:1014A00091FD824606E000BFFFF78CFDA0EB0A002D
:1014B00064284ED8DBF80000C005F5D5E0680128A7
:1014C0000AD008B1052813D0286A20F0010028624C
:1014D000286A20F0040002E0286A40F00100286237
:1014E000E06841F2883B98B1FFF76CFD82460BE063
:1014F000286A40F004002862EEE700BFFFF762FDB3
:10150000A0EB0A0159455AD8286A8007F6D50CE0A5
:10151000FFF758FD824605E0FFF754FDA0EB0A01F6
:1015200059454CD8286A8007F6D41FB1E86920F0E5
:101530008050E861E06988B36968C1F381010229DC
:1015400044D00228C6F8608004D0FFF73BFD044673
:1015500038E034E0FFF736FD074604E0FFF732FDE0
:10156000C01B02282BD828688001F7D4206AB0F568
:10157000803F05D16868A16820F4003008436860A6
:10158000D4E908010843696821F4741108436860CC
:10159000C6F86090FFF716FD044606E025E000BFA0
:1015A000FFF710FD001B022809D828688001F7D535
:1015B0001BE000BFFFF706FD001B022802D9032035
:1015C000BDE8F88F28688001F4D40EE00128F7D038
:1015D0006868226A00F48031914204D1616A00F4A3
:1015E0007010884201D00120EAE70020E8E70000FF
:1015F0000010024000004242800442421C000020D1
:10160000007000404FF0E0210428086903D020F06A
:1016100004000861704740F00400FAE710B5401E6E
:10162000B0F1807F01D3012010BD4FF0E024606154
:101630000F21601700F094FF0020A06107202061B7
:10164000002010BD7047704770B590F83C20012A0B
:101650002CD0012480F83C40022280F83D20036811
:101660005A689D6822F070060A6832435A60104B2F
:1016700002689A420ED00F4B9A420BD0B2F1804FC3
:1016800008D00D4B9A4205D00C4B9A4202D00C4B1D
:101690009A4204D1496825F080031943916080F88B
:1016A0003D40002180F83C10084670BD022070BD0E
:1016B000002C0140003401400004004000080040BC
:1016C000000C004010B5040003D094F83D0010B1A8
:1016D00007E0012010BD002084F83C00204600F007
:1016E0001FF8022084F83D00211D206800F0E4FC72
:1016F000012084F8460084F83E0084F83F0084F816
:10170000400084F8410084F8420084F8430084F8E3
:10171000440084F8450084F83D00002010BD00001E
:1017200008B500680B49884212D10B48816941F421
:10173000006181618069002200F400600090114620
:101740001920FFF7ABFCBDE808401920FFF798BC53
:1017500008BD0000002C01400010024090F83D1030
:10176000012901D001207047022180F83D10016855
:10177000CA6842F00102CA6000680E4988420ED071
:101780000D4988420BD0B0F1804F08D00B498842F8
:1017900005D00B49884202D00A49884204D18168A9
:1017A00001F00701062903D0016841F00101016041
:1017B00000207047002C014000340140000400402C
:1017C00000080040000C004070B5044690F83C0052
:1017D000012817D0012584F83C50022084F83D00F0
:1017E0002068826822F0770222F47F4282600868D3
:1017F000502830D00DDC20284DD005DC98B31028BF
:101800003BD148E0022070BD302844D0402834D17C
:1018100039E0602828D0702806D0B0F5805F2CD041
:10182000B0F5005F29D10AE0CB68D1E90121206839
:1018300000F088FC2068816841F0770109E0CB68FE
:10184000D1E90121206800F07DFC2068816841F425
:101850008041816011E0CA684968206800F084FC1A
:101860005021206807E016E0CA684968206800F047
:101870008CFC6021206800F06FFC84F83D50002053
:1018800084F83C0070BDCA684968206800F06CFCB0
:1018900040212068EFE7226801461046EBE77047D9
:1018A00070B50446006801694FF00005C943890717
:1018B00015D4C168C943890711D4E91E016101200B
:1018C0002077206880698007204602D0FFF7E7FF75
:1018D00004E000F098F8204600F096F8257720689C
:1018E0000169C943490717D4C168C943490713D4DB
:1018F0006FF004010161022020772068806910F4F4
:10190000407F204602D0FFF7CAFF04E000F07BF8DA
:10191000204600F079F8257720680169C943090756
:1019200016D4C168C943090712D46FF008010161D8
:10193000042020772068C0698007204602D0FFF786
:10194000AEFF04E000F05FF8204600F05DF8257778
:1019500020680169C943C90617D4C168C943C906CB
:1019600013D46FF010010161082020772068C0694E
:1019700010F4407F204602D0FFF791FF04E000F012
:1019800042F8204600F040F8257720680169C943F5
:10199000C90708D1C168C943C90704D1891E0161BB
:1019A000204600F033F820680169C943090609D4CC
:1019B000C168C943090605D46FF080010161204662
:1019C000FFF740FE20680169C943490609D4C16890
:1019D000C943490605D46FF040010161204600F07B
:1019E00021F820680169C94389060BD4C168C9433D
:1019F000890607D46FF0200101612046BDE87040E0
:101A0000FFF721BE70BD7047704700000349884250
:101A100003D103480168491C016070472010002071
:101A2000000000207047704710B504460068416907
:101A300094F83D20C1F3C011212A0BD151B1416965
:101A400021F080014161606B08B1FEF7A9FE2046DC
:101A500000F048FC2068416994F83E20C1F38011F1
:101A6000222A0BD151B1416921F040014161A06BA3
:101A700008B1FEF795FE204600F01CFC002010BDCA
:101A800070470000F8B5026804461068D1685369D1
:101A900010F00F0F4FF0000553D003F0010601F4D2
:101AA000907737435FD0C20705D0CA0503D5226CB3
:101AB00042F001022264420705D5DA0703D0226C06
:101AC00042F002022264820705D5DA0703D0226CB5
:101AD00042F004022264020707D501F020023243DB
:101AE00003D0226C42F008022264226C002A34D017
:101AF000800604D5880602D5204600F0FCFB20684D
:101B00004069216CC0F38010090700D430B320462F
:101B100000F0D0FB2068416949061BD5416921F0DE
:101B200040014161A06BA8B158494163A06BFEF729
:101B30005BFE002811D0A06B416B01B0BDE8F04006
:101B4000084783060FD58B060DD52046BDE8F84023
:101B500000F0D1BB2046FFF793FFF8BD2046FFF70A
:101B60008FFF2564F8BD266B2023012E52D1C606B7
:101B700050D5CE064ED5106850680090506940068A
:101B80002AD5A16B086840680004000CEAD0A68D35
:101B90008642E7D9E0858869202818D0D06820F4EB
:101BA0008070D0602068416921F0010141612068A6
:101BB000416921F04001416184F83E30256320688D
:101BC000C16821F01001C160A06BFEF7E9FDA08D96
:101BD000E18D401A81B219E0A08DE18D401A81B2E9
:101BE000E08D0028BED00029BCD0D06820F49070D1
:101BF000D0602068426922F00102426184F83E30E0
:101C000025632068C26822F01002C2602046FFF7F8
:101C10000AFFF8BD05062BD50D0629D594F83D0021
:101C20002128F6D1A068B0F5805F01D12069B0B15C
:101C3000206A411C2162216800784860E08C401EC7
:101C40000004000CE084E4D12068C16821F0800128
:101C5000C1602068C16841F04001C160F8BD206AE0
:101C60000088C0F308005060206A801C2062E5E70D
:101C70004006F3D54806F1D5D168204621F0400151
:101C8000D16084F83D3000F0FBF8F8BDAF210008CA
:101C900070B5040004D094F83D00002510B106E0B2
:101CA000012070BD84F83C50204600F023F8242029
:101CB00084F83D002068C16821F40051C1602046CD
:101CC00000F074FB2068016921F4904101612068F3
:101CD000416921F02A0141612068C16841F4005145
:101CE000C1602564202084F83D0084F83E00002077
:101CF00070BD0000F0B585B0002406460094019444
:101D00000294039400682D49884254D12C4881697B
:101D100041F480418161816901F4804104918169CC
:101D200041F0040181618069264D00F004000490B7
:101D30004FF4007000900220019003200390694648
:101D40002846FFF735F82815CDE9000469462846EE
:101D50000294FFF72DF81D4D1B488027C5E90004AC
:101D6000C5E902472C616C61AC612846EC61FEF765
:101D7000F7FE08B1FEF788FCB5636E62134D12489A
:101D80004435143801C5102091C5104845F8104954
:101D900044306C61AC61EC61FEF7E2FE08B1FEF725
:101DA00073FC75630022114625206E62FFF776F9F9
:101DB0002520FFF765F905B0F0BD000000380140AF
:101DC000001002400008014058000240101100209D
:101DD00090F83E30202B0ED159B152B190F83C30E2
:101DE000012B08D0012380F83C300023036300F06E
:101DF00039BB0120704702207047704770470000D0
:101E000070B5044690F83D00202830D169B362B324
:101E100094F83C0001282AD0012084F83C0021627B
:101E2000A284E28400252564212084F83D00636BB0
:101E300010489862636B1048D862636B0F48186350
:101E4000606B134645632668606B321DFEF7C6FE65
:101E500021686FF04000086084F83C5020684169B8
:101E600041F080014161002070BD012070BD022061
:101E700070BD00007D220008AB220008BF210008D1
:101E800070477047FEE700000D4808B5416941F012
:101E9000010141614069002200F0010000901146FB
:101EA0000E20FFF7FBF80E20FFF7EAF8002211469C
:101EB0000F20FFF7F3F8BDE808400F20FFF7E0B868
:101EC0000010024010B586B00020009001900290F2
:101ED00003900D48816941F00401816180690B4CD8
:101EE00000F004000122049011462046FFF764F838
:101EF00001210220CDE9021000910191694620469E
:101F0000FEF756FF06B010BD001002400008014069
:101F100010B586B0002418480094019402940394EC
:101F200004941449059401603F21C0E9011440F272
:101F3000E731C0E903148021C0E90541FFF7C2FB86
:101F400008B1FEF7A1FB4FF48050009069460A48A3
:101F5000FFF73AFC08B1FEF797FB049404A9064882
:101F60000594FFF771FB002801D0FEF78DFB06B04A
:101F700010BD0000002C0140201000200C4810B5BE
:101F80000A4901604FF4E1314160002181600C2277
:101F9000C160C0E904128161C161FFF779FE0028C8
:101FA00003D0BDE81040FEF76FBB10BD0038014004
:101FB000CC100020FEE7FEE77047000070B586B049
:101FC00000260C4605460496FEF7DEFECDE90254D7
:101FD00004A968460096FEF739FE040005D000BF4C
:101FE000FEF788FE06B0204670BD4CF25030FEF77A
:101FF000ADFBF5E710B5002303E010C841F823401E
:102000005B1C9342F9D310BD70B504460D481646CB
:102010000D46844215D3A00713D1FEF7B5FE04EB9D
:10202000860608E00023214602202A68FEF76CFE9F
:1020300018B9241D2D1DB442F4D3BDE87040FEF73D
:1020400059BE70BD000001087047FEF7C1BF30B532
:102050008FB028216846FEF7EDF914210AA8FEF793
:10206000E9F9022501200490009510200590002434
:102070004FF46010CDE9084007956846FFF732F944
:1020800008B172B6FEE70F20CDE90A054FF4806073
:10209000CDE90C4002210AA80E94FFF731F8002880
:1020A00001D072B6FEE70FB030BD70470148FFF7B0
:1020B000F7BB000020100020F0B502681C4B1D4D3E
:1020C0001D4E1E4F1E4C4FF0804C984209D0A0422E
:1020D00007D0604505D0A84203D0B04201D0B84235
:1020E00004D122F0700E4A6842EA0E02984209D0EA
:1020F000A04207D0604505D0A84203D0B04201D02D
:10210000B84203D122F44075CA682A434D6922F0CF
:1021100080022A4302608A68C2620A688262984228
:1021200001D0A04201D10969016301214161F0BDE3
:10213000002C01400004004000080040000C00405A
:102140000034014010B5846842EA032224F47F443D
:102150000A432243826010BD826822F070020A4363
:1021600042F007018160704710B5036A046A24F0E9
:1021700001040462846924F0F00444EA021423F0A8
:102180000A020A438461026210BD10B5036A23F09B
:10219000100303628369046A23F4704343EA023242
:1021A00024F0A00343EA01118261016210BD10B561
:1021B000406A0021C185C184FFF762FC10BD70B583
:1021C000446A2068406994F83D10C0F3C0100025AF
:1021D000212904D118B1E584204600F083F8206855
:1021E000406994F83E10C0F38010222904D118B140
:1021F000E585204600F05EF8206C40F01000206479
:102200002046FFF73DFC70BD10B50146406A0968E5
:10221000096889061BD40021C1850168CA6822F4B7
:102220008072CA6001684A6922F001024A6101684D
:102230004A6922F040024A61202180F83E10016B79
:10224000012904D10168CA6822F01002CA60016B3A
:10225000012902D0FFF7D1FD10BD818DFFF7E3FB0F
:1022600010BD10B5406A016B012902D0FFF7C6FD11
:1022700010BD818D4908FFF7D6FB10BD10B5014692
:10228000406A0968096889060CD40021C184016884
:102290004A6922F080024A610068C16841F0400149
:1022A000C16010BDFFF7ECFD10BD10B5406AFFF72F
:1022B000E8FD10BD0168CA6822F49072CA60016826
:1022C0004A6922F001024A61016B012904D10168C7
:1022D000CA6822F01002CA60202180F83E10002156
:1022E000016370470168CA6822F0C002CA602021F9
:1022F00080F83D10704708B590F83E10222901D0B3
:10230000022008BD82684FF480539A4201D10169CE
:1023100021B1816A9A421BD04AB10AE00268816AFF
:102320005268C2F308020A80816A891C08E00269C7
:1023300072B10268526802F07F020A70816A491C19
:102340008162C18D491E0904090CC18503D019E0C1
:1023500002685268F1E70168CA6822F02002CA6088
:102360000168CA6822F48072CA6001684A6922F072
:1023700001024A61202180F83E10016B012903D03F
:10238000FFF73BFD002008BD002101630168CA681A
:1023900022F01002CA6001680A68D20602D50A68F3
:1023A00049680091818DFFF73EFBEBE770B504466D
:1023B00000680169E26821F440511143016121691B
:1023C000A0680843616908432168CA6841F20C6348
:1023D0009A430243CA6020684169A26921F44071AE
:1023E000114341611E492068884202D1FEF734FF43
:1023F00001E0FEF721FF00EBC00101EB0012606875
:1024000064218000B2FBF0F3B3FBF1F36FF0180628
:102410007343B2FBF0F5B2FBF0F605EB8305322314
:1024200003EB0515B5FBF1F5B6FBF1F605F0F0058C
:1024300005EB0615B2FBF0F6B2FBF0F0B0FBF1F0E5
:102440006FF01802504306EB800003EB0010B0FB66
:10245000F1F0216800F00F002844886070BD000092
:102460000038014038B58162828500251346044654
:102470000564222084F83E00A26B13489062A26B90
:102480001248D062A26B12481063A06B0A464563E3
:102490002168A06B091DFEF7A1FB20680168416857
:1024A000009184F83C50C16841F48071C16020689B
:1024B000416941F0010141612068416941F04001F9
:1024C0004161002038BD0000092200086322000895
:1024D000BF21000810B500F01FF8BDE8104001480A
:1024E000FFF7D0BACC100020FEE7000010B5084C72
:1024F00021780848FEF7A6F8002020706070054992
:10250000BDE81040642201F16400FFF761BC0000E7
:1025100004000020681000200E4808B5006801681B
:10252000C1F30011002914D00168406800900948E7
:10253000FFF77AFA0748443000684068C0F1640148
:1025400005480170012141700448016841F0010112
:10255000016008BDCC1000200400002010040140E0
:102560000907090E002804DB00F1E02080F80014C0
:10257000704700F00F0000F1E02080F8141D704754
:1025800030380A2801D20120704700207047704778
:1025900010B50420FFF736F8FEF748FE0249B0FBFD
:1025A000F1F00249086010BD40420F000C0000200D
:1025B00004490A685206FCD5024AC1B2121D1160D4
:1025C0007047000000380140FEF70AFDFFF73FFDAD
:1025D000FFF778FCFFF758FCFFF79AFCFFF7CEFCFB
:1025E000FFF7D6FF6348016841F001010160002256
:1025F00003210620FEF752FD0620FEF741FD5E484E
:102600000068C16841F01001C16064225B495A480A
:10261000FFF7DEFB5A48FFF7A1F85AA0FDF70EFEC0
:102620005D4F4FF4007842465A493846FFF7E2FCC6
:102630005AA0FDF703FE574C0026002505EB0610B7
:1026400054F8201058A0FDF7F9FD6D1CADB2102D07
:10265000F4D34FA0FDF7F2FD761CB6B2202EECD3DA
:102660004EA0FDF7EBFD01213846FFF7A7FC10B1A6
:102670004FA0FDF7E3FD514E0021404646F82110E2
:10268000491C89B28142F9D3C14605460246B84683
:102690004A494046FFF7B8FC2A463E493846FFF70C
:1026A000A9FC3EA0FDF7CAFD0027002505EB071099
:1026B00054F820103CA0FDF7C1FD6D1CADB2102DEB
:1026C000F4D333A0FDF7BAFD7F1CBFB2202FECD3AB
:1026D00032A0FDF7B3FD012145464046FFF76EFCF1
:1026E00010B133A0FDF7AAFD00204F4600F57F4151
:1026F00046F82010401C80B2B842F7D34A462F4912
:102700002E462846FFF780FC3A4622493046FFF71E
:1027100071FC22A0FDF792FD0025002707EB0510B4
:1027200054F8201020A0FDF789FD7F1CBFB2102FA8
:10273000F4D317A0FDF782FD6D1CADB2202DECD3B4
:1027400016A0FDF77BFD01213046FFF737FC10B1E5
:1027500017A0FDF773FD1A4C1A4E4FF4FA770025B7
:102760002068B842FCD3012130462560FEF71CFCEE
:10277000F6E7000000040140CC10002068100020A3
:102780002010002073746D3332663130335243545D
:102790000D0A000020000020000001080D0A2A2A6E
:1027A0002A2A0D0A000000003078253034782000F5
:1027B0004552415345204552520D0A002008002041
:1027C00000000020000801400000000000000000A0
:1027D00001020304060708090000000001020304C7
:1027E0003031323334353637383941424344454647
:1027F0004030580030313233343536373839616241
:102800006364656640307800040000080000000042
:102810000000000200010000100000003C28000839
:1028200000000020200000006C0100085C28000867
:1028300020000020F81700008801000800000000B8
:102840000000000000000000000000000100000087
:0C28500010000000000000000024F40054
:0400000508000131BD
:00000001FF
