:020000040800F2
:10000000900F002005010008371A0008A518000805
:10001000351A0008130200084D1F000800000000F8
:10002000000000000000000000000000C91A0008E5
:100030007D02000800000000391A0008CB1A0008F1
:100040001F0100081F0100081F0100081F01000810
:100050001F0100081F010008810200081F0100089D
:100060001F0100081F0100081F0100081F010008F0
:100070001F0100081F0100081502000821020008E6
:100080001F0100081F0100081F0100081F010008D0
:100090001F0100081F0100081F0100081F010008C0
:1000A0001F010008311B00081F0100081F01000884
:1000B0001F0100081F0100081F0100081F010008A0
:1000C0001F0100081F0100081F0100081F01000890
:1000D0001F010008391F00081F0100081F01000848
:1000E0001F0100081F0100081F010008DFF810D0E1
:1000F00000F06EF800480047B5240008AFF3008018
:10010000900F00200648804706480047FEE7FEE7BC
:10011000FEE7FEE7FEE7FEE7FEE7FEE7FEE7FEE7B7
:100120002D1B0008ED000008202A04DB203A21FAEC
:1001300002F00021704721FA02F3D040C2F1200200
:100140009140084319467047D2B201E000F8012BF4
:10015000491EFBD270470022F6E710B513460A4647
:1001600004461946FFF7F0FF204610BD2DE9F05F69
:100170000546002092469B46884606468146402416
:100180001BE02846414647462246FFF7CDFF53462F
:100190005A46C01A914110D311461846224600F023
:1001A00029F82D1A67EB01084F462246012000214D
:1001B00000F020F817EB00094E41201EA4F10104C5
:1001C000DFDC484631462A464346BDE8F09F000042
:1001D000064C074D06E0E06840F0010394E8070094
:1001E00098471034AC42F6D3FFF784FFB8260008D6
:1001F000D8260008202A04DB203A00FA02F1002069
:1002000070479140C2F1200320FA03F31943904054
:100210007047FEE7014800F03DB90000280B0020C0
:10022000014800F037B90000E40A002030B590F82A
:1002300040500124AC40C56B6C6004686360436847
:10024000102B036803D099600068C26030BD9A60CB
:100250000068C16030BD000010B500290AD00A4610
:100260000146054801F0DCFA002803D0BDE8104043
:1002700000F014B810BD0000A00A00207047000074
:1002800005480168C90705D0016841F00101016016
:1002900001F05EBE704700001404014072B6FEE734
:1002A00006490020C8610648016941F00401016166
:1002B000016941F04001016170470000700B0020AE
:1002C00000200240064A0021D16106490A6942F035
:1002D00002020A614861086940F040000861704705
:1002E000700B002000200240044B0022DA61044A17
:1002F000136943F00103136101807047700B002004
:100300000020024014480022C168CB06134904D5DE
:10031000CA6942F00202CA611022C3685B0705D5B0
:10032000CB6943F00103CB6142F00402C369DB07F0
:1003300007D0CB6943F00403CB61C16921F001010F
:10034000C161A2F58071013901D0C2607047C169F5
:1003500021F00101C161704700200240700B0020B4
:1003600070B5054600F048FB0646114C09E0681CD4
:1003700007D025B100F040FB801BA84201D9032023
:1003800070BDE068C007F2D1E068800601D520208A
:10039000E060E068C00605D4E069C00702D1E0680B
:1003A000400703D5FFF7AEFF012070BD002070BDF0
:1003B0000020024010B590F821100022022905D03B
:1003C0000421816380F82020012010BD01680B68A2
:1003D00023F00E030B6001680B6823F001030B6030
:1003E00090F84030C46B012101FA03F3636080F898
:1003F000211080F82020104610BD000010B590F8A4
:1004000021100024022903D00421816301243DE04E
:1004100001680A6822F00E020A6001680A6822F088
:1004200001020A601A4A0168914201D1012121E0CA
:10043000174A1432914201D110211BE0144A28328C
:10044000914201D1891515E0114A3C32914201D106
:1004500089140FE00E4A5032914202D14FF480319C
:1004600008E00B4A6432914202D14FF4801101E05E
:100470004FF08071064A083A5160012180F821103E
:10048000002180F82010416B01B18847204610BD43
:10049000080002402DE9F05FC16B0C6801680B6831
:1004A000D0F840C0042202FA0CF2494DDFF824A132
:1004B000494E4A4FDFF828B1DFF828E122422CD01C
:1004C0005A072AD50A68920603D40A6822F0040261
:1004D0000A600168A94201D1042219E0514501D105
:1004E000402215E0B14202D14FF4806210E0B942DF
:1004F00002D14FF480420BE0594502D14FF48022E3
:1005000006E0714502D14FF4800201E04FF08062B5
:100510002F4908394A60C16A3BE04FF0020808FAE7
:100520000CF818EA040F4FF000094FF0010235D023
:100530005FEA837832D50B689B0605D40B6823F0FD
:100540000A030B6080F821200168A94201D1022230
:1005500019E0514501D1202215E0B14202D14FF4FA
:10056000007210E0B94202D14FF400520BE059453D
:1005700002D14FF4003206E0714502D14FF400126F
:1005800001E04FF00072124908394A6080F820906B
:10059000816A00291AD0BDE8F05F0847082505FAEE
:1005A0000CF5254212D01B0710D50B6823F00E0363
:1005B0000B6090F84010C36B02FA01F1596082633E
:1005C00080F8212080F82090016BE2E7BDE8F09FE1
:1005D000080002401C00024030000240440002407B
:1005E000580002406C00024030B528B308C81349D7
:1005F00014221944B1FBF2F18900C16310498163EF
:10060000022141771A6843F6F0718A43D0E9001459
:100610002143D0E902452C43214304692143446925
:100620002143846921431143196000214163012260
:1006300042770177084630BD012030BDF8FFFDBF8D
:100640000000024070B5044690F820000025012803
:100650000CD0012084F8200094F821600020012EA5
:1006600006D084F820000225284670BD022070BD07
:10067000022684F82160A0632068066826F001063F
:1006800006602046FFF7D2FDE06A00282068016876
:1006900002D041F00E0106E021F004010160206863
:1006A000016841F00A0101602068016841F0010120
:1006B0000160D9E72DE9F047054626480F46012697
:1006C000017E01290FD00121814601762868DFF8DB
:1006D00088804CF25034022808D0A2462046FFF70A
:1006E0003FFEA8B131E00220BDE8F0872046FFF7C9
:1006F00037FE08BB0120FFF7D3FD2046FFF730FE91
:10070000D8F81010064621F00401C8F810101CE0BB
:100710004FF0FF303860AC6811E02046FFF7D2FDA3
:100720005046FFF71DFED8F81010060021F0020118
:10073000C8F8101001D03C6007E004F58064D5E9EA
:10074000020100EB8120A042E7D8002189F81810AF
:100750003046C9E7700B00200020024003480169C1
:1007600041F080010161002070470000002002403C
:100770002DE9F05F07461C4888460024017E154697
:100780001E46012909D00121814601764CF2503ADA
:100790005046FFF7E5FD18B122E00220BDE8F09FCA
:1007A000012F02D0022F00D00427D346DFF83CA04F
:1007B000220128463146FFF7B7FC81B208EB44001E
:1007C000FFF792FD5846FFF7CBFDDAF8102022F034
:1007D0000102CAF8102018B9641CE4B2BC42E7D385
:1007E000002289F81820D9E7700B00200020024071
:1007F000064900200A69120607D5054A4A60054ADB
:100800004A600969090600D50120704700200240AE
:1008100023016745AB89EFCD2DE9F84FDFF8B8919B
:10082000002409F1040A0AF1040B23460F270BF1F7
:10083000040EC9E00125A5402A40AA427DD1674E99
:10084000D1F804C0ACEB0608B44532D014DCBCF1DE
:10085000030F3AD009DCBCF1000F2AD0BCF1010F24
:100860001CD0BCF1020F31D11DE0BCF1110F17D02B
:10087000BCF1120F2AD119E0B8F5881F19D006DC97
:10088000B8F5803F15D0B8F5801F1FD111E0B8F53D
:10089000001F0ED0B8F5041F18D10AE0CB6815E090
:1008A000CB681B1D12E0CB6808330FE0CB680C331C
:1008B0000CE08B682BB1012B4FF0080303D045618E
:1008C00004E0042302E0056100E00023FF2A01D8D0
:1008D000064601E000F104064FEA840501D9A5F1BE
:1008E0002005D6F8008007FA05FC28EA0C0803FA70
:1008F00005F548EA0508C6F800804D68ED0062D5A8
:10090000374DAE6946F00106AE61AD6924F00306CD
:1009100005F001050095334D06EB050CDCF8085099
:10092000A607360F07FA06F825EA0805DFF8B880AB
:10093000404503D14FF0000817E044E0DFF8AC80F9
:10094000404502D14FF001080FE0DFF8A480404598
:1009500002D14FF0020808E0DFF89880404502D14C
:100960004FF0030801E04FF0040808FA06F848EADF
:100970000508CCF808804D68D9F80060ED034D46B5
:1009800001D5164300E096432E604D68DAF800600A
:10099000AD03554601D5164300E096432E604D68E1
:1009A000DBF80060ED025D4601D5164300E096439A
:1009B0002E604D68DEF80060AD02754601D5164325
:1009C00000E096432E60641C0D682A46E5407FF4E3
:1009D00031AFBDE8F88F00000004014000001110A5
:1009E000001002400000014000080140000C0140DE
:1009F0000010014000140140014880687047000069
:100A00000C00002002488168027811448160704720
:100A10000C000020074810B5016841F0100101608A
:100A2000032000F075F8002000F006F800F024F82C
:100A3000002010BD0020024070B50D4D04464FF45B
:100A40007A712878B1FBF0F00A490968B1FBF0F03F
:100A500000F0FEFA48B9102C07D200222146501EA1
:100A600000F036F800206C6070BD012070BD000001
:100A70000C000020180000200C4808B5816941F0E6
:100A800001018161816901F001010091C16941F0B9
:100A90008051C161C06900F08050009004484168F5
:100AA00021F0E06141F00071416008BD001002409A
:100AB00000000140002809DB00F01F0201219140E5
:100AC0004009800000F1E020C0F8001170470000EC
:100AD000F0B40E4B1B680C46C3F30223C3F10705A9
:100AE000042D00D90425191D072901D2002300E097
:100AF000DB1E012606FA05F1491E214099409E4061
:100B0000761E16403143F0BC01F06CBA0CED00E0EB
:100B1000064900F0070208684FF6FF03184040EA54
:100B20000220034A10430860704700000CED00E00B
:100B30000000FA052DE9F0470F46050061D0434E4D
:100B4000306800F00700B84209D2306820F0070092
:100B500038433060306800F00700B84251D128684F
:100B60003B4C810712D5400703D5606840F4E06034
:100B700060602878000703D5606840F460506060CA
:100B80006068A96820F0F000084360602878C0071A
:100B900028D06868012810D02168022810D0890761
:100BA00000292EDA616821F0030101436160FFF73B
:100BB00023FF804641F288390DE021688903EFE781
:100BC0008901EDE7FFF718FFA0EB0801494502D9BD
:100BD0000320BDE8F0876068696800F00C00B0EBA6
:100BE000810FEFD1306800F00700B8420BD93068B0
:100BF00020F0070038433060306800F00700B8424A
:100C000001D00120E5E72878400705D56068E9684C
:100C100020F4E060084360602878000706D560682B
:100C2000296920F4605040EAC100606000F03EF89D
:100C30006168084AC1F30311515CC8400649086065
:100C400006480068FFF7F8FE0020C2E700200240D7
:100C500000100240A026000818000020100000200C
:100C6000014800687047000018000020044805494A
:100C700000684968044AC1F30221515CC8407047CA
:100C80001800002000100240B02600080448054962
:100C900000684968044AC1F3C221515CC8407047EA
:100CA0001800002000100240B026000812A185B0F4
:100CB0000FC98DE80F0014A0144A00680490516811
:100CC000134801F00C03042B10D0082B0ED1C1F3F4
:100CD0008343C9031DF803000AD5516804AAC1F370
:100CE0004041515C0A4A5043B0FBF1F005B07047F7
:100CF00008494843FAE7000002030405060708090B
:100D00000A0B0C0D0E0F1010010200000010024023
:100D100000127A0000093D002DE9F84F040070D060
:100D20002078C04DC00749D06868C0F38100012811
:100D300007D06868C0F38100022809D16868C00341
:100D400006D52868800339D560680028E7D035E0EB
:100D50006068B0F5803F0BD010B1B0F5A02F11D076
:100D6000286820F480302860286820F4802002E081
:100D7000286840F480302860606890B1FFF73CFE3E
:100D800006460AE0286840F480202860F0E700BFAB
:100D9000FFF732FE801B642873D828688003F7D5DC
:100DA0000CE0FFF729FE064605E000BFFFF724FE32
:100DB000801B6428F0D828688003F7D420789A4EE6
:100DC00080074FF001094FF0000839D5686810F02E
:100DD0000C0F07D06868C0F38100022809D1686849
:100DE000C00306D42868800714D52069012808D1DB
:100DF00010E02069B0B1C6F80090FFF7FDFD07468E
:100E000005E00AE1FFF7F8FDC01B0228C4D82868F6
:100E10008007F7D52868616920F0F80040EAC10032
:100E200028600DE0C6F80080FFF7E6FD074604E005
:100E3000FFF7E2FDC01B022823D828688007F7D4FB
:100E4000207800072CD57948A169D9B1C0F8009065
:100E5000FFF7D2FD074604E0FFF7CEFDC01B0228D6
:100E60000FD8686A8007F7D571484FF4FA510068C7
:100E7000B0FBF1F0009000BF0098411E0091FAD243
:100E80000EE080E0C0F80080FFF7B6FD074604E002
:100E9000FFF7B2FDC01B022875D8686A8007F7D437
:100EA0002078400760D5E8690027C00008D4E869C9
:100EB00040F08050E861E869012700F08050009020
:100EC0005C480168C90513D40168834641F4807108
:100ED0000160FFF791FD824606E000BFFFF78CFD41
:100EE000A0EB0A0064284ED8DBF80000C005F5D559
:100EF000E06801280AD008B1052813D0286A20F03C
:100F000001002862286A20F0040002E0286A40F00C
:100F100001002862E06841F2883B98B1FFF76CFD60
:100F200082460BE0286A40F004002862EEE700BF2A
:100F3000FFF762FDA0EB0A0159455AD8286A8007DD
:100F4000F6D50CE0FFF758FD824605E0FFF754FDAB
:100F5000A0EB0A0159454CD8286A8007F6D41FB186
:100F6000E86920F08050E861E06988B36968C1F3FE
:100F70008101022944D00228C6F8608004D0FFF71E
:100F80003BFD044638E034E0FFF736FD074604E059
:100F9000FFF732FDC01B02282BD828688001F7D448
:100FA000206AB0F5803F05D16868A16820F4003060
:100FB00008436860D4E908010843696821F47411A2
:100FC00008436860C6F86090FFF716FD044606E027
:100FD00025E000BFFFF710FD001B022809D8286894
:100FE0008001F7D51BE000BFFFF706FD001B0228BC
:100FF00002D90320BDE8F88F28688001F4D40EE000
:101000000128F7D06868226A00F48031914204D147
:10101000616A00F47010884201D00120EAE70020E4
:10102000E8E7000000100240000042428004424213
:1010300018000020007000404FF0E02104280869EB
:1010400003D020F004000861704740F00400FAE784
:1010500010B5401EB0F1807F01D3012010BD4FF0CC
:10106000E02460610F21601700F0BCFF0020A06148
:1010700007202061002010BD7047704770B590F8C0
:101080003C20012A26D0012480F83C40022280F82E
:101090003D2003685A689D6822F070060A68324352
:1010A0005A600D4B02689A4208D0B2F1804F05D0C9
:1010B0000A4B9A4202D00A4B9A4204D1496825F061
:1010C00080031943916080F83D40002180F83C1076
:1010D000084670BD022070BD002C01400004004095
:1010E0000008004010B5040003D094F83D0010B192
:1010F00007E0012010BD002084F83C00204600F0ED
:101100001FF8022084F83D00211D206800F016FD24
:10111000012084F8460084F83E0084F83F0084F8FB
:10112000400084F8410084F8420084F8430084F8C9
:10113000440084F8450084F83D00002010BD000004
:1011400008B5114A01681148914211D1816941F4F1
:10115000006181618069002200F400600090114606
:101160001920FFF7B5FCBDE808401920FFF7A2BC25
:10117000B1F1804F07D1C16941F00101C161C0697E
:1011800000F00100009008BD002C0140001002405A
:1011900090F83D10012901D001207047022180F80C
:1011A0003D100168CA6842F00102CA6000680B493C
:1011B000884208D0B0F1804F05D00949884202D05A
:1011C0000849884204D1816801F00701062903D04B
:1011D000016841F00101016000207047002C0140CE
:1011E000000400400008004070B5044690F83C0040
:1011F000012817D0012584F83C50022084F83D00D6
:101200002068826822F0770222F47F4282600868B8
:10121000502830D00DDC20284DD005DC98B31028A4
:101220003BD148E0022070BD302844D0402834D162
:1012300039E0602828D0702806D0B0F5805F2CD027
:10124000B0F5005F29D10AE0CB68D1E9012120681F
:1012500000F0AAFC2068816841F0770109E0CB68C2
:10126000D1E90121206800F09FFC2068816841F4E9
:101270008041816011E0CA684968206800F0A6FCDE
:101280005021206807E016E0CA684968206800F02D
:10129000AEFC6021206800F091FC84F83D500020F5
:1012A00084F83C0070BDCA684968206800F08EFC74
:1012B00040212068EFE7226801461046EBE77047BF
:1012C00070B50446006801694FF00005C9438907FD
:1012D00015D4C168C943890711D4E91E01610120F1
:1012E0002077206880698007204602D0FFF7E7FF5B
:1012F00004E000F098F8204600F096F82577206882
:101300000169C943490717D4C168C943490713D4C0
:101310006FF004010161022020772068806910F4D9
:10132000407F204602D0FFF7CAFF04E000F07BF8C0
:10133000204600F079F8257720680169C94309073C
:1013400016D4C168C943090712D46FF008010161BE
:10135000042020772068C0698007204602D0FFF76C
:10136000AEFF04E000F05FF8204600F05DF825775E
:1013700020680169C943C90617D4C168C943C906B1
:1013800013D46FF010010161082020772068C06934
:1013900010F4407F204602D0FFF791FF04E000F0F8
:1013A00042F8204600F040F8257720680169C943DB
:1013B000C90708D1C168C943C90704D1891E0161A1
:1013C000204600F033F820680169C943090609D4B2
:1013D000C168C943090605D46FF080010161204648
:1013E000FFF74AFE20680169C943490609D4C1686C
:1013F000C943490605D46FF040010161204600F061
:1014000021F820680169C94389060BD4C168C94322
:10141000890607D46FF0200101612046BDE87040C5
:10142000FFF72BBE70BD704770470000034988422C
:1014300003D103490888401C088070471C0800201D
:10144000000000207047704710B5044600684169ED
:1014500094F83D20C1F3C011212A0BD151B141694B
:1014600021F080014161606B08B1FEF7A3FF2046C7
:1014700000F06AFC2068416994F83E20C1F38011B5
:10148000222A0BD151B1416921F040014161A06B89
:1014900008B1FEF78FFF204600F03EFC002010BD93
:1014A00070470000F8B5026804461068D1685369B7
:1014B00010F00F0F4FF0000553D003F0010601F4B8
:1014C000907737435FD0C20705D0CA0503D5226C99
:1014D00042F001022264420705D5DA0703D0226CEC
:1014E00042F002022264820705D5DA0703D0226C9B
:1014F00042F004022264020707D501F020023243C1
:1015000003D0226C42F008022264226C002A34D0FC
:10151000800604D5880602D5204600F01EFC20680F
:101520004069216CC0F38010090700D430B3204615
:1015300000F0F2FB2068416949061BD5416921F0A2
:1015400040014161A06BA8B158494163A06BFEF70F
:1015500055FF002811D0A06B416B01B0BDE8F040F1
:10156000084783060FD58B060DD52046BDE8F84009
:1015700000F0F3BB2046FFF793FFF8BD2046FFF7CE
:101580008FFF2564F8BD266B2023012E52D1C6069D
:1015900050D5CE064ED51068506800905069400670
:1015A0002AD5A16B086840680004000CEAD0A68D1B
:1015B0008642E7D9E0858869202818D0D06820F4D1
:1015C0008070D0602068416921F00101416120688C
:1015D000416921F04001416184F83E302563206873
:1015E000C16821F01001C160A06BFEF7E3FEA08D81
:1015F000E18D401A81B219E0A08DE18D401A81B2CF
:10160000E08D0028BED00029BCD0D06820F49070B6
:10161000D0602068426922F00102426184F83E30C5
:1016200025632068C26822F01002C2602046FFF7DE
:101630000AFFF8BD05062BD50D0629D594F83D0007
:101640002128F6D1A068B0F5805F01D12069B0B142
:10165000206A411C2162216800784860E08C401EAD
:101660000004000CE084E4D12068C16821F080010E
:10167000C1602068C16841F04001C160F8BD206AC6
:101680000088C0F308005060206A801C2062E5E7F3
:101690004006F3D54806F1D5D168204621F0400137
:1016A000D16084F83D3000F0FBF8F8BD131C000851
:1016B00070B5040004D094F83D00002510B106E098
:1016C000012070BD84F83C50204600F023F824200F
:1016D00084F83D002068C16821F40051C1602046B3
:1016E00000F096FB2068016921F4904101612068B7
:1016F000416921F02A0141612068C16841F400512B
:10170000C1602564202084F83D0084F83E0000205C
:1017100070BD0000F0B585B0002406460094019429
:101720000294039400682D49884254D12C48816961
:1017300041F480418161816901F4804104918169B2
:1017400041F0040181618069264D00F0040004909D
:101750004FF400700090022001900320039069462E
:101760002846FFF759F82815CDE9000469462846B0
:101770000294FFF751F81D4D1B488027C5E900046E
:10178000C5E902472C616C61AC612846EC61FEF74B
:101790002BFF08B1FEF782FDB5636E62134D124850
:1017A0004435143801C5102091C5104845F810493A
:1017B00044306C61AC61EC61FEF716FF08B1FEF7D6
:1017C0006DFD75630022114625206E62FFF780F9DA
:1017D0002520FFF76FF905B0F0BD0000003801408B
:1017E000001002400008014058000240E40A0020B6
:1017F00090F83E30202B0ED159B152B190F83C30C8
:10180000012B08D0012380F83C300023036300F053
:101810005BBB012070470220704770477047000093
:1018200070B5044690F83D00202830D169B362B30A
:1018300094F83C0001282AD0012084F83C00216261
:10184000A284E28400252564212084F83D00636B96
:1018500010489862636B1048D862636B0F48186336
:10186000606B134645632668606B321DFEF7EAFE27
:1018700021686FF04000086084F83C50206841699E
:1018800041F080014161002070BD012070BD022047
:1018900070BD0000E11C00080F1D0008231C00089B
:1018A0007047704701A000F08DFBFEE70D0A48610C
:1018B00072644661756C745F48616E646C65720D2C
:1018C0000A0000000D4808B5416941F0010141617D
:1018D0004069002200F00100009011460E20FFF741
:1018E000F7F80E20FFF7E6F8002211460F20FFF769
:1018F000EFF8BDE808400F20FFF7DCB80010024009
:10190000094808B5816941F020018161816901F0D0
:1019100020010091816941F004018161806900F03A
:101920000400009008BD00000010024010B586B011
:1019300000241848009401940294039404941449D8
:10194000059401604721C0E9011440F2E731C0E984
:1019500003148021C0E90541FFF7C4FB08B1FEF77D
:101960009DFC4FF48050009069460A48FFF73CFC0C
:1019700008B1FEF793FC049404A906480594FFF708
:101980007DFB002801D0FEF789FC06B010BD0000E9
:10199000002C01401C08002010B586B00024164819
:1019A000009401940294039404944FF080410594B0
:1019B000C0E900144FF6FF71C0E90241046184617F
:1019C000FFF790FB08B1FEF769FC4FF480500090E0
:1019D00069460948FFF708FC08B1FEF75FFC04946C
:1019E00004A905480594FFF749FB002801D0FEF73C
:1019F00055FC06B010BD0000640800200C4810B56E
:101A00000A4901604FF4E1314160002181600C22FC
:101A1000C160C0E904128161C161FFF749FE00287D
:101A200003D0BDE81040FEF739BC10BD00380140BE
:101A3000A00A0020FEE7FEE77047000070B586B000
:101A400000260C4605460496FEF7D2FECDE9025468
:101A500004A968460096FEF72DFE040005D000BFDD
:101A6000FEF77CFE06B0204670BD4CF25030FEF70B
:101A700077FCF5E710B5002303E010C841F82340D8
:101A80005B1C9342F9D310BD70B504460D48164651
:101A90000D46844215D3A00713D1FEF7A9FE04EB2F
:101AA000860608E00023214602202A68FEF760FE31
:101AB00018B9241D2D1DB442F4D3BDE87040FEF7C3
:101AC0004DBE70BD008000087047FEF79BBF30B56B
:101AD0008FB028216846FEF73EFB14210AA8FEF7C6
:101AE0003AFB01210804CDE90010002402940225EC
:101AF0000491CDE907504FF4E01009906846FFF7D4
:101B00000BF908B172B6FEE70F20CDE90A054FF4D4
:101B10008060CDE90C4002210AA80E94FFF70AF874
:101B2000002801D072B6FEE70FB030BD704700004C
:101B30000148FFF7C5BB00001C080020F0B5026893
:101B4000164B174C174D4FF08047984205D0B842BE
:101B500003D0A04201D0A84203D122F070064A6807
:101B60003243984205D0B84203D0A04201D0A842E7
:101B700003D122F44074CA6822434C6922F08002E7
:101B8000224302608A68C2620A688262984201D176
:101B90000969016301214161F0BD0000002C014091
:101BA000000400400008004010B5846842EA0322A7
:101BB00024F47F440A432243826010BD826822F0ED
:101BC00070020A4342F007018160704710B5036A52
:101BD000046A24F001040462846924F0F00444EAF5
:101BE000021423F00A020A438461026210BD10B598
:101BF000036A23F0100303628369046A23F47043C9
:101C000043EA023224F0A00343EA01118261016237
:101C100010BD10B5406A0021C185C184FFF740FCAA
:101C200010BD70B5446A2068406994F83D10C0F357
:101C3000C0100025212904D118B1E584204600F008
:101C400083F82068406994F83E10C0F38010222980
:101C500004D118B1E585204600F05EF8206C40F014
:101C6000100020642046FFF71BFC70BD10B5014634
:101C7000406A0968096889061BD40021C18501688A
:101C8000CA6822F48072CA6001684A6922F00102BF
:101C90004A6101684A6922F040024A61202180F8C5
:101CA0003E10016B012904D10168CA6822F01002BC
:101CB000CA60016B012902D0FFF7AFFD10BD818D15
:101CC000FFF7C1FB10BD10B5406A016B012902D0BE
:101CD000FFF7A4FD10BD818D4908FFF7B4FB10BDCF
:101CE00010B50146406A0968096889060CD40021CC
:101CF000C18401684A6922F080024A610068C168B3
:101D000041F04001C16010BDFFF7CAFD10BD10B524
:101D1000406AFFF7C6FD10BD0168CA6822F49072E0
:101D2000CA6001684A6922F001024A61016B012917
:101D300004D10168CA6822F01002CA60202180F82C
:101D40003E100021016370470168CA6822F0C0029A
:101D5000CA60202180F83D10704708B590F83E1009
:101D6000222901D0022008BD82684FF480539A4294
:101D700001D1016921B1816A9A421BD04AB10AE0BE
:101D80000268816A5268C2F308020A80816A891C6B
:101D900008E0026972B10268526802F07F020A70BC
:101DA000816A491C8162C18D491E0904090CC185E3
:101DB00003D019E002685268F1E70168CA6822F0AE
:101DC0002002CA600168CA6822F48072CA60016891
:101DD0004A6922F001024A61202180F83E10016B1D
:101DE000012903D0FFF719FD002008BD0021016380
:101DF0000168CA6822F01002CA6001680A68D20647
:101E000002D50A6849680091818DFFF71CFBEBE75A
:101E100070B5044600680169E26821F4405111433D
:101E200001612169A0680843616908432168CA68A3
:101E300041F20C639A430243CA6020684169A26977
:101E400021F44071114341611E492068884202D14A
:101E5000FEF71CFF01E0FEF709FF00EBC00101EBFC
:101E60000012606864218000B2FBF0F3B3FBF1F371
:101E70006FF018067343B2FBF0F5B2FBF0F605EB1A
:101E80008305322303EB0515B5FBF1F5B6FBF1F63F
:101E900005F0F00505EB0615B2FBF0F6B2FBF0F02D
:101EA000B0FBF1F06FF01802504306EB800003EB3B
:101EB0000010B0FBF1F0216800F00F0028448860AA
:101EC00070BD00000038014038B581628285002570
:101ED000134604460564222084F83E00A26B134892
:101EE0009062A26B1248D062A26B12481063A06B82
:101EF0000A4645632168A06B091DFEF7A3FB206815
:101F000001684168009184F83C50C16841F48071D7
:101F1000C1602068416941F0010141612068416967
:101F200041F040014161002038BD00006D1C0008F7
:101F3000C71C0008231C000810B500F01FF8BDE8FE
:101F400010400148FFF7AEBAA00A0020FEE70000EB
:101F500010B5084C21780848FEF77EF90020207063
:101F600060700549BDE810404FF4FA7201F5FA704F
:101F7000FFF73EBC02000020AC0800200E4808B568
:101F800000680168C1F30011002914D0016840689D
:101F900000900948FFF758FA074844300068406845
:101FA000C0F5FA71054801700121417004480168CB
:101FB00041F00101016008BDA00A002002000020DC
:101FC000100401400FB4054B10B503A9044A029850
:101FD00000F028F810BC5DF814FB00009D240008F8
:101FE000040000200907090E002804DB00F1E020AE
:101FF00080F80014704700F00F0000F1E02080F836
:10200000141D704702E008C8121F08C1002AFAD147
:1020100070477047002001E001C1121F002AFBD168
:10202000704700002DE9FF4F8DB00F460546002692
:1020300006E025280BD0DDE90F1290476D1C761CB9
:1020400028780028F5D111B03046BDE8F08F002483
:10205000A246A1460122E94900E0044315F8013FE8
:10206000203B02FA03F00842F7D128782A2810D042
:102070006FF02F022878A0F13001092914D80AEB5B
:102080008A0102EB410144F0020400EB010A6D1CDD
:10209000F0E701CF5FEA000A03D544F40054CAF127
:1020A000000A44F002046D1C28782E2817D115F878
:1020B000010F44F004042A280ED06FF02F02287874
:1020C000A0F1300109290AD809EB890102EB41018D
:1020D00000EB01096D1CF2E757F8049B6D1C287892
:1020E0006C280FD006DC4C2817D068280DD06A2841
:1020F00014D104E0742810D07A280FD10DE044F4F4
:1021000000140AE044F4801401E044F440146978B7
:10211000814202D104F580146D1C6D1C28786E2854
:102120001ED00CDC632830D004DC00288BD058286B
:1021300011D19FE0642867D069280CD164E073282E
:102140002DD004DC6F2872D0702804D194E075285B
:102150006ED078286DD0DDE90F129047761C4BE1E8
:10216000C4F30250022806D0032809D0042801CF66
:1021700009D0066040E101CFF117C0E900613BE101
:1021800001CF068038E1067036E117F8040B8DF8B0
:10219000000000208DF80100EB46012003E057F815
:1021A00004BB4FF0FF3061074FF0000102D40DE097
:1021B00008F10101884649450FDA8045F8DB1BF834
:1021C00008100029F4D108E008F101018846814295
:1021D000FADB1BF808100029F6D1DDE90F23AAEB82
:1021E00008008146214600F031F9304400EB080632
:1021F00004E0DDE90F121BF8010B9047B8F101086C
:10220000F7D221464846F2E00A21C4F302524FF0C9
:10221000000B0891022A04D001CFC117032A09D06C
:102220000AE0FF1D27F00707F7E8020108E02CE0AD
:102230001EE01FE000B2C117042A01D140B2C1174D
:10224000021E71F1000206DA0023D0EB030063EBFB
:1022500001012D2202E0220504D52B228DF8242035
:10226000012203E0E20701D02022F7E7904653E085
:102270000A210BE0102109E010214FF0000B44F07F
:1022800004044FF00809089103E008214FF0000B07
:102290000891C4F30252022A04D001CF0021032A7C
:1022A00006D006E0FF1D27F00707F7E8020103E06C
:1022B00080B2042A00D1C0B24FF0000822072BD50B
:1022C0002A78702A07D0DDF820C08CF0100C5CEA68
:1022D0000B0C05D00EE040228DF82420012208E0EE
:1022E00050EA010306D030238DF824308DF82520E4
:1022F00002229046089B83F0080353EA0B030BD19C
:1023000050EA010201D1620706D530228DF824205F
:102310004FF00108A9F101092A78582A04D038A2FF
:102320000B9208AA0A920BE03AA2F9E75B46089AD8
:10233000FDF71CFF0B9B9B5C0A9A521E0A921370BE
:1023400050EA0102F2D10A98ADEB000000F1200B37
:10235000600702D524F4803401E04FF00109D9452B
:1023600002DDA9EB0B0000E0002000EB0B01414473
:102370000890AAEB010AE00306D4DDE90F23214609
:10238000504600F063F806444FF0000908E009A940
:1023900011F80900DDE90F12904709F10109761CD7
:1023A000C145F4DBE0030CD5DDE90F23214650469F
:1023B00000F04CF8064404E0DDE90F1230209047AD
:1023C000761C0899481E08900029F5DC08E00A9858
:1023D0000A990078491C0A91DDE90F129047761C92
:1023E000BBF10001ABF1010BF1DC21465046DDE908
:1023F0000F2300F019F806446D1C21E6092801009E
:10240000303132333435363738396162636465666A
:10241000000000003031323334353637383941422C
:1024200043444546000000002DE9F04104460025E4
:102430001E461746880404D405E039462020B047DC
:102440006D1C641EF9D52846BDE8F0812DE9F041E8
:10245000044600251E469046C80301D5302700E0FB
:102460002027880404D505E041463846B0476D1C56
:10247000641EF9D52846BDE8F081000010B504209F
:10248000FEF7DAFDFEF7ECFB0249B0FBF1F0024982
:10249000086010BD40420F000800002004490A688F
:1024A0005206FCD5024AC1B2121D116070470000ED
:1024B00000380140FEF7AEFAFFF709FBFFF720FAFC
:1024C000FFF700FAFFF79AFAFFF730FAFFF764FA1E
:1024D000FFF7D4FF5D48016841F00101016000226F
:1024E0000F210620FEF7F4FA0620FEF7E3FA58481B
:1024F0000068C16841F01001C1604FF4FA7A524699
:1025000054495348FFF774F95348FEF741FE544FBE
:102510004FF480794A4651493846FFF7ABFA51A04B
:10252000FFF750FD4D4C00265FF0000505EB06104F
:1025300054F820104EA0FFF745FD6D1C102DF5DB63
:102540004DA0FFF73FFD761C102EEDDB45A0FFF7F9
:1025500039FD01213846FFF771FA10B147A0FFF7A6
:1025600031FD494E002100BF46F82110491CFF29CA
:10257000FADDB8464D464A4643494046FFF784FADD
:102580002A4636493846FFF775FA36A0FFF71AFD96
:102590000027002505EB071054F8201034A0FFF7A2
:1025A00011FD6D1C102DF5DB33A0FFF70BFD7F1C1B
:1025B000102FEEDB2BA0FFF705FD0121474640461B
:1025C000FFF73CFA10B12DA0FFF7FCFC5FF0000113
:1025D00001F57F4046F82100491CFF29F8DD4D46F2
:1025E0004A4629493846FFF74FFA2A461B493846DA
:1025F000FFF740FA1BA0FFF7E5FC00265FF000059F
:1026000005EB061054F8201019A0FFF7DBFC6D1C39
:10261000102DF5DB18A0FFF7D5FC761C102EEDDB96
:1026200010A0FFF7CFFC01213846FFF707FA10B1E1
:1026300012A0FFF7C7FC15A0FFF7C4FC17485146CE
:10264000002203888B42FCD30280FAE70004014099
:10265000A00A0020AC0800201C0800201C0000205C
:10266000008000080D0A2A2A2A2A0D0A000000000C
:1026700030782530347820000D0A0000455241534F
:1026800045204552520D0A001C04002068656C6C00
:102690006F20776F726C640D0A000000000000204C
:1026A0000000000000000000010203040607080902
:1026B0000000000001020304D826000800000020EA
:1026C0001C00000004200008F42600081C00002064
:1026D000740F00001420000800000000000000003B
:1026E00000000000010000001000000000000000D9
:0426F0000024F400CE
:04000005080000ED02
:00000001FF
