:020000040800F2
:10000000D8050020C90000089117000875160008DF
:1000100000000000000000000000000000000000E0
:10002000000000000000000000000000951700081C
:100030000000000000000000931700089717000858
:10004000DB00000800000000DB000008DB00000807
:10005000DB00000881020008DB000008DB0000086C
:1000600000000000DB000008FD010008DB000008C4
:10007000DB00000815180008DB0000080000000085
:10008000DB0000080000000000000000DB000008AA
:1000900000000000DB000008DB000008DB000008B7
:1000A00000000000DB00000800000000BD1E00088A
:1000B0000448854600F090F8004800472D200008CD
:1000C000C046C046D8050020044880470448004781
:1000D000FEE7FEE7FEE7FEE7FEE7FEE7131800088F
:1000E000B100000830B50B46014600202022012453
:1000F00009E00D46D5409D4205D31D469540491B5C
:100100002546954040191546521E002DF1DC30BDA4
:10011000F0B51FB40646002082B005464024019188
:1001200000901BE0019922460F46304600F020F86F
:10013000049A059B801A994110D31046194622460D
:1001400000F039F8361A8F4101972246012000212C
:10015000009F00F030F838184D4100902046641E92
:100160000028DFDC019B00982946324607B0F0BD2D
:1001700010B5202A04DB0846203AD040002110BDEB
:100180000B46D340D0402024A21A91400843194680
:1001900010BDD2B201E00270401C491EFBD2704774
:1001A0000022F6E710B513460A4604461946FFF743
:1001B000F0FF204610BD10B5202A04DB0146203A8E
:1001C0009140002010BD914020239C1A0346E3403B
:1001D0001943904010BD0000064C0125064E05E075
:1001E000E36807CC2B430C3C98471034B442F7D358
:1001F000FFF762FFDC200008FC20000810B5034870
:1002000000F094F8024800F091F810BD9001002031
:100210004C01002010B5044600680549401814211F
:10022000FFF760FF800020640248E06310BD00001B
:10023000F8FFFDBF0000024030B5056C0124AC4062
:10024000C56B6C60046863604368102B036803D05F
:1002500099600068C26030BD9A600068C16030BDBE
:1002600010B5002908D00A460146044801F0A0F95B
:10027000002801D000F012F810BD0000C8000020D6
:1002800010B505484169C90705D0416901221143EC
:10029000416101F01DFE10BD0004014072B6FEE791
:1002A00030B5014620314B780022022B04D00423C4
:1002B00083630A70012030BD03681C680E25AC43BF
:1002C0001C6003681C68640864001C600123056CE2
:1002D0001C46C06BAC4044604B700A70002030BDBF
:1002E00070B50024014620314A78022A03D0042147
:1002F0008163012416E0026813680E25AB43136086
:10030000026813685B085B0013600122056C1346EA
:10031000AB40C56B6B604A7000220A70416B0029CC
:1003200000D08847204670BD806B7047F0B4C16B29
:100330000D6801680C680422066C1346B3402B421A
:100340000DD063070BD50B689B0602D40B68934353
:100350000B60016C8A40C16B4A60C16A19E00227D8
:10036000B74002462F4001232032002F15D0A707A7
:1003700013D50C68A40604D40C680A25AC430C60A1
:100380005370036C02219940C36B596000211170B6
:10039000816A002916D0F0BC08470827B7402F42D1
:1003A00010D024070ED50C680E25AC430C60046CED
:1003B0001946A140C46B61608363537000211170C2
:1003C000016BE6E7F0BC704770B5040021D0022154
:1003D0002046203005464170226811680E48A36807
:1003E0000140606826691843E36833431843636932
:1003F0001843A3691843E369184308431060204673
:10040000FFF708FF0021A1630120687029700846EA
:1004100070BD012070BD00000FC0FFFFF8B504469D
:100420008C46203001780025012909D0012606706C
:1004300041780027012905D0077002252846F8BD1C
:100440000220F8BD02214170A763206801684908B5
:100450004900016061462046FFF7EEFEE06A002891
:100460002068016802D00E22114306E00A221143DF
:1004700001602068016804229143016020680168DE
:1004800031430160DAE70000F8B5002303240125B9
:10049000BAE02E469E40B44632407CD00E79B60774
:1004A000B60F012E01D0022E17D186682746B64618
:1004B0005E00B74000967646BE43B646CF68009EC3
:1004C000B74076463743876046686746BE430F7934
:1004D000FF06FF0F9F40374347600E79F643B6078C
:1004E0000ED0C6682746B4465E00B646B74066469C
:1004F000BE43B4468F687646B74066463743C7600A
:100500000E79B607B60F022E14D1DE08B6003618E3
:100510000096366A5F07B446FE0E0F27B646B74010
:100520006646BE43B4460F697646B74066463743D3
:10053000009E376206682746B4465E00B646B7405E
:100540006646BE430F79B446BF07BF0F7646B74035
:100550006646374307604E68B603B60F53D02D4F3B
:10056000BE692E43BE61BE699F08F607F60F2A4E8C
:10057000BF00BE190096B6680F27B4469E07360F17
:10058000B646B7406646BE430927FF06B446B842A2
:1005900002D1002710E036E0204FB84201D10127F8
:1005A0000AE01F4FB84201D1022705E01D4FB842B3
:1005B00001D1032700E005277646B740664637435A
:1005C000009EB760184E36684F689643FF0300D50B
:1005D0001643154F3E607E684F689643BF0300D5B3
:1005E0001643114F7E60BE684F689643FF0200D5E8
:1005F00016430D4FBE60FE684F689643BF0200D59C
:100600001643094AD6605B1C0A681646DE4000D0D5
:100610003FE7F8BD00100240000001400004004820
:1006200000080048000C00480004014042691346DD
:100630000B401B0491430B4383617047002A01D098
:10064000816170478162704701488068704700008F
:100650000C00002002488168027889188160704788
:100660000C00002010B506480168102211430160FB
:10067000002000F007F800F027F8002010BD00006F
:100680000020024070B504460D4D7D202978C00041
:10069000FFF728FD01460B480068FFF723FD00F037
:1006A0004FFB002809D1042C07D200222146401E0E
:1006B00000F02AF800206C6070BD012070BD0000C1
:1006C0000C0000201800002008B5084881690122AC
:1006D00011438161816911400091C26901040A439B
:1006E000C261C0690840009008BD000000100240CF
:1006F000002805DBC106C90E0120884001490860B9
:100700007047000000E100E010B501F039FC10BDB9
:10071000F8B505460068354CC00352D5E06900269F
:10072000C00007D4E16920040143E161E1690140AF
:10073000012600912E480168C90510D40168821570
:1007400011430160FFF780FF074604E0FFF77CFFDD
:10075000C01B642824D826480068C005F6D5206A46
:1007600003273F02384020D06968394081421CD0BD
:10077000206A226AB843012109040A432262226ADC
:100780008A4322622062C0070FD0FFF75DFF00900E
:1007900008E0FFF759FF0099411A1648814201D934
:1007A0000320F8BD206A8007F3D5206A6968B84342
:1007B00008432062002E04D0E16901200007814334
:1007C000E1612878C00705D0206BA9688008800007
:1007D000084320632878800605D5206B10218843C4
:1007E000E968084320630020F8BD000000100240C3
:1007F0000070004088130000F8B50F46060059D07D
:100800003A4D2868C007C00FB84209D2286840088E
:100810004000384328602868C007C00FB84249D15B
:100820003068334C81070CD5400704D56068072138
:100830000902084360606068F0218843B16808439A
:1008400060603078C00726D0706801280ED021681B
:1008500002280ED0890700292CDA616889088900EE
:1008600001436160FFF7F0FE00900DE0216889030D
:10087000F1E78901EFE7FFF7E7FE0099411A1D480C
:10088000814201D90320F8BD60680C2108407168DD
:1008900089008842EFD12868C007C00FB8420BD941
:1008A000286840084000384328602868C007C00F07
:1008B000B84201D00120F8BD3078400706D5606805
:1008C000072109028843F1680843606000F028F8B6
:1008D0006168094A0906090F515CC8400749086068
:1008E0000020FFF7CFFE0020F8BD000000200240EE
:1008F0000010024088130000C420000818000020E7
:100900000448054900684968044A4905490F515C93
:10091000C84070471800002000100240D420000892
:1009200010B514A30FCB88B06C460FC415A30FCB22
:100930000FC4184A51680C200B4603401648042B7C
:1009400016D0082B14D18B021B0F6C46E45CD26AC4
:1009500004AB1207120F9A5CC90305D50023194690
:10096000FFF7D6FB214601E020460C4901F0F0FAE2
:1009700008B010BD02030405060708090A0B0C0D98
:100980000E0F10100102030405060708090A0B0CDC
:100990000D0E0F100010024000127A0000093D00F9
:1009A000FEB5040070D02078DC4DC0074AD06868DE
:1009B0000007800F012807D068680007800F022811
:1009C00009D16868C00306D5286880033AD56068F5
:1009D0000028E7D036E06168012914D001208004A6
:1009E000002901D0052914D02A68012109048A436D
:1009F0002A602968814329606068002816D0FFF7C3
:100A000023FE06460EE028680121090408432860F9
:100A1000F2E7296801432960F5E7FFF715FE801B1F
:100A200064286ED828688003F7D50BE0FFF70CFE2A
:100A3000064604E0FFF708FE801B6428F1D828680A
:100A40008003F7D420780126800700283CDA686804
:100A50000007800F07D068680007800F022809D1BF
:100A60006868C00306D42868800716D5E0680128A6
:100A70000AD112E0E0680028286816D030432860C8
:100A8000FFF7E2FD074605E043E1FFF7DDFDC01B90
:100A90000228C6D828688007F7D52868F821884337
:100AA0002169C900084328600EE040084000286022
:100AB000FFF7CAFD074604E0FFF7C6FDC01B02288A
:100AC000AFD828688007F7D42078000722D5E069DE
:100AD0000028686A0ED030436862FFF7B5FD07460C
:100AE00004E0FFF7B1FDC01B02289AD8686A8007AE
:100AF000F7D50FE0400840006862FFF7A5FD074604
:100B000005E09DE0FFF7A0FDC01B022889D8686AB8
:100B10008007F7D4207804274007002860DA0020F7
:100B20000190E869C00008D4E969B8060143E961A9
:100B3000E969014001200091019079480168C905E7
:100B400011D40168821511430160FFF77DFD00900B
:100B500005E0FFF779FD0099401A642870D87048C5
:100B60000068C005F5D5A06801280AD0002801D08A
:100B7000052810D0286A400840002862286AB84337
:100B800001E0286A30432862A068002812D0FFF7ED
:100B90005BFD00900AE0286A38432862F1E7FFF71E
:100BA00053FD0099411A5F48814249D8286A80075D
:100BB000F5D50DE0FFF748FD009006E0FFF744FD96
:100BC0000099411A574881423AD8286A8007F5D4DB
:100BD0000198002804D0E969012000078143E961F8
:100BE0002078C00635D5606901280CD0401D686B9F
:100BF00023D038436863686B400840006863FFF7A0
:100C000023FD064622E0686B38436863686B304317
:100C10006863FFF719FD064604E0FFF715FD801B2A
:100C200002285BD8686B8007F7D5686BF82188438A
:100C3000A169C900084368630BE0B8436863F4E73F
:100C40004CE0FFF701FD801B022847D8686B800746
:100C5000F7D4206A00285ED069680907890F022945
:100C600042D0012636060228286805D0B043286005
:100C7000FFF7EAFC044633E0B0432860FFF7E4FCEA
:100C8000074604E0FFF7E0FCC01B022826D82868CE
:100C90008001F7D4E86AE16A000900010843E862CC
:100CA000616AA06A084369683D22120491430843BF
:100CB0006860286830432860FFF7C6FC044604E0FB
:100CC000FFF7C2FC001B022808D828688001F7D56E
:100CD00021E0FFF7B9FC001B022801D90320FEBD6B
:100CE00028688001F5D416E00128F8D06868E96A20
:100CF00001221204636A02409A420AD10907E26A99
:100D0000090F914205D10F2189040840A16A884248
:100D100001D00120FEBD0020FEBD000000100240F9
:100D20000070004088130000042204490428086968
:100D300002D09043086170471043FBE700E000E0F9
:100D4000094910B5401E884201D9012010BD074C49
:100D500060610321081F01F013F90020A061072042
:100D60002061002010BD0000FFFFFF0000E000E058
:100D700070477047F0B502462032137F012B1BD01D
:100D8000012616770223537705686B68AC687027D5
:100D9000BB430F681F436F600068084B984202D046
:100DA000074B984204D1802349689C4321438160CA
:100DB000567700201077F0BD0220F0BD002C0140D6
:100DC0000004004070B5040005D025462035687F3A
:100DD000002802D006E0012070BD002028772046C0
:100DE00000F014F802206877211D206800F01AFD39
:100DF00001204034A071A877E87720706070A0705F
:100E0000E070207160716877002070BD08B50068DF
:100E1000094988420FD109488269C1140A43826195
:100E2000806900220840009011460D20FFF76CFCFD
:100E30000D20FFF75DFC08BD002C014000100240B2
:100E4000014620314A7F012A01D001207047022249
:100E50004A770268D36801210B43D3600068084ACF
:100E6000904202D0074A904204D182685207520F42
:100E7000062A02D002680A43026000207047000080
:100E8000002C014000040040F8B50546044620351A
:100E9000287F0026012817D00120287702206877B4
:100EA000226890687727FF23B8431B02984390601D
:100EB0000868502838D00EDC20284FD006DC0028E7
:100EC0004CD010281ED149E00220F8BD302845D072
:100ED000402817D13AE060282ED0702819D001227E
:100EE0001203801A0FD090420CD1CB684A688968EF
:100EF000206800F0D3FC206881680122920311432E
:100F0000816000E0012601206877002028773046C4
:100F1000F8BDCB684A688968206800F0BFFC21688A
:100F2000886838438860EEE7CA684968206800F03E
:100F3000C8FC5021206806E0CA684968206800F0B3
:100F4000D1FC6021206800F0B4FCDCE7CA68496885
:100F5000206800F0B6FC40212068F4E722680146D2
:100F60001046F0E7704770B5044600680169002537
:100F7000C9438907002915DBC168C943890711D412
:100F8000E91E0161012020772068806980072046E2
:100F900002D0FFF7E7FF04E000F096F8204600F0EB
:100FA00094F8257720680169C943490717D4C168B7
:100FB000C943490713D40421C943016102202077A2
:100FC000206880698005800F204602D0FFF7CAFFA5
:100FD00004E000F079F8204600F077F825772068E3
:100FE0000169C943090716D4C168C943090712D466
:100FF0000821C9430161042020772068C069800767
:10100000204602D0FFF7AEFF04E000F05DF8204676
:1010100000F05BF8257720680169C943C90617D439
:10102000C168C943C90613D41021C943016108200E
:1010300020772068C0698005800F204602D0FFF726
:1010400091FF04E000F040F8204600F03EF82577DC
:1010500020680169C943C90708D1C168C943C907E4
:1010600004D1891E0161204600F030F82068016932
:10107000C943090609D4C168C943090605D48021BA
:10108000C94301612046FFF773FE20680169C94327
:10109000490609D4C168C943490605D44021C9435A
:1010A0000161204600F01EF820680169C9438906E5
:1010B00009D4C168C943890605D42021C943016107
:1010C0002046FFF756FE70BD7047704703498842BF
:1010D00003D103490888401C088070471C00002089
:1010E0000400002070477047F8B50446806FE66F33
:1010F00021688A682546120610278035002A1BDAE7
:10110000212819D1EFF31080012282F310888A6818
:1011100080239A438A6080F31088E06E002808D00C
:10112000FFF7BEF8002804D0E06EFFF7FDF8202896
:1011300024D0204600F061FD2168886840061BD558
:10114000222E19D1EFF31080012282F310888A68D1
:1011500040239A438A6080F31088206F002808D0CB
:10116000FFF79EF8002804D0206FFFF7DDF8202855
:1011700004D0204600F012FD0020F8BD2F600320AF
:10118000F8BD7047F8B502680446D06911689668E2
:101190009C4B05461D402023002D75D0F7079A4D26
:1011A000FF0FBC460D402F436DD02546C707803545
:1011B000002F06D0CF0504D5012717622A683A43CD
:1011C0002A60820708D5F20706D0276802223A6211
:1011D0002A6804273A432A60420708D5F20706D056
:1011E0002668042232622A68022632432A600207F5
:1011F0000AD50A461A406646324305D026680822B8
:1012000032622E6816432E60020508D54A0106D5C3
:1012100001222668D20232622A681A432A602A68AA
:10122000002A39D0800606D5880604D5616E0029CB
:1012300001D020468847286821688968490602D479
:10124000282108422DD0204600F0A8FC216888689B
:10125000400622D5EFF31080012282F310888B68BC
:10126000402293438B6080F31088206F002814D0B5
:1012700066494163206FFFF733F800280CD0206FD8
:10128000416B08E000E012E0850610D58D060ED512
:10129000616E9DE020468847F8BD2046FFF771FF4C
:1012A000F8BD2046FFF76DFF00202860F8BD256ED1
:1012B000012D7DD1C5067BD5CD0679D510261662C8
:1012C00022689068254640064035002845DA216F9F
:1012D000086840680004000CE8D02F8B8742E5D9ED
:1012E00068838869202833D0EFF31080012181F3CF
:1012F000108811683701B943116080F31088EFF34B
:101300001080012181F3108821688A6852085200F8
:101310008A6080F31088EFF31080012181F3108838
:1013200021688A684027BA438A6080F31088E3679F
:1013300000202066EFF31080012181F310882168DE
:101340000A68B2430A6080F31088206FFEF7A8FF96
:10135000288B698B401A81B231E0288B698B401A47
:1013600081B2688B0028A1D000299FD0EFF31080B4
:10137000012585F310881568FF272137BD431560C7
:1013800080F31088EFF31080012282F31088226826
:1013900095686D086D00956080F31088E367002004
:1013A00020666066EFF31080012282F3108800E06F
:1013B00009E022681368B343136080F31088204665
:1013C000FFF791FEF8BD050606D50D0604D5A16E02
:1013D000002900D05EE7F8BD4006FCD54806FAD5E6
:1013E0002046EFF31081012484F31088146840250F
:1013F000AC43146081F3108883670021816600F09C
:1014000037F9F8BD0F08000020010004391A000860
:1014100010B5040003D0A06F002802D007E001201F
:1014200010BD002174200155204600F027F824202B
:10143000A06720680168490849000160204600F063
:10144000EDFB0128ECD0606A002802D0204600F0B5
:101450005CFA206841680122D20291434160206811
:10146000816808229143816020680168012211434C
:101470000160204600F0AEFA10BD0000F0B587B064
:10148000064614216846FEF78BFE2B4930688842D9
:1014900050D12A488269012189030A438261826905
:1014A0000A4005924269C9000A434261406900242A
:1014B0000840059003204002009002200190032084
:1014C000039001200490092002946946C006FEF7AB
:1014D000DBFF1B481B4D802711C52C60AC60EC6006
:1014E0002C616F606C611748083DFEF76DFF0028A6
:1014F00001D0FEF7D3FE35676E62124D10484435B9
:10150000143828601020291D91C12C616C61AC61D8
:101510002846EC61FEF758FF002801D0FEF7BEFE1A
:10152000F566002211461B206E62FFF7EDF81B20C6
:10153000FFF7DEF807B0F0BD0038014000100240B0
:10154000300002404C01002070B5C36F202B2BD11E
:1015500000290BD0002A09D0012483682403A34268
:1015600006D10369002B03D1CB0701D0012070BD48
:10157000034660331C7D012C16D001241C7500230A
:101580000366046863681B020BD5EFF31083012523
:1015900085F3108825680126B6063543256083F358
:1015A000108800F0C9FB70BD022070BD7047704705
:1015B000F8B50446806F202852D100290BD0002AAC
:1015C00009D00123A0681B03984206D12069002896
:1015D00003D1C80701D00120F8BD25466035287D1C
:1015E00001283DD00120287520464030E164028268
:1015F00042820026274680373E602120A067E06EA9
:1016000000281BD017498162E16E1748C862E16E5D
:1016100016480863E06E13464663E06C2168844612
:101620000A4628326146E06EFEF7F8FE002805D033
:10163000102038602E752020A067CCE7216840205C
:1016400008622E75EFF31080012181F31088216864
:101650008A6880231A438A6080F310880020F8BDCE
:101660000220F8BD491B0008931B00084D1A000812
:1016700070477047FEE7000008B50848416901223D
:1016800011434161406910400022009011460A2038
:10169000FFF73AF80A20FFF72BF808BD00100240C8
:1016A00010B586B014216846FEF77AFD0D484269F0
:1016B000012149040A43426140690924084001228A
:1016C000E406059011462046FEF7B8FF01210020F0
:1016D000009101910291039069462046FEF7D4FEE5
:1016E00006B010BD0010024010B586B00024009472
:1016F00017480194029403940494144905940160DA
:101700002F2184604160046112494461C1608021DD
:101710008161FFF757FB002801D0FEF7BFFD0120D4
:101720000003009069460A48FFF7AEFB002801D08D
:10173000FEF7B4FD049404A905480594FFF71AFBCD
:10174000002801D0FEF7AAFD06B010BD002C014014
:101750001C000020E703000010B50C480A49016096
:10176000E1214902416000218160C1600161816124
:10177000C1610C22016242614162FFF749FE00280B
:1017800001D0FEF78BFD10BD00380140C8000020DD
:10179000FEE77047704710B5FEF75CFF10BD70B5EF
:1017A00094B030216846FEF7FBFC00240E9413949D
:1017B00010200994022504900D940F940520129492
:1017C00001260095C0040C94109403960A9011947D
:1017D00008950B946846FFF7E3F8002801D072B62D
:1017E000FEE707200C900E9401210D950F940CA894
:1017F000FFF702F8002801D072B6FEE710A8109695
:101800001294FEF785FF002801D072B6FEE714B0EF
:1018100070BD704710B50248FFF7A5FB10BD000072
:101820001C00002070B50268174B184E984201D07A
:10183000B04203D17024A2434C682243144C154D8E
:10184000984208D0B04206D0134EB04203D0A04216
:1018500001D0A84204D103263602B243CE683243F7
:101860008026B2434E69324302608A68C2620A68C7
:101870008262984203D0A04201D0A84201D10969F6
:1018800001630121416170BD002C01400004004052
:1018900000440140004801400020004030B5846809
:1018A000FF252D021B021343AC430B4323438360EC
:1018B00030BD826870239A430A4307210A4382603D
:1018C000704730B5036A046A64086400046284697E
:1018D000F025AC43120122430A24A3430B43826147
:1018E000036230BD30B5036A1024A34303628469E8
:1018F000036A0F252D031203AC432243A024A34304
:10190000090119438261016230BD10B5818CC9079C
:1019100007D001684A6801235B049A43836A1A432B
:101920004A60818C890707D501684A6801231B0436
:101930009A43C36A1A434A60818C490707D50168F4
:101940004A6801239B049A43036B1A434A60818CC3
:10195000090707D501684A680123DB039A43436BF3
:101960001A434A60818CC90607D502689168012331
:101970001B039943836B19439160818C890607D5BA
:1019800001688A6801235B039A43C36B1A438A6028
:10199000818C490612D503685A6801210905046C37
:1019A0008A4322435A60026C8A4207D10268516816
:1019B00003235B059943436C19435160818C0906ED
:1019C00007D501684A680123DB04806C9A4302430F
:1019D0004A6010BDF8B50446002680300660FEF768
:1019E00033FE054620680068124F000709D5012123
:1019F0002B46002249052046009700F0F5F9002803
:101A00000DD12068006840070BD501212B4600222C
:101A100089052046009700F0E7F9002801D003204F
:101A2000F8BD2020A067E067266660342675002098
:101A3000F8BD0000FFFFFF0110B5406A002201461B
:101A400040314A834A82FFF79CFB10BD70B5446A5F
:101A5000A06FE56F2168896800260906002906DA6B
:101A6000212804D152200653204600F0C6F82068F1
:101A70008068400606D5222D04D15A200653204600
:101A800000F08CF82046803001681022114301607C
:101A90002046FFF776FB70BD10B501468969406AA4
:101AA000202938D000225A210A52EFF31081012256
:101AB00082F3108802681368FF240134A343136083
:101AC00081F31088EFF31081012282F310880268FD
:101AD00093685B085B00936081F31088EFF31081DB
:101AE000012282F31088026893684024A343936024
:101AF00081F310882021C167016E01290BD1EFF31A
:101B00001081012282F31088026813681024A34315
:101B1000136081F31088016E012902D0FFF746FDA2
:101B200010BD5821095AFFF7DEFA10BD10B5406A02
:101B3000016E012902D0FFF73AFD10BD5821095A64
:101B40004908FFF7D0FA10BD10B501468969406A0F
:101B500020291BD0002252210A52EFF310810122CA
:101B600082F31088026893688024A343936081F312
:101B70001088EFF31081012282F310880068026858
:101B800040231A43026081F3108810BDFFF770FDF7
:101B900010BD10B5406AFFF76CFD10BD10B5EFF336
:101BA0001081012282F3108802681368FF24213417
:101BB000A343136081F31088EFF31081012282F3B5
:101BC0001088026893685B085B00936081F310885B
:101BD000016E01290BD1EFF31081012282F31088ED
:101BE000026813681024A343136081F31088202136
:101BF000C16700210166416610BD10B5EFF3108189
:101C0000012282F3108802681368C024A343136082
:101C100081F310882021816710BD000070B5044653
:101C200080682169E269084361690025114308431E
:101C300021680A683C4B1A4002430A6021684868E0
:101C4000032212039043E26810434860A169206AAE
:101C5000084321688A680B231B029A4302438A6067
:101C60003248006B8007800F16D0012818D0022858
:101C700018D0032812D010210120E369C0032C4A98
:101C80002C4E83422BD100290ED002290FD00429DB
:101C90000FD008293FD110E00021EDE70221EBE74A
:101CA0000421E9E70821E7E7FEF72AFE03E01046F2
:101CB00003E0FEF735FE002831D0616840004A0895
:101CC0008018FEF70FFA80B201461039B14222D8CF
:101CD0001849491C01400007400F08431DE0002936
:101CE00006D0022907D0042907D0082913D108E01B
:101CF000FEF706FE03E0104603E0FEF711FE0028A3
:101D00000DD061684A081018FEF7ECF980B2014660
:101D10001039B14201D9012501E02168C8600020D5
:101D20006066A066284670BDF369FFFF00100240A0
:101D300000127A00EFFF0000F8B50446416540301C
:101D400000262746028380373E602220E067254632
:101D5000206F603500281BD020498162216F204808
:101D6000C862216F1F480863206F13464663606D89
:101D70002168844662462431206FFEF74FFB00281D
:101D800006D0102038602E752020E0670120F8BDB5
:101D90002E75EFF31080012181F3108821680A6805
:101DA000FF2301331A430A6080F31088EFF3108099
:101DB000012181F31088226893680B43936080F3BC
:101DC0001088EFF3108081F3108821688A6840231F
:101DD0001A438A6080F310880020F8BD991A000821
:101DE0002D1B00084D1A0008FFB581B005461746A7
:101DF000044660350A9E55E0701C53D0FEF724FC63
:101E00000499401AB04230D8002E2ED020680168C4
:101E1000490747D5C069C043000543D40120216864
:101E2000C0020862EFF31080012181F3108821685D
:101E30000B68FF22A13293430B6080F31088EFF30D
:101E40001080012181F3108821688A6852085200AD
:101E50008A6080F310882020A067E06780342060CB
:101E600000202875032005B0F0BDEFF3108001219C
:101E700081F3108821680B68FF22A13293430B6025
:101E800080F31088EFF31080012181F3108821681E
:101E90008A68520852008A6080F310882020A06768
:101EA000E067DDE72068C1690298884304D000201C
:101EB000B842A1D00020D6E70120F9E710B500F024
:101EC0001BF80248FFF75EF910BD0000C8000020B3
:101ED00010B5074C21780748FEF7C2F900202070A2
:101EE0006070044964228818FFF72EFB10BD0000C3
:101EF000060000206400002010B50D480068C1698C
:101F0000C906C90F12D0102101620948FFF7ECF889
:101F100007488430006840686421081A0549087041
:101F20000120487004490A6902430A6110BD00009B
:101F3000C8000020060000200004014010B5024A3D
:101F4000024900F04EF810BD1520000808000020DE
:101F5000F8B5040C8BB2264682B25E430D0C1046D7
:101F6000370C5843360480190021794116466E43D8
:101F7000370C36048019794126466E438919F8BD1D
:101F80008307FF22DB0E9A408907090E994000283B
:101F900008DB830809489B001B1818689043084316
:101FA000186070470007000F0838830804489B003A
:101FB0001B18D86990430843D861704700E400E0DB
:101FC00000ED00E002E008C8121F08C1002AFAD1A3
:101FD00070477047002001E001C1121F002AFBD1A9
:101FE0007047F8B516460F460446002503E039460B
:101FF000B047641C6D1C20780028F8D12846F8BD35
:1020000010B504460420FEF78FFE0148046010BDA1
:10201000000000200449CA695206FCD5024AC1B238
:10202000203211817047000000380140FEF71AFB92
:10203000FFF7B5FBFFF734FBFFF71EFBFFF754FB81
:10204000FFF78AFB3020FFF7DBFF1548016801220C
:1020500011430160002203210520FEF755FB0520F6
:10206000FEF746FB0F48006801681022114301602B
:1020700064220D490B48FFF767FA0C48FEF7E0FEB3
:102080000BA0FFF75BFF00250D4C0926F606208804
:102090006428FCD3258001213046FEF7C7FAF6E715
:1020A00000040140C8000020640000201C00002043
:1020B00073746D333266303330663470360D0A0017
:1020C00004000020000000000000000001020304E2
:1020D000060708090000000001020304FC200008B4
:1020E000000000201C000000C41F00081821000888
:1020F0001C000020BC050000D41F000800000000E8
:1021000000000000000000000100000004000000CA
:082110000000000000127A003B
:04000005080000B13E
:00000001FF
