:020000040800F2
:1000000000060020D5000008311900080317000879
:1000100000000000000000000000000000000000E0
:100020000000000000000000000000007B19000834
:10003000000000000000000079190008011C000801
:10004000E7000008E7000008E7000008E7000008F4
:10005000E7000008E7000008E7000008E7000008E4
:10006000E7000008E700000831020008E700000888
:10007000E7000008E700000800000000E91C000895
:1000800000000000E7000008000000000000000081
:10009000E700000800000000E7000008E700000893
:1000A000E7000008E7000008E7000008A9210008B1
:1000B000E7000008E7000008E7000008E700000884
:1000C0000348854600F0A2F8004800475522000882
:1000D000000600200448804704480047FEE7FEE78A
:1000E000FEE7FEE7FEE7FEE7951C0008C1000008FA
:1000F00030B50B46014600202022012409E00D46C0
:10010000D5409D4205D31D469540491B2546954047
:1001100040191546521E002DF1DC30BD70B500248B
:100120002546002801DA01244042002901DA012590
:100130004942FFF7DDFFAC4200D04042002C00D026
:10014000494270BDF0B51FB40646002082B0054696
:100150004024019100901BE0019922460F46304651
:1001600000F042F8049A059B801A994110D310467A
:100170001946224600F028F8361A8F410197224688
:1001800001200021009F00F01FF838184D41009019
:100190002046641E0028DFDC019B00982946324679
:1001A00007B0F0BDD2B201E00270401C491EFBD284
:1001B00070470022F6E710B513460A460446194672
:1001C000FFF7F0FF204610BD10B5202A04DB0146E2
:1001D000203A9140002010BD914020239C1A0346F4
:1001E000E3401943904010BD10B5202A04DB0846B7
:1001F000203AD040002110BD0B46D340D0402024EF
:10020000A21A91400843194610BD0000064C012572
:10021000064E05E0E36807CC2B430C3C98471034AE
:10022000B442F7D3FFF750FFD0220008F0220008B5
:1002300010B5034800F02FF8024800F02CF810BD6C
:10024000B801002070010020704770B500240146FD
:1002500020314A79022A03D00421C163012418E025
:10026000026813680E25AB431360026813685B08CD
:100270005B001360436C1C221340012215469D4015
:10028000036C5D604A7100220A71816B002900D005
:100290008847204670BDF0B4016C0D6801680C6899
:1002A000466C1C2304221E401746B7402F420ED036
:1002B00067070CD50C68A40602D40C6894430C6044
:1002C000416C19408A40016C4A60016B1AE00227B8
:1002D000B74002462F402032002F17D0A70715D570
:1002E0000C68A40605D40C680A25AC430C600121F7
:1002F0005171446C02211C40036CA14059600021E3
:100300001171C16A002918D0F0BC08470827B7400E
:100310002F4212D0240710D50C680E25AC430C6078
:10032000446C01211C400B46A340046C6360C16314
:10033000517100211171416BE4E7F0BC704700007E
:1003400070B504003CD01F48256814212818FFF719
:10035000CFFE800060641C482064022120462030CB
:100360000246417129681948E3680140A06866693E
:100370001843236933431843A3691843E3691843B7
:10038000236A1843084328600121A0688903884232
:1003900010D00D488030836A656C1C210D400F26FB
:1003A000AE40B3438362656C63680D40816AAB40C5
:1003B0000B4383620020E06301215171107170BD15
:1003C000012070BDF8FFFDBF000002400F80FFFF5D
:1003D000F8B500230124A2E027469F403A4070D0A0
:1003E0004D68022D01D0122D14D1DD08AD002D185D
:1003F00000952D6A5E07AC46F50E0F26AE46AE4060
:100400006546B543AC460E697546AE4065462E431B
:10041000009D2E624D68012D05D0022D03D0112DB7
:1004200001D0122D16D185680326AC465D00AE467C
:10043000AE406546B543AC46CE687546AE406546AF
:100440002E43866046680D79BE43ED06ED0F9D4054
:100450003543456006685F000325BD40AE46AE43A8
:100460000D79B446AE07B60FBE4065462E43066012
:10047000C6687546AE438D68BD403543C5604D685E
:10048000ED004BD5294D6E6B26436E639E08284DBB
:10049000B6007519AC46AD689E07360F0F27B740FA
:1004A000BD4305273F07B84201D1002715E0214F82
:1004B000B84201D1012710E01F4FB84202D10227F4
:1004C0000BE02BE01D4FB84201D1032705E01C4F84
:1004D000B84201D1052700E00627B7402F43654603
:1004E000AF60184D2E684F689643FF0300D5164342
:1004F0002E606E684F689643BF0300D516436E604A
:10050000AE684F689643FF0200D51643AE60EE68B2
:100510004F689643BF0200D51643EE605B1C0A6825
:100520001546DD4000D057E7F8BD0000001002403E
:10053000000001400004005000080050000C005072
:10054000001C00500004014042694A40426170476B
:10055000002A01D0816170478162704701480068BC
:10056000704700001800002002480168491C016023
:10057000704700001800002010B5084800240168EA
:10058000402211430160204600F00AF8002801D003
:10059000012401E000F03AF9204610BD002002409D
:1005A00070B5054609487D210024C9000068FFF7A1
:1005B0009FFD00F0E9FD002801D0012404E00022A5
:1005C0002946501E00F038F9204670BD1C0000205E
:1005D000F8B500250446002806D026462036707D52
:1005E0000027002802D005E00120F8BD377520461D
:1005F00000F06CF802207075206801684908490015
:100600000160A800216814300F506D1CEDB20F2D51
:10061000F7D920688168042211438160A16860686D
:10062000E26A0843A16A11430843E1690843216A69
:100630000843A1690843616A084321684A68224B5C
:100640001A4010434860204601F05CF82169E068D8
:10065000226B084361691143084321680A68FE233D
:100660009A43104308602068016801221143016029
:10067000FFF774FF054608E0FFF770FF411B7D2080
:10068000C000814201D9082010E020688068C04382
:10069000C007F1D1FFF762FF05460AE0FFF75EFFF2
:1006A000411B7D20C000814203D91020A06303209C
:1006B000F8BD20688068C043C006EFD4A76301205E
:1006C00070750020F8BD00000F0000FC70B586B00A
:1006D000044614216846FFF76CFD164920688842DD
:1006E00026D11548816B421511438163C16A0126E9
:1006F0003143C162C16A31400591C16A022421437C
:10070000C162C06A0025204005900C48694631C18D
:1007100005206946000704960395FFF759FE08482F
:10072000694631C16946074804960395FFF750FEB4
:1007300006B070BD0024004000100240CE0700004B
:100740003B0E000000040050F8B504462168082064
:10075000C86020688168042739438160FFF7FEFE86
:100760002546064620350BE0FFF7F8FE811B7D206D
:10077000C000814204D9A763002028750320F8BD7A
:1007800020688068C0430007EED40120687500200F
:100790002875F8BDFFB5044605462034607D81B05C
:1007A000012805D0607D022802D0012005B0F0BDEF
:1007B000607D01281DD1207D012807D001202075F2
:1007C00002276775FFF7CAFE06460DE00220EDE737
:1007D000FFF7C4FE811B7D20C000814204D9AF63B6
:1007E000002020750320E1E728688068C0434007A7
:1007F000EED502982A68800014301158039B1940E6
:10080000049B194311500020D0E700000448416BBD
:10081000012211434163816B0204114381637047DC
:1008200000100240C106C90E01208840014908603D
:100830007047000000E100E010B501F07BF810BD4A
:100840000248016882151143016070470070004042
:10085000F8B504460068614D810601D400057DD5D8
:100860005E4E0027403EB06BC00004D4B06B310434
:100870000843B06301275A480168C90511D40168CB
:10088000821511430160FFF769FE009005E0FFF754
:1008900065FE0099401A642844D851480068C00594
:1008A000F5D5316803200005626801401040884298
:1008B00005D10323A0681B051840884208D0900387
:1008C000800F032804D13068800301D50120F8BDD2
:1008D000286903210904084029D00A40824202D035
:1008E0002278920606D4A2680A4082421FD020884D
:1008F00000051CD528692A6988430121C9040A43D7
:100900002A612A698A432A612861C0050FD5FFF749
:1009100025FE009008E0FFF721FE0099411A3148BA
:10092000814201D90320F8BD28698005F3D56168AB
:100930008803800F032805D13268000582430140F7
:100940000A43326028690322616812041140084397
:100950002861002F06D0B16B012000E002E0000703
:100960008143B1632078C00705D0E868E16880085A
:1009700080000843E8602078800705D5E8680C21EE
:10098000884321690843E8602078400706D5E86875
:1009900003218902884361690843E86020780007E1
:1009A00006D5E868032109038843A1690843E86084
:1009B0002078400606D5E868012189068843216A27
:1009C0000843E8602078000606D5E868032189041A
:1009D0008843E1690843E8600020F8BD4010024008
:1009E0000070004088130000F8B50E4605007DD069
:1009F00053480068C007C00FB0420AD2504801688F
:100A000049084900314301600068C007C00FB04287
:100A100071D128784B4C800705D5E068F0218843D8
:100A2000A9680843E0602878C00752D068680228A7
:100A300017D0032818D02168012818D0890500296B
:100A400059DAE168890889000143E160FFF786FD12
:100A500069680746022912D003291CD0012926D033
:100A600033E021688903EAE721688901E7E749075C
:100A7000E5E7FFF773FDC11B3348814223D8E068E7
:100A80000007800F0228F4D123E0FFF767FDC11BA8
:100A90002D48814217D8E0680007800F0328F4D161
:100AA00017E0FFF75BFDC11B274881420BD8E068C8
:100AB0000007800F0128F4D10BE0FFF74FFDC11BA9
:100AC0002148814201D90320F8BDE0680007800F6A
:100AD000F3D11B480168C907C90FB1420DD901689C
:100AE0004908490031430160006800E003E0C007A5
:100AF000C00FB04201D00120F8BD2878400706D5CC
:100B0000E068072109028843E9680843E060287823
:100B1000000707D5E0680721C90288432969C90091
:100B20000843E06000F036F8E168084A0906090F5A
:100B3000515CC840064908600020FFF731FDF8BD50
:100B4000002002400010024088130000AC22000880
:100B50001C000020044805490068C968044A49058A
:100B6000490F515CC84070471C0000200010024033
:100B7000C5220008044805490068C968044A890478
:100B8000490F515CC84070471C0000200010024013
:100B9000C522000810B5184AD1680C200840042866
:100BA0000BD0082810D00C2810D050680004410F3A
:100BB0000120C003491C884010BD1068C00601D543
:100BC0000E4810BD0E4810BD0E4810BD88020E4BD9
:100BD000000F185C0902D368890F491CDB0301D59B
:100BE000084A05E01268D20601D5044A00E0044A2A
:100BF0005043FFF77DFA10BD0010024000093D0090
:100C00000024F400001BB700BC220008FEB505005C
:100C10007ED0FE4CE7680C20E66807400120000407
:100C200006402878C00747D0082F05D00C2F0AD1DE
:100C300001200004864206D1206880033CD5686804
:100C40000028E5D038E0012069680004814203D122
:100C500021680143216011E0052301221B04920455
:100C60009942216802D111432160F1E7814321605B
:100C70002168014000912068904320606868002846
:100C80000DD0FFF76BFC009005E0FFF767FC0099C3
:100C9000401A64287AD820688003F6D50CE0FFF764
:100CA0005DFC009005E0FFF759FC0099401A6428AC
:100CB000F0D820688003F6D42878800755D509231A
:100CC000E868042F0DD00C2F01D1002E09D0002888
:100CD0003BD02168994301432160FFF73FFC064662
:100CE00027E02168490701D5002891D061681F22BB
:100CF000120291432A6912021143616021689943EB
:100D000001432160FFF746FFE16809060A0F00E092
:100D1000BBE1BF49895CC840BE4908600020FFF7BD
:100D20003FFC002872D120E0FFF718FC801B02284E
:100D3000B0D820684007F7D560681F2109028843B2
:100D400029690902084360600FE0206840084000FC
:100D50002060FFF703FC064604E0FFF7FFFB801B63
:100D6000022897D820684007F7D42878C0065FD5B6
:100D7000002F0CD0E869002849D02068FF210131FC
:100D800008432060FFF7EAFB06462DE0E4E0206818
:100D9000800502D5E8690028A7D0606807214903CB
:100DA0008843696A084360606068298C0002000A11
:100DB000090608436060686A410B0120C003491CB2
:100DC0008840E16809060A0F9149895CC840914949
:100DD00008600020FFF7E4FB002817D128E0FFF7A8
:100DE000BDFB801B0228A3D820688005F7D560686A
:100DF000072149038843696A084360606068298C59
:100E00000002000A09060843606011E023E121683E
:100E1000FF20013081432160FFF7A0FB064604E07C
:100E2000FFF79CFB801B02289BD820688005F7D425
:100E30002878794E000724D568690028306910D0D9
:100E4000012108433061FFF789FB009005E0FFF7BF
:100E500085FB0099401A02287ED830698007F6D5B4
:100E60000FE0400840003061FFF778FB009005E09C
:100E7000FFF774FB0099401A02286DD8306980078B
:100E8000F6D42878400764D500200290A06BC000FB
:100E900006D4A06B012109070843A063012002903A
:100EA0005E480168C90511D40168821511430160CB
:100EB000FFF754FB009005E0FFF750FB0099401A44
:100EC000642849D855480068C005F5D5FF20AA68B0
:100ED0000130824203D131690143316111E00121C6
:100EE0008902002A07D005231B029A4203D13269E6
:100EF0000A433261EFE732698243326130698843E5
:100F00003061A86800280ED0FFF728FB009006E0AB
:100F1000FFF724FB0099411A414881421CD83069EF
:100F20008005F5D50DE0FFF719FB009006E0FFF70F
:100F300015FB0099411A3A4881420DD83069800565
:100F4000F5D40298002804D0A16B0120000781434A
:100F5000A1632878800600E07CE02ED53148A9699D
:100F60004314002916D0A26801210A43A260626BD3
:100F70000A436263016A19430162FFF7EFFA06460A
:100F800004E0FFF7EBFA801B022863D8A068800713
:100F9000F7D512E0A16849084900A160016A9943A8
:100FA0000162FFF7DBFA064604E0FFF7D7FA801B81
:100FB00002284FD8A0688007F7D4A86A002866D016
:100FC0000C2F4DD0012636060228206805D0B043EC
:100FD0002060FFF7C3FA05463EE0B0432060FFF70C
:100FE000BDFA074604E0FFF7B9FAC01B022831D862
:100FF00020688001F7D4296BE86AE2680843696BCE
:10100000FD231B049A43114308430DE000100240E6
:10101000AC2200081C00002040100240007000407C
:101020008813000000000140E06020683043206029
:10103000FFF794FA054604E0FFF790FA401B0228F8
:1010400008D820688001F7D521E0FFF787FA401B18
:10105000022801D90320FEBD20688001F5D416E0E6
:101060000128F8D0E06801210904EA6A01409142B0
:101070000BD10F2189042A6B0140914205D1032134
:1010800089050840696B884201D00120FEBD00201F
:10109000FEBD70B5040007D0002625464035A66287
:1010A000687C002802D005E0012070BD2E74204627
:1010B00000F030F8022068742068016840229143F3
:1010C0000160A168606822690843E1681143084330
:1010D000616901220843A169520211400843E16994
:1010E0000843216A0843A16A084321680860A0698F
:1010F0000421000C0840616A0843216848602068A8
:10110000C16992009143C161666501206874002045
:1011100070BD000010B586B0044614216846FFF784
:1011200048F810492068884219D10F48816B012284
:10113000920311438163C26A02210A43C262C06AF8
:1011400001910840059007204003009000210320F2
:1011500002910491039069460448FFF739F906B0FB
:1011600010BD000000380040001002400004005094
:10117000042204490428086902D09043086170479A
:101180001043FBE700E000E0094910B5401E88422B
:1011900001D9012010BD074C60610321081F00F038
:1011A000C9FB0020A06107202061002010BD0000C5
:1011B000FFFFFF0000E000E0F0B502462032137EA2
:1011C000012B15D0012717760223537605686C682A
:1011D000AB687026B4430E68496826438024A34355
:1011E00019436E6000688160577600201076F0BD6C
:1011F0000220F0BD70B5040005D025462035687E7C
:10120000002802D006E0012070BD0020287620468C
:1012100000F00AF802206876211D206800F06CFDBD
:1012200001206876002070BD10B500680121890793
:1012300088420CD10648816B012211438163002250
:1012400011460F20FFF7F8FA0F20FFF7EBFA10BD59
:10125000001002400268D36801210B43D36000688C
:1012600082685207520F062A02D002680A430260BF
:1012700000207047F8B5054604462035287E012831
:1012800017D001262E76022068762268906877278C
:10129000FF23B8431B02984390600A68502A31D05C
:1012A0000EDC202A4BD006DC002A48D0102A3AD186
:1012B00045E00220F8BD302A41D0402A33D136E043
:1012C000602A27D0702A12D001200003121A2AD0D7
:1012D000824228D1CB684A688968206800F038FDCE
:1012E0002068816801229203114381601BE0CB6872
:1012F0004A688968206800F02BFD216888683843B7
:10130000886010E0CA684968206800F034FD502108
:10131000206806E0CA684968206800F03DFD602149
:10132000206800F020FD6E7600202876F8BDCA689F
:101330004968206800F01FFD40212068F1E7114650
:101340002068EEE7704770B5044600680169002523
:10135000C9438907002915DBC168C943890711D42E
:10136000E91E0161012020762068806980072046FF
:1013700002D0FFF7E7FF04E000F078F8204600F025
:1013800076F8257620680169C943490717D4C168F2
:10139000C943490713D40421C943016102202076BF
:1013A000206880698005800F204602D0FFF7CAFFC1
:1013B00004E000F05BF8204600F059F8257620683C
:1013C0000169C943090716D4C168C943090712D482
:1013D0000821C9430161042020762068C069800784
:1013E000204602D0FFF7AEFF04E000F03FF82046B1
:1013F00000F03DF8257620680169C943C90617D475
:10140000C168C943C90613D41021C943016108202A
:1014100020762068C0698005800F204602D0FFF743
:1014200091FF04E000F022F8204600F020F8257635
:1014300020680169C943C90708D1C168C943C90700
:1014400004D1891E0161204600F012F8206801696C
:10145000C943490609D4C168C943490605D4402196
:10146000C9430161204600F00FF870BD7047704716
:10147000044910B5884204D1052001210007FFF777
:1014800063F810BDB400002070477047704700003B
:10149000F8B502680446D0691168936805072D0FF6
:1014A0005BD0DD07ED0FFF2621360E402E4367D0BF
:1014B000C60706D0CE0504D501261662E26F324378
:1014C000E267870702220426002F06DADF0704D02E
:1014D00027683A62E76F3743E767470706D5DB07B8
:1014E00004D023681E62E36F1343E367020709D544
:1014F00020220A402A4305D0236808221A62E36F9B
:101500001343E367E26F002A2FD0800606D58806D2
:1015100004D5216E002901D020468847E06F21685C
:101520008968490601D4000724D5204600F0E6FC6E
:1015300020688168490619D58168402291438160FD
:10154000E06E002812D020498163E06EFEF77DFE38
:1015500000280AD0E06E816B06E0850610D58D0666
:101560000ED5216E1CE020468847F8BD2046FFF7C7
:101570008DFFF8BD2046FFF789FF0020E067F8BD2A
:10158000C50208D55B0206D5012000051062204681
:10159000FFF77BFFF8BD030605D50B0603D5616E8B
:1015A0000029E0D1F8BD4006FCD54806FAD51368FD
:1015B000204640218B431360202161670021616632
:1015C00000F09EF8F8BD0000E91E000810B5040008
:1015D00003D0606F002802D007E0012010BD002179
:1015E00070200155204600F027F82420606720680D
:1015F0000168490849000160204600F08FFC01287D
:10160000ECD0606A002802D0204600F0D8FB2068A9
:1016100041680922D20291434160206881682A22F0
:1016200091438160206801680122114301602046D6
:1016300000F02AFC10BD0000F0B587B0064614216A
:101640006846FEF7B6FD2949306888424BD12848E4
:10165000416B0122920311434163C26A02210A4392
:10166000C262C06A002408400590C02003276A4671
:1016700093C269461F480494FEF7AAFE1F4D1E48F8
:10168000AC60EC6081C5EC602C6180276C61AF6060
:10169000AC611A48083DFEF753FE002801D0FEF762
:1016A000D3FDF566AE62154D1348483514382860F1
:1016B0000320686029461020083191C16C61AC613B
:1016C000EC6128462C62FEF73BFE002801D0FEF7B5
:1016D000BBFDB566002211461B20AE62FFF7ACF8D9
:1016E0001B20FFF79FF807B0F0BD00000038014055
:1016F0000010024000040050300002407001002041
:101700007047FEE770B50446FEF728FF7D260546C4
:10171000F60008E0FEF722FF401BB04203D901208B
:10172000A063032070BD20688068C0438006F1D4A8
:10173000002070BD08B50848016B01221143016308
:10174000006B10400022009011460A20FFF774F849
:101750000A20FFF767F808BD00100240F0B587B017
:1017600014216846FEF725FD2248C26A04210A4377
:10177000C262C26A0A400592C26A80210A43C262FA
:10178000C26A0A400592C16A01242143C162C16A4A
:1017900021400591C26A02210A43C262C06A05273C
:1017A00008403F070590224621463846FEF7D0FE06
:1017B0002603002231461048FEF7CAFE60030025CA
:1017C00000900195694602950C48FEF701FE0094D1
:1017D00001946946384603950294FEF7F9FD029597
:1017E00069460548009603950194FEF7F1FD07B0A0
:1017F000F0BD00000010024000040050000800503E
:1018000010B510480E4901600121C90541600C2244
:10181000C260002181604022026103224161920284
:101820008261C161416281622022C1620262016300
:10183000FEF7CEFE002801D0FEF706FD10BD000029
:10184000002400402000002010B50E480C49016023
:10185000FF210531416000218160C160016141616A
:10186000C1610122016252024162826181620721EB
:10187000C162FFF70EFC002801D0FEF7E5FC10BDA9
:10188000003800405C00002010B586B000240094B1
:101890000121164801940294039404948907059445
:1018A0000160134984604160046112494461C16070
:1018B000FFF7A0FC002801D0FEF7C6FC01200003C2
:1018C000009069460948FFF7D5FC002801D0FEF7D3
:1018D000BBFC049404A905480594FFF76DFC00289F
:1018E00001D0FEF7B1FC06B010BD0000B40000202E
:1018F0007F0C00008713000010B50C480A490160F6
:10190000E1214902416000218160C1600161816182
:10191000C1610C22016242614162FFF757FE00285B
:1019200001D0FEF791FC10BD00380140F00000200E
:10193000704700008307FF22DB0E9A408907090EDB
:10194000994000280BDA0007000F08388308084880
:101950009B001818C36993430B43C3617047830806
:1019600004489B001B181868904308431860704790
:1019700000ED00E000E400E070477047F7B5054671
:10198000174608219948FEF714FC984E98480836E7
:10199000964C854225DB97492846FEF7BFFB0D464E
:1019A00093492846FEF7BAFB315C23888807020D6D
:1019B0000320800283431A4322800A076388920F20
:1019C000920283431A4362808A06A388920F92028E
:1019D00083431A43A280E288890989028243114322
:1019E000E1808548854225DB81492846FEF796FB44
:1019F0000D4681492846FEF791FB315C2388880714
:101A0000820D0320000283431A4322800A07638861
:101A1000920F120283431A4362808A06A388920FB0
:101A2000120283431A43A280E28889090902824391
:101A30001143E1807D20C000854225DB6E492846A8
:101A4000FEF76CFB0D467D21C9002846FEF766FBBC
:101A5000315C23888807020EC02083431A4322800A
:101A60000A076388920F920183431A4362808A06B1
:101A7000A388920F920183431A43A2808A09E188C6
:101A8000920181430A43E280642D25DB7D21C90058
:101A90002846FEF743FB0D4664212846FEF73EFB31
:101AA000315C23888807820E302083431A432280CA
:101AB0000A076388920F120183431A4362808A06E1
:101AC000A388920F120183431A43A280E2888909F6
:101AD000090182431143E1800A2D24DB6421284659
:101AE000FEF71CFB0D460A212846FEF717FB315C6A
:101AF00023888807020F0C2083431A4322800A0799
:101B00006388920F920083431A4362808A06A388F7
:101B1000920F920083431A43A280E28889098900C8
:101B200082431143E180002D1FDB0A212846FEF786
:101B3000F5FA20888208705C92008107890F0A43B9
:101B400022806188020789088900920F1143618011
:101B5000A188820689088900920F1143A180E1883B
:101B60008908890080090143E1800198012804D097
:101B7000022805D0032806D009E02088012104E0CE
:101B80002088042101E02088102108432080012FB3
:101B900004D0022F05D0032F07D00BE0208840216E
:101BA00006E0FF212088413102E0208815218901CB
:101BB000084320800022238811461048FEF7EAFDE2
:101BC0006388002202210D48FEF7E4FDA38800226D
:101BD00004210A48FEF7DEFDE388002206210748BB
:101BE000FEF7D8FD0548FEF7AFFDFEBD040000205E
:101BF000A086010040420F001027000020000020B6
:101C000010B5FEF7B1FC10BD30B59DB03821684667
:101C1000FEF7CFFA142117A8FEF7CBFA24210EA85D
:101C2000FEF7C7FA194801680324E402A143C2146D
:101C300089180160FEF704FE15480169A14301619E
:101C400001252D04052000902812029002200A9000
:101C5000E0010C90E80101950D900B956846FEF7A8
:101C6000D5FF0F20179000240320189019941A9480
:101C700001211B9417A8FEF7B7FE21200E900F95A7
:101C800011940EA8FEF7E4FD1DB030BD00700040B9
:101C90004010024010480168821511430160C1687C
:101CA0000E4A1140C16001680D4A1140016081680F
:101CB0004908490081600168012292049143016052
:101CC000C168FD2212049143C160002101610549F0
:101CD000C003886070470000001002400C40FF887D
:101CE000F6FFF6FE00ED00E010B50248FFF72BFB13
:101CF00010BD0000B400002070B5026801239B07EE
:101D0000114C124D984203D0A04201D0A84203D1F9
:101D10007026B2434E683243984203D0A04201D0AD
:101D2000A84204D103231B029A43CB681A438023A1
:101D30009A430B691A4302608A68C2620968816229
:101D40000121416170BD0000000801400014014004
:101D500030B58468FF252D021B021343AC430B43AF
:101D60002343836030BD826870239A430A4307216E
:101D70000A438260704730B5036A046A64086400ED
:101D800004628469F025AC43120122430A24A34370
:101D90000B438261036230BD30B5036A1024A34354
:101DA00003628469036A0F252D031203AC432243A7
:101DB000A024A343090119438261016230BD10B51B
:101DC000818CC90707D001684A6801235B049A43E4
:101DD000836A1A434A60818C890707D501684A687B
:101DE00001231B049A43C36A1A434A60818C490742
:101DF00007D501684A6801239B049A43036B1A4381
:101E00004A60818C090707D501684A680123DB0312
:101E10009A43436B1A434A60818CC90607D502680E
:101E2000916801231B039943836B19439160818C53
:101E3000890607D501688A6801235B039A43C36B4F
:101E40001A438A60818C490612D503685A680121B9
:101E50000905046C8A4322435A60026C8A4207D106
:101E60000268516803235B059943436C1943516031
:101E7000818C090607D501684A680123DB04806C60
:101E80009A4302434A6010BDF8B500260446C6676F
:101E9000FEF764FB054620680068124F000709D56D
:101EA00001212B46002249052046009700F04AF9FF
:101EB00000280DD12068006840070BD501212B4672
:101EC000002289052046009700F03CF9002801D047
:101ED0000320F8BD20206067A067603426740020CE
:101EE000F8BD0000FFFFFF0110B5806A0022014627
:101EF00040314A834A82FFF7C9FA10BD01680A6877
:101F0000FF2321339A430A6001688A68520852000D
:101F10008A6020218167002101667047F8B5044678
:101F20002669A268E76932436669102000253E43AE
:101F30002368324378491E68784F3E4016431E603E
:101F400023685A6803263603B243E66832435A6070
:101F50002368A2698B4201D0266A32439E680B2710
:101F60003F02BE4316439E606D4E23686D4AB342E6
:101F70000CD1D2689207920F06D0012A38D0022ADB
:101F800034D0032A20D11EE001201DE0664EB3426A
:101F90000AD1D2680C26324026D0042A28D0082A3A
:101FA00024D00C2A10D10EE08B420DD1D66803222A
:101FB0009202164018D001229202B61A18D0B61A10
:101FC00014D0964200D10820564A0126403A574F75
:101FD000F6038B4236D100280CD002280DD00428FD
:101FE00012D008281FD11CE00020EDE70220EBE70B
:101FF0000420E9E7FEF7AEFD08E01068C00601D551
:10200000384605E04A4803E0FEF7C4FD002873D0D7
:10201000626851005118814205D81103814202D3F0
:1020200003E03046F4E7012566E0010E06025008A1
:10203000002330185941FEF785F803210902411A9F
:102040003C4A55E0E169B14232D1030000F0B4F8F6
:1020500009070A0D06250606062B0600E3E7FEF72C
:1020600079FD1CE0FEF786FD19E010686168C00686
:1020700002D54808304A01E0304A48088018FEF787
:1020800037F880B201462E4A10399142CBD8511C04
:1020900001400007400F08432CE0FEF77BFD61681C
:1020A00040004A08EAE76168012248081204E5E7AF
:1020B000030000F081F809070A0D06260606062C23
:1020C0000600B0E7FEF746FD1DE0FEF753FD1AE0FF
:1020D00010686168C00602D54808C01902E01448BB
:1020E0004A081018FEF704F880B20146144A103965
:1020F000914298D82168C860002020666066284612
:10210000F8BDFEF747FD61684A088018EAE7616894
:1021100048088019E6E7000000480040F369FFEF37
:1021200000380140401002400044004000093D00DA
:102130000024F400FFFC0F0000127A000048E801C0
:10214000EFFF0000FFB581B017460E4604460A9D1A
:1021500009E0681C07D0FEF701FA0499401AA8426A
:102160000CD8002D0AD02068C1693046884318D0A9
:102170000020B842EDD0002005B0F0BD2068016815
:10218000FF22A1329143016020688168490849001B
:10219000816020206067A0670020603420740320E5
:1021A000EAE70120E5E7000010B50248FFF770F903
:1021B00010BD0000F000002030B47446641E257885
:1021C000641CAB4200D21D46635D5B00E31830BC6B
:1021D000184702E008C8121F08C1002AFAD1704748
:1021E0007047002001E001C1121F002AFBD1704797
:1021F00010B504460420FEF7BBFF0148046010BD83
:102200000000002070B500247D260546F60003E09E
:10221000304600F005F8641CAC42F9D370BD0000F4
:1022200070B50A4C002365690949A26909684843E9
:10223000A1699142FCD0914201D2521A01E06E1A7A
:10224000B218D3180A468342F2D370BD00E000E012
:1022500000000020FEF790F9FFF7D6FCFFF77EFAAA
:10226000FFF768FAFFF7F0FAFFF7CAFAFFF70CFB7F
:10227000FFF742FB2020FFF7BBFF0B48FEF7EAFF0A
:10228000E017800F001980088000201AC2B2C1B286
:102290002046FFF773FBC820641CFFF7B3FFC82C70
:1022A000EEDB0024ECE70000B4000020000000009A
:1022B00000000000010203040607080903040608E1
:1022C0000C10182030000000000102030400000080
:1022D000F02200080000002020000000D2210008A9
:1022E0001023000820000020E0050000E221000883
:1022F000000000000000000000000000DE147A76FC
:10230000B4E6EE54FEF600000000000000002000DD
:04000005080000C12E
:00000001FF
