:020000040800F2
:10000000A8090020D50000083D1C00085D1A000862
:1000100000000000000000000000000000000000E0
:10002000000000000000000000000000871C000825
:100030000000000000000000851C0008891C00086A
:10004000E7000008E7000008E7000008E7000008F4
:10005000E7000008E7000008E7000008E7000008E4
:10006000E70000082503000835030008E700000842
:10007000E7000008E700000800000000E7000008B3
:1000800000000000E7000008000000000000000081
:10009000E700000800000000E7000008E700000893
:1000A000E7000008E7000008E70000082122000838
:1000B000E7000008E7000008E7000008E700000884
:1000C0000348854600F08EF8004800477524000874
:1000D000A80900200448804704480047FEE7FEE7DF
:1000E000FEE7FEE7FEE7FEE7051D0008C100000889
:1000F00030B50B46014600202022012409E00D46C0
:10010000D5409D4205D31D469540491B2546954047
:1001100040191546521E002DF1DC30BDF0B51FB45C
:100120000646002082B005464024019100901BE065
:10013000019922460F46304600F042F8049A059B8A
:10014000801A994110D310461946224600F028F82B
:10015000361A8F410197224601200021009F00F0AE
:100160001FF838184D4100902046641E0028DFDC3F
:10017000019B00982946324607B0F0BDD2B201E09B
:100180000270401C491EFBD270470022F6E710B5F2
:1001900013460A4604461946FFF7F0FF204610BDF5
:1001A00010B5202A04DB0146203A9140002010BD02
:1001B000914020239C1A0346E3401943904010BD10
:1001C00010B5202A04DB0846203AD040002110BD9B
:1001D0000B46D340D0402024A21A91400843194630
:1001E00010BD0000064C0125064E05E0E36807CC73
:1001F0002B430C3C98471034B442F7D3FFF764FF0D
:10020000382500085825000810B50146806A426D5F
:1002100050231A420AD1416D012252021143416515
:100220000168CA681205920F05D021E0C06C426BCC
:100230000846904710BD2022125C002A18D10A6897
:10024000120715D58A6853070122002B09DB4B687A
:100250000C24A3434B60416D130299431143416544
:1002600006E0416D202319434165816D114381658D
:1002700000F0EEF810BD10B5806A416D40221143C8
:100280004165816D04221143816500F0E3F810BDE2
:1002900010B5806A00F0DDF810BD000038B50446E6
:1002A000064805490068FFF723FF604300E0401E51
:1002B00000900028FBD138BD40420F000C00002008
:1002C000F8B50446006881688907890F012902D1C1
:1002D0000168C90722D18168114A10261140012501
:1002E00000290ED18168294381600120FFF7D6FFE4
:1002F00000F014FC07460CE000F010FCC01B0A28BC
:1003000007D9606D30436065A06D2843A06501206A
:10031000F8BD20680068C043C007EDD10020F8BDDB
:100320001700008010B5024800F058FA10BD000018
:100330009003002010B5034800F050FA024800F086
:100340004DFA10BD5C0500201405002030B5446C4A
:100350001C252C400125A540046C65600468636081
:100360008368102B036803D099600068C26030BDB9
:100370009A600068C16030BD0A4610B50146044865
:1003800001F014FB002801D000F004F810BD0000BB
:100390009404002070470000F8B506460D4640362C
:1003A000317C01290DD00121317401688A6852071E
:1003B00009D5416D20221143416500203074012090
:1003C000F8BD0220F8BD204B6A68D80547109A4254
:1003D0001E4C8A6A2B681BD05B035B0B1A438A6234
:1003E0002968490305D5A1680143A1600A20FFF7E8
:1003F00055FF2868800302D5A0683843A0602868AC
:10040000C0031DD5A068012109060843A06017E0BC
:100410005B035B0B9A438A622968490302D5A16892
:100420008143A1602868800302D5A068B843A0601A
:100430002868C00304D5A168012000068143A1609B
:1004400000203074F8BD00000110000000270140BA
:10045000704770477047000070B5040006D0606DAB
:10046000264600254036002802D006E0012070BD57
:10047000A5653574204600F0D3F8606DC00603D43E
:1004800021688868400705D5606D102108436065C4
:100490003574EBE7606DFF22013290430222104376
:1004A000606588688207920F5B48012A02D10A685A
:1004B000D2072BD1032362689B079A4205D05B4287
:1004C0009A4202D05B009A4209D10A6992009208CE
:1004D0000A6121680A6963681A430A610CE00A69C3
:1004E000920092080A6181680F2292049143816010
:1004F00081686268114381602168CA6818239A4341
:10050000CA602168CA68A3681A43CA608168012268
:100510005206914381608168A28E52061143816028
:1005200020688168C90004D4816801221207114340
:1005300081602068C168394A1140C1602069E16862
:10054000022825D000200143204620300278037B7A
:1005500052035B001A431143226B1143A2699203B9
:100560001143E269D20311432268D3681943D16071
:10057000616A0A46FF3AC23A05D0A26A114322686C
:10058000D3681943D16042780121012A02D00BE0DF
:100590000420D8E70078002823D0606D2022104383
:1005A0006065A06D0843A065E06B012820681FD03E
:1005B0000169C90703D00169490849000161206840
:1005C0004169C908C900416120684169A26B1143B2
:1005D0004161A565606D80088000401C6065002059
:1005E00070BD2068C26801231B041A43C260DBE7A8
:1005F0000269FF239B009A43026120680269236C11
:10060000A66C1A43636C33431A4302612068026983
:100610000A430261D3E70000002701401902FEFFF0
:10062000F0B587B0064614216846FFF7AEFD1A49BB
:10063000306888422DD11948416B471539434163D1
:10064000C16A01221143C162C06A002510400590B1
:1006500018200090032001900520694602950007AC
:1006600000F09AF90E480F4C21C42560E760802005
:100670006560A060000120612020A56160610948DB
:10068000083C00F0FFF8002801D0FFF783FEF46477
:10069000A66207B0F0BD0000002401400010024037
:1006A0000800024090030020F7B5044600680025CA
:1006B000806840073DD426464036307C01280AD069
:1006C00001273774E069012807D02046FFF7F8FDBD
:1006D000050002D02EE00220FEBD606D16490840E4
:1006E000FF210131084360650020A0653074E16C92
:1006F0001248C862E16C12480863E16C1148486313
:1007000021681C2008602068416810221143416064
:100710002068C1683943C1602168E06C4031029BA8
:10072000019A00F0F7F82068816804221143816083
:1007300000E002252846FEBDFEF1FFFF0902000889
:10074000910200087702000830B5014620314A794D
:100750000023022A04D00422C2630B71012030BDA1
:10076000026814680E25AC431460026814686408BB
:1007700064001460446C1C22144001221546006C75
:10078000A54045604A7118460B7130BD70B5002414
:10079000014620314A79022A03D00421C163012491
:1007A00018E0026813680E25AB43136002681368F3
:1007B0005B085B001360436C1C221340012215464A
:1007C0009D40036C5D604A7100220A71816B0029B3
:1007D00000D08847204670BDC06B7047F0B4016CF4
:1007E0000D6801680C68466C1C2304221E401746E5
:1007F000B7402F420ED067070CD50C68A40602D470
:100800000C6894430C60416C19408A40016C4A604A
:10081000016B1AE00227B74002462F402032002F1A
:1008200017D0A70715D50C68A40605D40C680A25AF
:10083000AC430C6001215171446C02211C40036CDB
:10084000A140596000211171C16A002918D0F0BC83
:1008500008470827B7402F4212D0240710D50C684C
:100860000E25AC430C60446C01211C400B46A34098
:10087000046C6360C163517100211171416BE4E745
:10088000F0BC704770B504003CD01F4825681421A7
:100890002818FFF72DFC800060641C4820640221AA
:1008A000204620300246417129681948E36801401A
:1008B000A06866691843236933431843A369184342
:1008C000E3691843236A1843084328600121A0689C
:1008D0008903884210D00D488030836A656C1C21E2
:1008E0000D400F26AE40B3438362656C63680D40D4
:1008F000816AAB400B4383620020E06301215171A8
:10090000107170BD012070BDF8FFFDBF00000240F6
:100910000F80FFFFF8B504468C4620300179002592
:10092000012909D00126067141790027012905D046
:10093000077102252846F8BD0220F8BD0221417149
:10094000E763206801684908490001606146204664
:10095000FFF7FCFC206B00282068016801D00E2204
:1009600005E0042291430160206801680A221143D6
:1009700001602068016831430160DBE770B504461F
:1009800000F0CCF80546601C00D0641C00F0C6F8EE
:10099000401BA042FAD370BDF8B500230124A2E0A9
:1009A00027469F403A4070D04D68022D01D0122D4D
:1009B00014D1DD08AD002D1800952D6A5E07AC46F8
:1009C000F50E0F26AE46AE406546B543AC460E6901
:1009D0007546AE4065462E43009D2E624D68012D42
:1009E00005D0022D03D0112D01D0122D16D185680E
:1009F0000326AC465D00AE46AE406546B543AC4608
:100A0000CE687546AE4065462E43866046680D79D1
:100A1000BE43ED06ED0F9D403543456006685F001F
:100A20000325BD40AE46AE430D79B446AE07B60FC2
:100A3000BE4065462E430660C6687546AE438D6867
:100A4000BD403543C5604D68ED004BD5294D6E6BFB
:100A500026436E639E08284DB6007519AC46AD68F6
:100A60009E07360F0F27B740BD4305273F07B84203
:100A700001D1002715E0214FB84201D1012710E034
:100A80001F4FB84202D102270BE02BE01D4FB842A6
:100A900001D1032705E01C4FB84201D1052700E032
:100AA0000627B7402F436546AF60184D2E684F6844
:100AB0009643FF0300D516432E606E684F68964339
:100AC000BF0300D516436E60AE684F689643FF02C1
:100AD00000D51643AE60EE684F689643BF0200D55E
:100AE0001643EE605B1C0A681546DD4000D057E7F0
:100AF000F8BD00000010024000000140000400505A
:100B000000080050000C0050001C00500004014080
:100B1000002A01D0816170478162704701480068F6
:100B2000704700000800002002480168491C01606D
:100B3000704700000800002010B508480024016834
:100B4000402211430160204600F00AF8002801D03D
:100B5000012401E000F01CF8204610BD00200240F6
:100B600070B5054609487D210024C9000068FFF7DB
:100B7000BFFA00F0C3FC002801D0012404E00022E9
:100B80002946501E00F01AF8204670BD0C000020C7
:100B90000448416B012211434163816B02041143FC
:100BA0008163704700100240C106C90E01208840D1
:100BB000014908607047000000E100E010B501F055
:100BC0003FF810BDF8B504460068614D810601D4B8
:100BD00000057DD55E4E0027403EB06BC00004D4BA
:100BE000B06B31040843B06301275A480168C90556
:100BF00011D40168821511430160FFF78FFF009047
:100C000005E0FFF78BFF0099401A642844D851484B
:100C10000068C005F5D53168032000056268014011
:100C20001040884205D10323A0681B051840884264
:100C300008D09003800F032804D13068800301D5C9
:100C40000120F8BD286903210904084029D00A4081
:100C5000824202D02278920606D4A2680A408242DA
:100C60001FD0208800051CD528692A6988430121E6
:100C7000C9040A432A612A698A432A612861C00596
:100C80000FD5FFF74BFF009008E0FFF747FF0099F3
:100C9000411A3148814201D90320F8BD28698005F5
:100CA000F3D561688803800F032805D132680005F9
:100CB000824301400A4332602869032261681204BA
:100CC000114008432861002F06D0B16B012000E0DD
:100CD00002E000078143B1632078C00705D0E868CF
:100CE000E168800880000843E8602078800705D527
:100CF000E8680C21884321690843E86020784007B0
:100D000006D5E86803218902884361690843E860E1
:100D10002078000706D5E868032109038843A16904
:100D20000843E8602078400606D5E8680121890676
:100D30008843216A0843E8602078000606D5E86801
:100D4000032189048843E1690843E8600020F8BD75
:100D5000401002400070004088130000F8B50E46B5
:100D600005007DD053480068C007C00FB0420AD2CA
:100D70005048016849084900314301600068C007D4
:100D8000C00FB04271D128784B4C800705D5E06880
:100D9000F0218843A9680843E0602878C00752D052
:100DA0006868022817D0032818D02168012818D0B5
:100DB0008905002959DAE168890889000143E16061
:100DC000FFF7ACFE69680746022912D003291CD040
:100DD000012926D033E021688903EAE721688901E7
:100DE000E7E74907E5E7FFF799FEC11B3348814272
:100DF00023D8E0680007800F0228F4D123E0FFF732
:100E00008DFEC11B2D48814217D8E0680007800F76
:100E10000328F4D117E0FFF781FEC11B2748814268
:100E20000BD8E0680007800F0128F4D10BE0FFF732
:100E300075FEC11B2148814201D90320F8BDE0683D
:100E40000007800FF3D11B480168C907C90FB142E1
:100E50000DD901684908490031430160006800E08C
:100E600003E0C007C00FB04201D00120F8BD2878D0
:100E7000400706D5E068072109028843E96808436E
:100E8000E0602878000707D5E0680721C902884399
:100E90002969C9000843E06000F036F8E168084AB3
:100EA0000906090F515CC840064908600020FFF799
:100EB00057FEF8BD002002400010024088130000D9
:100EC000142500080C000020044805490068C96882
:100ED000044A4905490F515CC84070470C00002086
:100EE000001002402D250008044805490068C96823
:100EF000044A8904490F515CC84070470C00002027
:100F0000001002402D25000810B5184AD1680C20A9
:100F1000084004280BD0082810D00C2810D05068A6
:100F20000004410F0120C003491C884010BD106817
:100F3000C00601D50E4810BD0E4810BD0E4810BDAC
:100F400088020E4B000F185C0902D368890F491CF8
:100F5000DB0301D5084A05E01268D20601D5044A30
:100F600000E0044A5043FFF7C3F810BD00100240F0
:100F700000093D000024F400001BB70024250008F0
:100F8000FEB505007ED0FE4CE7680C20E668074001
:100F90000120000406402878C00747D0082F05D05C
:100FA0000C2F0AD101200004864206D1206880035C
:100FB0003CD568680028E5D038E001206968000465
:100FC000814203D121680143216011E00523012200
:100FD0001B0492049942216802D111432160F1E778
:100FE0008143216021680140009120689043206086
:100FF000686800280DD0FFF791FD009005E0FFF72D
:101000008DFD0099401A64287AD820688003F6D5AF
:101010000CE0FFF783FD009005E0FFF77FFD0099EE
:10102000401A6428F0D820688003F6D42878800716
:1010300055D50923E868042F0DD00C2F01D1002EBF
:1010400009D000283BD02168994301432160FFF774
:1010500065FD064627E02168490701D5002891D0A3
:1010600061681F22120291432A69120211436160D2
:101070002168994301432160FFF746FFE1680906B3
:101080000A0F00E0BBE1BF49895CC840BE49086067
:101090000020FFF765FD002872D120E0FFF73EFD3C
:1010A000801B0228B0D820684007F7D560681F2150
:1010B0000902884329690902084360600FE020683B
:1010C000400840002060FFF729FD064604E0FFF7D6
:1010D00025FD801B022897D820684007F7D4287880
:1010E000C0065FD5002F0CD0E869002849D02068E1
:1010F000FF21013108432060FFF710FD06462DE077
:10110000E4E02068800502D5E8690028A7D060687F
:10111000072149038843696A084360606068298C35
:101120000002000A090608436060686A410B01205A
:10113000C003491C8840E16809060A0F9149895C8F
:10114000C840914908600020FFF70AFD002817D128
:1011500028E0FFF7E3FC801B0228A3D82068800565
:10116000F7D56068072149038843696A08436060CE
:101170006068298C0002000A09060843606011E0DB
:1011800023E12168FF20013081432160FFF7C6FC85
:10119000064604E0FFF7C2FC801B02289BD82068AB
:1011A0008005F7D42878794E000724D5686900288F
:1011B000306910D0012108433061FFF7AFFC009087
:1011C00005E0FFF7ABFC0099401A02287ED8306991
:1011D0008007F6D50FE0400840003061FFF79EFC25
:1011E000009005E0FFF79AFC0099401A02286DD89C
:1011F00030698007F6D42878400764D50020029033
:10120000A06BC00006D4A06B012109070843A063AE
:10121000012002905E480168C90511D40168821559
:1012200011430160FFF77AFC009005E0FFF776FCC0
:101230000099401A642849D855480068C005F5D57A
:10124000FF20AA680130824203D131690143316134
:1012500011E001218902002A07D005231B029A42CE
:1012600003D132690A433261EFE732698243326166
:10127000306988433061A86800280ED0FFF74EFC23
:10128000009006E0FFF74AFC0099411A414881426C
:101290001CD830698005F5D50DE0FFF73FFC0090C4
:1012A00006E0FFF73BFC0099411A3A4881420DD80D
:1012B00030698005F5D40298002804D0A16B012084
:1012C00000078143A1632878800600E07CE02ED5EA
:1012D0003148A9694314002916D0A26801210A43A4
:1012E000A260626B0A436263016A19430162FFF7FD
:1012F00015FC064604E0FFF711FC801B022863D8AA
:10130000A0688007F7D512E0A16849084900A160EC
:10131000016A99430162FFF701FC064604E0FFF70A
:10132000FDFB801B02284FD8A0688007F7D4A86A6D
:10133000002866D00C2F4DD00126360602282068E2
:1013400005D0B0432060FFF7E9FB05463EE0B0431F
:101350002060FFF7E3FB074604E0FFF7DFFBC01B5D
:10136000022831D820688001F7D4296BE86AE26846
:101370000843696BFD231B049A43114308430DE0A6
:1013800000100240142500080C000020401002400C
:10139000007000408813000000000140E0602068F9
:1013A00030432060FFF7BAFB054604E0FFF7B6FBC9
:1013B000401B022808D820688001F7D521E0FFF7FC
:1013C000ADFB401B022801D90320FEBD206880012F
:1013D000F5D416E00128F8D0E06801210904EA6A92
:1013E000014091420BD10F2189042A6B01409142A7
:1013F00005D1032189050840696B884201D001208D
:10140000FEBD0020FEBD70B5040007D000262546B5
:101410004035A662687C002802D005E0012070BD3E
:101420002E74204600F030F80220687420680168AD
:10143000402291430160A168606822690843E16825
:1014400011430843616901220843A1695202114016
:101450000843E1690843216A0843A16A08432168F7
:101460000860A0690421000C0840616A08432168F3
:1014700048602068C16992009143C161666501209E
:101480006874002070BD000010B586B004461421B9
:101490006846FEF77AFE10492068884219D10F4845
:1014A000816B0122920311438163C26A02210A43C4
:1014B000C262C06A01910840059007204003009075
:1014C0000021032002910491039069460448FFF72C
:1014D00063FA06B010BD0000003800400010024062
:1014E00000040050042204490428086902D09043F3
:1014F000086170471043FBE700E000E0094910B5C0
:10150000401E884201D9012010BD074C60610321B3
:10151000081F00F095FB0020A0610720206100203B
:1015200010BD0000FFFFFF0000E000E0704770B555
:10153000416F0446856F0068826810261206002AF3
:1015400014DA212912D18168802291438160A06E32
:10155000002808D0FFF7F8F8002804D0A06EFFF7A5
:101560003BF920281DD0204600F00BFD2068816843
:10157000490614D5222D12D1816840229143816001
:10158000E06E002808D0FFF7DFF8002804D0E06EF6
:10159000FFF722F9202804D0204600F0E2FC0020CA
:1015A00070BDE667032070BD70470000F8B50268A3
:1015B0000446D0691168936805072D0F5BD0DD07DD
:1015C000ED0FFF2621360E402E4367D0C60706D00A
:1015D000CE0504D501261662E26F3243E267870723
:1015E00002220426002F06DADF0704D027683A62B9
:1015F000E76F3743E767470706D5DB0704D0236863
:101600001E62E36F1343E367020709D520220A40F5
:101610002A4305D0236808221A62E36F1343E36765
:10162000E26F002A2FD0800606D5880604D5216EE9
:10163000002901D020468847E06F21688968490663
:1016400001D4000724D5204600F08BFC2068816877
:10165000490619D58168402291438160E06E0028D7
:1016600012D020498163E06EFFF790F800280AD07D
:10167000E06E816B06E0850610D58D060ED5216ED5
:101680001CE020468847F8BD2046FFF78DFFF8BDD7
:101690002046FFF789FF0020E067F8BDC50208D5A6
:1016A0005B0206D50120000510622046FFF73EFFD1
:1016B000F8BD030605D50B0603D5616E0029E0D100
:1016C000F8BD4006FCD54806FAD5136820464021EF
:1016D0008B431360202161670021616600F0BCF933
:1016E000F8BD0000851E000810B5040003D0606F2F
:1016F000002802D007E0012010BD00217020015514
:10170000204600F027F82420606720680168490817
:1017100049000160204600F03DFC0128ECD0606AE1
:10172000002802D0204600F017FB206841680922FB
:10173000D20291434160206881682A2291438160EE
:1017400020680168012211430160204600F06AFB15
:1017500010BD0000F0B587B0064614216846FEF7BC
:1017600014FD2B493068884250D12A48416B012230
:10177000920311434163C16A01221143C162C06AED
:10178000002410400590032040020090022003270F
:1017900001A991C104200490052069460007FFF7C4
:1017A000FBF81E4D1C48AC60EC6081C5EC602C6100
:1017B00080276C61AF60AC611848083DFFF762F8A4
:1017C000002801D0FEF7E6FDF566AE62134D124823
:1017D00048351438286003206860294610200831F5
:1017E00091C16C61AC61EC6128462C62FFF74AF84C
:1017F000002801D0FEF7CEFDB566002211461B2061
:10180000AE62FFF7DBF91B20FFF7CEF907B0F0BDA2
:101810000038014000100240300002401405002052
:10182000F8B50446806F20284DD100290BD0002A3E
:1018300009D00123A0681B03984206D12069002823
:1018400003D1C80701D00120F8BD25466035287CAA
:10185000012838D0012028745820616502530026E1
:10186000E6672220A067E06E002819D01749C16200
:10187000E16E17480863E16E16484863E06E134650
:101880008663676D21683A462431E06EFFF742F8BF
:10189000002805D01020E0672E7420206067D2E772
:1018A0002E7420680168FF22013211430160206814
:1018B00081680122114381602068816840221143C0
:1018C00081600020F8BD0220F8BD0000E11E000884
:1018D0001F1F0008991E000870477047FFB5044697
:1018E000406F83B017460D4620285CD1002D0AD0EA
:1018F000002F08D0A168C001814207D120690028CB
:1019000004D1E80702D0012007B0F0BD20466030C6
:101910000290007C012846D0029801210174002029
:10192000E06721206067FFF7F9F82646403601900E
:10193000378277820120A1680003814202D12069A9
:10194000002802D02F46002511E000270FE00022DA
:101950008021204600F032FC002815D1002F15D040
:101960002168387888627F1C708A401E7082708A75
:10197000019B002806980090E9D1002240212046D2
:1019800000F01CFC002808D00320BDE7288821684F
:10199000C005C00D8862AD1CE6E720206067029993
:1019A00000200874B0E70220AEE70000F8B5044656
:1019B000406F202847D100290BD0002A09D00123ED
:1019C000A0681B03984206D12069002803D1C807EC
:1019D00001D00120F8BD25466035287C012832D091
:1019E0000120287420464030E164028242820026B1
:1019F000E66721206067A06E002819D01349C162F4
:101A0000A16E13480863A16E12484863A06E134686
:101A100086632768E16C3A462832A06EFEF77AFFAB
:101A2000002805D01020E0672E7420206067D0E7E2
:101A30002168402008622E7420688168802211434A
:101A400081600020F8BD0220F8BD0000291F0008B9
:101A5000591F0008991E000870477047FEE70000F4
:101A60001CB500211D4800911B4A01910260C16311
:101A70008160012381631205036142600246C160F7
:101A800020321370FF245170C23444628162137398
:101A900001638161042241634261C161FEF7DCFCA4
:101AA000002801D0FEF776FC0D480090400201901E
:101AB00069460A48FEF770FC002801D0FEF76AFC70
:101AC0000848009069460548FEF766FC002801D0EA
:101AD000FEF760FC1CBD0000002401403403002020
:101AE0000800000C1000001008B50C48016B012222
:101AF00011430163006B1040002200901146092041
:101B0000FFF75CF80920FFF74FF8002211460A2082
:101B1000FFF754F80A20FFF747F808BD001002400D
:101B2000F0B587B014216846FEF72FFB2248C26A41
:101B300004210A43C262C26A0A400592C26A802135
:101B40000A43C262C26A0A400592C16A0124214363
:101B5000C162C16A21400591C16A02252943C1625F
:101B6000C06A224628400590052007210007FEF79D
:101B7000CFFF0122170339461048FEF7C9FF600363
:101B8000002600900196694602960D48FEF704FF74
:101B900007200090052001946946039602940007EF
:101BA000FEF7FAFE019469460448009703950294F3
:101BB000FEF7F2FE07B0F0BD001002400004005036
:101BC0000008005010B50E480C490160FF21053196
:101BD000416000218160C16001614161C1610122F8
:101BE000016252024162826181620721C162FFF794
:101BF0000AFC002801D0FEF7CDFB10BD00380040E4
:101C0000D803002010B50C480A490160E1214902BF
:101C1000416000218160C16001618161C1610C226C
:101C2000016242614162FFF75FFD002801D0FEF7CB
:101C3000B1FB10BD00380140940400207047000043
:101C40008307FF22DB0E9A408907090E994000287E
:101C50000BDA0007000F0838830808489B001818A3
:101C6000C36993430B43C3617047830804489B00D7
:101C70001B181868904308431860704700ED00E097
:101C800000E400E07047704710B5FEF74DFF10BD4F
:101C900030B59DB038216846FEF777FA142117A8B1
:101CA000FEF773FA24210EA8FEF76FFA14480168B4
:101CB0000322D2029143C21489180160500101909D
:101CC0000B900320022180040C90012588050095CB
:101CD0000D900A916846FFF753F90F2017900024E2
:101CE0000320189019941A9401211B9417A8FFF748
:101CF00035F80EA80E951194FEF764FF1DB030BDA7
:101D00000070004010480168821511430160C168ED
:101D10000E4A1140C16001680D4A1140016081689E
:101D200049084900816001680122920491430160E1
:101D3000C168FD2212049143C1600021016105497F
:101D4000C003886070470000001002400C40FF880C
:101D5000F6FFF6FE00ED00E010B5818CC90707D054
:101D600001684A6801235B049A43836A1A434A6004
:101D7000818C890707D501684A6801231B049A43AF
:101D8000C36A1A434A60818C490707D501684A68CB
:101D900001239B049A43036B1A434A60818C090711
:101DA00007D501684A680123DB039A43436B1A4352
:101DB0004A60818CC90607D50268916801231B031C
:101DC0009943836B19439160818C890607D501681B
:101DD0008A6801235B039A43C36B1A438A60818C30
:101DE000490612D503685A6801210905046C8A4323
:101DF00022435A60026C8A4207D102685168032369
:101E00005B059943436C19435160818C090607D5E2
:101E100001684A680123DB04806C9A4302434A60EC
:101E200010BD0000F8B500260446C667FEF776FE32
:101E3000054620680068124F000709D501212B468E
:101E4000002249052046009700F0B8F900280DD17E
:101E50002068006840070BD501212B460022890528
:101E60002046009700F0AAF9002801D00320F8BD11
:101E700020206067A067603426740020F8BD000051
:101E8000FFFFFF0110B5806A0022014640314A83FE
:101E90004A82FFF789FB10BD70B5846A606FA56F39
:101EA0002168896800260906002906DA212804D15C
:101EB00052200653204600F064F8206880684006EF
:101EC00006D5222D04D15A200653204600F049F8A9
:101ED000E06F10210843E0672046FFF765FB70BD07
:101EE00010B501460968806A0968890614D4002281
:101EF0005A210A5201680A68FF2301339A430A6093
:101F000001688A68520852008A6001688A68402322
:101F10009A438A6020218167FFF7DEFC10BD10B56F
:101F2000806AFFF7DAFC10BD10B501460968806AC7
:101F3000096889060DD4002252210A5201688A6874
:101F400080239A438A60006801684022114301603F
:101F500010BDFFF781FD10BD10B5806AFFF77DFD54
:101F600010BD01680A68FF2321339A430A600168A3
:101F70008A68520852008A60202181670021016628
:101F8000704701680A68C0239A430A6020214167AC
:101F900070470000F8B504462669A268E769324335
:101FA0006669102000253E432368324378491E6845
:101FB000784F3E4016431E6023685A680326360356
:101FC000B243E66832435A602368A2698B4201D06B
:101FD000266A32439E680B273F02BE4316439E602B
:101FE0006D4E23686D4AB3420CD1D2689207920FAE
:101FF00006D0012A38D0022A34D0032A20D11EE08C
:1020000001201DE0664EB3420AD1D2680C26324050
:1020100026D0042A28D0082A24D00C2A10D10EE079
:102020008B420DD1D66803229202164018D00122AD
:102030009202B61A18D0B61A14D0964200D10820CF
:10204000564A0126403A574FF6038B4236D10028B4
:102050000CD002280DD0042812D008281FD11CE073
:102060000020EDE70220EBE70420E9E7FEF72CFF74
:1020700008E01068C00601D5384605E04A4803E08C
:10208000FEF742FF002873D0626851005118814268
:1020900005D81103814202D303E03046F4E701255D
:1020A00066E0010E06025008002330185941FEF781
:1020B00035F803210902411A3C4A55E0E169B14271
:1020C00032D1030000F0FAF809070A0D06250606CA
:1020D000062B0600E3E7FEF7F7FE1CE0FEF704FF21
:1020E00019E010686168C00602D54808304A01E06E
:1020F000304A48088018FDF7FBFF80B201462E4A9F
:1021000010399142CBD8511C01400007400F0843C1
:102110002CE0FEF7F9FE616840004A08EAE76168D2
:10212000012248081204E5E7030000F0C7F8090798
:102130000A0D06260606062C0600B0E7FEF7C4FECA
:102140001DE0FEF7D1FE1AE010686168C00602D5F6
:102150004808C01902E014484A081018FDF7C8FFE3
:1021600080B20146144A1039914298D82168C8605B
:102170000020206660662846F8BDFEF7C5FE61684F
:102180004A088018EAE7616848088019E6E7000015
:1021900000480040F369FFEF003801404010024062
:1021A0000044004000093D000024F400FFFC0F0043
:1021B00000127A000048E801EFFF0000FFB581B08F
:1021C00017460E4604460A9D09E0681C07D0FEF734
:1021D000A5FC0499401AA8420CD8002D0AD020680A
:1021E000C1693046884318D00020B842EDD00020A5
:1021F00005B0F0BD20680168FF22A1329143016063
:102200002068816849084900816020206067A067D4
:102210000020603420740320EAE70120E5E7000095
:1022200010B500F01FF80248FFF7C0F910BD00001C
:102230009404002010B5094C21780948FEF79CF859
:1022400000202070607021780548FDF79EFF04494A
:1022500064228818FFF7E4FA10BD00000400002093
:102260003004002010B50B480068C169C906C90FC9
:102270000ED0102101620748FFF759F90548803058
:10228000006840686421091A034801700121417007
:1022900010BD000094040020040000200FB410B50D
:1022A00003A9044B044A029800F024F810BC08BCAF
:1022B00004B01847592400081000002030B47446B8
:1022C000641E2578641CAB4200D21D46635D5B0032
:1022D000E31830BC184702E008C8121F08C1002AE2
:1022E000FAD170477047002001E001C1121F002A97
:1022F000FBD17047FFB58DB00446002506E02528C8
:102300000AD0109A0F999047641C6D1C2078002801
:10231000F5D1284611B0F0BD00270121484A0097A9
:1023200000E00743641C23780846203B9840104295
:10233000F7D120782E2817D1042007436078641C39
:102340002A280CD10E98641C02C800910E900BE054
:1023500000990A22514330394018641C00902078BB
:10236000014630390929F3D920780028D1D06428D2
:1023700008D0692806D075281ED0109A0F9990476A
:102380006D1C5BE00A200E99019001C90E91002896
:1023900002DA40422D2102E0390504D52B216A469C
:1023A0001172012103E0F90704D02021F7E70BAEF9
:1023B0000B910DE00021FAE70A200E99019001C966
:1023C0000E91F7E70199FDF793FE3031761E3170DB
:1023D0000028F7D103A8801B20300190780701D591
:1023E000009801E0012000900199884201DD401A27
:1023F00000E000200027009006E002A8109AC05DCF
:102400000F9990476D1C7F1C0B988742F5DB04E009
:10241000109A30200F9990476D1C0099481E00902B
:102420000029F5DC05E03078109A761C0F9990476A
:102430006D1C0199481E01900029F4DC641C65E7BD
:102440000928010010B504460420FFF74BF80148A5
:10245000046010BD0000002013B5044B0122694642
:102460000348FFF73BFA00981CBD0000FFFF000087
:1024700094040020FEF760FBFFF70AFCFFF750FB17
:10248000FFF732FBFFF79EFBFFF7BCFBFFF7E8FA15
:102490002020FFF7D7FF124800680168102211437F
:1024A000016064220F490E48FFF7BAF90EA0FFF74A
:1024B000F5FEC8220F491048FEF7F6F80D4CFF262E
:1024C0000E4DF5363046FEF759FA06CC0CA0083C06
:1024D000FFF7E4FE28780028F4D0FFF7ABFEF1E721
:1024E000940400203004002053544D33324C3035D6
:1024F000330D0A00140000203403002005000020E2
:10250000494E333A25642C494E5F343A25640D0A0E
:1025100000000000000000000000000001020304B1
:1025200006070809030406080C10182030000000F4
:1025300000010203040000005825000800000020EC
:1025400014000000D62200086C25000814000020AA
:1025500094090000E62200080000000000000000CE
:0C2560000000000000002000000000004F
:04000005080000C12E
:00000001FF
