:020000040800F2
:1000000030090020AD0100080B1700088D12000810
:1000100009170008F9060008D919000800000000B7
:100020000000000000000000000000000D180008A3
:10003000FB060008000000000D1700080F1800085C
:10004000C7010008C7010008C7010008C701000870
:10005000C70100080F170008C7010008C701000802
:10006000C7010008C7010008C7010008C701000850
:10007000C7010008C7010008C7010008C701000840
:10008000C7010008C7010008C70100080000000000
:10009000000000000000000000000000C701000890
:1000A000C7010008C7010008C7010008C701000810
:1000B000C7010008C7010008C7010008C701000800
:1000C000C7010008C7010008C7010008C7010008F0
:1000D000C7010008C7010008C701000800000000B0
:1000E000C7010008C7010008C701000800000000A0
:1000F000000000000000000000000000C701000830
:1001000000000000C7010008C7010008C70100087F
:1001100000000000000000000000000000000000DF
:10012000C7010008C7010008C7010008C70100088F
:10013000C7010008000000000000000000000000EF
:10014000000000000000000000000000C7010008DF
:10015000C7010008C7010008C7010008C70100085F
:10016000C7010008C70100080000000000000000EF
:10017000000000000000000000000000000000007F
:1001800000000000C701000800000000000000009F
:10019000C7010008C7010008DFF80CD000F0D8F94B
:1001A00000480047611A00083009002006488047CF
:1001B00006480047FEE7FEE7FEE7FEE7FEE7FEE74C
:1001C000FEE7FEE7FEE7FEE7951800089901000844
:1001D0002DE9F05F0546002092469B46884606467C
:1001E000814640241BE0284641464746224600F00F
:1001F00041F953465A46C01A914110D31146184648
:10020000224600F028F92D1A67EB01084F462246D6
:100210000120002100F01FF917EB00094E41201EBC
:10022000A4F10104DFDC484631462A464346BDE8D6
:10023000F09FD2B201E000F8012B491EFBD27047BB
:100240000022F6E710B513460A4604461946FFF7A2
:10025000F0FF204610BD2DE9FE4F81EA030404F0B3
:10026000004421F0004100944FF0000B23F00043C4
:1002700050EA01045ED052EA03045BD0C3F30A548F
:10028000C1F30A552C44A4F2F3340194A0FB0254A8
:10029000C1F3130141F48011C3F3130343F480133A
:1002A00001FB024400FB034E840A970A44EA81548E
:1002B00047EA8357A4FB076802958D0A05FB07856B
:1002C0004FEA932C04FB0C542705029D4FEA065875
:1002D00047EA1637B5EB08056EEB070C870E920E52
:1002E00047EA811742EA8312A7FB0201B6EB0B0132
:1002F00064EB00042B0D43EA0C335E1844EB1C50F6
:10030000DA465146E7FB0201C5F313044FEA0B330B
:1003100043EA14534FEA0432019C43EA0603A4F172
:100320000C040294009CCDE900B400F0C2F803B0C4
:10033000BDE8F08F00200146F9E72DE9F04D81EA94
:10034000030404F0004B21F0004514464FF0000A6E
:1003500023F0004150EA050220D054EA01021DD0EA
:10036000C5F30A570246C5F31303C1F31300C1F3E3
:100370000A5640F4801543F48013A7EB0608101BBF
:10038000D64608F2FD3873EB050002D308F10108E8
:1003900001E092185B41B8F1000F03DA002001463A
:1003A000BDE8F08D00204FF48011064684460EE033
:1003B000171B73EB050705D3121B63EB05030643FD
:1003C0004CEA010C49084FEA300092185B4150EAB0
:1003D0000107EDD152EA030012D082EA040083EA59
:1003E0000501084305D0101BAB4106D201220023B2
:1003F00006E000224FF0004302E06FF001025310CC
:100400001AEB06004CEB085110EB0A0041EB0B0114
:10041000BDE8F04D00F03EB870B5C1F30A5201F0EE
:1004200000450024C1F3130140F2FF3341F4801171
:100430009A4201DA002070BD40F233439A42A2F2A0
:10044000334203DC524200F015F800E090402C43A8
:10045000F1D0404270BD202A04DB203A00FA02F1BC
:10046000002070479140C2F1200320FA03F31943A2
:1004700090407047202A04DB203A21FA02F0002144
:10048000704721FA02F3D040C2F1200291400843A4
:100490001946704710B5141E73F1000408DA401CA9
:1004A00041F1000192185B411A4301D120F0010093
:1004B00010BD2DE9F04D92469B4611B1B1FA81F283
:1004C00002E0B0FA80F220329046FFF7C4FF044603
:1004D0000F4640EA0A0041EA0B0153465A460843D8
:1004E00013D0114653EA010019D0C8F1400250461A
:1004F000FFF7C0FF05460E46504659464246FFF7F5
:10050000AAFF084305D0012004E020463946BDE893
:10051000F08D0020054346EAE0762C4337430A98E5
:100520006305E40AA0EB08000022FD0A44EA4754F0
:100530000A3002D500200146E9E70105101969419A
:10054000DDE9084500196941BDE8F04DA2E700006A
:10055000064C074D06E0E06840F0010394E8070010
:1005600098471034AC42F6D3FFF71AFE481801083A
:10057000681801082DE9F047174E04464FF48059DA
:1005800000224946304600F09EF944F48855002484
:100590004FF400584FF4804700223946304600F0AF
:1005A00092F9280401D5012200E00022414630469C
:1005B00000F089F96D0001223946304600F083F9D8
:1005C000641CE4B2102CE7D349463046BDE8F0473E
:1005D000012200F078B90000000402402DE9F0414A
:1005E0009FED281B90462DED028B0C4605469FED96
:1005F000238B53EC112B51EC100BFFF79EFE53ECA9
:10060000182BFFF728FEFFF707FFC0F30D06C0F316
:100610008D3748F440484FF4807000F037F84FF4BD
:10062000045000F033F815B1012D05D010E046F468
:10063000804047F4804503E046F4004047F400451D
:1006400000F024F8284600F021F8404600F01EF89B
:1006500054B1022C0BD0012C0CD16003BDEC028BE9
:10066000BDE8F04100F012B842F20200F6E742F2B3
:100670002800F3E7BDEC028BBDE8F08100000040EC
:10068000E17A64410000000080842E412DE9F047AA
:100690000122184E054697033946304600F013F9FB
:1006A0004FF4004900224946304600F00CF900247E
:1006B0004FF40058280401D5012200E000224146F1
:1006C000304600F000F900223946304600F0FBF8D1
:1006D00001223946304600F0F6F8641C6D00E4B2A1
:1006E000102CE7D349463046BDE8F047012200F020
:1006F000EAB8000000040240FEE7704770470000BF
:1007000070B5044600F0E4F80546601C02D00448C9
:100710000078044400F0DCF8401BA042FAD370BD1E
:10072000080000202DE9F84F00224FF001080325B2
:100730004FF00F0E0B6808FA02F42340A34271D168
:100740004E68012E05D0022E03D0112E01D0122E9C
:1007500015D18668570005FA07FC26EA0C06D1F881
:100760000CC00CFA07FC4CEA060CC0F808C046683E
:10077000A6430C79C4F30014944034434460C66823
:10078000570005FA07FC8C6826EA0C06BC40344387
:10079000C4604C68022C01D0122C13D1D40800EB99
:1007A0008404A346D4F8209054074FEAD46A0EFA82
:1007B0000AF629EA06090E6906FA0AF646EA090661
:1007C000CBF8206004680E7924EA0C0406F00306D6
:1007D000BE40264306604C68E40056D52E4C266881
:1007E00046F480462660246822F0030604F4804420
:1007F00000942A4C3444A446D4F808489607370F8E
:100800000EFA07F6B443264EB04201D1002615E099
:10081000244EB04201D1012610E0234EB04202D155
:1008200002260BE031E0214EB04201D1032605E063
:100830001F4EB04201D1042600E00726BE402643E9
:10084000CCF808681B4E34684F689C43FF0300D502
:100850001C433460174E361D34684F689C43BF03F9
:1008600000D51C433460134E083634684F689C43EF
:10087000FF0200D51C4334600E4E0C3634684F68BE
:100880009C43BF0200D51C433460521C102AFFF465
:1008900051AFBDE8F88F00004438024000300140FD
:1008A000000002400004024000080240000C024028
:1008B00000100240003C0140426931EA020200D1CE
:1008C0000904816170470AB1816170470904FBE73F
:1008D00001488068704700000800002002488168D5
:1008E0000278114481607047080000200B4810B561
:1008F000016841F400710160016841F480610160A8
:10090000016841F480710160032000F077F8002055
:1009100000F006F800F024F8002010BD003C024072
:1009200070B50D4D04464FF47A712878B1FBF0F0A4
:100930000A490968B1FBF0F000F02CFC48B9102C12
:1009400007D200222146501E00F038F800206C60CB
:1009500070BD012070BD00000800002014000020C0
:100960000E4808B5016841F480410160006800F458
:10097000804000900948001F016841F080510160EB
:100980000068002200F0805000901146052000F021
:1009900015F8BDE80840052000F002B844380240D0
:1009A000002809DB00F01F0201219140400980006E
:1009B00000F1E020C0F8001170470000F0B40E4BC9
:1009C0001B680C46C3F30223C3F10705042D00D9AD
:1009D0000425191D072901D2002300E0DB1E012692
:1009E00006FA05F1491E214099409E40761E1640A8
:1009F0003143F0BC00F0FABF0CED00E0064900F016
:100A0000070208684FF6FF03184040EA0220034A35
:100A100010430860704700000CED00E00000FA058C
:100A20002DE9F0470E46050065D0DFF81481D8F8AF
:100A30000000F7B200F00F00B04207D288F8007053
:100A4000D8F8000000F00F00B04254D128683D4CA7
:100A5000810712D5400703D5206840F4E05020609C
:100A60002878000703D5206840F4604020602068A3
:100A7000A96820F0F000084320602878C0072DD036
:100A8000304968680839012812D0022813D0032899
:100A900011D00968890700292DDA216821F00301A6
:100AA00001432160FFF714FF814641F2883A0EE0CE
:100AB00009688903EFE709688901ECE7FFF708FF98
:100AC000A0EB0901514502D90320BDE8F087206859
:100AD000696800F00C00B0EB810FEFD1D8F800107E
:100AE000404601F00F01B14207D90770006800F0DD
:100AF0000F00B04201D00120E7E72878400705D574
:100B00002068E96820F4E050084320602878000756
:100B100006D52068296920F4604040EAC1002060C1
:100B200000F038F82168084AC1F30311515CC8404D
:100B30000649086006480068FFF7F2FE0020C4E797
:100B4000003C024008380240301801081400002020
:100B50000C0000200448054900680968044AC1F3F4
:100B60008221515CC84070471400002008380240C0
:100B7000401801080448054900680968044AC1F39F
:100B80004231515CC84070471400002008380240D0
:100B900040180108154810B5006810F00C02144800
:100BA00013D04110042A0FD0082A0ED10F4C241F55
:100BB0002268236802F03F025B0207D52068C0F379
:100BC0008810A0FB010106E0084610BD2168C1F3B2
:100BD0008811A1FB00010023FFF7FAFA2168C1F395
:100BE0000141491C4900B0FBF1F010BD083802403A
:100BF0000024F4002DE9F84F04006ED02078DFF8CF
:100C00003C93C007A9F104054AD009F1040001682A
:100C1000C1F38101012908D00068C0F381000228D6
:100C20000AD1D9F80000400206D52868800337D5DC
:100C300060680028E1D033E06068B0F5803F10D0F4
:100C4000B0F5A02F286810D020F4803028602868E4
:100C500020F4802028606068A8B1FFF739FE0646BE
:100C60000DE0286840F48030F4E740F480202860EC
:100C7000F7E700BFFFF72CFE801B642873D82868B5
:100C80008003F7D50CE0FFF723FE064605E000BF22
:100C9000FFF71EFE801B6428F0D828688003F7D475
:100CA0002078DFF89C8280074FF0000A3ED5A348E9
:100CB000001D016811F00C0F08D00068C0F381001E
:100CC00002280BD1D9F80000400207D42868800719
:100CD00016D5E068012800D112E02BE1E068B8B138
:100CE0000120C8F80000FFF7F3FD064605E000BF4D
:100CF000FFF7EEFD801B0228C0D828688007F7D5D3
:100D00002868216920F0F80040EAC10028600DE061
:100D1000C8F800A0FFF7DCFD064604E0FFF7D8FDA9
:100D2000801B02281FD828688007F7D42078000786
:100D300022D5824E83486169703671B1012101600C
:100D4000FFF7C6FD074604E0FFF7C2FDC01B0228FF
:100D500009D830688007F7D50EE0C0F800A0FFF78B
:100D6000B7FD074605E082E0FFF7B2FDC01B022891
:100D70007DD830688007F7D42078400768D5DFF841
:100D8000BCB100270BF13C0BDBF80000C0000BD41A
:100D9000DBF8001041F08051CBF80010DBF80000C8
:100DA000012700F080500090674E3068C00510D4D5
:100DB000306840F480703060FFF78AFD009005E0F5
:100DC000FFF786FD0099401A022850D83068C00508
:100DD000F6D55A4EA0686C3601280FD00528306829
:100DE00010D020F001003060306820F00400306046
:100DF000A068B8B1FFF76CFD00900FE0306840F0DC
:100E00000100F4E740F004003060F7E7FFF760FD11
:100E10000099411A41F28830814266D830688007D3
:100E2000F4D50EE0FFF754FD009007E0FFF750FD0A
:100E30000099411A41F28830814256D830688007C3
:100E4000F4D42FB1DBF8001021F08051CBF8001062
:100E5000A069C8B33949091D0968C1F38101022994
:100E60004AD00228504607D0C8F8600000E03CE0B5
:100E7000FFF72EFD04463BE04746C8F86000FFF749
:100E800027FD064605E000BFFFF722FD801B022874
:100E90002BD828688001F7D4D4E907010843A16A58
:100EA0002A4A490802EB0141626A41EA8211084379
:100EB00094F82C1040EA0161C9F80010012038664E
:100EC000FFF706FD044606E036E000BFFFF700FD31
:100ED000001B022809D828688001F7D52CE000BF44
:100EE000FFF7F6FC001B022802D90320BDE8F88FAB
:100EF00028688001F4D41FE00128F7D0D9F8000059
:100F0000E26900F48001914214D1226A00F03F01AD
:100F100091420FD147F6C071626A0140914209D1F6
:100F2000A26A00F44031914204D1E16A00F070609D
:100F3000884201D00120D9E70020D7E704380240D9
:100F400000004742800E4742007000400000FFFF53
:100F500070B5040005D00025A56294F8510010B1C9
:100F600006E0012070BD84F85050204600F030F8B3
:100F7000022084F851002068016821F040010160DE
:100F8000D4E901010843D4E903121143084361691C
:100F90000843218B01F400710843E1690843216A89
:100FA0000843A16A084321680860A069042101EA96
:100FB0001040616A0843216848602068C16921F4D3
:100FC0000061C1616565012084F85100002070BD99
:100FD00010B586B0044614216846FFF731F913496D
:100FE0002068884220D11248016841F40041016024
:100FF000006800F4004005900D481038016841F089
:10100000020101600068694600F002000590282096
:1010100000900220019001200290032003900620FE
:1010200004900448FFF77EFB06B010BD003C004072
:1010300040380240000402402DE9F84F044690F881
:10104000500000271D461646894601280DD04FF056
:10105000010B84F850B0FFF73BFC804694F8510038
:10106000BA46012804D002278EE00220BDE8F88F9E
:10107000B9F1000F7DD0002E7BD0032084F8510001
:10108000C4F854A0C4F83090A686E686C4F838A008
:10109000A4F83CA0A4F83EA0C4F844A0C4F840A022
:1010A000A068B0F5004F04D12068016841F4804188
:1010B000016020680168490603D4016841F04001DD
:1010C0000160E068B0F5006F606803D030B3012EB6
:1010D00024D040E008B1012E1CD1206B216800888B
:1010E000C86006E020688168890709D5216B0988F6
:1010F000C160206B801C2063E08E401EE08609E00A
:10110000FFF7E6FBA0EB0800A84202D3681C01D061
:1011100031E07DB3E08E0028E4D11FE0206B216830
:101120000078087306E020688168890709D5216B7B
:1011300009780173206B401C2063E08E401EE0861E
:1011400009E0FFF7C5FBA0EB0800A84202D3681C2A
:1011500001D010E075B1E08E0028E4D14246294666
:10116000204600F0DDFA08B120206065A06820B1BB
:1011700007E008E0FFE7032706E02068C168806811
:101180000090606D00B1012784F851B084F850A040
:1011900038466BE710B5401EB0F1807F01D30120C7
:1011A00010BD4FF0E02460610F21601700F01EFCBD
:1011B0000020A06107202061002010BD70B5040050
:1011C00004D094F83900002510B106E0012070BD6C
:1011D00084F83850204600F023F8242084F83900A1
:1011E0002068C16821F40051C160204600F060FB16
:1011F0002068016921F4904101612068416921F072
:101200002A0141612068C16841F40051C160E56371
:10121000202084F8390084F83A00002070BD0000D6
:1012200010B586B0044614216846FFF709F8144942
:101230002068884221D113480021026842F0100240
:101240000260006800F0100005900E481438026833
:1012500042F001020260006800F0010005904FF4C6
:10126000C06000900220CDE9010103200390072017
:10127000049069460448FFF755FA06B010BD000017
:10128000001001404438024000000240FEE72DE912
:10129000F04107461C4615460E462A2000F066F926
:1012A0002837B8B200F07EF92835A8B200F07AF9F4
:1012B0002B2000F05BF93536B0B200F073F935340D
:1012C000A0B200F06FF9BDE8F0412C2000F04EB95B
:1012D00008B5002100908723F022084600F002F8AC
:1012E00008BD00002DE9F047141A5F1A641C7F1C2A
:1012F0007C43002564004FF49068089E444502D961
:10130000A4F590654446FFF7C2FF370ADFF84C901A
:10131000DFF84CA0F6B20020494606E001F8107054
:1013200001EB4002401C567080B2B0EB540FF5D375
:10133000012210215046FFF7C6FAA1B2074800F07B
:10134000F1F8002D07D0454502D9A5F59065E2E7F3
:101350002C460025DFE7BDE8F087000018000020DC
:101360000004024010B56E4C002280212046FFF799
:10137000AAFA7820FFF7C4F9002240212046FFF79F
:10138000A2FA7820FFF7BCF9012240212046FFF79E
:101390009AFA7820FFF7B4F9112000F0E7F87820E6
:1013A000FFF7AEF9362000F0E1F8702000F0ECF81D
:1013B0003A2000F0DBF8052000F0E6F8B22000F05B
:1013C000D5F80C2000F0E0F80C2000F0DDF800204B
:1013D00000F0DAF8332000F0D7F8332000F0D4F82A
:1013E000B72000F0C3F8352000F0CEF8BB2000F0A5
:1013F000BDF8192000F0C8F8C02000F0B7F82C2084
:1014000000F0C2F8C22000F0B1F8012000F0BCF8F2
:10141000C32000F0ABF8122000F0B6F8C42000F0B2
:10142000A5F8202000F0B0F8C62000F09FF80F20AB
:1014300000F0AAF8D02000F099F8A42000F0A4F859
:10144000A12000F0A1F8E02000F090F8D02000F0FA
:101450009BF8042000F098F80D2000F095F811207A
:1014600000F092F8132000F08FF82B2000F08CF899
:101470003F2000F089F8542000F086F84C2000F05E
:1014800083F8182000F080F80D2000F07DF80B2084
:1014900000F07AF81F2000F077F8232000F074F8AD
:1014A000E12000F063F8D02000F06EF8042000F096
:1014B0006BF80C2000F068F8112000F065F813209C
:1014C00000F062F82C2000F05FF83F2000F05CF89C
:1014D000442000F059F8512000F056F82F2000F079
:1014E00053F81F2000F050F81F2000F04DF8202086
:1014F00000F04AF8232000F047F8212000F036F8E9
:10150000292000F033F800218623EF220846FFF758
:10151000BEFE20460122BDE810408021FFF7D3B96E
:101520000004024000F0F4B870B514460219049E9D
:101530001D46F02A17D84B19872B14D85B1E521E54
:101540009BB292B2FFF7A3FE012210210648FFF7DB
:10155000BAF96C434FF6FF7000EA44013046BDE82B
:101560007040FFF7DFBF70BD0004024001B50022EC
:1015700010210448FFF7A7F901216846FFF7D2FFC1
:1015800008BD00000004024001B5012210210448FA
:10159000FFF799F901216846FFF7C4FF08BD000075
:1015A0000004024008B500210091010A8DF80010E6
:1015B0008DF80100012210210348FFF784F9022170
:1015C0006846FFF7AFFF08BD00040240F0B587B0E2
:1015D00014216846FEF734FE27480025016841F0D3
:1015E00004010160016801F004010591016841F006
:1015F00080010160016801F080010591016841F0FE
:1016000001010160016801F001010591016841F0EB
:10161000020101600068194E00F0020005900122ED
:1016200007213046FFF74FF9154F01224FF2D00145
:101630003846FFF748F901240720CDE90004694640
:101640003046CDE90245FFF76DF84FF47040CDE923
:1016500000040220CDE9024069463846FFF762F8EF
:10166000D020CDE900040320CDE902406946384688
:10167000FFF758F807B0F0BD3038024000000240D4
:1016800000040240114810B50F4901604FF4827107
:1016900041604FF40041816000210222C0E9031241
:1016A000012242615202C0E9062101624162816267
:1016B0000A21C162FFF74CFC002803D0BDE81040AE
:1016C000FFF71CB810BD0000003C0040980400204B
:1016D0000C4810B50A4901604FF4E1314160002126
:1016E00081600C22C160C0E904128161C161FFF711
:1016F00065FD002803D0BDE81040FEF7FFBF10BD18
:1017000000100140F0040020FEE77047704770476A
:101710000A46014664230148FFF78EBC9804002066
:1017200038B504461248134B0068B0FBF3F04FF491
:101730007A73584300906068B0F5827F0DD10B46F4
:10174000009200228021204600F016F870B1606DF2
:1017500040F020006065032038BD009830B1401E85
:10176000009020688068C0430006F6D5002038BD90
:101770001400002000366E012DE9F0411D46174689
:101780000E460446DDF8188008E0681C06D0FFF716
:101790009FF8A0EB0800A8420BD255B120688068E2
:1017A00036EA000030D00020B842EED10020BDE87B
:1017B000F0812068416821F0E00141606068B0F587
:1017C000827F0BD1A068B0F5004F02D0B0F5806FDA
:1017D00004D12068016821F040010160A06AB0F5E1
:1017E000005F09D12068016821F400510160206880
:1017F000016841F400510160012084F8510000208B
:1018000084F850000320D2E70120CDE77047FFF7AE
:1018100065B8000030B593B030216846FEF710FD82
:1018200014210CA8FEF70CFD18480025016841F0B2
:1018300080510160006800F08050119014480168E8
:1018400041F4404101600068022400F440401190DE
:1018500001200090000401908001CDE9064008AA13
:101860000420642182E813000B906846FFF7C2F958
:101870000CA90F2081E83100E002CDE90F0503211A
:101880000CA8FFF7CDF813B030BD0000403802407F
:10189000007000400548016841F47001016003498F
:1018A0004FF00060803908607047000088ED00E06C
:1018B0002DE9F041044600680169E26821F44051D5
:1018C000114301612169A068E2690843616911431C
:1018D00008432168CA6849F20C639A430243CA600C
:1018E00020684169A26921F4407111434161E069B6
:1018F000192764253226B0F5004F354A354920684E
:101900004FF0000806D0884201D0904236D1FFF750
:1019100031F935E0884201D0904202D1FFF72AF92F
:1019200001E0FFF717F961684A18A0FB070148EBCF
:101930000803FEF74DFC0146B0FBF5F00201B1FBD8
:10194000F5F06FF01803584301EB800006EBC00080
:10195000B0FBF5F000F0F80002EB4002B1FBF5F04F
:10196000584301EB800006EBC000B0FBF5F000F03F
:101970000700216810448860BDE8F081FFF7EAF8AD
:1019800061688B0F8A00A0FB0701FEF721FC01466E
:10199000B0FBF5F06FF01802504301EB800006EB4E
:1019A0000010B0FBF5F000F0F002B1FBF5F002EB37
:1019B0000012B1FBF5F06FF01803584301EB800003
:1019C00006EB0010B0FBF5F000F00F00D1E70000CF
:1019D0000014014000100140FEE70000014A0249E6
:1019E00000F023B84D1A0008040000200907090E72
:1019F000002804DB00F1E02080F80014704700F0BC
:101A00000F0000F1E02080F8141D704702E008C8C4
:101A1000121F08C1002AFAD170477047002001E068
:101A200001C1121F002AFBD170472DE9F041164673
:101A30000F460446002503E03946B047641C6D1C80
:101A400020780028F8D12846BDE8F08103490A68CB
:101A50005206FCD5C2B24A60704700000010014037
:101A600008B5FEF743FFFFF7D5FEFFF7AFFDFFF721
:101A700009FEFFF72DFEFFF775FC4FF47840FFF7E6
:101A800027FC17494FF6FF70164A08800021118085
:101A9000052100908123EA220846FFF723FC124823
:101AA000002100908723F0220846FFF73DFD5A22CF
:101AB000022100209FED0D0BFEF790FDFF20FEF7A9
:101AC00059FD0CA0FFF78AFF0E4C4FF4FA75012167
:101AD0002046FEF7F1FE2846FEF712FEF7E700006B
:101AE0000200002000000020081B00080000000089
:101AF00000409F40D0C5BAC5B7A2C9FAC6F70D0AC3
:101B000000000000000002400010F0008700011BF0
:101B1000FFFFFFFFFFFFFFFFFFFFFFFFFFFFFFFFD5
:101B2000FFFFFFFFFFFFFFFFFFFFFFFFFFFFFFFFC5
:101B3000FFFFFFFFFFFFFFFFFFFFFFFFFFFFFFFFB5
:101B4000FFFFFFFFFFFFDFFFFFFFFFFFFFFFFFFFC5
:101B5000FFFFFFFFFFFFFFFFFFFFFFFFFFFFFFFF95
:101B6000FFFFFFFFFFFFFFFFFFFFFFFFFFFFFFFF85
:101B7000FFFFFFFFFFFFFFFFFFFFFFFFFFFFFFFF75
:101B8000FFFFFFFFFFFFFFFFFFFFFFFFFFFFFFFF65
:101B9000FFFFFFFFFFFFFFFFFFFFFFFFFFFFFFFF55
:101BA000FFFFFFFFFFFFFFFFFFFFFFFFFFFFFFFF45
:101BB000FFFFFFFFFFFFFFFFFFFFFFFFFFFFFFFF35
:101BC000FFFFFFFFFFFFFFFFFFFFFFFFFFFFFFFF25
:101BD000FFFFFFFFFFFFFFFFFFFFFFFFFFFFFFFF15
:101BE000FFFFFFFFFFFFFFFFFFFFFFFFFFFFFFFF05
:101BF000FFFFFFFFFFFFFFFFFFFFFFFFFFFFFFFFF5
:101C0000FFFFFFFFFFFFFFFFFFFFFFFFFFFFFFFFE4
:101C1000FFFFFFFFFFFFFFFFFFFFFFFFFFFFFFFFD4
:101C2000FFFFFFFFFFFFFFFFFFFFFFFFFFFFFFFFC4
:101C3000FFFFFFFFFFFFFFFFFFFFFFFFFFFFFFFFB4
:101C4000FFFFFFFFFFFFFFFFFFFFFFFFFFFFFFFFA4
:101C5000FFFFFFFFFFFFFFFFFFFFFFFFFFFFFFFF94
:101C6000FFFFFFFFFFFFFFFFFFFFFFFFFFFFFFFF84
:101C7000FFFFFFFFFFFFFFFFFFFFFFFFFFFFFFFF74
:101C8000FFFFFFFFFFFFFFFFFFFFFFFFFFFFFFFF64
:101C9000FFFFFFFFFFFFFFFFFFFFFFFFFFFFFFFF54
:101CA000FFFFFFFFFFFFDFFFFFFFFFFFFFFFFFFF64
:101CB000FFFFFFFFFFFFFFFFFFFFFFFFFFFFFFFF34
:101CC000FFFFFFFFFFFFFFFFFFFFFFFFFFFFFFFF24
:101CD000FFFFFFFFFFFFFFFFDFFFFFFFFFFFFFFF34
:101CE000FFFFDFFFFFFFFFFFFFFFFFFFFFFFFFFF24
:101CF000FFFFFFFFFFFFDFFFFFFFFFFFFFFFFFFF14
:101D0000FFFFFFFFFFFFDFFFFFFFDFFFDFFFFFFF43
:101D1000FFFFFFFFFFFFFFFFFFFFFFFFFFFFDFFFF3
:101D2000BEF7BEF7FFFFFFFFFFFFFFFFFFFFFFFF55
:101D3000FFFFFFFFFFFFFFFFFFFFFFFFFFFFDFFFD3
:101D4000FFFFFFFFFFFFFFFFFFFFFFFFFFFFFFFFA3
:101D5000FFFFFFFFFFFFFFFFFFFFFFFFFFFFFFFF93
:101D6000FFFFFFFFFFFFFFFFFFFFFFFFFFFFFFFF83
:101D7000FFFFFFFFFFFFFFFFFFFFFFFFFFFFFFFF73
:101D8000FFFFFFFFFFFFFFFFFFFFFFFFFFFFFFFF63
:101D9000FFFFFFFFFFFFFFFFFFFFFFFFFFFFFFFF53
:101DA000FFFFFFFFFFFFFFFFFFFFFFFFFFFFFFFF43
:101DB000FFFFFFFFFFFFFFFFFFFFFFFFFFFFFFFF33
:101DC000FFFFFFFFFFFFFFFFFFFFFFFFFFFFFFFF23
:101DD000FFFFFFFFFFFFFFFFFFFFFFFFFFFFFFFF13
:101DE000FFFFFFFFFFFFFFFFFFFFFFFFFFFFFFFF03
:101DF000FFFFFFFFFFFFFFFFFFFFFFFFFFFFFFFFF3
:101E0000FFFFFFFFFFFFFFFFFFFFFFFFFFFFFFFFE2
:101E1000FFFFFFFFFFFFFFFFFFFFFFFFFFFFFFFFD2
:101E2000FFFFFFFFFFFFFFFFFFFFFFFFFFFFFFFFC2
:101E3000FFFFFFFFFFFFFFFFFFFFFFFFFFFFFFFFB2
:101E4000FFFFFFFFFFFFFFFFFFFFFFFFFFFFFFFFA2
:101E5000FFFFFFFFFFFFFFFFFFFFFFFFFFFFFFFF92
:101E6000FFFFFFFFFFFFFFFFFFFFFFFFFFFFFFFF82
:101E7000FFFFFFFFFFFFFFFFFFFFFFFFFFFFFFFF72
:101E8000DFFFFFFFFFFFFFFFFFFFFFFFFFFFFFFF82
:101E9000DFFFFFFFFFFFFFFFFFFFDFFFDFFFBEF7FB
:101EA000FFFFFFFFFFFFFFFFFFFFFFFFFFFFDFFF62
:101EB000FFFFDFFFFFFFDFFFFFFFFFFFDFFFFFFF92
:101EC000FFFFFFFFFFFFBEF7DFFFBEF7FFFFFFFFD4
:101ED000FFFFFFFFFFFFFFFFFFFFDBDE75AD18C653
:101EE000CF7B30849AD6D7BD9EF7DBDE55AD1CE79D
:101EF000FFFFDFFF7DEF14A56D6BCB5A28420C630B
:101F00001084CF7B518C9AD67DEF9EF71CE796B557
:101F10000C63494A694A494A284234A5DFFFFFFF5A
:101F2000FFFFFFFFFFFFFFFFFFFFFFFFFFFFFFFFC1
:101F3000FFFFFFFFFFFFFFFFFFFFFFFFFFFFFFFFB1
:101F4000FFFFFFFFFFFFFFFFFFFFFFFFFFFFFFFFA1
:101F5000FFFFFFFFFFFFFFFFFFFFFFFFFFFFFFFF91
:101F6000FFFFFFFFFFFFFFFFFFFFFFFFFFFFFFFF81
:101F7000FFFFFFFFFFFFFFFFFFFFFFFFFFFFFFFF71
:101F8000FFFFFFFFFFFFFFFFFFFFFFFFFFFFFFFF61
:101F9000FFFFFFFFFFFFFFFFFFFFFFFFFFFFFFFF51
:101FA000FFFFFFFFFFFFFFFFFFFFFFFFFFFFFFFF41
:101FB000FFFFFFFFFFFFFFFFFFFFFFFFFFFFFFFF31
:101FC000FFFFFFFFFFFFFFFFFFFFFFFFFFFFFFFF21
:101FD000FFFFFFFFFFFFFFFFFFFFFFFFFFFFFFFF11
:101FE000FFFFFFFFFFFFFFFFFFFFFFFFFFFFFFFF01
:101FF000FFFFFFFFFFFFFFFFFFFFFFFFFFFFFFFFF1
:10200000FFFFFFFFFFFFFFFFFFFFFFFFFFFFFFFFE0
:10201000FFFFFFFFFFFFFFFFFFFFFFFFFFFFFFFFD0
:10202000FFFFFFFFFFFFFFFFFFFFFFFFFFFFFFFFC0
:10203000FFFFFFFFFFFFFFFFFFFFFFFFFFFFFFFFB0
:10204000FFFFFFFFFFFFFFFFFFFFFFFFFFFFFFFFA0
:10205000FFFFFFFFFFFFFFFFFFFFFFFFFFFFFFFF90
:10206000FFFFFFFF18C6AA522842AA52494AAA52A5
:1020700014A51CE79EF75DEFBAD6D39C108410849C
:10208000AA52C739AA524D6BF39CFBDEFFFFFFFF3C
:102090003CE775AD18C6FFFF79CE59CED7BD4D6B65
:1020A00034A518C6B6B5DFFFFFFFDFFFDFFFDFFF98
:1020B000FFFFFFFFFFFFBEF7FFFF79CE2842821030
:1020C00045294529E318AA52FFFFBEF78631A21021
:1020D00055AD929441080000000000000000410846
:1020E000E739C3184108E7396529000000000000FE
:1020F000200000000000000000001084FFFFFFFF30
:10210000FFFFFFFFFFFFFFFFFFFFFFFFFFFFFFFFDF
:10211000FFFFFFFFFFFFFFFFFFFFFFFFFFFFFFFFCF
:10212000FFFFFFFFFFFFFFFFFFFFFFFFFFFFFFFFBF
:10213000FFFFFFFFFFFFFFFFFFFFFFFFFFFFFFFFAF
:10214000FFFFFFFFFFFFFFFFFFFFFFFFFFFFFFFF9F
:10215000FFFFFFFFFFFFFFFFFFFFFFFFFFFFFFFF8F
:10216000FFFFFFFFFFFFFFFFFFFFFFFFFFFFFFFF7F
:10217000FFFFFFFFFFFFFFFFFFFFFFFFFFFFFFFF6F
:10218000FFFFFFFFFFFFFFFFFFFFFFFFFFFFFFFF5F
:10219000FFFFFFFFFFFFFFFFFFFFFFFFFFFFFFFF4F
:1021A000FFFFFFFFFFFFFFFFFFFFFFFFFFFFFFFF3F
:1021B000FFFFFFFFFFFFFFFFFFFFFFFFFFFFFFFF2F
:1021C000FFFFFFFFFFFFFFFFFFFFFFFFFFFFFFFF1F
:1021D000FFFFFFFFFFFFFFFFFFFFFFFFFFFFFFFF0F
:1021E000FFFFFFFFFFFFFFFFFFFFFFFFFFFFFFFFFF
:1021F000FFFFFFFFFFFFFFFFFFFFFFFFFFFFFFFFEF
:10220000FFFFFFFFFFFFFFFFFFFFFFFFFFFFFFFFDE
:10221000FFFFFFFFFFFFFFFFFFFFFFFFFFFFFFFFCE
:10222000FFFFFFFFFFFFFFFFFFFFFFFFFFFFFFFFBE
:10223000FFFFFFFFFFFFFFFFFFFFFFFFFFFFFFFFAE
:10224000FFFFFFFF34A50000000000000000200099
:102250000000200000002421E7398210C318494AF9
:10226000A21000000000000020000000EF7BD7BD9E
:102270008631C31879CEFFFF55AD0421E3188631AE
:1022800045290421EF7BDFFFDFFFFFFFFFFFFFFF9B
:10229000FFFFBEF7FFFFDFFFAE7324216529494A28
:1022A0004D6B0C63C7392421084296B5D7BD8631E2
:1022B00000002000718C9EF7FFFFDFFFD39CE31826
:1022C0000000000020002C6355AD0C6341080000A5
:1022D00000000000000000000000A6310C632C6329
:1022E000EB5AEB5AEB5AEB5AEB5AEB5AEB5AEB5AC6
:1022F000EB5AEB5AEB5AEB5AEB5AEB5AEB5AEB5AB6
:10230000EB5AEB5AEB5AEB5AEB5AEB5AEB5AEB5AA5
:10231000EB5AEB5AEB5AEB5AEB5AEB5AEB5AEB5A95
:10232000EB5AEB5AEB5AEB5AEB5AEB5AEB5AEB5A85
:10233000EB5AEB5AEB5AEB5AEB5AEB5AEB5AEB5A75
:10234000EB5AEB5AEB5AEB5AEB5AEB5AEB5AEB5A65
:10235000EB5AEB5AEB5AEB5AEB5AEB5AEB5AEB5A55
:10236000CB5ACB5ACB5ACB5ACB5ACB5ACB5ACB5A45
:10237000EB5AEB5AEB5AEB5AEB5AEB5AEB5AEB5A35
:10238000CB5ACB5ACB5ACB5ACB5ACB5ACB5ACB5A25
:10239000EB5AEB5AEB5AEB5AEB5AEB5AEB5AEB5A15
:1023A000EB5AEB5AEB5AEB5AEB5AEB5AEB5AEB5A05
:1023B000EB5AEB5AEB5AEB5AEB5AEB5AEB5AEB5AF5
:1023C000EB5AEB5AEB5AEB5AEB5AEB5AEB5AEB5AE5
:1023D000CB5ACB5ACB5ACB5ACB5ACB5ACB5ACB5AD5
:1023E000EB5AEB5AEB5AEB5AEB5AEB5AEB5AEB5AC5
:1023F000CB5ACB5ACB5ACB5ACB5ACB5ACB5ACB5AB5
:10240000EB5AEB5AEB5AEB5AEB5AEB5AEB5AEB5AA4
:10241000CB5ACB5AEB5AEB5AEB5AEB5AEB5AEB5AD4
:10242000CB5A4D6BE739200000002000000000006F
:1024300000002000694A55ADAE73A21020000000D4
:10244000610810847DEFFFFFBEF7F39C4108000098
:10245000A21014A5BAD6AE736529652928420C636B
:10246000EB5A694A2421A631B6B5FFFFFFFFFFFFF3
:10247000DFFFFFFFBEF7FFFFB294C31828422C63B3
:10248000652986310C63A6318631DBDE38C68210C1
:102490006529DBDEFFFFB6B58E7375ADFFFFDFFF8D
:1024A0004D6B000000000000EB5AFBDEDFFF9AD608
:1024B000B2948E732C63E73920008A52B6B5B6B554
:1024C00055AD55AD55AD55AD55AD55AD55AD55ADFC
:1024D00055AD55AD55AD55AD55AD55AD55AD55ADEC
:1024E00055AD55AD55AD55AD55AD55AD55AD55ADDC
:1024F00055AD55AD55AD55AD55AD55AD55AD55ADCC
:1025000055AD55AD55AD55AD55AD55AD55AD55ADBB
:1025100055AD55AD55AD55AD55AD55AD55AD55ADAB
:1025200055AD55AD55AD55AD55AD55AD55AD55AD9B
:1025300055AD55AD55AD55AD55AD55AD55AD55AD8B
:1025400055AD55AD55AD55AD55AD55AD55AD55AD7B
:1025500055AD55AD55AD55AD55AD55AD55AD55AD6B
:1025600055AD55AD55AD55AD55AD55AD55AD55AD5B
:1025700055AD55AD55AD55AD55AD55AD55AD55AD4B
:1025800055AD55AD55AD55AD55AD55AD55AD55AD3B
:1025900055AD55AD55AD55AD55AD55AD55AD55AD2B
:1025A00055AD55AD55AD55AD55AD55AD55AD55AD1B
:1025B00055AD55AD55AD55AD55AD55AD55AD55AD0B
:1025C00055AD55AD55AD55AD55AD55AD55AD55ADFB
:1025D00055AD55AD55AD55AD55AD55AD55AD55ADEB
:1025E00055AD55AD55AD55AD55AD55AD55AD55ADDB
:1025F00055AD55AD55AD55AD55AD55AD55AD75ADAB
:1026000096B5F7BD8E73821086310C636D6B718C3D
:1026100079CEBEF73CE7AE73000000000000AA527E
:102620007DEFDFFFD7BDAE7334A5FFFF9EF70842F5
:10263000000014A5FFFFCF7BE318CB5ACB5AC31879
:10264000C7390C63A631694ABAD6FFFFFFFFFFFF07
:10265000DFFFFFFFFFFF14A582100842694AC73958
:1026600075AD718CA631EB5A45294D6B6D6BA2107F
:10267000718CBAD62421A631518C4529A6313CE76C
:10268000FFFF96B5E318000000000000694A75AD31
:102690003CE77DEF3CE7AE7300004529AE736D6B00
:1026A0006D6B6D6B6D6B6D6B6D6B6D6B4D6B4D6BAA
:1026B0006D6B6D6B6D6B6D6B6D6B6D6B6D6B6D6B5A
:1026C0006D6B6D6B6D6B6D6B6D6B6D6B6D6B6D6B4A
:1026D0006D6B6D6B6D6B6D6B6D6B6D6B6D6B6D6B3A
:1026E0006D6B6D6B6D6B6D6B6D6B6D6B6D6B6D6B2A
:1026F0006D6B6D6B6D6B6D6B6D6B6D6B6D6B6D6B1A
:102700006D6B6D6B6D6B6D6B6D6B6D6B6D6B6D6B09
:102710006D6B6D6B6D6B6D6B6D6B6D6B6D6B6D6BF9
:102720004D6B4D6B4D6B4D6B4D6B4D6B4D6B4D6BE9
:102730006D6B6D6B6D6B6D6B6D6B6D6B6D6B6D6BD9
:102740004D6B4D6B4D6B4D6B4D6B4D6B4D6B4D6BC9
:102750006D6B6D6B6D6B6D6B6D6B6D6B6D6B6D6BB9
:102760006D6B6D6B6D6B6D6B6D6B6D6B6D6B6D6BA9
:102770006D6B6D6B6D6B6D6B6D6B6D6B6D6B6D6B99
:102780006D6B6D6B6D6B6D6B6D6B6D6B6D6B6D6B89
:102790004D6B4D6B4D6B4D6B4D6B4D6B4D6B4D6B79
:1027A0006D6B6D6B6D6B6D6B6D6B6D6B6D6B6D6B69
:1027B0004D6B4D6B4D6B4D6B4D6B4D6B4D6B4D6B59
:1027C0006D6B6D6B6D6B6D6B6D6B6D6B6D6B6D6B49
:1027D0006D6B6D6B6D6B6D6B6D6B6D6B6D6B6D6B39
:1027E0004D6BAE73084241082C63DBDE5DEF5DEF9D
:1027F000D7BDCB5A0000000000006108F39CFFFF2A
:10280000DFFFAA52C318518C694AA210F7BD55AD1B
:102810006108108438C645290842C739694AF7BD9E
:10282000AE73E7390C63E318694ADBDEFFFFFFFF95
:10283000FFFFDFFFFFFFDFFF1084A631694A694A0F
:10284000E739E7398A520842E739D7BDF39C0421BA
:10285000CF7B30840000C318FBDEFBDE2421CB5A83
:10286000FFFFFFFFF7BDE3180000A210000000000B
:10287000000000000000000000008A52D7BDB6B57D
:1028800075AD75AD75AD75AD75AD75AD75AD75AD38
:1028900075AD75AD75AD75AD75AD75AD75AD75AD28
:1028A00075AD75AD75AD75AD75AD75AD75AD75AD18
:1028B00075AD75AD75AD75AD75AD75AD75AD75AD08
:1028C00075AD75AD75AD75AD75AD75AD75AD75ADF8
:1028D00075AD75AD75AD75AD75AD75AD75AD75ADE8
:1028E00075AD75AD75AD75AD75AD75AD75AD75ADD8
:1028F00075AD75AD75AD75AD75AD75AD75AD75ADC8
:1029000075AD75AD75AD75AD75AD75AD75AD75ADB7
:1029100075AD75AD75AD75AD75AD75AD75AD75ADA7
:1029200075AD75AD75AD75AD75AD75AD75AD75AD97
:1029300075AD75AD75AD75AD75AD75AD75AD75AD87
:1029400075AD75AD75AD75AD75AD75AD75AD75AD77
:1029500075AD75AD75AD75AD75AD75AD75AD75AD67
:1029600075AD75AD75AD75AD75AD75AD75AD75AD57
:1029700075AD75AD75AD75AD75AD75AD75AD75AD47
:1029800075AD75AD75AD75AD75AD75AD75AD75AD37
:1029900075AD75AD75AD75AD75AD75AD75AD75AD27
:1029A00075AD75AD75AD75AD75AD75AD75AD75AD17
:1029B00075AD75AD75AD75AD75AD75AD75AD75AD07
:1029C00075AD38C64D6B000000000000000000002F
:1029D00000000000610820004108F39CFFFFFFFF9A
:1029E000EF7BA210B6B53CE7A63100002C63B29491
:1029F0000421718CBEF78E73A6312842494AC7392B
:102A0000E739AA52C739E73959CEFFFFFFFFFFFF69
:102A1000DFFFDFFFDFFF9EF76D6B2000E7390C6300
:102A2000694A8A52AA52A210E31859CEFFFFA63172
:102A3000452955AD0C63000075AD5DEFC31800006E
:102A4000D39CDFFFFFFFF7BDD7BDBEF759CE4D6B5F
:102A5000E739CF7BB6B555ADEF7B96B5FFFFFFFFEE
:102A6000FFFFFFFFFFFFFFFFFFFFFFFFFFFFFFFF76
:102A7000FFFFFFFFFFFFFFFFFFFFFFFFFFFFFFFF66
:102A8000FFFFFFFFFFFFFFFFFFFFFFFFFFFFFFFF56
:102A9000FFFFFFFFFFFFFFFFFFFFFFFFFFFFFFFF46
:102AA000FFFFFFFFFFFFFFFFFFFFFFFFFFFFFFFF36
:102AB000FFFFFFFFFFFFFFFFFFFFFFFFFFFFFFFF26
:102AC000FFFFFFFFFFFFFFFFFFFFFFFFFFFFFFFF16
:102AD000FFFFFFFFFFFFFFFFFFFFFFFFFFFFFFFF06
:102AE000FFFFFFFFFFFFFFFFFFFFFFFFFFFFFFFFF6
:102AF000FFFFFFFFFFFFFFFFFFFFFFFFFFFFFFFFE6
:102B0000FFFFFFFFFFFFFFFFFFFFFFFFFFFFFFFFD5
:102B1000FFFFFFFFFFFFFFFFFFFFFFFFFFFFFFFFC5
:102B2000FFFFFFFFFFFFFFFFFFFFFFFFFFFFFFFFB5
:102B3000FFFFFFFFFFFFFFFFFFFFFFFFFFFFFFFFA5
:102B4000FFFFFFFFFFFFFFFFFFFFFFFFFFFFFFFF95
:102B5000FFFFFFFFFFFFFFFFFFFFFFFFFFFFFFFF85
:102B6000FFFFFFFFFFFFFFFFFFFFFFFFFFFFFFFF75
:102B7000FFFFFFFFFFFFFFFFFFFFFFFFFFFFFFFF65
:102B8000FFFFFFFFFFFFFFFFFFFFFFFFFFFFFFFF55
:102B9000FFFFFFFFFFFFFFFFFFFFFFFFFFFFFFFF45
:102BA000FFFFFFFF59CE3084F39CD7BD718CE7390E
:102BB000EB5A18C6BEF738C696B5BEF7FFFF75AD1F
:102BC0000000000079CEF7BD8210E73955AD494AC3
:102BD0000421FBDEFFFF8E732000E739EB5A494AE0
:102BE0008A52EB5A04210421B6B5DFFFFFFFFFFF35
:102BF000FFFFDFFFFFFFBEF7BEF755ADE31861082B
:102C0000494A65294108EB5A9AD65DEFFFFF4D6BA3
:102C100000004529308496B514A5E73924212421E4
:102C20002421F39CFFFFFFFFFFFFDFFFFFFFFFFFFC
:102C3000FFFFFFFFFFFFFFFFFFFFFFFFFFFFBEF7ED
:102C4000FFFFFFFFFFFFFFFFFFFFFFFFFFFFFFFF94
:102C5000FFFFFFFFFFFFFFFFFFFFFFFFFFFFFFFF84
:102C6000FFFFFFFFFFFFFFFFFFFFFFFFFFFFFFFF74
:102C7000FFFFFFFFFFFFFFFFFFFFFFFFFFFFFFFF64
:102C8000FFFFFFFFFFFFFFFFFFFFFFFFFFFFFFFF54
:102C9000FFFFFFFFFFFFFFFFFFFFFFFFFFFFFFFF44
:102CA000FFFFFFFFFFFFFFFFFFFFFFFFFFFFFFFF34
:102CB000FFFFFFFFFFFFFFFFFFFFFFFFFFFFFFFF24
:102CC000FFFFFFFFFFFFFFFFFFFFFFFFFFFFFFFF14
:102CD000FFFFFFFFFFFFFFFFFFFFFFFFFFFFFFFF04
:102CE000FFFFFFFFFFFFFFFFFFFFFFFFFFFFFFFFF4
:102CF000FFFFFFFFFFFFFFFFFFFFFFFFFFFFFFFFE4
:102D0000FFFFFFFFFFFFFFFFFFFFFFFFFFFFFFFFD3
:102D1000FFFFFFFFFFFFFFFFFFFFFFFFFFFFFFFFC3
:102D2000FFFFFFFFFFFFFFFFFFFFFFFFFFFFFFFFB3
:102D3000FFFFFFFFFFFFFFFFFFFFFFFFFFFFFFFFA3
:102D4000FFFFFFFFFFFFFFFFFFFFFFFFFFFFFFFF93
:102D5000FFFFFFFFFFFFFFFFFFFFFFFFFFFFFFFF83
:102D6000FFFFFFFFFFFFFFFFFFFFFFFFFFFFFFFF73
:102D7000FFFFFFFFFFFFFFFFFFFFFFFFFFFFFFFF63
:102D8000DFFFFFFFFFFFDFFFFFFFFFFFFFFFFFFF93
:102D9000FFFFFFFFFFFFFFFFFFFFFFFF75ADC7391D
:102DA000242104218631B29496B59294C73900004B
:102DB000494ABEF7FFFFDBDEF39C86316108494AD2
:102DC000863120002C63DBDE3CE7FFFFFFFFFFFFC7
:102DD000FFFFFFFFDFFFDFFFFFFF9AD675AD34A5D2
:102DE000AA526D6B34A514A579CE718C4D6BEB5A3C
:102DF000AA528A522842C739E739718CFFFFFFFF78
:102E0000BEF7DFFFFFFFFFFFFFFFFFFFFFFFFFFF3B
:102E1000DFFFFFFFFFFFFFFFFFFFFFFFFFFFFFFFE2
:102E2000FFFFFFFFFFFFFFFFFFFFFFFFFFFFFFFFB2
:102E3000FFFFFFFFFFFFFFFFFFFFFFFFFFFFFFFFA2
:102E4000FFFFFFFFFFFFFFFFFFFFFFFFFFFFFFFF92
:102E5000FFFFFFFFFFFFFFFFFFFFFFFFFFFFFFFF82
:102E6000FFFFFFFFFFFFFFFFFFFFFFFFFFFFFFFF72
:102E7000FFFFFFFFFFFFFFFFFFFFFFFFFFFFFFFF62
:102E8000FFFFFFFFFFFFFFFFFFFFFFFFFFFFFFFF52
:102E9000FFFFFFFFFFFFFFFFFFFFFFFFFFFFFFFF42
:102EA000FFFFFFFFFFFFFFFFFFFFFFFFFFFFFFFF32
:102EB000FFFFFFFFFFFFFFFFFFFFFFFFFFFFFFFF22
:102EC000FFFFFFFFFFFFFFFFFFFFFFFFFFFFFFFF12
:102ED000FFFFFFFFFFFFFFFFFFFFFFFFFFFFFFFF02
:102EE000FFFFFFFFFFFFFFFFFFFFFFFFFFFFFFFFF2
:102EF000FFFFFFFFFFFFFFFFFFFFFFFFFFFFFFFFE2
:102F0000FFFFFFFFFFFFFFFFFFFFFFFFFFFFFFFFD1
:102F1000FFFFFFFFFFFFFFFFFFFFFFFFFFFFFFFFC1
:102F2000FFFFFFFFFFFFFFFFFFFFFFFFFFFFFFFFB1
:102F3000FFFFFFFFFFFFFFFFFFFFFFFFFFFFFFFFA1
:102F4000FFFFFFFFFFFFFFFFFFFFFFFFFFFFFFFF91
:102F5000FFFFFFFFFFFFFFFFFFFFFFFFFFFFFFFF81
:102F6000FFFFFFFFFFFFFFFFFFFFFFFFFFFFFFFF71
:102F7000FFFFFFFFFFFFFFFFFFFFFFFFFFFFDFFF81
:102F8000FFFFFFFF34A5494A0842C739694AAA52E0
:102F9000CB5A2C636D6BDBDE9AD6B29414A5CB5A58
:102FA000AE73B6B596B5FFFFFFFFBEF7FFFFFFFF9D
:102FB000FFFFDFFFFFFF79CEAE73718C3CE7DBDEF6
:102FC000D7BDDBDEFFFFFFFFD39C8E7338C6FBDE71
:102FD0009AD61CE759CEB6B59AD65DEFBAD6BAD610
:102FE000BAD6BAD679CE9AD659CE9AD679CE9AD6BC
:102FF0009AD679CE79CE79CE79CE79CEBAD69AD6FE
:1030000079CE79CE79CE79CE79CE79CE79CE79CE88
:1030100079CE79CE79CE79CE79CE79CE79CE79CE78
:1030200079CE79CE79CE79CE79CE79CE79CE79CE68
:1030300079CE79CE79CE79CE79CE79CE79CE79CE58
:1030400079CE79CE79CE79CE79CE79CE79CE79CE48
:1030500079CE79CE79CE79CE79CE79CE79CE79CE38
:1030600079CE79CE79CE79CE79CE79CE79CE79CE28
:1030700079CE79CE79CE79CE79CE79CE79CE79CE18
:1030800079CE79CE79CE79CE79CE79CE79CE79CE08
:1030900079CE79CE79CE79CE79CE79CE79CE79CEF8
:1030A00079CE79CE79CE79CE79CE79CE79CE79CEE8
:1030B00079CE79CE79CE79CE79CE79CE79CE79CED8
:1030C00079CE79CE79CE79CE79CE79CE79CE79CEC8
:1030D00079CE79CE79CE79CE79CE79CE79CE79CEB8
:1030E00079CE79CE79CE79CE79CE79CE79CE79CEA8
:1030F00079CE79CE79CE79CE79CE79CE79CE79CE98
:1031000079CE79CE79CE79CE79CE79CE79CE79CE87
:1031100079CE79CE79CE79CE79CE79CE79CE79CE77
:1031200079CE79CE79CE79CE79CE79CE79CE79CE67
:1031300079CE79CE79CE79CE79CE79CE79CE79CE57
:1031400079CE79CE9AD679CE59CE59CE9AD69AD60C
:1031500059CE9AD679CE59CE79CE9AD69AD6BAD6B3
:10316000BAD6DBDE5DEFBAD696B538C63CE7DBDE15
:10317000BAD6DBDEAE73B294FFFFFFFF5DEFF7BDA3
:1031800038C63CE714A56D6BB6B5FFFFFFFFFFFF28
:10319000FFFFFFFFFFFFFFFF0C6300000421821011
:1031A000000041088631F39C718C14A596B5494AFC
:1031B00008428A52EB5ACB5A694A494A694A8A52AA
:1031C000694A494A694A694A694A694A694A494AA7
:1031D000694A694A694A494A694A494A494A694AB7
:1031E000694A694A494A494A494A494A494A494A07
:1031F000494A494A494A494A494A494A494A494A37
:10320000494A494A494A494A494A494A494A494A26
:10321000494A494A494A494A494A494A494A494A16
:10322000494A494A494A494A494A494A494A494A06
:10323000494A494A494A494A494A494A494A494AF6
:10324000494A494A494A494A494A494A494A494AE6
:10325000494A494A494A494A494A494A494A494AD6
:10326000494A494A494A494A494A494A494A494AC6
:10327000494A494A494A494A494A494A494A494AB6
:10328000494A494A494A494A494A494A494A494AA6
:10329000494A494A494A494A494A494A494A494A96
:1032A000494A494A494A494A494A494A494A494A86
:1032B000494A494A494A494A494A494A494A494A76
:1032C000494A494A494A494A494A494A494A494A66
:1032D000494A494A494A494A494A494A494A494A56
:1032E000494A494A494A494A494A494A494A494A46
:1032F000494A494A494A494A494A494A494A494A36
:10330000494A494A494A494A494A494A494A494A25
:10331000494A494A494A494A494A494A494A494A15
:10332000694A494A494A694A694A694A694A8A521C
:10333000694A494A694A694A28422842694A494AC7
:10334000694A694A494A694AEB5A8A528A5208428A
:10335000A63175AD75AD518CD39C0842000020009C
:103360008210242100008A52DFFFFFFFFFFFFFFFD2
:10337000FFFFDFFFFFFFFFFF7DEF8E730000C73908
:10338000D39C34A58A520000000075AD14A52C63AF
:103390001CE7DFFF5DEF9EF79EF77DEF7DEF9EF769
:1033A0007DEF7DEF9EF79EF7BEF77DEF9EF79EF7D0
:1033B0007DEF9EF79EF77DEF9EF7BEF79EF79EF797
:1033C0009EF79EF79EF79EF79EF79EF79EF79EF755
:1033D0009EF79EF79EF79EF79EF79EF79EF79EF745
:1033E0009EF79EF79EF79EF79EF79EF79EF79EF735
:1033F0009EF79EF79EF79EF79EF79EF79EF79EF725
:103400009EF79EF79EF79EF79EF79EF79EF79EF714
:103410009EF79EF79EF79EF79EF79EF79EF79EF704
:103420009EF79EF79EF79EF79EF79EF79EF79EF7F4
:103430009EF79EF79EF79EF79EF79EF79EF79EF7E4
:103440009EF79EF79EF79EF79EF79EF79EF79EF7D4
:103450009EF79EF79EF79EF79EF79EF79EF79EF7C4
:103460009EF79EF79EF79EF79EF79EF79EF79EF7B4
:103470009EF79EF79EF79EF79EF79EF79EF79EF7A4
:103480009EF79EF79EF79EF79EF79EF79EF79EF794
:103490009EF79EF79EF79EF79EF79EF79EF79EF784
:1034A0009EF79EF79EF79EF79EF79EF79EF79EF774
:1034B0009EF79EF79EF79EF79EF79EF79EF79EF764
:1034C0009EF79EF79EF79EF79EF79EF79EF79EF754
:1034D0009EF79EF79EF79EF79EF79EF79EF79EF744
:1034E0009EF79EF79EF79EF79EF79EF79EF79EF734
:1034F0009EF79EF79EF79EF79EF79EF79EF79EF724
:103500007DEF9EF79EF79EF77DEF7DEF5DEF7DEF00
:103510009EF75DEF7DEF9EF77DEF7DEF9EF79EF7C7
:103520007DEF9EF79EF79EF75DEF7DEFFFFF9EF725
:103530004D6BD39CD7BD82100000C73914A514A5CC
:10354000494A00008A52FBDEFFFFDFFFDFFFFFFF7B
:10355000FFFFDFFFFFFFFFFF9AD624212842FFFF76
:1035600079CEAE7334A5AE736108D39C75AD8E73FE
:103570009EF7FFFFFFFFFFFFFFFFFFFFFFFFFFFFC4
:10358000FFFFFFFFFFFFFFFFFFFFFFFFFFFFFFFF4B
:10359000FFFFDFFFFFFFFFFFFFFFFFFFFFFFFFFF5B
:1035A000FFFFFFFFFFFFFFFFFFFFFFFFFFFFFFFF2B
:1035B000FFFFFFFFFFFFFFFFFFFFFFFFFFFFFFFF1B
:1035C000FFFFFFFFFFFFFFFFFFFFFFFFFFFFFFFF0B
:1035D000FFFFFFFFFFFFFFFFFFFFFFFFFFFFFFFFFB
:1035E000FFFFFFFFFFFFFFFFFFFFFFFFFFFFFFFFEB
:1035F000FFFFFFFFFFFFFFFFFFFFFFFFFFFFFFFFDB
:10360000FFFFFFFFFFFFFFFFFFFFFFFFFFFFFFFFCA
:10361000FFFFFFFFFFFFFFFFFFFFFFFFFFFFFFFFBA
:10362000FFFFFFFFFFFFFFFFFFFFFFFFFFFFFFFFAA
:10363000FFFFFFFFFFFFFFFFFFFFFFFFFFFFFFFF9A
:10364000FFFFFFFFFFFFFFFFFFFFFFFFFFFFFFFF8A
:10365000FFFFFFFFFFFFFFFFFFFFFFFFFFFFFFFF7A
:10366000FFFFFFFFFFFFFFFFFFFFFFFFFFFFFFFF6A
:10367000FFFFFFFFFFFFFFFFFFFFFFFFFFFFFFFF5A
:10368000FFFFFFFFFFFFFFFFFFFFFFFFFFFFFFFF4A
:10369000FFFFFFFFFFFFFFFFFFFFFFFFFFFFFFFF3A
:1036A000FFFFFFFFFFFFFFFFFFFFFFFFFFFFFFFF2A
:1036B000FFFFFFFFFFFFFFFFFFFFFFFFFFFFFFFF1A
:1036C000FFFFFFFFFFFFFFFFFFFFFFFFFFFFFFFF0A
:1036D000FFFFFFFFFFFFFFFFFFFFFFFFFFFFFFFFFA
:1036E000FFFFFFFFDFFFFFFFFFFFFFFFFFFFFFFF0A
:1036F000FFFFFFFFFFFFFFFFFFFFFFFFDFFFFFFFFA
:10370000FFFFFFFFFFFFFFFFFFFFFFFFFFFFFFFFC9
:10371000AE73F39C75ADC3182C6355ADAE73B6B5DF
:10372000FFFF4D6BE318D7BDFFFFFFFFFFFFDFFF7C
:10373000FFFFDFFFFFFFDFFF694A4529DFFFBAD642
:10374000A2100000610810846D6BAE739294EF7B41
:103750005DEFFFFFDEFFFFFFFFFFFFFFFFFFFFFF4C
:10376000FFFFFFFFDFFFFFFFFFFFFFFFFFFFFFFF89
:10377000FFFFFFFFFFFFFFFFFFFFFFFFFFFFFFFF59
:10378000FFFFFFFFFFFFFFFFFFFFFFFFFFFFFFFF49
:10379000FFFFFFFFFFFFFFFFFFFFFFFFFFFFFFFF39
:1037A000FFFFFFFFFFFFFFFFFFFFFFFFFFFFFFFF29
:1037B000FFFFFFFFFFFFFFFFFFFFFFFFFFFFFFFF19
:1037C000FFFFFFFFFFFFFFFFFFFFFFFFFFFFFFFF09
:1037D000FFFFFFFFFFFFFFFFFFFFFFFFFFFFFFFFF9
:1037E000FFFFFFFFFFFFFFFFFFFFFFFFFFFFFFFFE9
:1037F000FFFFFFFFFFFFFFFFFFFFFFFFFFFFFFFFD9
:10380000FFFFFFFFFFFFFFFFFFFFFFFFFFFFFFFFC8
:10381000FFFFFFFFFFFFFFFFFFFFFFFFFFFFFFFFB8
:10382000FFFFFFFFFFFFFFFFFFFFFFFFFFFFFFFFA8
:10383000FFFFFFFFFFFFFFFFFFFFFFFFFFFFFFFF98
:10384000FFFFFFFFFFFFFFFFFFFFFFFFFFFFFFFF88
:10385000FFFFFFFFFFFFFFFFFFFFFFFFFFFFFFFF78
:10386000FFFFFFFFFFFFFFFFFFFFFFFFFFFFFFFF68
:10387000FFFFFFFFFFFFFFFFFFFFFFFFFFFFFFFF58
:10388000FFFFFFFFFFFFFFFFFFFFFFFFFFFFFFFF48
:10389000FFFFFFFFFFFFFFFFFFFFFFFFFFFFFFFF38
:1038A000FFFFFFFFFFFFFFFFFFFFFFFFFFFFFFFF28
:1038B000FFFFFFFFFFFFFFFFFFFFFFFFFFFFFFFF18
:1038C000FFFFFFFFFFFFFFFFDFFFFFFFFFFFFFFF28
:1038D000FFFFFFFFFFFFFFFFFFFFFFFFFFFFFFFFF8
:1038E000FFFFFFFFFFFFFFFFFFFFDFFFFFFFFFFF08
:1038F000CF7B9294EF7B0C63518C65290000000014
:10390000D7BDFFFF084286317DEFFFFFDFFFFFFFDE
:10391000FFFFFFFFFFFF79CE04214D6BFFFF3084D7
:10392000AE731084042114A5718CEF7B718CCF7B56
:103930005DEFFFFFFFFFFFFFDFFFFFFFFFFFFFFF69
:10394000FFFFFFFFFFFFFFFFFFFFFFFFFFFFFFFF87
:10395000FFFFFFFFFFFFFFFFFFFFFFFFFFFFFFFF77
:10396000FFFFFFFFFFFFFFFFFFFFFFFFFFFFFFFF67
:10397000FFFFFFFFFFFFFFFFFFFFFFFFFFFFFFFF57
:10398000FFFFFFFFFFFFFFFFFFFFFFFFFFFFFFFF47
:10399000FFFFFFFFFFFFFFFFFFFFFFFFFFFFFFFF37
:1039A000FFFFFFFFFFFFFFFFFFFFFFFFFFFFFFFF27
:1039B000FFFFFFFFFFFFFFFFFFFFFFFFFFFFFFFF17
:1039C000FFFFFFFFFFFFFFFFFFFFFFFFFFFFFFFF07
:1039D000FFFFFFFFFFFFFFFFFFFFFFFFFFFFFFFFF7
:1039E000FFFFFFFFFFFFFFFFFFFFFFFFFFFFFFFFE7
:1039F000FFFFFFFFFFFFFFFFFFFFFFFFFFFFFFFFD7
:103A0000FFFFFFFFFFFFFFFFFFFFFFFFFFFFFFFFC6
:103A1000FFFFFFFFFFFFFFFFFFFFFFFFFFFFFFFFB6
:103A2000FFFFFFFFFFFFFFFFFFFFFFFFFFFFFFFFA6
:103A3000FFFFFFFFFFFFFFFFFFFFFFFFFFFFFFFF96
:103A4000FFFFFFFFFFFFFFFFFFFFFFFFFFFFFFFF86
:103A5000FFFFFFFFFFFFFFFFFFFFFFFFFFFFFFFF76
:103A6000FFFFFFFFFFFFFFFFFFFFFFFFFFFFFFFF66
:103A7000FFFFFFFFFFFFFFFFFFFFFFFFFFFFFFFF56
:103A8000FFFFFFFFFFFFFFFFFFFFFFFFFFFFFFFF46
:103A9000FFFFFFFFFFFFFFFFFFFFFFFFFFFFFFFF36
:103AA000FFFFFFFFFFFFFFFFFFFFFFFFFFFFFFFF26
:103AB000FFFFFFFFFFFFFFFFFFFFFFFFFFFFFFFF16
:103AC000FFFFFFFFFFFFFFFFFFFFFFFFFFFFFFFF06
:103AD0008E73929410846D6BB294E7398E73108458
:103AE0006D6BFFFF718C610896B5FFFFFFFFFFFF55
:103AF000FFFFDFFFFFFF75AD00000C63FFFFAE733C
:103B0000EB5A7DEFFFFF55ADC73996B555ADAF7395
:103B10007EEFFFFFFFFFFFFFFFFFFFFFFFFFFFFF46
:103B2000FFFFFFFFFFFFFFFFFFFFFFFFFFFFFFFFA5
:103B3000FFFFFFFFFFFFFFFFFFFFFFFFFFFFFFFF95
:103B4000FFFFFFFFFFFFFFFFFFFFFFFFFFFFFFFF85
:103B5000FFFFFFFFFFFFFFFFFFFFFFFFFFFFFFFF75
:103B6000FFFFFFFFFFFFFFFFFFFFFFFFFFFFFFFF65
:103B7000FFFFFFFFFFFFFFFFFFFFFFFFFFFFFFFF55
:103B8000FFFFFFFFFFFFFFFFFFFFFFFFFFFFFFFF45
:103B9000FFFFFFFFFFFFFFFFFFFFFFFFFFFFFFFF35
:103BA000FFFFFFFFFFFFFFFFFFFFFFFFFFFFFFFF25
:103BB000FFFFFFFFFFFFFFFFFFFFFFFFFFFFFFFF15
:103BC000FFFFFFFFFFFFFFFFFFFFFFFFFFFFFFFF05
:103BD000FFFFFFFFFFFFFFFFFFFFFFFFFFFFFFFFF5
:103BE000FFFFFFFFFFFFFFFFFFFFFFFFFFFFFFFFE5
:103BF000FFFFFFFFFFFFFFFFFFFFFFFFFFFFFFFFD5
:103C0000FFFFFFFFFFFFFFFFFFFFFFFFFFFFFFFFC4
:103C1000FFFFFFFFFFFFFFFFFFFFFFFFFFFFFFFFB4
:103C2000FFFFFFFFFFFFFFFFFFFFFFFFFFFFFFFFA4
:103C3000FFFFFFFFFFFFFFFFFFFFFFFFFFFFFFFF94
:103C4000FFFFFFFFFFFFFFFFFFFFFFFFFFFFFFFF84
:103C5000FFFFFFFFFFFFFFFFFFFFFFFFFFFFFFFF74
:103C6000FFFFFFFFFFFFFFFFFFFFFFFFFFFFFFFF64
:103C7000FFFFFFFFFFFFFFFFFFFFFFFFFFFFFFFF54
:103C8000FFFFFFFFFFFFFFFFFFFFFFFFFFFFFFFF44
:103C9000FFFFFFFFFFFFFFFFFFFFFFFFFFFFFFFF34
:103CA000FFFFFFFFFFFFFFFFFFFFFFFFFFFFFFFF24
:103CB000AE73B294F7BD2842B294FFFFFFFF6D6B65
:103CC000EB5AFFFF518C0000518CFFFFFFFFFFFFFD
:103CD000FFFFFFFFFFFFF39C0000A2105DEF5DEF11
:103CE00065296108C73982103084FFFF14A56D6B08
:103CF0007EEFFFFFFFFFFFFFFFFFFFFFFFFFFFFF65
:103D0000FFFFFFFFFFFFFFFFFFFFFFFFFFFFFFFFC3
:103D1000FFFFFFFFFFFFFFFFFFFFFFFFFFFFFFFFB3
:103D2000FFFFFFFFFFFFFFFFFFFFFFFFFFFFFFFFA3
:103D3000FFFFFFFFFFFFFFFFFFFFFFFFFFFFFFFF93
:103D4000FFFFFFFFFFFFFFFFFFFFFFFFFFFFFFFF83
:103D5000FFFFFFFFFFFFFFFFFFFFFFFFFFFFFFFF73
:103D6000FFFFFFFFFFFFFFFFFFFFFFFFFFFFFFFF63
:103D7000FFFFFFFFFFFFFFFFFFFFFFFFFFFFFFFF53
:103D8000FFFFFFFFFFFFFFFFFFFFFFFFFFFFFFFF43
:103D9000FFFFFFFFFFFFFFFFFFFFFFFFFFFFFFFF33
:103DA000FFFFFFFFFFFFFFFFFFFFFFFFFFFFFFFF23
:103DB000FFFFFFFFFFFFFFFFFFFFFFFFFFFFFFFF13
:103DC000FFFFFFFFFFFFFFFFFFFFFFFFFFFFFFFF03
:103DD000FFFFFFFFFFFFFFFFFFFFFFFFFFFFFFFFF3
:103DE000FFFFFFFFFFFFFFFFFFFFFFFFFFFFFFFFE3
:103DF000FFFFFFFFFFFFFFFFFFFFFFFFFFFFFFFFD3
:103E0000FFFFFFFFFFFFFFFFFFFFFFFFFFFFFFFFC2
:103E1000FFFFFFFFFFFFFFFFFFFFFFFFFFFFFFFFB2
:103E2000FFFFFFFFFFFFFFFFFFFFFFFFFFFFFFFFA2
:103E3000FFFFFFFFFFFFFFFFFFFFFFFFFFFFFFFF92
:103E4000FFFFFFFFFFFFFFFFFFFFFFFFFFFFFFFF82
:103E5000FFFFFFFFFFFFFFFFFFFFFFFFFFFFFFFF72
:103E6000FFFFFFFFFFFFFFFFFFFFFFFFFFFFFFFF62
:103E7000FFFFFFFFFFFFFFFFFFFFFFFFFFFFFFFF52
:103E8000FFFFFFFFFFFFFFFFFFFFFFFFFFFFFFFF42
:103E90008E73EF7BFFFF34A5E318A631E318821081
:103EA00059CEFFFFC7390000CF7BFFFFFFFFFFFFA9
:103EB000FFFFDFFFFFFFB294000000008A52FFFF08
:103EC000DFFF8E732000000055ADFFFFB2946E6BD4
:103ED0007EEFFFFFFFFFFFFFFFFFFFFFFFFFFFFF83
:103EE000FFFFFFFFFFFFFFFFFFFFFFFFFFFFFFFFE2
:103EF000FFFFFFFFFFFFFFFFFFFFFFFFFFFFFFFFD2
:103F0000FFFFFFFFFFFFFFFFFFFFFFFFFFFFFFFFC1
:103F1000FFFFFFFFFFFFFFFFFFFFFFFFFFFFFFFFB1
:103F2000FFFFFFFFFFFFFFFFFFFFFFFFFFFFFFFFA1
:103F3000FFFFFFFFFFFFFFFFFFFFFFFFFFFFFFFF91
:103F4000FFFFFFFFFFFFFFFFFFFFFFFFFFFFFFFF81
:103F5000FFFFFFFFFFFFFFFFFFFFFFFFFFFFFFFF71
:103F6000FFFFFFFFFFFFFFFFFFFFFFFFFFFFFFFF61
:103F7000FFFFFFFFFFFFFFFFFFFFFFFFFFFFFFFF51
:103F8000FFFFFFFFFFFFFFFFFFFFFFFFFFFFFFFF41
:103F9000FFFFFFFFFFFFFFFFFFFFFFFFFFFFFFFF31
:103FA000FFFFFFFFFFFFFFFFFFFFFFFFFFFFFFFF21
:103FB000FFFFFFFFFFFFFFFFFFFFFFFFFFFFFFFF11
:103FC000FFFFFFFFFFFFFFFFFFFFFFFFFFFFFFFF01
:103FD000FFFFFFFFFFFFFFFFFFFFFFFFFFFFFFFFF1
:103FE000FFFFFFFFFFFFFFFFFFFFFFFFFFFFFFFFE1
:103FF000FFFFFFFFFFFFFFFFFFFFFFFFFFFFFFFFD1
:10400000FFFFFFFFFFFFFFFFFFFFFFFFFFFFFFFFC0
:10401000FFFFFFFFFFFFFFFFFFFFFFFFFFFFFFFFB0
:10402000FFFFFFFFFFFFFFFFFFFFFFFFFFFFFFFFA0
:10403000FFFFFFFFFFFFFFFFFFFFFFFFFFFFFFFF90
:10404000FFFFFFFFFFFFFFFFFFFFFFFFFFFFFFFF80
:10405000FFFFFFFFFFFFFFFFFFFFFFFFFFFFFFFF70
:10406000FFFFFFFFFFFFFFFFFFFFFFFFFFFFFFFF60
:104070008E731084FFFF18C620000000CB5A3CE767
:10408000FFFF8E73000000003084FFFFFFFFDFFFA3
:10409000FFFFFFFFFFFF96B56D6B65290000EB5A30
:1040A000FFFFFFFFDBDEE7394D6BDFFF14A56E6B13
:1040B0007EEFFFFFFFFFFFFFFFFFFFFFFFFFFFFFA1
:1040C000FFFFFFFFFFFFFFFFFFFFFFFFFFFFFFFF00
:1040D000FFFFFFFFFFFFFFFFFFFFFFFFFFFFFFFFF0
:1040E000FFFFFFFFFFFFFFFFFFFFFFFFFFFFFFFFE0
:1040F000FFFFFFFFFFFFFFFFFFFFFFFFFFFFFFFFD0
:10410000FFFFFFFFFFFFFFFFFFFFFFFFFFFFFFFFBF
:10411000FFFFFFFFFFFFFFFFFFFFFFFFFFFFFFFFAF
:10412000FFFFFFFFFFFFFFFFFFFFFFFFFFFFFFFF9F
:10413000FFFFFFFFFFFFFFFFFFFFFFFFFFFFFFFF8F
:10414000FFFFFFFFFFFFFFFFFFFFFFFFFFFFFFFF7F
:10415000FFFFFFFFFFFFFFFFFFFFFFFFFFFFFFFF6F
:10416000FFFFFFFFFFFFFFFFFFFFFFFFFFFFFFFF5F
:10417000FFFFFFFFFFFFFFFFFFFFFFFFFFFFFFFF4F
:10418000FFFFFFFFFFFFFFFFFFFFFFFFFFFFFFFF3F
:10419000FFFFFFFFFFFFFFFFFFFFFFFFFFFFFFFF2F
:1041A000FFFFFFFFFFFFFFFFFFFFFFFFFFFFFFFF1F
:1041B000FFFFFFFFFFFFFFFFFFFFFFFFFFFFFFFF0F
:1041C000FFFFFFFFFFFFFFFFFFFFFFFFFFFFFFFFFF
:1041D000FFFFFFFFFFFFFFFFFFFFFFFFFFFFFFFFEF
:1041E000FFFFFFFFFFFFFFFFFFFFFFFFFFFFFFFFDF
:1041F000FFFFFFFFFFFFFFFFFFFFFFFFFFFFFFFFCF
:10420000FFFFFFFFFFFFFFFFFFFFFFFFFFFFFFFFBE
:10421000FFFFFFFFFFFFFFFFFFFFFFFFFFFFFFFFAE
:10422000FFFFFFFFFFFFFFFFFFFFFFFFFFFFFFFF9E
:10423000FFFFFFFFFFFFFFFFFFFFFFFFFFFFFFFF8E
:10424000FFFFFFFFFFFFFFFFFFFFFFFFFFFFFFFF7E
:104250006D6BEF7BFFFF30846529F7BDFFFFFFFF2C
:10426000AE73000041088A5275ADBEF7FFFFFFFF35
:10427000FFFFFFFFFFFFB6B5A631410800000000B9
:104280000C639EF7FFFFFBDEBAD6FFFFD39C4D6B9E
:104290007EEFFFFFFFFFFFFFFFFFFFFFFFFFFFFFBF
:1042A000FFFFFFFFFFFFFFFFFFFFFFFFFFFFFFFF1E
:1042B000FFFFFFFFFFFFFFFFFFFFFFFFFFFFFFFF0E
:1042C000FFFFFFFFFFFFFFFFFFFFFFFFFFFFFFFFFE
:1042D000FFFFFFFFFFFFFFFFFFFFFFFFFFFFFFFFEE
:1042E000FFFFFFFFFFFFFFFFFFFFFFFFFFFFFFFFDE
:1042F000FFFFFFFFFFFFFFFFFFFFFFFFFFFFFFFFCE
:10430000FFFFFFFFFFFFFFFFFFFFFFFFFFFFFFFFBD
:10431000FFFFFFFFFFFFFFFFFFFFFFFFFFFFFFFFAD
:10432000FFFFFFFFFFFFFFFFFFFFFFFFFFFFFFFF9D
:10433000FFFFFFFFFFFFFFFFFFFFFFFFFFFFFFFF8D
:10434000FFFFFFFFFFFFFFFFFFFFFFFFFFFFFFFF7D
:10435000FFFFFFFFFFFFFFFFFFFFFFFFFFFFFFFF6D
:10436000FFFFFFFFFFFFFEFFFFFFFFFFFFFFFFFF5E
:10437000FFFFFFFFFFFFFFFFFFFFFFFFFFFFFFFF4D
:10438000FFFFFFFFFFFFFFFFFFFFFFFFFFFFFFFF3D
:10439000FFFFFFFFFFFFFFFFFFFFFFFFFFFFFFFF2D
:1043A000FFFFFFFFFFFFFFFFFFFFFFFFFFFFFFFF1D
:1043B000FFFFFFFFFFFFFFFFFFFFFFFFFFFFFFFF0D
:1043C000FFFFFFFFFFFFFFFFFFFFFFFFFFFFFFFFFD
:1043D000FFFFFFFFFFFFFFFFFFFFFFFFFFFFFFFFED
:1043E000FFFFFFFFFFFFFFFFFFFFFFFFFFFFFFFFDD
:1043F000FFFFFFFFFFFFFFFFFFFFFFFFFFFFFFFFCD
:10440000FFFFFFFFFFFFFFFFFFFFFFFFFFFFFFFFBC
:10441000FFFFFFFFFFFFFFFFFFFFFFFFFFFFFFFFAC
:10442000FFFFFFFFFFFFFFFFFFFFFFFFFFFFFFFF9C
:10443000AE73EF7BFFFFBAD679CEFFFFFFFFAE73FF
:10444000000000000000C31834A5FFFFFFFFFFFFBE
:10445000FFFFFFFFFFFF9EF7EB5AA210C3180000FB
:104460000000E73918C6DFFFFFFFFFFF518C6D6BBF
:104470005DEFFFFFFFFFFFFFFFFFFFFFFFFFFFFFFE
:10448000FFFFFFFFFFFFFFFFFFFFFFFFFFFFFFFF3C
:10449000FFFFFFFFFFFFFFFFFFFFFFFFFFFFFFFF2C
:1044A000FFFFFFFFFFFFFFFFFFFFFFFFFFFFFFFF1C
:1044B000FFFFFFFFFFFFFFFFFFFFFFFFFFFFFFFF0C
:1044C000FFFFFFFFFFFFFFFFFFFFFFFFFFFFFFFFFC
:1044D000FFFFFFFFFFFFFFFFFFFFFFFFFFFFFFFFEC
:1044E000FFFFFFFFFFFFFFFFFFFFFFFFFFFFFFFFDC
:1044F000FFFFFFFFFFFFFFFFFFFFFFFFFFFFFFFFCC
:10450000FFFFFFFFFFFFFFFFFFFFFFFFFFFFFFFFBB
:10451000FFFFFFFFFFFFFFFFFFFFFFFFFFFFFFFFAB
:10452000FFFFFFFFFFFFFFFFFFFFFFFFFFFFFFFF9B
:10453000FFFFFFFFFFFFFFFFFFFFFFFFFFFFFFFF8B
:10454000FFFFFFFFFFFFFFFFFFFFFFFFFFFFFFFF7B
:10455000FFFFFFFFFFFFFFFFFFFFFFFFFFFFFFFF6B
:10456000FFFFFFFFFFFFFFFFFFFFFFFFFFFFFFFF5B
:10457000FFFFFFFFFFFFFFFFFFFFFFFFFFFFFFFF4B
:10458000FFFFFFFFFFFFFFFFFFFFFFFFFFFFFFFF3B
:10459000FFFFFFFFFFFFFFFFFFFFFFFFFFFFFFFF2B
:1045A000FFFFFFFFFFFFFFFFFFFFFFFFFFFFFFFF1B
:1045B000FFFFFFFFFFFFFFFFFFFFFFFFFFFFFFFF0B
:1045C000FFFFFFFFFFFFFFFFFFFFFFFFFFFFFFFFFB
:1045D000FFFFFFFFFFFFFFFFFFFFFFFFFFFFFFFFEB
:1045E000FFFFFFFFFFFFFFFFFFFFFFFFFFFFFFFFDB
:1045F000FFFFFFFFFFFFFFFFFFFFFFFFFFFFFFFFCB
:10460000FFFFFFFFFFFFFFFFFFFFFFFFFFFFFFFFBA
:104610006D6BAE73FFFFFFFFFFFF9AD6494A200084
:104620000000A210E3188A529AD6DFFFFFFFFFFFB7
:10463000FFFFFFFFFFFFFFFFEF7B6D6BD39C86311A
:1046400000000000EB5ABEF7FFFFFFFF92944D6B96
:104650005DEFFFFFFFFFFFFFFFFFFFFFFFFFFFFF1C
:10466000FFFFFFFFFFFFFFFFFFFFFFFFFFFFFFFF5A
:10467000FFFFFFFFFFFFFFFFFFFFFFFFFFFFFFFF4A
:10468000FFFFFFFFFFFFFFFFFFFFFFFFFFFFFFFF3A
:10469000FFFFFFFFFFFFFFFFFFFFFFFFFFFFFFFF2A
:1046A000FFFFFFFFFFFFFFFFFFFFFFFFFFFFFFFF1A
:1046B000FFFFFFFFFFFFFFFFFFFFFFFFFFFFFFFF0A
:1046C000FFFFFFFFFFFFFFFFFFFFFFFFFFFFFFFFFA
:1046D000FFFFFFFFFFFFFFFFFFFFFFFFFFFFFFFFEA
:1046E000FFFFFFFFFFFFFFFFFFFFFFFFFFFFFFFFDA
:1046F000FFFFFFFFFFFFFFFFFFFFFFFFFFFFFFFFCA
:10470000FFFFFFFFFFFFFFFFFFFFFFFFFFFFFFFFB9
:10471000FFFFFFFFFFFFFFFFFFFFFFFFFFFFFFFFA9
:10472000FFFFFFFFFFFFFFFFFFFFFFFFFFFFFFFF99
:10473000FFFFFFFFFFFFFFFFFFFFFFFFFFFFFFFF89
:10474000FFFFFFFFFFFFFFFFFFFFFFFFFFFFFFFF79
:10475000FFFFFFFFFFFFFFFFFFFFFFFFFFFFFFFF69
:10476000FFFFFFFFFFFFFFFFFFFFFFFFFFFFFFFF59
:10477000FFFFFFFFFFFFFFFFFFFFFFFFFFFFFFFF49
:10478000FFFFFFFFFFFFFFFFFFFFFFFFFFFFFFFF39
:10479000FFFFFFFFFFFFFFFFFFFFFFFFFFFFFFFF29
:1047A000FFFFFFFFFFFFFFFFFFFFFFFFFFFFFFFF19
:1047B000FFFFFFFFFFFFFFFFFFFFFFFFFFFFFFFF09
:1047C000FFFFFFFFFFFFFFFFFFFFFFFFFFFFFFFFF9
:1047D000FFFFFFFFFFFFFFFFFFFFFFFFFFFFFFFFE9
:1047E000FFFFFFFFFFFFFFFFFFFFFFFFFFFFFFFFD9
:1047F0008E73AE73FFFFFFFFFFFFCF7B0000000053
:10480000A21092941084AE73DFFFFFFFDFFFFFFF63
:10481000FFFFFFFFFFFFFFFF10848210B6B5B6B5A4
:1048200000000000B294FFFFFFFFFFFF518C6D6B93
:104830005DEFFFFFFFFFFFFFFFFFFFFFFFFFFFFF3A
:10484000FFFFFFFFFFFFFFFFFFFFFFFFFFFFFFFF78
:10485000FFFFFFFFFFFFFFFFFFFFFFFFFFFFFFFF68
:10486000DFFFFFFFDFFFDFFFFFFFFFFFFFFFFFFFB8
:10487000FFFFFFFFFFFFFFFFFFFFFFFFFFFFFFFF48
:10488000FFFFFFFFFFFFFFFFFFFFFFFFFFFFFFFF38
:10489000FEFFFEFFFFFFFFFFFFFFFFFFFFFFFFFF2A
:1048A000FFFFFFFFDFFFFFFFFFFFFFFFFFFFFFFF38
:1048B000FFFFFFFFFFFFDFFFFFFFFFFFFFFFFFFF28
:1048C000FFFFFFFFFFFFFFFFFFFFFFFFFFFFFFFFF8
:1048D000FFFFFFFFFFFFFFFFFFFFFFFFDFFFFFFF08
:1048E000FFFFFFFFFFFFFFFFFFFFFFFFFFFFFEFFD9
:1048F000FFFFFFFFFFFFFFFFFFFFFFFFFFFFFFFFC8
:10490000FFFFFFFFFFFFFFFFFFFFFFFFFFFFFFFFB7
:10491000FFFFFFFFFFFFFFFFFFF7FFFFFFFFFFFFAF
:10492000FFFFFFFFFFFFFFFFDFFFFFFFFFFFFFFFB7
:10493000FFFFFFFFFFFFFFFFFFFFFFFFFFFFFFFF87
:10494000FFFFFFFFFFFFFFFFFFFFFFFFFFFFFFFF77
:10495000FFFFFFFFFFFFFFFFFFFFFFFFFFFFFFFF67
:10496000FFFFFFFFFFFFFFFFFFFFFFFFFFFFFFFF57
:10497000FFFFFFFFFFFFFFFFFFFFFFFFFFFFFFFF47
:10498000FFFFFFFFFFFFFFFFFFFFFFFFFFFFFFFF37
:10499000FFFFFFFFFFFFFFFFFFFFFFFFFFFFFFFF27
:1049A000FFFFFFFFFFFFFFFFFFFFFFFFFFFFFFFF17
:1049B000FFFFFFFFFFFFFFFFFFFFFFFFFFFFFFFF07
:1049C000FFFFFFFFFFFFFFFFFFFFFFFFFFFFFFFFF7
:1049D0008E73EF7BDFFFFFFFFFFFB6B541080000DE
:1049E00014A538C6C318EB5AFFFFFFFFFFFFFFFFF8
:1049F000FFFFFFFFFFFFDFFF30840000EB5A9EF751
:104A0000AA520000518CFFFFFFFFFFFFD39C4D6BAC
:104A10005CEFFFFFFFFFFFFFFFFFFFFFFFFFFFFF59
:104A2000FFFFFFFFFFFFFFFFFFFFFFFFFFFFFFFF96
:104A3000FFFFFFFFFFFFFFFFFFFFFFFFFFFFFFFF86
:104A4000FFFFFFFFFFFFFFFFFFFFFFFFFFFFFFFF76
:104A5000FFFFFFFFFFFFFFFFFFFFFFFFFFFFFFFF66
:104A6000FFFFFFFFFFFFFFFFFFFFFEFFFFFFFFFF57
:104A7000FEFFFFFFFFFFDFFFFFFFFFFFFFFFFFFF67
:104A8000FFFFFFFFDFFFFFFFFFFFFFFFFFFFFFFF56
:104A9000FFFFFFFFFFFFFFFFFFFFFFFFFFFFFFFF26
:104AA000FFFFFFFFFFFFFFFFFFFFFFFFFFFFFFFF16
:104AB000FFFFFFFFFFFFFFFFFFFFFFFFFFFFFEFF07
:104AC000FFFFFFFFFFFFFFFFFFFFFFFFFFFFFFFFF6
:104AD000FFFFFFFFFFFFFFFFDEF7FFFFFFFFFFFF0F
:104AE000DFFFDFFFFFFFFFFFFFFFFFFFFFFFFFFF16
:104AF000FFFFFFFFFFFFFFFFFFFFFFFFFFFFFFFFC6
:104B0000FEFFFEFFDFFFFFFFFFFFFFFFFFFFFFFFD7
:104B1000FFFFFFFFFFFFFFFFFFFFFFFFFFFFFFFFA5
:104B2000FFFFFFFFFFFFFFFFFFFFFFFFFFFFFFFF95
:104B3000FFFFFFFFDFFFFFFFFFFFFFFFDEFFFFFFC6
:104B4000FFFFFFFFFFFFFFFFFFFFFFFFFFFFFFFF75
:104B5000FFFFFFFFFFFFFFFFFFFFFFFFFFFFFFFF65
:104B6000FFFFFFFFFFFFFFFFFFFFFFFFFFFFFFFF55
:104B7000FFFFFFFFFFFFFFFFFFFFFFFFFFFFFFFF45
:104B8000FFFFFFFFFFFFFFFFFFFFFFFFFFFFFFFF35
:104B9000FFFFFFFFFFFFFFFFFFFFFFFFFFFFFFFF25
:104BA000FFFFFFFFFFFFFFFFFFFFFFFFFFFFFFFF15
:104BB0008E738E73FFFFFFFFFFFF55AD0000C739F7
:104BC000BEF7CF7B20000C63FFFFFFFFFFFFFFFF5F
:104BD000DFFFDFFFFFFF5DEF694A0000A210FBDE91
:104BE00059CE2000A21079CEFFFFFFFF718C4D6BD4
:104BF0005CEFFFFFFFFFFFFFFFFFFFFFFFFFFFFF78
:104C0000FFFFFFFFFFFFFFFFFFFFDFFFFFFFDFFFF4
:104C1000DFFFDFFFFEFFFEFFFEFFFFFFFFFFFFFFE7
:104C2000FFF7FFF7FFF7FFFFFFFFFFFFFFFFFFFFAC
:104C3000FFFFFFFFFFFFFFFFFFFFFFFFFFFFFFFF84
:104C4000FFFFDFF7FFFFFFFFFEFFFEFFFFFFFFFF9E
:104C5000FFFFFFFFFFFFFFFFFFFFFFFFFFFFFFFF64
:104C6000FFFFFFFFFFFFFFFFFFFFFEFFFDFFFDFF59
:104C7000FFF7FFF7FFFFFFFFFFFFFEFFFEFFFEFF57
:104C8000DDFFDEFFDFFFDFF7FFF7FFF7FFFFFFFFCF
:104C9000FFFFFFFFFFFFFFFFFFFFFFFFFEFFFDFF27
:104CA000FEFFFFFFFFFFFFFFFFF7FFFFFFFFDFFF3D
:104CB000FFFFFFFFFFFFFFFFFFFFFEFFFFFFFFFF05
:104CC000FFFFFFFFFFFFFFFFDFFFFFFFFFF7FFFF1C
:104CD000FFFFFFFFFFFFFFFFFFFFFFF7FFFFFFFFEC
:104CE000DDFFFDFFFFFFFFF7FFFFFFFFFFFFFFFF00
:104CF000FFFFFFFFFFFFFFFFFFFFFEFFFDFFFEFFC8
:104D0000FFF7FFF7FFFFFFFFDFFFFFFFFFFFFFFFE3
:104D1000FFFFFFFFFFFFDEFFFFFFFFFFFFFFFFF7CC
:104D2000FFFFFFFFFFFFFFFFFFFFFFFFFFFFFFFF93
:104D3000FFFFFFFFFFFFFFFFFFFFFFFFFFFFFFFF83
:104D4000FFFFFFFFFFFFFFFFFFFFFFFFFFFFFFFF73
:104D5000FFFFFFFFFFFFFFFFFFFFFFFFFFFFFFFF63
:104D6000FFFFFFFFFFFFFFFFFFFFFFFFFFFFFFFF53
:104D7000FFFFFFFFFFFFFFFFFFFFFFFFFFFFFFFF43
:104D8000FFFFFFFFFFFFFFFFFFFFFFFFFFFFFFFF33
:104D9000AE73AE73FFFFFFFF1CE786310000F39C8C
:104DA0001CE7E73900008631DBDEDFFFFFFFFFFF96
:104DB000FFFFFFFFFFFFB6B541080000000055AD43
:104DC0005DEFE3180000B6B5FFFFFFFF92944C6B58
:104DD0005CEFFFFFFFFFFFFFFFFFFFFFFFFFFFFF96
:104DE000FFFFFFFFFFFFFFFFFFFFFFFFFEFFFEFFD5
:104DF000DFFF1CF7B29C853120000000210022005B
:104E0000EA29B8A5FFFFFFFFF6C5EA6A4C6B2C63E1
:104E10002C634D6B0C6B0C6B2C6B4D6B2C632C63F0
:104E20000C632D6398ADFFFFFEFFD4C52B6B2D6384
:104E30008F637FE7FFFFFFFFFFFFFFFFFFFFFFFF26
:104E4000FFFFFFFFFFFFFFFFFEFFFDFFD4C52A6B43
:104E50004D5B937CDFEFFFFFFFFFFEFFFDFFB8E63A
:104E60006C7B6118000001002100ED5A9CCEFFFF11
:104E7000FFFFFFFFDFFFFFFFFFFFFEFFDCFFD5BDF2
:104E8000A639000020002000E93998ADDFFFFFFFC0
:104E9000FFFFFFFFFFFFFFF7F5CD0A730B634D6BBD
:104EA0002D634E630C634D6B4D6B2D5B537CFFF795
:104EB000FFFFFFFFFFFFFFFFFFFFFFFFFFFFDFFF22
:104EC000BCFFED8B2E63537CBFEFFFFFFFFFFFFFA7
:104ED000FFFFFFFFDFFFFFFFFEFFFDFFF9EEE641F3
:104EE000AC42FFEFFFF7FFFFFFFFFFFFFFFFFFFFFA
:104EF000FFFFFFFFDEFFFEFFFEFF1CDF092ACC42A3
:104F0000FFFFFFFFFFFFFFFFFFFFFFFFFFFFFFFFB1
:104F1000FFFFFFFFFFFFFFFFFFFFFFFFFFFFFFFFA1
:104F2000FFFFFFFFFFFFFFFFFFFFFFFFFFFFFFFF91
:104F3000FFFFFFFFFFFFFFFFFFFFFFFFFFFFFFFF81
:104F4000FFFFFFFFFFFFFFFFFFFFFFFFFFFFFFFF71
:104F5000FFFFFFFFFFFFFFFFFFFFFFFFFFFFFFFF61
:104F6000FFFFFFFFFFFFFFFFFFFFFFFFFFFFFFFF51
:104F70006D6BCF7BFFFFFFFFBAD6E3180000BAD6F8
:104F800018C6410800000000D39CFFFFFFFFFFFF91
:104F9000FFFFFFFFFFFF34A5200000000000CF7BD4
:104FA000DBDE4529A6319EF7DFFFFFFF92946D6B94
:104FB0005DEFFFFFFFFFFFFFFFFFFFFFFFFFFFFFB3
:104FC000FFFFFFFFFFFFFFFFFFFFFEFFBCFFDDFF57
:104FD000B2AC6218010001000000000000000000F7
:104FE0000200A921DFEFFFFFF1AC00080000000084
:104FF0002000000000080008000000000000000081
:1050000000000000F26BFFF7FDFFAFAC00080100ED
:1050100003001374FFEFFFF7FFFFFFFFFFFFFFFF2A
:10502000FFFFFFFFFFFFFEFFFCFFBBFFC1280000EB
:105030000200A919BFE7FFFFFFFFDEFFD0AC0008A9
:105040000000010000000008000800002300389D57
:10505000FFF7FFF7FFFFDFFFBCFFF8F60642200077
:105060000100010000000000000800088921DFE7BE
:10507000FFFFFFFFFFFFFEFFAFAC001000000000CE
:10508000210000000000000000004200AE42FFEFDF
:10509000FFFFFFFFFFFFFFFFFFFFFFFFFFFFFEFF21
:1050A000F5D500080200AA21BFE7FFF7FFFFFFFFC9
:1050B000FFFFDFFFDFFFBDFFBCFFCD8B000820003F
:1050C000AD3AFFE7FFF7FFFFFFFFFFFFFFFFFFFF27
:1050D000FFFFDEFFDDFFBBFFAD8B00004400CE32E3
:1050E000FFF7FFFFFFFFFFFFFFFFFFFFFFFFFFFFD8
:1050F000FFFFFFFFFFFFFFFFFFFFFFFFFFFFFFFFC0
:10510000FFFFFFFFFFFFFFFFFFFFFFFFFFFFFFFFAF
:10511000FFFFFFFFFFFFFFFFFFFFFFFFFFFFFFFF9F
:10512000FFFFFFFFFFFFFFFFFFFFFFFFFFFFFFFF8F
:10513000FFFFFFFFFFFFFFFFFFFFFFFFFFFFFFFF7F
:10514000FFFFFFFFFFFFFFFFFFFFFFFFFFFFFFFF6F
:105150008E738E73FFFFFFFFFFFFCB5AA21079CE35
:10516000D39C000000000000718CDFFFFFFFFFFFF9
:10517000FFFFFFFFFFFFB6B58210000020002C6389
:1051800096B5E31886315DEFFFFFFFFF718C4D6B25
:105190005DEFFFFFFFFFFFFFFFFFFFFFFFFFFFFFD1
:1051A000FFFFFFFFFFFFFFFFFFFFDDFFDDFFD1B4CC
:1051B000001000002200737C9ACEFBDE9ADED39CA6
:1051C0002B3A68219FEFFFFFB5C52A732B632C6331
:1051D0002C630B638020000822080E5B4D634C6338
:1051E0000B632D63B8A5FFF7DCFFF0B400000100EE
:1051F000030065009FD7FFF7FFFFFFFFFFFFFFFFE3
:10520000FEFFFEFFFEF7FEFFDBFFD3D50010000020
:105210002400AA19FFE7FFF7DEFFFEFFF0AC4331E1
:10522000359D1DDFFFFF1BF792C56018020045008A
:105230005BB6FFF7FFFFFFFFDDFF6B8B00008521F3
:1052400097A53DDFFEFFD9E6465A00082300146CFF
:10525000FFF7FFFFFFFFDDFFCFBC00182108CD4A9D
:105260004E5B4D5B4D634D632D632E5B747CFFF78E
:10527000FFFFFFFFFFFFFFFFFFFFFEFFFDFF9CFFA4
:10528000C03000080300AA19DFE7FFF7FFFFFFFFA8
:10529000DEFFFEFF1BF78D8360180008000800008A
:1052A000AE3AFFE7FFEFFFFFFFFFDFFFFFFFFFFF6C
:1052B000FFFF1BF7CD836018000800004400103387
:1052C000FFF7FFFFFFFFFFFFFFFFFFFFFFFFFFFFF6
:1052D000FFFFFFFFFFFFFFFFFFFFFFFFFFFFFFFFDE
:1052E000FFFFFFFFFFFFFFFFFFFFFFFFFFFFFFFFCE
:1052F000FFFFFFFFFFFFFFFFFFFFFFFFFFFFFFFFBE
:10530000FFFFFFFFFFFFFFFFFFFFFFFFFFFFFFFFAD
:10531000FFFFFFFFFFFFFFFFFFFFFFFFFFFFFFFF9D
:10532000FFFFFFFFFFFFFFFFFFFFFFFFFFFFFFFF8D
:105330006D6BEF7BFFFFFFFFFFFFEB5A410875AD81
:10534000518C0000000000009294FFFFDFFFFFFF80
:10535000BEF7FFFFFFFF96B541082000000061087F
:10536000C318000086319AD6DFFFFFFF718C6D6B8A
:105370005DEFFFFFFFFFFFFFFFFFFFFFFFFFFFFFEF
:10538000FFFFFFFFFFFFDFF7FFFFFDFF9BFFC128D0
:105390000100A921BFE7FFF7FFFFFFFFFFFFFFFFAE
:1053A000DFFF3DEFFFFFFFFFFEFFFEFFFFFFFFFF01
:1053B000FEFFFDFF266200088919FFDFFFF7FEFFF1
:1053C000FFFFFFFFFFFFDFFFDBFFCFB40000662121
:1053D00081100000588DFFE7FFFFFFFFFFFFFFFF79
:1053E000FFFFDEFFFFFFFEFFBBFF45620008A729AE
:1053F00004008A19BFE7FFF7FFFFFFFF3CEF9DF7AF
:10540000FFF7FFFFFFFFFFFFFBFF35D6000801009E
:10541000536CFFE7FFF7FFFFDEFF8D83549DFFF71F
:10542000FFFFFFFFFFFFBDFFFBFF8A830100860038
:105430007FD7FFEFFFFFFEFFCFBC001064005FD7F8
:10544000FFF7FFFFFFFFDFFFFFFFFFFFFFFFFFFF94
:10545000FFFFFFFFFFFFFFFFFFFFFEFFBBFFCFBC14
:10546000000800002400AA19FFEFFFF7FFFFFEFF6E
:10547000DCFFF4D50000010021004521C5510008E2
:10548000AE42FFE7FFF7DFFFFFFFFFFFFFFFFFFF7A
:10549000F4D5001000000000633907424400AF2A31
:1054A000FFF7FFFFFFFFFFFFFFFFFFFFFFFFFFFF14
:1054B000FFFFFFFFFFFFFFFFFFFFFFFFFFFFFFFFFC
:1054C000FFFFFFFFFFFFFFFFFFFFFFFFFFFFFFFFEC
:1054D000FFFFFFFFFFFFFFFFFFFFFFFFFFFFFFFFDC
:1054E000FFFFFFFFFFFFFFFFFFFFFFFFFFFFFFFFCC
:1054F000FFFFFFFFFFFFFFFFFFFFFFFFFFFFFFFFBC
:10550000FFFFFFFFFFFFFFFFFFFFFFFFFFFFFFFFAB
:105510008E73AE73FFFFFFFFFBDE084200008210B8
:105520006108000000000000718CFFFFFFFFDFFF3B
:10553000FFFFDFFFFFFF59CE8E738A528631C739D6
:10554000863104212C6359CEFFFFFFFF718C6D6BF8
:105550005DEFFFFFFFFFFFFFFFFFFFFFFFFFFFFF0D
:10556000FFFFFFFFFFFFFFFFFFFFBDFF15DE00088E
:105570000200588DFFF7FFFFFFFFFFFFFFFFDFFF78
:10558000FFFFDFFFDFFFFFFFFFFFFFFFFFFFFFFF6B
:10559000FEFFDCFF256A0008CB19DFD7FFF7FFFF0E
:1055A000FFFFDFFFDFFFFEFFDBFFD0B400004200A4
:1055B000C8620000CA19FFDFFFF7FFFFFFFFFFFF10
:1055C000FFFFFFFFDFFFFEFFD4DD00182008EC52D5
:1055D0000400AB19DFE7FFF7FFFFFFFFDFFFFFFF6F
:1055E000FFFFFFFFFFF7FFFFFCFF9AFFA13000085E
:1055F000AD3AFFE7FFEFFFFFFFFFDFFFFFF7FFF72A
:10560000FFFFFFFFDFFFDEFFDAFF14DE0000030015
:10561000788DFFE7FFF7FDFFAEB4001045007FD7A0
:10562000FFF7FFFFDEFFFFFFFFFFDFFFFFFFFFFFD3
:10563000FFFFFFFFFFFFFFFFFFFFFDFFD7FE40283B
:105640002010A73104008A19DFE7FFF7FFFFFEFFF4
:10565000DBFFF4D500006719979DFFFF466200103D
:10566000AD3AFFE7FFF7FFFFDFFFFFFFFFFFFFFFA1
:1056700015D60008662996ADDCFF68524400CF328B
:10568000FFF7FFFFFFFFFFFFFFFFFFFFFFFFFFFF32
:10569000FFFFFFFFFFFFFFFFFFFFFFFFFFFFFFFF1A
:1056A000FFFFFFFFFFFFFFFFFFFFFFFFFFFFFFFF0A
:1056B000FFFFFFFFFFFFFFFFFFFFFFFFFFFFFFFFFA
:1056C000FFFFFFFFFFFFFFFFFFFFFFFFFFFFFFFFEA
:1056D000FFFFFFFFFFFFFFFFFFFFFFFFFFFFFFFFDA
:1056E000FFFFFFFFFFFFFFFFFFFFFFFFFFFFFFFFCA
:1056F0006D6BCF7BFFFFFFFF9AD6EF7B24218631B6
:10570000E7396529694A6D6BD7BDFFFFFFFFFFFFD2
:10571000FFFFFFFFFFFFFFFFFFFF1CE72C6314A548
:10572000F39C8E73FFFFFFFFFFFFFFFF92944D6B13
:105730007DEFFFFFDFFFFFFFFFFFFFFFFFFFFFFF2B
:10574000FFFFFFFFFFFFFFFFFFFFFEFFF4DD00088D
:105750002300798DFFEFFFFFFFFFDFFFFFFFFFFF5C
:10576000FFFFFFFFFFFFFFFFFFFFFFFFFFFFFFFF49
:10577000FEFFDCFF256A0010AA19FFD7FFF7FFFF25
:10578000FFFFFFFFFFFFFEFFDBFFB0B40200440896
:1057900053B5200044009EAEFFF7FFF7FFFFFFFF69
:1057A000FFFFFFFFFEFFFCFF6A8B0010885AAF6B04
:1057B0002400CA19BFDFFFF7FFFFDEFFDFFFFFFF97
:1057C000FFFFFFFFFFFFFFFFFDFFFBFFE661001094
:1057D000AD3AFFE7FFF7FFFFFFFFFFFFFFFFFFFF10
:1057E000FFFFFFFFDFFFDEFFDBFFB7EE81180100E9
:1057F000588DFFEFFFF7FDFFCEB4000865007FD79F
:10580000FFFFFFFFFEFFFEFFFFFFFFFFFFFFDFFFCA
:10581000FFFFFFFFFFFFFFFFFDFFDDFF2752000837
:10582000EC8B8C7303008A21DFE7FFF7FFFFFFFF9C
:10583000FEFF1BEFBBD6FFF7FFFFFDFF0562001069
:10584000AD3AFFE7FFF7FFFFFFFFFFFFFFFFFFFF9F
:105850001CEFBADEFFFFFEFFDBFF46522300AF3234
:10586000FFF7FFFFFFFFFFFFFFFFFFFFFFFFFFFF50
:10587000FFFFFFFFFFFFFFFFFFFFFFFFFFFFFFFF38
:10588000FFFFFFFFFFFFFFFFFFFFFFFFFFFFFFFF28
:10589000FFFFFFFFFFFFFFFFFFFFFFFFFFFFFFFF18
:1058A000FFFFFFFFFFFFFFFFFFFFFFFFFFFFFFFF08
:1058B000FFFFFFFFFFFFFFFFFFFFFFFFFFFFFFFFF8
:1058C000FFFFFFFFFFFFFFFFFFFFFFFFFFFFFFFFE8
:1058D0008E73AE73FFFFFFFFFFFFFFFFB294718C6B
:1058E000B2942C639AD6FFFFFFFFDFFFFFFFFFFF9D
:1058F000FFFFFFFFFFFFFFFFFFFFFBDEEB5AD39C25
:10590000B2944D6BDFFFFFFFFFFFFFFF92944D6BE3
:105910007DEFFFFFFFFFFFFFFFFFFFFFFFFFFFFF29
:10592000FFFFFFFFFFFFFFFFFFFFFEFFD7F6802017
:1059300002008D3AFFF7FFFFFFFFFFFFFFFFFFFFB2
:10594000FFFFFFFFFFFFFFFFFFFFFFFFFFFFFFFF67
:10595000FEFFFCFF256A0010AA19DFD7FFF7FFFF43
:10596000FFFFFFFFFFFFFEFFDBFFB0B402004408B4
:105970003AEFE1180200CE3AFFEFFFF7FFFFFFFF1B
:10598000FFFFFFFFFCFFF7EE6018000833B58E73D2
:105990002300CA19BFE7FFF7FFFFFFFFDFFFDFFFAD
:1059A000FFFFFFFFFFFFFFFFFCFFDCFF8228000877
:1059B0003795FFEFFFF7FFFFFFFFFFFFFFFFFFFF41
:1059C000FFFFDFFFFFFFDEFFBBFF15DE0000430030
:1059D0007CB6FFEFFFFFFDFFEFB4000865007FD747
:1059E000FFFFDFFFFEFFFFFFFFFFFFFFFFFFFFFFE8
:1059F000FFFFFFFFFFFFFEFFDCFFF1AC000085298A
:105A00009AFFAC7B0300AB21DFE7FFF7FFFFFFFF4F
:105A1000FFFFFFFFDFF7FFFFFEFFDCFF456A00101F
:105A2000AD3AFFE7FFF7FFFFFFFFFFFFFFFFFFFFBD
:105A3000FFFFBFFFFFFFFDFFBAFF255A2300CF3254
:105A4000FFF7FFFFFFFFFFFFFFFFFFFFFFFFFFFF6E
:105A5000FFFFFFFFFFFFFFFFFFFFFFFFFFFFFFFF56
:105A6000FFFFFFFFFFFFFFFFFFFFFFFFFFFFFFFF46
:105A7000FFFFFFFFFFFFFFFFFFFFFFFFFFFFFFFF36
:105A8000FFFFFFFFFFFFFFFFFFFFFFFFFFFFFFFF26
:105A9000FFFFFFFFFFFFFFFFFFFFFFFFFFFFFFFF16
:105AA000FFFFFFFFFFFFFFFFFFFFFFFFFFFFFFFF06
:105AB0008E73CF7BFFFFFFFFFFFFFFFF718C3084F2
:105AC00092940C6379CEFFFFFFFFFFFFFFFFFFFF04
:105AD000FFFFFFFFFFFFFFFFFFFFFBDEEB5AD39C43
:105AE00092944D6BDFFFFFFFFFFFFFFF92946D6B02
:105AF0007DEFFFFFFFFFFFFFFFFFFFFFFFFFFFFF48
:105B0000FFFFFFFFFFFFFFFFFFFFFDFF79FF2562A4
:105B1000000801002E5BBFE7FFF7FFFFFFFFFFFF5D
:105B2000FFFFFFFFFFFFFFFFFFFFFFF7FFFFFEFF8E
:105B3000FEFFFCFF256A0010AA19FFD7FFF7FFFF41
:105B4000FFFFFFFFFFFFFEFFDBFFB0B402004508D1
:105B50005BE7129D010043007FD7FFEFFFFFFFFFD0
:105B6000FFFFFEFFFBFFEFB40000A7297BFF8B7B4D
:105B70002200CA19DFE7FFF7FFFFFFFFFFFFFFFF6C
:105B8000FFFFFFFFFFFFFEFFFCFF4B7B0200440017
:105B90007FDFFFF7FFFFFFFFFFFFFFFFFFFFFFFFBD
:105BA000FFFFFFFFFFFFFEFFDBFFB0B40200650059
:105BB0007FD7FFF7FFFFFDFFAFB4000845007FD799
:105BC000DFF7FFFFFFFFFFFFFFFFFFFFFFFFFFFF0D
:105BD000FFFFFFFFFFFFDEFFB8FE40202100769DA4
:105BE000FCFF8B832400AB19DFE7FFF7FFFFFFFF0C
:105BF000FFFFFFFFFFFFFFFFFEFFDCFF456A001016
:105C0000AD3AFFE7FFF7FFFFFFFFFFFFFFFFFFFFDB
:105C1000FFFFFFFFFFFFFDFFBAFF455A2300CF3212
:105C2000FFF7FFFFFFFFFFFFFFFFFFFFFFFFFFFF8C
:105C3000FFFFFFFFFFFFFFFFFFFFFFFFFFFFFFFF74
:105C4000FFFFFFFFFFFFFFFFFFFFFFFFFFFFFFFF64
:105C5000FFFFFFFFFFFFFFFFFFFFFFFFFFFFFFFF54
:105C6000FFFFFFFFFFFFFFFFFFFFFFFFFFFFFFFF44
:105C7000FFFFFFFFFFFFFFFFFFFFFFFFFFFFFFFF34
:105C8000FFFFFFFFFFFFFFFFFFFFFFFFFFFFFFFF24
:105C90006D6BCF7BFFFFFFFFFFFFFFFF518C308459
:105CA00092940C6379CEFFFFFFFFFFFFFFFFFFFF22
:105CB000FFFFFFFFFFFFFFFFFFFF1CE7EB5AD39C37
:105CC00092944D6BDFFFFFFFFFFFFFFF92946D6B20
:105CD0007DEFFFFFFFFFFFFFFFFFFFFFFFFFFFFF66
:105CE000FFFFFFFFFFFFFFFFFFFFDDFFDCFFD8F639
:105CF0004018000801002200369DFFF7FFF7FFF76C
:105D0000FFFFFFFFFFFFFFFFFFFFFFFFFFFFFFFFA3
:105D1000FEFFFCFF256A0010AA19FFD7FFF7FFFF5F
:105D2000FFFFFFFFFFFFFEFFDBFFB0B402004500F7
:105D30009DE7DDF7C2200000336CFFE7FFF7FFFFB0
:105D4000FFFFFEFF99FFA02823005795FCFF6A8301
:105D50000100AA19DFE7FFF7FFF7FFFFFEFFFDFFD6
:105D6000DAE6FBDEFAD674AD0652000869199EB673
:105D7000FFF7FFFFFFFFFFFFFFFFDFFFFFFFFFFF5B
:105D8000FFFFFFFFFEFFFDFFD8F660180300AE3AED
:105D9000FFEFFFF7FFFFDDFFCFB4001064007FDFF0
:105DA000FFFFFFFFFFFFFFFFFFFFFFFFFFF7FFFF0B
:105DB000FFFFFFFFFEFF9CFF27620008AC3AFFEFEA
:105DC000BBFF6A8323008A11DFEFFFFFFFFFFFFFA6
:105DD000FFFFFFFFFFFFFFFFFEFFDCFF256A001054
:105DE000AD3AFFE7FFF7FFFFFFFFFFFFFFFFFFFFFA
:105DF000DFFFFFFFDFFFFDFFDAFF665A2300AF3250
:105E0000FFF7FFFFFFFFFFFFFFFFFFFFFFFFFFFFAA
:105E1000FFFFFFFFFFFFFFFFFFFFFFFFFFFFFFFF92
:105E2000FFFFFFFFFFFFFFFFFFFFFFFFFFFFFFFF82
:105E3000FFFFFFFFFFFFFFFFFFFFFFFFFFFFFFFF72
:105E4000FFFFFFFFFFFFFFFFFFFFFFFFFFFFFFFF62
:105E5000FFFFFFFFFFFFFFFFFFFFFFFFFFFFFFFF52
:105E6000FFFFFFFFFFFFFFFFFFFFFFFFFFFFFFFF42
:105E70006D6BAE73FFFFFFFFFFFFFFFF30843084C9
:105E800092940C6379CEFFFFFFFFFFFFFFFFFFFF40
:105E9000FFFFFFFFFFFFFFFFFFFF1CE7EB5AD39C55
:105EA00092944D6BDFFFFFFFFFFFFFFF92946D6B3E
:105EB0007DEFFFFFFFFFFFFFFFFFFFFFFFFFFFFF84
:105EC000FFFFFFFFFFFFFFFFFFFFFFFFDEFFFEFF04
:105ED00019F7C44900100000210043003585FFEF89
:105EE000FFF7FFFFFFFFFFFFFFFFFFFFFFFFFFFFCA
:105EF000FEFFFCFF256A0010A919FFD7FFF7FFFF7F
:105F0000FFFFFFFFFFFFFEFFDBFFB0B40200450015
:105F10007FDFFFFF8A830008A5007FCFFFFFFFFF21
:105F2000FFFFFEFFEFB4001064007FDFDBFF8A8B12
:105F30000100AA21BFE7FFF7FFF7FEFFFCFFD8EE45
:105F4000601800002000000000003284DFE7FFE757
:105F5000FFF7FFFFFFFFDFFFFFFFFFFFFFFFFFFF79
:105F6000FFFFFEFFFCFF97E66120010045005FD7C1
:105F7000FFF7FFFFFFFFFEFFCFBC00100000462130
:105F8000E839E739A731A831C9310A327BBEFFF7BA
:105F9000FFFFFEFFBCFF12B501008921FFE7FFF7FD
:105FA000FBFF8A830200AA19BFEFFFFFFFFFFFFF7D
:105FB000FFFFFFFFFFFFFFFFFEFFDDFF2562001079
:105FC000AD3AFFE7FFF7FFFFFFFFFFFFFFFFFFFF18
:105FD000FFFFFFFFFFFFFDFFBAFF665A2300AF324E
:105FE000FFF7FFFFFFFFFFFFFFFFFFFFFFFFFFFFC9
:105FF000FFFFFFFFFFFFFFFFFFFFFFFFFFFFFFFFB1
:10600000FFFFFFFFFFFFFFFFFFFFFFFFFFFFFFFFA0
:10601000FFFFFFFFFFFFFFFFFFFFFFFFFFFFFFFF90
:10602000FFFFFFFFFFFFFFFFFFFFFFFFFFFFFFFF80
:10603000FFFFFFFFFFFFFFFFFFFFFFFFFFFFFFFF70
:10604000FFFFFFFFFFFFFFFFFFFFFFFFFFFFFFFF60
:106050006D6BCF7BFFFFFFFFFFFFFFFF30843084BE
:1060600092940C6379CEFFFFFFFFFFFFFFFFFFFF5E
:10607000FFFFFFFFFFFFFFFFFFFF1CE7EB5AD39C73
:1060800092944D6BDFFFFFFFFFFFFFFF92946D6B5C
:106090007DF7FFFFFFFFFFFFFFFFFFFFFFFFFFFF9A
:1060A000DFFFFFFFFFFFFFFFFFFFFFFFFFFFFFFF20
:1060B000FDFFDCFF93C56018000021002100871957
:1060C000BCCEFFFFFFFFFFFFFFFFFFFFFFFFFEFF55
:1060D000FEFFFDFF256A0010A919FFD7FFF7FFFF9C
:1060E000FFFFFFFFFFFFFEFFDBFFB0B40200460033
:1060F0007FD7FFF7D6EE601802007995FFF7FFFF14
:10610000FEFFBCFF475A0000F26BFFF7FBFF6983FD
:106110000200AA21BFE7FFF7FFF7FEFFFDFFD8EE61
:106120002752A6390000000001000100A8217BB61B
:10613000FFF7FFFFDFFFFFFFFFFFFFFFFEFFFEFF99
:10614000FEFFDCFFB3C58020000023007DBEFFEF13
:10615000FFFFFFFFDFFFFEFFAEB4001800000000EE
:106160000000200000000100010022007BBEFFEFC4
:10617000FEFFDDFF15D6000824007DBEFFF7FEFF01
:10618000DBFF6A832200CA199FE7FFFFFFFFFFFFC3
:10619000FFFFFFFFFFFFFFFFFEFFFDFF056200089F
:1061A000AD3AFFE7FFF7FFFFFFFFFFFFFFFFFFFF36
:1061B000FFFFDFFFFFFFFDFFB9FF465A2300CF328D
:1061C000FFF7FFFFFFFFFFFFFFFFFFFFFFFFFFFFE7
:1061D000FFFFFFFFFFFFFFFFFFFFFFFFFFFFFFFFCF
:1061E000FFFFFFFFFFFFFFFFFFFFFFFFFFFFFFFFBF
:1061F000FFFFFFFFFFFFFFFFFFFFFFFFFFFFFFFFAF
:10620000FFFFFFFFFFFFFFFFFFFFFFFFFFFFFFFF9E
:10621000FFFFFFFFFFFFFFFFFFFFFFFFFFFFFFFF8E
:10622000FFFFFFFFFFFFFFFFFFFFFFFFFFFFFFFF7E
:106230008E73CF7BFFFFFFFFFFFFFFFF30843084B3
:1062400092940C6379CEFFFFFFFFFFFFFFFFFFFF7C
:10625000FFFFFFFFFFFFFFFFFFFF1CE7EB5AD39C91
:1062600092944D6BDFFFFFFFFFFFFFFF92946D6B7A
:106270007DEFFFFFFFFFFFFFFFFFFFFFFFFFFFFFC0
:10628000FFFFFFFFFFFFFFFFFFFFDFFFFFFFFFFF3E
:10629000FDFFFDFFFEFFDEFFB1A46018000001005E
:1062A00024007DBEFFEFFFF7FFFFFFFFFFFFFFFFB3
:1062B000FEFFFCFF256A0010A919DFD7FFF7FFFFDB
:1062C000FFFFFFFFFFFFFEFFDBFFB0B40200460051
:1062D0007FD7FFF7FBFF6A830200AA219FE7FFFF3A
:1062E000FCFF35D6010044009FE7FEFFFAFF6A83FA
:1062F00002008A19BFE7FFF7FFF7FFFFFEFFDEFF8F
:10630000FFFFFFFFFFFFFFFFF6C5E54100000000B4
:10631000579DFFF7FFFFFFFFDFFFFFFFFEFFFDFFC2
:10632000DBFFAC8B000001006721BCCEFFF7DFF77D
:10633000FFFFFFFFFFFFFEFFAEB400100100789DDE
:10634000F8B576ADB7BD96B5B7B5D7B5FFEFFEFFDB
:10635000FCFFD8EEA21801001374FFF7FFF7FDFF52
:10636000DBFF6B830200CB19DFE7FFF7FFFFFFFFC7
:10637000FFFFFFFFFFFFFFFFFEFFFDFF2562001095
:10638000AD3AFFE7FFF7FFFFFFFFFFFFFFFFFFFF54
:10639000FFFFFFFFFFFFFEFFBAFF465A2300AF32A9
:1063A000FFF7FFFFFFFFFFFFFFFFFFFFFFFFFFFF05
:1063B000FFFFFFFFFFFFFFFFFFFFFFFFFFFFFFFFED
:1063C000FFFFFFFFFFFFFFFFFFFFFFFFFFFFFFFFDD
:1063D000FFFFFFFFFFFFFFFFFFFFFFFFFFFFFFFFCD
:1063E000FFFFFFFFFFFFFFFFFFFFFFFFFFFFFFFFBD
:1063F000FFFFFFFFFFFFFFFFFFFFFFFFFFFFFFFFAD
:10640000FFFFFFFFFFFFFFFFFFFFFFFFFFFFFFFF9C
:106410008E73AE73FFFFFFFFFFFFFFFF30843084FA
:10642000B2942C6379CEFFFFFFFFFFFFFFFFFFFF5A
:10643000FFFFFFFFFFFFFFFFFFFF1CE7EB5AD39CAF
:1064400092944D6BBEF7FFFFFFFFFFFF92946D6BC1
:106450007DEFFFFFFFFFFFFFFFFFFFFFFFFFFFFFDE
:10646000FFFFFFFFFFFFFFFFFFFFFFFFDFFFFFFF5C
:10647000FFFFFFFFFFFFFFFFBEFFDDFFAC8B00084C
:10648000030045009FDFFFEFFFF7FFFFFFFFFFFF68
:10649000FEFFFCFF256A0010AA19DFD7FFF7FFFFF8
:1064A000FFFFFFFFFFFFFEFFDBFFB0B4020046006F
:1064B0009FD7FFF7DCFFF5DD000023007CBEFFF770
:1064C000DBFF465A03008E3AFFF7FEFFFAFF8A838E
:1064D0000200CA19FFE7FFF7FFFFFFFFFFFFFFFF03
:1064E000FFFFFFFFFFFFFFFFFDFFFCFF455A000816
:1064F00064009FD7FFF7FFFFFFFFFFFFFDFF19EFCE
:10650000E551000801000E53DFEFFFF7FFFFFFFF2B
:10651000FFFFFFFFDFF7FEFFCEB40008A4005FD748
:10652000FFF7FFFFDFFFFFFFFFFFFFFFFFFFFEFFA4
:106530009AFFC0300000AC42FFF7FFF7FFF7FEFF05
:10654000FCFF8C830200AA21DFEFFFF7FFFFFFF7BC
:10655000FFFFFFFFFFFFFFFFFEFFFDFF256A0010AB
:10656000AD3AFFE7FFF7FFFFFFFFFFFFFFFFFFFF72
:10657000FFFFFFFFFFFFFEFFBAFF465A2300CF32A7
:10658000FFF7FFFFFFFFFFFFFFFFFFFFFFFFFFFF23
:10659000FFFFFFFFFFFFFFFFFFFFFFFFFFFFFFFF0B
:1065A000FFFFFFFFFFFFFFFFFFFFFFFFFFFFFFFFFB
:1065B000FFFFFFFFFFFFFFFFFFFFFFFFFFFFFFFFEB
:1065C000FFFFFFFFFFFFFFFFFFFFFFFFFFFFFFFFDB
:1065D000FFFFFFFFFFFFFFFFFFFFFFFFFFFFFFFFCB
:1065E000FFFFFFFFFFFFFFFFFFFFFFFFFFFFFFFFBB
:1065F0008E73AE73FFFFFFFFFFFFFFFF1084308439
:1066000092940C6379CEFFFFFFFFFFFFFFFFFFFFB8
:10661000FFFFFFFFFFFFFFFFFFFF1CE7EB5AD39CCD
:1066200092944D6BDFFFFFFFFFFFFFFF92946D6BB6
:106630007DEFFFFFFFFFFFFFFFFFFFFFFFFFFFFFFC
:10664000FFFFFFFFFFFFFFFFFFFFFFFFFFFFFFFF5A
:10665000FFFFFFFFFFFFFFFFDFFFDEFFFCFFD0AC10
:10666000001002001364FFE7FFF7FFFFFFFFFFFFCB
:10667000FEFFDCFF256A0010CA21DFD7FFF7FFFF0E
:10668000FFFFFFFFFFFFFDFFDBFFD0B4030046006D
:106690009FD7FFEFFEFFFDFF466200088D42FFF728
:1066A000D8EE601864009EB6FFF7FDFFDAFF8A831C
:1066B0000200CA19DFE7FFFFFFFFFFFFFFFFFFFF39
:1066C000FFFFFFFFFFFFDFFFFEFFFDFFF3D5000829
:1066D0004300BEB6FFF7FFFFFFFFDDFFD8F6402007
:1066E0000100230098ADFFF7FFF7FFFFFFFFFFFF5B
:1066F000FFFFFFFFFFFFFEFFCEB4000884007FCF47
:10670000FFF7FFFFFFFFFFFFFFFFFFFFFEFFDDFFC4
:10671000266200102000EC4A4E5B2E634D630B6333
:106720002A738439010022002C632C63947CBFDF20
:10673000FFF7FFFFFFFFFFFFFFFFFDFF256A0010D0
:10674000CE3AFFDFFFF7FFFFFFFFFFFFFFFFFFFF77
:10675000FFFFFFFFFFFFFEFFBAFF465A2300AE32E6
:10676000FFF7FFFFFFFFFFFFFFFFFFFFFFFFFFFF41
:10677000FFFFFFFFFFFFFFFFFFFFFFFFFFFFFFFF29
:10678000FFFFFFFFFFFFFFFFFFFFFFFFFFFFFFFF19
:10679000FFFFFFFFFFFFFFFFFFFFFFFFFFFFFFFF09
:1067A000FFFFFFFFFFFFFFFFFFFFFFFFFFFFFFFFF9
:1067B000FFFFFFFFFFFFFFFFFFFFFFFFFFFFFFFFE9
:1067C000FFFFFFFFFFFFFFFFFFFFFFFFFFFFFFFFD9
:1067D0008E73AE73FFFFFFFFFFFFFFFF3084308437
:1067E00092940C6379CEFFFFFFFFFFFFFFFFFFFFD7
:1067F000FFFFFFFFFFFFFFFFFFFF1CE7EB5AD39CEC
:1068000092944D6BDFFFFFFFFFFFFFFF92946D6BD4
:106810007DEFFFFFFFFFFFFFFFFFFFFFFFFFFFFF1A
:10682000FFFFFFFFFFFFDFFFFFFFFFFFFFFFFFFF98
:10683000FFFFFFFFFFFFFFFFDFFFFFFFFCFFBAFFD0
:10684000A1380008CF3AFFE7FFF7FFFFFFFFFFFF88
:10685000FEFFDCFF256A0010AA19FFD7FFF7FFFF34
:10686000FFFFFFFFFEFFFDFFDBFF90B403004600CC
:106870007FD7FFEFFFF7FDFFAEBC001084005FDFA6
:106880006C7B0008A919BFD7FFF7FDFFDAFF6A8309
:106890000200A919DFE7FFF7FFFFFFFFFFFFFFFF80
:1068A000FFFFFFFFFFFFFFFFFFFFFEFFB7F68020A8
:1068B00043005885FFF7FFFFFDFFBCFFA130000834
:1068C00088299FE7FFF7FFFFFFFFFFFFFFFFFFFFA5
:1068D000FFFFFFFFFFFFFEFFCFBC0010A5007FCF33
:1068E000FFF7FFFFFFFFFFFFFFFFFFFFFEFFFDFFC3
:1068F00027620010000020000000000000002008B7
:10690000000800080100010000000000C919DFE7CD
:10691000FFFFFFFFFFFFFFFFFFFFBCFF456A001007
:10692000AD3AFFDFFFF7FFFFFFFFFFFFDFFFFFFFD6
:10693000DFFFFFFFFFFFDDFFBAFF465A2300CE3225
:10694000FFF7FFFFFFFFFFFFFFFFFFFFFFFFFFFF5F
:10695000FFFFFFFFFFFFFFFFFFFFFFFFFFFFFFFF47
:10696000FFFFFFFFFFFFFFFFFFFFFFFFFFFFFFFF37
:10697000FFFFFFFFFFFFFFFFFFFFFFFFFFFFFFFF27
:10698000FFFFFFFFFFFFFFFFFFFFFFFFFFFFFFFF17
:10699000FFFFFFFFFFFFFFFFFFFFFFFFFFFFFFFF07
:1069A000FFFFFFFFFFFFFFFFFFFFFFFFFFFFFFFFF7
:1069B0008E73AE73FFFFFFFFFFFFFFFF3084308455
:1069C00092940C6379CEFFFFFFFFFFFFFFFFFFFFF5
:1069D000FFFFFFFFFFFFFFFFFFFF1CE7EB5AD39C0A
:1069E00092944D6BDFFFFFFFFFFFFFFF92946D6BF3
:1069F0007DEFFFFFDFFFFFFFFFFFFFFFFFFFFFFF59
:106A0000FFFFFFFFFFFFFFFFFFFFFFF7FFFFFFFF9E
:106A1000FFFFFFFFFFFFFFFFFFFFFFFFFCFFBAFFCE
:106A200080300008CE32FFDFFFFFDFFFFFFFFFFFF8
:106A3000FEFFDCFF256A0010AA19BFD7FFF7DFFFB2
:106A4000FFFFFEFFFFFFFEFFBAFFD0B403006600AA
:106A50009FD7FFEFFFFFDEFF9AFFA0280000F17332
:106A6000E42800007895FFE7FFF7DDFFDAFF8A8B67
:106A70000200CB19DFE7FFF7FFFFFFFFFFFFFFFF7C
:106A8000FFFFFFFFDFFFFFFFFFFFDEFF14E6001049
:106A900043009DB6FFF7FDFFDBFF6B830200A921DA
:106AA000BFEFFFFFDFFFFFFFFFFFDEFFFFFFFFFF87
:106AB000FFFFFFFFFFFFFEFFAEB4001085007FCF9A
:106AC000FFF7FFFFFFFFFFFFFFFFFFFFFFFFFEFFDF
:106AD000F7CD75BDD6BDB5B5D6B5B6B5B6B594B519
:106AE00093CD275A0200A921769DF8ADD8ADFFF7C6
:106AF000FFFFFFFFFFFFFFFFFEFFFDFF256200100E
:106B0000AD3AFFDFFFF7FFFFDFFFDFFFFFFFFFFF14
:106B1000FFFFFFFFDFFFFEFFDBFF665A2200CE3ADA
:106B2000FFF7FFFFFFFFFFFFFFFFFFFFFFFFFFFF7D
:106B3000FFFFFFFFFFFFFFFFFFFFFFFFFFFFFFFF65
:106B4000FFFFFFFFFFFFFFFFFFFFFFFFFFFFFFFF55
:106B5000FFFFFFFFFFFFFFFFFFFFFFFFFFFFFFFF45
:106B6000FFFFFFFFFFFFFFFFFFFFFFFFFFFFFFFF35
:106B7000FFFFFFFFFFFFFFFFFFFFFFFFFFFFFFFF25
:106B8000FFFFFFFFFFFFFFFFFFFFFFFFFFFFFFFF15
:106B90008E73AE73FFFFFFFFFFFFFFFF3084308473
:106BA00092940C6379CEFFFFFFFFFFFFFFFFFFFF13
:106BB000FFFFFFFFFFFFFFFFFFFF1CE7EB5AD39C28
:106BC00092944D6BDFFFFFFFFFFFFFFF92946D6B11
:106BD0007DEFFFFFDFFFFFFFFFFFFFFFFFFFFFFF77
:106BE000FFFFFFFFFFFFFFFFFFFFFFFF1CE779D65F
:106BF000FFFFFFFFFFFFFFFFDFFFFFFFFDFFD9EEFE
:106C0000812001001364FFE7FFFFFFFFDFFFFFFFAD
:106C1000FEFFDDFF456A0010AA19FFD7FFF7FFFF4F
:106C2000FFFFFFFFFFFFFEFFDBFFD0B402004600C7
:106C30007FD7FFEFFFFFFEFFDCFFD0B400000100B5
:106C400001008831BFE7FFEFFFFFFEFFBAFF6A8355
:106C500003008A11DFE7FFF7FFFFFFFFFFFFFFF7EA
:106C6000FFFFFFFFFFFFFFFFFFFFFEFF6B8300083B
:106C700064007FD7FFFFFDFFB6FE40200200598D64
:106C8000FFF7FFFFFFFFFFFFFFFFFFFFFFFFFFFF1C
:106C9000FFFFFFFFFFFFFDFFCFBC001044007FCFD1
:106CA000FFF7FFFFFFFFFFFFFFFFFFFFFFFFFFFFFC
:106CB000DFFFFFFFDEFFFFFFFEFFFFFFFFFFFEFF27
:106CC000BBFF6B830200AA19FFE7FFEFFFFFFFFF87
:106CD000FFFFFFFFFFFFFFFFFEFFFDFF256200102C
:106CE000CD3AFFE7FFF7DEFFFFFFFFFFFFFFFFFFEC
:106CF000FFFFFFFFFFFFFEFF9AFF465A2200AD3263
:106D0000FFF7FFFFFFFFFFFFFFFFFFFFFFFFFFFF9B
:106D1000FFFFFFFFFFFFFFFFFFFFFFFFFFFFFFFF83
:106D2000FFFFFFFFFFFFFFFFFFFFFFFFFFFFFFFF73
:106D3000FFFFFFFFFFFFFFFFFFFFFFFFFFFFFFFF63
:106D4000FFFFFFFFFFFFFFFFFFFFFFFFFFFFFFFF53
:106D5000FFFFFFFFFFFFFFFFFFFFFFFFFFFFFFFF43
:106D6000FFFFFFFFFFFFFFFFFFFFFFFFFFFFFFFF33
:106D70008E73AE73FFFFFFFFFFFFFFFF3084308491
:106D800092940C6379CEFFFFFFFFFFFFFFFFFFFF31
:106D9000FFFFFFFFFFFFFFFFFFFFFBDEEB5AD39C70
:106DA00092944D6BDFFFFFFFFFFFFFFF92946D6B2F
:106DB0007DEFFFFFFFFFFFFFFFFFFFFFFFFFFFFF75
:106DC000FFFFFFFFFFFFFFFFFFFFFEFF15D60010D5
:106DD0000B5B9AC6FFFFFFFFBFFFDFFFD5CD61183A
:106DE000020024007CBEFFEFFFFFFFFFFFFFFEFF5E
:106DF000FEFFDCFF256A0010A919DFD7FFF7DEFFD1
:106E0000FFFFFFFFFFFFFEFFDBFFB0B402006600E5
:106E10007FDFFFF7FFF7DEFFFEFFD9EE6020000007
:106E20000200136CFFF7FFFFFFFFDEFFDBFF6B7B52
:106E30000300CB19DFEFFFFFDCFFF9EEC639BBD64D
:106E4000FFFFFFFFFFFFFEFFFDFFAD7B0000020025
:106E50001374FFF7FFFFBEFFF4E500102100D99D7A
:106E6000FBCEFBDEFADEFADEDBD6DBD6BBD6FCDE03
:106E7000FED6FFF7FFFFFDFFCEB4000886007FCFF0
:106E8000FFF7FFFFFFFFFFFFFFFFFFFFFFFFDFFF3A
:106E9000DFFFDFFFFFFFFFFFFFFFFFFFDFFFDEFF83
:106EA000DAFF8B830300CB19DFE7FFF7FFFFFFFF5C
:106EB000FFFFFFFFDFFFFFFFFEFFBCFF25620008B3
:106EC000AD3AFFDFFFF7FFFFFFFFFFFFDFFFFFFF31
:106ED000FFFFFFFFFFFFFEFFBBFF675A2200CE3A16
:106EE000FFF7FFFFFFFFFFFFFFFFFFFFFFFFFFFFBA
:106EF000FFFFFFFFFFFFFFFFFFFFFFFFFFFFFFFFA2
:106F0000FFFFFFFFFFFFFFFFFFFFFFFFFFFFFFFF91
:106F1000FFFFFFFFFFFFFFFFFFFFFFFFFFFFFFFF81
:106F2000FFFFFFFFFFFFFFFFFFFFFFFFFFFFFFFF71
:106F3000FFFFFFFFFFFFFFFFFFFFFFFFFFFFFFFF61
:106F4000FFFFFFFFFFFFFFFFFFFFFFFFFFFFFFFF51
:106F50008E73AE73FFFFFFFFFFFFFFFF30843084AF
:106F600092940C6379CEFFFFFFFFFFFFFFFFFFFF4F
:106F7000FFFFFFFFFFFFFFFFFFFFFBDEEB5AD39C8E
:106F800092944D6BDFFFFFFFFFFFFFFF92946D6B4D
:106F90007DEFFFFFFFFFFFFFFFFFFFFFFFFFFFFF93
:106FA000FFFFFFFFFFFFFFFFFFFFDEFF14DE00100C
:106FB000000021000100010863180008000800001B
:106FC00044003895FFF7FFFFFFFFDFFFFFFFFEFFE5
:106FD000FEFFDDFF055A0008C921DFDFFFF7FFFFD5
:106FE000FFFFDFFFFFFFFEFFDCFFD0AC020065000C
:106FF0005ED7FFF7FFFFFFFFFFFFDEFF4B830008B9
:1070000084005FCFFFFFFFFFDFFFFEFFFBFF8B83EF
:107010002200AA19BFEFFFFFFDFFD8E6821800008B
:107020000000A639C639A5310000000022000F5328
:10703000FFF7FFF7FFFFDFFF8FB4001020002100F4
:107040002000000000000000200000000000000000
:10705000A921BFE7FFFFFDFFCEAC000885005FCF91
:10706000FFFFFFFFFFFFFFFFFFFFFFFFFFFFFFFF30
:10707000FFFFDEFFFFFFFFFFFFFFFFFFFFFFFEFF42
:10708000DBFF8A830200AA21BFE7FFF7FFFFFFFFB4
:10709000DFFFFFFFFFFFFFFFFEFFFDFF2662001087
:1070A000AD3AFFE7FFF7FFFFFFFFFFFFFFFFFFFF27
:1070B000FFFFFFFFFFFFDEFFBBFF465A2200AD3A96
:1070C000FFF7FFFFFFFFFFFFFFFFFFFFFFFFFFFFD8
:1070D000FFFFFFFFFFFFFFFFFFFFFFFFFFFFFFFFC0
:1070E000FFFFFFFFFFFFFFFFFFFFFFFFFFFFFFFFB0
:1070F000FFFFFFFFFFFFFFFFFFFFFFFFFFFFFFFFA0
:10710000FFFFFFFFFFFFFFFFFFFFFFFFFFFFFFFF8F
:10711000FFFFFFFFFFFFFFFFFFFFFFFFFFFFFFFF7F
:10712000FFFFFFFFFFFFFFFFFFFFFFFFFFFFFFFF6F
:107130008E73AE73FFFFFFFFFFFFFFFF30843084CD
:1071400092940C6379CEFFFFFFFFFFFFFFFFFFFF6D
:10715000FFFFFFFFFFFFFFFFFFFF1CE7EB5AD39C82
:1071600092944D6BDFFFFFFFFFFFFFFF92946D6B6B
:107170007DEFFFFFDFFFFFFFFFFFFFFFFFFFFFFFD1
:10718000DFFFFFFFFFFFFFFFFFFFFEFFDCFF6A8364
:107190006018000021000100000000000000EC5A0F
:1071A000BCCEFFFFFFF7FFF7FFFFFFFFFFFFFFFF73
:1071B000FFFFFEFF47620008A721FFDFFFF7FFF791
:1071C000FFFFFFFFDFFFDEFFFCFFD1AC010044004B
:1071D0007EDFFFF7FFFFFFFFDEFFFFFFD9EE401866
:1071E000AC42FFEFFFFFFFFFFFFFFEFFDCFF6B7B0B
:1071F00001008821DFEFFFFFFDFFFDFF6C7300083A
:1072000000080008000000002000862176A5FFFF8E
:10721000FFFFFFFFFFFFDEFFF1AC001000000000EA
:10722000000000000000000000000000000021003D
:10723000A919DFE7FFF7DEFFF1B4000864005FDFA4
:10724000FFFFFFFFFFFFFFFFFFFFFFFFFFFFFFFF4E
:10725000FFFFFFFFFFFFFFFFFFFFFFFFFFFFFEFF3F
:10726000FCFF6B7B0100A821DFEFFFFFFFFFFFFFAB
:10727000FFFFFFFFFFFFFFFFFEFFDCFF466200088E
:10728000AC42FFEFFFF7FFFFFFFFFFFFFFFFFFFF36
:10729000FFFFFFFFDFFFFEFFBBFF675A2200CD3A73
:1072A000FFF7FFFFFFFFFFFFFFFFFFFFFFFFFFFFF6
:1072B000FFFFFFFFFFFFFFFFFFFFFFFFFFFFFFFFDE
:1072C000FFFFFFFFFFFFFFFFFFFFFFFFFFFFFFFFCE
:1072D000FFFFFFFFFFFFFFFFFFFFFFFFFFFFFFFFBE
:1072E000FFFFFFFFFFFFFFFFFFFFFFFFFFFFFFFFAE
:1072F000FFFFFFFFFFFFFFFFFFFFFFFFFFFFFFFF9E
:10730000FFFFFFFFFFFFFFFFFFFFFFFFFFFFFFFF8D
:107310008E73AE73FFFFFFFFFFFFFFFF30843084EB
:1073200092940C6379CEFFFFFFFFFFFFFFFFFFFF8B
:10733000FFFFFFFFFFFFFFFFFFFF1CE7EB5AD39CA0
:1073400092944D6BDFFFFFFFFFFFFFFF92946D6B89
:107350007DEFFFFFDFFFFFFFFFFFFFFFFFFFFFFFEF
:10736000FFFFFFFFFFFFFFFFFFFFFFFFFDFFDDFF51
:10737000DEFFDEFFDBDED7B5BAC61BD7FFFFFFFFA0
:10738000FFFFFFFFFFFFFFFFFFFFFFFFFFFFFFFF0D
:10739000FFFFFEFFDEFFDEFFFFF7FFF7FFF7FFFF58
:1073A000FFFFFFFFDFFFDEFFDDFFFEFFFFFFFFFF51
:1073B000FFF7FFF7FFFFFFFFFFFFFFFFDEFFFFFF0E
:1073C000FFF7FFF7FFFFDFFFFFFFFEFFFDFFFEFF01
:1073D000FFFFFFFFFFF7FFFFFFFFFEFFFEFFDFFFE7
:1073E0001CF7D7C5B7C5DBDEBEEFFFF7FFFFFFFF1A
:1073F000FFFFFFFFFFFFFFFFFDFFFDFFFFFFFFFFA1
:10740000FFFFFFFFFFFFFFFFDFFFDFFFFFFFFFF7D4
:10741000FFF7FFEFFFFFFFFFDEFFFEFFFFFFFFF7BE
:10742000FFFFFFFFFFFFFFFFFFFFFFFFFFFFFFFF6C
:10743000FFFFFFFFFFFFFFFFFFFFFFFFFFFFFFFF5C
:10744000FDFFFEFFFFFFFFFFFFF7FFFFFFFFDFFF77
:10745000FFFFFFFFFFFFFEFFFEFFFEFFDDFFFEFF62
:10746000FFF7FFEFFFF7FFFFFFFFFFFFFFFFFFFF4C
:10747000FFFFFFFFFFFFDEFFDDFFFEFFFFF7FFEF78
:10748000FFF7FFFFFFFFFFFFFFFFFFFFFFFFFFFF14
:10749000FFFFFFFFFFFFFFFFFFFFFFFFFFFFFFFFFC
:1074A000FFFFFFFFFFFFFFFFFFFFFFFFFFFFFFFFEC
:1074B000FFFFFFFFFFFFFFFFFFFFFFFFFFFFFFFFDC
:1074C000FFFFFFFFFFFFFFFFFFFFFFFFFFFFFFFFCC
:1074D000FFFFFFFFFFFFFFFFFFFFFFFFFFFFFFFFBC
:1074E000FFFFFFFFFFFFFFFFFFFFFFFFFFFFFFFFAC
:1074F0008E73AE73FFFFFFFFFFFFFFFF308430840A
:1075000092940C6379CEFFFFFFFFFFFFFFFFFFFFA9
:10751000FFFFFFFFFFFFFFFFFFFF1CE7EB5AD39CBE
:1075200092944D6BDFFFFFFFFFFFFFFF92946D6BA7
:107530007DEFFFFFFFFFFFFFFFFFFFFFFFFFFFFFED
:10754000FFFFFFFFFFFFFFFFFFFFFFFFFFFFFFFF4B
:10755000FFFFFFFFFFFFFFFFFFFFFFFFFFFFFFFF3B
:10756000FFFFFFFFFFFFFFFFFFFFFFFFFFFFFFFF2B
:10757000FFFFFFFFFFFFFFFFFFFFFFFFFFFFFFFF1B
:10758000FFFFFFFFFFFFFFFFFFFFFFFFFFFFFFFF0B
:10759000FFFFFFFFFFFFFFFFFFFFFFFFFFFFFFFFFB
:1075A000FFFFFFFFFFFFFFFFFFFFFFFFFFFFFFFFEB
:1075B000FFFFFFFFFFFFFFFFFFFFFFFFFFFFFFFFDB
:1075C000FFFFFFFFFFFFFFFFFFFFFFFFFFFFFFFFCB
:1075D000FFFFFFFFFFFFFFFFFFFFFFFFFFFFFFFFBB
:1075E000FFFFFFFFFFFFFFFFFFFFFFFFFFFFFFFFAB
:1075F000FFFFFFFFFFFFFFFFFFFFFFFFFFFFFFFF9B
:10760000FFFFFFFFFFFFFFFFFFFFFFFFFFFFFFFF8A
:10761000FFFFFFFFFFFFFFFFFFFFFFFFFFFFFFFF7A
:10762000FFFFFFFFFFFFFFFFFFFFFFFFFFFFFFFF6A
:10763000FFFFFFFFFFFFFFFFFFFFFFFFFFFFFFFF5A
:10764000FFFFFFFFFFFFFFFFFFFFFFFFFFFFFFFF4A
:10765000FFFFFFFFFFFFFFFFFFFFFFFFFFFFFFFF3A
:10766000FFFFFFFFFFFFFFFFFFFFFFFFFFFFFFFF2A
:10767000FFFFFFFFFFFFFFFFFFFFFFFFFFFFFFFF1A
:10768000FFFFFFFFFFFFFFFFFFFFFFFFFFFFFFFF0A
:10769000FFFFFFFFFFFFFFFFFFFFFFFFFFFFFFFFFA
:1076A000FFFFFFFFFFFFFFFFFFFFFFFFFFFFFFFFEA
:1076B000FFFFFFFFFFFFFFFFFFFFFFFFFFFFFFFFDA
:1076C000FFFFFFFFFFFFFFFFFFFFFFFFFFFFFFFFCA
:1076D0008E73AE73FFFFFFFFFFFFFFFF3084308428
:1076E00092940C6379CEFFFFFFFFFFFFFFFFFFFFC8
:1076F000FFFFFFFFFFFFFFFFFFFF1CE7EB5AD39CDD
:1077000092944D6BDFFFFFFFFFFFFFFF92946D6BC5
:107710007DEFFFFFFFFFFFFFFFFFFFFFFFFFFFFF0B
:10772000FFFFFFFFFFFFFFFFFFFFFFFFFFFFFFFF69
:10773000FFFFFFFFFFFFFFFFFFFFFFFFFFFFFFFF59
:10774000FFFFFFFFFFFFFFFFFFFFFFFFFFFFFFFF49
:10775000FFFFFFFFFFFFFFFFFFFFFFFFFFFFFFFF39
:10776000FFFFFFFFFFFFFFFFFFFFFFFFFFFFFFFF29
:10777000FFFFFFFFFFFFFFFFFFFFFFFFFFFFFFFF19
:10778000FFFFFFFFFFFFFFFFFFFFFFFFFFFFFFFF09
:10779000FFFFFFFFFFFFFFFFFFFFFFFFFFFFFFFFF9
:1077A000FFFFFFFFFFFFFFFFFFFFFFFFFFFFFFFFE9
:1077B000FFFFFFFFFFFFFFFFFFFFFFFFFFFFFFFFD9
:1077C000FFFFFFFFFFFFFFFFFFFFFFFFFFFFFFFFC9
:1077D000FFFFFFFFFFFFFFFFFFFFFFFFFFFFFFFFB9
:1077E000FFFFFFFFFFFFFFFFFFFFFFFFFFFFFFFFA9
:1077F000FFFFFFFFFFFFFFFFFFFFFFFFFFFFFFFF99
:10780000FFFFFFFFFFFFFFFFFFFFFFFFFFFFFFFF88
:10781000FFFFFFFFFFFFFFFFFFFFFFFFFFFFFFFF78
:10782000FFFFFFFFFFFFFFFFFFFFFFFFFFFFFFFF68
:10783000FFFFFFFFFFFFFFFFFFFFFFFFFFFFFFFF58
:10784000FFFFFFFFFFFFFFFFFFFFFFFFFFFFFFFF48
:10785000FFFFFFFFFFFFFFFFFFFFFFFFFFFFFFFF38
:10786000FFFFFFFFFFFFFFFFFFFFFFFFFFFFFFFF28
:10787000FFFFFFFFFFFFFFFFFFFFFFFFFFFFFFFF18
:10788000FFFFFFFFFFFFFFFFFFFFFFFFFFFFFFFF08
:10789000FFFFFFFFFFFFFFFFFFFFFFFFFFFFFFFFF8
:1078A000FFFFFFFFFFFFFFFFFFFFFFFFFFFFFFFFE8
:1078B0008E73AE73FFFFFFFFFFFFFFFF3084308446
:1078C00092940C6379CEFFFFFFFFFFFFFFFFFFFFE6
:1078D000FFFFFFFFFFFFFFFFFFFF1CE7EB5AD39CFB
:1078E00092944D6BDFFFFFFFFFFFFFFF92946D6BE4
:1078F0007DEFFFFFFFFFFFFFFFFFFFFFFFFFFFFF2A
:10790000FFFFFFFFFFFFFFFFFFFFFFFFFFFFFFFF87
:10791000FFFFFFFFFFFFFFFFFFFFFFFFFFFFFFFF77
:10792000FFFFFFFFFFFFFFFFFFFFFFFFFFFFFFFF67
:10793000FFFFFFFFFFFFFFFFFFFFFFFFFFFFFFFF57
:10794000FFFFFFFFFFFFFFFFFFFFFFFFFFFFFFFF47
:10795000FFFFFFFFFFFFFFFFFFFFFFFFFFFFFFFF37
:10796000FFFFFFFFFFFFFFFFFFFFFFFFFFFFFFFF27
:10797000FFFFFFFFFFFFFFFFFFFFFFFFFFFFFFFF17
:10798000FFFFFFFFFFFFFFFFFFFFFFFFFFFFFFFF07
:10799000FFFFFFFFFFFFFFFFFFFFFFFFFFFFFFFFF7
:1079A000FFFFFFFFFFFFFFFFFFFFFFFFFFFFFFFFE7
:1079B000FFFFFFFFFFFFFFFFFFFFFFFFFFFFFFFFD7
:1079C000FFFFFFFFFFFFFFFFFFFFFFFFFFFFFFFFC7
:1079D000FFFFFFFFFFFFFFFFFFFFFFFFFFFFFFFFB7
:1079E000FFFFFFFFFFFFFFFFFFFFFFFFFFFFFFFFA7
:1079F000FFFFFFFFFFFFFFFFFFFFFFFFFFFFFFFF97
:107A0000FFFFFFFFFFFFFFFFFFFFFFFFFFFFFFFF86
:107A1000FFFFFFFFFFFFFFFFFFFFFFFFFFFFFFFF76
:107A2000FFFFFFFFFFFFFFFFFFFFFFFFFFFFFFFF66
:107A3000FFFFFFFFFFFFFFFFFFFFFFFFFFFFFFFF56
:107A4000FFFFFFFFFFFFFFFFFFFFFFFFFFFFFFFF46
:107A5000FFFFFFFFFFFFFFFFFFFFFFFFFFFFFFFF36
:107A6000FFFFFFFFFFFFFFFFFFFFFFFFFFFFFFFF26
:107A7000FFFFFFFFFFFFFFFFFFFFFFFFFFFFFFFF16
:107A8000FFFFFFFFFFFFFFFFFFFFFFFFFFFFFFFF06
:107A90008E73AE73FFFFFFFFFFFFFFFF3084308464
:107AA00092940C6379CEFFFFFFFFFFFFFFFFFFFF04
:107AB000FFFFFFFFFFFFFFFFFFFF1CE7EB5AD39C19
:107AC00092944D6BDFFFFFFFFFFFFFFF92946D6B02
:107AD0007DEFFFFFFFFFFFFFFFFFFFFFFFFFFFFF48
:107AE000FFFFFFFFFFFFFFFFFFFFFFFFFFFFFFFFA6
:107AF000FFFFFFFFFFFFFFFFFFFFFFFFFFFFFFFF96
:107B0000FFFFFFFFFFFFFFFFFFFFFFFFFFFFFFFF85
:107B1000FFFFFFFFFFFFFFFFFFFFFFFFFFFFFFFF75
:107B2000FFFFFFFFFFFFFFFFFFFFFFFFFFFFFFFF65
:107B3000FFFFFFFFFFFFFFFFFFFFFFFFFFFFFFFF55
:107B4000FFFFFFFFFFFFFFFFFFFFFFFFFFFFFFFF45
:107B5000FFFFFFFFFFFFFFFFFFFFFFFFFFFFFFFF35
:107B6000FFFFFFFFFFFFFFFFFFFFFFFFFFFFFFFF25
:107B7000FFFFFFFFFFFFFFFFFFFFFFFFFFFFFFFF15
:107B8000FFFFFFFFFFFFFFFFFFFFFFFFFFFFFFFF05
:107B9000FFFFFFFFFFFFFFFFFFFFFFFFFFFFFFFFF5
:107BA000FFFFFFFFFFFFFFFFFFFFFFFFFFFFFFFFE5
:107BB000FFFFFFFFFFFFFFFFFFFFFFFFFFFFFFFFD5
:107BC000FFFFFFFFFFFFFFFFFFFFFFFFFFFFFFFFC5
:107BD000FFFFFFFFFFFFFFFFFFFFFFFFFFFFFFFFB5
:107BE000FFFFFFFFFFFFFFFFFFFFFFFFFFFFFFFFA5
:107BF000FFFFFFFFFFFFFFFFFFFFFFFFFFFFFFFF95
:107C0000FFFFFFFFFFFFFFFFFFFFFFFFFFFFFFFF84
:107C1000FFFFFFFFFFFFFFFFFFFFFFFFFFFFFFFF74
:107C2000FFFFFFFFFFFFFFFFFFFFFFFFFFFFFFFF64
:107C3000FFFFFFFFFFFFFFFFFFFFFFFFFFFFFFFF54
:107C4000FFFFFFFFFFFFFFFFFFFFFFFFFFFFFFFF44
:107C5000FFFFFFFFFFFFFFFFFFFFFFFFFFFFFFFF34
:107C6000FFFFFFFFFFFFFFFFFFFFFFFFFFFFFFFF24
:107C70008E73AE73FFFFFFFFFFFFFFFF3084308482
:107C800092940C6379CEFFFFFFFFFFFFFFFFFFFF22
:107C9000FFFFFFFFFFFFFFFFFFFF1CE7EB5AD39C37
:107CA00092944D6BDFFFFFFFFFFFFFFF92946D6B20
:107CB0007DEFFFFFFFFFFFFFFFFFFFFFFFFFFFFF66
:107CC000FFFFFFFFFFFFFFFFFFFFFFFFFFFFFFFFC4
:107CD000FFFFFFFFFFFFFFFFFFFFFFFFFFFFFFFFB4
:107CE000FFFFFFFFFFFFFFFFFFFFFFFFFFFFFFFFA4
:107CF000FFFFFFFFFFFFFFFFFFFFFFFFFFFFFFFF94
:107D0000FFFFFFFFFFFFFFFFFFFFFFFFFFFFFFFF83
:107D1000FFFFFFFFFFFFFFFFFFFFFFFFFFFFFFFF73
:107D2000FFFFFFFFFFFFFFFFFFFFFFFFFFFFFFFF63
:107D3000FFFFFFFFFFFFFFFFFFFFFFFFFFFFFFFF53
:107D4000FFFFFFFFFFFFFFFFFFFFFFFFFFFFFFFF43
:107D5000FFFFFFFFFFFFFFFFFFFFFFFFFFFFFFFF33
:107D6000FFFFFFFFFFFFFFFFFFFFFFFFFFFFFFFF23
:107D7000FFFFFFFFFFFFFFFFFFFFFFFFFFFFFFFF13
:107D8000FFFFFFFFFFFFFFFFFFFFFFFFFFFFFFFF03
:107D9000FFFFFFFFFFFFFFFFFFFFFFFFFFFFFFFFF3
:107DA000FFFFFFFFFFFFFFFFFFFFFFFFFFFFFFFFE3
:107DB000FFFFFFFFFFFFFFFFFFFFFFFFFFFFFFFFD3
:107DC000FFFFFFFFFFFFFFFFFFFFFFFFFFFFFFFFC3
:107DD000FFFFFFFFFFFFFFFFFFFFFFFFFFFFFFFFB3
:107DE000FFFFFFFFFFFFFFFFFFFFFFFFFFFFFFFFA3
:107DF000FFFFFFFFFFFFFFFFFFFFFFFFFFFFFFFF93
:107E0000FFFFFFFFFFFFFFFFFFFFFFFFFFFFFFFF82
:107E1000FFFFFFFFFFFFFFFFFFFFFFFFFFFFFFFF72
:107E2000FFFFFFFFFFFFFFFFFFFFFFFFFFFFFFFF62
:107E3000FFFFFFFFFFFFFFFFFFFFFFFFFFFFFFFF52
:107E4000FFFFFFFFFFFFFFFFFFFFFFFFFFFFFFFF42
:107E50008E73AE73FFFFFFFFFFFFFFFF30843084A0
:107E600092940C6379CEFFFFFFFFFFFFFFFFFFFF40
:107E7000FFFFFFFFFFFFFFFFFFFF1CE7EB5AD39C55
:107E800092944D6BDFFFFFFFFFFFFFFF92946D6B3E
:107E90007DEFFFFFFFFFFFFFFFFFFFFFFFFFFFFF84
:107EA000FFFFFFFFFFFFFFFFFFFFFFFFFFFFFFFFE2
:107EB000FFFFFFFFFFFFFFFFFFFFFFFFFFFFFFFFD2
:107EC000FFFFFFFFFFFFFFFFFFFFFFFFFFFFFFFFC2
:107ED000FFFFFFFFFFFFFFFFFFFFFFFFFFFFFFFFB2
:107EE000FFFFFFFFFFFFFFFFFFFFFFFFFFFFFFFFA2
:107EF000FFFFFFFFFFFFFFFFFFFFFFFFFFFFFFFF92
:107F0000FFFFFFFFFFFFFFFFFFFFFFFFFFFFFFFF81
:107F1000FFFFFFFFFFFFFFFFFFFFFFFFFFFFFFFF71
:107F2000FFFFFFFFFFFFFFFFFFFFFFFFFFFFFFFF61
:107F3000FFFFFFFFFFFFFFFFFFFFFFFFFFFFFFFF51
:107F4000FFFFFFFFFFFFFFFFFFFFFFFFFFFFFFFF41
:107F5000FFFFFFFFFFFFFFFFFFFFFFFFFFFFFFFF31
:107F6000FFFFFFFFFFFFFFFFFFFFFFFFFFFFFFFF21
:107F7000FFFFFFFFFFFFFFFFFFFFFFFFFFFFFFFF11
:107F8000FFFFFFFFFFFFFFFFFFFFFFFFFFFFFFFF01
:107F9000FFFFFFFFFFFFFFFFFFFFFFFFFFFFFFFFF1
:107FA000FFFFFFFFFFFFFFFFFFFFFFFFFFFFFFFFE1
:107FB000FFFFFFFFFFFFFFFFFFFFFFFFFFFFFFFFD1
:107FC000FFFFFFFFFFFFFFFFFFFFFFFFFFFFFFFFC1
:107FD000FFFFFFFFFFFFFFFFFFFFFFFFFFFFFFFFB1
:107FE000FFFFFFFFFFFFFFFFFFFFFFFFFFFFFFFFA1
:107FF000FFFFFFFFFFFFFFFFFFFFFFFFFFFFFFFF91
:10800000FFFFFFFFFFFFFFFFFFFFFFFFFFFFFFFF80
:10801000FFFFFFFFFFFFFFFFFFFFFFFFFFFFFFFF70
:10802000FFFFFFFFFFFFFFFFFFFFFFFFFFFFFFFF60
:108030008E73AE73FFFFFFFFFFFFFFFF30843084BE
:1080400092940C6379CEFFFFFFFFFFFFFFFFFFFF5E
:10805000FFFFFFFFFFFFFFFFFFFF1CE7EB5AD39C73
:1080600092944D6BDFFFFFFFFFFFFFFF92946D6B5C
:108070007DEFFFFFFFFFFFFFFFFFFFFFFFFFFFFFA2
:10808000FFFFFFFFFFFFFFFFFFFFFFFFFFFFFFFF00
:10809000FFFFFFFFFFFFFFFFFFFFFFFFFFFFFFFFF0
:1080A000FFFFFFFFFFFFFFFFFFFFFFFFFFFFFFFFE0
:1080B000FFFFFFFFFFFFFFFFFFFFFFFFFFFFFFFFD0
:1080C000FFFFFFFFFFFFFFFFFFFFFFFFFFFFFFFFC0
:1080D000FFFFFFFFFFFFFFFFFFFFFFFFFFFFFFFFB0
:1080E000FFFFFFFFFFFFFFFFFFFFFFFFFFFFFFFFA0
:1080F000FFFFFFFFFFFFFFFFFFFFFFFFFFFFFFFF90
:10810000FFFFFFFFFFFFFFFFFFFFFFFFFFFFFFFF7F
:10811000FFFFFFFFFFFFFFFFFFFFFFFFFFFFFFFF6F
:10812000FFFFFFFFFFFFFFFFFFFFFFFFFFFFFFFF5F
:10813000FFFFFFFFFFFFFFFFFFFFFFFFFFFFFFFF4F
:10814000FFFFFFFFFFFFFFFFFFFFFFFFFFFFFFFF3F
:10815000FFFFFFFFFFFFFFFFFFFFFFFFFFFFFFFF2F
:10816000FFFFFFFFFFFFFFFFFFFFFFFFFFFFFFFF1F
:10817000FFFFFFFFFFFFFFFFFFFFFFFFFFFFFFFF0F
:10818000FFFFFFFFFFFFFFFFFFFFFFFFFFFFFFFFFF
:10819000FFFFFFFFFFFFFFFFFFFFFFFFFFFFFFFFEF
:1081A000FFFFFFFFFFFFFFFFFFFFFFFFFFFFFFFFDF
:1081B000FFFFFFFFFFFFFFFFFFFFFFFFFFFFFFFFCF
:1081C000FFFFFFFFFFFFFFFFFFFFFFFFFFFFFFFFBF
:1081D000FFFFFFFFFFFFFFFFFFFFFFFFFFFFFFFFAF
:1081E000FFFFFFFFFFFFFFFFFFFFFFFFFFFFFFFF9F
:1081F000FFFFFFFFFFFFFFFFFFFFFFFFFFFFFFFF8F
:10820000FFFFFFFFFFFFFFFFFFFFFFFFFFFFFFFF7E
:108210008E73AE73FFFFFFFFFFFFFFFF30843084DC
:1082200092940C6379CEFFFFFFFFFFFFFFFFFFFF7C
:10823000FFFFFFFFFFFFFFFFFFFF1CE7EB5AD39C91
:1082400092944D6BDFFFFFFFFFFFFFFF92946D6B7A
:108250007DEFFFFFFFFFFFFFFFFFFFFFFFFFFFFFC0
:10826000FFFFFFFFFFFFFFFFFFFFFFFFFFFFFFFF1E
:10827000FFFFFFFFFFFFFFFFFFFFFFFFFFFFFFFF0E
:10828000FFFFFFFFFFFFFFFFFFFFFFFFFFFFFFFFFE
:10829000FFFFFFFFFFFFFFFFFFFFFFFFFFFFFFFFEE
:1082A000FFFFFFFFFFFFFFFFFFFFFFFFFFFFFFFFDE
:1082B000FFFFFFFFFFFFFFFFFFFFFFFFFFFFFFFFCE
:1082C000FFFFFFFFFFFFFFFFFFFFFFFFFFFFFFFFBE
:1082D000FFFFFFFFFFFFFFFFFFFFFFFFFFFFFFFFAE
:1082E000FFFFFFFFFFFFFFFFFFFFFFFFFFFFFFFF9E
:1082F000FFFFFFFFFFFFFFFFFFFFFFFFFFFFFFFF8E
:10830000FFFFFFFFFFFFFFFFFFFFFFFFFFFFFFFF7D
:10831000FFFFFFFFFFFFFFFFFFFFFFFFFFFFFFFF6D
:10832000FFFFFFFFFFFFFFFFFFFFFFFFFFFFFFFF5D
:10833000FFFFFFFFFFFFFFFFFFFFFFFFFFFFFFFF4D
:10834000FFFFFFFFFFFFFFFFFFFFFFFFFFFFFFFF3D
:10835000FFFFFFFFFFFFFFFFFFFFFFFFFFFFFFFF2D
:10836000FFFFFFFFFFFFFFFFFFFFFFFFFFFFFFFF1D
:10837000FFFFFFFFFFFFFFFFFFFFFFFFFFFFFFFF0D
:10838000FFFFFFFFFFFFFFFFFFFFFFFFFFFFFFFFFD
:10839000FFFFFFFFFFFFFFFFFFFFFFFFFFFFFFFFED
:1083A000FFFFFFFFFFFFFFFFFFFFFFFFFFFFFFFFDD
:1083B000FFFFFFFFFFFFFFFFFFFFFFFFFFFFFFFFCD
:1083C000FFFFFFFFFFFFFFFFFFFFFFFFFFFFFFFFBD
:1083D000FFFFFFFFFFFFFFFFFFFFFFFFFFFFFFFFAD
:1083E000FFFFFFFFFFFFFFFFFFFFFFFFFFFFFFFF9D
:1083F0008E73AE73FFFFFFFFFFFFFFFF30843084FB
:1084000092940C6379CEFFFFFFFFFFFFFFFFFFFF9A
:10841000FFFFFFFFFFFFFFFFFFFF1CE7EB5AD39CAF
:1084200092944D6BDFFFFFFFFFFFFFFF92946D6B98
:108430007DEFFFFFFFFFFFFFFFFFFFFFFFFFFFFFDE
:10844000FFFFFFFFFFFFFFFFFFFFFFFFFFFFFFFF3C
:10845000FFFFFFFFFFFFFFFFFFFFFFFFFFFFFFFF2C
:10846000FFFFFFFFFFFFFFFFFFFFFFFFFFFFFFFF1C
:10847000FFFFFFFFFFFFFFFFFFFFFFFFFFFFFFFF0C
:10848000FFFFFFFFFFFFFFFFFFFFFFFFFFFFFFFFFC
:10849000FFFFFFFFFFFFFFFFFFFFFFFFFFFFFFFFEC
:1084A000FFFFFFFFFFFFFFFFFFFFFFFFFFFFFFFFDC
:1084B000FFFFFFFFFFFFFFFFFFFFFFFFFFFFFFFFCC
:1084C000FFFFFFFFFFFFFFFFFFFFFFFFFFFFFFFFBC
:1084D000FFFFFFFFFFFFFFFFFFFFFFFFFFFFFFFFAC
:1084E000FFFFFFFFFFFFFFFFFFFFFFFFFFFFFFFF9C
:1084F000FFFFFFFFFFFFFFFFFFFFFFFFFFFFFFFF8C
:10850000FFFFFFFFFFFFFFFFFFFFFFFFFFFFFFFF7B
:10851000FFFFFFFFFFFFFFFFFFFFFFFFFFFFFFFF6B
:10852000FFFFFFFFFFFFFFFFFFFFFFFFFFFFFFFF5B
:10853000FFFFFFFFFFFFFFFFFFFFFFFFFFFFFFFF4B
:10854000FFFFFFFFFFFFFFFFFFFFFFFFFFFFFFFF3B
:10855000FFFFFFFFFFFFFFFFFFFFFFFFFFFFFFFF2B
:10856000FFFFFFFFFFFFFFFFFFFFFFFFFFFFFFFF1B
:10857000FFFFFFFFFFFFFFFFFFFFFFFFFFFFFFFF0B
:10858000FFFFFFFFFFFFFFFFFFFFFFFFFFFFFFFFFB
:10859000FFFFFFFFFFFFFFFFFFFFFFFFFFFFFFFFEB
:1085A000FFFFFFFFFFFFFFFFFFFFFFFFFFFFFFFFDB
:1085B000FFFFFFFFFFFFFFFFFFFFFFFFFFFFFFFFCB
:1085C000FFFFFFFFFFFFFFFFFFFFFFFFFFFFFFFFBB
:1085D0008E73AE73FFFFFFFFFFFFFFFF3084308419
:1085E00092940C6379CEFFFFFFFFFFFFFFFFFFFFB9
:1085F000FFFFFFFFFFFFFFFFFFFF1CE7EB5AD39CCE
:1086000092944D6BDFFFFFFFFFFFFFFF92946D6BB6
:108610007DEFFFFFFFFFFFFFFFFFFFFFFFFFFFFFFC
:10862000FFFFFFFFFFFFFFFFFFFFFFFFFFFFFFFF5A
:10863000FFFFFFFFFFFFFFFFFFFFFFFFFFFFFFFF4A
:10864000FFFFFFFFFFFFFFFFFFFFFFFFFFFFFFFF3A
:10865000FFFFFFFFFFFFFFFFFFFFFFFFFFFFFFFF2A
:10866000FFFFFFFFFFFFFFFFFFFFFFFFFFFFFFFF1A
:10867000FFFFFFFFFFFFFFFFFFFFFFFFFFFFFFFF0A
:10868000FFFFFFFFFFFFFFFFFFFFFFFFFFFFFFFFFA
:10869000FFFFFFFFFFFFFFFFFFFFFFFFFFFFFFFFEA
:1086A000FFFFFFFFFFFFFFFFFFFFFFFFFFFFFFFFDA
:1086B000FFFFFFFFFFFFFFFFFFFFFFFFFFFFFFFFCA
:1086C000FFFFFFFFFFFFFFFFFFFFFFFFFFFFFFFFBA
:1086D000FFFFFFFFFFFFFFFFFFFFFFFFFFFFFFFFAA
:1086E000FFFFFFFFFFFFFFFFFFFFFFFFFFFFFFFF9A
:1086F000FFFFFFFFFFFFFFFFFFFFFFFFFFFFFFFF8A
:10870000FFFFFFFFFFFFFFFFFFFFFFFFFFFFFFFF79
:10871000FFFFFFFFFFFFFFFFFFFFFFFFFFFFFFFF69
:10872000FFFFFFFFFFFFFFFFFFFFFFFFFFFFFFFF59
:10873000FFFFFFFFFFFFFFFFFFFFFFFFFFFFFFFF49
:10874000FFFFFFFFFFFFFFFFFFFFFFFFFFFFFFFF39
:10875000FFFFFFFFFFFFFFFFFFFFFFFFFFFFFFFF29
:10876000FFFFFFFFFFFFFFFFFFFFFFFFFFFFFFFF19
:10877000FFFFFFFFFFFFFFFFFFFFFFFFFFFFFFFF09
:10878000FFFFFFFFFFFFFFFFFFFFFFFFFFFFFFFFF9
:10879000FFFFFFFFFFFFFFFFFFFFFFFFFFFFFFFFE9
:1087A000FFFFFFFFFFFFFFFFFFFFFFFFFFFFFFFFD9
:1087B0008E73AE73FFFFFFFFFFFFFFFF3084308437
:1087C00092940C6379CEFFFFFFFFFFFFFFFFFFFFD7
:1087D000FFFFFFFFFFFFFFFFFFFF1CE7EB5AD39CEC
:1087E00092944D6BDFFFFFFFFFFFFFFF92946D6BD5
:1087F0007DEFFFFFFFFFFFFFFFFFFFFFFFFFFFFF1B
:10880000FFFFFFFFFFFFFFFFFFFFFFFFFFFFFFFF78
:10881000FFFFFFFFFFFFFFFFFFFFFFFFFFFFFFFF68
:10882000FFFFFFFFFFFFFFFFFFFFFFFFFFFFFFFF58
:10883000FFFFFFFFFFFFFFFFFFFFFFFFFFFFFFFF48
:10884000FFFFFFFFFFFFFFFFFFFFFFFFFFFFFFFF38
:10885000FFFFFFFFFFFFFFFFFFFFFFFFFFFFFFFF28
:10886000FFFFFFFFFFFFFFFFFFFFFFFFFFFFFFFF18
:10887000FFFFFFFFFFFFFFFFFFFFFFFFFFFFFFFF08
:10888000FFFFFFFFFFFFFFFFFFFFFFFFFFFFFFFFF8
:10889000FFFFFFFFFFFFFFFFFFFFFFFFFFFFFFFFE8
:1088A000FFFFFFFFFFFFFFFFFFFFFFFFFFFFFFFFD8
:1088B000FFFFFFFFFFFFFFFFFFFFFFFFFFFFFFFFC8
:1088C000FFFFFFFFFFFFFFFFFFFFFFFFFFFFFFFFB8
:1088D000FFFFFFFFFFFFFFFFFFFFFFFFFFFFFFFFA8
:1088E000FFFFFFFFFFFFFFFFFFFFFFFFFFFFFFFF98
:1088F000FFFFFFFFFFFFFFFFFFFFFFFFFFFFFFFF88
:10890000FFFFFFFFFFFFFFFFFFFFFFFFFFFFFFFF77
:10891000FFFFFFFFFFFFFFFFFFFFFFFFFFFFFFFF67
:10892000FFFFFFFFFFFFFFFFFFFFFFFFFFFFFFFF57
:10893000FFFFFFFFFFFFFFFFFFFFFFFFFFFFFFFF47
:10894000FFFFFFFFFFFFFFFFFFFFFFFFFFFFFFFF37
:10895000FFFFFFFFFFFFFFFFFFFFFFFFFFFFFFFF27
:10896000FFFFFFFFFFFFFFFFFFFFFFFFFFFFFFFF17
:10897000FFFFFFFFFFFFFFFFFFFFFFFFFFFFFFFF07
:10898000FFFFFFFFFFFFFFFFFFFFFFFFFFFFFFFFF7
:108990008E73AE73FFFFFFFFFFFFFFFF3084308455
:1089A00092940C6379CEFFFFFFFFFFFFFFFFFFFFF5
:1089B000FFFFFFFFFFFFFFFFFFFF1CE7EB5AD39C0A
:1089C00092944D6BDFFFFFFFFFFFFFFF92946D6BF3
:1089D0007DEFFFFFFFFFFFFFFFFFFFFFFFFFFFFF39
:1089E000FFFFFFFFFFFFFFFFFFFFFFFFFFFFFFFF97
:1089F000FFFFFFFFFFFFFFFFFFFFFFFFFFFFFFFF87
:108A0000FFFFFFFFFFFFFFFFFFFFFFFFFFFFFFFF76
:108A1000FFFFFFFFFFFFFFFFFFFFFFFFFFFFFFFF66
:108A2000FFFFFFFFFFFFFFFFFFFFFFFFFFFFFFFF56
:108A3000FFFFFFFFFFFFFFFFFFFFFFFFFFFFFFFF46
:108A4000FFFFFFFFFFFFFFFFFFFFFFFFFFFFFFFF36
:108A5000FFFFFFFFFFFFFFFFFFFFFFFFFFFFFFFF26
:108A6000FFFFFFFFFFFFFFFFFFFFFFFFFFFFFFFF16
:108A7000FFFFFFFFFFFFFFFFFFFFFFFFFFFFFFFF06
:108A8000FFFFFFFFFFFFFFFFFFFFFFFFFFFFFFFFF6
:108A9000FFFFFFFFFFFFFFFFFFFFFFFFFFFFFFFFE6
:108AA000FFFFFFFFFFFFFFFFFFFFFFFFFFFFFFFFD6
:108AB000FFFFFFFFFFFFFFFFFFFFFFFFFFFFFFFFC6
:108AC000FFFFFFFFFFFFFFFFFFFFFFFFFFFFFFFFB6
:108AD000FFFFFFFFFFFFFFFFFFFFFFFFFFFFFFFFA6
:108AE000FFFFFFFFFFFFFFFFFFFFFFFFFFFFFFFF96
:108AF000FFFFFFFFFFFFFFFFFFFFFFFFFFFFFFFF86
:108B0000FFFFFFFFFFFFFFFFFFFFFFFFFFFFFFFF75
:108B1000FFFFFFFFFFFFFFFFFFFFFFFFFFFFFFFF65
:108B2000FFFFFFFFFFFFFFFFFFFFFFFFFFFFFFFF55
:108B3000FFFFFFFFFFFFFFFFFFFFFFFFFFFFFFFF45
:108B4000FFFFFFFFFFFFFFFFFFFFFFFFFFFFFFFF35
:108B5000FFFFFFFFFFFFFFFFFFFFFFFFFFFFFFFF25
:108B6000FFFFFFFFFFFFFFFFFFFFFFFFFFFFFFFF15
:108B70008E73AE73FFFFFFFFFFFFFFFF3084308473
:108B800092940C6379CEFFFFFFFFFFFFFFFFFFFF13
:108B9000FFFFFFFFFFFFFFFFFFFF1CE7EB5AD39C28
:108BA00092944D6BDFFFFFFFFFFFFFFF92946D6B11
:108BB0007DEFFFFFFFFFFFFFFFFFFFFFFFFFFFFF57
:108BC000FFFFFFFFFFFFFFFFFFFFFFFFFFFFFFFFB5
:108BD000FFFFFFFFFFFFFFFFFFFFFFFFFFFFFFFFA5
:108BE000FFFFFFFFFFFFFFFFFFFFFFFFFFFFFFFF95
:108BF000FFFFFFFFFFFFFFFFFFFFFFFFFFFFFFFF85
:108C0000FFFFFFFFFFFFFFFFFFFFFFFFFFFFFFFF74
:108C1000FFFFFFFFFFFFFFFFFFFFFFFFFFFFFFFF64
:108C2000FFFFFFFFFFFFFFFFFFFFFFFFFFFFFFFF54
:108C3000FFFFFFFFFFFFFFFFFFFFFFFFFFFFFFFF44
:108C4000FFFFFFFFFFFFFFFFFFFFFFFFFFFFFFFF34
:108C5000FFFFFFFFFFFFFFFFFFFFFFFFFFFFFFFF24
:108C6000FFFFFFFFFFFFFFFFFFFFFFFFFFFFFFFF14
:108C7000FFFFFFFFFFFFFFFFFFFFFFFFFFFFFFFF04
:108C8000FFFFFFFFFFFFFFFFFFFFFFFFFFFFFFFFF4
:108C9000FFFFFFFFFFFFFFFFFFFFFFFFFFFFFFFFE4
:108CA000FFFFFFFFFFFFFFFFFFFFFFFFFFFFFFFFD4
:108CB000FFFFFFFFFFFFFFFFFFFFFFFFFFFFFFFFC4
:108CC000FFFFFFFFFFFFFFFFFFFFFFFFFFFFFFFFB4
:108CD000FFFFFFFFFFFFFFFFFFFFFFFFFFFFFFFFA4
:108CE000FFFFFFFFFFFFFFFFFFFFFFFFFFFFFFFF94
:108CF000FFFFFFFFFFFFFFFFFFFFFFFFFFFFFFFF84
:108D0000FFFFFFFFFFFFFFFFFFFFFFFFFFFFFFFF73
:108D1000FFFFFFFFFFFFFFFFFFFFFFFFFFFFFFFF63
:108D2000FFFFFFFFFFFFFFFFFFFFFFFFFFFFFFFF53
:108D3000FFFFFFFFFFFFFFFFFFFFFFFFFFFFFFFF43
:108D4000FFFFFFFFFFFFFFFFFFFFFFFFFFFFFFFF33
:108D50008E73AE73FFFFFFFFFFFFFFFF3084308491
:108D600092940C6379CEFFFFFFFFFFFFFFFFFFFF31
:108D7000FFFFFFFFFFFFFFFFFFFF1CE7EB5AD39C46
:108D800092944D6BDFFFFFFFFFFFFFFF92946D6B2F
:108D90007DEFFFFFFFFFFFFFFFFFFFFFFFFFFFFF75
:108DA000FFFFFFFFFFFFFFFFFFFFFFFFFFFFFFFFD3
:108DB000FFFFFFFFFFFFFFFFFFFFFFFFFFFFFFFFC3
:108DC000FFFFFFFFFFFFFFFFFFFFFFFFFFFFFFFFB3
:108DD000FFFFFFFFFFFFFFFFFFFFFFFFFFFFFFFFA3
:108DE000FFFFFFFFFFFFFFFFFFFFFFFFFFFFFFFF93
:108DF000FFFFFFFFFFFFFFFFFFFFFFFFFFFFFFFF83
:108E0000FFFFFFFFFFFFFFFFFFFFFFFFFFFFFFFF72
:108E1000FFFFFFFFFFFFFFFFFFFFFFFFFFFFFFFF62
:108E2000FFFFFFFFFFFFFFFFFFFFFFFFFFFFFFFF52
:108E3000FFFFFFFFFFFFFFFFFFFFFFFFFFFFFFFF42
:108E4000FFFFFFFFFFFFFFFFFFFFFFFFFFFFFFFF32
:108E5000FFFFFFFFFFFFFFFFFFFFFFFFFFFFFFFF22
:108E6000FFFFFFFFFFFFFFFFFFFFFFFFFFFFFFFF12
:108E7000FFFFFFFFFFFFFFFFFFFFFFFFFFFFFFFF02
:108E8000FFFFFFFFFFFFFFFFFFFFFFFFFFFFFFFFF2
:108E9000FFFFFFFFFFFFFFFFFFFFFFFFFFFFFFFFE2
:108EA000FFFFFFFFFFFFFFFFFFFFFFFFFFFFFFFFD2
:108EB000FFFFFFFFFFFFFFFFFFFFFFFFFFFFFFFFC2
:108EC000FFFFFFFFFFFFFFFFFFFFFFFFFFFFFFFFB2
:108ED000FFFFFFFFFFFFFFFFFFFFFFFFFFFFFFFFA2
:108EE000FFFFFFFFFFFFFFFFFFFFFFFFFFFFFFFF92
:108EF000FFFFFFFFFFFFFFFFFFFFFFFFFFFFFFFF82
:108F0000FFFFFFFFFFFFFFFFFFFFFFFFFFFFFFFF71
:108F1000FFFFFFFFFFFFFFFFFFFFFFFFFFFFFFFF61
:108F2000FFFFFFFFFFFFFFFFFFFFFFFFFFFFFFFF51
:108F30008E73AE73FFFFFFFFFFFFFFFF30843084AF
:108F400092940C6379CEFFFFFFFFFFFFFFFFFFFF4F
:108F5000FFFFFFFFFFFFFFFFFFFF1CE7EB5AD39C64
:108F600092944D6BDFFFFFFFFFFFFFFF92946D6B4D
:108F70007DEFFFFFFFFFFFFFFFFFFFFFFFFFFFFF93
:108F8000FFFFFFFFFFFFFFFFFFFFFFFFFFFFFFFFF1
:108F9000FFFFFFFFFFFFFFFFFFFFFFFFFFFFFFFFE1
:108FA000FFFFFFFFFFFFFFFFFFFFFFFFFFFFFFFFD1
:108FB000FFFFFFFFFFFFFFFFFFFFFFFFFFFFFFFFC1
:108FC000FFFFFFFFFFFFFFFFFFFFFFFFFFFFFFFFB1
:108FD000FFFFFFFFFFFFFFFFFFFFFFFFFFFFFFFFA1
:108FE000FFFFFFFFFFFFFFFFFFFFFFFFFFFFFFFF91
:108FF000FFFFFFFFFFFFFFFFFFFFFFFFFFFFFFFF81
:10900000FFFFFFFFFFFFFFFFFFFFFFFFFFFFFFFF70
:10901000FFFFFFFFFFFFFFFFFFFFFFFFFFFFFFFF60
:10902000FFFFFFFFFFFFFFFFFFFFFFFFFFFFFFFF50
:10903000FFFFFFFFFFFFFFFFFFFFFFFFFFFFFFFF40
:10904000FFFFFFFFFFFFFFFFFFFFFFFFFFFFFFFF30
:10905000FFFFFFFFFFFFFFFFFFFFFFFFFFFFFFFF20
:10906000FFFFFFFFFFFFFFFFFFFFFFFFFFFFFFFF10
:10907000FFFFFFFFFFFFFFFFFFFFFFFFFFFFFFFF00
:10908000FFFFFFFFFFFFFFFFFFFFFFFFFFFFFFFFF0
:10909000FFFFFFFFFFFFFFFFFFFFFFFFFFFFFFFFE0
:1090A000FFFFFFFFFFFFFFFFFFFFFFFFFFFFFFFFD0
:1090B000FFFFFFFFFFFFFFFFFFFFFFFFFFFFFFFFC0
:1090C000FFFFFFFFFFFFFFFFFFFFFFFFFFFFFFFFB0
:1090D000FFFFFFFFFFFFFFFFFFFFFFFFFFFFFFFFA0
:1090E000FFFFFFFFFFFFFFFFFFFFFFFFFFFFFFFF90
:1090F000FFFFFFFFFFFFFFFFFFFFFFFFFFFFFFFF80
:10910000FFFFFFFFFFFFFFFFFFFFFFFFFFFFFFFF6F
:109110008E73AE73FFFFFFFFFFFFFFFF30843084CD
:1091200092940C6379CEFFFFFFFFFFFFFFFFFFFF6D
:10913000FFFFFFFFFFFFFFFFFFFF1CE7EB5AD39C82
:1091400092944D6BDFFFFFFFFFFFFFFF92946D6B6B
:109150007DEFFFFFFFFFFFFFFFFFFFFFFFFFFFFFB1
:10916000FFFFFFFFFFFFFFFFFFFFFFFFFFFFFFFF0F
:10917000FFFFFFFFFFFFFFFFFFFFFFFFFFFFFFFFFF
:10918000FFFFFFFFFFFFFFFFFFFFFFFFFFFFFFFFEF
:10919000FFFFFFFFFFFFFFFFFFFFFFFFFFFFFFFFDF
:1091A000FFFFFFFFFFFFFFFFFFFFFFFFFFFFFFFFCF
:1091B000FFFFFFFFFFFFFFFFFFFFFFFFFFFFFFFFBF
:1091C000FFFFFFFFFFFFFFFFFFFFFFFFFFFFFFFFAF
:1091D000FFFFFFFFFFFFFFFFFFFFFFFFFFFFFFFF9F
:1091E000FFFFFFFFFFFFFFFFFFFFFFFFFFFFFFFF8F
:1091F000FFFFFFFFFFFFFFFFFFFFFFFFFFFFFFFF7F
:10920000FFFFFFFFFFFFFFFFFFFFFFFFFFFFFFFF6E
:10921000FFFFFFFFFFFFFFFFFFFFFFFFFFFFFFFF5E
:10922000FFFFFFFFFFFFFFFFFFFFFFFFFFFFFFFF4E
:10923000FFFFFFFFFFFFFFFFFFFFFFFFFFFFFFFF3E
:10924000FFFFFFFFFFFFFFFFFFFFFFFFFFFFFFFF2E
:10925000FFFFFFFFFFFFFFFFFFFFFFFFFFFFFFFF1E
:10926000FFFFFFFFFFFFFFFFFFFFFFFFFFFFFFFF0E
:10927000FFFFFFFFFFFFFFFFFFFFFFFFFFFFFFFFFE
:10928000FFFFFFFFFFFFFFFFFFFFFFFFFFFFFFFFEE
:10929000FFFFFFFFFFFFFFFFFFFFFFFFFFFFFFFFDE
:1092A000FFFFFFFFFFFFFFFFFFFFFFFFFFFFFFFFCE
:1092B000FFFFFFFFFFFFFFFFFFFFFFFFFFFFFFFFBE
:1092C000FFFFFFFFFFFFFFFFFFFFFFFFFFFFFFFFAE
:1092D000FFFFFFFFFFFFFFFFFFFFFFFFFFFFFFFF9E
:1092E000FFFFFFFFFFFFFFFFFFFFFFFFFFFFFFFF8E
:1092F0008E73AE73FFFFFFFFFFFFFFFF30843084EC
:1093000092940C6379CEFFFFFFFFFFFFFFFFFFFF8B
:10931000FFFFFFFFFFFFFFFFFFFF1CE7EB5AD39CA0
:1093200092944D6BDFFFFFFFFFFFFFFF92946D6B89
:109330007DEFFFFFDFFFFFFFFFFFFFFFFFFFFFFFEF
:10934000FFFFFFFFFFFFFFFFFFFFFFFFFFFFFFFF2D
:10935000FFFFFFFFFFFFFFFFFFFFFFFFFFFFFFFF1D
:10936000FFFFFFFFFFFFFFFFFFFFFFFFFFFFFFFF0D
:10937000FFFFFFFFFFFFFFFFFFFFFFFFFFFFFFFFFD
:10938000FFFFFFFFFFFFFFFFFFFFFFFFFFFFFFFFED
:10939000FFFFFFFFFFFFFFFFFFFFFFFFFFFFFFFFDD
:1093A000FFFFFFFFFFFFFFFFFFFFFFFFFFFFFFFFCD
:1093B000FFFFFFFFFFFFFFFFFFFFFFFFFFFFDFFFDD
:1093C000FFFFFFFFFFFFFFFFFFFFFFFFFFFFFFFFAD
:1093D000FFFFFFFFFFFFFFFFFFFFFFFFFFFFFFFF9D
:1093E000FFFFFFFFFFFFFFFFFFFFFFFFFFFFFFFF8D
:1093F000FFFFFFFFFFFFFFFFFFFFFFFFFFFFFFFF7D
:10940000FFFFFFFFDFFFFFFFFFFFFFFFFFFFFFFF8C
:10941000FFFFFFFFFFFFFFFFFFFFFFFFFFFFFFFF5C
:10942000FFFFFFFFFFFFFFFFFFFFFFFFFFFFFFFF4C
:10943000FFFFFFFFFFFFFFFFFFFFFFFFFFFFFFFF3C
:10944000FFFFFFFFFFFFFFFFFFFFFFFFFFFFFFFF2C
:10945000FFFFFFFFFFFFFFFFFFFFFFFFFFFFFFFF1C
:10946000FFFFFFFFFFFFFFFFFFFFFFFFFFFFFFFF0C
:10947000FFFFFFFFFFFFFFFFFFFFFFFFFFFFFFFFFC
:10948000FEFFFFFFFFFFFFFFFFFFFFFFFFFFFFFFED
:10949000FFFFFFFFFFFFFFFFFFFFFFFFFFFFFFFFDC
:1094A000FFFFFFFFFFFFFFFFFFFFFEFFFFFFFFFFCD
:1094B000FFFFFFFFFFFFFFFFFFFFFFFFFFFFFFFFBC
:1094C000FFFFFFFFFFFFFFFFFFFFFFFFFFFFFFFFAC
:1094D0008E73AE73FFFFFFFFFFFFFFFF308430840A
:1094E00092940C6379CEFFFFFFFFFFFFFFFFFFFFAA
:1094F000FFFFFFFFFFFFFFFFFFFF1CE7EB5AD39CBF
:1095000092944D6BDFFFFFFFFFFFFFFF92946D6BA7
:109510007DEFFFFFDFFFFFFFFFFFFFFFFFFFFFFF0D
:10952000FFFFFFFFFFFFFFFFFFFFFFFFFFFFFFFF4B
:10953000FFFFDFFFFFFFFFFFFFFFFFFFFEFFFFFF5C
:10954000FFFFFFFFDFF7FFFFDFFFDFFFFFFFFFFF93
:10955000FFFFFFFFFFFFFFFFFFFFFFFFFFFFFFFF1B
:10956000FFFFFFFFFFFFFFFFFFFFDFFFFFFFFFFF2B
:10957000FFFFFFFFFFFFFFFFFFFFFFFFFFFFFFFFFB
:10958000FFFFFFFFFFFFFFFFFFFFFFFFFFFFFFFFEB
:10959000FFFFDFFFFFFFFFFFFFFFFFFFFFFFFFFFFB
:1095A000FFFFDFFFFFFFFFFFDEFFFFFFFFFFFFFF0C
:1095B000FFFFFFFFFEFFFFFFFFFFFFFFFFFFFFFFBC
:1095C000FFFFFFFFFFFFFFFFFFFFFFFFFFFFFFFFAB
:1095D000FFFFDFFFFFFFFFFFFFFFFFFFFFFFFFFFBB
:1095E000FEFFFFFFFFFFFFFFFFFFFFFFFFFFFFFF8C
:1095F000FFFFFFFFFFFFFFFFFFFFFFFFFFFFFFFF7B
:10960000FFFFFFFFFFFFFFFFFFFFFFFFFFFFFFFF6A
:10961000FFFFFFFFFFFFFFFFFFFFFFFFFFFFFFFF5A
:10962000FFFFFFFFFFFFFFFFFFFFFFFFFFFFFFFF4A
:10963000FFFFFFFFFFFFFFFFFFFFDFFFFFFFFFFF5A
:10964000FFFFFFFFFFFFFFFFFFFFFFFFFFFFFFFF2A
:10965000FFFFFFFFFFFFFFFFFFFFFFFFFFFFFFFF1A
:10966000FEFFFFFFFFFFFFFFFFFFDFFFFFFFFFFF2B
:10967000FFFFFFFFFFFFFFFFFFFFFFFFFFFFFFFFFA
:10968000FFFFFFFFFFFFFFFFFFFFFEFFFFFFFFFFEB
:10969000FFFFFFFFFFFFFFFFFFFFFFFFFFFFFFFFDA
:1096A000FFFFFFFFFFFFFFFFFFFFFFFFFFFFFFFFCA
:1096B0008E73AE73FFFFFFFFFFFFFFFF3084308428
:1096C00092940C6379CEFFFFFFFFFFFFFFFFFFFFC8
:1096D000FFFFFFFFFFFFFFFFFFFF1CE7EB5AD39CDD
:1096E00092944D6BDFFFFFFFFFFFFFFF92946D6BC6
:1096F0007DEFFFFFFFFFFFFFFFFFFFFFFFFFFFFF0C
:10970000FFFFFFFFFFFFFFFFFFFFFFFFFFFFFFFF69
:10971000FFFFFFFFFFFFFFFFFFFFFFFFFFFFFFFF59
:10972000FFFFFFFFFFFFFFFFFFFFFFFFFFFFFFFF49
:10973000FFFFFFFFFFFFFFFFFFFFFFFFFFFFFFFF39
:10974000FFFFFFFFDFFFFFFFFFFFFFFFFFFFFFFF49
:10975000FFFFFFFFFFFFFFFFFFFFFFFFFFFFFFFF19
:10976000FFFFFFFFFFFFFFFFFFFFFFFFFFFFFFFF09
:10977000DFFFFFFFFFFFFFFFFFFFFFFFFFFFFFFF19
:10978000FFFFFFFFFFFFFFFFFFFFFFFFFFFFFFFFE9
:10979000FFFFFFFFFFFFFFFFFFFFFFFFFFFFFFFFD9
:1097A000FFFFFFFFFFFFFFFFFFFFFFFFFFFFFFFFC9
:1097B000FFFFFFFFFFFFFEFFFFFFFFFFFFFFFFFFBA
:1097C000FFFFFFFFFFFFFFFFFFFFFFFFFFFFFFFFA9
:1097D000FFFFFFFFFFFFFFFFFFFFFFFFFFFFFFFF99
:1097E000FFFFFFFFFFFFFFFFFFFFFFFFFFFFFFFF89
:1097F000FFFFFFFFFFFFFFFFFFFFFFFFFFFFFFFF79
:10980000FFFFFFFFFFFFFFFFFFFFFFFFFFFFFFFF68
:10981000FFFFFFFFFFFFFFFFFFFFFFFFFFFFFFFF58
:10982000FFFFFFFFFFFFFFFFFFFFFFFFFFFFFFFF48
:10983000FFFFFFFFFFFFFFFFFFFFFFFFFFFFFFFF38
:10984000FFFFFEFFFFFFFFFFFFFFFFFFBFFFFFFF69
:10985000FFFFFFFFFFFFFFFFFFFFFFFFFFFFFFFF18
:10986000DFFFFFFFFFFFFFFFFFFFFFFFFFFFFFFF28
:10987000FFFFFFFFFFFFFFFFFFFFFFFFFFFFFFFFF8
:10988000FFFFFFFFFFFFFFFFFFFFFFFFFFFFFFFFE8
:109890008E73AE73FFFFFFFFFFFFFFFF3084308446
:1098A00092940C6379CEFFFFFFFFFFFFFFFFFFFFE6
:1098B000FFFFFFFFFFFFFFFFFFFF1CE7EB5AD39CFB
:1098C00092944D6BDFFFFFFFFFFFFFFF92946D6BE4
:1098D0007DEFFFFFFFFFFFFFFFFFFFFFFFFFFFFF2A
:1098E000FFFFFFFFFFFFFFFFFFFFFFFFFFFFFFFF88
:1098F000FFFFFFFFFFFFFFFFFFFFFFFFFFFFFFFF78
:10990000FFFFFFFFDFFFFFFFFFFFFFFFFFFFFFFF87
:10991000FFFFFFFFFFFFFFFFFFFFFFFFFFFFFFFF57
:10992000FFFFFFFFFFFFFFFFFFFFFFFFFFFFFFFF47
:10993000FFFFFFFFFFFFFFFFFFFFFFFFFFFFFFFF37
:10994000FFFFFFFFFFFFFFFFFFFFFFFFFFFFFFFF27
:10995000FFFFFFFFFFFFDFFFFFFFDFFFFFFFFFFF57
:10996000FFFFFFFFFFFFFFFFFFFFFFFFFFFFFFFF07
:10997000FFFFFFFFFFFFFFF7FFFFFFFFFFFFFFFFFF
:10998000FFFFFFFFFFFFFFFFFFFFFFFFFFFFFFFFE7
:10999000FFFFFFFFFFFFFFFFDFFFDFFFFFFFFFFF17
:1099A000FFFFFFFFFFFFFFFFFFFFFFFFFFFFFFFFC7
:1099B000FFFFFFFFFFFFFFFFFFFFFFFFFFFFFFFFB7
:1099C000FFFFFFFFFFFFFFFFFFFFFFFFFFFFFFFFA7
:1099D000FFFFFFFFFFFFFFFFFFFFFFFFFFFFFFFF97
:1099E000FFFFFFFFFFFFFFFFFFFFFFFFFFFFFFFF87
:1099F000FFFFFFFFFFF7FFFFDFFFDFFFFFFFFFFFBF
:109A0000FFFFFFFFFFFFFFFFFFFFFFFFFFFFFFFF66
:109A1000FFFFFFFFFFFFDFFFFFFFFFFFFFFFFFFF76
:109A2000FFFFFFFFFFFFDEFFFFFFFFFFFFFFFFFF67
:109A3000FFFFFFFFFFFFFFFFFFFFFFFFFFFFFFFF36
:109A4000FFFFDFFFFFFFFFFFFFFFFFFFDEFFFFFF67
:109A5000FFFFFFFFFFFFFFFFFFFFFFFFFFFFFFFF16
:109A6000FFFFFFFFFFFFFFFFFFFFFFFFFFFFFFFF06
:109A70008E73AE73FFFFFFFFFFFFFFFF3084308464
:109A800092940C6379CEFFFFFFFFFFFFFFFFFFFF04
:109A9000FFFFFFFFFFFFFFFFFFFF1CE7EB5AD39C19
:109AA00092944D6BDFFFFFFFFFFFFFFF92946D6B02
:109AB0007DEFFFFFFFFFFFFFFFFFFFFFFFFFFFFF48
:109AC000FFFFFFFFFFFFFFFFFFFFFFFFFFFFFFFFA6
:109AD000FFFFFFFFFFFFDFFFFFFFFFFFFFFFFFFFB6
:109AE000FFFFDFFFFFFFFFFFFFFFFFFFFFFFFFFFA6
:109AF000FFFFFFFFFFFFFFFFFFFFFFFFFFFFFFFF76
:109B0000FFFFFFFFFFFFFFFFFFFFFFFFFFFFFFFF65
:109B1000FFFFFFFFFFFFFFFFFFFFFFFFFFFFFFFF55
:109B2000FFFFFFFFFFFFDFFFFFFFFFFFFFFFFFFF65
:109B3000FFFFBFFFDFFFFFFFFFFFFFFFFFFFFFFF95
:109B4000FFFFFFFFFFFFFFFFFFFFFFFFFFFFFFFF25
:109B5000FFFFFFFFFFFFFFFFFFFFDFFFFFFFDFFF55
:109B6000FFFFFFFFFFFFFFFFFFFFFFFFFFFFFFFF05
:109B7000DFFFFFFFFFFFFFFFFFFFFFFFFFFFFFF71D
:109B8000FFFFFFFFFFFFFFFFFFFFFFFFFFFFFFFFE5
:109B9000FFFFFFFFFFFFFFFFFFFFFFFFFFFFFFFFD5
:109BA000FFFFFFFFFFFFFFFFFFFFFFFFFFFFFFFFC5
:109BB000FFFFFFFFFFFFFFFFFFFFFFFFFFFFFFFFB5
:109BC000FFFFFFFFFFFFFFFFFFFFFFFFFFFFFFFFA5
:109BD000FFFFFFFFFFFFFFF7FFFFFFFFDFFFFFFFBD
:109BE000FFFFFFFFFFFFFFFFFFFFFFFFFFFFFFFF85
:109BF000FFFFFFFFFFFFFFFFFFFFFFFFBFFFFFFFB5
:109C0000FFFFFFF7FFFFFFFFFFFFFFFFFFFFFFFF6C
:109C1000FFFFFFFFFFFFFFFFFFFFFFFFFFFFFFFF54
:109C2000FFFFDFFFFFFFFFFFFFFFFFFFFFFFDFFF84
:109C3000FFFFFFFFFFFFFFFFFFFFFFFFFFFFFFFF34
:109C4000FFFFFFFFFFFFFFFFFFFFFFFFFFFFFFFF24
:109C50008E73AE73FFFFFFFFFFFFFFFF3084308482
:109C600092940C6379CEFFFFFFFFFFFFFFFFFFFF22
:109C7000FFFFFFFFFFFFFFFFFFFF1CE7EB5AD39C37
:109C800092944D6BDFFFFFFFFFFFFFFF92946D6B20
:109C90007DEFFFFFFFFFFFFFFFFFFFFFFFFFFFFF66
:109CA000FFFFFFFFFFFFFFFFFFFFFFFFFFFFFFFFC4
:109CB000FFFFFFFFFFFFFFFFFFFFFFFFFFFFFFFFB4
:109CC000FFFFFFFFFFFFFFFFFFFFFFFFFFFFFFFFA4
:109CD000FFFFFFFFFFFFFFFFFFFFFFFFFFFFFFFF94
:109CE000FFFFFEFFFFFFFFFFFFFFFFFFFFFFFFFF85
:109CF000FFFFFFFFFFFFFFFFFFFFFFFFFFFFFFFF74
:109D0000FFFFFFFFFFFFFFFFFFFFFFFFFFFFFFFF63
:109D1000FFFFFFFFFFFFDFFFDFFFFFFFBFFFFFFFD3
:109D2000FFFFFEFFFEFFFEFFFFF7FFF7DFFFFFFF76
:109D3000FFFFFFFFFFFFFFFFFFFFFFFFFFFFFFFF33
:109D4000FFFFFFFFFFFFFFFFFFFFFFFFFFFFFFFF23
:109D5000FFFFDFFFFFFFFFFFFFFFFFFFFEFFFFFF34
:109D6000FFFFFFF7FFFFDFFFFFFFFFFFFFFFFFFF2B
:109D7000FFFFFFFFFFFFFFFFFFFFFFFFFFFFFFFFF3
:109D8000FFFFFFFFFFFFFFFFFFFFFFFFFFFFFFFFE3
:109D9000FFFFFFFFDEFFFFFFFFFFFFFFFFFFFFFFF4
:109DA000FFFFFFFFFFFFFFFFDFFFFFFFFFFFFFFFE3
:109DB000FEFFFEFFFFFFFFFFFFFFFFFFFFFFFFFFB5
:109DC000FFFFFFFFFFFFFFFFFFFFFFFFFFFFFFFFA3
:109DD000DFFFFFFFFFFFFFFFFFFFDFFFFFFFFFFFD3
:109DE000FFFFFFFFFFFFFFFFFFF7FFFFFFFFFFFF8B
:109DF000FFFFFFFFFFFFFFFFFFFFFFFFFFFFFFFF73
:109E0000FFFFFFFFFFFFFFFFFEFFDEFFFFFFFFFF84
:109E1000FFFFFFFFFFFFFFFFFFFFFFFFFFFFFFFF52
:109E2000FFFFFFFFFFFFFFFFFFFFFFFFFFFFFFFF42
:109E30008E73AE73FFFFFFFFFFFFFFFF30843084A0
:109E400092940C6379CEFFFFFFFFFFFFFFFFFFFF40
:109E5000FFFFFFFFFFFFFFFFFFFF1CE7EB5AD39C55
:109E600092944D6BDFFFFFFFFFFFFFFF92946D6B3E
:109E70007DEFFFFFFFFFFFFFFFFFFFFFFFFFFFFF84
:109E8000FFFFFFFFFFFFFFFFFFFFFFFFFFFFFFFFE2
:109E9000FFFFFFFF1AF77094BFE7FFF7FFFFFFFF19
:109EA000FFFFFFFFDDFFFFFF19BE9CC6FFFFFFFFA7
:109EB000FFFFFFFFFFFFFFFFFFFFFFFFFFFFFFFFB2
:109EC000FFFFFFFFFFFFFFFFFFFFFFFFFFFFFFFFA2
:109ED000FFFFFFFFFFFFFFFFFFFFFFFFFFFFFFFF92
:109EE000FFFFFFFFFFFFFFFFFFFFFFFFFFFFFFFF82
:109EF000FFFFFFFFDFFFFFFFDFFFFFFFFFFFFFFFB2
:109F0000DFFFFFFFDBFFCF9C51743ECFFFFFDFFF82
:109F1000FEFFDEFFBBDEFFFFFFFFFFFFFFFFFFFFD8
:109F2000FFFFFFFFFFFFFFFFFFFFFFFFFFFFFFFF41
:109F3000DFFFFFFFFEFFFFFFFFFFDFFFBCFFCD8B5B
:109F4000C9299584DFF7FFFFFFFFDFFFFFF7FFFF62
:109F5000FFFFFFFFFFFFFFFFFFFFFFFFFFFFFFFF11
:109F6000FFFFFFFFFFFFFFFFFFFFDFFFDFFFFFFF41
:109F7000FFFFFFFFFFFFFFFFFFFFFFFFFFFFFFFFF1
:109F8000FFFFFFFFFFFFFEFFFFFFFFFFFFFFFFFFE2
:109F9000DEFFFFFFFFFFFFF7FFFFFFFFFEFFFFFFFB
:109FA000FFFFFFFFFFFFFFFFFFFFFFFFFFFFFFFFC1
:109FB000FFFFFFFFFFFFFEFFDDFF1BF7B8ADBDCECC
:109FC000FFFFFFFFFEFFFEFFFFFFFFFFFFFFFFFFA3
:109FD000FFFFFFFFFFFFFFFFFFFFFFFFFFFFFFFF91
:109FE000FEFFFEFF2E734E73DDFFFEFFFFFFFFFF40
:109FF000FFFFFFFFFFFFFFFFFFFFFFFFFFFFFFFF71
:10A00000FFFFFFFFFFFFFFFFFFFFFFFFFFFFFFFF60
:10A010008E73AE73FFFFFFFFFFFFFFFF30843084BE
:10A0200092940C6379CEFFFFFFFFFFFFFFFFFFFF5E
:10A03000FFFFFFFFFFFFFFFFFFFF1CE7EB5AD39C73
:10A0400092944D6BDFFFFFFFFFFFFFFF92946D6B5C
:10A050007DEFFFFFFFFFFFFFFFFFFFFFFFFFFFFFA2
:10A06000FFFFFFFFFFFFFFFFFFFFFFFFFFFFFFFF00
:10A07000FFFFFEFFD5D50008CC42FFEFFFFFFFFF3B
:10A08000FEFFFEFFFEFFD2A400008729BFEFFFFF07
:10A09000FFFFFFFFFFFFFFFFFFFFFFFFFFFFFFFFD0
:10A0A000FFFFFFFFDDFFB9DEF6B5D6ADB7B5B7BD33
:10A0B000B7BDB6B5B6B5B6B5B7B5B7B5B6BDB6BD2D
:10A0C000B6B5B6BDB6BDB6B5BBC6FFEFFFFFDFFF89
:10A0D000FFFFFFFFFFFFFFFFF4AC318CDBCEFFF78C
:10A0E000FFFFDEFFB9FF655A4200588DFFFFDFFF1B
:10A0F000DDFFFAEE6218EC629EEFFFFFFFFFFFFF4D
:10A10000FFFFFFFFFFFFFFFFFFFFFFFFFFFFFFFF5F
:10A11000FEFFD9DEFFFFFFFFDFFFDFFFDBFF4B832B
:10A1200023001364FFFFFFFFDFFFFFFFFFFFFFF7C9
:10A13000FFFFFFFFFFFFFFFFFFFFFFFFFFFFFFFF2F
:10A14000FBDEFBD6FBDEDBDEDBDEDBE6DBE6DBDEDF
:10A15000DFEFFFF7DEFF5CF7FADEDBDEDCDEDCDE06
:10A16000DCDEFCDEFCDEFBDEFFFFFFFFFFFFFFFFB0
:10A17000DDFF89627BC6FFF7FFFFFFFFDEFFFEFF0B
:10A18000FFFFFFFFFFFFFFFFFFFFFFFFFFFFFFFFDF
:10A19000FFFFFFFFFFFFFFFFDCFF16D60200136C7F
:10A1A000FFFFFFFFDCFFED83159DFFF7FFFFFFFFC4
:10A1B000FFFFFFFFFFFFFFFFFFFFFFFFFFFFFFFFAF
:10A1C000FDFFBDFFC52802185BEF129DE8399CD644
:10A1D000FFFFFFFFFFFFFFFFFFFFFFFFFFFFFFFF8F
:10A1E000FFFFFFFFFFFFFFFFFFFFFFFFFFFFFFFF7F
:10A1F0008E73AE73FFFFFFFFFFFFFFFF30843084DD
:10A2000092940C6379CEFFFFFFFFFFFFFFFFFFFF7C
:10A21000FFFFFFFFFFFFFFFFFFFF1CE7EB5AD39C91
:10A2200092944D6BDFFFFFFFFFFFFFFF92946D6B7A
:10A230007DEFFFFFFFFFFFFFFFFFFFFFFFFFFFFFC0
:10A24000FFFFFFFFFFFFFFFFFFFFFFFFFFFFFFFF1E
:10A25000FEFFFDFF4B8B0010579DFFEFDFFFFFFF61
:10A26000FFFFFEFFFEFFDDFF46620008127CFFF7E6
:10A27000FFFFFFFFFFFFFFFFFEFFFFFFFFFFFFFFEF
:10A28000FFFFFEFFFBFF697B2000200000000000B5
:10A2900000000000000000000000000000000000BE
:10A2A00000000000000800008C3AFFEFFFFFFFFFF6
:10A2B000FFFFDFFFFEFFBDFF285A00005695FFEFAE
:10A2C000FFFFDDFF99FFC03044007EB6FFF7FEFFC1
:10A2D000DEFF3BF7C5490008410897A5FFF7FFF7E8
:10A2E000FFFFFFFFDFFFFFFFFFFFDEFFFFFFFEFFC0
:10A2F00014D6000864007FDFFFFFDEFFDBFF8A83E8
:10A3000022003364FFFFFFFFDFFFFFFFFFFFFFFFC0
:10A31000FFFFFFFFFFFFFFFFFFFFFEFFDCFFF5D5A5
:10A320000000210000000000000000000008000004
:10A330003264FFEFDCFF2562000000000000000037
:10A3400000000000010022007BC6FFF7FFFFFEFFB8
:10A35000AFB4001043003795FFF7DDF7A1280010D8
:10A360000000000020000000000801002300126C23
:10A37000FFFF1BEFD9ADBBCEDDFFF5D50200136C9F
:10A38000FFFFDEFFD3CD00080000579DFFF7FFF76A
:10A39000FFFFFFFFFFFFFFFFFFFFDFFFFFFFFEFFEE
:10A3A000FDFFDDFF852803185CEF129520002100DA
:10A3B0005BC6FFF7FFF7FFF7FFFFFFFFFFFFFFFFA2
:10A3C000FFFFFFFFFFFFFFFFFFFFFFFFFFFFFFFF9D
:10A3D0008E73AE73FFFFFFFFFFFFFFFF30843084FB
:10A3E00092940C6379CEFFFFFFFFFFFFFFFFFFFF9B
:10A3F000FFFFFFFFFFFFFFFFFFFF1CE7EB5AD39CB0
:10A4000092944D6BDFFFFFFFFFFFFFFF92946D6B98
:10A410007DEFFFFFFFFFFFFFFFFFFFFFFFFFFFFFDE
:10A42000FFFFDFFFFFFFFFFFDFFFFFFFFFFFFFFF7C
:10A43000FDFFBCFFC2300110BBCEDCCE1DE79BDEB2
:10A44000DAD6FADEFBDED9E692CD60203284FECE8B
:10A45000FCDEDADEDADEFADEFADEDAD6FFF7FFF766
:10A46000FFFFDDFFFAFF89832000D063D7B5B7BDBA
:10A47000B6B5B6B5B6BDB6B5B6B5B6B5B6B5B6B57C
:10A48000D7BDB6BD6F9C0000CD3AFFE7FFFFFFFFD1
:10A49000FFFFFEFFDCFF15D6000843087FDFFFEF5C
:10A4A000FFFFFEFFD6FE602045007FCFFFFFFEFFCF
:10A4B000FEFFDDFFFDFFAC83000001000E53DFE770
:10A4C000FFF7FFFFFFFFFFFFFFFFFFFFFEFFDCFFC8
:10A4D00046620008336CFFE7FFFFDEFFDAFF8A8386
:10A4E00042003364FFF7FFFFFFFFFFFFFFFFFFFFA7
:10A4F000FFFFFFFFFFFFFFFFFFFFFDFFBAFFF4DDE0
:10A500002100F06BB7B5D7BDB6B5B6BDAF9C0000A6
:10A510003364FFEFDAFF656A200077A5B7B5B7BDF2
:10A52000D7BDB6B56E7B02007BBEFFEFFFFFDEFF3F
:10A53000DCFFD0AC000001007495FEF7A3280010EA
:10A54000C739E739A631C639C64961104400336CB2
:10A55000FEFFF6CD23001274DCFF15D642003364F3
:10A56000FFFFDEFFFCFFF0AC00000100779DFFEF76
:10A57000FFFFFFFFFFFFFFFFDEFFFFFFDFFFFFFF2C
:10A58000FDFFBCFF853024185DE7FEF7F2A4000054
:10A5900043005BBEFFF7FFF7FFF7FFFFFFFFFFFF83
:10A5A000FFFFFFFFFFFFFFFFFFFFFFFFFFFFFFFFBB
:10A5B0008E73AE73FFFFFFFFFFFFFFFF3084308419
:10A5C00092940C6379CEFFFFFFFFFFFFFFFFFFFFB9
:10A5D000FFFFFFFFFFFFFFFFFFFF1CE7EB5AD39CCE
:10A5E00092944D6BDFFFFFFFFFFFFFFF92946D6BB7
:10A5F0007DEFFFFFFFFFFFFFFFFFFFFFFFFFFFFFFD
:10A60000FFFFFFFFFFFFDFFFFFFFFFFFFFFFDDFF9C
:10A61000DAFFEFAC0100CC4238C6000800000100B0
:10A6200000000000000020000008000800002100D9
:10A63000010001000000000000000000F26BFFF7C5
:10A64000FFFFFEFFDAFF698321007895FFFFDFFF40
:10A65000FFFFFFFFFFFFFFFFFFFFFFFFFFFFFFFF0A
:10A66000FFFFFFFF15D60000AE32FFE7FFFFDEFF62
:10A67000FEFFFDFFDAFF6B830200F373FFFFFFFFB6
:10A68000FFFFFEFF8EB40010AE3AFFE7FFFFFFFFB3
:10A69000FFFFFFFFFEFFDEFFF2AC0000AC42FFEF6A
:10A6A000FFF7FFFFFFF7FFFFFFFFFEFFDBFFD8F61F
:10A6B000401062085AAEFFEFFFFFDDFFDAFF6A8B42
:10A6C0002200336CFFF7FFFFFFFFFFFFFFFFDEFFFE
:10A6D000FFFFFFFFFFFFFFFFFFF7FDFFDBFFF5DDE4
:10A6E00002007995FFF7FEF7FFFFFDFFF3CD0000B5
:10A6F000336CFFEFBBFF256264005FD7FFFFFFFFF6
:10A70000DEFFDEFFD1AC20105ABEFFEFFFF7FFFFE8
:10A71000FEFFFDFFD0AC00086100368DA620693930
:10A72000BFEFFFF7FFFFDFFFDCFFF5CD2200326454
:10A73000FDFF16D62200126CDDFF15D62200336411
:10A74000FFFFFFFFFEFFFDFFCFAC000843007CB61C
:10A75000FFFFFEFFDEFFFFFFFFFFDFFFFFFFFFFF4B
:10A76000FDFF9CFF852803107EEFFFF7FEFFF3AC93
:10A770005384FFF7FFF7FFF7FFFFFFFFFFFFFFFF28
:10A78000FFFFFFFFFFFFFFFFFFFFFFFFFFFFFFFFD9
:10A790008E73AE73FFFFFFFFFFFFFFFF3084308437
:10A7A00092940C6379CEFFFFFFFFFFFFFFFFFFFFD7
:10A7B000FFFFFFFFFFFFFFFFFFFF1CE7EB5AD39CEC
:10A7C00092944D6BDFFFFFFFFFFFFFFF92946D6BD5
:10A7D0007DEFFFFFFFFFFFFFFFFFFFFFFFFFFFFF1B
:10A7E000FFFFFFFFFFFFFFFFFFFFDFFFFFFFFDFF9B
:10A7F000B9FF455A4300588DD9DE0A730D6B2E6B95
:10A800002D632C632C630C630C6B2C6B2C6B2C63F7
:10A810004E632D634D632D632C632D63B8ADFFF73D
:10A82000FFFFFEFFB9FF69832100588DFFFFFFFF87
:10A83000FFFFFFFFFFFFFFFFFFFFFFFFFFFFFFFF28
:10A84000FFFFDEFFF5D50000CE32FFDFFFF7FFFF91
:10A85000FEFFDCFFDAFFC03022007DBEFFFFFFFFFE
:10A86000FFFFFFFF8B830008126CFFE7FFFFFEFF77
:10A87000FFFFFFFFFFFFFEFFDDFF5CF7BFEFFFEF16
:10A88000FFFFFFFFFFF7FFF7FFFFDEFFDBFF6A833E
:10A8900000006721769D18AEB7B5B5C572CD265AB2
:10A8A00021002F4BD8ADB7B5B6B5B6B5D6BDB6BD40
:10A8B00096BDB7BD98ADDFEFFFFFDDFFBBFF15DE37
:10A8C0002200588DFFF7FFFFFEFFFDFF14D60008A2
:10A8D000136CFFF7BBFF256244005FD7FFFFFFFF4C
:10A8E000FFFFFEFFB1AC0010BBC6FFEFFFF7FFFF9D
:10A8F000FFFFFEFFDCFFD0AC2F74DFE7C72049313C
:10A90000BFF7FFF7DDDEDCE6BBFF15D64200526C79
:10A91000FCFFD4CD4300126CDDFF16D662005364F9
:10A92000FFF7FFFFFFFFFEFFFBFF6A7B02001374D0
:10A93000FBE68C7B2C6B0C632C6B2D636E634C6382
:10A940004B632B6B43200208EC5A4C5B0B6B0B6B7D
:10A950002E634F5B3ABEFFF7FFFFFFFFFFFFFFFFD6
:10A96000FFFFFFFFFFFFFFFFFFFFFFFFFFFFFFFFF7
:10A970008E73AE73FFFFFFFFFFFFFFFF3084308455
:10A9800092940C6379CEFFFFFFFFFFFFFFFFFFFFF5
:10A99000FFFFFFFFFFFFFFFFFFFF1CE7EB5AD39C0A
:10A9A00092944D6BDFFFFFFFFFFFFFFF92946D6BF3
:10A9B0007DEFFFFFFFFFFFFFFFFFFFFFFFFFFFFF39
:10A9C000FFFFDFFFFFFFFFFFFFFFFFFFFEFFDCFFDB
:10A9D00013DE0008A921FFDFFFFFFFFFFFFFFFFFDE
:10A9E000DFFFFFFFFFFFFFFFFFFFFFFFFFFFFFFF97
:10A9F000FFFFFFFFFFFFFFFFFFFFFFFFFFFFFFFF67
:10AA0000FFFFFEFFDAFF698B40005695FFFFDFFF77
:10AA1000FFFFFFFFFFFFFFFFFFFFFFFFFFFFFFFF46
:10AA2000FFFFFEFFF5D50000CE32FFDFFFF7FFFF8F
:10AA3000FFFFFEFFF4D500100000C831E731A6315A
:10AA4000C7398739000800004200C929E739E639CB
:10AA5000E731C731C639A631C639C639A731083AF8
:10AA6000C739C7399795FFEFFFFFDEFFB6F66020C5
:10AA700000000100200000000000000000100000A5
:10AA80002100220021000000000000000000000062
:10AA90000000010004003CBEFFFFDEFFBCFFD5DD6F
:10AAA00001003695FBD61BDFDADEDAE6B4C500001E
:10AAB000136CFFEFFBFF656243089DCEDCD6DBDE47
:10AAC000BADEFBE6719C01007BBEFFEFFFFFFFFFDC
:10AAD000FFFFDFFFDFFFFEFFFEFFBDF7A5282839E0
:10AAE0007CF7FADEA5106729BCFF15C64300126487
:10AAF000FCFF15D622005374DDFFF6D52200336427
:10AB0000FFF7DFFFFFFFFFFFFDFFDDF7D8B5FFFF1A
:10AB1000DAE66018000001000000000000000000FC
:10AB200000000000000800080000200000000000F5
:10AB30000000210056A5FFFFFFFFFFFFFFFFFFFF03
:10AB4000FFFFFFFFFFFFFFFFFFFFFFFFFFFFFFFF15
:10AB50008E73AE73FFFFFFFFFFFFFFFF3084308473
:10AB600092940C6379CEFFFFFFFFFFFFFFFFFFFF13
:10AB7000FFFFFFFFFFFFFFFFFFFF1CE7EB5AD39C28
:10AB800092944D6BDFFFFFFFFFFFFFFF92946D6B11
:10AB90007DEFFFFFFFFFFFFFFFFFFFFFFFFFFFFF57
:10ABA000FFFFFFFFFFFFFFFFDFFFFEFFFEFFFDFFD9
:10ABB0006A830008146CFFE7FFFFFEFFFFFFDFFF63
:10ABC000DFFFDFFFDFFFFFFFDEFFFFFFFFFFFFFF16
:10ABD000FFFFFFFFFFFFFFFFFFFFFFFFFFFFFFFF85
:10ABE000FFFFFEFFDAFF8A8B20004100000000001B
:10ABF0000000000000000000000000000000000055
:10AC00000000000800080000CE32FFDFFFF7FFFF62
:10AC1000FFFFFFFFF6D50010000800000000000055
:10AC200000080008010001002100210000000000D0
:10AC30000000000000000000000000000000000014
:10AC4000000000005795FFEFFEFF9CFF47620008E1
:10AC500086296E5B4D634D6B2D630C6B0A6BA431C3
:10AC6000210087194D5B4D6B2C6B2C6B2C6B4D6B46
:10AC70002C632D63505BDED6FFFFDEFFBCFFD5D516
:10AC80002100210000000000000000000000000082
:10AC90003274FFF7DBFF25520100020000000000C4
:10ACA00000000000000042087BB6FFEFFFFFFEFF40
:10ACB000FBDEFFFFFFFFDFF7FDFFFDFFA52848419B
:10ACC000BCFFF9DE44008931BCFF56C62300336C5B
:10ACD000FCFF15D62200126CBDFF16D6220033648D
:10ACE000FFFFFFFFFFFFFFFFFFFFFFF7FFF7FFFF84
:10ACF000FEFFDAE6DBDEDBDEFCE6FBDEDADEFADEDA
:10AD0000FADEBADE295A4218BACE1BD7DBDEBBDE2A
:10AD1000FCDEDBD6DFF7FFFFFFFFFFFFFEFFFFFFDD
:10AD2000FFFFFFFFFFFFFFFFFFFFFFFFFFFFFFFF33
:10AD30008E73AE73FFFFFFFFFFFFFFFF3084308491
:10AD400092940C6379CEFFFFFFFFFFFFFFFFFFFF31
:10AD5000FFFFFFFFFFFFFFFFFFFF1CE7EB5AD39C46
:10AD600092944D6BDFFFFFFFFFFFFFFF92946D6B2F
:10AD70007DEFFFFFFFFFFFFFFFFFFFFFFFFFFFFF75
:10AD8000FFFFFFFFFFFFFFFFFEFFDDFFFDFFD8E638
:10AD900080200000346CFFE7FEFFDCFFC1280008C4
:10ADA0000000000000000000000000000000400063
:10ADB000000000000000000064007FDFDFFFFFFFF5
:10ADC000FFFFFEFFDBFF6983200022000000000080
:10ADD0000000000000000000000000000000000073
:10ADE0000000000800082000AE32FFE7FFF7FFFF79
:10ADF000FFFFFFFFBEFFDEFFFFFFFFFFFEFFFDFFC8
:10AE0000FBFFD0A42200AD3AFFF7FFFFFFFFFFFFDB
:10AE1000FFFFDFFFDFFFFFFFFFF7FFFFFFFFFFFF8A
:10AE2000FFFFFFFFFFF7FFFFDCFFF0B40000230090
:10AE30007BBEFFF7FFFFFFFFFFFFFEFFFBFFAB7BCC
:10AE40004100336CFFF7FFFFFFFFFFFFFFFFFFFF36
:10AE5000FFFFFFFFFFFFFFF7FFFFFEFFDCFFF6D561
:10AE600002001274D7B5D6BD96B596BD909C000071
:10AE7000CF73FFFFFEFF4852420057A5939C3194C9
:10AE8000B8B5D8B54D7300007BBEFFF7FDFFB4C564
:10AE900000000E5BDFEFFFF7FDFFDCFF8520483988
:10AEA000BCFF19DF840847299BFF16CE23003374AB
:10AEB000FCFF15CE23005374FDFFD4CD4300326454
:10AEC000FEFFDCFFDADEDBD6FCD6FDD6FFF7FFFFA8
:10AED000FFFFFFFFFFFFFFFFDFFFFFFFFFFFFEFFA3
:10AEE000FDFFDDFF2A6202185EDFFFEFFFF7FFFFC5
:10AEF000FFFFFFFFFFFFFFFFFFFFFFFFFFFFFFFF62
:10AF0000FFFFFFFFFFFFFFFFFFFFFFFFFFFFFFFF51
:10AF10008E73AE73FFFFFFFFFFFFFFFF30843084AF
:10AF200092940C6379CEFFFFFFFFFFFFFFFFFFFF4F
:10AF3000FFFFFFFFFFFFFFFFFFFF1CE7EB5AD39C64
:10AF400092944D6BDFFFFFFFFFFFFFFF92946D6B4D
:10AF50007EEFFFFFFFFFFFFFFFFFFFFFFFFFFFFF92
:10AF6000FFFFFFFFFFFFFFFFFEFFFDFFBCFF475A94
:10AF700000080100146CFFEFFEFFBCFF0752A64162
:10AF8000C639C731C739C739A639E739A629E731E4
:10AF9000C739C739C639C7310B327FDFFFFFFFFF23
:10AFA000FFFFDEFFDCFF8B830000569DFFFFFFFFEE
:10AFB000FFFFFFFFFFFFFFFFFFFFFFFFFFFFFFFFA1
:10AFC000FFFFDEFF36CE00008C3AFFEFFFF7FFFFFA
:10AFD000FFFFFFFFFFFFDFFFFFFFFFFFFFFFFDFFA3
:10AFE000DAFF8A832200346CFFFFFFFFFFFFFFFFC1
:10AFF000FFFFFFFFFFFFFFFFFFFFFFF7FFFFFFFF69
:10B00000FFFFFFFFFFFFDEFFF8FE40200200336C72
:10B01000FFF7FFF7FFFFFFFFFFFFFEFFDAFF8A8367
:10B0200022003364FFF7FFFFFFFFFFFFFFFFFFFF7B
:10B03000FFFFFFFFFFFFFFFFFFFFFEFFDDFF1BF72F
:10B04000D8B5FDCEFFFFFFFFFFFFFFFFFEFFF9E6D4
:10B05000BADE61088631DCDEFDD63EE7A3280010AB
:10B060007384FFF71CE7B7BDBFEFFFF7FDFFF9E6FD
:10B07000811801008821DFEFFDFFDCF7C620683969
:10B08000BCFFF9DE840888319BFF15CE4300126CAB
:10B09000FCFF35CE23001264FDFF15D62200536C51
:10B0A000FDFF6A7B00000000010022007ABEFFF76E
:10B0B000FFFFFFFFFFFFFFFFFFFFFFFFFFFFFFFFA0
:10B0C000FEFFDEFFE86101187BBEFFE7FFF7FFFF31
:10B0D000FFFFFFFFFFFFFEFFFFFFFFFFFFFFFFFF81
:10B0E000FFFFFFFFFFFFFFFFFFFFFFFFFFFFFFFF70
:10B0F0008E73AE73FFFFFFFFFFFFFFFF30843084CE
:10B1000092940C6379CEFFFFFFFFFFFFFFFFFFFF6D
:10B11000FFFFFFFFFFFFFFFFFFFF1CE7EB5AD39C82
:10B1200092944D6BDFFFFFFFFFFFFFFF92946D6B6B
:10B130005EEFFFFFFFFFFFFFFFFFFFFFFFFFFFFFD0
:10B14000FFFFFFFFFFFFFFFFFEFFFDFFF5DD001824
:10B1500000080100146CFFEFFFFFDFFFFFFFFFFFA0
:10B16000FFFFFFFFFFFFFFFFFFFFFFFFFFFFFFFFEF
:10B17000FFFFFFFFFFFFFFFFFFFFFFFFFFFFFEFFE0
:10B18000FFFFFFFFFFFFFFFFFFFFFFFFFFFFFFFFCF
:10B19000FFFFFFFFDFFFFFFFFFFFFFFFFFFFFFFFDF
:10B1A000FFFFDFFFFFFFFFFFFFF7FFF7FFFFFFFFDF
:10B1B000FFFFFFFFFFFFFFFFFFFFFFFFFFFFFDFFA1
:10B1C00099FFC03062005BB6FFFFFFFFFFFFFFFF8C
:10B1D000FFFFFFFFFFFFFFFFFFFFFFFFFFFFFFFF7F
:10B1E000FFFFFFFFFDFFBCFF82280008C929DFE742
:10B1F000FFF7DFF7FFFFFFFFDFFFFEFFDAFF6A7BEE
:10B2000022003464FFFFFFFFFFFFFFFFFFFFFFFF90
:10B21000FFFFFFFFFFFFFFFFFFFFFEFFDDFFDEFF82
:10B22000FFFFFFFFFFFFFFFFFFFFFFFFDFFFFFFF4E
:10B2300017CE00001074FFF7FFF7FFFFFAEE485A31
:10B2400021008B42FFFFFFFFFFF7FFF7FFFFFEFF2D
:10B25000F9EE401802008821BBDFFDEFC620483917
:10B26000BCFF19E7630888319BFF15CE2300326CC1
:10B27000FCFF35CE2300136CDDFFF5D52200336CC7
:10B28000FEFF11AD2B634D6B453141087BBEFFEFD7
:10B29000FFFFFEFFFFFFDFFFFFFFFFFFFFFFFFFFDF
:10B2A000FFFFDFFF076200107BC6FFEFFFF7FFFF26
:10B2B000FFFFFFFFFFFFFFFFFFFFFFFFFFFFFFFF9E
:10B2C000FFFFFFFFFFFFFFFFFFFFFFFFFFFFFFFF8E
:10B2D0008E73AE73FFFFFFFFFFFFFFFF30843084EC
:10B2E00092940C6379CEFFFFFFFFFFFFFFFFFFFF8C
:10B2F000FFFFFFFFFFFFFFFFFFFF1CE7EB5AD39CA1
:10B3000092944D6BDFFFFFFFFFFFFFFF92946D6B89
:10B310005EEFFFFFFFFFFFFFFFFFFFFFFFFFFFFFEE
:10B32000FFFFFFFFFFFFFEFFFDFFBCFFA23000108D
:10B33000EB7221001364FFE7FFFFFFFFDFFFDFFF7A
:10B34000FFFFFFFFFFFFFFFFFFFFFFFFFFFFFFFF0D
:10B35000FFFFFFFFDFFFDFF7FFFFFFFFFEFFF6C589
:10B360002B6B4D6B2C632C632C630C630C632D6374
:10B370002C632C630D6B2D6B4C634C632C632C6323
:10B380002D6B2D6B0C630C634D6B2C630C632D5B71
:10B390009484FFF7FFFFFFFFFFFFFFFFFEFFFDFFAE
:10B3A000B0B4001020006619C831C839C731C731A0
:10B3B000C739C739C631E639C639E739A931748486
:10B3C000FFFFFFFFDCFFD1AC011043103EDFFFF7B2
:10B3D000FFFFFFFFDFFFFFFFFFFFFEFFDBFF8B83B2
:10B3E00023003364FFFFFFFFFFFFFFFFFFFFFFFFAF
:10B3F000FFFFFFFFFFFFFFFFFFFFDDFF485A0008D1
:10B40000000000000000000000000000000000003C
:10B4100000080000000021002100000000080008D2
:10B420000000210000000000230043007EE7FEFF33
:10B43000DCFFDAEEE52042009BDFFEF7A62048396C
:10B44000BCFF19DF6408A8319BFF16CE2300326CC5
:10B45000FCFF15CE2300136CDDFFF5D52200336C05
:10B46000FFFFFEFFFFFFDFFF6C8300105ABEFFEF00
:10B47000FADE0A6B4C732D6B2C634C632C632D63CB
:10B480000D6376B54B8B00187BBEFFE7FFF7FFFF20
:10B49000FFFFFFFFFFFFFFFFFFFFFFFFFFFFFFFFBC
:10B4A000FFFFFFFFFFFFFFFFFFFFFFFFFFFFFFFFAC
:10B4B0008E73AE73FFFFFFFFFFFFFFFF308430840A
:10B4C00092940C6379CEFFFFFFFFFFFFFFFFFFFFAA
:10B4D000FFFFFFFFFFFFFFFFFFFF1CE7EB5AD39CBF
:10B4E00092944D6BDFFFFFFFFFFFFFFF92946D6BA8
:10B4F0007EEFFFFFFEFFFFFFFFFFFFFFFFFFFFFFEE
:10B50000FFFFFFFFFFFFDDFFFBFFD0AC02006C4A37
:10B51000F6D500005374FFE7FEF7DCFFA228001009
:10B52000000000000000000000000000000000001B
:10B53000000000002000410065007FDFFEFFD0A476
:10B5400000000000200000000000000001000100D9
:10B5500000000000000000000000000000000000EB
:10B5600000000000000000000000000000000100DA
:10B570008C3AFFEFFFFFDFFFFFFFFFFFFDFFDDFF67
:10B58000485A0008000000000100010000002000EF
:10B590000000000000000000000800002400146CFF
:10B5A000FFF7FFFFFEFFBEFFAF7B15A5FFFFFFFF0D
:10B5B000FFFFFFFFFFFFFFFFFEFFFEFFDBFF6A7BDA
:10B5C0000200336CFFFFFFFFFFFFFFFFFFFFFFFFE6
:10B5D000FFFFFFFFFFF7FFF7FEF7FDFF8C73C6418C
:10B5E000C639C639E639E639E639C539E5390000E4
:10B5F00000000000000800004200E929C739853931
:10B60000C841A731E739E639A731E9393DDFFFFF06
:10B61000FEFFFEFF1CE7BAD6FDFF9CF7A6206939A6
:10B62000BCFF19DFC5086B42DCFF36D6030013747C
:10B63000DCFFF5D52200326CFDFFF5D50200336C3E
:10B64000FFF7FFFFFFFFFFFF6B8B00107BBEFFF7D5
:10B6500017CE0008000000000008000000002000D5
:10B660002200F07B6A8300105795FFE7FFF7FFFF8A
:10B67000FFFFFFFFFFFFFFFFFFFFFFFFFFFFFFFFDA
:10B68000FFFFFFFFFFFFFFFFFFFFFFFFFFFFFFFFCA
:10B690008E73AE73FFFFFFFFFFFFFFFF3084308428
:10B6A00092940C6379CEFFFFFFFFFFFFFFFFFFFFC8
:10B6B000FFFFFFFFFFFFFFFFFFFF1CE7EB5AD39CDD
:10B6C00092944D6BDFFFFFFFFFFFFFFF92946D6BC6
:10B6D0007DEFFFFFFEFFFFFFFFFFFFFFFFFFFFFF0D
:10B6E000FFFFDFFFDFFFDDFFDBFFF5CD64007FE75E
:10B6F00016D600081164FFE7FDF7FBFF07528641ED
:10B70000A739C739C639C639C739C739A739A7399B
:10B71000E739A631E739C7290B2A9FDFFEFFDDFF96
:10B72000DADEFBDEDADED9DE57DE801862009CC688
:10B73000FCD6FBDEDBDEDBDEDBDEDBDEDBDEFBD6F0
:10B74000FBDEDAD6DADEFBDEFBDEBBD6FBDEDCD6EA
:10B75000DFE7FFF7FFF7FFFFFFFFFEFFDCFFF5CDA1
:10B7600000006208C962000856A5FFF7FFFFFFFF4F
:10B77000FFFFFFFFDFFFFEFFBCFFC32045007EAEE3
:10B78000FFF7FFFFFFFFFFFFFFFFFFFF12AD0A6B99
:10B790000C632D632C634D6B2B634B6B0973A441BE
:10B7A0000100A8212D632D634C632C632D632D6351
:10B7B0002D6B2D63B7A5FFF7FEFFFEFFDEFFFFFF3A
:10B7C000FFFFFFFFFFFFFEFFFEFFFEFFB08C20002C
:10B7D00042005AC6F5CD0008A7215BBEFFFFFFFF60
:10B7E000DFFFFFFFFFFFFFFFFFFFFFFFFFF7FFFF91
:10B7F000FFFFFFFFDEFFFEFFFDFFFEFF8520483954
:10B80000BDFFF9DEA5008C42DCFFF5CD23003374CB
:10B81000DCFFF5DD2300336CFDFF15D60200336C31
:10B82000FFF7FFFFFFFFDFFF6B8B00107BC6FFEF13
:10B83000DFFFD9EED9DEFAE66C7B401096A53DCF4E
:10B840001DCFBEEFCFAC00087795FFE7FFF7FFFFF6
:10B85000FFFFFFFFFFFFFFFFFFFFFFFFFFFFFFFFF8
:10B86000FFFFFFFFFFFFFFFFFFFFFFFFFFFFFFFFE8
:10B870008E6BAE73FFFFFFFFFFFFFFFF308430844E
:10B8800092940C6379CEFFFFFFFFFFFFFFFFFFFFE6
:10B89000FFFFFFFFFFFFFFFFFFFF1CE7EB5AD39CFB
:10B8A00092944D6BDFFFFFFFFFFFFFFF92946D6BE4
:10B8B0007DEFFFFFFEFFFFFFFFFFFFFFFFFFFFFF2B
:10B8C000FFFFDFFFDFFFDFFFFEFFFEFF3EDFBFF713
:10B8D00015D600083274FFE7FFF7FDFFFFFFDFFF1B
:10B8E000FFFFFFFFFFFFFFFFFFFFFFFFFFFFFFFF68
:10B8F000FFFFFFFFFFFFFFFFFFF7FFF7FFFFDFFF88
:10B90000DFFFFFFFFEFFFEFFB1BC00103274FFE758
:10B91000FFF7FFFFFFFFFFFFFFFFFFFFFFFFFFFF3F
:10B92000FFF7FFFFFFFFFFFFFFFFFFFFFFFFFFFF2F
:10B93000FFF7FFFFFFFFFFFFFFFFDEFFDCFF8C8352
:10B9400022003274B8EE60208C42FFEFFFF7FFFF59
:10B95000FFFFFFFFFEFFFDFFB0B400088921FFDFFE
:10B96000FFF7FFFFFFFFFFFFFEFFFEFF8A7B0008E0
:10B9700000000000000000000000000000080000BF
:10B980002000010000000000200020000000000056
:10B99000000001001274DFEFFFFFFEFFFFFFFFFF5B
:10B9A000DFFFFEFFDDFF36C66B6B20002100871135
:10B9B0009BB6FFF7FEFF93C560180000462198ADC7
:10B9C000FFFFFFFFFFFFFFFFFFFFFFFFFFFFFFFF87
:10B9D000FFFFDFFFFFFFFEFFFCFFBCFFC520473975
:10B9E0009CFFFADE85008D4ADDFF16CE2200326C08
:10B9F000FDFFF5D52300136CFDFF16CE0300346464
:10BA0000FFF7FFFFDFFFDEFF6A8320107ABEFFEF44
:10BA1000FFFFFFFFFFFFFEFF4B8300107BBEFFE732
:10BA2000FFEFFEFFEFB40008326CFFE7DFF7DFFF48
:10BA3000FFFFFFFFFFFFFFFFFFFFFFFFFFFFFFFF16
:10BA4000FFFFFFFFFFFFFFFFFFFFFFFFFFFFFFFF06
:10BA50008E6BAE73FFFFFFFFFFFFFFFF308430846C
:10BA600092940C6379CEFFFFFFFFFFFFFFFFFFFF04
:10BA7000FFFFFFFFFFFFFFFFFFFF1CE7EB5AD39C19
:10BA800092944D6BDFFFFFFFFFFFFFFF92946D6B02
:10BA90007DEFFFFFFEFFFFFFFFFFFFFFFFFFFFFF49
:10BAA000DFFFDFFFFFFFDFFFFFFFFFF7FFF7FFFF16
:10BAB000F4DD0008126CFFE7FFF7FEFFFEFFFFFF5B
:10BAC000FFFFFFFFFFFFFFFFFFFFFFFFFFFFFFFF86
:10BAD000BFFFFFFFDFFFFFFFFFF7FFF7FFFFFFFFE6
:10BAE000FFFFFFFFFDFFBCFF813800185ABE1DC7D6
:10BAF000FCD6FBDEDBDEDBDEDBDEDADEDBDEDBDE46
:10BB00001CDFBAD61BDFDBD6FCD6FFFFFFFFFFFF33
:10BB1000FFFFDFF7FFFFFFFFFFFFDEFFD9F6401853
:10BB200023007CBEDDFF6B8301005895FFF7FFFF0C
:10BB3000FFFFFFFFDDFFB8EE402021107CC6FFEFC6
:10BB4000FFF7FFFFFFFFFEFFFFFFFEFFB7E6B4C5F5
:10BB5000B5BDB6B5B7BD96B5B6B5B5BD93C5885A32
:10BB600000000D4BB7B5D7BDB6ADB6B5B6B5B7B5D8
:10BB700097B5B8B5BCCEFFFFDEFFDDFFB5BD509475
:10BB80002852611800000000000044215695FFDF94
:10BB9000FFEFFFF7FEFFFDFFF9F66C7B00000100F1
:10BBA0000100420809422E630D5B4E6376A5FFFF3C
:10BBB000FFFFFFFFB2ACEA6AD8D6DDF7C5206739D0
:10BBC0009CFF57CE03006D42DDFF15CE2200526C64
:10BBD000FDFF16D60300136CFDFF16CE2300346460
:10BBE000FFF7FFFFFFFFFFFF6A8B201079B6FFE72B
:10BBF000FFF7DFFFFFFFFEFF4B8B00107BBEFFE771
:10BC0000FFF7FDFFF3DD0008AD42FFE7FFFFFFFF99
:10BC1000FFFFFFFFFFFFFFFFFFFFFFFFFFFFFFFF34
:10BC2000FFFFFFFFFFFFFFFFFFFFFFFFFFFFFFFF24
:10BC30008E6BAE73FFFFFFFFFFFFFFFF308430848A
:10BC400092940C6379CEFFFFFFFFFFFFFFFFFFFF22
:10BC5000FFFFFFFFFFFFFFFFFFFF1CE7EB5AD39C37
:10BC600092944D6BDFFFFFFFFFFFFFFF92946D6B20
:10BC70007DEFFFFFFFFFFFFFFFFFFFFFFFFFFFFF66
:10BC8000DFFFDFFFFFFFFFFFFFF7FFF7FFFFDEFF35
:10BC9000F4DD0008126CFFEFFFFFFFFFAC83A4414F
:10BCA000C641C739C639C639E739E739C739C7394F
:10BCB000E739C731E839E8312E4BBFDFFFF7FFFF27
:10BCC000DFF7FEFFFBFFD7F6202800100000200062
:10BCD0000000000000000000000000000000000064
:10BCE000000000000000000085005FDFFFFFFFFF95
:10BCF000FFFFFFFFDFFFFEFFDCFFDCFF68620000ED
:10BD0000ED42FFE7FEFFD9EE411842087FDFFFF763
:10BD1000FEFFFDFFDCFF475A01003374FFF7FFFF12
:10BD2000FFFFFFFFFEFFFFFFFFFFFFFFFFFFDEFF45
:10BD3000FFFFFFFFFFFFFFFFFFFFFDFFDBFF6A834A
:10BD400042003364FFF7FFFFFFFFFFFFFFFFFFFF2E
:10BD5000FFFFFFFFDFFFFFFFFDFF35D600080008F4
:10BD600000080000093A3284FBDEFFFFFFF7FFF70F
:10BD7000FFF7FFF7DFFFBEFFDEFFFFFFFEFFF6BDB1
:10BD80000B63601000000000230065005EDFFFFF12
:10BD9000FEFFFDFFE7590010549DFFEFC620473915
:10BDA0009BFF119D2300F36BDDFF36D62200526C02
:10BDB000FDFF15CE2200326CFDFF15CE220034644B
:10BDC000FFF7FFFFFFFFDFFF6B8B00107ABEFFE77F
:10BDD000FFF7FFFFFFFFBDFF4B8B00187BBEFFEFA0
:10BDE000FFFFBDFFD7FE6020A921DFD7FFF7FFFFD0
:10BDF000FFFFFFFFFFFFFFFFFFFFFFFFFFFFFFFF53
:10BE0000FFFFFFFFFFFFFFFFFFFFFFFFFFFFFFFF42
:10BE10008E73AE73FFFFFFFFFFFFFFFF30843084A0
:10BE200092940C6379CEFFFFFFFFFFFFFFFFFFFF40
:10BE3000FFFFFFFFFFFFFFFFFFFF1CE7EB5AD39C55
:10BE400092944D6BDFFFFFFFFFFFFFFF92946D6B3E
:10BE50007DF7FFFFFFFFFFFFFFFFFFFFFFFFFFFF7C
:10BE6000FFFFFFFFFFFFFFFFFFFFFFFFFEFFFDFFE5
:10BE7000F4DD00083374FFE7FFF7FFFF6A8B001063
:10BE800000000000000000000000000000000000B2
:10BE90000000000000000000C919DFDFFFF7FFFF0E
:10BEA000FFFFFEFFFBFFD7EE075A8741C739E73197
:10BEB000C639C639C639C739C739C739C739C73985
:10BEC000E739A639A439000086005FCFFFFFFFFFE6
:10BED000FFFFDFFFFFFFFEFFDBFF15D60000630063
:10BEE0005FD7FFEFFEFFDDFFB2B400088729DFE771
:10BEF000FEFFFDFF465A0008C919DFDFFFF7FFFF0D
:10BF0000FFFFDFFFFFFFFFFFFFFFFFFFFFFFFFFF61
:10BF1000FFFFFFFFDFFFFFFFFFFFFDFFDAFF6A8389
:10BF200022003464FFFFFFFFFFFFFFFFFFFFFFFF63
:10BF3000FFFFFFFFFFFFFFFFFDFFDCFFB0B46FA4BB
:10BF40000000C931C929E931C731C639C741C839EB
:10BF5000747CFFF7DEFFAD83C739E731C631E539C1
:10BF6000C539C54183390000136C9EBEFFF7FFFF42
:10BF7000FCFFBBFFC33001087ABEFFEFC620463985
:10BF80009AFF8B7323005895FEFF16CE2100317463
:10BF9000FCFF15CE22001274FDFF15D6220033647B
:10BFA000FFF7FFFFFFFFDFFF4C8B00187AC6FFEFA4
:10BFB000D16B57A5FFFFFEFF4A8B00187ABEFFEF3B
:10BFC000FFFFDEFF79FFC03064009FCFFFF7FFFF68
:10BFD000FEFFFFFFFFFFFFFFFFFFFFFFFFFFFFFF72
:10BFE000FFFFFFFFFFFFFFFFFFFFFFFFFFFFFFFF61
:10BFF0008E73AE73FFFFFFFFFFFFFFFF30843084BF
:10C0000092940C6379CEFFFFFFFFFFFFFFFFFFFF5E
:10C01000FFFFFFFFFFFFFFFFFFFF1CE7EB5AD39C73
:10C0200092944D6BDFFFFFFFFFFFFFFF92946D6B5C
:10C030007DEFFFFFFFFFFFFFFFFFFFFFFFFFFFFFA2
:10C04000FFFFFFFFFFFFFFFFFEFFFEFFFFFFFEFF03
:10C05000F4DD0010F26BFFE7FFF7DDFF69930010DE
:10C06000569DFFEFFFFFFFFFFFFFFFFFFFFFFFFFFB
:10C07000FFFFFEFFD7F66018A919FFDFFFF7FFFFEC
:10C08000FFFFFFFFFEFFFEFFFFFFFFFFFFFFFFFFC2
:10C09000FFFFFFFFFFFFFFFFFFFFFFFFFFFFFFFFB0
:10C0A000FFFFDEFFF8F68018A919DFD7FFF7FFFFC3
:10C0B000FFFFFFFFFFFFFDFF7AFFC1300200336C7F
:10C0C000FFF7FFF7FFFFFFFFDDFF6B830000652930
:10C0D00098D6674A4000A7197FD7FFEFFFF7FFFF09
:10C0E000FFFFDFFFFFFFFFFFFFFFFFFFFFFFFFFF80
:10C0F000FFFFFFFFFFFFFFFFFFFFFEFFDBFF6A8386
:10C1000022003464FFF7FFFFFFFFFFFFFFFFFFFF89
:10C11000FFFFFFFFFFFFFFFFFFFFDEFFDBFFF5DDA0
:10C1200001002300C831E839C739C6414020000862
:10C13000136CFFF7DCFF8A8321004719E831C73908
:10C14000C639C641402000087895FFEFFFFFFEFF8B
:10C15000FBFF35CE0100A929BFE7FFF7DFFFDEFFB8
:10C160009AFFC0302300589DFFFFFFF7FFF7FFFF46
:10C17000FCFF15CE2100317CDDFFF5D523003364B3
:10C18000FFFFFFFFFFFFFFFF4B83001857CE149503
:10C190002300336CFFF7FDFF4A8B00107ABEFFEFE0
:10C1A000FFFFBEFF9AFF466263009DAEFFF7FFFFF1
:10C1B00036D62F8CFDD6FFF7FFFFFFFFFFFFFFFFF7
:10C1C000FFFFFFFFFFFFFFFFFFFFFFFFFFFFFFFF7F
:10C1D0008E73AE73FFFFFFFFFFFFFFFF30843084DD
:10C1E00092940C6379CEFFFFFFFFFFFFFFFFFFFF7D
:10C1F000FFFFFFFFFFFFFFFFFFFF1CE7EB5AD39C92
:10C2000092944D6BDFFFFFFFFFFFFFFF92946D6B7A
:10C210007DEFFFFFFFFFFFFFFFFFFFFFFFFFFFFFC0
:10C22000FFFFFFFFFFFFFFFFFEFFFEFFFFFFFFFF20
:10C23000D3DD00103374FFE7FFF7FDFF488B0010DC
:10C240005795FFE7FFF7FFFFDFFFFFFFFFFFFFFF50
:10C25000DFFFDEFF96FE8028C921DFD7FFEFFFFF5B
:10C26000FFFFFFFFFFFFFFFFFFFFFFFFFFFFFFFFDE
:10C27000FFFFFFFFFFFFFFFFFFFFFFFFFFFFFFFFCE
:10C28000FFFFFEFFF3DD0008AC3AFFE7FFF7FFFF1B
:10C29000DFFFFFFFDDFFDCFF275A0008AA21DFDFF9
:10C2A000FFF7FFFFFFFFDEFFDDFFBCFF485200008E
:10C2B000000800008711BFD7FFE7FFF7FFFFFFFF70
:10C2C000FFFFFFFFFFFFDFFFFFFFDFFFFFFFFFFFBE
:10C2D000FFFFFFFFFFFFFFFFFFFFFEFFDAFF6A83A5
:10C2E00023003464FFF7FFFFFFFFFFFFFFFFFFFFA7
:10C2F000FFFFFFFFFFFFFFFFFFFFDEFFDBFF15DE9E
:10C300000100579DFFFFDFF7FFFFFEFFD6DD0010A6
:10C310001274FFEFFBFF898342007FD7FFF7FFFF17
:10C32000FFFFDEFFD0B400085795FFE7FFFFFDFFDA
:10C33000FAFFEFAC0200146CFFF7FFFFFEFFFDFFFA
:10C34000B0B4001001002200F06BFFF7FFF7FFFF11
:10C35000DDFF3BEFF8B5BACEBCFF16D62200546421
:10C36000FFFFDFFFFFFFFEFF6B830018C6410100E8
:10C3700043007CBEFFFFFEFF6B8B00105AC6FFF729
:10C38000FFFFFFFFFCFFD1A40200F363FFF7DFFF15
:10C39000F5D500081274FFEFFFFFFFFFFFFFDFFF7F
:10C3A000FFFFFFFFFFFFFFFFFFFFFFFFFFFFFFFF9D
:10C3B0008E73AE73FFFFFFFFFFFFFFFF30843084FB
:10C3C00092940C6379CEFFFFFFFFFFFFFFFFFFFF9B
:10C3D000FFFFFFFFFFFFFFFFFFFF1CE7EB5AD39CB0
:10C3E00092944D6BDFFFFFFFFFFFFFFF92946D6B99
:10C3F0007DEFFFFFFFFFFFFFFFFFFFFFFFFFFFFFDF
:10C40000FFFFFFFFFFFFFFFFFFFFFFFFFFFFDFFF5C
:10C4100014DE0010126CFFE7FFF7FDFF8993001098
:10C420005895FFE7FFF7FFFFFFFFFFFFFFFFFFFF4D
:10C43000FFFFDEFFB7FE40288819FFDFFFF7FFFF91
:10C44000FFFFFFFFFFFFFFFFFFFFFFFFFFFFFFFFFC
:10C45000FFFFFFFFFFFFFFFFFFFFFFFFFFFFFFFFEC
:10C46000FFFFFEFFAFB400105474FFE7FFFFFFFFB4
:10C47000FFFFDEFFDBFFAFB4000823005CB6FFEF79
:10C48000FFFFFFFFBEFFFEFFFDFFDDFFAE830008E5
:10C49000000800008821BEBEFFEFFFF7FFFFFFFF8F
:10C4A000DFFFFFFFFFFFFFFFFFFFFFFFFFFFDFFFDC
:10C4B000FFFFFFFFFFFFFFFFFFFFFDFFDAFF8A83A4
:10C4C00023001364FFF7FFFFFFFFFFFFFFFFFFFFE6
:10C4D000FFFFDEFFFFFFFFFFFEF7FEFFDBFFD4CD18
:10C4E0002200578DFFFFFFFFFFFFDDFF15E6001065
:10C4F0001174FFF7FBFF6A7BA5009FD7FFF7FFFFD3
:10C50000FFFFDEFFCFB400085795FFE7FFF7FDFF01
:10C51000D9FF456203003A95FFF7DEFFFCFFD4D553
:10C520000008220834A5810820000B53FFEFFFF715
:10C53000FFFFFFFFFFFFFFFFDCFF16D62200346482
:10C54000FFFFFFFFFEFFFDFF6A8B001803082500B9
:10C55000FDCEFFF7DFFFDEFF6B83201097B539BEFE
:10C56000518C484A54A538C602008931BFEFFFFFFD
:10C57000D0B40008326CFFE7FFF7FFFFFFFFFFFFBB
:10C58000FFFFFFFFFFFFFFFFFFFFFFFFFFFFFFFFBB
:10C590008E73AE73FFFFFFFFFFFFFFFF3084308419
:10C5A00092940C6379CEFFFFFFFFFFFFFFFFFFFFB9
:10C5B000FFFFFFFFFFFFFFFFFFFF1CE7EB5AD39CCE
:10C5C00092944D6BDFFFFFFFFFFFFFFF92946D6BB7
:10C5D0007DEFFFFFFFFFFFFFFFFFFFFFFFFFFFFFFD
:10C5E000FFFFFFFFFFFFFFFFFFFFFFFFFFFFDFFF7B
:10C5F00014DE0008126CFFE7FFF7FCFF4883001011
:10C60000579DFFEFFFEFFFFFFFFFDFFFFFFFFFFF84
:10C61000FFFFDEFFD8FE4018A921FFDFFFF7FFFF75
:10C62000FFFFFFFFFFFFFFFFFFFFFFFFFFFFFFFF1A
:10C63000FFFFFFFFFFFFFFFFFFFFDFFFFFFFFFFF2A
:10C64000FFFFDEFF676200085895FFEFFFF7FFFF6F
:10C65000FFFFFDFFCFB400100100589DFFF7FFFF63
:10C66000FFFFBEFFDFFFFBEE6B7300000000200842
:10C670000B73E74902002200CD529CCEFFFFFFFF63
:10C68000FFFFFFFFFFFFDEFFFFFFFFFFDFFFFFFFFB
:10C69000FFFFFFFFFFFFFFFFFFFFFEFFFBFF6A7BC8
:10C6A0002200136CFFF7FFFFFFFFFFFFFFFFFFFFFD
:10C6B000FFFFFFFFFFFFFFFFFFF7FFFFDCFF36DE9F
:10C6C00021007795FFF7FFFFFFFFFEFFF4D5001075
:10C6D0001274FFF7DBFF8A8364007FD7FFFFDFFF61
:10C6E000DEFFFEFFCFAC00085795FFE7FFF7FDFF29
:10C6F000D6FE602045007FD7FFFFFEFFD8EE601812
:10C7000002001374FFFFDDFF264200006721BCC654
:10C71000DFF7FFFFFFFFDEFFDCFF16D62200546CC1
:10C72000FFFFDFFFFEFFBCFFC130001005089ECEFB
:10C730001CE774B5AE83074A000800080100010039
:10C7400000000000559DFFF7295201083ABEFFF78F
:10C75000D1AC00087795FFDFFFF7FFFFDFFFFFFF9A
:10C76000FFFFFFFFFFFFFFFFFFFFFFFFFFFFFFFFD9
:10C770008E73AE73FFFFFFFFFFFFFFFF3084308437
:10C7800092940C6379CEFFFFFFFFFFFFFFFFFFFFD7
:10C79000FFFFFFFFFFFFFFFFFFFF1CE7EB5AD39CEC
:10C7A00092944D6BDFFFFFFFFFFFFFFF92946D6BD5
:10C7B0007DEFFFFFFFFFFFFFFFFFFFFFFFFFFFFF1B
:10C7C000FFFFFFFFFFFFFFFFFFFFFFFFFFFFFFFF79
:10C7D000F4D50008136CFFE7FFFFDDFF8893001816
:10C7E0002008E831E739C631C731E839A631E739E1
:10C7F000C739074263392000CA19DFD7FFF7FFFFA7
:10C80000FFFFFFFFFFFFFFFFFFFFFFFFFFFFFEFF39
:10C81000DDFFF6D5B5B5FADEFADEDADEFADEB9DE30
:10C82000D9E64852020064007FD7FFEFFFF7FFFF11
:10C83000FDFFF1AC00000000F17BFFFFBFFFDEFF5A
:10C840001AEFB1A461200000200020000D53BFF7B3
:10C85000FFFFBEFFB19C8018001000102200317C49
:10C860009AC6FFFFFEFFD2AC0000000000000000EF
:10C870002000000000000000000000000008000888
:10C880000100010000000000200000000000000086
:10C890000000000000002100136CFFF7DDFFD4D57D
:10C8A000000001002100000000004000000800001E
:10C8B000336CFFF7DBFF698B0100020000002000F2
:10C8C00020000000000800007995FFE7FFF7FEFF59
:10C8D000F3DD0010A919BFDFFFFFD5CD6110010006
:10C8E000AD42FFEFFFF7DEFFFDFF475A00082208C9
:10C8F0007BC6FFFFFFFFFFFFDCFFD1AC43001364EB
:10C90000FFFFFFFFFEFFD6C501002308BDD6FFFFD6
:10C91000F1AC00100000000000000208EA412F6B9B
:10C9200097B5FCDEFFFFFEFFCFB40010C7319FE7D5
:10C930006D7B20089CB6FFE7FFF7FFFFFFFFFFFFBF
:10C94000FFFFFFFFFFFFFFFFFFFFFFFFFFFFFFFFF7
:10C950008E73AE73FFFFFFFFFFFFFFFF3084308455
:10C9600092940C6379CEFFFFFFFFFFFFFFFFFFFFF5
:10C97000FFFFFFFFFFFFFFFFFFFF1CE7EB5AD39C0A
:10C9800092944D6BDFFFFFFFFFFFFFFF92946D6BF3
:10C990007DEFFFFFFFFFFFFFFFFFFFFFFFFFFFFF39
:10C9A000FFFFFFFFFFFFFFFFFFFFFFFFFFFFFFFF97
:10C9B00015D600083374FFEFFFFFDDFF488300103A
:10C9C000000800000000200000002000000000001F
:10C9D0000000000000080000CA19DFDFFFF7FFFFBA
:10C9E000FFFFFFFFFFFFFFFFFFFFFFFFFFFFFEFF58
:10C9F000DDFF4B830000000000000000000000008D
:10CA0000000800080300399DFFF7FFF7FFFFFFFF55
:10CA1000FDFFDCFFA318F17BFFFF1CE74C834020E8
:10CA20000008000800080000717CDFE7FFF7DFF76F
:10CA3000FFFFFFFFFDFFBBFF8C8B402000002100AC
:10CA40004100610033AD12ADC639E739C739C73986
:10CA5000C739C739C739E739C739C639C639C639B9
:10CA6000C739E839C739C739C739C739E739A739A5
:10CA7000C741C739073AC731947CFFFFDDFFF5DDB9
:10CA80000000093A2D634D634C632C63284A010072
:10CA9000136CFFEFFCFF498321000E532C632B63C3
:10CAA0004C630B63064A00005795FFE7FFFFFEFF4C
:10CAB0006A8B0008316CFFEF6D73000801000E53A4
:10CAC000FFEFFFEFFFFFFFFFDEFFBDFFAE830000C4
:10CAD00035A5F49C00000000601800002200588D6D
:10CAE000FFFFFFFFDEFFDFFF16A55BC6FFFFFFFFB7
:10CAF000B8EE6B7B34A5FCD6FFFFDFFFFFFFFFFF27
:10CB0000FFFFFFFFFFFFFEFFDAFF245A00002100B6
:10CB1000000062007FD7FFEFFFFFFFFFFFFFDFFF97
:10CB2000FFFFFFFFFFFFFFFFFFFFFFFFFFFFFFFF15
:10CB30008E73AE73FFFFFFFFFFFFFFFF3084308473
:10CB400092940C6379CEFFFFFFFFFFFFFFFFFFFF13
:10CB5000FFFFFFFFFFFFFFFFFFFF1CE7EB5AD39C28
:10CB600092944D6BDFFFFFFFFFFFFFFF92946D6B11
:10CB70007DEFFFFFFFFFFFFFFFFFFFFFFFFFFFFF57
:10CB8000FFFFFFFFFFFFFFFFFFFFFFFFFFFFFEFFB6
:10CB900015D600081374FFEFDFFFFEFF8A8300083D
:10CBA00035A5FFF7FFFFFFFFFFFFDFFFFFFFFFFFE1
:10CBB000FFFFFFFFF9EE6010A821DFE7FFF7FFFF9F
:10CBC000FFFFFFFFFFFFFFFFFFFFFFFFFFFFFFFF75
:10CBD000DDFFD1ACC639A631E739E639A531E639F2
:10CBE000E739EC5A9CCEFFF7FFFFFFFFDFFFFFFFA7
:10CBF000DDFFFEFF5DEFDFFFFFFFDFFFD1AC0008D1
:10CC00000000E83976ADFFFFFFFFFFFFDFFFFFFF0A
:10CC1000FFFFFFFFDEFFFEFFDEFFBDFFB4C5853176
:10CC200021003174FFFFFFFFFFFFFFFFFFFFFFFF4A
:10CC3000FFFFFFFFFFFFFFFFFFFFFFFFFFFFFFFF04
:10CC4000FFFFFFFFDFFFFFFFFFFFFFFFFFFFFFFF14
:10CC5000FFFFFFFFFFFFFFFFFFFFFFFFDDFF16D618
:10CC60000000359DFFFFFFFFFFFFFFFFF6CD000037
:10CC70001274FFF7DDFF6B8363083EDFFFFFFFFFEA
:10CC8000FFFFFFFFB1A40000569DFFEFFFFFDEFF97
:10CC9000B4CD4018549D3DDF42102110F49CFFF7A5
:10CCA000FFF7FFFFFFFFFFFFFFFFFEFFDFFFDAE6FB
:10CCB000DEFF37CE00004000000000002D53FFF7DC
:10CCC000FFFFFFFFFFFFFFFFFFFFFFFFFFFFFFFF74
:10CCD000FEFFDEFFFFFFFFFFDFFFFFFFFFFFFFFFA6
:10CCE000FFFFFFFFFFFFFEFFFDFFDCFF064200002E
:10CCF00002003274FFF7FFFFFFFFDEFFFFFFFFFFC1
:10CD0000FFFFFFFFFFFFFFFFFFFFFFFFFFFFFFFF33
:10CD10008E73AE73FFFFFFFFFFFFFFFF3084308491
:10CD200092940C6379CEFFFFFFFFFFFFFFFFFFFF31
:10CD3000FFFFFFFFFFFFFFFFFFFF1CE7EB5AD39C46
:10CD400092944D6BDFFFFFFFFFFFFFFF92946D6B2F
:10CD50007DEFFFFFDFFFFFFFFFFFFFFFFFFFFFFF95
:10CD6000FFFFFFFFFFFFFFFFFFFFFFFFFFFFFEFFD4
:10CD70001AF7B5C5BDCEFFF7FFFFFEFFB8DEB5BDA4
:10CD80001DD7FFF7FFFFFFFFDFFFFFFFFFFFFFFFE5
:10CD9000FFFFFFFFBDFF95BDD8ADFFF7FFF7FFFF1A
:10CDA000FFFFFFFFFFFFFFFFFFFFFFFFFFFFFFFF93
:10CDB000FEFFFEFFDFFFFFFFFFFFFFFFFFFFFFFFA5
:10CDC000FFFFFFFFFFFFFFFFFFFFFFFFFFFFFFFF73
:10CDD000FFFFFFFFFFFFFFFFFFFFFFFFDEFFD6C5E7
:10CDE000FFFFDFF7FFFFFFFFFFFFFFFFDFFFFFFF9B
:10CDF000FFFFFFFFFFFFFFFFFFFFFEFFDDFFFEFF67
:10CE0000FFF7FFF7FFFFFFFFFFFFFFFFFFFFFFFF42
:10CE1000FFFFFFFFFFFFFFFFFFFFFFFFFFFFFFFF22
:10CE2000FFFFFFFFFFFFFFFFFFFFFFFFFFFFFFFF12
:10CE3000FFFFFFFFFFFFFFFFFFFFFFFFDEFFDEFF44
:10CE4000FFFFFFF7FFFFFFFFFFFFFFFFDEFFFEFF1C
:10CE5000FFF7FFF7DEFFFEFFFFFFFFF7FFFFFFFF1C
:10CE6000FFFFFFFFFEFFFEFFFFF7FFF7FFFFFFFFE4
:10CE7000DEFFFEFFFFFFFFFFFDE67BDEFFFFFFF7AC
:10CE8000FFFFFFFFFFFFFFFFFFFFFFFFFFFFFFFFB2
:10CE9000FEFFFDFFFFFFFFFFFFFFFFFFFFFFFFFFA5
:10CEA000FFFFFFFFFFFFFFFFFFFFFFFFFFFFFFFF92
:10CEB000FFFFFFFFFFFFFFFFFFFFFFFFFFFFFFFF82
:10CEC000FFFFFFFFFFFFDEFFFEFFDDFFFEFFDADEFD
:10CED000BCC6FFF7FFFFFFFFFFFFFFFFFFFFFFFFE6
:10CEE000FFFFFFFFFFFFFFFFFFFFFFFFFFFFFFFF52
:10CEF0008E73AE73FFFFFFFFFFFFFFFF30843084B0
:10CF000092940C6379CEFFFFFFFFFFFFFFFFFFFF4F
:10CF1000FFFFFFFFFFFFFFFFFFFFFBDE0C63D39C64
:10CF200092942C63DFFFFFFFFFFFFFFFB2944D6B76
:10CF30007DEFFFFFFFFFFFFFFFFFFFFFFFFFFFFF93
:10CF4000FFFFFFFFFFFFFFFFFFFFFFFFFFFFFFFFF1
:10CF5000FFFFFFFFFFFFFFFFFFFFFFFFFFFFFFFFE1
:10CF6000FFFFFFFFFFFFFFFFFFFFFFFFFFFFFFFFD1
:10CF7000FFFFFFFFFFFFFFFFFFFFFFFFFFFFFFFFC1
:10CF8000FFFFFFFFFFFFFFFFFFFFFFFFFFFFFFFFB1
:10CF9000FFFFFFFFFFFFFFFFFFFFFFFFFFFFFFFFA1
:10CFA000FFFFFFFFFFFFFFFFFFFFFFFFFFFFFFFF91
:10CFB000FFFFFFFFFFFFFFFFFFFFFFFFFFFFFFFF81
:10CFC000FFFFFFFFFFFFFFFFFFFFFFFFFFFFFFFF71
:10CFD000FFFFFFFFFFFFFFFFFFFFFFFFFFFFFFFF61
:10CFE000FFFFFFFFFFFFFFFFFFFFFFFFFFFFFFFF51
:10CFF000FFFFFFFFFFFFFFFFFFFFFFFFFFFFFFFF41
:10D00000FFFFFFFFFFFFFFFFFFFFFFFFFFFFFFFF30
:10D01000FFFFFFFFFFFFFFFFFFFFFFFFFFFFFFFF20
:10D02000FFFFFFFFFFFFFFFFFFFFFFFFFFFFFFFF10
:10D03000FFFFFFFFFFFFFFFFFFFFFFFFFFFFFFFF00
:10D04000FFFFFFFFFFFFFFFFFFFFFFFFFFFFFFFFF0
:10D05000FFFFFFFFFFFFFFFFFFFFFFFFFFFFFFFFE0
:10D06000FFFFFFFFFFFFFFFFFFFFFFFFFFFFFFFFD0
:10D07000FFFFFFFFFFFFFFFFFFFFFFFFFFFFFFFFC0
:10D08000FFFFFFFFFFFFFFFFFFFFFFFFFFFFFFFFB0
:10D09000FFFFFFFFFFFFFFFFFFFFFFFFFFFFFFFFA0
:10D0A000FFFFFFFFFFFFFFFFFFFFFFFFFFFFFFFF90
:10D0B000FFFFFFFFFFFFFFFFFFFFFFFFFFFFFFFF80
:10D0C000FFFFFFFFFFFFFFFFFFFFFFFFFFFFFFFF70
:10D0D0006D6BAE73FFFFFFFFFFFFFFFF30843084F7
:10D0E00092942C6359CEFFFFFFFFFFFFFFFFFFFF6E
:10D0F000FFFFFFFFFFFFFFFFFFFFFBDEEB5AB294D6
:10D1000092942C63BEF7FFFFFFFFFFFF718C6D6BE6
:10D110007DEFFFFFFFFFFFFFFFFFFFFFFFFFFFFFB1
:10D12000FFFFFFFFFFFFFFFFFFFFFFFFFFFFFFFF0F
:10D13000FFFFFFFFFFFFFFFFFFFFFFFFFFFFFFFFFF
:10D14000FFFFFFFFFFFFFFFFFFFFFFFFFFFFFFFFEF
:10D15000FFFFFFFFFFFFFFFFFFFFFFFFFFFFFFFFDF
:10D16000FFFFFFFFFFFFFFFFFFFFFFFFFFFFFFFFCF
:10D17000FFFFFFFFFFFFFFFFFFFFFFFFFFFFFFFFBF
:10D18000FFFFFFFFFFFFFFFFFFFFFFFFFFFFFFFFAF
:10D19000FFFFFFFFFFFFFFFFFFFFFFFFFFFFFFFF9F
:10D1A000FFFFFFFFFFFFFFFFFFFFFFFFFFFFFFFF8F
:10D1B000FFFFFFFFFFFFFFFFFFFFFFFFFFFFFFFF7F
:10D1C000FFFFFFFFFFFFFFFFFFFFFFFFFFFFFFFF6F
:10D1D000FFFFFFFFFFFFFFFFFFFFFFFFFFFFFFFF5F
:10D1E000FFFFFFFFFFFFFFFFFFFFFFFFFFFFFFFF4F
:10D1F000FFFFFFFFFFFFFFFFFFFFFFFFFFFFFFFF3F
:10D20000FFFFFFFFFFFFFFFFFFFFFFFFFFFFFFFF2E
:10D21000FFFFFFFFFFFFFFFFFFFFFFFFFFFFFFFF1E
:10D22000FFFFFFFFFFFFFFFFFFFFFFFFFFFFFFFF0E
:10D23000FFFFFFFFFFFFFFFFFFFFFFFFFFFFFFFFFE
:10D24000FFFFFFFFFFFFFFFFFFFFFFFFFFFFFFFFEE
:10D25000FFFFFFFFFFFFFFFFFFFFFFFFFFFFFFFFDE
:10D26000FFFFFFFFFFFFFFFFFFFFFFFFFFFFFFFFCE
:10D27000FFFFFFFFFFFFFFFFFFFFFFFFFFFFFFFFBE
:10D28000FFFFFFFFFFFFFFFFFFFFFFFFFFFFFFFFAE
:10D29000FFFFFFFFFFFFFFFFFFFFFFFFFFFFFFFF9E
:10D2A000FFFFFFFFFFFFFFFFFFFFFFFFFFFFFFFF8E
:10D2B0008E73AE73FFFFFFFFFFFFFFFF30843084EC
:10D2C00092942C6379CEFFFFFFFFDFFFFFFFFFFF8C
:10D2D000FFFFFFFFFFFFFFFFFFFF1CE7EB5AD39CA1
:10D2E00092944D6BDFFFFFFFFFFFFFFF92948E7361
:10D2F0007DEFFFFFFFFFFFFFFFFFFFFFFFFFFFFFD0
:10D30000FFFFFFFFFFFFFFFFFFFFFFFFFFFFFFFF2D
:10D31000FFFFFFFFFFFFFFFFFFFFFFFFFFFFFFFF1D
:10D32000FFFFFFFFFFFFFFFFFFFFFFFFFFFFFFFF0D
:10D33000FFFFFFFFFFFFFFFFFFFFFFFFFFFFFFFFFD
:10D34000FFFFFFFFFFFFFFFFFFFFFFFFFFFFFFFFED
:10D35000FFFFFFFFFFFFFFFFFFFFFFFFFFFFFFFFDD
:10D36000FFFFFFFFFFFFFFFFFFFFFFFFFFFFFFFFCD
:10D37000FFFFFFFFFFFFFFFFFFFFFFFFFFFFFFFFBD
:10D38000FFFFFFFFFFFFFFFFFFFFFFFFFFFFFFFFAD
:10D39000FFFFFFFFFFFFFFFFFFFFFFFFFFFFFFFF9D
:10D3A000FFFFFFFFFFFFFFFFFFFFFFFFFFFFFFFF8D
:10D3B000FFFFFFFFFFFFFFFFFFFFFFFFFFFFFFFF7D
:10D3C000FFFFFFFFFFFFFFFFFFFFFFFFFFFFFFFF6D
:10D3D000FFFFFFFFFFFFFFFFFFFFFFFFFFFFFFFF5D
:10D3E000FFFFFFFFFFFFFFFFFFFFFFFFFFFFFFFF4D
:10D3F000FFFFFFFFFFFFFFFFFFFFFFFFFFFFFFFF3D
:10D40000FFFFFFFFFFFFFFFFFFFFFFFFFFFFFFFF2C
:10D41000FFFFFFFFFFFFFFFFFFFFFFFFFFFFFFFF1C
:10D42000FFFFFFFFFFFFFFFFFFFFFFFFFFFFFFFF0C
:10D43000FFFFFFFFFFFFFFFFFFFFFFFFFFFFFFFFFC
:10D44000FFFFFFFFFFFFFFFFFFFFFFFFFFFFFFFFEC
:10D45000FFFFFFFFFFFFFFFFFFFFFFFFFFFFFFFFDC
:10D46000FFFFFFFFFFFFFFFFFFFFFFFFFFFFFFFFCC
:10D47000FFFFFFFFFFFFFFFFFFFFFFFFFFFFFFFFBC
:10D48000FFFFFFFFFFFFFFFFFFFFFFFFFFFFFFFFAC
:10D490008E73AE73FFFFFFFFFFFFFFFF308430840A
:10D4A00092940C6379CEFFFFFFFFFFFFFFFFFFFFAA
:10D4B000FFFFFFFFFFFFFFFFFFFFFBDECB5AD39C09
:10D4C00092944D6BDFFFFFFFFFFFDFFFB2946D6BA8
:10D4D0007DEFFFFFFFFFFFFFFFFFFFFFFFFFFFFFEE
:10D4E000FFFFFFFFFFFFFFFFFFFFFFFFFFFFFFFF4C
:10D4F000FFFFFFFFFFFFFFFFFFFFFFFFFFFFFFFF3C
:10D50000FFFFFFFFFFFFFFFFFFFFFFFFFFFFFFFF2B
:10D51000FFFFFFFFFFFFFFFFFFFFFFFFFFFFFFFF1B
:10D52000FFFFFFFFFFFFFFFFFFFFFFFFFFFFFFFF0B
:10D53000FFFFFFFFFFFFFFFFFFFFFFFFFFFFFFFFFB
:10D54000FFFFFFFFFFFFFFFFFFFFFFFFFFFFFFFFEB
:10D55000FFFFFFFFFFFFFFFFFFFFFFFFFFFFFFFFDB
:10D56000FFFFFFFFFFFFFFFFFFFFFFFFFFFFFFFFCB
:10D57000FFFFFFFFFFFFFFFFFFFFFFFFFFFFFFFFBB
:10D58000FFFFFFFFFFFFFFFFFFFFFFFFFFFFFFFFAB
:10D59000FFFFFFFFFFFFFFFFFFFFFFFFFFFFFFFF9B
:10D5A000FFFFFFFFFFFFFFFFFFFFFFFFFFFFFFFF8B
:10D5B000FFFFFFFFFFFFFFFFFFFFFFFFFFFFFFFF7B
:10D5C000FFFFFFFFFFFFFFFFFFFFFFFFFFFFFFFF6B
:10D5D000FFFFFFFFFFFFFFFFFFFFFFFFFFFFFFFF5B
:10D5E000FFFFFFFFFFFFFFFFFFFFFFFFFFFFFFFF4B
:10D5F000FFFFFFFFFFFFFFFFFFFFFFFFFFFFFFFF3B
:10D60000FFFFFFFFFFFFFFFFFFFFFFFFFFFFFFFF2A
:10D61000FFFFFFFFFFFFFFFFFFFFFFFFFFFFFFFF1A
:10D62000FFFFFFFFFFFFFFFFFFFFFFFFFFFFFFFF0A
:10D63000FFFFFFFFFFFFFFFFFFFFFFFFFFFFFFFFFA
:10D64000FFFFFFFFFFFFFFFFFFFFFFFFFFFFFFFFEA
:10D65000FFFFFFFFFFFFFFFFFFFFFFFFFFFFFFFFDA
:10D66000FFFFFFFFFFFFFFFFFFFFFFFFFFFFFFFFCA
:10D670006D6BAE73FFFFFFFFFFFFFFFF518C308428
:10D68000B2942C6359CEFFFFDFFFFFFFFFFFFFFFC8
:10D69000FFFFFFFFFFFFFFFFFFFF1CE7EB5AD39CDD
:10D6A000B2944D6BFFFFFFFFFFFFFFFFB2942C63AF
:10D6B0007DEFFFFFFFFFFFFFFFFFFFFFFFFFFFFF0C
:10D6C000FFFFFFFFFFFFFFFFFFFFFFFFFFFFFFFF6A
:10D6D000FFFFFFFFFFFFFFFFFFFFFFFFFFFFFFFF5A
:10D6E000FFFFFFFFFFFFFFFFFFFFFFFFFFFFFFFF4A
:10D6F000FFFFFFFFFFFFFFFFFFFFFFFFFFFFFFFF3A
:10D70000FFFFFFFFFFFFFFFFFFFFFFFFFFFFFFFF29
:10D71000FFFFFFFFFFFFFFFFFFFFFFFFFFFFFFFF19
:10D72000FFFFFFFFFFFFFFFFFFFFFFFFFFFFFFFF09
:10D73000FFFFFFFFFFFFFFFFFFFFFFFFFFFFFFFFF9
:10D74000FFFFFFFFFFFFFFFFFFFFFFFFFFFFFFFFE9
:10D75000FFFFFFFFFFFFFFFFFFFFFFFFFFFFFFFFD9
:10D76000FFFFFFFFFFFFFFFFFFFFFFFFFFFFFFFFC9
:10D77000FFFFFFFFFFFFFFFFFFFFFFFFFFFFFFFFB9
:10D78000FFFFFFFFFFFFFFFFFFFFFFFFFFFFFFFFA9
:10D79000FFFFFFFFFFFFFFFFFFFFFFFFFFFFFFFF99
:10D7A000FFFFFFFFFFFFFFFFFFFFFFFFFFFFFFFF89
:10D7B000FFFFFFFFFFFFFFFFFFFFFFFFFFFFFFFF79
:10D7C000FFFFFFFFFFFFFFFFFFFFFFFFFFFFFFFF69
:10D7D000FFFFFFFFFFFFFFFFFFFFFFFFFFFFFFFF59
:10D7E000FFFFFFFFFFFFFFFFFFFFFFFFFFFFFFFF49
:10D7F000FFFFFFFFFFFFFFFFFFFFFFFFFFFFFFFF39
:10D80000FFFFFFFFFFFFFFFFFFFFFFFFFFFFFFFF28
:10D81000FFFFFFFFFFFFFFFFFFFFFFFFFFFFFFFF18
:10D82000FFFFFFFFFFFFFFFFFFFFFFFFFFFFFFFF08
:10D83000FFFFFFFFFFFFFFFFFFFFFFFFFFFFFFFFF8
:10D84000FFFFFFFFFFFFFFFFFFFFFFFFFFFFFFFFE8
:10D850008E73CF7BFFFFFFFFFFFFFFFF518C108414
:10D86000B2940C6359CEFFFFFFFFFFFFFFFFFFFFE6
:10D87000FFFFFFFFFFFFFFFFFFFF1CE70C63B294FA
:10D88000718C0C63FFFFFFFFFFFFFFFF92946D6B36
:10D890005DEFFFFFFFFFFFFFFFFFFFFFFFFFFFFF4A
:10D8A000FFFFFFFFFFFFFFFFFFFFFFFFFFFFFFFF88
:10D8B000FFFFFFFFFFFFFFFFFFFFFFFFFFFFFFFF78
:10D8C000FFFFFFFFFFFFFFFFFFFFFFFFFFFFFFFF68
:10D8D000FFFFFFFFFFFFFFFFFFFFFFFFFFFFFFFF58
:10D8E000FFFFFFFFFFFFFFFFFFFFFFFFFFFFFFFF48
:10D8F000FFFFFFFFFFFFFFFFFFFFFFFFFFFFFFFF38
:10D90000FFFFFFFFFFFFFFFFFFFFFFFFFFFFFFFF27
:10D91000FFFFFFFFFFFFFFFFFFFFFFFFFFFFFFFF17
:10D92000FFFFFFFFFFFFFFFFFFFFFFFFFFFFFFFF07
:10D93000FFFFFFFFFFFFFFFFFFFFFFFFFFFFFFFFF7
:10D94000FFFFFFFFFFFFFFFFFFFFFFFFFFFFFFFFE7
:10D95000FFFFFFFFFFFFFFFFFFFFFFFFFFFFFFFFD7
:10D96000FFFFFFFFFFFFFFFFFFFFFFFFFFFFFFFFC7
:10D97000FFFFFFFFFFFFFFFFFFFFFFFFFFFFFFFFB7
:10D98000FFFFFFFFFFFFFFFFFFFFFFFFFFFFFFFFA7
:10D99000FFFFFFFFFFFFFFFFFFFFFFFFFFFFFFFF97
:10D9A000FFFFFFFFFFFFFFFFFFFFFFFFFFFFFFFF87
:10D9B000FFFFFFFFFFFFFFFFFFFFFFFFFFFFFFFF77
:10D9C000FFFFFFFFFFFFFFFFFFFFFFFFFFFFFFFF67
:10D9D000FFFFFFFFFFFFFFFFFFFFFFFFFFFFFFFF57
:10D9E000FFFFFFFFFFFFFFFFFFFFFFFFFFFFFFFF47
:10D9F000FFFFFFFFFFFFFFFFFFFFFFFFFFFFFFFF37
:10DA0000FFFFFFFFFFFFFFFFFFFFFFFFFFFFFFFF26
:10DA1000FFFFFFFFFFFFFFFFFFFFFFFFFFFFFFFF16
:10DA2000FFFFFFFFFFFFFFFFFFFFFFFFFFFFFFFF06
:10DA30006D6BAE73DFFFFFFFFFFFFFFF718C108484
:10DA400092942C639AD6FFFFFFFFDFFFFFFFFFFFDB
:10DA5000FFFFFFFFFFFFFFFFFFFFFBDE8E7314A53D
:10DA6000F39CAE73DFFFFFFFFFFFFFFF718C6D6B59
:10DA70005DEFFFFFFFFFFFFFFFFFFFFFFFFFFFFF68
:10DA8000FFFFFFFFFFFFFFFFFFFFFFFFFFFFFFFFA6
:10DA9000FFFFFFFFFFFFFFFFFFFFFFFFFFFFFFFF96
:10DAA000FFFFFFFFFFFFFFFFFFFFFFFFFFFFFFFF86
:10DAB000FFFFFFFFFFFFFFFFFFFFFFFFFFFFFFFF76
:10DAC000FFFFFFFFFFFFFFFFFFFFFFFFFFFFFFFF66
:10DAD000FFFFFFFFFFFFFFFFFFFFFFFFFFFFFFFF56
:10DAE000FFFFFFFFFFFFFFFFFFFFFFFFFFFFFFFF46
:10DAF000FFFFFFFFFFFFFFFFFFFFFFFFFFFFFFFF36
:10DB0000FFFFFFFFFFFFFFFFFFFFFFFFFFFFFFFF25
:10DB1000FFFFFFFFFFFFFFFFFFFFFFFFFFFFFFFF15
:10DB2000FFFFFFFFFFFFFFFFFFFFFFFFFFFFFFFF05
:10DB3000FFFFFFFFFFFFFFFFFFFFFFFFFFFFFFFFF5
:10DB4000FFFFFFFFFFFFFFFFFFFFFFFFFFFFFFFFE5
:10DB5000FFFFFFFFFFFFFFFFFFFFFFFFFFFFFFFFD5
:10DB6000FFFFFFFFFFFFFFFFFFFFFFFFFFFFFFFFC5
:10DB7000FFFFFFFFFFFFFFFFFFFFFFFFFFFFFFFFB5
:10DB8000FFFFFFFFFFFFFFFFFFFFFFFFFFFFFFFFA5
:10DB9000FFFFFFFFFFFFFFFFFFFFFFFFFFFFFFFF95
:10DBA000FFFFFFFFFFFFFFFFFFFFFFFFFFFFFFFF85
:10DBB000FFFFFFFFFFFFFFFFFFFFFFFFFFFFFFFF75
:10DBC000FFFFFFFFFFFFFFFFFFFFFFFFFFFFFFFF65
:10DBD000FFFFFFFFFFFFFFFFFFFFFFFFFFFFFFFF55
:10DBE000FFFFFFFFFFFFFFFFFFFFFFFFFFFFFFFF45
:10DBF000FFFFFFFFFFFFFFFFFFFFFFFFFFFFFFFF35
:10DC0000FFFFFFFFFFFFFFFFFFFFFFFFFFFFFFFF24
:10DC10008E73AE73FFFFFFFFFFFFFFFF9294718CC7
:10DC2000B2944D6B79CEFFFFFFFFFFFFFFFFFFFFB9
:10DC3000FFFFFFFFFFFF5DEF1CE7B6B5694AEF7B13
:10DC4000AE73AA5218C65DEFFFFFFFFF92946D6B93
:10DC50005DEFFFFFFFFFFFFFFFFFFFFFFFFFFFFF86
:10DC6000FFFFFFFFFFFFFFFFFFFFFFFFFFFFFFFFC4
:10DC7000FFFFFFFFFFFFFFFFFFFFFFFFFFFFFFFFB4
:10DC8000FFFFFFFFFFFFFFFFFFFFFFFFFFFFFFFFA4
:10DC9000FFFFFFFFFFFFFFFFFFFFFFFFFFFFFFFF94
:10DCA000FFFFFFFFFFFFFFFFFFFFFFFFFFFFFFFF84
:10DCB000FFFFFFFFFFFFFFFFFFFFFFFFFFFFFFFF74
:10DCC000FFFFFFFFFFFFFFFFFFFFFFFFFFFFFFFF64
:10DCD000FFFFFFFFFFFFFFFFFFFFFFFFFFFFFFFF54
:10DCE000FFFFFFFFFFFFFFFFFFFFFFFFFFFFFFFF44
:10DCF000FFFFFFFFFFFFFFFFFFFFFFFFFFFFFFFF34
:10DD0000FFFFFFFFFFFFFFFFFFFFFFFFFFFFFFFF23
:10DD1000FFFFFFFFFFFFFFFFFFFFFFFFFFFFFFFF13
:10DD2000FFFFFFFFFFFFFFFFFFFFFFFFFFFFFFFF03
:10DD3000FFFFFFFFFFFFFFFFFFFFFFFFFFFFFFFFF3
:10DD4000FFFFFFFFFFFFFFFFFFFFFFFFFFFFFFFFE3
:10DD5000FFFFFFFFFFFFFFFFFFFFFFFFFFFFFFFFD3
:10DD6000FFFFFFFFFFFFFFFFFFFFFFFFFFFFFFFFC3
:10DD7000FFFFFFFFFFFFFFFFFFFFFFFFFFFFFFFFB3
:10DD8000FFFFFFFFFFFFFFFFFFFFFFFFFFFFFFFFA3
:10DD9000FFFFFFFFFFFFFFFFFFFFFFFFFFFFFFFF93
:10DDA000FFFFFFFFFFFFFFFFFFFFFFFFFFFFFFFF83
:10DDB000FFFFFFFFFFFFFFFFFFFFFFFFFFFFFFFF73
:10DDC000FFFFFFFFFFFFFFFFFFFFFFFFFFFFFFFF63
:10DDD000FFFFFFFFFFFFFFFFFFFFFFFFFFFFFFFF53
:10DDE000FFFFFFFFFFFFFFFFFFFFFFFFFFFFFFFF43
:10DDF0008E73CF7BFFFFFFFF5DEFDBDE6D6B6D6B27
:10DE0000CF7B8A5214A5FBDE1CE7FFFFDFFFFFFF7D
:10DE1000FFFFFFFFFFFF96B56108000041082000EB
:10DE2000000000000421D7BDFFFFFFFF718C6D6B68
:10DE30005DEFFFFFFFFFFFFFFFFFFFFFFFFFFFFFA4
:10DE4000FFFFFFFFFFFFFFFFFFFFFFFFFFFFFFFFE2
:10DE5000FFFFFFFFFFFFFFFFFFFFFFFFFFFFFFFFD2
:10DE6000FFFFFFFFFFFFFFFFFFFFFFFFFFFFFFFFC2
:10DE7000FFFFFFFFFFFFFFFFFFFFFFFFFFFFFFFFB2
:10DE8000FFFFFFFFFFFFFFFFFFFFFFFFFFFFFFFFA2
:10DE9000FFFFFFFFFFFFFFFFFFFFFFFFFFFFFFFF92
:10DEA000FFFFFFFFFFFFFFFFFFFFFFFFFFFFFFFF82
:10DEB000FFFFFFFFFFFFFFFFFFFFFFFFFFFFFFFF72
:10DEC000FFFFFFFFFFFFFFFFFFFFFFFFFFFFFFFF62
:10DED000FFFFFFFFFFFFFFFFFFFFFFFFFFFFFFFF52
:10DEE000FFFFFFFFFFFFFFFFFFFFFFFFFFFFFFFF42
:10DEF000FFFFFFFFFFFFFFFFFFFFFFFFFFFFFFFF32
:10DF0000FFFFFFFFFFFFFFFFFFFFFFFFFFFFFFFF21
:10DF1000FFFFFFFFFFFFFFFFFFFFFFFFFFFFFFFF11
:10DF2000FFFFFFFFFFFFFFFFFFFFFFFFFFFFFFFF01
:10DF3000FFFFFFFFFFFFFFFFFFFFFFFFFFFFFFFFF1
:10DF4000FFFFFFFFFFFFFFFFFFFFFFFFFFFFFFFFE1
:10DF5000FFFFFFFFFFFFFFFFFFFFFFFFFFFFFFFFD1
:10DF6000FFFFFFFFFFFFFFFFFFFFFFFFFFFFFFFFC1
:10DF7000FFFFFFFFFFFFFFFFFFFFFFFFFFFFFFFFB1
:10DF8000FFFFFFFFFFFFFFFFFFFFFFFFFFFFFFFFA1
:10DF9000FFFFFFFFFFFFFFFFFFFFFFFFFFFFFFFF91
:10DFA000FFFFFFFFFFFFFFFFFFFFFFFFFFFFFFFF81
:10DFB000FFFFFFFFFFFFFFFFFFFFFFFFFFFFFFFF71
:10DFC000FFFFFFFFFFFFFFFFFFFFFFFFFFFFFFFF61
:10DFD0008E73AE73FFFFFFFF79CEA6310000000005
:10DFE0000000410800000000B294FFFFFFFFFFFFA8
:10DFF000FFFFFFFFFFFF96B5610800000000494AE0
:10E00000AE734108A6315DEFFFFFFFFF718C6D6BB2
:10E010005DEFFFFFFFFFFFFFFFFFFFFFFFFFFFFFC2
:10E02000FFFFFFFFFFFFFFFFFFFFFFFFFFFFFFFF00
:10E03000FFFFFFFFFFFFFFFFFFFFFFFFFFFFFFFFF0
:10E04000FFFFFFFFFFFFFFFFFFFFFFFFFFFFFFFFE0
:10E05000FFFFFFFFFFFFFFFFFFFFFFFFFFFFFFFFD0
:10E06000FFFFFFFFFFFFFFFFFFFFFFFFFFFFFFFFC0
:10E07000FFFFFFFFFFFFFFFFFFFFFFFFFFFFFFFFB0
:10E08000FFFFFFFFFFFFFFFFFFFFFFFFFFFFFFFFA0
:10E09000FFFFFFFFFFFFFFFFFFFFFFFFFFFFFFFF90
:10E0A000FFFFFFFFFFFFFFFFFFFFFFFFFFFFFFFF80
:10E0B000FFFFFFFFFFFFFFFFFFFFFFFFFFFFFFFF70
:10E0C000FFFFFFFFFFFFFFFFFFFFFFFFFFFFFFFF60
:10E0D000FFFFFFFFFFFFFFFFFFFFFFFFFFFFFFFF50
:10E0E000FFFFFFFFFFFFFFFFFFFFFFFFFFFFFFFF40
:10E0F000FFFFFFFFFFFFFFFFFFFFFFFFFFFFFFFF30
:10E10000FFFFFFFFFFFFFFFFFFFFFFFFFFFFFFFF1F
:10E11000FFFFFFFFFFFFFFFFFFFFFFFFFFFFFFFF0F
:10E12000FFFFFFFFFFFFFFFFFFFFFFFFFFFFFFFFFF
:10E13000FFFFFFFFFFFFFFFFFFFFFFFFFFFFFFFFEF
:10E14000FFFFFFFFFFFFFFFFFFFFFFFFFFFFFFFFDF
:10E15000FFFFFFFFFFFFFFFFFFFFFFFFFFFFFFFFCF
:10E16000FFFFFFFFFFFFFFFFFFFFFFFFFFFFFFFFBF
:10E17000FFFFFFFFFFFFFFFFFFFFFFFFFFFFFFFFAF
:10E18000FFFFFFFFFFFFFFFFFFFFFFFFFFFFFFFF9F
:10E19000FFFFFFFFFFFFFFFFFFFFFFFFFFFFFFFF8F
:10E1A000FFFFFFFFFFFFFFFFFFFFFFFFFFFFFFFF7F
:10E1B0006D6BCF7BFFFFDFFFFFFFCB5A00006D6B66
:10E1C000EB5A000000000000B294FFFFDFFFFFFFEA
:10E1D000FFFFFFFFFFFF55AD4108000000006D6B22
:10E1E00059CE4529A6317DEFFFFFFFFF718C6D6B86
:10E1F0005DEFFFFFFFFFFFFFFFFFFFFFFFFFFFFFE1
:10E20000FFFFFFFFFFFFFFFFFFFFFFFFFFFFFFFF1E
:10E21000FFFFFFFFFFFFFFFFFFFFFFFFFFFFFFFF0E
:10E22000FFFFFFFFFFFFFFFFFFFFFFFFFFFFFFFFFE
:10E23000FFFFFFFFFFFFFFFFFFFFFFFFFFFFFFFFEE
:10E24000FFFFFFFFFFFFFFFFFFFFFFFFFFFFFFFFDE
:10E25000FFFFFFFFFFFFFFFFFFFFFFFFFFFFFFFFCE
:10E26000FFFFFFFFFFFFFFFFFFFFFFFFFFFFFFFFBE
:10E27000FFFFFFFFFFFFFFFFFFFFFFFFFFFFFFFFAE
:10E28000FFFFFFFFFFFFFFFFFFFFFFFFFFFFFFFF9E
:10E29000FFFFFFFFFFFFFFFFFFFFFFFFFFFFFFFF8E
:10E2A000FFFFFFFFFFFFFFFFFFFFFFFFFFFFFFFF7E
:10E2B000FFFFFFFFFFFFFFFFFFFFFFFFFFFFFFFF6E
:10E2C000FFFFFFFFFFFFFFFFFFFFFFFFFFFFFFFF5E
:10E2D000FFFFFFFFFFFFFFFFFFFFFFFFFFFFFFFF4E
:10E2E000FFFFFFFFFFFFFFFFFFFFFFFFFFFFFFFF3E
:10E2F000FFFFFFFFFFFFFFFFFFFFFFFFFFFFFFFF2E
:10E30000FFFFFFFFFFFFFFFFFFFFFFFFFFFFFFFF1D
:10E31000FFFFFFFFFFFFFFFFFFFFFFFFFFFFFFFF0D
:10E32000FFFFFFFFFFFFFFFFFFFFFFFFFFFFFFFFFD
:10E33000FFFFFFFFFFFFFFFFFFFFFFFFFFFFFFFFED
:10E34000FFFFFFFFFFFFFFFFFFFFFFFFFFFFFFFFDD
:10E35000FFFFFFFFFFFFFFFFFFFFFFFFFFFFFFFFCD
:10E36000FFFFFFFFFFFFFFFFFFFFFFFFFFFFFFFFBD
:10E37000FFFFFFFFFFFFFFFFFFFFFFFFFFFFFFFFAD
:10E38000FFFFFFFFFFFFFFFFFFFFFFFFFFFFFFFF9D
:10E39000AE73AE73FFFFFFFFFFFFCB5A821038C68C
:10E3A000B294000000000000B294FFFFFFFFDFFF07
:10E3B000FFFFDFFFFFFF75AD610800000000718CFB
:10E3C0001CE72421C318DBDEFFFFFFFF92942C63C0
:10E3D0005DEFFFFFFFFFFFFFFFFFFFFFFFFFFFFFFF
:10E3E000FFFFFFFFFFFFFFFFFFFFFFFFFFFFFFFF3D
:10E3F000FFFFFFFFFFFFFFFFFFFFFFFFFFFFFFFF2D
:10E40000FFFFFFFFFFFFFFFFFFFFFFFFFFFFFFFF1C
:10E41000FFFFFFFFFFFFFFFFFFFFFFFFFFFFFFFF0C
:10E42000FFFFFFFFFFFFFFFFFFFFFFFFFFFFFFFFFC
:10E43000FFFFFFFFFFFFFFFFFFFFFFFFFFFFFFFFEC
:10E44000FFFFFFFFFFFFFFFFFFFFFFFFFFFFFFFFDC
:10E45000FFFFFFFFFFFFFFFFFFFFFFFFFFFFFFFFCC
:10E46000FFFFFFFFFFFFFFFFFFFFFFFFFFFFFFFFBC
:10E47000FFFFFFFFFFFFFFFFFFFFFFFFFFFFFFFFAC
:10E48000FFFFFFFFFFFFFFFFFFFFFFFFFFFFFFFF9C
:10E49000FFFFFFFFFFFFFFFFFFFFFFFFFFFFFFFF8C
:10E4A000FFFFFFFFFFFFFFFFFFFFFFFFFFFFFFFF7C
:10E4B000FFFFFFFFFFFFFFFFFFFFFFFFFFFFFFFF6C
:10E4C000FFFFFFFFFFFFFFFFFFFFFFFFFFFFFFFF5C
:10E4D000FFFFFFFFFFFFFFFFFFFFFFFFFFFFFFFF4C
:10E4E000FFFFFFFFFFFFFFFFFFFFFFFFFFFFFFFF3C
:10E4F000FFFFFFFFFFFFFFFFFFFFFFFFFFFFFFFF2C
:10E50000FFFFFFFFFFFFFFFFFFFFFFFFFFFFFFFF1B
:10E51000FFFFFFFFFFFFFFFFFFFFFFFFFFFFFFFF0B
:10E52000FFFFFFFFFFFFFFFFFFFFFFFFFFFFFFFFFB
:10E53000FFFFFFFFFFFFFFFFFFFFFFFFFFFFFFFFEB
:10E54000FFFFFFFFFFFFFFFFFFFFFFFFFFFFFFFFDB
:10E55000FFFFFFFFFFFFFFFFFFFFFFFFFFFFFFFFCB
:10E56000FFFFFFFFFFFFFFFFFFFFFFFFFFFFFFFFBB
:10E570006D6BCF7BFFFFFFFF3CE786318210BAD681
:10E5800055AD0000000020009294FFFFDFFFFFFF69
:10E59000FFFFFFFFFFFF9AD624210000410838C685
:10E5A000FBDE00002000B6B5FFFFFFFF92944D6B2D
:10E5B0005DEFFFFFFFFFFFFFFFFFFFFFFFFFFFFF1D
:10E5C000FFFFFFFFFFFFFFFFFFFFFFFFFFFFFFFF5B
:10E5D000FFFFFFFFFFFFFFFFFFFFFFFFFFFFFFFF4B
:10E5E000FFFFFFFFFFFFFFFFFFFFFFFFFFFFFFFF3B
:10E5F000FFFFFFFFFFFFFFFFFFFFFFFFFFFFFFFF2B
:10E60000FFFFFFFFFFFFFFFFFFFFFFFFFFFFFFFF1A
:10E61000FFFFFFFFFFFFFFFFFFFFFFFFFFFFFFFF0A
:10E62000FFFFFFFFFFFFFFFFFFFFFFFFFFFFFFFFFA
:10E63000FFFFFFFFFFFFFFFFFFFFFFFFFFFFFFFFEA
:10E64000FFFFFFFFFFFFFFFFFFFFFFFFFFFFFFFFDA
:10E65000FFFFFFFFFFFFFFFFFFFFFFFFFFFFFFFFCA
:10E66000FFFFFFFFFFFFFFFFFFFFFFFFFFFFFFFFBA
:10E67000FFFFFFFFFFFFFFFFFFFFFFFFFFFFFFFFAA
:10E68000FFFFFFFFFFFFFFFFFFFFFFFFFFFFFFFF9A
:10E69000FFFFFFFFFFFFFFFFFFFFFFFFFFFFFFFF8A
:10E6A000FFFFFFFFFFFFFFFFFFFFFFFFFFFFFFFF7A
:10E6B000FFFFFFFFFFFFFFFFFFFFFFFFFFFFFFFF6A
:10E6C000FFFFFFFFFFFFFFFFFFFFFFFFFFFFFFFF5A
:10E6D000FFFFFFFFFFFFFFFFFFFFFFFFFFFFFFFF4A
:10E6E000FFFFFFFFFFFFFFFFFFFFFFFFFFFFFFFF3A
:10E6F000FFFFFFFFFFFFFFFFFFFFFFFFFFFFFFFF2A
:10E70000FFFFFFFFFFFFFFFFFFFFFFFFFFFFFFFF19
:10E71000FFFFFFFFFFFFFFFFFFFFFFFFFFFFFFFF09
:10E72000FFFFFFFFFFFFFFFFFFFFFFFFFFFFFFFFF9
:10E73000FFFFFFFFFFFFFFFFFFFFFFFFFFFFFFFFE9
:10E74000FFFFFFFFFFFFFFFFFFFFFFFFFFFFFFFFD9
:10E750006D6BAE73FFFFFFFF38C6C318000038C6ED
:10E76000DBDE24210000A210F7BDFFFFFFFFFFFF4B
:10E77000FFFFFFFFDFFFFFFF8E732000C7391CE79D
:10E78000308400000C63FFFFDFFFFFFF518C4D6BF7
:10E790005DEFFFFFFFFFFFFFFFFFFFFFFFFFFFFF3B
:10E7A000FFFFFFFFFFFFFFFFFFFFFFFFFFFFFFFF79
:10E7B000FFFFFFFFFFFFFFFFFFFFFFFFFFFFFFFF69
:10E7C000FFFFFFFFFFFFFFFFFFFFFFFFFFFFFFFF59
:10E7D000FFFFFFFFFFFFFFFFFFFFFFFFFFFFFFFF49
:10E7E000FFFFFFFFFFFFFFFFFFFFFFFFFFFFFFFF39
:10E7F000FFFFFFFFFFFFFFFFFFFFFFFFFFFFFFFF29
:10E80000FFFFFFFFFFFFFFFFFFFFFFFFFFFFFFFF18
:10E81000FFFFFFFFFFFFFFFFFFFFFFFFFFFFFFFF08
:10E82000FFFFFFFFFFFFFFFFFFFFFFFFFFFFFFFFF8
:10E83000FFFFFFFFFFFFFFFFFFFFFFFFFFFFFFFFE8
:10E84000FFFFFFFFFFFFFFFFFFFFFFFFFFFFFFFFD8
:10E85000FFFFFFFFFFFFFFFFFFFFFFFFFFFFFFFFC8
:10E86000FFFFFFFFFFFFFFFFFFFFFFFFFFFFFFFFB8
:10E87000FFFFFFFFFFFFFFFFFFFFFFFFFFFFFFFFA8
:10E88000FFFFFFFFFFFFFFFFFFFFFFFFFFFFFFFF98
:10E89000FFFFFFFFFFFFFFFFFFFFFFFFFFFFFFFF88
:10E8A000FFFFFFFFFFFFFFFFFFFFFFFFFFFFFFFF78
:10E8B000FFFFFFFFFFFFFFFFFFFFFFFFFFFFFFFF68
:10E8C000FFFFFFFFFFFFFFFFFFFFFFFFFFFFFFFF58
:10E8D000FFFFFFFFFFFFFFFFFFFFFFFFFFFFFFFF48
:10E8E000FFFFFFFFFFFFFFFFFFFFFFFFFFFFFFFF38
:10E8F000FFFFFFFFFFFFFFFFFFFFFFFFFFFFFFFF28
:10E90000FFFFFFFFFFFFFFFFFFFFFFFFFFFFFFFF17
:10E91000FFFFFFFFFFFFFFFFFFFFFFFFFFFFFFFF07
:10E92000FFFFFFFFFFFFFFFFFFFFFFFFFFFFFFFFF7
:10E930008E73CF7BFFFFDFFFFFFFEF7B0000EB5A03
:10E940009EF72C630000694ABEF7FFFFFFFFDFFF61
:10E95000FFFFDFFFFFFFFFFF518C0000718CDBDE4C
:10E96000C3180000B294FFFFFFFFFFFF92946D6B8E
:10E970005DEFFFFFFFFFFFFFFFFFFFFFFFFFFFFF59
:10E98000FFFFFFFFFFFFFFFFFFFFFFFFFFFFFFFF97
:10E99000FFFFFFFFFFFFFFFFFFFFFFFFFFFFFFFF87
:10E9A000FFFFFFFFFFFFFFFFFFFFFFFFFFFFFFFF77
:10E9B000FFFFFFFFFFFFFFFFFFFFFFFFFFFFFFFF67
:10E9C000FFFFFFFFFFFFFFFFFFFFFFFFFFFFFFFF57
:10E9D000FFFFFFFFFFFFFFFFFFFFFFFFFFFFFFFF47
:10E9E000FFFFFFFFFFFFFFFFFFFFFFFFFFFFFFFF37
:10E9F000FFFFFFFFFFFFFFFFFFFFFFFFFFFFFFFF27
:10EA0000FFFFFFFFFFFFFFFFFFFFFFFFFFFFFFFF16
:10EA1000FFFFFFFFFFFFFFFFFFFFFFFFFFFFFFFF06
:10EA2000FFFFFFFFFFFFFFFFFFFFFFFFFFFFFFFFF6
:10EA3000FFFFFFFFFFFFFFFFFFFFFFFFFFFFFFFFE6
:10EA4000FFFFFFFFFFFFFFFFFFFFFFFFFFFFFFFFD6
:10EA5000FFFFFFFFFFFFFFFFFFFFFFFFFFFFFFFFC6
:10EA6000FFFFFFFFFFFFFFFFFFFFFFFFFFFFFFFFB6
:10EA7000FFFFFFFFFFFFFFFFFFFFFFFFFFFFFFFFA6
:10EA8000FFFFFFFFFFFFFFFFFFFFFFFFFFFFFFFF96
:10EA9000FFFFFFFFFFFFFFFFFFFFFFFFFFFFFFFF86
:10EAA000FFFFFFFFFFFFFFFFFFFFFFFFFFFFFFFF76
:10EAB000FFFFFFFFFFFFFFFFFFFFFFFFFFFFFFFF66
:10EAC000FFFFFFFFFFFFFFFFFFFFFFFFFFFFFFFF56
:10EAD000FFFFFFFFFFFFFFFFFFFFFFFFFFFFFFFF46
:10EAE000FFFFFFFFFFFFFFFFFFFFFFFFFFFFFFFF36
:10EAF000FFFFFFFFFFFFFFFFFFFFFFFFFFFFFFFF26
:10EB0000FFFFFFFFFFFFFFFFFFFFFFFFFFFFFFFF15
:10EB10004D6BCF7BDFFFFFFFDFFFF7BD2000000065
:10EB200038C655AD00004D6BDFFFFFFFFFFFFFFF55
:10EB3000FFFFFFFFFFFFFFFFEF7BAA52F7BD6D6BEB
:10EB4000000000006D6BFFFFFFFFFFFF92944D6B15
:10EB50005DEFFFFFFFFFFFFFFFFFFFFFFFFFFFFF77
:10EB6000FFFFFFFFFFFFFFFFFFFFFFFFFFFFFFFFB5
:10EB7000FFFFFFFFFFFFFFFFFFFFFFFFFFFFFFFFA5
:10EB8000FFFFFFFFFFFFFFFFFFFFFFFFFFFFFFFF95
:10EB9000FFFFFFFFFFFFFFFFFFFFFFFFFFFFFFFF85
:10EBA000FFFFFFFFFFFFFFFFFFFFFFFFFFFFFFFF75
:10EBB000FFFFFFFFFFFFFFFFFFFFFFFFFFFFFFFF65
:10EBC000FFFFFFFFFFFFFFFFFFFFFFFFFFFFFFFF55
:10EBD000FFFFFFFFFFFFFFFFFFFFFFFFFFFFFFFF45
:10EBE000FFFFFFFFFFFFFFFFFFFFFFFFFFFFFFFF35
:10EBF000FFFFFFFFFFFFFFFFFFFFFFFFFFFFFFFF25
:10EC0000FFFFFFFFFFFFFFFFFFFFFFFFFFFFFFFF14
:10EC1000FFFFFFFFFFFFFFFFFFFFFFFFFFFFFFFF04
:10EC2000FFFFFFFFFFFFFFFFFFFFFFFFFFFFFFFFF4
:10EC3000FFFFFFFFFFFFFFFFFFFFFFFFFFFFFFFFE4
:10EC4000FFFFFFFFFFFFFFFFFFFFFFFFFFFFFFFFD4
:10EC5000FFFFFFFFFFFFFFFFFFFFFFFFFFFFFFFFC4
:10EC6000FFFFFFFFFFFFFFFFFFFFFFFFFFFFFFFFB4
:10EC7000FFFFFFFFFFFFFFFFFFFFFFFFFFFFFFFFA4
:10EC8000FFFFFFFFFFFFFFFFFFFFFFFFFFFFFFFF94
:10EC9000FFFFFFFFFFFFFFFFFFFFFFFFFFFFFFFF84
:10ECA000FFFFFFFFFFFFFFFFFFFFFFFFFFFFFFFF74
:10ECB000FFFFFFFFFFFFFFFFFFFFFFFFFFFFFFFF64
:10ECC000FFFFFFFFFFFFFFFFFFFFFFFFFFFFFFFF54
:10ECD000FFFFFFFFFFFFFFFFFFFFFFFFFFFFFFFF44
:10ECE000FFFFFFFFFFFFFFFFFFFFFFFFFFFFFFFF34
:10ECF0008E738E73FFFFFFFFFFFF518C000000003B
:10ED0000284218C62C634D6BFFFFFFFFFFFFFFFF7C
:10ED1000DFFFFFFFFFFFFFFFEF7BEB5A8A52000090
:10ED200000002000AE73DFFFFFFFFFFF718C6D6BF3
:10ED30007DEFFFFFFFFFFFFFFFFFFFFFFFFFFFFF75
:10ED4000FFFFFFFFFFFFFFFFFFFFFFFFFFFFFFFFD3
:10ED5000FFFFFFFFFFFFFFFFFFFFFFFFFFFFFFFFC3
:10ED6000FFFFFFFFFFFFFFFFFFFFFFFFFFFFFFFFB3
:10ED7000FFFFFFFFFFFFFFFFFFFFFFFFFFFFFFFFA3
:10ED8000FFFFFFFFFFFFFFFFFFFFFFFFFFFFFFFF93
:10ED9000FFFFFFFFFFFFFFFFFFFFFFFFFFFFFFFF83
:10EDA000FFFFFFFFFFFFFFFFFFFFFFFFFFFFFFFF73
:10EDB000FFFFFFFFFFFFFFFFFFFFFFFFFFFFFFFF63
:10EDC000FFFFFFFFFFFFFFFFFFFFFFFFFFFFFFFF53
:10EDD000FFFFFFFFFFFFFFFFFFFFFFFFFFFFFFFF43
:10EDE000FFFFFFFFFFFFFFFFFFFFFFFFFFFFFFFF33
:10EDF000FFFFFFFFFFFFFFFFFFFFFFFFFFFFFFFF23
:10EE0000FFFFFFFFFFFFFFFFFFFFFFFFFFFFFFFF12
:10EE1000FFFFFFFFFFFFFFFFFFFFFFFFFFFFFFFF02
:10EE2000FFFFFFFFFFFFFFFFFFFFFFFFFFFFFFFFF2
:10EE3000FFFFFFFFFFFFFFFFFFFFFFFFFFFFFFFFE2
:10EE4000FFFFFFFFFFFFFFFFFFFFFFFFFFFFFFFFD2
:10EE5000FFFFFFFFFFFFFFFFFFFFFFFFFFFFFFFFC2
:10EE6000FFFFFFFFFFFFFFFFFFFFFFFFFFFFFFFFB2
:10EE7000FFFFFFFFFFFFFFFFFFFFFFFFFFFFFFFFA2
:10EE8000FFFFFFFFFFFFFFFFFFFFFFFFFFFFFFFF92
:10EE9000FFFFFFFFFFFFFFFFFFFFFFFFFFFFFFFF82
:10EEA000FFFFFFFFFFFFFFFFFFFFFFFFFFFFFFFF72
:10EEB000FFFFFFFFFFFFFFFFFFFFFFFFFFFFFFFF62
:10EEC000FFFFFFFFFFFFFFFFFFFFFFFFFFFFFFFF52
:10EED0006D6BEF7BFFFFFFFFFFFF929400000000D0
:10EEE00000000842CB5A8E733CE7FFFFFFFFFFFF95
:10EEF000FFFFDFFFFFFF79CE2421000000000000AC
:10EF0000E31896B5FFFFFFFFFFFFFFFF718C6D6BEE
:10EF10007DEFFFFFFFFFFFFFFFFFFFFFFFFFFFFF93
:10EF2000FFFFFFFFFFFFFFFFFFFFFFFFFFFFFFFFF1
:10EF3000FFFFFFFFFFFFFFFFFFFFFFFFFFFFFFFFE1
:10EF4000FFFFFFFFFFFFFFFFFFFFFFFFFFFFFFFFD1
:10EF5000FFFFFFFFFFFFFFFFFFFFFFFFFFFFFFFFC1
:10EF6000FFFFFFFFFFFFFFFFFFFFFFFFFFFFFFFFB1
:10EF7000FFFFFFFFFFFFFFFFFFFFFFFFFFFFFFFFA1
:10EF8000FFFFFFFFFFFFFFFFFFFFFFFFFFFFFFFF91
:10EF9000FFFFFFFFFFFFFFFFFFFFFFFFFFFFFFFF81
:10EFA000FFFFFFFFFFFFFFFFFFFFFFFFFFFFFFFF71
:10EFB000FFFFFFFFFFFFFFFFFFFFFFFFFFFFFFFF61
:10EFC000FFFFFFFFFFFFFFFFFFFFFFFFFFFFFFFF51
:10EFD000FFFFFFFFFFFFFFFFFFFFFFFFFFFFFFFF41
:10EFE000FFFFFFFFFFFFFFFFFFFFFFFFFFFFFFFF31
:10EFF000FFFFFFFFFFFFFFFFFFFFFFFFFFFFFFFF21
:10F00000FFFFFFFFFFFFFFFFFFFFFFFFFFFFFFFF10
:10F01000FFFFFFFFFFFFFFFFFFFFFFFFFFFFFFFF00
:10F02000FFFFFFFFFFFFFFFFFFFFFFFFFFFFFFFFF0
:10F03000FFFFFFFFFFFFFFFFFFFFFFFFFFFFFFFFE0
:10F04000FFFFFFFFFFFFFFFFFFFFFFFFFFFFFFFFD0
:10F05000FFFFFFFFFFFFFFFFFFFFFFFFFFFFFFFFC0
:10F06000FFFFFFFFFFFFFFFFFFFFFFFFFFFFFFFFB0
:10F07000FFFFFFFFFFFFFFFFFFFFFFFFFFFFFFFFA0
:10F08000FFFFFFFFFFFFFFFFFFFFFFFFFFFFFFFF90
:10F09000FFFFFFFFFFFFFFFFFFFFFFFFFFFFFFFF80
:10F0A000FFFFFFFFFFFFFFFFFFFFFFFFFFFFFFFF70
:10F0B0006D6B8E73FFFFFFFFDFFFFFFF59CEA631A1
:10F0C000200000000000A210B6B5FFFFFFFFFFFF09
:10F0D000FFFFFFFFFFFF55ADAA52242100000421CE
:10F0E00018C6FFFFFFFF718C718CFFFFF39C6D6BE7
:10F0F0007DEFFFFFFFFFFFFFFFFFFFFFFFFFFFFFB2
:10F10000FFFFFFFFFFFFFFFFFFFFFFFFFFFFFFFF0F
:10F11000FFFFFFFFFFFFFFFFFFFFFFFFFFFFFFFFFF
:10F12000FFFFFFFFFFFFFFFFFFFFFFFFFFFFFFFFEF
:10F13000FFFFFFFFFFFFFFFFFFFFFFFFFFFFFFFFDF
:10F14000FFFFFFFFFFFFFFFFFFFFFFFFFFFFFFFFCF
:10F15000FFFFFFFFFFFFFFFFFFFFFFFFFFFFFFFFBF
:10F16000FFFFFFFFFFFFFFFFFFFFFFFFFFFFFFFFAF
:10F17000FFFFFFFFFFFFFFFFFFFFFFFFFFFFFFFF9F
:10F18000FFFFFFFFFFFFFFFFFFFFFFFFFFFFFFFF8F
:10F19000FFFFFFFFFFFFFFFFFFFFFFFFFFFFFFFF7F
:10F1A000FFFFFFFFFFFFFFFFFFFFFFFFFFFFFFFF6F
:10F1B000FFFFFFFFFFFFFFFFFFFFFFFFFFFFFFFF5F
:10F1C000FFFFFFFFFFFFFFFFFFFFFFFFFFFFFFFF4F
:10F1D000FFFFFFFFFFFFFFFFFFFFFFFFFFFFFFFF3F
:10F1E000FFFFFFFFFFFFFFFFFFFFFFFFFFFFFFFF2F
:10F1F000FFFFFFFFFFFFFFFFFFFFFFFFFFFFFFFF1F
:10F20000FFFFFFFFFFFFFFFFFFFFFFFFFFFFFFFF0E
:10F21000FFFFFFFFFFFFFFFFFFFFFFFFFFFFFFFFFE
:10F22000FFFFFFFFFFFFFFFFFFFFFFFFFFFFFFFFEE
:10F23000FFFFFFFFFFFFFFFFFFFFFFFFFFFFFFFFDE
:10F24000FFFFFFFFFFFFFFFFFFFFFFFFFFFFFFFFCE
:10F25000FFFFFFFFFFFFFFFFFFFFFFFFFFFFFFFFBE
:10F26000FFFFFFFFFFFFFFFFFFFFFFFFFFFFFFFFAE
:10F27000FFFFFFFFFFFFFFFFFFFFFFFFFFFFFFFF9E
:10F28000FFFFFFFFFFFFFFFFFFFFFFFFFFFFFFFF8E
:10F290006D6BEF7BFFFFF39CAE73BEF7DFFFDBDE32
:10F2A00086310000E318494A34A5FFFFFFFFFFFF46
:10F2B000DFFFFFFFFFFF55AD65290000A21018C654
:10F2C000FFFF7DEF0C630000EF7BFFFFF39C8E736D
:10F2D0007DEFFFFFFFFFFFFFFFFFFFFFFFFFFFFFD0
:10F2E000FFFFFFFFFFFFFFFFFFFFFFFFFFFFFFFF2E
:10F2F000FFFFFFFFFFFFFFFFFFFFFFFFFFFFFFFF1E
:10F30000FFFFFFFFFFFFFFFFFFFFFFFFFFFFFFFF0D
:10F31000FFFFFFFFFFFFFFFFFFFFFFFFFFFFFFFFFD
:10F32000FFFFFFFFFFFFFFFFFFFFFFFFFFFFFFFFED
:10F33000FFFFFFFFFFFFFFFFFFFFFFFFFFFFFFFFDD
:10F34000FFFFFFFFFFFFFFFFFFFFFFFFFFFFFFFFCD
:10F35000FFFFFFFFFFFFFFFFFFFFFFFFFFFFFFFFBD
:10F36000FFFFFFFFFFFFFFFFFFFFFFFFFFFFFFFFAD
:10F37000FFFFFFFFFFFFFFFFFFFFFFFFFFFFFFFF9D
:10F38000FFFFFFFFFFFFFFFFFFFFFFFFFFFFFFFF8D
:10F39000FFFFFFFFFFFFFFFFFFFFFFFFFFFFFFFF7D
:10F3A000FFFFFFFFFFFFFFFFFFFFFFFFFFFFFFFF6D
:10F3B000FFFFFFFFFFFFFFFFFFFFFFFFFFFFFFFF5D
:10F3C000FFFFFFFFFFFFFFFFFFFFFFFFFFFFFFFF4D
:10F3D000FFFFFFFFFFFFFFFFFFFFFFFFFFFFFFFF3D
:10F3E000FFFFFFFFFFFFFFFFFFFFFFFFFFFFFFFF2D
:10F3F000FFFFFFFFFFFFFFFFFFFFFFFFFFFFFFFF1D
:10F40000FFFFFFFFFFFFFFFFFFFFFFFFFFFFFFFF0C
:10F41000FFFFFFFFFFFFFFFFFFFFFFFFFFFFFFFFFC
:10F42000FFFFFFFFFFFFFFFFFFFFFFFFFFFFFFFFEC
:10F43000FFFFFFFFFFFFFFFFFFFFFFFFFFFFFFFFDC
:10F44000FFFFFFFFFFFFFFFFFFFFFFFFFFFFFFFFCC
:10F45000FFFFFFFFFFFFFFFFFFFFFFFFFFFFFFFFBC
:10F46000FFFFFFFFFFFFFFFFFFFFFFFFFFFFFFFFAC
:10F470008E731084FFFFB29400000842BAD6FFFFDB
:10F48000DBDE24210000042114A5FFFFDFFFFFFFC6
:10F49000FFFFDFFFFFFFB2940000000096B5FFFF03
:10F4A000CF7B00000000000075ADFFFFB2944D6BF4
:10F4B0007DEFFFFFFFFFFFFFFFFFFFFFFFFFFFFFEE
:10F4C000FFFFFFFFFFFFFFFFFFFFFFFFFFFFFFFF4C
:10F4D000FFFFFFFFFFFFFFFFFFFFFFFFFFFFFFFF3C
:10F4E000FFFFFFFFFFFFFFFFFFFFFFFFFFFFFFFF2C
:10F4F000FFFFFFFFFFFFFFFFFFFFFFFFFFFFFFFF1C
:10F50000FFFFFFFFFFFFFFFFFFFFFFFFFFFFFFFF0B
:10F51000FFFFFFFFFFFFFFFFFFFFFFFFFFFFFFFFFB
:10F52000FFFFFFFFFFFFFFFFFFFFFFFFFFFFFFFFEB
:10F53000FFFFFFFFFFFFFFFFFFFFFFFFFFFFFFFFDB
:10F54000FFFFFFFFFFFFFFFFFFFFFFFFFFFFFFFFCB
:10F55000FFFFFFFFFFFFFFFFFFFFFFFFFFFFFFFFBB
:10F56000FFFFFFFFFFFFFFFFFFFFFFFFFFFFFFFFAB
:10F57000FFFFFFFFFFFFFFFFFFFFFFFFFFFFFFFF9B
:10F58000FFFFFFFFFFFFFFFFFFFFFFFFFFFFFFFF8B
:10F59000FFFFFFFFFFFFFFFFFFFFFFFFFFFFFFFF7B
:10F5A000FFFFFFFFFFFFFFFFFFFFFFFFFFFFFFFF6B
:10F5B000FFFFFFFFFFFFFFFFFFFFFFFFFFFFFFFF5B
:10F5C000FFFFFFFFFFFFFFFFFFFFFFFFFFFFFFFF4B
:10F5D000FFFFFFFFFFFFFFFFFFFFFFFFFFFFFFFF3B
:10F5E000FFFFFFFFFFFFFFFFFFFFFFFFFFFFFFFF2B
:10F5F000FFFFFFFFFFFFFFFFFFFFFFFFFFFFFFFF1B
:10F60000FFFFFFFFFFFFFFFFFFFFFFFFFFFFFFFF0A
:10F61000FFFFFFFFFFFFFFFFFFFFFFFFFFFFFFFFFA
:10F62000FFFFFFFFFFFFFFFFFFFFFFFFFFFFFFFFEA
:10F63000FFFFFFFFFFFFFFFFFFFFFFFFFFFFFFFFDA
:10F64000FFFFFFFFFFFFFFFFFFFFFFFFFFFFFFFFCA
:10F650008E733084FFFF9AD6C31800000000EB5A67
:10F66000FFFF9AD641080000EF7BFFFFFFFFFFFF7F
:10F67000DFFFFFFFFFFF34A500000842FFFFF39C00
:10F68000242134A5FFFFCF7B28421CE775AD4D6BCD
:10F690007DEFFFFFFFFFFFFFFFFFFFFFFFFFFFFF0C
:10F6A000FFFFFFFFFFFFFFFFFFFFFFFFFFFFFFFF6A
:10F6B000FFFFFFFFFFFFFFFFFFFFFFFFFFFFFFFF5A
:10F6C000FFFFFFFFFFFFFFFFFFFFFFFFFFFFFFFF4A
:10F6D000FFFFFFFFFFFFFFFFFFFFFFFFFFFFFFFF3A
:10F6E000FFFFFFFFFFFFFFFFFFFFFFFFFFFFFFFF2A
:10F6F000FFFFFFFFFFFFFFFFFFFFFFFFFFFFFFFF1A
:10F70000FFFFFFFFFFFFFFFFFFFFFFFFFFFFFFFF09
:10F71000FFFFFFFFFFFFFFFFFFFFFFFFFFFFFFFFF9
:10F72000FFFFFFFFFFFFFFFFFFFFFFFFFFFFFFFFE9
:10F73000FFFFFFFFFFFFFFFFFFFFFFFFFFFFFFFFD9
:10F74000FFFFFFFFFFFFFFFFFFFFFFFFFFFFFFFFC9
:10F75000FFFFFFFFFFFFFFFFFFFFFFFFFFFFFFFFB9
:10F76000FFFFFFFFFFFFFFFFFFFFFFFFFFFFFFFFA9
:10F77000FFFFFFFFFFFFFFFFFFFFFFFFFFFFFFFF99
:10F78000FFFFFFFFFFFFFFFFFFFFFFFFFFFFFFFF89
:10F79000FFFFFFFFFFFFFFFFFFFFFFFFFFFFFFFF79
:10F7A000FFFFFFFFFFFFFFFFFFFFFFFFFFFFFFFF69
:10F7B000FFFFFFFFFFFFFFFFFFFFFFFFFFFFFFFF59
:10F7C000FFFFFFFFFFFFFFFFFFFFFFFFFFFFFFFF49
:10F7D000FFFFFFFFFFFFFFFFFFFFFFFFFFFFFFFF39
:10F7E000FFFFFFFFFFFFFFFFFFFFFFFFFFFFFFFF29
:10F7F000FFFFFFFFFFFFFFFFFFFFFFFFFFFFFFFF19
:10F80000FFFFFFFFFFFFFFFFFFFFFFFFFFFFFFFF08
:10F81000FFFFFFFFFFFFFFFFFFFFFFFFFFFFFFFFF8
:10F82000FFFFFFFFFFFFFFFFFFFFFFFFFFFFFFFFE8
:10F83000AE73518C5DEF0C638A52BEF738C624213B
:10F84000EF7BDFFF6D6B00001084FFFFFFFFFFFF0A
:10F85000FFFFFFFFFFFFF7BD82106D6BDFFF8E73B1
:10F86000108479CEF39C96B52C63308414A5AE73C6
:10F870007DEFFFFFFFFFFFFFFFFFFFFFFFFFFFFF2A
:10F88000FFFFFFFFFFFFFFFFFFFFFFFFFFFFFFFF88
:10F89000FFFFFFFFFFFFFFFFFFFFFFFFFFFFFFFF78
:10F8A000FFFFFFFFFFFFFFFFFFFFFFFFFFFFFFFF68
:10F8B000FFFFFFFFFFFFFFFFFFFFFFFFFFFFFFFF58
:10F8C000FFFFFFFFFFFFFFFFFFFFFFFFFFFFFFFF48
:10F8D000FFFFFFFFFFFFFFFFFFFFFFFFFFFFFFFF38
:10F8E000FFFFFFFFFFFFFFFFFFFFFFFFFFFFFFFF28
:10F8F000FFFFFFFFFFFFFFFFFFFFFFFFFFFFFFFF18
:10F90000FFFFFFFFFFFFFFFFFFFFFFFFFFFFFFFF07
:10F91000FFFFFFFFFFFFFFFFFFFFFFFFFFFFFFFFF7
:10F92000FFFFFFFFFFFFFFFFFFFFFFFFFFFFFFFFE7
:10F93000FFFFFFFFFFFFFFFFFFFFFFFFFFFFFFFFD7
:10F94000FFFFFFFFFFFFFFFFFFFFFFFFFFFFFFFFC7
:10F95000FFFFFFFFFFFFFFFFFFFFFFFFFFFFFFFFB7
:10F96000FFFFFFFFFFFFFFFFFFFFFFFFFFFFFFFFA7
:10F97000FFFFFFFFFFFFFFFFFFFFFFFFFFFFFFFF97
:10F98000FFFFFFFFFFFFFFFFFFFFFFFFFFFFFFFF87
:10F99000FFFFFFFFFFFFFFFFFFFFFFFFFFFFFFFF77
:10F9A000FFFFFFFFFFFFFFFFFFFFFFFFFFFFFFFF67
:10F9B000FFFFFFFFFFFFFFFFFFFFFFFFFFFFFFFF57
:10F9C000FFFFFFFFFFFFFFFFFFFFFFFFFFFFFFFF47
:10F9D000FFFFFFFFFFFFFFFFFFFFFFFFFFFFFFFF37
:10F9E000FFFFFFFFFFFFFFFFFFFFFFFFFFFFFFFF27
:10F9F000FFFFFFFFFFFFFFFFFFFFFFFFFFFFFFFF17
:10FA0000FFFFFFFFFFFFFFFFFFFFFFFFFFFFFFFF06
:10FA1000AE739294718C694AB6B596B538C614A582
:10FA20006D6BBEF7B2940000D39CFFFFFFFFFFFF9A
:10FA3000FFFFFFFFFFFF7DEF65292842FFFF96B51F
:10FA4000E3180000000092941084AE733084108498
:10FA50007DEFFFFFFFFFFFFFFFFFFFFFFFFFFFFF48
:10FA6000FFFFFFFFFFFFFFFFFFFFFFFFFFFFFFFFA6
:10FA7000FFFFFFFFFFFFFFFFFFFFFFFFFFFFFFFF96
:10FA8000FFFFFFFFFFFFFFFFFFFFFFFFFFFFFFFF86
:10FA9000FFFFFFFFFFFFFFFFFFFFFFFFFFFFFFFF76
:10FAA000FFFFFFFFFFFFFFFFFFFFFFFFFFFFFFFF66
:10FAB000FFFFFFFFFFFFFFFFFFFFFFFFFFFFFFFF56
:10FAC000FFFFFFFFFFFFFFFFFFFFFFFFFFFFFFFF46
:10FAD000FFFFFFFFFFFFFFFFFFFFFFFFFFFFFFFF36
:10FAE000FFFFFFFFFFFFFFFFFFFFFFFFFFFFFFFF26
:10FAF000FFFFFFFFFFFFFFFFFFFFFFFFFFFFFFFF16
:10FB0000FFFFFFFFFFFFFFFFFFFFFFFFFFFFFFFF05
:10FB1000FFFFFFFFFFFFFFFFFFFFFFFFFFFFFFFFF5
:10FB2000FFFFFFFFFFFFFFFFFFFFFFFFFFFFFFFFE5
:10FB3000FFFFFFFFFFFFFFFFFFFFFFFFFFFFFFFFD5
:10FB4000FFFFFFFFFFFFFFFFFFFFFFFFFFFFFFFFC5
:10FB5000FFFFFFFFFFFFFFFFFFFFFFFFFFFFFFFFB5
:10FB6000FFFFFFFFFFFFFFFFFFFFFFFFFFFFFFFFA5
:10FB7000FFFFFFFFFFFFFFFFFFFFFFFFFFFFFFFF95
:10FB8000FFFFFFFFFFFFFFFFFFFFFFFFFFFFFFFF85
:10FB9000FFFFFFFFFFFFFFFFFFFFFFFFFFFFFFFF75
:10FBA000FFFFFFFFFFFFFFFFFFFFFFFFFFFFFFFF65
:10FBB000FFFFFFFFFFFFFFFFFFFFFFFFFFFFFFFF55
:10FBC000FFFFFFFFFFFFFFFFFFFFFFFFFFFFFFFF45
:10FBD000FFFFFFFFFFFFFFFFFFFFFFFFFFFFFFFF35
:10FBE000FFFFFFFFFFFFFFFFFFFFFFFFFFFFFFFF25
:10FBF000EF7B718CCF7B8E733084610800008210A4
:10FC00009294FFFF0C63E31879CEFFFFFFFFFFFF25
:10FC1000FFFFFFFFFFFFFFFF9294821055ADFFFF34
:10FC20000C630000EB5AF39C08421084F39CCF7BDA
:10FC30007DEFFFFFDFFFFFFFFFFFFFFFFFFFFFFF86
:10FC4000FFFFFFFFFFFFFFFFFFFFFFFFFFFFFFFFC4
:10FC5000FFFFFFFFFFFFFFFFFFFFFFFFFFFFFFFFB4
:10FC6000FFFFFFFFFFFFFFFFFFFFFFFFFFFFFFFFA4
:10FC7000FFFFFFFFFFFFFFFFFFFFFFFFFFFFFFFF94
:10FC8000FFFFFFFFFFFFFFFFFFFFFFFFFFFFFFFF84
:10FC9000FFFFFFFFFFFFFFFFFFFFFFFFFFFFFFFF74
:10FCA000FFFFFFFFFFFFFFFFFFFFFFFFFFFFFFFF64
:10FCB000FFFFFFFFFFFFFFFFFFFFFFFFFFFFFFFF54
:10FCC000FFFFFFFFFFFFFFFFFFFFFFFFFFFFFFFF44
:10FCD000FFFFFFFFFFFFFFFFFFFFFFFFFFFFFFFF34
:10FCE000FFFFFFFFFFFFFFFFFFFFFFFFFFFFFFFF24
:10FCF000FFFFFFFFFFFFFFFFFFFFFFFFFFFFFFFF14
:10FD0000FFFFFFFFFFFFFFFFFFFFFFFFFFFFFFFF03
:10FD1000FFFFFFFFFFFFFFFFFFFFFFFFFFFFFFFFF3
:10FD2000FFFFFFFFFFFFFFFFFFFFFFFFFFFFFFFFE3
:10FD3000FFFFFFFFFFFFFFFFFFFFFFFFFFFFFFFFD3
:10FD4000FFFFFFFFFFFFFFFFFFFFFFFFFFFFFFFFC3
:10FD5000FFFFFFFFFFFFFFFFFFFFFFFFFFFFFFFFB3
:10FD6000FFFFFFFFFFFFFFFFFFFFFFFFFFFFFFFFA3
:10FD7000FFFFFFFFFFFFFFFFFFFFFFFFFFFFFFFF93
:10FD8000FFFFFFFFFFFFFFFFFFFFFFFFFFFFFFFF83
:10FD9000FFFFFFFFFFFFFFFFFFFFFFFFFFFFFFFF73
:10FDA000FFFFFFFFFFFFFFFFFFFFFFFFFFFFFFFF63
:10FDB000FFFFFFFFFFFFFFFFFFFFFFFFFFFFFFFF53
:10FDC000FFFFFFFFFFFFFFFFFFFFFFFFFFFFFFFF43
:10FDD000CF7BF39CB294C739B294EF7B0000494AC1
:10FDE000FFFF38C6C318AE73FFFFFFFFDFFFFFFF43
:10FDF000FFFFFFFFFFFFFFFFFFFF4D6B6108D39C7D
:10FE00001CE779CE14A50421000075ADB6B5AE731C
:10FE10009EF7FFFFFFFFFFFFFFFFFFFFFFFFFFFF5B
:10FE2000DFFFFFFFFFFFFFFFFFFFFFFFFFFFFFFF02
:10FE3000FFFFFFFFFFFFFFFFDFFFFFFFFFFFFFFFF2
:10FE4000FFFFFFFFFFFFFFFFFFFFFFFFFFFFFFFFC2
:10FE5000FFFFFFFFFFFFFFFFFFFFFFFFFFFFFFFFB2
:10FE6000FFFFFFFFFFFFFFFFFFFFFFFFFFFFFFFFA2
:10FE7000FFFFFFFFFFFFFFFFFFFFFFFFFFFFFFFF92
:10FE8000FFFFFFFFFFFFFFFFFFFFFFFFFFFFFFFF82
:10FE9000FFFFFFFFFFFFFFFFFFFFFFFFFFFFFFFF72
:10FEA000FFFFFFFFFFFFFFFFFFFFFFFFFFFFFFFF62
:10FEB000FFFFFFFFFFFFFFFFFFFFFFFFFFFFFFFF52
:10FEC000FFFFFFFFFFFFFFFFFFFFFFFFFFFFFFFF42
:10FED000FFFFFFFFFFFFFFFFFFFFFFFFFFFFFFFF32
:10FEE000FFFFFFFFFFFFFFFFFFFFFFFFFFFFFFFF22
:10FEF000FFFFFFFFFFFFFFFFFFFFFFFFFFFFFFFF12
:10FF0000FFFFFFFFFFFFFFFFFFFFFFFFFFFFFFFF01
:10FF1000FFFFFFFFFFFFFFFFFFFFFFFFFFFFFFFFF1
:10FF2000FFFFFFFFFFFFFFFFFFFFFFFFFFFFFFFFE1
:10FF3000FFFFFFFFFFFFFFFFFFFFFFFFFFFFFFFFD1
:10FF4000FFFFFFFFFFFFFFFFFFFFFFFFFFFFFFFFC1
:10FF5000FFFFFFFFFFFFFFFFFFFFFFFFFFFFFFFFB1
:10FF6000FFFFFFFFFFFFFFFFFFFFFFFFFFFFFFFFA1
:10FF7000FFFFFFFFFFFFFFFFFFFFFFFFFFFFFFFF91
:10FF8000FFFFFFFFFFFFFFFFFFFFFFFFFFFFFFFF81
:10FF9000FFFFFFFFFFFFFFFFFFFFFFFFFFFFFFFF71
:10FFA000FFFFFFFFFFFFFFFFFFFFFFFFDFFFFFFF81
:10FFB000308434A5F7BD20002000718C79CE3CE759
:10FFC000D7BD0421C739FBDEFFFFBEF7FFFFFFFFF0
:10FFD000FFFFDFFFFFFFFFFFF39C8631610800009A
:10FFE0004108821000006529494A34A5B294E739D6
:10FFF0008E73718C1084308430841084EF7B308455
:020000040801F1
:1000000030843084108410841084308430841084D0
:10001000518C308430843084308430843084308417
:100020003084308430843084308430843084308430
:100030003084308430843084308430843084308420
:100040003084308430843084308430843084308410
:100050003084308430843084308430843084308400
:1000600030843084308430843084308430843084F0
:1000700030843084308430843084308430843084E0
:1000800030843084308430843084308430843084D0
:1000900030843084308430843084308430843084C0
:1000A00030843084308430843084308430843084B0
:1000B00030843084308430843084308430843084A0
:1000C0003084308430843084308430843084308490
:1000D0003084308430843084308430843084308480
:1000E0003084308430843084308430843084308470
:1000F0003084308430843084308430843084308460
:10010000308430843084308430843084308430844F
:10011000308430843084308430843084308430843F
:10012000308430843084308430843084308430842F
:10013000308430843084308430843084308430841F
:10014000308430843084308430843084308430840F
:1001500030843084308430843084308430843084FF
:10016000308430841084518C30841084518C1084FD
:10017000308430843084308410841084108430843F
:10018000518CEF7B3084108430843084718C1084E7
:10019000C739B29496B5AA52652920008210200072
:1001A0000000821004213084FFFFFFFFFFFFFFFFEC
:1001B000DFFFFFFFFFFF1CE7084265291084308442
:1001C0008E73EF7B59CEFFFF55AD718CFBDE96B57C
:1001D000718C718CD39CD39CB29430841084CF7B6F
:1001E000EF7BCF7BCF7BCF7BCF7BCF7BAE73CF7BC8
:1001F000CF7BCF7BCF7BCF7BCF7BEF7BCF7BCF7B8F
:10020000CF7BCF7BCF7BCF7BCF7BCF7BCF7BCF7B9E
:10021000CF7BCF7BCF7BCF7BCF7BCF7BCF7BCF7B8E
:10022000CF7BCF7BCF7BCF7BCF7BCF7BCF7BCF7B7E
:10023000CF7BCF7BCF7BCF7BCF7BCF7BCF7BCF7B6E
:10024000CF7BCF7BCF7BCF7BCF7BCF7BCF7BCF7B5E
:10025000CF7BCF7BCF7BCF7BCF7BCF7BCF7BCF7B4E
:10026000CF7BCF7BCF7BCF7BCF7BCF7BCF7BCF7B3E
:10027000CF7BCF7BCF7BCF7BCF7BCF7BCF7BCF7B2E
:10028000CF7BCF7BCF7BCF7BCF7BCF7BCF7BCF7B1E
:10029000CF7BCF7BCF7BCF7BCF7BCF7BCF7BCF7B0E
:1002A000CF7BCF7BCF7BCF7BCF7BCF7BCF7BCF7BFE
:1002B000CF7BCF7BCF7BCF7BCF7BCF7BCF7BCF7BEE
:1002C000CF7BCF7BCF7BCF7BCF7BCF7BCF7BCF7BDE
:1002D000CF7BCF7BCF7BCF7BCF7BCF7BCF7BCF7BCE
:1002E000CF7BCF7BCF7BCF7BCF7BCF7BCF7BCF7BBE
:1002F000CF7BCF7BCF7BCF7BCF7BCF7BCF7BCF7BAE
:10030000CF7BCF7BCF7BCF7BCF7BCF7BCF7BCF7B9D
:10031000CF7BCF7BCF7BCF7BCF7BCF7BCF7BCF7B8D
:10032000CF7BCF7BCF7BCF7BCF7BCF7BCF7BCF7B7D
:10033000CF7BCF7BCF7BCF7BCF7BCF7BCF7BCF7B6D
:10034000AE73CF7BCF7BEF7BCF7BCF7BEF7BCF7B46
:10035000CF7BCF7BCF7BEF7BEF7BEF7BCF7BCF7BED
:10036000CF7BCF7B3084B294B294D39CD39C518CFE
:10037000F39C7DEF34A5F39CFFFF1CE7718C8E731B
:100380001084B2940842C73938C6DFFFFFFFFFFF71
:10039000FFFFFFFFFFFFBAD69AD6FBDEFFFF1CE789
:1003A0009294F7BD9EF71CE714A58A522C6334A5DE
:1003B00079CE59CEB294CF7B14A53CE7FFFFFFFF67
:1003C000FFFFFFFFFFFFFFFFFFFFFFFFFFFFFFFF3D
:1003D000FFFFFFFFFFFFFFFFFFFFFFFFFFFFFFFF2D
:1003E000FFFFFFFFFFFFFFFFFFFFFFFFFFFFFFFF1D
:1003F000FFFFFFFFFFFFFFFFFFFFFFFFFFFFFFFF0D
:10040000FFFFFFFFFFFFFFFFFFFFFFFFFFFFFFFFFC
:10041000FFFFFFFFFFFFFFFFFFFFFFFFFFFFFFFFEC
:10042000FFFFFFFFFFFFFFFFFFFFFFFFFFFFFFFFDC
:10043000FFFFFFFFFFFFFFFFFFFFFFFFFFFFFFFFCC
:10044000FFFFFFFFFFFFFFFFFFFFFFFFFFFFFFFFBC
:10045000FFFFFFFFFFFFFFFFFFFFFFFFFFFFFFFFAC
:10046000FFFFFFFFFFFFFFFFFFFFFFFFFFFFFFFF9C
:10047000FFFFFFFFFFFFFFFFFFFFFFFFFFFFFFFF8C
:10048000FFFFFFFFFFFFFFFFFFFFFFFFFFFFFFFF7C
:10049000FFFFFFFFFFFFFFFFFFFFFFFFFFFFFFFF6C
:1004A000FFFFFFFFFFFFFFFFFFFFFFFFFFFFFFFF5C
:1004B000FFFFFFFFFFFFFFFFFFFFFFFFFFFFFFFF4C
:1004C000FFFFFFFFFFFFFFFFFFFFFFFFFFFFFFFF3C
:1004D000FFFFFFFFFFFFFFFFFFFFFFFFFFFFFFFF2C
:1004E000FFFFFFFFFFFFFFFFFFFFFFFFFFFFFFFF1C
:1004F000FFFFFFFFFFFFFFFFFFFFFFFFFFFFFFFF0C
:10050000FFFFFFFFFFFFFFFFFFFFFFFFFFFFFFFFFB
:10051000FFFFFFFFFFFFFFFFFFFFFFFFFFFFFFFFEB
:10052000FFFFFFFFFFFFDFFFFFFFFFFFBEF7FFFF44
:10053000FFFFFFFFFFFFFFFFFFFFFFFFFFFFFFFFCB
:10054000FFFFFFFFBEF796B58E733084F7BD9AD6D6
:1005500034A5AE73E739F39CDFFFDBDE5DEF34A536
:10056000B6B5FFFFFBDED7BDDBDEFFFFFFFFFFFF02
:10057000DFFFDFFFFFFFDFFFFFFF59CE284224210F
:10058000242145296529CF7B9EF759CE34A5694A98
:1005900000000000494A108428428631718CF39C87
:1005A0002C6375ADFFFFFFFFFFFFFFFFFFFFFFFFA6
:1005B000FFFFFFFFFFFFFFFFFFFFFFFFFFFFFFFF4B
:1005C000FFFFFFFFFFFFFFFFFFFFFFFFFFFFFFFF3B
:1005D000FFFFFFFFFFFFFFFFFFFFFFFFFFFFFFFF2B
:1005E000FFFFFFFFFFFFFFFFFFFFFFFFFFFFFFFF1B
:1005F000FFFFFFFFFFFFFFFFFFFFFFFFFFFFFFFF0B
:10060000FFFFFFFFFFFFFFFFFFFFFFFFFFFFFFFFFA
:10061000FFFFFFFFFFFFFFFFFFFFFFFFFFFFFFFFEA
:10062000FFFFFFFFFFFFFFFFFFFFFFFFFFFFFFFFDA
:10063000FFFFFFFFFFFFFFFFFFFFFFFFFFFFFFFFCA
:10064000FFFFFFFFFFFFFFFFFFFFFFFFFFFFFFFFBA
:10065000FFFFFFFFFFFFFFFFFFFFFFFFFFFFFFFFAA
:10066000FFFFFFFFFFFFFFFFFFFFFFFFFFFFFFFF9A
:10067000FFFFFFFFFFFFFFFFFFFFFFFFFFFFFFFF8A
:10068000FFFFFFFFFFFFFFFFFFFFFFFFFFFFFFFF7A
:10069000FFFFFFFFFFFFFFFFFFFFFFFFFFFFFFFF6A
:1006A000FFFFFFFFFFFFFFFFFFFFFFFFFFFFFFFF5A
:1006B000FFFFFFFFFFFFFFFFFFFFFFFFFFFFFFFF4A
:1006C000FFFFFFFFFFFFFFFFFFFFFFFFFFFFFFFF3A
:1006D000FFFFFFFFFFFFFFFFFFFFFFFFFFFFFFFF2A
:1006E000FFFFFFFFFFFFFFFFFFFFFFFFFFFFFFFF1A
:1006F000FFFFFFFFFFFFFFFFDFFFDFFFDFFFDFFF8A
:10070000FFFFDFFFFFFFFFFFFFFFDFFFFFFFFFFF39
:10071000FFFFFFFFDFFFBEF7FFFFFFFFF7BD4D6BE2
:10072000718C518CE739C739CF7B8A524108000060
:10073000C739B294F7BDFFFF18C6E73945296529C7
:100740008631E3186D6BFFFFFFFFFFFFDFFFFFFF49
:10075000FFFFFFFFDFFF7DEFEF7B694AA6316529D1
:10076000EB5A8A528631A631EB5A79CEFFFF0C63E1
:100770000000108475ADAE739AD634A50000000059
:10078000694A18C6FFFFFFFFDFFFFFFFFFFF38C604
:1007900034A5DBDEFFFFFFFFFBDE1CE7FFFFFFFFF3
:1007A000FFFFFFFFFFFFFFFFFFFFFFFFFFFFFFFF59
:1007B000FFFFFFFFFFFFFFFFFFFFFFFFFFFFFFFF49
:1007C000FFFFFFFFFFFFFFFFFFFFFFFFFFFFFFFF39
:1007D000FFFFFFFFFFFFFFFFFFFFFFFFFFFFFFFF29
:1007E000FFFFFFFFFFFFFFFFFFFFFFFFFFFFFFFF19
:1007F000FFFFFFFFFFFFFFFFFFFFFFFFFFFFFFFF09
:10080000FFFFFFFFFFFFFFFFFFFFFFFFFFFFFFFFF8
:10081000FFFFFFFFFFFFFFFFFFFFFFFFFFFFFFFFE8
:10082000FFFFFFFFFFFFFFFFFFFFFFFFFFFFFFFFD8
:10083000FFFFFFFFFFFFFFFFFFFFFFFFFFFFFFFFC8
:10084000FFFFFFFFFFFFFFFFFFFFFFFFFFFFFFFFB8
:10085000FFFFFFFFFFFFFFFFFFFFFFFFFFFFFFFFA8
:10086000FFFFFFFFFFFFFFFFFFFFFFFFFFFFFFFF98
:10087000FFFFFFFFFFFFFFFFFFFFFFFFFFFFFFFF88
:10088000FFFFFFFFFFFFFFFFFFFFFFFFFFFFFFFF78
:10089000FFFFFFFFFFFFFFFFFFFFFFFFFFFFFFFF68
:1008A000FFFFFFFFFFFFFFFFFFFFFFFFFFFFFFFF58
:1008B000FFFFFFFFFFFFFFFFFFFFFFFFFFFFFFFF48
:1008C000FFFFFFFFFFFFFFFFFFFFFFFFFFFFFFFF38
:1008D000FFFFFFFFFFFFFFFFFFFFFFFFFFFFFFFF28
:1008E000FFFFFFFF3CE7FBDEDFFFFFFF7DEF96B57D
:1008F00018C6DFFFFFFFFFFFFFFFFFFFDBDE0C631C
:100900000000000092941CE73084D39CF39C6108A3
:100910002842FFFFFFFF1084E739A631E7390C6357
:100920008A524529C7390C6334A5FFFFFFFFFFFF3B
:10093000FFFFFFFFFFFFFFFFB2946108494A6D6BA5
:10094000042165292C63652986315DEF59CEC318D2
:100950002C63B29400000000F39C1CE74529C739C2
:10096000BEF7FFFFFBDE8A52A6318E73494A41086B
:1009700000006108E318A2106108EF7BFFFFFFFF92
:10098000DFFFDFFFDFFFFFFFFFFFFFFFFFFFFFFFD7
:10099000DFFFDFFFDFFFDFFFDFFFDFFFDFFFDFFF67
:1009A000DFFFDFFFDFFFDFFFDFFFDFFFDFFFDFFF57
:1009B000DFFFDFFFDFFFDFFFDFFFDFFFDFFFDFFF47
:1009C000DFFFDFFFDFFFDFFFDFFFDFFFDFFFDFFF37
:1009D000DFFFDFFFDFFFDFFFDFFFDFFFDFFFDFFF27
:1009E000DFFFDFFFDFFFDFFFDFFFDFFFDFFFDFFF17
:1009F000DFFFDFFFDFFFDFFFDFFFDFFFDFFFDFFF07
:100A0000DFFFDFFFDFFFDFFFDFFFDFFFDFFFDFFFF6
:100A1000DFFFDFFFDFFFDFFFDFFFDFFFDFFFDFFFE6
:100A2000DFFFDFFFDFFFDFFFDFFFDFFFDFFFDFFFD6
:100A3000DFFFDFFFDFFFDFFFDFFFDFFFDFFFDFFFC6
:100A4000DFFFDFFFDFFFDFFFDFFFDFFFDFFFDFFFB6
:100A5000DFFFDFFFDFFFDFFFDFFFDFFFDFFFDFFFA6
:100A6000DFFFDFFFDFFFDFFFDFFFDFFFDFFFDFFF96
:100A7000DFFFDFFFDFFFDFFFDFFFDFFFDFFFDFFF86
:100A8000DFFFDFFFDFFFDFFFDFFFDFFFDFFFDFFF76
:100A9000DFFFDFFFDFFFDFFFDFFFDFFFDFFFDFFF66
:100AA000DFFFDFFFDFFFDFFFDFFFDFFFDFFFDFFF56
:100AB000DFFFDFFFFFFFFFFFFFFFFFFFFFFFFFFF86
:100AC000FFFFFFFF14A5A21061080421821000009F
:100AD0000000E739AE730842494A38C6FFFFFFFFFE
:100AE000494AC318FBDEF7BD000000001084EF7B0D
:100AF000A21055ADFFFF3084C3188A52EB5AE31899
:100B000008424D6B24218631DBDEFFFFFFFFDFFF54
:100B1000FFFFDFFFFFFFB6B56529C739494AE7394F
:100B200034A53084A6318A5245290C638E73242162
:100B30009294B29400008A525DEF8E73821014A5D5
:100B4000FFFFBEF7CB5A000000000000000045295F
:100B5000CF7B718CCF7BA63120002421CB5AAA52A7
:100B6000694A694A494A494A494A494A494A494AAD
:100B7000494A494A494A494A494A494A494A494ADD
:100B8000494A494A494A494A494A494A494A494ACD
:100B9000494A494A494A494A494A494A494A494ABD
:100BA000494A494A494A494A494A494A494A494AAD
:100BB000494A494A494A494A494A494A494A494A9D
:100BC000494A494A494A494A494A494A494A494A8D
:100BD000494A494A494A494A494A494A494A494A7D
:100BE000494A494A494A494A494A494A494A494A6D
:100BF000494A494A494A494A494A494A494A494A5D
:100C0000494A494A494A494A494A494A494A494A4C
:100C1000494A494A494A494A494A494A494A494A3C
:100C2000494A494A494A494A494A494A494A494A2C
:100C3000494A494A494A494A494A494A494A494A1C
:100C4000494A494A494A494A494A494A494A494A0C
:100C5000494A494A494A494A494A494A494A494AFC
:100C6000494A494A494A494A494A494A494A494AEC
:100C7000494A494A494A494A494A494A494A494ADC
:100C8000494A494A494A494A494A494A494A494ACC
:100C9000694A694A694A694A694A694A694A694ABC
:100CA000694AAA52652900004529AE73518CEF7B31
:100CB000E7390000000000000000E739FBDEFFFF1D
:100CC00018C6C318694A1CE74D6B0000108455AD67
:100CD000E3183084F7BD04212842C739E739B6B597
:100CE000AE73E7398A5204214D6B1CE7FFFFFFFF0B
:100CF000DFFFFFFFFFFFBAD6EB5AE739494A694ADF
:100D00008A52694A0842E739E73996B514A50000C6
:100D1000AA52FFFF59CECB5A8631284218C6FFFF90
:100D200079CEC739000000006108AE735DEFFFFFA8
:100D3000BEF79AD6DBDE8E730000CB5A38C6F7BDFD
:100D4000B6B5B6B596B596B596B596B596B596B50B
:100D5000B6B5B6B5B6B5B6B5B6B5B6B5B6B5B6B53B
:100D6000B6B5B6B5B6B5B6B5B6B5B6B5B6B5B6B52B
:100D7000B6B5B6B5B6B5B6B5B6B5B6B5B6B5B6B51B
:100D8000B6B5B6B5B6B5B6B5B6B5B6B5B6B5B6B50B
:100D9000B6B5B6B5B6B5B6B5B6B5B6B5B6B5B6B5FB
:100DA000B6B5B6B5B6B5B6B5B6B5B6B5B6B5B6B5EB
:100DB000B6B5B6B5B6B5B6B5B6B5B6B5B6B5B6B5DB
:100DC000B6B5B6B5B6B5B6B5B6B5B6B5B6B5B6B5CB
:100DD000B6B5B6B5B6B5B6B5B6B5B6B5B6B5B6B5BB
:100DE000B6B5B6B5B6B5B6B5B6B5B6B5B6B5B6B5AB
:100DF000B6B5B6B5B6B5B6B5B6B5B6B5B6B5B6B59B
:100E0000B6B5B6B5B6B5B6B5B6B5B6B5B6B5B6B58A
:100E1000B6B5B6B5B6B5B6B5B6B5B6B5B6B5B6B57A
:100E2000B6B5B6B5B6B5B6B5B6B5B6B5B6B5B6B56A
:100E3000B6B5B6B5B6B5B6B5B6B5B6B5B6B5B6B55A
:100E4000B6B5B6B5B6B5B6B5B6B5B6B5B6B5B6B54A
:100E5000B6B5B6B5B6B5B6B5B6B5B6B5B6B5B6B53A
:100E6000B6B5B6B5B6B5B6B5B6B5B6B5B6B5B6B52A
:100E700096B596B596B596B596B596B596B596B51A
:100E8000B6B59AD64D6B82100C6318C69AD6FFFF82
:100E9000FFFFDFFF718CA210000000004529D7BDC5
:100EA000FFFF9AD6694A6529AA52B6B5DFFF1084BA
:100EB00000003084FFFF6D6B45290842694ACB5A18
:100EC000694A494A494AC739F39C7DEFFFFFFFFF52
:100ED000DFFFBEF7FFFFDFFFEF7B0000A631CF7B18
:100EE000494ACB5A2C630421A210D7BD59CEC73929
:100EF0000000694ADFFFFFFFFFFFFFFFBEF7EF7B48
:100F0000000000000000E739F7BD9AD6518CC739C0
:100F100020000000000000002000C7392C632C6373
:100F20002C630C63EB5AEB5AEB5A0C630C630C63A7
:100F3000EB5AEB5AEB5AEB5AEB5AEB5AEB5AEB5A89
:100F4000EB5AEB5AEB5AEB5AEB5AEB5AEB5AEB5A79
:100F5000EB5AEB5AEB5AEB5AEB5AEB5AEB5AEB5A69
:100F6000EB5AEB5AEB5AEB5AEB5AEB5AEB5AEB5A59
:100F7000EB5AEB5AEB5AEB5AEB5AEB5AEB5AEB5A49
:100F8000EB5AEB5AEB5AEB5AEB5AEB5AEB5AEB5A39
:100F9000EB5AEB5AEB5AEB5AEB5AEB5AEB5AEB5A29
:100FA000EB5AEB5AEB5AEB5AEB5AEB5AEB5AEB5A19
:100FB000EB5AEB5AEB5AEB5AEB5AEB5AEB5AEB5A09
:100FC000EB5AEB5AEB5AEB5AEB5AEB5AEB5AEB5AF9
:100FD000EB5AEB5AEB5AEB5AEB5AEB5AEB5AEB5AE9
:100FE000EB5AEB5AEB5AEB5AEB5AEB5AEB5AEB5AD9
:100FF000EB5AEB5AEB5AEB5AEB5AEB5AEB5AEB5AC9
:10100000EB5AEB5AEB5AEB5AEB5AEB5AEB5AEB5AB8
:10101000EB5AEB5AEB5AEB5AEB5AEB5AEB5AEB5AA8
:10102000EB5AEB5AEB5AEB5AEB5AEB5AEB5AEB5A98
:10103000EB5AEB5AEB5AEB5AEB5AEB5AEB5AEB5A88
:10104000EB5AEB5AEB5AEB5AEB5AEB5AEB5AEB5A78
:101050000C630C630C630C630C630C630C630C6318
:101060000C636D6B494A61080000000000006108D4
:10107000A631AE73DBDEBAD6694A0000000000007C
:101080002C635DEFFFFFFFFFFFFFFFFF4D6B0000D5
:10109000042175ADBEF72C63000008426D6B084259
:1010A000CB5A2C632000E31879CEFFFFFFFFFFFF30
:1010B000FFFFFFFFFFFF7DEFF7BD9294A6312000F9
:1010C000694A08424108E73959CEFBDE2C63821099
:1010D000494A45290000A6316D6BAA52A2100000B2
:1010E000E318E3184108494A0842000000000000E4
:1010F00000000000000000000000EB5A59CE38C686
:10110000F7BDD7BDD7BDD7BDD7BDD7BDD7BDD7BD1F
:10111000D7BDD7BDD7BDD7BDD7BDD7BDD7BDD7BD2F
:10112000D7BDD7BDD7BDD7BDD7BDD7BDD7BDD7BD1F
:10113000D7BDD7BDD7BDD7BDD7BDD7BDD7BDD7BD0F
:10114000D7BDD7BDD7BDD7BDD7BDD7BDD7BDD7BDFF
:10115000D7BDD7BDD7BDD7BDD7BDD7BDD7BDD7BDEF
:10116000D7BDD7BDD7BDD7BDD7BDD7BDD7BDD7BDDF
:10117000D7BDD7BDD7BDD7BDD7BDD7BDD7BDD7BDCF
:10118000D7BDD7BDD7BDD7BDD7BDD7BDD7BDD7BDBF
:10119000D7BDD7BDD7BDD7BDD7BDD7BDD7BDD7BDAF
:1011A000D7BDD7BDD7BDD7BDD7BDD7BDD7BDD7BD9F
:1011B000D7BDD7BDD7BDD7BDD7BDD7BDD7BDD7BD8F
:1011C000D7BDD7BDD7BDD7BDD7BDD7BDD7BDD7BD7F
:1011D000D7BDD7BDD7BDD7BDD7BDD7BDD7BDD7BD6F
:1011E000D7BDD7BDD7BDD7BDD7BDD7BDD7BDD7BD5F
:1011F000D7BDD7BDD7BDD7BDD7BDD7BDD7BDD7BD4F
:10120000D7BDD7BDD7BDD7BDD7BDD7BDD7BDD7BD3E
:10121000D7BDD7BDD7BDD7BDD7BDD7BDD7BDD7BD2E
:10122000D7BDD7BDD7BDD7BDD7BDD7BDD7BDD7BD1E
:10123000D7BDD7BDD7BDD7BDD7BDD7BDD7BDD7BD0E
:1012400018C6BAD6AE73000000000000000000000F
:10125000000000000000A631AA528210610804219B
:101260000000410828426D6B28420000E3188A52B2
:101270008210694ABAD63CE73084E3186108CB5A39
:101280004529A2100C6334A559CEFFFFFFFFFFFFD5
:10129000FFFFFFFFDFFFDFFFFFFFFBDE6D6B6D6B0F
:1012A000E7392842CF7B718CFFFF1CE7EB5A518C4A
:1012B000FFFFFFFF9294242100000000000061085E
:1012C000EB5A2842A631CF7BB294F39C1084694A32
:1012D000821020006108000020001084FFFFFFFF43
:1012E000FFFFFFFFFFFFFFFFFFFFFFFFFFFFFFFF0E
:1012F000FFFFFFFFFFFFFFFFFFFFFFFFFFFFFFFFFE
:10130000FFFFFFFFFFFFFFFFFFFFFFFFFFFFFFFFED
:10131000FFFFFFFFFFFFFFFFFFFFFFFFFFFFFFFFDD
:10132000FFFFFFFFFFFFFFFFFFFFFFFFFFFFFFFFCD
:10133000FFFFFFFFFFFFFFFFFFFFFFFFFFFFFFFFBD
:10134000FFFFFFFFFFFFFFFFFFFFFFFFFFFFFFFFAD
:10135000FFFFFFFFFFFFFFFFFFFFFFFFFFFFFFFF9D
:10136000FFFFFFFFFFFFFFFFFFFFFFFFFFFFFFFF8D
:10137000FFFFFFFFFFFFFFFFFFFFFFFFFFFFFFFF7D
:10138000FFFFFFFFFFFFFFFFFFFFFFFFFFFFFFFF6D
:10139000FFFFFFFFFFFFFFFFFFFFFFFFFFFFFFFF5D
:1013A000FFFFFFFFFFFFFFFFFFFFFFFFFFFFFFFF4D
:1013B000FFFFFFFFFFFFFFFFFFFFFFFFFFFFFFFF3D
:1013C000FFFFFFFFFFFFFFFFFFFFFFFFFFFFFFFF2D
:1013D000FFFFFFFFFFFFFFFFFFFFFFFFFFFFFFFF1D
:1013E000FFFFFFFFFFFFFFFFFFFFFFFFFFFFFFFF0D
:1013F000FFFFFFFFFFFFFFFFFFFFFFFFFFFFFFFFFD
:10140000FFFFFFFFFFFFFFFFFFFFFFFFFFFFFFFFEC
:10141000FFFFFFFFFFFFFFFFFFFFFFFFFFFFFFFFDC
:10142000FFFFFFFF75AD6108000082100000200083
:10143000C739108455ADF39CEF7BA63108424D6B44
:101440002421000000000000C318CF7BBEF7FFFF7F
:1014500014A5694AB6B5FFFFD7BDEF7B4D6B652973
:10146000EB5A4D6B518CDFFFFFFFFFFFDFFFFFFFEC
:10147000FFFFFFFFFFFFFFFFDFFFBEF7FFFFDFFF05
:1014800059CE9AD6FFFFDFFFDFFF9EF79EF7FFFFE3
:10149000FFFFFFFFFFFFFFFFBEF73CE759CEF7BDA1
:1014A000D7BDBAD6DFFFFFFFDFFFFFFFFFFFDFFF84
:1014B000FBDE9AD6BAD6BAD69AD65DEFDFFFDFFF4B
:1014C000FFFFFFFFFFFFFFFFFFFFFFFFFFFFFFFF2C
:1014D000FFFFFFFFFFFFFFFFFFFFFFFFFFFFFFFF1C
:1014E000FFFFFFFFFFFFFFFFFFFFFFFFFFFFFFFF0C
:1014F000FFFFFFFFFFFFFFFFFFFFFFFFFFFFFFFFFC
:10150000FFFFFFFFFFFFFFFFFFFFFFFFFFFFFFFFEB
:10151000FFFFFFFFFFFFFFFFFFFFFFFFFFFFFFFFDB
:10152000FFFFFFFFFFFFFFFFFFFFFFFFFFFFFFFFCB
:10153000FFFFFFFFFFFFFFFFFFFFFFFFFFFFFFFFBB
:10154000FFFFFFFFFFFFFFFFFFFFFFFFFFFFFFFFAB
:10155000FFFFFFFFFFFFFFFFFFFFFFFFFFFFFFFF9B
:10156000FFFFFFFFFFFFFFFFFFFFFFFFFFFFFFFF8B
:10157000FFFFFFFFFFFFFFFFFFFFFFFFFFFFFFFF7B
:10158000FFFFFFFFFFFFFFFFFFFFFFFFFFFFFFFF6B
:10159000FFFFFFFFFFFFFFFFFFFFFFFFFFFFFFFF5B
:1015A000FFFFFFFFFFFFFFFFFFFFFFFFFFFFFFFF4B
:1015B000FFFFFFFFFFFFFFFFFFFFFFFFFFFFFFFF3B
:1015C000FFFFFFFFFFFFFFFFFFFFFFFFFFFFFFFF2B
:1015D000FFFFFFFFFFFFFFFFFFFFFFFFFFFFFFFF1B
:1015E000FFFFFFFFFFFFFFFFFFFFFFFFFFFFFFFF0B
:1015F000FFFFFFFFFFFFFFFFFFFFFFFFFFFFFFFFFB
:10160000FFFFFFFF9EF7BAD69AD6DBDEDBDEFBDEFE
:10161000DFFFFFFFFFFFDFFFFFFFFFFFDBDED7BDC9
:1016200018C638C6DBDE9EF7FFFFFFFFFFFFDFFFB8
:10163000FFFFFFFF7DEF9EF7FFFFDFFF7DEFF7BDB1
:10164000FBDEFFFFBEF7DFFFBEF7FFFFDFFFFFFFA1
:10165000FFFFFFFFDFFFDFFFDFFFFFFFFFFFFFFFFA
:10166000FFFFFFFFDFFFFFFFDFFFDFFFFFFFFFFFEA
:10167000DFFFFFFFDFFFDFFFFFFFFFFFFFFFFFFFDA
:10168000FFFFDFFFFFFFFFFFFFFFFFFFFFFFFFFF8A
:10169000FFFFFFFFFFFFFFFFFFFFFFFFFFFFFFFF5A
:1016A000FFFFFFFFFFFFFFFFFFFFFFFFFFFFFFFF4A
:1016B000FFFFFFFFFFFFFFFFFFFFFFFFFFFFFFFF3A
:1016C000FFFFFFFFFFFFFFFFFFFFFFFFFFFFFFFF2A
:1016D000FFFFFFFFFFFFFFFFFFFFFFFFFFFFFFFF1A
:1016E000FFFFFFFFFFFFFFFFFFFFFFFFFFFFFFFF0A
:1016F000FFFFFFFFFFFFFFFFFFFFFFFFFFFFFFFFFA
:10170000FFFFFFFFFFFFFFFFFFFFFFFFFFFFFFFFE9
:10171000FFFFFFFFFFFFFFFFFFFFFFFFFFFFFFFFD9
:10172000FFFFFFFFFFFFFFFFFFFFFFFFFFFFFFFFC9
:10173000FFFFFFFFFFFFFFFFFFFFFFFFFFFFFFFFB9
:10174000FFFFFFFFFFFFFFFFFFFFFFFFFFFFFFFFA9
:10175000FFFFFFFFFFFFFFFFFFFFFFFFFFFFFFFF99
:10176000FFFFFFFFFFFFFFFFFFFFFFFFFFFFFFFF89
:10177000FFFFFFFFFFFFFFFFFFFFFFFFFFFFFFFF79
:10178000FFFFFFFFFFFFFFFFFFFFFFFFFFFFFFFF69
:10179000FFFFFFFFFFFFFFFFFFFFFFFFFFFFFFFF59
:1017A000FFFFFFFFFFFFFFFFFFFFFFFFFFFFFFFF49
:1017B000FFFFFFFFFFFFFFFFFFFFFFFFFFFFFFFF39
:1017C000FFFFFFFFFFFFFFFFFFFFFFFFFFFFFFFF29
:1017D000FFFFFFFFFFFFFFFFFFFFFFFFFFFFFFFF19
:1017E000FFFFFFFFFFFFFFFFFFFFFFFFFFFFFFFF09
:1017F000FFFFDFFFDFFFFFFFDFFFFFFFDFFFFFFF79
:10180000FFFFFFFFFFFFFFFFFFFFFFFFDFFFFFFF08
:10181000DFFFFFFFFFFFDFFFFFFFFFFFFFFFFFFF18
:10182000DFFFFFFFFFFFDFFFFFFFFFFFFFFFFFFF08
:101830000000000000000000010203040607080980
:1018400000000000010203046818010800000020E5
:10185000180000000C1A0008801801081800002069
:10186000180900001C1A0008FF7F0000000000009B
:101870000100000010000000000000000024F4003F
:040000050800019955
:00000001FF
