:020000040800F2
:10000000E0050020D500000869200008151B000845
:1000100000000000000000000000000000000000E0
:10002000000000000000000000000000B3200008F5
:100030000000000000000000B1200008B52000080A
:10004000E7000008E7000008E7000008E7000008F4
:10005000E7000008E7000008E7000008E7000008E4
:10006000E7000008E7000008AD070008E700000807
:10007000E7000008E700000800000000E7000008B3
:1000800000000000E7000008000000000000000081
:10009000E700000800000000E7000008E700000893
:1000A000E7000008E7000008E70000084D26000808
:1000B000E7000008E7000008E7000008E700000884
:1000C0000348854600F0EEFA004800477D300008FE
:1000D000E00500200448804704480047FEE7FEE7AB
:1000E000FEE7FEE7FEE7FEE731210008C100000859
:1000F00030B50B46014600202022012409E00D46C0
:10010000D5409D4205D31D469540491B2546954047
:1001100040191546521E002DF1DC30BDF0B51FB45C
:100120000646002082B005464024019100901BE065
:10013000019922460F46304600F09BF8049A059B31
:10014000801A994110D310461946224600F081F8D2
:10015000361A8F410197224601200021009F00F0AE
:1001600078F838184D4100902046641E0028DFDCE6
:10017000019B00982946324607B0F0BDD2B201E09B
:100180000270401C491EFBD270470022F6E710B5F2
:1001900013460A4604461946FFF7F0FF204610BDF5
:1001A00070B502464A40D50F40004A00ED074008AE
:1001B0005208002814D0002A12D0C40DD30D4102D9
:1001C0000120C0055202490A520AE41A09181218FD
:1001D0007D34914201D3641C00E04900002C01DA17
:1001E000002070BD0023914201D3891A03434008C7
:1001F00049000028F7D100290AD0914202D10121FB
:10020000C90705E0914201D2012101E00121C94362
:10021000E005C018401900F03DF870BD10B500228F
:100220009623114600F03EF810BDC20FD2074000E1
:1002300040080BD0C10D0723DB01C9184002090596
:10024000400A1143C208400711437047002001468D
:10025000704710B5202A04DB0146203A9140002067
:1002600010BD914020239C1A0346E340194390405F
:1002700010BD10B5202A04DB0846203AD0400021EA
:1002800010BD0B46D340D0402024A21A9140084311
:10029000194610BD002904DA401C490001D140086C
:1002A0004000704770B40024050C05D110240004F0
:1002B00002D1002921D01124050E01D100020834F9
:1002C000050F01D10001241D850F01D18000A41C60
:1002D000002801DB4000641C002908D020252E1BCB
:1002E0000D46F540A14000D00121294308430106F5
:1002F0001B1B000ADB1D02D5002070BC7047DB050C
:10030000181880180029F8DA401C4900F5D170BC93
:100310004008400070470000F0B5074608465840C6
:1003200087B0C00F049048000E46590040084908A5
:10033000BC1A884105D2384631461E4617460B4640
:1003400002465800400810434CD0300D0390400541
:100350005900400D490D0590401A0290402872DA6C
:1003600018030121000B090508430190049800922D
:10037000002805D001995242002088410092019046
:10038000029840210A1A01990098FFF762FF05467A
:100390000C466B4607CB00F097F9C0197141039AE0
:1003A0000E0D0023D71756401A467A40164344D004
:1003B000049A002A2DD0029A012A039A15DC12050C
:1003C000C01A914101263605001C7141D20F059ECD
:1003D000D2070093019202962A46234600F094F930
:1003E00007B0F0BD38463146FAE71605224A0F46F7
:1003F000B218C01AB74101210905001C4F4100186D
:100400007F41114618187941E20F10436D1964417C
:1004100013E0E2076D0815436408C2071443039A0A
:1004200001261205C01A91413605001C7141CE0704
:10043000400830434908C01851412A46234600F07D
:1004400056F9CDE7FFE7049801224000C117121AC0
:1004500000238B4104983146C417381AA141EEE7B6
:1004600030B40124E407634030BC55E730B40124C4
:10047000E407614030BC4FE70000E0FFF0B51FB477
:1004800088B00B990998002448400999C00F490089
:1004900049080991C0070B990090490049080B9140
:1004A00009990898A64608431CD00B990A98084356
:1004B00018D0099801244000420D4800410D0998C8
:1004C00024050003000B204309900B980003000B48
:1004D00020430B9050181C494018002201901446EC
:1004E000104605E0002001460DB0F0BD032801DAFA
:1004F000034600E003239C46C11A0AAE0AE05F00EF
:1005000008ADED5B4F00F75B7D430027AA187C41E7
:10051000491C5B1E6145F2DD410004AB5A522104C7
:10052000120C0A43240C401C0828DFDB01980290BF
:100530000099704601910090059B049A07990698CE
:1005400000F0E2F8D0E700000DFCFFFFF0B50C462C
:100550005C4085B0E40FE40703944C000026640877
:1005600059009446490802460296224321D0624629
:100570000A431ED06200570D4A000E032303550D97
:10058000012402462C492405781B1B0B360B40180E
:1005900023432643614600901C46501AB44103D3BE
:1005A0000098401C009002E0921800985B410028DF
:1005B00003DA0020014605B0F0BD00200121090545
:1005C0000746864611E064461D46141BB54106D316
:1005D0006546521BB341744607430C43A646CD07FC
:1005E00040084908284392185B4105460D43EAD16B
:1005F0001046184313D060461946504071400843D6
:1006000006D06046101AB34106D20122002306E04C
:1006100000220123DB0702E00122D243531000989D
:1006200074460105381C6141029C039D0019694113
:1006300000F05DF8BFE70000FD0300004A00090379
:100640000123090B1B0519430A4B10B5520D9A42A1
:1006500002DA0020014610BD064B34339A4203DC17
:100660009A1AFFF706FE10BD034BD218FFF7F1FDF3
:1006700010BD0000FF030000CDFBFFFF10B50029F7
:1006800004DB0124E40740428C412146002B04DBBB
:100690001C460123DB075242A341994200D19042FC
:1006A00010BD0000064C0125064E05E0E36807CCAE
:1006B0002B430C3C98471034B442F7D3FFF704FDAA
:1006C000D4310008F431000810B5202A06DBCB171E
:1006D0000846203A1041C1170B4306E00B46134170
:1006E000D0402024A21A91400843194610BD10B5ED
:1006F000002B08DA0024401C614192185B411A4328
:1007000001D14008400010BDF0B51FB482B00546CD
:100710000C0003D0084601F0E7FF02E001F0E4FF1F
:1007200020300246009021462846FFF792FD049BA8
:10073000059A04460F4618431143084314D018463F
:1007400010431BD0009840210A1A18460599FFF75C
:1007500090FD05460E46009A05990498FFF779FD2D
:10076000084305D0012004E02046394607B0F0BD1B
:100770000020C11705430E432C43374300990E98C0
:100780006305401A7905E40A00220C43FD0A0A3089
:1007900002D500200146E9E70105101969410C9CCA
:1007A0000D9D00196941FFF7A2FFDFE710B503486F
:1007B00000F077F8024800F074F810BD98010020AE
:1007C0005001002030B5446C1C252C400125A5406B
:1007D000046C6560046863608368102B036803D051
:1007E00099600068C26030BD9A600068C16030BD29
:1007F0000A4610B50146044801F034F9002801D03A
:1008000000F004F810BD0000D0000020704730B5A3
:10081000014620314A790023022A04D00422C2630F
:100820000B71012030BD026814680E25AC431460C2
:1008300002681468640864001460446C1C2214404C
:1008400001221546006CA54045604A7118460B719F
:1008500030BD70B50024014620314A79022A03D008
:100860000421C163012418E0026813680E25AB431C
:100870001360026813685B085B001360436C1C2202
:100880001340012215469D40036C5D604A710022B1
:100890000A71816B002900D08847204670BDC06B6B
:1008A0007047F0B4016C0D6801680C68466C1C233D
:1008B00004221E401746B7402F420ED067070CD5C2
:1008C0000C68A40602D40C6894430C60416C194077
:1008D0008A40016C4A60016B1AE00227B740024669
:1008E0002F402032002F17D0A70715D50C68A4067B
:1008F00005D40C680A25AC430C6001215171446C8D
:1009000002211C40036CA140596000211171C16A91
:10091000002918D0F0BC08470827B7402F4212D052
:10092000240710D50C680E25AC430C60446C0121E3
:100930001C400B46A340046C6360C16351710021ED
:100940001171416BE4E7F0BC7047000070B5040022
:100950003CD01F48256814212818FFF7C9FB8000E8
:1009600060641C4820640221204620300246417108
:1009700029681948E3680140A0686669184323693B
:1009800033431843A3691843E3691843236A1843A0
:10099000084328600121A0688903884210D00D48CF
:1009A0008030836A656C1C210D400F26AE40B34336
:1009B0008362656C63680D40816AAB400B43836260
:1009C0000020E06301215171107170BD012070BDE4
:1009D000F8FFFDBF000002400F80FFFFF8B504469E
:1009E0008C46203001790025012909D001260671A5
:1009F00041790027012905D0077102252846F8BD55
:100A00000220F8BD02214171E763206801684908AE
:100A10004900016061462046FFF7D4FE206B0028A4
:100A20002068016801D00E2205E004229143016094
:100A3000206801680A22114301602068016831437F
:100A40000160DBE7F8B500230124A2E027469F40C0
:100A50003A4070D04D68022D01D0122D14D1DD081E
:100A6000AD002D1800952D6A5E07AC46F50E0F26D9
:100A7000AE46AE406546B543AC460E697546AE40DF
:100A800065462E43009D2E624D68012D05D0022D36
:100A900003D0112D01D0122D16D185680326AC4646
:100AA0005D00AE46AE406546B543AC46CE68754681
:100AB000AE4065462E43866046680D79BE43ED061E
:100AC000ED0F9D403543456006685F000325BD403E
:100AD000AE46AE430D79B446AE07B60FBE4065468E
:100AE0002E430660C6687546AE438D68BD403543EB
:100AF000C5604D68ED004BD5294D6E6B26436E6386
:100B00009E08284DB6007519AC46AD689E07360F95
:100B10000F27B740BD4305273F07B84201D1002743
:100B200015E0214FB84201D1012710E01F4FB84214
:100B300002D102270BE02BE01D4FB84201D1032761
:100B400005E01C4FB84201D1052700E00627B74059
:100B50002F436546AF60184D2E684F689643FF03DC
:100B600000D516432E606E684F689643BF0300D5CC
:100B700016436E60AE684F689643FF0200D5164379
:100B8000AE60EE684F689643BF0200D51643EE6034
:100B90005B1C0A681546DD4000D057E7F8BD000031
:100BA0000010024000000140000400500008005006
:100BB000000C0050001C0050000401400069084077
:100BC00000D001207047002A01D081617047816206
:100BD00070470000014800687047000008000020CE
:100BE00002480168491C01607047000008000020AD
:100BF00010B50848002401684022114301602046D6
:100C000000F00AF8002801D0012401E000F01CF8EF
:100C1000204610BD0020024070B5054609487D21E0
:100C20000024C9000068FFF763FA00F0C3FC002845
:100C300001D0012404E000222946501E00F01AF8D9
:100C4000204670BD0C0000200448416B0122114376
:100C50004163816B020411438163704700100240BD
:100C6000C106C90E01208840014908607047000094
:100C700000E100E010B501F0F9F910BDF8B5044647
:100C80000068614D810601D400057DD55E4E0027C8
:100C9000403EB06BC00004D4B06B31040843B06375
:100CA00001275A480168C90511D40168821511430A
:100CB0000160FFF78FFF009005E0FFF78BFF0099C1
:100CC000401A642844D851480068C005F5D53168F9
:100CD00003200005626801401040884205D10323CB
:100CE000A0681B051840884208D09003800F032895
:100CF00004D13068800301D50120F8BD28690321A3
:100D00000904084029D00A40824202D02278920683
:100D100006D4A2680A4082421FD0208800051CD554
:100D200028692A6988430121C9040A432A612A697A
:100D30008A432A612861C0050FD5FFF74BFF009059
:100D400008E0FFF747FF0099411A3148814201D975
:100D50000320F8BD28698005F3D561688803800FFA
:100D6000032805D132680005824301400A433260FE
:100D70002869032261681204114008432861002F8A
:100D800006D0B16B012000E002E000078143B163AF
:100D90002078C00705D0E868E16880088000084333
:100DA000E8602078800705D5E8680C218843216930
:100DB0000843E8602078400706D5E86803218902E7
:100DC000884361690843E8602078000706D5E86831
:100DD000032109038843A1690843E860207840069D
:100DE00006D5E868012189068843216A0843E8603E
:100DF0002078000606D5E868032189048843E16964
:100E00000843E8600020F8BD401002400070004038
:100E100088130000F8B50E4605007DD053480068E1
:100E2000C007C00FB0420AD25048016849084900C3
:100E3000314301600068C007C00FB04271D128780B
:100E40004B4C800705D5E068F0218843A96808432A
:100E5000E0602878C00752D06868022817D00328BD
:100E600018D02168012818D08905002959DAE168CD
:100E7000890889000143E160FFF7ACFE6968074615
:100E8000022912D003291CD0012926D033E0216881
:100E90008903EAE721688901E7E74907E5E7FFF702
:100EA00099FEC11B3348814223D8E0680007800FB8
:100EB0000228F4D123E0FFF78DFEC11B2D488142AB
:100EC00017D8E0680007800F0328F4D117E0FFF778
:100ED00081FEC11B274881420BD8E0680007800FC4
:100EE0000128F4D10BE0FFF775FEC11B21488142B8
:100EF00001D90320F8BDE0680007800FF3D11B483B
:100F00000168C907C90FB1420DD9016849084900F4
:100F100031430160006800E003E0C007C00FB04249
:100F200001D00120F8BD2878400706D5E0680721E8
:100F300009028843E9680843E0602878000707D57C
:100F4000E0680721C90288432969C9000843E060B5
:100F500000F036F8E168084A0906090F515CC840FC
:100F6000064908600020FFF757FEF8BD0020024048
:100F70000010024088130000B23100080C0000206D
:100F8000044805490068C968044A4905490F515C8D
:100F9000C84070470C00002000100240CB31000810
:100FA000044805490068C968044A8904490F515C2E
:100FB000C84070470C00002000100240CB310008F0
:100FC00010B5184AD1680C20084004280BD0082816
:100FD00010D00C2810D050680004410F0120C0032D
:100FE000491C884010BD1068C00601D50E4810BDD0
:100FF0000E4810BD0E4810BD88020E4B000F185C45
:101000000902D368890F491CDB0301D5084A05E0B2
:101010001268D20601D5044A00E0044A5043FFF7A3
:1010200067F810BD0010024000093D000024F400E4
:10103000001BB700C2310008FEB505007ED0FE4C93
:10104000E7680C20E6680740012000040640287885
:10105000C00747D0082F05D00C2F0AD1012000046B
:10106000864206D1206880033CD568680028E5D018
:1010700038E0012069680004814203D121680143FE
:10108000216011E0052301221B049204994221688A
:1010900002D111432160F1E78143216021680140C1
:1010A0000091206890432060686800280DD0FFF709
:1010B00091FD009005E0FFF78DFD0099401A64282E
:1010C0007AD820688003F6D50CE0FFF783FD009006
:1010D00005E0FFF77FFD0099401A6428F0D82068EA
:1010E0008003F6D42878800755D50923E868042FB3
:1010F0000DD00C2F01D1002E09D000283BD0216843
:10110000994301432160FFF765FD064627E021680A
:10111000490701D5002891D061681F22120291432E
:101120002A691202114361602168994301432160D9
:10113000FFF746FFE16809060A0F00E0BBE1BF497F
:10114000895CC840BE4908600020FFF765FD0028A3
:1011500072D120E0FFF73EFD801B0228B0D8206846
:101160004007F7D560681F210902884329690902F1
:10117000084360600FE02068400840002060FFF7EF
:1011800029FD064604E0FFF725FD801B022897D8BD
:1011900020684007F7D42878C0065FD5002F0CD010
:1011A000E869002849D02068FF2101310843206008
:1011B000FFF710FD06462DE0E4E02068800502D52B
:1011C000E8690028A7D06068072149038843696A55
:1011D000084360606068298C0002000A0906084321
:1011E0006060686A410B0120C003491C8840E168C7
:1011F00009060A0F9149895CC8409149086000209E
:10120000FFF70AFD002817D128E0FFF7E3FC801B59
:101210000228A3D820688005F7D560680721490314
:101220008843696A084360606068298C0002000A8C
:1012300009060843606011E023E12168FF200130C6
:1012400081432160FFF7C6FC064604E0FFF7C2FCBD
:10125000801B02289BD820688005F7D42878794E17
:10126000000724D568690028306910D0012108439F
:101270003061FFF7AFFC009005E0FFF7ABFC009991
:10128000401A02287ED830698007F6D50FE0400862
:1012900040003061FFF79EFC009005E0FFF79AFCEC
:1012A0000099401A02286DD830698007F6D4287852
:1012B000400764D500200290A06BC00006D4A06B4C
:1012C000012109070843A063012002905E480168DC
:1012D000C90511D40168821511430160FFF77AFC3A
:1012E000009005E0FFF776FC0099401A642849D881
:1012F00055480068C005F5D5FF20AA680130824234
:1013000003D131690143316111E001218902002AD1
:1013100007D005231B029A4203D132690A43326186
:10132000EFE7326982433261306988433061A868EF
:1013300000280ED0FFF74EFC009006E0FFF74AFCB5
:101340000099411A414881421CD830698005F5D581
:101350000DE0FFF73FFC009006E0FFF73BFC009933
:10136000411A3A4881420DD830698005F5D4029877
:10137000002804D0A16B012000078143A1632878D5
:10138000800600E07CE02ED53148A969431400298D
:1013900016D0A26801210A43A260626B0A4362630D
:1013A000016A19430162FFF715FC064604E0FFF7E6
:1013B00011FC801B022863D8A0688007F7D512E0D3
:1013C000A16849084900A160016A99430162FFF7D9
:1013D00001FC064604E0FFF7FDFB801B02284FD806
:1013E000A0688007F7D4A86A002866D00C2F4DD0DB
:1013F000012636060228206805D0B0432060FFF79A
:10140000E9FB05463EE0B0432060FFF7E3FB0746FB
:1014100004E0FFF7DFFBC01B022831D82068800101
:10142000F7D4296BE86AE2680843696BFD231B0463
:101430009A43114308430DE000100240B231000806
:101440000C00002040100240007000408813000093
:1014500000000140E060206830432060FFF7BAFBE5
:10146000054604E0FFF7B6FB401B022808D82068B9
:101470008001F7D521E0FFF7ADFB401B022801D921
:101480000320FEBD20688001F5D416E00128F8D0C5
:10149000E06801210904EA6A014091420BD10F2161
:1014A00089042A6B0140914205D103218905084036
:1014B000696B884201D00120FEBD0020FEBD70B5E1
:1014C000040007D0002625464035A662687C002827
:1014D00002D005E0012070BD2E74204600F030F8E7
:1014E0000220687420680168402291430160A1686D
:1014F000606822690843E168114308436169012279
:101500000843A169520211400843E1690843216A76
:101510000843A16A084321680860A0690421000CFF
:101520000840616A0843216848602068C1699200E8
:101530009143C161666501206874002070BD0000A0
:1015400010B586B0044614216846FEF71EFE104909
:101550002068884219D10F48816B01229203114300
:101560008163C26A02210A43C262C06A01910840D3
:101570000590072040030090002103200291049170
:10158000039069460448FFF75DFA06B010BD0000FD
:1015900000380040001002400004005004220449BA
:1015A0000428086902D09043086170471043FBE7A4
:1015B00000E000E0094910B5401E884201D9012031
:1015C00010BD074C60610321081F00F04FFD002093
:1015D000A06107202061002010BD0000FFFFFF0078
:1015E00000E000E0704770B5416F0446856F006809
:1015F000826810261206002A14DA212912D1816885
:10160000802291438160A06E002808D0FFF7FFF888
:10161000002804D0A06EFFF742F920281DD02046F4
:1016200000F0C5FE20688168490614D5222D12D12C
:101630008168402291438160E06E002808D0FFF766
:10164000E6F8002804D0E06EFFF729F9202804D03E
:10165000204600F09CFE002070BDE667032070BDB0
:1016600070470000F8B502680446D06911689368B5
:1016700005072D0F5BD0DD07ED0FFF2621360E404D
:101680002E4367D0C60706D0CE0504D501261662C4
:10169000E26F3243E267870702220426002F06DA50
:1016A000DF0704D027683A62E76F3743E7674707E9
:1016B00006D5DB0704D023681E62E36F1343E3679C
:1016C000020709D520220A402A4305D023680822B0
:1016D0001A62E36F1343E367E26F002A2FD080069C
:1016E00006D5880604D5216E002901D020468847FA
:1016F000E06F21688968490601D4000724D5204697
:1017000000F045FE20688168490619D581684022AD
:1017100091438160E06E002812D020498163E06E21
:10172000FFF797F800280AD0E06E816B06E0850687
:1017300010D58D060ED5216E1CE020468847F8BDD9
:101740002046FFF78DFFF8BD2046FFF789FF0020F8
:10175000E067F8BDC50208D55B0206D5012000058B
:1017600010622046FFF73EFFF8BD030605D50B06C5
:1017700003D5616E0029E0D1F8BD4006FCD54806CE
:10178000FAD51368204640218B43136020216167FE
:101790000021616600F0BCF9F8BD0000B12200082C
:1017A00010B5040003D0606F002802D007E00120CC
:1017B00010BD002170200155204600F027F824209C
:1017C000606720680168490849000160204600F010
:1017D000F7FD0128ECD0606A002802D0204600F016
:1017E000D1FC206841680922D202914341602068FF
:1017F00081682A2291438160206801680122114397
:101800000160204600F024FD10BD0000F0B587B057
:10181000064614216846FEF7B8FC2B49306888421A
:1018200050D12A48416B0122920311434163C16A9E
:1018300001221143C162C06A0024104005900320B8
:10184000400200900220032701A991C104200490C6
:10185000052069460007FFF7F5F81E4D1C48AC60EF
:10186000EC6081C5EC602C6180276C61AF60AC617D
:101870001848083DFFF76AF8002801D0FEF7C6FFB8
:10188000F566AE62134D12484835143828600320BF
:10189000686029461020083191C16C61AC61EC612F
:1018A00028462C62FFF752F8002801D0FEF7AEFF61
:1018B000B566002211461B20AE62FFF7DBF91B2044
:1018C000FFF7CEF907B0F0BD00380140001002402C
:1018D0003000024050010020F8B50446806F2028F7
:1018E0004DD100290BD0002A09D00123A0681B0389
:1018F000984206D12069002803D1C80701D00120F1
:10190000F8BD25466035287C012838D00120287490
:101910005820616502530026E6672220A067E06E2A
:10192000002819D01749C162E16E17480863E16EBB
:1019300016484863E06E13468663676D21683A4631
:101940002431E06EFFF74AF8002805D01020E06748
:101950002E7420206067D2E72E7420680168FF2271
:1019600001321143016020688168012211438160C6
:10197000206881684022114381600020F8BD022068
:10198000F8BD00000D2300084B230008C522000805
:1019900070477047FFB50446406F83B017460D4649
:1019A00020285CD1002D0AD0002F08D0A168C001EA
:1019B000814207D12069002804D1E80702D0012024
:1019C00007B0F0BD204660300290007C012846D070
:1019D0000298012101740020E06721206067FFF771
:1019E000F9F8264640360190378277820120A168B7
:1019F0000003814202D12069002802D02F46002531
:101A000011E000270FE000228021204600F0ECFDCD
:101A1000002815D1002F15D02168387888627F1CE6
:101A2000708A401E7082708A019B00280698009080
:101A3000E9D100224021204600F0D6FD002808D040
:101A40000320BDE728882168C005C00D8862AD1C51
:101A5000E6E720206067029900200874B0E70220C2
:101A6000AEE70000F8B50446406F202847D10029B2
:101A70000BD0002A09D00123A0681B03984206D18D
:101A80002069002803D1C80701D00120F8BD2546F0
:101A90006035287C012832D001202874204640304F
:101AA000E164028242820026E66721206067A06E20
:101AB000002819D01349C162A16E13480863A16EB2
:101AC00012484863A06E134686632768E16C3A4665
:101AD0002832A06EFEF782FF002805D01020E067B4
:101AE0002E7420206067D0E72168402008622E74A1
:101AF000206881688022114381600020F8BD0220A7
:101B0000F8BD00005523000885230008C522000801
:101B100070477047FEE710B50524240700222021F6
:101B20002046FFF750F8206803210902884320600F
:101B30002068FF2101310843206000221021204647
:101B4000FFF741F8022001F071FA0122202120461E
:101B5000FFF739F8022001F069FA0022202120461F
:101B6000FFF731F810BD10B505242407002220210D
:101B70002046FFF728F820680321090288432060E7
:101B80002068FF21013108432060012210212046F6
:101B9000FFF719F8022001F049FA0122202120461E
:101BA000FFF711F8022001F041FA0022202120461F
:101BB000FFF709F810BDF8B50025052407462407EE
:101BC00020680321090288432060206820602E4697
:101BD000002220212046FEF7F6FF022001F026FA1F
:101BE000012220212046FEF7EEFF6806050E102197
:101BF0002046FEF7E3FF002801D06D1CEDB2012066
:101C000001F014FA761CF6B2082EE1D3002F03D0AF
:101C1000FFF781FF2846F8BDFFF7A5FFFAE770B58B
:101C200015460C46064600F04EF8304600F012F815
:101C300000280ED004E00120FFF7BDFF2070641CD7
:101C40006D1E2D062D0EF6D10020FFF7B4FF20707B
:101C5000012070BD70B5052636070546316830464F
:101C600003221202914331603168FF220132114395
:101C7000316000222021FEF7A6FF0024E80901D0F0
:101C8000012200E0002210213046FEF79CFF68068A
:101C9000050E022001F0CAF9012220213046FEF78C
:101CA00092FF022001F0C2F9002220213046FEF707
:101CB0008AFF022001F0BAF9641CE4B2082CDDD3DB
:101CC00000F051F870BD10B50524240720680321E9
:101CD0000902884320602068FF2101310843206009
:101CE000012210212046FEF76EFF0122202120460E
:101CF000FEF769FF042001F099F900221021204627
:101D0000FEF761FF042001F091F900222021204616
:101D1000FEF759FF10BD10B50524240720680321E4
:101D20000902884320602068FF21013108432060B8
:101D3000002220212046FEF746FF002210212046E7
:101D4000FEF741FF042001F071F901222021204615
:101D5000FEF739FF042001F069F901221021204625
:101D6000FEF731FF10BD70B500250524240720685B
:101D7000032109028843206020682060012210218D
:101D80002046FEF720FF012001F050F9012220211A
:101D90002046FEF718FF012001F048F907E06D1C0E
:101DA000EDB2FA2D03D9FFF7B6FF002070BD102168
:101DB0002046FEF703FF0028F1D100222021204613
:101DC000FEF701FF012070BD70B515460C460646B2
:101DD000FFF779FF304601E02078641CFFF73AFFF7
:101DE000002807D028466D1EEDB20028F4D1FFF779
:101DF00092FF012070BD0000F8B519A000680090A6
:101E00000024032269467020FFF7DEFF642001F002
:101E1000FFF80025BA26E1271CE06846067001227B
:101E200069467020FFF7D0FF642001F0F1F86846A2
:101E30000770082141708570032269467020FFF702
:101E4000C3FF641CE4B20A2C01D30020F8BD642057
:101E500001F0DEF800F048F80028DED00120F8BDDF
:101E6000E10800007CB51F49054603C90026019121
:101E700000903446032269467020FFF7A5FF4B20EF
:101E800001F0C6F807E0012001F0C2F82046641C0A
:101E9000E4B2C82808D2012269467120FFF7BFFECC
:101EA00068460078C009EED1062269467120FFF726
:101EB000B6FE6946487889783043000201430A0239
:101EC0006946C878104300092860C878097900027B
:101ED00001430A026946487910430003000B686019
:101EE0007CBD0000AC31000808B5002168460170D7
:101EF000012269467120FFF792FE6846007868214A
:101F00000840082801D0002008BD012008BD0000BD
:101F100008B50848016B012211430163006B1040B2
:101F20000022009011460A20FEF7A4FE0A20FEF7C8
:101F300097FE08BD00100240F0B587B01421684636
:101F4000FEF723F92748C26A04210A43C262C26A23
:101F50000A400592C26A80210A43C262C26A0A40EC
:101F60000592C16A01242143C162C16A21400591E1
:101F7000C16A02252943C162C06A224628400590F1
:101F8000052037210007FEF71EFE01221703394600
:101F90001548FEF718FE600300260090019669467A
:101FA00002961248FEF74EFD07200090052001948E
:101FB0006946039602940007FEF744FD3020009026
:101FC000052001940294694603940007FEF73AFD48
:101FD000019469460448009703950294FEF732FD88
:101FE00007B0F0BD0010024000040050000800508F
:101FF00010B50E480C490160FF21053141600021F8
:102000008160C16001614161C161012201625202CE
:102010004162826181620721C162FFF750FA0028A4
:1020200001D0FEF7F3FB10BD003800401400002083
:1020300010B50C480A490160E121490241600021C4
:102040008160C16001618161C1610C2201624261F4
:102050004162FFF7A5FB002801D0FEF7D7FB10BDBA
:1020600000380140D0000020704700008307FF22A5
:10207000DB0E9A408907090E994000280BDA000709
:10208000000F0838830808489B001818C369934359
:102090000B43C3617047830804489B001B181868F2
:1020A000904308431860704700ED00E000E400E052
:1020B0007047704710B5FEF793FD10BD30B59DB069
:1020C00038216846FEF761F8142117A8FEF75DF87D
:1020D00024210EA8FEF759F8144801680322D20201
:1020E0009143C21489180160500101900B900320A4
:1020F000022180040C900125880500950D900A911D
:102100006846FEF799FF0F201790002403201890CF
:1021100019941A9401211B9417A8FEF77BFE0EA8B0
:102120000E951194FEF7AAFD1DB030BD0070004061
:1021300010480168821511430160C1680E4A1140C0
:10214000C16001680D4A1140016081684908490079
:10215000816001680122920491430160C168FD22FF
:1021600012049143C160002101610549C0038860E8
:1021700070470000001002400C40FF88F6FFF6FE9A
:1021800000ED00E010B5818CC90707D001684A68EE
:1021900001235B049A43836A1A434A60818C89074E
:1021A00007D501684A6801231B049A43C36A1A438E
:1021B0004A60818C490707D501684A6801239B045E
:1021C0009A43036B1A434A60818C090707D501685B
:1021D0004A680123DB039A43436B1A434A60818CAC
:1021E000C90607D50268916801231B039943836BD5
:1021F00019439160818C890607D501688A6801239B
:102200005B039A43C36B1A438A60818C490612D5DB
:1022100003685A6801210905046C8A4322435A6005
:10222000026C8A4207D10268516803235B05994317
:10223000436C19435160818C090607D501684A68CF
:102240000123DB04806C9A4302434A6010BD000006
:10225000F8B500260446C667FEF7BCFC05462068B4
:102260000068124F000709D501212B4600224905BD
:102270002046009700F0B8F900280DD120680068CA
:1022800040070BD501212B460022890520460097E7
:1022900000F0AAF9002801D00320F8BD20206067D3
:1022A000A067603426740020F8BD0000FFFFFF0126
:1022B00010B5806A0022014640314A834A82FFF706
:1022C000CFF910BD70B5846A606FA56F2168896809
:1022D00000260906002906DA212804D152200653D7
:1022E000204600F064F820688068400606D5222D5C
:1022F00004D15A200653204600F049F8E06F10211F
:102300000843E0672046FFF7ABF970BD10B5014602
:102310000968806A0968890614D400225A210A5281
:1023200001680A68FF2301339A430A6001688A68DA
:10233000520852008A6001688A6840239A438A6082
:1023400020218167FFF724FB10BD10B5806AFFF7DD
:1023500020FB10BD10B501460968806A096889062E
:102360000DD4002252210A5201688A6880239A43C0
:102370008A600068016840221143016010BDFFF7C8
:10238000C7FB10BD10B5806AFFF7C3FB10BD016825
:102390000A68FF2321339A430A6001688A68520859
:1023A00052008A6020218167002101667047016820
:1023B0000A68C0239A430A602021416770470000E1
:1023C000F8B504462669A268E769324366691020B9
:1023D00000253E432368324378491E68784F3E40CB
:1023E00016431E6023685A6803263603B243E66824
:1023F00032435A602368A2698B4201D0266A324375
:102400009E680B273F02BE4316439E606D4E2368B5
:102410006D4AB3420CD1D2689207920F06D0012ABE
:1024200038D0022A34D0032A20D11EE001201DE03A
:10243000664EB3420AD1D2680C26324026D0042A16
:1024400028D0082A24D00C2A10D10EE08B420DD1BE
:10245000D66803229202164018D001229202B61AC0
:1024600018D0B61A14D0964200D10820564A012638
:10247000403A574FF6038B4236D100280CD0022841
:102480000DD0042812D008281FD11CE00020EDE751
:102490000220EBE70420E9E7FEF772FD08E0106890
:1024A000C00601D5384605E04A4803E0FEF788FD3E
:1024B000002873D0626851005118814205D8110379
:1024C000814202D303E03046F4E7012566E0010EC5
:1024D00006025008002330185941FDF71FFE032162
:1024E0000902411A3C4A55E0E169B14232D1030088
:1024F00000F011F909070A0D06250606062B06004D
:10250000E3E7FEF73DFD1CE0FEF74AFD19E0106829
:102510006168C00602D54808304A01E0304A4808E0
:102520008018FDF7E5FD80B201462E4A1039914230
:10253000CBD8511C01400007400F08432CE0FEF7A8
:102540003FFD616840004A08EAE7616801224808E7
:102550001204E5E7030000F0DEF809070A0D06267D
:102560000606062C0600B0E7FEF70AFD1DE0FEF7A2
:1025700017FD1AE010686168C00602D54808C01946
:1025800002E014484A081018FDF7B2FD80B2014677
:10259000144A1039914298D82168C86000202066FA
:1025A00060662846F8BDFEF70BFD61684A08801892
:1025B000EAE7616848088019E6E700000048004043
:1025C000F369FFEF00380140401002400044004032
:1025D00000093D000024F400FFFC0F0000127A0007
:1025E0000048E801EFFF0000FFB581B017460E4636
:1025F00004460A9D09E0681C07D0FEF7EBFA04992F
:10260000401AA8420CD8002D0AD02068C169304673
:10261000884318D00020B842EDD0002005B0F0BDAE
:1026200020680168FF22A13291430160206881681F
:1026300049084900816020206067A067002060345D
:1026400020740320EAE70120E5E7000010B500F060
:102650001FF80248FFF706F810BD0000D000002068
:1026600010B5094C21780948FEF7C2F80020207007
:10267000607021780548FDF788FD044964228818B8
:10268000FFF72AF910BD0000040000206C000020B4
:1026900010B50B480068C169C906C90F0ED01021DA
:1026A00001620748FEF79FFF0548803000684068D8
:1026B0006421091A034801700121417010BD000016
:1026C000D0000020040000200FB410B503A9044B73
:1026D000044A029800F0F6F810BC08BC04B0184791
:1026E00061300008100000202021020C01D01021D0
:1026F0001046020A01D010460839020901D01046DE
:10270000091F820801D01046891E420801D0881E88
:102710007047081A704730B47446641E2578641CEC
:10272000AB4200D21D46635D5B00E31830BC184726
:1027300002E008C8121F08C1002AFAD1704770478A
:10274000002001E001C1121F002AFBD170470000E8
:10275000F0B51FB486B00998089A030D0021024312
:1027600014D05148514A18185043051411980128A3
:1027700010981AD0281A401C00264D4F4D4900963B
:1027800001910490002812DA444211E011980124CA
:1027900049A3012801D11098C1430698119A846079
:1027A0000360C26041600BB0F0BD4042E4E7044604
:1027B000210500203F4A001C51410391029012E084
:1027C000E00707D032463B4601990098FDF756FED8
:1027D0000191009032463B4610461946FDF74EFEE9
:1027E00006460F466410002CEAD10498039B00288B
:1027F000029A0999089806DAFDF740FE019B009AB3
:10280000FDF73CFE05E0FDF7A1FE019B009AFDF7F8
:102810009DFE04460E460022284BFDF72FFF03D8ED
:102820000020C043014607E00022254B20463146E8
:10283000FDF772FDFDF702FF102409E0002C0ADB12
:102840000A220023FDF76AFC079B30321A55641EEA
:1028500002460A43F2D11122641C079B121B1C1969
:10286000119B012B03D0012308430ED10AE008433A
:1028700004D0112010900020119077E71098151ABD
:102880006D1E0BE01098824202DD00236D1C03E0F8
:10289000824201DA00236D1E002BEED006981199BA
:1028A0008260C16030C07EE701FCFFFF104D000078
:1028B000000014400000F03F300000000000F04332
:1028C0000000E03FFFB597B00646002518E2252836
:1028D00077D100242746FD49049400E00443761C88
:1028E00032780120203A90400842F7D130782A28E7
:1028F0000ED00222307801463039092916D80499C1
:102900000A235943303940181443761C0490F1E7E8
:10291000189802C804911890002904DA0120400395
:1029200004434842049002200443761C30782E2849
:1029300014D1042004437078761C2A2809D11898F1
:10294000761C80C8189009E00A214F43303FC71910
:10295000761C3078014630390929F5D930786C2851
:1029600010D006DC4C281AD068280ED06A2817D15F
:1029700004E0742813D07A2812D110E00120400519
:1029800004430CE00121090501E0032109050C4382
:102990007178814203D1012000052418761C761C31
:1029A0003078119066280BD013DC58287DD009DCD4
:1029B00000287BD04528F6D04628F4D047281AD1E5
:1029C000A5E118E0632835D0642870D0652812D1BD
:1029D0009DE170286CD008DC6728F1D069287BD095
:1029E0006E280DD06F2806D1BAE073282ED0752836
:1029F00071D0782859D01A9A199990476D1C7EE1A8
:102A00006002400F022809D003280DD0042818982E
:102A100001680DD00D60001D189070E11898EA173C
:102A200001680D604A60F6E7189801680D80F2E7CA
:102A30000D70F0E718986A4601781172001D189021
:102A40000020507202A80090012005E0189802C8EA
:102A5000189000200091C04361070DD5002101E0CE
:102A60000199491C0191B94212DA8142F8DB009ABE
:102A7000515C0029F4D10BE0002101E00199491CCF
:102A800001918142FADB019A0099895C0029F5D114
:102A9000019904981A9B471A21463846199A00F062
:102AA00097FA0199401945180BE04FE02CE113E02B
:102AB0004EE0009800990078491C00911A9A1999E3
:102AC00090470198401E0190401CF2D121463846A3
:102AD0001A9B199A10E137E00A2000210090019119
:102AE0006002410F022907D0189A01CA1892C21732
:102AF0009446032908D00AE01898C01DC108C900EF
:102B000005C91891944607E000B2C21794460429FB
:102B100002D140B2C1178C4600226146944506DAC4
:102B20000A460021404291418C462D2102E02105B8
:102B300004D52B216A461173012103E0E10701D07E
:102B40002021F7E7029155E00A200AE0102008E072
:102B5000102000900021042004430191082703E085
:102B600008200021019100906002410F022907D046
:102B7000189A01CA189200229446032908D008E046
:102B80001898C01DC108C90005C91891944603E0F2
:102B900080B2042900D1C0B200210291210729D5B9
:102BA0001199702906D0009A1021019B4A401A43BE
:102BB00005D00EE040216A461173012108E061460C
:102BC000014306D030216A461173119951730221D5
:102BD0000291009A0821019B4A401A430AD161469A
:102BE000014301D1610705D530216A4611730121E6
:102BF0007F1E02911199582904D035A10E910DA97B
:102C00000D910DE037A1F9E76146019B009AFDF7B0
:102C100085FA0E9B8C469B5C0D9A521E0D9213708A
:102C200061460143F0D10D9805A9081A20300190A2
:102C3000600703D501200004844300E001270198C8
:102C4000874201DD381A00E0002001990090411808
:102C5000029809180498401A0490E00306D421460B
:102C60001A9B199A049800F0B3F94519002706E059
:102C700003A81A9AC05D199990476D1C7F1C029891
:102C80008742F5DBE0030CD521461A9B199A04987C
:102C900000F09EF9451904E01A9A302019999047DE
:102CA0006D1C0099481E00900029F5DC08E00D9885
:102CB0000D990078491C0D911A9A199990476D1C2D
:102CC0000199481E01900029F1DC63E10928010007
:102CD0003031323334353637383961626364656692
:102CE0000000000030313233343536373839414254
:102CF000434445460000000000F05AF94519761C8F
:102D00003078002800D0E2E528461BB0F0BD60070F
:102D100000D406271898C01DC108C90048680A6871
:102D20000831C30FDB071891190001D09CA108E0FE
:102D3000210501D59BA104E0E10701D09AA100E0A3
:102D40009AA1430011985B08109165280CD006DC0D
:102D5000452809D046281DD0472841D141E06628A2
:102D600018D067283CD13CE00021112F01DB112055
:102D700000E0781C0191009008A911A8FFF7E8FC79
:102D8000139905910021119A15927F1C12980197B1
:102D9000009150E00120C00703900120019008A994
:102DA000009711A8FFF7D4FC139A149905920022FA
:102DB000119B009212981593059A0192002901D057
:102DC000104602E0791C40180190381A01D501988C
:102DD00004E04042401E0090781C0190C01B02900D
:102DE00043E0012F00DA01270021112F01DD11201E
:102DF00000E038460191009008A911A8FFF7A8FC4F
:102E000013990591119A002112981592009101973A
:102E100021070CD40599B94201DB019900E0019129
:102E2000012904DD159A491E515C302906D0B842AB
:102E300001DA011D05DA0121029115E00199491E0F
:102E4000EDE7002805DC0099411800910199091A65
:102E500003E0019A411C914200DD01910099401A62
:102E6000401C02900120C0070390200706D402995D
:102E70000198814202DB0020C04302900020694695
:102E8000C87707AF012103980337C907884224D0C8
:102E9000022011902B201290039800280CDA404257
:102EA00003902D20129007E00A210398FDF720F9E6
:102EB00030317F1E039039701199481E11900029FE
:102EC000F2DC03980028EFD1791E12980870307850
:102ED000202108404530BF1E387006A8C01BC01D09
:102EE000039010980078002800D001200199411823
:102EF0000298C0170918039809180498401A401E30
:102F00000490E00306D421461A9B199A049800F015
:102F10005FF8451910980078002803D01A9A19997B
:102F200090476D1CE00324D521461A9B199A0498FA
:102F300000F04EF845191CE00098002807DB0099C6
:102F40000598884203DD1598405C199901E01999AC
:102F500030201A9A904700986D1C401C00900298EF
:102F6000401E0290002804D11A9A2E2019999047E9
:102F70006D1C0199481E01900029DDDC05E03878C0
:102F80001A9A7F1C199990476D1C0399481E03904B
:102F90000029F4DC21461A9B199A0498ACE600003B
:102FA0002D0000002B0000002000000000000000A9
:102FB000F8B5044600251E461746880404D405E0EB
:102FC00039462020B0476D1C641EF9D52846F8BD4F
:102FD000FFB50446002581B01E46C80301D5302741
:102FE00000E02027880404D505E038460399B0475F
:102FF0006D1C641EF9D5284605B0F0BD10B5044619
:103000000420FEF7CBFA0148046010BD0000002048
:1030100070B500247D260546F60003E0304600F03A
:1030200005F8641CAC42F9D370BD000070B50A4CC1
:10303000002365690949A26909684843A169914269
:10304000FCD0914201D2521A01E06E1AB218D31884
:103050000A468342F2D370BD00E000E00000002089
:1030600013B5044B012269460348FEF793FC009810
:103070001CBD0000FFFF0000D00000201CB5FDF7C4
:10308000B7FDFFF71BF8FEF757FFFEF741FFFEF70E
:10309000AFFFFEF7CDFF2020FFF7B0FF2A48006802
:1030A0000168102211430160642228492648FEF776
:1030B00013FC27A0FFF708FBFEF79EFE002803D0B5
:1030C00028A0FFF701FB08E029A0FFF7FDFAFEE7C3
:1030D000FEF792FE1E20FFF79BFFFEF705FF00287C
:1030E000F6D06846FEF7BEFE7D210098C900484331
:1030F000000DFDF793F8224C2146FDF751F8FDF73E
:1031000094F802460B461FA0FFF7DEFA7D210198D6
:1031100009014843000DFF38F538FDF77FF82146D7
:10312000FDF73EF8FDF781F802460B4619A0FFF7C0
:10313000CBFA1C48FFF76CFF1B4800780028CCD066
:10314000FFF78EFAC9E70000D00000206C000020D5
:1031500053544D33324C3035335F41485431300D88
:103160000A000000B3F5CABCBBAFCDEAB3C900008A
:10317000496E69745F6572726F720D0A000000001B
:1031800000002041CAAAB6C83A252E31662525205E
:1031900020000000CEC2B6C83A252E3166A1E60D49
:1031A0000A000000DC05000005000020AC33000030
:1031B00000000000000000000000010203040607F8
:1031C0000809030406080C10182030000000000154
:1031D00002030400F4310008000000201400000085
:1031E000302700080832000814000020CC05000039
:1031F0004027000800000000000000000000000060
:083200000000200000000000A6
:04000005080000C12E
:00000001FF
