:020000040800F2
:10000000E8050020010100082B1B00086519000805
:10001000291B000899010008A52300080000000022
:10002000000000000000000000000000651F000844
:100030000102000800000000691E0008671F000898
:100040001B0100081B0100081B0100081B01000820
:100050001B0100081B0100081B0100081B01000810
:100060001B0100081B0100081B0100081B01000800
:100070001B0100081B0100089D010008A9010008E0
:100080001B0100081B0100081B0100081B010008E0
:100090001B0100081B0100081B0100081B010008D0
:1000A0001B010008012000081B0100081B010008BB
:1000B0001B0100081B0100081B0100081B010008B0
:1000C0001B0100081B0100081B0100081B010008A0
:1000D0001B010008912300081B0100081B010008F8
:1000E0001B0100081B0100081B010008DFF80CD0F1
:1000F00000F040F8004800478D260008E805002081
:100100000648804706480047FEE7FEE7FEE7FEE7B1
:10011000FEE7FEE7FEE7FEE7FEE7FEE7B91F0008A1
:10012000ED000008D2B201E000F8012B491EFBD21D
:1001300070470022F6E710B513460A4604461946F2
:10014000FFF7F0FF204610BD30B50B4601460020FA
:100150002022012409E021FA02F59D4205D303FA89
:1001600002F5491B04FA02F52844151EA2F101020A
:10017000F1DC30BD064C074D06E0E06840F00103BD
:1001800094E8070098471034AC42F6D3FFF7B2FF6B
:10019000D8270008F8270008FEE70000014800F013
:1001A000CFB80000A4010020014800F0C9B8000049
:1001B0006001002030B590F840500124AC40C56B80
:1001C0006C60046863604368102B036803D0996017
:1001D0000068C26030BD9A600068C16030BD000038
:1001E0000A4610B50146054801F07AFB002803D005
:1001F000BDE8104000F034B810BD00002001002020
:100200007047000010B501F0B5FC0B4C09E002216D
:10021000204600F0ACFA09A002F0FCF8642000F0DF
:100220009FF901F083FC0028F1D109A002F0F2F857
:10023000BDE8104001F0AEBC00080140D5FDD4DAA5
:10024000B2E9D5D24E524632344C30310D0A00005C
:10025000D5D2B5BD4E524632344C30310D0A000075
:10026000704710B590F821100022022905D0042112
:10027000816380F82020012010BD01680B6823F005
:100280000E030B6001680B6823F001030B6090F80C
:100290004030C46B012101FA03F3636080F8211040
:1002A00080F82020104610BD10B590F821100024D1
:1002B000022903D00421816301243DE001680A681A
:1002C00022F00E020A6001680A6822F001020A6048
:1002D0001A4A0168914201D1012121E0174A1432E2
:1002E000914201D110211BE0144A2832914201D1E0
:1002F000891515E0114A3C32914201D189140FE071
:100300000E4A5032914202D14FF4803108E00B4A3C
:100310006432914202D14FF4801101E04FF08071BC
:10032000064A083A5160012180F82110002180F826
:100330002010416B01B18847204610BD08000240E3
:100340002DE9F05FC16B0C6801680B68D0F840C004
:10035000042202FA0CF2494DDFF824A1494E4A4F1B
:10036000DFF828B1DFF828E122422CD05A072AD53D
:100370000A68920603D40A6822F004020A6001683F
:10038000A94201D1042219E0514501D1402215E0D2
:10039000B14202D14FF4806210E0B94202D14FF471
:1003A00080420BE0594502D14FF4802206E07145AE
:1003B00002D14FF4800201E04FF080622F490839EA
:1003C0004A60C16A3BE04FF0020808FA0CF818EAEC
:1003D000040F4FF000094FF0010235D05FEA837837
:1003E00032D50B689B0605D40B6823F00A030B601B
:1003F00080F821200168A94201D1022219E051456B
:1004000001D1202215E0B14202D14FF4007210E078
:10041000B94202D14FF400520BE0594502D14FF4DA
:10042000003206E0714502D14FF4001201E04FF0B6
:100430000072124908394A6080F82090816A0029C8
:100440001AD0BDE8F05F0847082505FA0CF52542EB
:1004500012D01B0710D50B6823F00E030B6090F829
:100460004010C36B02FA01F15960826380F82120C9
:1004700080F82090016BE2E7BDE8F09F08000240A1
:100480001C0002403000024044000240580002407C
:100490006C00024030B528B308C81349142219442F
:1004A000B1FBF2F18900C1631049816302214177F8
:1004B0001A6843F6F0718A43D0E900142143D0E969
:1004C00002452C4321430469214344692143846943
:1004D00021431143196000214163012242770177D2
:1004E000084630BD012030BDF8FFFDBF00000240CE
:1004F00070B5044690F82000002501280CD001209A
:1005000084F8200094F821600020012E06D084F8A1
:1005100020000225284670BD022070BD022684F806
:100520002160A0632068066826F001060660204668
:10053000FFF740FEE06A00282068016802D041F021
:100540000E0106E021F0040101602068016841F01D
:100550000A0101602068016841F001010160D9E7EA
:1005600070B5044600F010F90546601C02D004483E
:100570000078044400F008F9401BA042FAD370BD93
:10058000080000202DE9F84FDFF8B891002409F1A8
:10059000040A0AF1040B23460F270BF1040EC9E0ED
:1005A0000125A5402A40AA427DD1674ED1F804C05A
:1005B000ACEB0608B44532D014DCBCF1030F3AD0E2
:1005C00009DCBCF1000F2AD0BCF1010F1CD0BCF13A
:1005D000020F31D11DE0BCF1110F17D0BCF1120F89
:1005E0002AD119E0B8F5881F19D006DCB8F5803F8C
:1005F00015D0B8F5801F1FD111E0B8F5001F0ED03F
:10060000B8F5041F18D10AE0CB6815E0CB681B1DB4
:1006100012E0CB6808330FE0CB680C330CE08B683A
:100620002BB1012B4FF0080303D0456104E00423F4
:1006300002E0056100E00023FF2A01D8064601E040
:1006400000F104064FEA840501D9A5F12005D6F88A
:10065000008007FA05FC28EA0C0803FA05F548EAC9
:100660000508C6F800804D68ED0062D5374DAE69CB
:1006700046F00106AE61AD6924F0030605F0010500
:100680000095334D06EB050CDCF80850A607360F35
:1006900007FA06F825EA0805DFF8B880404503D1D7
:1006A0004FF0000817E044E0DFF8AC80404502D18D
:1006B0004FF001080FE0DFF8A480404502D14FF071
:1006C000020808E0DFF89880404502D14FF00308A7
:1006D00001E04FF0040808FA06F848EA0508CCF8EB
:1006E00008804D68D9F80060ED034D4601D51643EA
:1006F00000E096432E604D68DAF80060AD03554681
:1007000001D5164300E096432E604D68DBF800608B
:10071000ED025D4601D5164300E096432E604D681C
:10072000DEF80060AD02754601D5164300E0964341
:100730002E60641C0D682A46E5407FF431AFBDE8A9
:10074000F88F00000004014000001110001002406A
:100750000000014000080140000C01400010014071
:10076000001401408068084000D001207047C26832
:1007700021EA02030A4043EA0241016170470AB1DB
:10078000016170470904FBE7014880687047000079
:100790000800002002488168027811448160704797
:1007A00008000020074810B5016841F01001016001
:1007B000032000F075F8002000F006F800F024F89F
:1007C000002010BD0020024070B50D4D04464FF4CE
:1007D0007A712878B1FBF0F00A490968B1FBF0F0B2
:1007E00000F07BFC48B9102C07D200222146501E95
:1007F00000F036F800206C6070BD012070BD000074
:1008000008000020140000200C4808B5816941F060
:1008100001018161816901F001010091C16941F02B
:100820008051C161C06900F0805000900448416867
:1008300021F0E06141F00071416008BD001002400C
:1008400000000140002809DB00F01F020121914057
:100850004009800000F1E020C0F80011704700005E
:10086000F0B40E4B1B680C46C3F30223C3F107051B
:10087000042D00D90425191D072901D2002300E009
:10088000DB1E012606FA05F1491E214099409E40D3
:10089000761E16403143F0BC01F0E0BD0CED00E0E7
:1008A000064900F0070208684FF6FF03184040EAC7
:1008B0000220034A10430860704700000CED00E07E
:1008C0000000FA052DE9F0470F46050061D0434EC0
:1008D000306800F00700B84209D2306820F0070005
:1008E00038433060306800F00700B84251D12868C2
:1008F0003B4C810712D5400703D5606840F4E060A7
:1009000060602878000703D5606840F4605060603C
:100910006068A96820F0F000084360602878C0078C
:1009200028D06868012810D02168022810D08907D3
:1009300000292EDA616821F0030101436160FFF7AD
:1009400023FF804641F288390DE021688903EFE7F3
:100950008901EDE7FFF718FFA0EB0801494502D92F
:100960000320BDE8F0876068696800F00C00B0EB18
:10097000810FEFD1306800F00700B8420BD9306822
:1009800020F0070038433060306800F00700B842BC
:1009900001D00120E5E72878400705D56068E968BF
:1009A00020F4E060084360602878000706D560689E
:1009B000296920F4605040EAC100606000F038F816
:1009C0006168084AC1F30311515CC84006490860D8
:1009D00006480068FFF7F8FE0020C2E7002002404A
:1009E00000100240BE270008140000200C00002068
:1009F0000448054900684968044AC1F30221515C72
:100A0000C84070471400002000100240CE270008A4
:100A10000448054900684968044AC1F3C221515C91
:100A2000C84070471400002000100240CE27000884
:100A300012A185B00FC98DE80F0014A0144A0068F8
:100A400004905168134801F00C03042B10D0082BBC
:100A50000ED1C1F38343C9031DF803000AD55168C1
:100A600004AAC1F34041515C0A4A5043B0FBF1F083
:100A700005B0704708494843FAE70000020304053F
:100A8000060708090A0B0C0D0E0F101001020000DA
:100A90000010024000127A0000093D002DE9F84FD5
:100AA000040070D02078C04DC00749D06868C0F3FA
:100AB0008100012807D06868C0F38100022809D1AD
:100AC0006868C00306D52868800339D560680028A7
:100AD000E7D035E06068B0F5803F0BD010B1B0F5DD
:100AE000A02F11D0286820F480302860286820F4D6
:100AF000802002E0286840F480302860606890B16F
:100B0000FFF742FE06460AE0286840F4802028608D
:100B1000F0E700BFFFF738FE801B642873D8286811
:100B20008003F7D50CE0FFF72FFE064605E000BF77
:100B3000FFF72AFE801B6428F0D828688003F7D4CA
:100B400020789A4E80074FF001094FF0000839D500
:100B5000686810F00C0F07D06868C0F381000228A5
:100B600009D16868C00306D42868800714D52069B5
:100B7000012808D110E02069B0B1C6F80090FFF755
:100B800003FE074605E00AE1FFF7FEFDC01B022851
:100B9000C4D828688007F7D52868616920F0F80074
:100BA00040EAC10028600DE0C6F80080FFF7ECFDC8
:100BB000074604E0FFF7E8FDC01B022823D8286899
:100BC0008007F7D4207800072CD57948A169D9B1DE
:100BD000C0F80090FFF7D8FD074604E0FFF7D4FD0A
:100BE000C01B02280FD8686A8007F7D571484FF4F8
:100BF000FA510068B0FBF1F0009000BF0098411E70
:100C00000091FAD20EE080E0C0F80080FFF7BCFD52
:100C1000074604E0FFF7B8FDC01B022875D8686AD4
:100C20008007F7D42078400760D5E8690027C00026
:100C300008D4E86940F08050E861E869012700F0D5
:100C4000805000905C480168C90513D40168834650
:100C500041F480710160FFF797FD824606E000BF16
:100C6000FFF792FDA0EB0A0064284ED8DBF80000E5
:100C7000C005F5D5E06801280AD008B1052813D0D1
:100C8000286A20F001002862286A20F0040002E0AF
:100C9000286A40F001002862E06841F2883B98B180
:100CA000FFF772FD82460BE0286A40F004002862DC
:100CB000EEE700BFFFF768FDA0EB0A0159455AD8DF
:100CC000286A8007F6D50CE0FFF75EFD824605E056
:100CD000FFF75AFDA0EB0A0159454CD8286A800756
:100CE000F6D41FB1E86920F08050E861E06988B36C
:100CF0006968C1F38101022944D00228C6F86080E6
:100D000004D0FFF741FD044638E034E0FFF73CFD36
:100D1000074604E0FFF738FDC01B02282BD82868DF
:100D20008001F7D4206AB0F5803F05D16868A168DA
:100D300020F4003008436860D4E90801084369687A
:100D400021F4741108436860C6F86090FFF71CFD39
:100D5000044606E025E000BFFFF716FD001B022851
:100D600009D828688001F7D51BE000BFFFF70CFD0C
:100D7000001B022802D90320BDE8F88F28688001F3
:100D8000F4D40EE00128F7D06868226A00F48031BC
:100D9000914204D1616A00F47010884201D00120B0
:100DA000EAE70020E8E700000010024000004242AD
:100DB00080044242140000200070004070B504001E
:100DC00009D0606A002540B125616561A56294F88B
:100DD000510040B10CE0012070BD6068B0F5827F29
:100DE000F4D0E561F2E784F85050204600F040F876
:100DF000022084F851002068016821F04001016060
:100E0000A088218900F4827001F404410843A1897B
:100E100001F400610843217C01F002010843217DB7
:100E200001F001010843218B01F400710843217F87
:100E300001F03801084394F8201001F080010843C4
:100E4000218D01F40051084321680860A069042144
:100E500001EA1040216848602068C16921F40061FE
:100E6000C1616565012084F85100002070BD00005B
:100E700030B585B000240094019402940394006876
:100E80001449884223D11448816941F48051816119
:100E9000816901F480510491816941F0040181610B
:100EA00080690E4D00F004000490A0200090022004
:100EB00001900320039069462846FFF763FB40201A
:100EC000CDE90004694628460294FFF75BFB05B0B4
:100ED00030BD000000300140001002400008014019
:100EE0002DE9F84F044690F8500000270A9E1D4651
:100EF00092468B464FF0010901280ED0012084F85C
:100F00005000FFF741FC804694F8510061680128C9
:100F10000CD0B1F5827F07D102E00220BDE8F88F46
:100F2000A16809B9042801D00227C2E0BBF1000F73
:100F300027D0BAF1000F24D01DB394F85100042833
:100F400002D0052084F8510000206065C4F838A064
:100F5000E587A587C4F830B0E586A586206460647F
:100F600020680168490603D4016841F0400101602E
:100F7000E068B0F5006F606805D0E8B3012D46D099
:100F80007FE0012795E008B1012D39D1206B216860
:100F90000088C860206B801C2063E08E401EE086C5
:100FA0002EE02068816889070FD5E18E69B1B9F11B
:100FB000010F0AD1216B0988C160206B801C20635E
:100FC000E08E401EE0864FF0000920688168C90766
:100FD0000CD0E18F51B1C068A16B0880A06B801C60
:100FE000A063E08F401EE0874FF00109FFF7CCFBC4
:100FF000A0EB0800B04200E009E001D3701C50D122
:10100000E08E0028CDD1E08F0028CAD13FE0206BD0
:10101000216800780873206B401C2063E08E401E1E
:10102000E0862EE02068816889070FD5E18E69B1DE
:10103000B9F1010F0AD1216B09780173206B401CB3
:101040002063E08E401EE0864FF000092068816832
:10105000C9070CD0E18F51B1C068A16B0870A06BBB
:10106000401CA063E08F401EE0874FF00109FFF7AE
:101070008BFBA0EB0800B04202D3701C01D010E043
:101080007EB1E08E0028CDD1E08F0028CAD1424643
:101090003146204600F0E9FE28B101272020606596
:1010A00007E0032705E0A06818B92068C1688068D8
:1010B0000090012084F85100002084F85000384648
:1010C0002CE74FF0E0210428086903D020F0040049
:1010D0000861704740F00400FAE710B5401EB0F117
:1010E000807F01D3012010BD4FF0E02460610F210B
:1010F000601701F0B3F90020A061072020610020F3
:1011000010BD70477047000070B590F83C20012A70
:1011100026D0012480F83C40022280F83D2003685C
:101120005A689D6822F070060A6832435A600D4B77
:1011300002689A4208D0B2F1804F05D00A4B9A4219
:1011400002D00A4B9A4204D1496825F08003194322
:10115000916080F83D40002180F83C10084670BD49
:10116000022070BD002C0140000400400008004037
:1011700010B5040003D094F83D0010B107E0012041
:1011800010BD002084F83C00204600F01FF802202B
:1011900084F83D00211D206800F038FF012084F80C
:1011A000460084F83E0084F83F0084F8400084F84C
:1011B000410084F8420084F8430084F8440084F835
:1011C000450084F83D00002010BD000008B500680F
:1011D0000649884208D10648816941F4006181616D
:1011E000806900F40060009008BD0000002C014000
:1011F0000010024090F83D10012901D001207047F5
:10120000022180F83D100168CA6842F00102CA60FC
:1012100000680B49884208D0B0F1804F05D00949D9
:10122000884202D00849884204D1816801F0070150
:10123000062903D0016841F00101016000207047D8
:10124000002C0140000400400008004070B5044636
:1012500090F83C00012817D0012584F83C5002206A
:1012600084F83D002068826822F0770222F47F42F1
:1012700082600868502830D00DDC20284DD005DC75
:1012800098B310283BD148E0022070BD302844D0EC
:10129000402834D139E0602828D0702806D0B0F535
:1012A000805F2CD0B0F5005F29D10AE0CB68D1E98E
:1012B0000121206800F0E0FE2068816841F077019C
:1012C00009E0CB68D1E90121206800F0D5FE206853
:1012D000816841F48041816011E0CA6849682068F2
:1012E00000F0DCFE5021206807E016E0CA6849687B
:1012F000206800F0E4FE6021206800F0C7FE84F85A
:101300003D50002084F83C0070BDCA6849682068E0
:1013100000F0C4FE40212068EFE722680146104635
:10132000EBE7704770B50446006801694FF00005AF
:10133000C943890715D4C168C943890711D4E91E77
:10134000016101202077206880698007204602D053
:10135000FFF7E7FF04E000F098F8204600F096F869
:10136000257720680169C943490717D4C168C94373
:10137000490713D46FF0040101610220207720682F
:10138000806910F4407F204602D0FFF7CAFF04E0D6
:1013900000F07BF8204600F079F825772068016995
:1013A000C943090716D4C168C943090712D46FF0AD
:1013B00008010161042020772068C0698007204669
:1013C00002D0FFF7AEFF04E000F05FF8204600F027
:1013D0005DF8257720680169C943C90617D4C1683B
:1013E000C943C90613D46FF01001016108202077AA
:1013F0002068C06910F4407F204602D0FFF791FFBB
:1014000004E000F042F8204600F040F8257720681C
:101410000169C943C90708D1C168C943C90704D1D3
:10142000891E0161204600F033F820680169C94334
:10143000090609D4C168C943090605D46FF08001C3
:1014400001612046FFF75DFE20680169C943490636
:1014500009D4C168C943490605D46FF04001016150
:10146000204600F021F820680169C94389060BD4A1
:10147000C168C943890607D46FF020010161204685
:10148000BDE87040FFF73EBE70BD7047704700007A
:101490000349884203D103490888401C08807047EB
:1014A0007400002004000020704710B50446006856
:1014B000416994F83920C1F3C011212A0BD151B1EF
:1014C000416921F080014161206B08B1FEF7C9FE3E
:1014D000204600F080FE2068416994F83A20C1F36C
:1014E0008011222A0BD151B1416921F040014161A3
:1014F000606B08B1FEF7B5FE204600F05EFE0020EE
:1015000010BD704770B5026804461068D168536911
:1015100010F00F0F52D003F0010501F490762E4326
:101520005FD0C20705D0CA0503D5E26B42F00102C5
:10153000E263420705D5DA0703D0E26B42F002020C
:10154000E263820705D5DA0703D0E26B42F00402BA
:10155000E263020707D501F020022A4303D0E26BC1
:1015600042F00802E263E26B002A33D0800604D521
:10157000880602D5204600F037FE20684069E16BFE
:10158000C0F38010090700D428B3204600F015FEF0
:101590002068416949061AD5416921F0400141613D
:1015A000606BA0B12D494163606BFEF77DFE0028A2
:1015B00010D0606B416BBDE870400847830610D5C2
:1015C0008B060ED52046BDE8704000F00DBE2046CB
:1015D000FFF797FF70BD2046FFF793FF0020E06301
:1015E00070BD03062BD50B0629D594F839002128A8
:1015F000F6D1A068B0F5805F01D12069B0B1206A52
:10160000411C2162216800784860E08C401E000483
:10161000000CE084E4D12068C16821F08001C16041
:101620002068C16841F04001C16070BD206A008837
:10163000C0F308005060206A801C2062E5E7400685
:10164000F3D54806F1D5D168204621F04001D1609C
:10165000202184F8391000F083F970BDE3200008E0
:1016600070B5040004D094F83900002510B106E0EC
:10167000012070BD84F83850204600F023F8242063
:1016800084F839002068C16821F40051C160204607
:1016900000F0F0FD2068016921F4904101612068AB
:1016A000416921F02A0141612068C16841F400517B
:1016B000C160E563202084F8390084F83A000020F6
:1016C00070BD0000F0B585B000240646009401947A
:1016D000029403940068294988424CD128488169C2
:1016E00041F480418161816901F480410491816903
:1016F00041F0040181618069224D00F004000490F2
:101700004FF400700090022001900320039069467E
:101710002846FEF737FF2815CDE90004694628461C
:101720000294FEF72FFF194D17488027C5E90004E2
:10173000C5E902472C616C61AC612846EC61FEF79B
:10174000A9FE08B1FEF78CFD75636E620F4D0E4861
:101750004435143801C5102091C50C4845F810498E
:1017600044306C61AC61EC61FEF794FE08B1FEF7A9
:1017700077FD35636E6205B0F0BD000000380140B2
:1017800000100240000801405800024060010020A3
:10179000F8B5044690F83A0020283CD1C1B3BAB35A
:1017A00094F83800012836D0012084F83800A1626E
:1017B000A2850025E563222084F83A00636B174870
:1017C0009862636B1648D862636B16481863606B47
:1017D000134645630846666B216802463046091D7C
:1017E000FEF786FE206801684168009184F8385051
:1017F000C16841F48071C1602068416941F0010114
:1018000041612068416941F0400141610020F8BD1B
:10181000FFE70120FBE70220F9E700003D21000877
:1018200079210008F3200008704770472DE9F8433C
:10183000044690F839001F4616460D4620284CD124
:10184000C5B1BEB194F83800012846D0012084F813
:1018500038004FF00008C4F83C80212084F839009B
:10186000FEF792FFA6848146E684A068B0F5805F0B
:1018700003D004E00120BDE8F883206928B12E469A
:101880005FF0000584F838800EE00026FAE780213A
:10189000204600F04BFDA0B9AEB116F8010B21684F
:1018A0004860E08C401EE084E08C4B464FF0000224
:1018B00000970028EBD14FF04001204600F036FDA4
:1018C00030B10320D7E735F8020BC0F30800E6E794
:1018D000202084F839000020CDE70220CBE700006B
:1018E00070B5044690F83900202830D169B362B34E
:1018F00094F8380001282AD0012084F838002162A9
:10190000A284E2840025E563212084F83900236B5A
:1019100010489862236B1048D862236B0F481863F5
:10192000206B134645632668206B321DFEF7E0FDF1
:1019300021686FF04000086084F8385020684169E1
:1019400041F080014161002070BD012070BD022086
:1019500070BD000083210008B1210008F3200008B9
:1019600070477047FEE70000054808B5416941F03F
:1019700001014161406900F00100009008BD0000D4
:10198000001002402DE9F04186B00026284800965C
:10199000019602960396816941F010018161816987
:1019A00001F010010491816941F020018161816998
:1019B00001F020010491816941F004018161816994
:1019C00001F004010491816941F00801816180699D
:1019D000DFF8608000F008000490012202214046F8
:1019E000FEF7CDFE144F002205213846FEF7C7FE54
:1019F00002250124CDE9005469464046CDE902455F
:101A0000FEF7C0FD0520CDE9000469463846CDE962
:101A10000245FEF7B7FD4FF40140CDE900066946E7
:101A200002944046FEF7AEFD06B0BDE8F08100002E
:101A30000010024000080140000C0140104810B5A1
:101A40000E4901604FF48271416000218160C160E4
:101A50004FF400720161C0E905121822C0E90721A4
:101A6000416281620A21C162FFF7A8F9002803D010
:101A7000BDE81040FEF7F4BB10BD0000003001408F
:101A80001C00002010B586B0002418480094019472
:101A90000294039404941449059401604721C0E919
:101AA000011440F2E731C0E903148021C0E9054187
:101AB000FFF75EFB08B1FEF7D3FB4FF480500090B8
:101AC00069460A48FFF7C2FB08B1FEF7C9FB049458
:101AD00004A906480594FFF717FB002801D0FEF77C
:101AE000BFFB06B010BD0000002C014074000020B8
:101AF0000C4810B50A4901604FF4E1314160002102
:101B000081600C22C160C0E904128161C161FFF7EC
:101B1000A7FD002803D0BDE81040FEF7A1BB10BD13
:101B20000038014020010020FEE770471CB50FA1DE
:101B30000522D1E90001CDE900016946302000F01D
:101B400055F905226946102000F054F80020694636
:101B50000A5CA52A03D1401CC0B20528F8D3052889
:101B600001D001201CBD00201CBD0000A5A5A5A51D
:101B7000A500000010B5064C002201212046FEF70A
:101B8000FEFD20460122BDE810400421FEF7F7BD0E
:101B9000000C014010B5154C002201212046FEF733
:101BA000EEFD052212492A2000F020F90121212012
:101BB00000F040F90121222000F03CF928212520E5
:101BC00000F038F92021312000F034F90F212620CF
:101BD00000F030F90F21202000F02CF920460122DE
:101BE000BDE810401146FEF7CABD0000000C0140E0
:101BF000B92700082DE9F041DFF83C8015460F4673
:101C00000446002204214046FEF7B9FD204600F0BC
:101C10003DF90646002405E0FF2000F037F938556D
:101C2000641CE4B2AC42F7D3012204214046FEF723
:101C3000A6FD3046BDE8F081000C014070B50A4DAC
:101C40000446002204212846FEF799FD204600F0B4
:101C50001DF9FF2000F01AF904460122042128464C
:101C6000FEF78DFD204670BD000C014070B50546A5
:101C70000720FFF7E3FF04460146272000F0DAF8CB
:101C800060060AD5202229466120FFF7B3FFFF2115
:101C9000E22000F0CFF8002070BD012070BD0000F0
:101CA00010B5044600F036F8204600F069F8014609
:101CB000202809D010290AD007A000BF00F0AAFBF5
:101CC000BDE81040FFF766BF214608A0F6E70BA06D
:101CD00000F0A0FBF4E7000053656E6420466169E4
:101CE0006C65643A25640D0A00000000B7A2CBCDF4
:101CF000CDEAB1CF3A25730D0A00000053656E643A
:101D0000204661696C65643A4D41585F54580D0A2C
:101D10000000000010B5184C002201212046FEF7FB
:101D20002EFD05221549302000F060F813490522E8
:101D3000491D2A2000F05AF80121212000F07AF8EC
:101D40000121222000F076F81A21242000F072F8F8
:101D50002821252000F06EF80F21262000F06AF8D7
:101D60000E21202000F066F820460122BDE8104038
:101D70001146FEF704BD0000000C0140B427000826
:101D800070B5184D0446002201212846FEF7F7FCE5
:101D900020222146A02000F029F8012211462846E1
:101DA000FEF7EDFC104D4FF4004421462846FEF7A7
:101DB000D9FC0028F9D10720FFF740FF044601466F
:101DC000272000F037F8E00605D5FF21E12000F0DC
:101DD00031F8102070BDA00601D5202070BDFF2075
:101DE00070BD0000000C0140000801402DE9F041E9
:101DF000DFF83C8016460D4604460022042140468A
:101E0000FEF7BDFC204600F041F80746002405E03F
:101E100015F8010B00F03AF8641CE4B2B442F7D3B1
:101E2000012204214046FEF7AAFC3846BDE8F081B5
:101E3000000C014070B50B4D0E46044600220421F3
:101E40002846FEF79CFC204600F020F80446304669
:101E500000F01CF8012204212846FEF790FC2046E1
:101E600070BD0000000C0140704738B50B46009271
:101E700004460022802100F019F8002804D0606D8B
:101E800040F020006065032038BD000001B582B03D
:101E90004FF47A700090012301AA02A90248FFF7CB
:101EA0001FF89DF804000EBD1C0000202DE9F8432A
:101EB0001E46914688460446089DFEF765FC401B79
:101EC000351AFEF761FC074625480068C0F3CB30A1
:101ED000684338E0701C37D0FEF756FCC01BA842A0
:101EE00003D215B1009860B32CE02068416821F05E
:101EF000E00141606068B0F5827F0BD1A068B0F569
:101F0000004F02D0B0F5806F04D12068016821F045
:101F100040010160A06AB0F5005F09D12068016846
:101F200021F4005101602068016841F40051016012
:101F3000012084F85100002084F850000320BDE8FF
:101F4000F8830025401E00902068816838EA01006F
:101F500004D000214945BDD10020F0E70121F9E777
:101F6000140000207047FEF715BC30B58FB0282153
:101F70006846FEF7DEF814210AA8FEF7DAF8012118
:101F80000804CDE900100024029402250491CDE953
:101F900007504FF4E01009906846FEF77FFD0F20D0
:101FA000CDE90A056802CDE90C4002210AA80E9489
:101FB000FEF788FC0FB030BD0D48016841F001010B
:101FC000016041680B4A1140416001680A4A1140B2
:101FD0000160016821F480210160416821F4FE0163
:101FE00041604FF41F0181600449C00308607047DD
:101FF000001002400000FFF8FFFFF6FE08ED00E0D1
:102000000148FFF78FB9000074000020F0B50268A6
:10201000164B174C174D4FF08047984205D0B842E9
:1020200003D0A04201D0A84203D122F070064A6832
:102030003243984205D0B84203D0A04201D0A84212
:1020400003D122F44074CA6822434C6922F0800212
:10205000224302608A68C2620A688262984201D1A1
:102060000969016301214161F0BD0000002C0140BC
:10207000000400400008004010B5846842EA0322D2
:1020800024F47F440A432243826010BD826822F018
:1020900070020A4342F007018160704710B5036A7D
:1020A000046A24F001040462846924F0F00444EA20
:1020B000021423F00A020A438461026210BD10B5C3
:1020C000036A23F0100303628369046A23F47043F4
:1020D00043EA023224F0A00343EA01118261016263
:1020E00010BD10B5406A0021C185C184FFF709FA0F
:1020F00010BD70B5446A2068406994F83910C0F387
:10210000C0100025212904D118B1E584204600F033
:1021100062F82068406994F83A10C0F380102229D0
:1021200004D118B1E585204600F047F8E06B40F097
:102130001000E0632046FFF7E4F970BD10B50146DA
:10214000406A09680968890613D40021C1850168BD
:10215000CA6822F48072CA6001684A6922F00102EA
:102160004A6101684A6922F040024A61202180F8F0
:102170003A10FFF759FB10BD10B5406AFFF755FB49
:1021800010BD10B50146406A0968096889060CD47B
:102190000021C18401684A6922F080024A61006816
:1021A000C16841F04001C16010BDFFF7D9FB10BD0F
:1021B00010B5406AFFF7D5FB10BD0168CA6822F46C
:1021C0009072CA6001684A6922F001024A612021C6
:1021D00080F83A1070470168CA6822F0C002CA60ED
:1021E000202180F83910704710B590F83A10222954
:1021F00001D0022010BD82684FF480539A4201D171
:10220000016921B1816A9A421BD04AB10AE0026891
:10221000816A5268C2F308020A80816A891C08E058
:10222000026972B10268526802F07F020A70816A24
:10223000491C8162C18D491E0904090CC18503D066
:1022400016E002685268F1E70168CA6822F02002CD
:10225000CA600168CA6822F48072CA6001684A696B
:1022600022F001024A61202180F83A10FFF7DCFADF
:10227000002010BD70B5044600680169E26821F4D1
:102280004051114301612169A06808436169084315
:102290002168CA6841F20C639A430243CA6020680D
:1022A0004169A26921F44071114341611E492068CE
:1022B000884202D1FEF7ACFB01E0FEF799FB00EB90
:1022C000C00101EB0012606864218000B2FBF0F3F2
:1022D000B3FBF1F36FF018067343B2FBF0F5B2FBFA
:1022E000F0F605EB8305322303EB0515B5FBF1F59D
:1022F000B6FBF1F605F0F00505EB0615B2FBF0F6BE
:10230000B2FBF0F0B0FBF1F06FF01802504306EBB7
:10231000800003EB0010B0FBF1F0216800F00F002B
:102320002844886070BD0000003801402DE9F0416C
:10233000984617460E460446069D1DE0681C1BD0B5
:102340002DB1FEF721FAA0EB0800A84214D92068AD
:10235000C16821F4D071C1602068416921F0010198
:102360004161202084F8390084F83A00002084F884
:1023700038000320BDE8F0812068006836EA0000DC
:1023800004D00020B842D9D00020F3E70120F9E7BB
:1023900010B500F021F8BDE810400148FFF7B2B8D1
:1023A00020010020FEE7000010B50948FFF778FC87
:1023B000084C21780648FDF713FF0020207060705C
:1023C0000349BDE81040642201F16400FFF7E0B961
:1023D000BC000020060000200C4808B50068016819
:1023E000C1F3001100290FD0016840680090074830
:1023F000FFF75BF80548403000684068C0F16401B1
:10240000034801700121417008BD00002001002037
:10241000060000200FB4054B10B503A9044A02982A
:1024200000F03CF810BC5DF814FB000075260008B5
:10243000180000200FB4084B10B504A902AA039895
:1024400000F02CF8044602A9002000F003F9204611
:1024500010BC5DF814FB0000552600080907090EA2
:10246000002804DB00F1E02080F80014704700F041
:102470000F0000F1E02080F8141D704702E008C84A
:10248000121F08C1002AFAD170477047002001E0EE
:1024900001C1121F002AFBD1704700002DE9FF4F38
:1024A0008BB09A460F460546002606E025280BD03D
:1024B00052460D9990476D1C761C28780028F5D15E
:1024C0000FB03046BDE8F08F0024A04601226049DD
:1024D00000E0044315F8013F203B02FA03F00842F4
:1024E000F7D128782E2817D115F8010F44F00404ED
:1024F0002A280ED06FF02F022878A0F13001092988
:102500000AD808EB880102EB410100EB01086D1CC1
:10251000F2E757F8048B6D1C287869283ED006DC5A
:102520000028CDD063280BD0642804D136E073286E
:1025300010D075284BD052460D999047761C85E0F7
:1025400017F8040B8DF8000000208DF80100E94613
:10255000012003E057F8049B4FF0FF3061074FF074
:10256000000401D40AE0641C44450DDA8442FADB1D
:1025700019F804100029F6D106E0641C8442FCDB43
:1025800019F804100029F8D1264404E019F8010BC9
:1025900052460D999047641EF8D257E001CF4FF094
:1025A0000A0B002802DA40422D2102E0210504D561
:1025B0002B218DF82410012103E0E10705D0202113
:1025C000F7E70DF1200908910CE00021F9E701CFB0
:1025D0004FF00A0BF9E75946FDF7B6FD01F130025D
:1025E00009F8012D0028F6D1ADEB090000F1200B10
:1025F000600701D44FF00108D84502DDA8EB0B00BD
:1026000000E000208046002406E009A85246005D54
:102610000D999047641C761C08988442F5DB04E011
:10262000302052460D999047761CB8F10001A8F170
:102630000108F5DC05E019F8010B52460D999047A9
:10264000761CBBF10001ABF1010BF4DC6D1C34E72F
:10265000092801000A68531C0B60107070470000C5
:1026600010B504460420FEF72CFD0148046010BD9F
:102670000000002013B54FF6FF730122694602489F
:10268000FFF7D4F800981CBD200100208AB0002478
:10269000FEF788F8FFF769FCFFF774F9FFF764F9B4
:1026A000FFF726FAFFF7EEF9FFF7C8F90022114607
:1026B0000E20FEF7D5F80E20FEF7C4F800221146D2
:1026C0000F20FEF7CDF80F20FEF7BCF800221146D0
:1026D0001920FEF7C5F81920FEF7B4F800221146BC
:1026E0002520FEF7BDF82520FEF7ACF84820FFF7BF
:1026F000B7FF21480068C16841F01001C160642241
:102700001E491D48FFF744F81DA0FFF783FEFDF7A3
:1027100079FD24216846FDF70CFD1D48FEF76AFD92
:102720001C4DDFF874901D4F4FF4FA78002628886E
:10273000404511D302214846FEF719F82246641C91
:1027400017A16846FFF776FE6846FFF7A9FA24212D
:102750006846FDF7EEFC2E806846FFF787FA28B939
:102760008DF82060694611A0FFF754FE38780028E4
:10277000DDD0FFF719FEDAE720010020BC000020C1
:102780006E726632346C3031B2E2CAD40D0A000087
:102790007400002004000020000801400700002011
:1027A00020636F756E743A25640D0A0052583A25FD
:1027B000730D0A003443101001344310100100005F
:1027C00000000000000001020304060708090000E1
:1027D0000000010203040000F827000800000020A8
:1027E0001C0000007C240008142800081C000020A5
:1027F000CC0500008C240008000000000000000050
:102800000100000010000000000000000024F4009F
:0428100000000000C4
:04000005080000ED02
:00000001FF
