:020000040800F2
:100000008007002005010008C7180008F515000842
:10001000C518000871010008ED200008000000006C
:10002000000000000000000000000000371B000876
:10003000DD01000800000000351B0008D51B00088A
:100040001F0100081F0100081F0100081F01000810
:100050001F0100081F010008E10100081F0100083E
:100060001F0100081F0100081F0100081F010008F0
:100070001F0100081F010008750100088101000828
:100080001F0100081F0100081F0100081F010008D0
:100090001F0100081F0100081F0100081F010008C0
:1000A0001F010008391C00081F0100081F0100087B
:1000B0001F0100081F0100081F0100081F010008A0
:1000C0001F0100081F0100081F0100081F01000890
:1000D0001F010008D92000081F0100081F010008A7
:1000E0001F0100081F0100081F010008DFF810D0E1
:1000F00000F02CF80048004741220008AFF30080D0
:10010000800700200648804706480047FEE7FEE7D4
:10011000FEE7FEE7FEE7FEE7FEE7FEE7FEE7FEE7B7
:10012000371C0008ED000008D2B201E000F8012BF6
:10013000491EFBD270470022F6E710B513460A4667
:1001400004461946FFF7F0FF204610BD064C074D48
:1001500006E0E06840F0010394E807009847103497
:10016000AC42F6D3FFF7C6FFAC2B0008CC2B00083F
:10017000FEE70000014800F0B3B800003C03002097
:10018000014800F0ADB80000F802002030B590F84A
:1001900040500124AC40C56B6C60046863604368E8
:1001A000102B036803D099600068C26030BD9A606C
:1001B0000068C16030BD000010B500290AD00A46B1
:1001C0000146054801F0D8F9002803D0BDE81040E9
:1001D00000F014B810BD0000B0020020704700000D
:1001E00005480168C90705D0016841F001010160B7
:1001F00001F07EBF704700001404014072B6FEE7B4
:1002000010B590F821100022022905D00421816345
:1002100080F82020012010BD01680B6823F00E0338
:100220000B6001680B6823F001030B6090F840300D
:10023000C46B012101FA03F3636080F8211080F898
:100240002020104610BD000010B590F821100024A9
:10025000022903D00421816301243DE001680A687A
:1002600022F00E020A6001680A6822F001020A60A8
:100270001A4A0168914201D1012121E0174A143242
:10028000914201D110211BE0144A2832914201D140
:10029000891515E0114A3C32914201D189140FE0D1
:1002A0000E4A5032914202D14FF4803108E00B4A9D
:1002B0006432914202D14FF4801101E04FF080711D
:1002C000064A083A5160012180F82110002180F887
:1002D0002010416B01B18847204610BD0800024044
:1002E0002DE9F05FC16B0C6801680B68D0F840C065
:1002F000042202FA0CF2494DDFF824A1494E4A4F7C
:10030000DFF828B1DFF828E122422CD05A072AD59D
:100310000A68920603D40A6822F004020A6001689F
:10032000A94201D1042219E0514501D1402215E032
:10033000B14202D14FF4806210E0B94202D14FF4D1
:1003400080420BE0594502D14FF4802206E071450E
:1003500002D14FF4800201E04FF080622F4908394A
:100360004A60C16A3BE04FF0020808FA0CF818EA4C
:10037000040F4FF000094FF0010235D05FEA837897
:1003800032D50B689B0605D40B6823F00A030B607B
:1003900080F821200168A94201D1022219E05145CB
:1003A00001D1202215E0B14202D14FF4007210E0D9
:1003B000B94202D14FF400520BE0594502D14FF43B
:1003C000003206E0714502D14FF4001201E04FF017
:1003D0000072124908394A6080F82090816A002929
:1003E0001AD0BDE8F05F0847082505FA0CF525424C
:1003F00012D01B0710D50B6823F00E030B6090F88A
:100400004010C36B02FA01F15960826380F8212029
:1004100080F82090016BE2E7BDE8F09F0800024001
:100420001C000240300002404400024058000240DC
:100430006C00024030B528B308C81349142219448F
:10044000B1FBF2F18900C163104981630221417758
:100450001A6843F6F0718A43D0E900142143D0E9C9
:1004600002452C43214304692143446921438469A3
:100470002143114319600021416301224277017732
:10048000084630BD012030BDF8FFFDBF000002402E
:1004900070B5044690F82000002501280CD00120FA
:1004A00084F8200094F821600020012E06D084F802
:1004B00020000225284670BD022070BD022684F867
:1004C0002160A0632068066826F0010606602046C9
:1004D000FFF75CFEE06A00282068016802D041F066
:1004E0000E0106E021F0040101602068016841F07E
:1004F0000A0101602068016841F001010160D9E74B
:100500002DE9F84FDFF8B8910024A9F1040B234638
:100510000F2709F1040AABF1040EC9E00125A5403B
:100520002A40AA427DD1674ED1F804C0ACEB060840
:10053000B44532D014DCBCF1030F3AD009DCBCF175
:10054000000F2AD0BCF1010F1CD0BCF1020F31D139
:100550001DE0BCF1110F17D0BCF1120F2AD119E028
:10056000B8F5881F19D006DCB8F5803F15D0B8F56E
:10057000801F1FD111E0B8F5001F0ED0B8F5041F81
:1005800018D10AE0CB6815E0CB681B1D12E0CB68E0
:1005900008330FE0CB680C330CE08B682BB1012BD8
:1005A0004FF0080303D0456104E0042302E0056135
:1005B00000E00023FF2A01D8064601E000F104060E
:1005C0004FEA840501D9A5F12005D6F8008007FA85
:1005D00005FC28EA0C0803FA05F548EA0508C6F800
:1005E00000804D68ED0062D5374DAE6946F00106DA
:1005F000AE61AD6924F0030605F001050095334DA9
:1006000006EB050CDCF80850A607360F07FA06F8CB
:1006100025EA0805DFF8B880404503D14FF000080F
:1006200017E044E0DFF8AC80404502D14FF001080C
:100630000FE0DFF8A480404502D14FF0020808E047
:10064000DFF89880404502D14FF0030801E04FF0F9
:10065000040808FA06F848EA0508CCF808804D684E
:10066000D9F80060ED024D4601D5164300E09643EF
:100670002E604D68DAF80060AD02554601D516438C
:1006800000E096432E604D68DBF80060AD035D46E8
:1006900001D5164300E096432E604D68DEF80060F9
:1006A000ED03754601D5164300E096432E60641CA9
:1006B0000D682A46E5407FF431AFBDE8F88F0000B1
:1006C0000804014000001110001002400000014029
:1006D00000080140000C01400010014000140140DE
:1006E0008068084000D001207047C26821EA0203F8
:1006F0000A4043EA0241016170470AB10161704753
:100700000904FBE7014880687047000014000020DE
:10071000024881680278114481607047140000200B
:10072000074810B5016841F010010160032000F096
:1007300075F8002000F006F800F024F8002010BD45
:100740000020024070B50D4D04464FF47A712878B0
:10075000B1FBF0F00A490968B1FBF0F000F0EEFAE5
:1007600048B9102C07D200222146501E00F036F85E
:1007700000206C6070BD012070BD000014000020DE
:10078000200000200C4808B5816941F00101816119
:10079000816901F001010091C16941F08051C1619D
:1007A000C06900F0805000900448416821F0E06189
:1007B00041F00071416008BD00100240000001409E
:1007C000002809DB00F01F02012191404009800050
:1007D00000F1E020C0F8001170470000F0B40E4BAB
:1007E0001B680C46C3F30223C3F10705042D00D98F
:1007F0000425191D072901D2002300E0DB1E012674
:1008000006FA05F1491E214099409E40761E164089
:100810003143F0BC01F0AEBC0CED00E0064900F045
:10082000070208684FF6FF03184040EA0220034A17
:1008300010430860704700000CED00E00000FA056E
:100840002DE9F0470F46050061D0434E306800F0B7
:100850000700B84209D2306820F007003843306002
:10086000306800F00700B84251D128683B4C81073E
:1008700012D5400703D5606840F4E06060602878D6
:10088000000703D5606840F4605060606068A96844
:1008900020F0F000084360602878C00728D068681E
:1008A000012810D02168022810D0890700292EDAEB
:1008B000616821F0030101436160FFF723FF804677
:1008C00041F288390DE021688903EFE78901EDE7FE
:1008D000FFF718FFA0EB0801494502D90320BDE846
:1008E000F0876068696800F00C00B0EB810FEFD111
:1008F000306800F00700B8420BD9306820F00700DC
:1009000038433060306800F00700B84201D0012061
:10091000E5E72878400705D56068E96820F4E060DD
:10092000084360602878000706D56068296920F4CC
:10093000605040EAC100606000F03EF86168084A1B
:10094000C1F30311515CC8400649086006480068BD
:10095000FFF7F8FE0020C2E700200240001002402E
:100960007A230008200000201800002001480068B9
:1009700070470000200000200448054900684968CD
:10098000044AC1F30221515CC84070472000002096
:10099000001002408A23000804480549006849689D
:1009A000044AC1F3C221515CC840704720000020B6
:1009B000001002408A2300080E4A51680E4801F0D8
:1009C0000C03042B11D0082B0FD10C48C1F3834327
:1009D000C903C05C0AD55168084AC1F34041921E60
:1009E000515C054A5043B0FBF1F07047044948435D
:1009F000704700000010024000127A006A230008CD
:100A000000093D002DE9F84F040070D02078C04D5A
:100A1000C00749D06868C0F38100012807D0686822
:100A2000C0F38100022809D16868C00306D5286890
:100A3000800339D560680028E7D035E06068B0F5FC
:100A4000803F0BD010B1B0F5A02F11D0286820F452
:100A500080302860286820F4802002E0286840F474
:100A600080302860606890B1FFF74CFE06460AE0CF
:100A7000286840F480202860F0E700BFFFF742FEBE
:100A8000801B642873D828688003F7D50CE0FFF733
:100A900039FE064605E000BFFFF734FE801B6428E0
:100AA000F0D828688003F7D420789A4E80074FF05A
:100AB00001094FF0000839D5686810F00C0F07D015
:100AC0006868C0F38100022809D16868C00306D4B1
:100AD0002868800714D52069012808D110E0206912
:100AE000B0B1C6F80090FFF70DFE074605E00AE139
:100AF000FFF708FEC01B0228C4D828688007F7D576
:100B00002868616920F0F80040EAC10028600DE023
:100B1000C6F80080FFF7F6FD074604E0FFF7F2FD98
:100B2000C01B022823D828688007F7D42078000744
:100B30002CD57948A169D9B1C0F80090FFF7E2FD42
:100B4000074604E0FFF7DEFDC01B02280FD8686AE5
:100B50008007F7D571484FF4FA510068B0FBF1F007
:100B6000009000BF0098411E0091FAD20EE080E094
:100B7000C0F80080FFF7C6FD074604E0FFF7C2FD9E
:100B8000C01B022875D8686A8007F7D42078400710
:100B900060D5E8690027C00008D4E86940F08050BB
:100BA000E861E869012700F0805000905C48016826
:100BB000C90513D40168834641F480710160FFF7D1
:100BC000A1FD824606E000BFFFF79CFDA0EB0A00F6
:100BD00064284ED8DBF80000C005F5D5E068012890
:100BE0000AD008B1052813D0286A20F00100286235
:100BF000286A20F0040002E0286A40F00100286220
:100C0000E06841F2883B98B1FFF77CFD82460BE03B
:100C1000286A40F004002862EEE700BFFFF772FD8B
:100C2000A0EB0A0159455AD8286A8007F6D50CE08E
:100C3000FFF768FD824605E0FFF764FDA0EB0A01BF
:100C400059454CD8286A8007F6D41FB1E86920F0CE
:100C50008050E861E06988B36968C1F381010229C5
:100C600044D00228C6F8608004D0FFF74BFD04464C
:100C700038E034E0FFF746FD074604E0FFF742FDA9
:100C8000C01B02282BD828688001F7D4206AB0F551
:100C9000803F05D16868A16820F40030084368608F
:100CA000D4E908010843696821F4741108436860B5
:100CB000C6F86090FFF726FD044606E025E000BF79
:100CC000FFF720FD001B022809D828688001F7D50E
:100CD0001BE000BFFFF716FD001B022802D903200E
:100CE000BDE8F88F28688001F4D40EE00128F7D021
:100CF0006868226A00F48031914204D1616A00F48C
:100D00007010884201D00120EAE70020E8E70000E7
:100D100000100240000042428004424220000020B5
:100D2000007000404FF0E0210428086903D020F053
:100D300004000861704740F00400FAE710B5401E57
:100D4000B0F1807F01D3012010BD4FF0E02460613D
:100D50000F21601701F00EFA0020A061072020612A
:100D6000002010BD7047704770B590F83C20012AF4
:100D700026D0012480F83C40022280F83D20036800
:100D80005A689D6822F070060A6832435A600D4B1B
:100D900002689A4208D0B2F1804F05D00A4B9A42BD
:100DA00002D00A4B9A4204D1496825F080031943C6
:100DB000916080F83D40002180F83C10084670BDED
:100DC000022070BD002C01400004004000080040DB
:100DD00010B5040003D094F83D0010B107E00120E5
:100DE00010BD002084F83C00204600F01FF80220CF
:100DF00084F83D00211D206800F024FF012084F8C4
:100E0000460084F83E0084F83F0084F8400084F8EF
:100E1000410084F8420084F8430084F8440084F8D8
:100E2000450084F83D00002010BD000008B5114ABF
:100E300001681148914211D1816941F400618161D9
:100E40008069002200F40060009011461920FFF72D
:100E5000C5FCBDE808401920FFF7B2BCB1F1804FD6
:100E600007D1C16941F00101C161C06900F0010011
:100E7000009008BD002C01400010024090F83D1089
:100E8000012901D001207047022180F83D1001683E
:100E9000CA6842F00102CA6000680B49884208D063
:100EA000B0F1804F05D00949884202D008498842F4
:100EB00004D1816801F00701062903D0016841F0DF
:100EC0000101016000207047002C01400004004037
:100ED0000008004070B5044690F83C000025012849
:100EE00017D0012684F83C60022084F83D00206879
:100EF000826822F0770222F47F42826008685028DC
:100F000038D00DDC20284FD005DC90B3102811D14B
:100F10004AE0022070BD302846D040280AD13BE08C
:100F200060282FD070280DD0B0F5805F03D0B0F5C9
:100F3000005F12D0012584F83D60002084F83C0059
:100F4000284670BDCB68D1E90121206800F0B0FED1
:100F50002068816841F0770109E0CB68D1E901217F
:100F6000206800F0A5FE2068816841F4804181601E
:100F7000E1E719E0CA684968206800F0ABFE50213B
:100F8000206806E0CA684968206800F0B4FE602165
:100F9000206800F097FECEE7CA684968206800F034
:100FA00099FE40212068F4E7226801461046F0E7E8
:100FB000704770B50446006801694FF00005C943E9
:100FC000890715D4C168C943890711D4E91E016195
:100FD00001202077206880698007204602D0FFF733
:100FE000E7FF04E000F098F8204600F096F8257737
:100FF00020680169C943490717D4C168C943490733
:1010000013D46FF004010161022020772068806909
:1010100010F4407F204602D0FFF7CAFF04E000F042
:101020007BF8204600F079F8257720680169C943EC
:10103000090716D4C168C943090712D46FF0080123
:101040000161042020772068C0698007204602D013
:10105000FFF7AEFF04E000F05FF8204600F05DF817
:10106000257720680169C943C90617D4C168C943F7
:10107000C90613D46FF010010161082020772068A1
:10108000C06910F4407F204602D0FFF791FF04E0D2
:1010900000F042F8204600F040F82577206801690A
:1010A000C943C90708D1C168C943C90704D1891E0A
:1010B0000161204600F032F820680169C943090641
:1010C00009D4C168C943090605D46FF080010161E4
:1010D0002046FFF747FE20680169C943490609D445
:1010E000C168C943490605D46FF04001016120463B
:1010F00000F020F820680169C94389060BD4C16853
:10110000C943890607D46FF0200101612046BDE87C
:101110007040FFF728BE70BD704770470349884292
:1011200003D103480168491C016070472C0000206E
:10113000040000207047704710B5044600684069FD
:1011400094F84110C0F3C010212911D180B120685A
:10115000143050E8001F21F0800140E80012002AFE
:10116000F5D1A06B08B1FFF74BF8204600F0A1FEC7
:101170002068406994F84210C0F38010222911D1F0
:1011800080B12068143050E8001F21F0400140E891
:101190000012002AF5D1E06B08B1FFF731F82046C4
:1011A00000F060FE002010BD70470000F8B5016837
:1011B00004460868CA684B6910F00F0F4FF000052D
:1011C00059D003F0010602F49077374365D0C10788
:1011D00005D0D10503D5616C41F00101616441077F
:1011E00005D5D90703D0616C41F002016164810724
:1011F00005D5D90703D0616C41F004016164010792
:1012000007D502F02001314303D0616C41F00801A1
:101210006164616C00293AD0800604D5900602D53D
:10122000204600F054FE20684069616CC0F38010D5
:10123000090700D460B3204600F014FE206840691E
:10124000400621D52068143050E8001F21F04001ED
:1012500040E80012002AF5D1E06BA8B16D49416366
:10126000E06BFEF7F1FF002811D0E06B416B01B09D
:10127000BDE8F040084783060FD593060DD52046FC
:10128000BDE8F84000F023BE2046FFF78DFFF8BD13
:101290002046FFF789FF6564F8BD266B2023012EE9
:1012A0007CD1C6067AD5D60678D5086848680090FD
:1012B00048694FF00206400640D5E16B0868406877
:1012C0000004000CE8D0A28D8242E5D9E08588694F
:1012D00020282DD020680C3050E8001F21F48071A8
:1012E00040E80012002AF5D12068143050E8001FB1
:1012F00021F0010140E80012002AF5D120681430E5
:1013000050E8001F21F0400140E80012002AF5D10A
:1013100084F84230256320680C3050E8001F21F02B
:10132000100140E80012002AF5D1E06BFEF768FFDB
:101330006663A08DE18D401A81B22AE0A08DE18D17
:10134000401A81B2E08D0028A6D00029A4D02268DE
:101350000C3252E8000F20F4907042E80007002F92
:10136000F5D12068143050E8002F22F0010240E847
:101370000027002FF5D184F84230256320680C3017
:1013800050E8002F22F0100240E80023002BF5D196
:1013900066632046FFF7CFFEF8BDFFE705062BD5B5
:1013A000150629D594F841002128F5D1A068B0F59B
:1013B000805F01D12069B0B1206A411C216221689F
:1013C00000784860E08C401E0004000CE084E3D10B
:1013D0002068C16821F08001C1602068C16841F0C7
:1013E0004001C160D8E7206A0088C0F30800486067
:1013F000206A801C2062E5E74006CDD55006CBD59B
:10140000CA68204622F04002CA6084F8413000F0E9
:10141000EFF8C1E71B1D000870B5040004D094F874
:101420004100002510B106E0012070BD84F8405055
:10143000204600F023F8242084F841002068C16889
:1014400021F40051C160204600F0A2FD206801692E
:1014500021F4904101612068416921F02A01416134
:101460002068C16841F40051C1606564202084F89F
:10147000410084F842006563002070BDF0B585B07E
:1014800000240646009401940294039400682D49B8
:10149000884254D12C48816941F48041816181693D
:1014A00001F480410491816941F004018161806906
:1014B000264D00F0040004904FF4007000900220CC
:1014C00001900320039069462846FFF719F8281574
:1014D000CDE90004694628460294FFF711F81D4D36
:1014E0001B488027C5E90004C5E902472C616C61EF
:1014F000AC612846EC61FEF79DFF08B1FEF77EFE69
:10150000F5636E62134D12484435143801C510203E
:1015100091C5104845F8104944306C61AC61EC61EC
:10152000FEF788FF08B1FEF769FEB5630022114699
:1015300025206E62FFF752F92520FFF741F905B02B
:10154000F0BD0000003801400010024000080140DA
:1015500058000240F802002090F84230202B01D0C1
:101560000220704721B11AB10023036300F06CBD63
:10157000012070477047704770B5044690F84100ED
:10158000202801D0022070BD49B342B32162A28459
:10159000E28400206064212384F84130A56B114B64
:1015A000AB62A56B104BEB62A56B104B2B63A36B6F
:1015B0005863256813462A1DA06BFEF769FF216852
:1015C0006FF0400008602068143050E8001F41F0C0
:1015D000800140E80012002AF5D1002070BD0120F2
:1015E00070BD0000191E00085B1E00082B1D0008BE
:1015F00070477047FEE72DE9F0411D0016460C4686
:10160000074609D000F04AF87806000E00F01CF8F2
:101610004FF0FF3768B902E00020BDE8F0812046B6
:1016200000F012F828B9002409E0305D00F00CF851
:1016300018B100F046F83846EFE7641CE4B2AC425B
:10164000F3D300F03EF8E7E770B50546082400F054
:1016500095FA12E0280602D500F0ACFA01E000F09D
:10166000B1FA6806050E00F067FA022000F0C2FD2C
:1016700000F06AFA022000F0BDFD641EE4B2E9D277
:1016800000F06AFA00F058FA022000F0B3FD00F012
:1016900087FA044600F058FA204670BD10B500F0F5
:1016A0006DFA00F087FA00F047FA022000F0A2FD80
:1016B00000F088FA022000F09DFDBDE8104000F027
:1016C00043BA10B500F05AFA00F07CFA00F03CFA88
:1016D000022000F08FFD00F02FFA022000F08AFDBA
:1016E000BDE8104000F066BA0D4808B5416941F008
:1016F000010141614069002200F0010000901146A3
:101700000E20FFF76BF80E20FFF75AF80022114663
:101710000F20FFF763F8BDE808400F20FFF750B82F
:10172000001002402DE9F04385B0002420480094C9
:10173000019402940394816941F0200181618169DF
:1017400001F020010491816941F008018161816902
:1017500001F008010491816941F00401816180690F
:10176000DFF8508000F00400049000220121404680
:10177000FEF7C3FFDFF840904FF4C0570022394610
:101780004846FEF7BAFF0125022603960095CDE9EB
:10179000015469464046FEF7B3FE00970396CDE933
:1017A000015469464846FEF7ABFE05B0BDE8F0833C
:1017B00000100240000C01400008014010B586B046
:1017C000002418480094019402940394049414494A
:1017D000059401604721C0E9011440F2E731C0E9F6
:1017E00003148021C0E90541FFF7F2FA08B1FEF7C2
:1017F00005FD4FF48050009069460A48FFF76AFBE8
:1018000008B1FEF7FBFC049404A906480594FFF711
:10181000ABFA002801D0FEF7F1FC06B010BD0000C5
:10182000002C01402C00002010B586B00024164882
:10183000009401940294039404944FF08041059421
:10184000C0E900144FF6FF71C0E9024104618461F0
:10185000FFF7BEFA08B1FEF7D1FC4FF480500090BC
:1018600069460948FFF736FB08B1FEF7C7FC049448
:1018700004A905480594FFF777FA002801D0FEF780
:10188000BDFC06B010BD0000740000200C4810B56F
:101890000A4901604FF4E1314160002181600C226E
:1018A000C160C0E904128161C161FFF7B5FD002884
:1018B00003D0BDE81040FEF7A1BC10BD00380140C8
:1018C000B0020020FEE7FEE770B5A0B0024680211E
:1018D0006846FEF729FC0E4D002400BF04F1B0005D
:1018E000C0B2002100F076F80021084600F072F83E
:1018F0000021102000F06EF880236E686A464021B7
:101900002878B047641CE4B2082CE7D320B070BD3F
:101910002400002010B50446B031C8B2002100F008
:1019200059F8102040EA1410002100F053F804F098
:101930000F00BDE81040002100F04CB870B5203A0F
:101940000C460546D6B27F2802D900258C1CE4B28D
:10195000102B214628460BD0FFF7DCFF0D4906EB84
:10196000460001EB40000621BDE8704000F044B89D
:10197000FFF7D0FF0848082100EB0610064600F0EC
:101980003BF8641CE1B22846FFF7C4FF06F10800EB
:101990000821E9E792230008BA2500082DE9F04163
:1019A000984617460E46044600250DE0434631464C
:1019B0002046FFF7C3FF0834E4B2782C02D9002494
:1019C000B61CF6B26D1CEDB27A5D002AEED1BDE810
:1019D000F081000038B5074A8DF800004FF0010390
:1019E000107854686A4609B1402100E00021A04700
:1019F00038BD00002400002030B4044C02460B46E1
:101A0000207864684021A44630BC60472400002050
:101A100010B5DBB2FFF7EFFD002804D0BDE81040A1
:101A200001A000F09FBB10BD4932435F31306269B5
:101A3000745F4D756C745F5772697465207265745C
:101A400075726E206661696C0A000000384A10B534
:101A5000107051600021AE20FFF7BCFF0021402034
:101A6000FFF7B8FF00218120FFF7B4FF0021FF201E
:101A7000FFF7B0FF0021A120FFF7ACFF0021C82035
:101A8000FFF7A8FF0021A820FFF7A4FF00213F20B7
:101A9000FFF7A0FF0021D320FFF79CFF002108469D
:101AA000FFF798FF0021D520FFF794FF0021802049
:101AB000FFF790FF0021D920FFF78CFF0021F120D4
:101AC000FFF788FF0021DA20FFF784FF00211220B2
:101AD000FFF780FF0021DB20FFF77CFF0021402083
:101AE000FFF778FF00212020FFF774FF002102207C
:101AF000FFF770FF00218D20FFF76CFF00211420FD
:101B0000FFF768FF0021A420FFF764FF0021A62053
:101B1000FFF760FF0021AF20FFF75CFF0020FFF719
:101B2000D3FE0021BDE810400846FFF7F3BE0000D9
:101B30002400002070477047012211030148FEF77E
:101B4000DCBD00000008014000224FF48051014834
:101B5000FEF7D3BD000801401FB5002001904FF4EF
:101B60000060009001200290022003906946024824
:101B7000FEF7C6FC1FBD0000000801401FB5002095
:101B800002904FF400600090012001900220039029
:101B900069460248FEF7B4FC1FBD00000008014082
:101BA00010B54FF400610248FEF79AFD40B210BD37
:101BB000000801400122D1020148FEF79EBD00004D
:101BC0000008014000224FF400610148FEF795BD76
:101BD00000080140FEF79CBD30B58FB02821684653
:101BE000FEF7A9FA14210AA8FEF7A5FA01210804B4
:101BF000CDE900100024029402250491CDE907509C
:101C00004FF4E01009906846FEF7FCFE08B172B68A
:101C1000FEE70F20CDE90A054FF48060CDE90C40C6
:101C200002210AA80E94FEF70BFE002801D072B61E
:101C3000FEE70FB030BD70470148FFF7BAB90000AA
:101C40002C000020F0B50268164B174C174D4FF0D2
:101C50008047984205D0B84203D0A04201D0A842A4
:101C600003D122F070064A683243984205D0B84248
:101C700003D0A04201D0A84203D122F44074CA6824
:101C800022434C6922F08002224302608A68C262C9
:101C90000A688262984201D10969016301214161A8
:101CA000F0BD0000002C014000040040000800408E
:101CB00010B5846842EA032224F47F440A43224395
:101CC000826010BD826822F070020A4342F0070170
:101CD0008160704710B5036A046A24F0010404624D
:101CE000846924F0F00444EA021423F00A020A434F
:101CF0008461026210BD10B5036A046A24F0100406
:101D00000462846923F0A00324F4704444EA02329C
:101D100043EA01118261016210BD10B5406A0021E1
:101D2000C185C184FFF740FA10BD70B5446A2068D0
:101D3000406994F84110C0F3C0100025212904D156
:101D400018B1E584204600F0B4F82068406994F8A2
:101D50004210C0F38010222904D118B1E585204635
:101D600000F080F8606C40F0100060642046FFF7DF
:101D70001BFA70BD10B50146406A096809684FF04A
:101D8000000289062ED4C28501680C3151E8003F5B
:101D900023F4807341E80034002CF5D1016814313C
:101DA00051E8003F23F0010341E80034002CF5D155
:101DB0000168143151E8003F23F0400341E800344A
:101DC000002CF5D1202180F84210016B012909D1A6
:101DD00001680C3151E8003F23F0100341E8003462
:101DE000002CF5D14263016B012902D0FFF7C2FB41
:101DF00010BD818DFFF79FF910BD10B5406A01211C
:101E00004163016B012902D0FFF7B5FB10BD818D45
:101E10004908FFF790F910BD10B50146406A0968FE
:101E20000968890616D40021C1840168143151E87B
:101E3000002F22F0800241E80023002BF5D1016839
:101E40000C3151E8002F42F0400241E80023002B02
:101E5000F5D110BDFFF7CCFB10BD10B5406AFFF700
:101E6000C8FB10BD01680C3151E8002F22F49072BC
:101E700041E80023002BF5D10168143151E8002F0F
:101E800022F0010241E80023002BF5D1016B01296A
:101E900009D101680C3151E8002F22F0100241E80D
:101EA0000023002BF5D1202180F84210002101638E
:101EB000704701680C3151E8002F22F0C00241E860
:101EC0000023002BF5D1202180F84110704708B580
:101ED00090F84210222901D0022008BD82684FF4F8
:101EE00080539A4201D1016921B1816A9A421BD083
:101EF0004AB10AE00268816A5268C2F308020A80A5
:101F0000816A891C08E0026972B10268526802F0B5
:101F10007F020A70816A491C8162C18D491E0904D1
:101F2000090CC18503D01BE002685268F1E7016823
:101F3000CA6822F02002CA600168CA6822F480726E
:101F4000CA6001684A6922F001024A61202180F8D2
:101F5000421000214163026B012A03D0FFF70AFB04
:101F6000002008BD016301680C3151E8002F22F008
:101F7000100241E80023002BF5D101680A68D2065F
:101F800002D50A6849680091818DFFF7D4F8E7E728
:101F900070B5044600680169E26821F440511143BC
:101FA00001612169A0680843616908432168CA6822
:101FB00041F20C639A430243CA6020684169A269F6
:101FC00021F44071114341611E492068884202D1C9
:101FD000FEF7E2FC01E0FEF7CFFC00EBC00101EBF5
:101FE0000012606864218000B2FBF0F3B3FBF1F3F0
:101FF0006FF018067343B2FBF0F5B2FBF0F605EB99
:102000008305322303EB0515B5FBF1F5B6FBF1F6BD
:1020100005F0F00505EB0615B2FBF0F6B2FBF0F0AB
:10202000B0FBF1F06FF01802504306EB800003EBB9
:102030000010B0FBF1F0216800F00F002844886028
:1020400070BD00000038014038B5816204468285C9
:10205000002013466064222284F84220E56B1B4A6C
:10206000AA62E56B1A4AEA62E56B1A4A2A63E26BD6
:1020700050630A462168E06B091DFEF709FA2068E3
:10208000016840680090206948B120680C3050E831
:10209000001F41F4807140E80012002AF5D1206849
:1020A000143050E8001F41F0010140E80012002AFE
:1020B000F5D12068143050E8001F41F0400140E89D
:1020C0000012002AF5D1002038BD0000751D00085F
:1020D000FB1D00082B1D000810B500F01FF8BDE81F
:1020E00010400148FFF762B8B0020020FEE7000090
:1020F00010B5084C21780848FEF75EF800202070E3
:1021000060700549BDE810404FF4FA7201F5FA70AD
:10211000FFF722BA0C000020BC0000200E4808B5D2
:1021200000680168C1F30011002914D001684068FB
:1021300000900948FFF700F80748483000684068F9
:10214000C0F5FA7105480170012141700448016829
:1021500041F00101016008BDB00200200C00002028
:1021600010040140014A024900F023B82922000866
:10217000100000200907090E002804DB00F1E02010
:1021800080F80014704700F00F0000F1E02080F8A4
:10219000141D704702E008C8121F08C1002AFAD1B6
:1021A00070477047002001E001C1121F002AFBD1D7
:1021B00070472DE9F04116460F460446002503E01E
:1021C0003946B047641C6D1C20780028F8D1284699
:1021D000BDE8F08110B50420FEF7A4FDFEF7C6FBB4
:1021E0000249B0FBF1F00249086010BD40420F0007
:1021F0000000002070B54FF0E02400226569094915
:10220000A36909684843A1699942FCD002D2A3EBB3
:10221000010302E0A5EB010633441A440B46824257
:10222000F1D370BD0000002004490A685206FCD5B5
:10223000024AC1B2121D116070470000003801400F
:10224000FEF76EFAFFF7C8FCFFF76CFAFFF74CFADF
:10225000FFF71CFBFFF7B2FAFFF7E6FAFFF7BAFF4A
:102260001B48016841F00101016000220F21062096
:10227000FEF7B4FA0620FEF7A3FA16480068C16814
:1022800041F01001C1604FF4FA742246124911481E
:10229000FFF762F91148FEF7F1FD00F033F810493D
:1022A0003C20FFF7D3FB002110230EA20846FFF7C6
:1022B00075FB0E4D21460E4800F03CF80028F9D081
:1022C0000CA0FFF74FFF01212846FEF70EFAF1E7B9
:1022D00000040140B0020020BC0000202C000020BF
:1022E000111A00083132336162630000000C0140B2
:1022F0000800002068656C6C6F20776F726C640D4D
:102300000A0000001FB5002002904FF4805000909A
:10231000012001900220039069460548FEF7F0F87D
:10232000FFF72CFCFFF708FCBDE81F40FFF742BC9D
:102330000008014010B50B4A03681468A34203D299
:102340001468E41A8C4207D81468A34208D91468A8
:10235000DB4323448B4203D911680160012010BD87
:10236000002010BD0400002001020203040506073E
:1023700008090A0B0C0D0E0F1010000000000000E1
:102380000000010203040607080900000000010222
:1023900003040000000000000000002F0000000007
:1023A0000700070000147F147F1400242A7F2A12DC
:1023B00000626408132300364955225000000503CB
:1023C000000000001C224100000041221C000014FB
:1023D000083E08140008083E0808000000A060003D
:1023E00000080808080800006060000000201008CD
:1023F0000402003E5149453E0000427F4000004239
:1024000061514946002141454B31001814127F109B
:10241000002745454539003C4A49493000017109CA
:10242000050300364949493600064949291E00007E
:102430003636000000005636000000081422410025
:102440000014141414140000412214080002015155
:10245000090600324959513E007C1211127C007F5E
:1024600049494936003E41414122007F4141221CF9
:10247000007F49494941007F09090901003E41495E
:10248000497A007F0808087F0000417F4100002052
:1024900040413F01007F08142241007F40404040FE
:1024A000007F020C027F007F0408107F003E414144
:1024B000413E007F09090906003E4151215E007F2F
:1024C000091929460046494949310001017F0101A6
:1024D000003F4040403F001F2040201F003F403849
:1024E000403F006314081463000708700807006188
:1024F0005149454300007F41410000552A552A5566
:10250000000041417F0000040201020400404040FD
:102510004040000001020400002054545478007F21
:102520004844443800384444442000384444487FF8
:1025300000385454541800087E0901020018A4A45D
:10254000A47C007F080404780000447D4000004023
:1025500080847D00007F102844000000417F4000FF
:10256000007C04180478007C080404780038444493
:10257000443800FC242424180018242418FC007C6F
:102580000804040800485454542000043F444020E8
:10259000003C4040207C001C2040201C003C40307F
:1025A000403C004428102844001CA0A0A07C00440B
:1025B00064544C441414141414140000000000005B
:1025C00000000000000000000000000000F8000013
:1025D0000000000000333000000000100C06100C5A
:1025E0000600000000000000000040C07840C078F5
:1025F0004000043F04043F040400007088FC0830DD
:102600000000001820FF211E0000F008F000E01874
:10261000000000211C031E211E0000F0088870002D
:1026200000001E2123241927211010160E0000007F
:1026300000000000000000000000000000E018049E
:102640000200000000071820400000020418E0000B
:1026500000000040201807000000404080F080404B
:1026600040000202010F01020200000000F0000021
:1026700000000101011F0101010000000000000035
:10268000000080B0700000000000000000000000AA
:102690000000000101010101010100000000000033
:1026A00000000030300000000000000000008060EA
:1026B0001804006018060100000000E0100808106F
:1026C000E000000F102020100F00001010F8000094
:1026D00000000020203F202000000070080808882B
:1026E00070000030282422213000003008888848FB
:1026F00030000018202020110E000000C02010F82B
:10270000000000070424243F240000F808888808FB
:1027100008000019212020110E0000E01088881800
:102720000000000F112020110E0000380808C838E2
:1027300008000000003F00000000007088080888C2
:102740007000001C222121221C0000E0100808104B
:10275000E0000000312222110F00000000C0C00084
:102760000000000000303000000000000080000089
:102770000000000080600000000000008040201089
:102780000800000102040810200040404040404082
:1027900040000404040404040400000810204080E5
:1027A000000000201008040201000070480808081A
:1027B000F0000000003036010000C030C828E810EA
:1027C000E0000718272423140B000000C038E000A5
:1027D0000000203C23020227382008F888888870EF
:1027E0000000203F202020110E00C03008080808FB
:1027F0003800071820202010080008F808080810E2
:10280000E000203F202020100F0008F88888E8080A
:102810001000203F20202320180008F88888E808AE
:102820001000203F200003000000C03008080838D6
:10283000000007182020221E020008F808000008E7
:10284000F808203F210101213F20000808F808086E
:1028500000000020203F2020000000000808F808A9
:102860000800C08080807F00000008F888C0281819
:102870000800203F20012638200008F8080000004A
:102880000000203F20202020300008F8F800F8F851
:102890000800203F003F003F200008F830C000083B
:1028A000F808203F200007183F00E0100808081033
:1028B000E0000F10202020100F0008F8080808087A
:1028C000F000203F210101010000E010080808107D
:1028D000E0000F18242438504F0008F888888888B2
:1028E0007000203F2000030C30200070880808088A
:1028F00038000038202121221C00180808F8080898
:1029000018000000203F2000000008F80800000820
:10291000F808001F202020201F000878880000C829
:102920003808000007380E010000F80800F8000819
:10293000F800033C0700073C030008186880806823
:10294000180820302C03032C30200838C800C83861
:1029500008000000203F2000000010080808C838C8
:1029600008002038262120201800000000FE020266
:1029700002000000007F40404000000C30C000001A
:102980000000000000010638C00000020202FE0044
:102990000000004040407F000000000004020202EE
:1029A0000400000000000000000000000000000023
:1029B000000080808080808080800002020400000F
:1029C0000000000000000000000000008080808007
:1029D00000000019242222223F2008F800808000F5
:1029E0000000003F112020110E00000000808080B8
:1029F0000000000E112020201100000000808088BF
:102A0000F800000E112020103F2000008080808000
:102A10000000001F222222221300008080F08888FC
:102A200088180020203F2020000000008080808047
:102A30008000006B94949493600008F8008080807C
:102A40000000203F210000203F20008098980000D7
:102A500000000020203F2020000000000080989807
:102A6000000000C08080807F000008F800008080A7
:102A70008000203F24022D302000000808F80000CC
:102A800000000020203F2020000080808080808087
:102A90008000203F20003F20003F80800080808019
:102AA0000000203F210000203F2000008080808027
:102AB0000000001F202020201F0080800080800058
:102AC000000080FFA12020110E0000000080808007
:102AD0008000000E112020A0FF8080808000808078
:102AE000800020203F2120000100000080808080A5
:102AF00080000033242424241900008080E080809A
:102B000000000000001F20200000808000000080E6
:102B10008000001F202020103F2080808000008047
:102B2000808000010E300806010080800080008057
:102B300080800F300C030C300F00008080008080FC
:102B400080000020312E0E31200080808000008027
:102B5000808080818E7018060100008080808080D7
:102B600080000021302C2221300000000000807CF9
:102B7000020200000000003F404000000000FF0093
:102B8000000000000000FF0000000002027C800046
:102B900000000040403F000000000006010102026A
:102BA000040400000000000000000000CC2B00081E
:102BB000000000202C00000094210008F82B0008E1
:102BC0002C00002054070000A42100080000000091
:102BD00000000000000000000000000000000000F5
:102BE0000100000010000000000000000024F400BC
:082BF0000000000000000000DD
:04000005080000ED02
:00000001FF
