:020000040800F2
:10000000781A0020D5000008A51E0008ED1C000885
:1000100000000000000000000000000000000000E0
:100020000000000000000000000000008D2A000811
:100030000000000000000000BD2900088F2A000811
:10004000E7000008E7000008E7000008E7000008F4
:10005000E7000008E7000008E7000008E7000008E4
:10006000E7000008E700000875020008E700000844
:10007000E7000008E700000800000000E7000008B3
:1000800000000000E7000008000000000000000081
:10009000E700000800000000E7000008E700000893
:1000A000E7000008E7000008E70000082930000822
:1000B000E7000008E7000008E7000008E700000884
:1000C0000348854600F0A2F8004800474D33000879
:1000D000781A00200448804704480047FEE7FEE7FE
:1000E000FEE7FEE7FEE7FEE70D2B0008C100000873
:1000F00030B50B46014600202022012409E00D46C0
:10010000D5409D4205D31D469540491B2546954047
:1001100040191546521E002DF1DC30BD70B500248B
:100120002546002801DA01244042002901DA012590
:100130004942FFF7DDFFAC4200D04042002C00D026
:10014000494270BDF0B51FB40646002082B0054696
:100150004024019100901BE0019922460F46304651
:1001600000F042F8049A059B801A994110D310467A
:100170001946224600F028F8361A8F410197224688
:1001800001200021009F00F01FF838184D41009019
:100190002046641E0028DFDC019B00982946324679
:1001A00007B0F0BDD2B201E00270401C491EFBD284
:1001B00070470022F6E710B513460A460446194672
:1001C000FFF7F0FF204610BD10B5202A04DB0146E2
:1001D000203A9140002010BD914020239C1A0346F4
:1001E000E3401943904010BD10B5202A04DB0846B7
:1001F000203AD040002110BD0B46D340D0402024EF
:10020000A21A91400843194610BD0000064C012572
:10021000064E05E0E36807CC2B430C3C98471034AE
:10022000B442F7D3FFF750FF405800086058000869
:1002300010B5094C00220221204600F0EEFC0022FD
:100240000121204600F0E9FC01220421204600F0B3
:10025000E4FC002010BD00000004005001B57D2327
:10026000DB0001226946024801F0D6F908BD000012
:100270003C00002010B5034800F02FFB024800F0BE
:100280002CFB10BD18020020D001002030B5446CBA
:100290001C252C400125A540046C65600468636042
:1002A0008368102B036803D099600068C26030BD7A
:1002B0009A600068C16030BD0A4610B50146044826
:1002C00001F0BCFC002801D000F0BCFA10BD000019
:1002D00050010020F8B5FA27002110263B467A226B
:1002E000084600F04CF900242146002000F032F9C5
:1002F000242000F0FFF80025FF2000F013F96D1C0A
:10030000ADB2B542F8D3641CA4B2BC42ECD300F049
:1003100060F9F8BDF1B5FA2082B0034600210090E3
:1003200010277A22084600F02AF9002421460020EE
:1003300000F010F9242000F0DDF8002526467E4369
:1003400002984019305C00F0EDF86D1CADB2BD4272
:10035000F6D3641C0098A4B28442E7D300F039F9C4
:10036000FEBD000070B5384D044601220421284628
:1003700000F053FCC82000F081FB00220421284635
:1003800000F04BFC022000F079FB012204212846FA
:1003900000F043FCC82000F071FB012000F0AAF837
:1003A000F92000F0BFF8002000F0BCF8002000F0B9
:1003B000B9F80C2000F09EF8D72000F0B3F8D62052
:1003C00000F0B0F89D2000F0ADF82C2000F092F87D
:1003D000A82000F0A7F83A2000F08CF81A2000F0CE
:1003E000A1F83B2000F086F8082000F09BF83C20A4
:1003F00000F080F8032000F095F8112000F07AF862
:10040000032000F08FF8322000F074F8002C05D0A3
:10041000012C0DD00DA002F045FE70BD1A4D002438
:10042000285D00F07FF8641CA4B21E2CF8D370BDC8
:10043000154D00241E35285D00F074F8641CA4B22C
:100440001E2CF8D370BD0000000400504465627596
:10045000673A206572726F722C20746865204D6F48
:100460006465206973204550445F32494E31335FE3
:1004700046554C4C206F72204550445F32494E31F6
:10048000335F5041525400004134000870B50AA057
:1004900002F008FE0124A4020D4D02E0642000F0E9
:1004A000EDFA2146284600F0B3FB0128F6D009A05A
:1004B00002F0F8FD70BD000044656275673A206582
:1004C0002D506170657220627573790D0A0000000D
:1004D0000004005044656275673A20652D506170D4
:1004E000657220627573792072656C656173650D44
:1004F0000A00000070B50A4C054600220221204681
:1005000000F08BFB00220121204600F086FB2846EC
:10051000FFF7A4FE01221146204600F07EFB70BDCD
:100520000004005070B50A4C054601220221204605
:1005300000F073FB00220121204600F06EFB2846EC
:10054000FFF78CFE01221146204600F066FB70BDCD
:100550000004005070B505460C464E20FFF7CAFF58
:100560006805000EFFF7DEFF4F20FFF7C3FFE0B284
:10057000FFF7D8FF2004000EFFF7D4FF70BDF8B5D9
:1005800007461C4616460D464420FFF7B3FF780584
:10059000000EFFF7C7FF7005000EFFF7C3FF4520F1
:1005A000FFF7A8FFE8B2FFF7BDFF2804000EFFF732
:1005B000B9FFE0B2FFF7B6FF2004000EFFF7B2FF6D
:1005C000F8BD10B51020FFF795FF0120FFF7AAFF37
:1005D00010BD10B52220FFF78DFFC420FFF7A2FF4A
:1005E0002020FFF787FFFF20FFF784FFFFF74EFF74
:1005F00010BD0000FEB564A002F054FDFFF718FE28
:1006000067A002F04FFD0020FFF7ACFEFFF762FE8F
:10061000FF20F53000F032FA7D20400102F0CAFEE2
:1006200007007AD065A002F03DFDFF26FF230F33BF
:10063000FA227A213846009602F00CF964A002F002
:1006400031FD384602F026F9FF2001F04FFC01246D
:10065000234600220A210520009401F0EBFE02232C
:10066000002219210520009401F0E4FE032300225A
:1006700028210520009401F0DDFE0423002237210B
:100680000520009401F0D6FE002500953C2346226B
:100690000A2114200295019401F0DAFD00953C2313
:1006A00014220A2146200295019401F0D1FD009503
:1006B0003C2346220A2114200295019401F058FFA0
:1006C00001943C2387220A2155200095029401F0D1
:1006D0004FFF2D22019437230F21104600950294DD
:1006E00001F0B6FD232301944622194619200095F6
:1006F000029401F0ADFD0023142223212D20019549
:10070000009401F0A1FC0094FF23142223216E2009
:10071000019401F099FC314B00E02FE030A20F2151
:100720008C200196009502F05DF82C4B2F4A282171
:100730008C200196009501F017FE2D4B2DA23C2137
:100740008C200196009501F081FF2C4B2CA24121B9
:1007500005200096019501F079FF3846FFF7DAFD94
:100760007D20000100F08AF928A002F09BFCFFF731
:1007700028FF384602F0C0FD0020FEBD27A002F091
:1007800091FC0020C043FEBD4550445F32494E31CC
:10079000335F746573742044656D6F0D0A0000004B
:1007A000652D506170657220496E697420616E64B8
:1007B00020436C6561722E2E2E0D0A005061696E09
:1007C000745F4E6577496D6167650D0A0000000032
:1007D00044726177696E670D0A0000001C000020FA
:1007E00077617665736861726500000015CD5B07FF
:1007F00010000020C4E3BAC361626300240000203B
:10080000CEA2D1A9B5E7D7D300000000476F746F1F
:1008100020536C6565702E2E2E0D0A004661696CA2
:10082000656420746F206170706C7920666F72202F
:10083000626C61636B206D656D6F72792E2E2E0D6B
:100840000A000000704730B5014620314A79002384
:10085000022A04D00422C2630B71012030BD026859
:1008600014680E25AC4314600268146864086400C0
:100870001460446C1C22144001221546006CA540F3
:1008800045604A7118460B7130BD70B500240146B1
:1008900020314A79022A03D00421C163012418E0DF
:1008A000026813680E25AB431360026813685B0887
:1008B0005B001360436C1C221340012215469D40CF
:1008C000036C5D604A7100220A71816B002900D0BF
:1008D0008847204670BDC06B7047F0B4016C0D684E
:1008E00001680C68466C1C2304221E401746B74062
:1008F0002F420ED067070CD50C68A40602D40C68F2
:1009000094430C60416C19408A40016C4A60016B51
:100910001AE00227B74002462F402032002F17D09E
:10092000A70715D50C68A40605D40C680A25AC43A6
:100930000C6001215171446C02211C40036CA140E8
:10094000596000211171C16A002918D0F0BC084714
:100950000827B7402F4212D0240710D50C680E2567
:10096000AC430C60446C01211C400B46A340046C5A
:100970006360C163517100211171416BE4E7F0BC08
:100980007047000070B504003CD01F482568142152
:100990002818FFF7ADFB800060641C48206402212A
:1009A000204620300246417129681948E368014019
:1009B000A06866691843236933431843A369184341
:1009C000E3691843236A1843084328600121A0689B
:1009D0008903884210D00D488030836A656C1C21E1
:1009E0000D400F26AE40B3438362656C63680D40D3
:1009F000816AAB400B4383620020E06301215171A7
:100A0000107170BD012070BDF8FFFDBF00000240F5
:100A10000F80FFFFF8B504468C4620300179002591
:100A2000012909D00126067141790027012905D045
:100A3000077102252846F8BD0220F8BD0221417148
:100A4000E763206801684908490001606146204663
:100A5000FFF71CFC206B00282068016801D00E22E3
:100A600005E0042291430160206801680A221143D5
:100A700001602068016831430160DBE770B504461E
:100A800000F0D2F80546601C00D0641C00F0CCF8E1
:100A9000401BA042FAD370BDF8B500230124A2E0A8
:100AA00027469F403A4070D04D68022D01D0122D4C
:100AB00014D1DD08AD002D1800952D6A5E07AC46F7
:100AC000F50E0F26AE46AE406546B543AC460E6900
:100AD0007546AE4065462E43009D2E624D68012D41
:100AE00005D0022D03D0112D01D0122D16D185680D
:100AF0000326AC465D00AE46AE406546B543AC4607
:100B0000CE687546AE4065462E43866046680D79D0
:100B1000BE43ED06ED0F9D403543456006685F001E
:100B20000325BD40AE46AE430D79B446AE07B60FC1
:100B3000BE4065462E430660C6687546AE438D6866
:100B4000BD403543C5604D68ED004BD5294D6E6BFA
:100B500026436E639E08284DB6007519AC46AD68F5
:100B60009E07360F0F27B740BD4305273F07B84202
:100B700001D1002715E0214FB84201D1012710E033
:100B80001F4FB84202D102270BE02BE01D4FB842A5
:100B900001D1032705E01C4FB84201D1052700E031
:100BA0000627B7402F436546AF60184D2E684F6843
:100BB0009643FF0300D516432E606E684F68964338
:100BC000BF0300D516436E60AE684F689643FF02C0
:100BD00000D51643AE60EE684F689643BF0200D55D
:100BE0001643EE605B1C0A681546DD4000D057E7EF
:100BF000F8BD000000100240000001400004005059
:100C000000080050000C0050001C0050000401407F
:100C10000069084000D001207047002A01D081619E
:100C2000704781627047000001480068704700000B
:100C30000800002002480168491C0160704700005C
:100C40000800002010B50848002401684022114324
:100C50000160204600F00AF8002801D0012401E0DC
:100C600000F01CF8204610BD0020024070B505467B
:100C700009487D210024C9000068FFF739FA00F017
:100C800085FD002801D0012404E000222946501EE1
:100C900000F01AF8204670BD0C0000200448416B9B
:100CA000012211434163816B020411438163704748
:100CB00000100240C106C90E0120884001490860A9
:100CC0007047000000E100E010B501F0EDF810BD44
:100CD000F8B504460068614D810601D400057DD554
:100CE0005E4E0027403EB06BC00004D4B06B3104B0
:100CF0000843B06301275A480168C90511D4016847
:100D0000821511430160FFF78FFF009005E0FFF7A8
:100D10008BFF0099401A642844D851480068C005E8
:100D2000F5D5316803200005626801401040884213
:100D300005D10323A0681B051840884208D0900302
:100D4000800F032804D13068800301D50120F8BD4D
:100D5000286903210904084029D00A40824202D0B0
:100D60002278920606D4A2680A4082421FD02088C8
:100D700000051CD528692A6988430121C9040A4352
:100D80002A612A698A432A612861C0050FD5FFF7C5
:100D90004BFF009008E0FFF747FF0099411A3148E8
:100DA000814201D90320F8BD28698005F3D5616827
:100DB0008803800F032805D1326800058243014073
:100DC0000A43326028690322616812041140084313
:100DD0002861002F06D0B16B012000E002E000077F
:100DE0008143B1632078C00705D0E868E1688008D6
:100DF00080000843E8602078800705D5E8680C216A
:100E0000884321690843E8602078400706D5E868F0
:100E100003218902884361690843E860207800075C
:100E200006D5E868032109038843A1690843E860FF
:100E30002078400606D5E868012189068843216AA2
:100E40000843E8602078000606D5E8680321890495
:100E50008843E1690843E8600020F8BD4010024083
:100E60000070004088130000F8B50E4605007DD0E4
:100E700053480068C007C00FB0420AD2504801680A
:100E800049084900314301600068C007C00FB04203
:100E900071D128784B4C800705D5E068F021884354
:100EA000A9680843E0602878C00752D06868022823
:100EB00017D0032818D02168012818D089050029E7
:100EC00059DAE168890889000143E160FFF7ACFE67
:100ED00069680746022912D003291CD0012926D0AF
:100EE00033E021688903EAE721688901E7E74907D8
:100EF000E5E7FFF799FEC11B3348814223D8E0683C
:100F00000007800F0228F4D123E0FFF78DFEC11BFC
:100F10002D48814217D8E0680007800F0328F4D1DC
:100F200017E0FFF781FEC11B274881420BD8E0681C
:100F30000007800F0128F4D10BE0FFF775FEC11BFD
:100F40002148814201D90320F8BDE0680007800FE5
:100F5000F3D11B480168C907C90FB1420DD9016817
:100F60004908490031430160006800E003E0C00720
:100F7000C00FB04201D00120F8BD2878400706D547
:100F8000E068072109028843E9680843E06028789F
:100F9000000707D5E0680721C90288432969C9000D
:100FA0000843E06000F036F8E168084A0906090FD6
:100FB000515CC840064908600020FFF757FEF8BDA5
:100FC0000020024000100240881300002034000876
:100FD0000C000020044805490068C968044A490516
:100FE000490F515CC84070470C00002000100240BF
:100FF00039340008044805490068C968044A89046E
:10100000490F515CC84070470C000020001002409E
:101010003934000810B5184AD1680C20084004285B
:101020000BD0082810D00C2810D050680004410FB5
:101030000120C003491C884010BD1068C00601D5BE
:101040000E4810BD0E4810BD0E4810BD88020E4B54
:10105000000F185C0902D368890F491CDB0301D516
:10106000084A05E01268D20601D5044A00E0044AA5
:101070005043FFF73DF810BD0010024000093D004D
:101080000024F400001BB70030340008FEB5050052
:101090007ED0FE4CE7680C20E66807400120000483
:1010A00006402878C00747D0082F05D00C2F0AD15A
:1010B00001200004864206D1206880033CD5686880
:1010C0000028E5D038E0012069680004814203D19E
:1010D00021680143216011E0052301221B049204D1
:1010E0009942216802D111432160F1E781432160D7
:1010F00021680140009120689043206068680028C2
:101100000DD0FFF791FD009005E0FFF78DFD0099F0
:10111000401A64287AD820688003F6D50CE0FFF7DF
:1011200083FD009005E0FFF77FFD0099401A6428D9
:10113000F0D820688003F6D42878800755D5092395
:10114000E868042F0DD00C2F01D1002E09D0002803
:101150003BD02168994301432160FFF765FD0646B6
:1011600027E02168490701D5002891D061681F2236
:10117000120291432A691202114361602168994366
:1011800001432160FFF746FFE16809060A0F00E00E
:10119000BBE1BF49895CC840BE4908600020FFF739
:1011A00065FD002872D120E0FFF73EFD801B02287C
:1011B000B0D820684007F7D560681F21090288432E
:1011C00029690902084360600FE020684008400078
:1011D0002060FFF729FD064604E0FFF725FD801B90
:1011E000022897D820684007F7D42878C0065FD532
:1011F000002F0CD0E869002849D02068FF21013178
:1012000008432060FFF710FD06462DE0E4E020686B
:10121000800502D5E8690028A7D060680721490346
:101220008843696A084360606068298C0002000A8C
:10123000090608436060686A410B0120C003491C2D
:101240008840E16809060A0F9149895CC8409149C4
:1012500008600020FFF70AFD002817D128E0FFF7FB
:10126000E3FC801B0228A3D820688005F7D56068BE
:10127000072149038843696A084360606068298CD4
:101280000002000A09060843606011E023E12168BA
:10129000FF20013081432160FFF7C6FC064604E0D1
:1012A000FFF7C2FC801B02289BD820688005F7D47A
:1012B0002878794E000724D568690028306910D055
:1012C000012108433061FFF7AFFC009005E0FFF714
:1012D000ABFC0099401A02287ED830698007F6D509
:1012E0000FE0400840003061FFF79EFC009005E0F1
:1012F000FFF79AFC0099401A02286DD830698007E0
:10130000F6D42878400764D500200290A06BC00076
:1013100006D4A06B012109070843A06301200290B5
:101320005E480168C90511D4016882151143016046
:10133000FFF77AFC009005E0FFF776FC0099401A71
:10134000642849D855480068C005F5D5FF20AA682B
:101350000130824203D131690143316111E0012141
:101360008902002A07D005231B029A4203D1326961
:101370000A433261EFE73269824332613069884360
:101380003061A86800280ED0FFF74EFC009006E000
:10139000FFF74AFC0099411A414881421CD8306944
:1013A0008005F5D50DE0FFF73FFC009006E0FFF764
:1013B0003BFC0099411A3A4881420DD830698005BA
:1013C000F5D40298002804D0A16B012000078143C6
:1013D000A1632878800600E07CE02ED53148A96919
:1013E0004314002916D0A26801210A43A260626B4F
:1013F0000A436263016A19430162FFF715FC06465E
:1014000004E0FFF711FC801B022863D8A068800766
:10141000F7D512E0A16849084900A160016A994323
:101420000162FFF701FC064604E0FFF7FDFB801BAD
:1014300002284FD8A0688007F7D4A86A002866D091
:101440000C2F4DD0012636060228206805D0B04367
:101450002060FFF7E9FB05463EE0B0432060FFF760
:10146000E3FB074604E0FFF7DFFBC01B022831D88F
:1014700020688001F7D4296BE86AE2680843696B49
:10148000FD231B049A43114308430DE00010024062
:10149000203400080C000020401002400070004082
:1014A0008813000000000140E060206830432060A5
:1014B000FFF7BAFB054604E0FFF7B6FB401B022826
:1014C00008D820688001F7D521E0FFF7ADFB401B6D
:1014D000022801D90320FEBD20688001F5D416E062
:1014E0000128F8D0E06801210904EA6A014091422C
:1014F0000BD10F2189042A6B0140914205D10321B0
:1015000089050840696B884201D00120FEBD00209A
:10151000FEBD70B5040007D0002625464035A66202
:10152000687C002802D005E0012070BD2E742046A2
:1015300000F030F80220687420680168402291436E
:101540000160A168606822690843E16811430843AB
:10155000616901220843A169520211400843E1690F
:101560000843216A0843A16A084321680860A0690A
:101570000421000C0840616A084321684860206823
:10158000C16992009143C1616665012068740020C1
:1015900070BD000030B587B0044614216846FEF7E0
:1015A00008FE2468184D0022184802210323AC428B
:1015B00011D1446B85142C434463C46A01252C4328
:1015C000C462C06A6C4628400590A0200FC46946DA
:1015D000C005049213E00E4DAC4212D1846B2D1461
:1015E0002C438463C46A0C43C462C06A6C460840DE
:1015F0000590072040030FC4694606480492FFF790
:101600004BFA07B030BD000000300140001002402E
:101610000038004000040050FFB505460446403540
:10162000287C002781B01646012809D001202874A3
:10163000FFF7FAFA0090687C012804D0022793E0B3
:10164000022005B0F0BD0298002870D0002E6ED0A8
:10165000032068740020606502992163A686E686EF
:10166000A063A087E087606420640121A068C903AB
:10167000884205D12068016801229203114301606C
:1016800020680168490603D40168402211430160C3
:101690000121E068C9028842606826D1002801D093
:1016A000012E1ED1206B21680088C86006E02068EA
:1016B0008168890709D5216B0988C160206B801C6E
:1016C0002063E08E401EE0860BE0FFF7ADFA009944
:1016D000411A0498814202D3401C02D03AE000280B
:1016E00038D0E08E0028E2D127E0002801D0012E7A
:1016F00020D1206B21680078087306E0206881689B
:10170000890709D5216B09780173206B401C206380
:10171000E08E401EE0860DE0FFF786FA0146009855
:10172000091A0498814203D3401C03D012E01AE046
:1017300000280FD0E08E0028E0D12046009A0499BE
:1017400001F03DF9002801D020206065A068002844
:1017500002D005E0032707E02068C1688068009098
:10176000606D002800D001270120687400202874D3
:10177000384666E7042204490428086902D09043E9
:10178000086170471043FBE700E000E0094910B52D
:10179000401E884201D9012010BD074C6061032121
:1017A000081F00F081FB0020A061072020610020BD
:1017B00010BD0000FFFFFF0000E000E0704770B5C3
:1017C000416F0446856F0068826810261206002A61
:1017D00014DA212912D18168802291438160A06EA0
:1017E000002808D0FFF72FF8002804D0A06EFFF7DC
:1017F00072F820281DD0204601F0C7FA20688168C1
:10180000490614D5222D12D181684022914381606E
:10181000E06E002808D0FFF716F8002804D0E06E2C
:10182000FFF759F8202804D0204601F09EFA002046
:1018300070BDE667032070BD70470000F8B5026810
:101840000446D0691168936805072D0F5BD0DD074A
:10185000ED0FFF2621360E402E4367D0C60706D077
:10186000CE0504D501261662E26F3243E267870790
:1018700002220426002F06DADF0704D027683A6226
:10188000E76F3743E767470706D5DB0704D02368D0
:101890001E62E36F1343E367020709D520220A4063
:1018A0002A4305D0236808221A62E36F1343E367D3
:1018B000E26F002A2FD0800606D5880604D5216E57
:1018C000002901D020468847E06F216889684906D1
:1018D00001D4000724D5204601F047FA206881682A
:1018E000490619D58168402291438160E06E002845
:1018F00012D020498163E06EFEF7C7FF00280AD0AE
:10190000E06E816B06E0850610D58D060ED5216E42
:101910001CE020468847F8BD2046FFF78DFFF8BD44
:101920002046FFF789FF0020E067F8BDC50208D513
:101930005B0206D50120000510622046FFF73EFF3E
:10194000F8BD030605D50B0603D5616E0029E0D16D
:10195000F8BD4006FCD54806FAD51368204640215C
:101960008B431360202161670021616600F0BCF9A0
:10197000F8BD00008D2C000810B5040003D0606F86
:10198000002802D007E0012010BD00217020015581
:10199000204600F027F82420606720680168490885
:1019A00049000160204601F0F9F90128ECD0606A95
:1019B000002802D0204601F0D3F8206841680922AF
:1019C000D20291434160206881682A22914381605C
:1019D00020680168012211430160204601F026F9C8
:1019E00010BD0000F0B587B0064614216846FEF72A
:1019F000E0FB2B493068884250D12A48416B0122D4
:101A0000920311434163C16A01221143C162C06A5A
:101A1000002410400590032040020090022003277C
:101A200001A991C104200490052069460007FFF731
:101A300033F81E4D1C48AC60EC6081C5EC602C6135
:101A400080276C61AF60AC611848083DFEF79AFFD3
:101A5000002801D0FEF7F6FEF566AE62134D12487F
:101A60004835143828600320686029461020083162
:101A700091C16C61AC61EC6128462C62FEF782FF7B
:101A8000002801D0FEF7DEFEB566002211461B20BD
:101A9000AE62FFF719F91B20FFF70CF907B0F0BD94
:101AA000003801400010024030000240D001002008
:101AB000F8B50446806F20284DD100290BD0002AAC
:101AC00009D00123A0681B03984206D12069002891
:101AD00003D1C80701D00120F8BD25466035287C18
:101AE000012838D00120287458206165025300264F
:101AF000E6672220A067E06E002819D01749C1626E
:101B0000E16E17480863E16E16484863E06E1346BD
:101B10008663676D21683A462431E06EFEF77AFFEE
:101B2000002805D01020E0672E7420206067D2E7DF
:101B30002E7420680168FF22013211430160206881
:101B4000816801221143816020688168402211432D
:101B500081600020F8BD0220F8BD0000E92C0008DB
:101B6000272D0008A12C000870477047FFB50446D8
:101B7000406F83B017460D4620285CD1002D0AD057
:101B8000002F08D0A168C001814207D12069002838
:101B900004D1E80702D0012007B0F0BD2046603034
:101BA0000290007C012846D0029801210174002097
:101BB000E06721206067FFF737F82646403601903E
:101BC000378277820120A1680003814202D1206917
:101BD000002802D02F46002511E000270FE0002248
:101BE0008021204601F0EEF9002815D1002F15D0F4
:101BF0002168387888627F1C708A401E7082708AE3
:101C0000019B002806980090E9D10022402120463F
:101C100001F0D8F9002808D00320BDE72888216802
:101C2000C005C00D8862AD1CE6E720206067029900
:101C300000200874B0E70220AEE70000F8B50446C3
:101C4000406F202847D100290BD0002A09D001235A
:101C5000A0681B03984206D12069002803D1C80759
:101C600001D00120F8BD25466035287C012832D0FE
:101C70000120287420464030E1640282428200261E
:101C8000E66721206067A06E002819D01349C16261
:101C9000A16E13480863A16E12484863A06E1346F4
:101CA00086632768E16C3A462832A06EFEF7B2FEE2
:101CB000002805D01020E0672E7420206067D0E750
:101CC0002168402008622E742068816880221143B8
:101CD00081600020F8BD0220F8BD0000312D000811
:101CE000612D0008A12C000870477047FEE7000036
:101CF00008B50848016B012211430163006B1040D5
:101D00000022009011460A20FEF7DEFF0A20FEF7AF
:101D1000D1FF08BD00100240F0B587B0142168461D
:101D2000FEF747FA2D48C26A04210A43C262C26A1A
:101D30000A400592C26A80210A43C262C26A0A400E
:101D40000592C16A01252943C162C16A29400591F2
:101D5000C16A02263143C162C06A2A4630400590FA
:101D6000052007210007FEF758FF002207211C4825
:101D7000FEF753FF012211031948FEF74EFF6803D7
:101D8000002400900194694602941648FEF784FEF0
:101D900007270520019569460007009702950394DF
:101DA000FEF77AFE029469460D4800970195039468
:101DB000FEF772FEA802009001946946029408485A
:101DC000FEF76AFE28030090019569460396029586
:101DD0000348FEF761FE07B0F0BD000000100240AE
:101DE000000400500008005010B50F480D49016074
:101DF000FF210531416000218160C1600122016144
:101E0000520282614161016220224162C2618162AB
:101E10000721C162FFF77DFB002801D0FEF712FD0C
:101E200010BD0000003001403C00002010B50E48FD
:101E30000C490160FF210531416000218160C160D2
:101E400001614161C161012201625202416282610C
:101E500081620721C162FFF75CFB002801D0FEF719
:101E6000F1FC10BD003800409400002010B50C4873
:101E70000A490160E1214902416000218160C1609D
:101E800001618161C1610C22016242614162FFF71F
:101E900073FD002801D0FEF7D5FC10BD00380140CD
:101EA00050010020704700008307FF22DB0E9A409C
:101EB0008907090E994000280BDA0007000F08383F
:101EC000830808489B001818C36993430B43C361F8
:101ED0007047830804489B001B1818689043084308
:101EE0001860704700ED00E000E400E030B51949EB
:101EF000CA8A022A08D0042A06D0072A17D100224B
:101F000003010343DBB220E00022C3B20CE0002057
:101F100005E0544324180D68401C2B5580B24C8AB0
:101F20008442F6D8521C92B2888A9042EFD830BDD3
:101F3000002005E0544324180D68401C2B5580B246
:101F40004C8A8442F6D8521C92B2888A9042EFD8CA
:101F500030BD000060020020FFB52A4881B01E4657
:101F6000838801998B4203D3C1880298814204D2AD
:101F700025A001F097F805B0F0BDB088C108400772
:101F800000D001200818203AF188504348433168B6
:101F90000F18002532E0002427E00B983978FF283D
:101FA00006D06207520F8020D040014206D10DE0DA
:101FB0006207520F8020D040014210D002980A9A46
:101FC000401981B20198001980B206E002980B9A7C
:101FD000401981B20198001980B200F061FCE04321
:101FE000400700D17F1C641CA4B2B088A042D4D8A2
:101FF0003079400700D07F1C6D1CADB2F088A8423C
:10200000C9D8B8E76002002044656275673A20507D
:1020100061696E745F447261774368617220496ED2
:1020200070757420657863656564732074686520D5
:102030006E6F726D616C20646973706C617920726F
:10204000616E67650D0A0000FFB57F4887B00F46D7
:102050008488079B11999C4202D3C088B84204D857
:102060007A4801F01FF80BB0F0BD15B25000032202
:10207000101A002400B20190012976D0E1E0264632
:102080005DE001200090B81981B203900798012308
:102090000019029080B20A9A00F0CCF90120009059
:1020A0000398012381B20798001B059080B20A9A19
:1020B00000F0C0F901200090381981B20390079810
:1020C0000123801B069080B20A9A00F0B3F9012028
:1020D0000090381B81B204900698012380B20A9ABE
:1020E00000F0A8F901200090B81B81B20690059875
:1020F000012380B20A9A00F09DF901200090069811
:10210000012381B202980A9A80B200F093F901206B
:1021100000900498012381B207980A9A80190290CE
:1021200080B200F087F9012000900398012381B26A
:1021300002980A9A80B200F07DF9761C36B2AE425F
:102140009FDD0198002805DAA1000818801D00B263
:10215000019008E0601B8100019808180A3000B265
:102160006D1E2DB20190641C24B2AC4287DD7AE76B
:10217000781981B202900798012600190096039001
:1021800080B2109B0A9A00F055F90298009681B22D
:102190000798109B001B059080B20A9A00F04AF93C
:1021A000381981B2029007980096401B069080B2C1
:1021B000109B0A9A00F03EF9381B81B204900698F1
:1021C000009680B2109B0A9A00F034F9781B81B215
:1021D000009606900598109B80B20A9A00F02AF9A2
:1021E0000698009681B20398109B80B20A9A00F07C
:1021F00021F90498009681B20798109B401903902A
:1022000080B20A9A00F016F90298009681B20398FB
:10221000109B80B20A9A00F00DF90198002805DAA7
:10222000A1000818801D00B2019008E0601B810029
:10223000019808180A3000B26D1E2DB20190641C7E
:1022400024B2AC4294DD0EE760020020FC57000887
:10225000F0B51D46334B16469A8887B0824206D3A6
:10226000DB888B4203D3B24201D3AB4204D22EA00F
:1022700000F018FF07B0F0BD01910290321A00D5AE
:10228000821B04926A1A002A00DD4A1B0392002274
:10229000D243B04201D2012000E010460690A9428C
:1022A00000D201220499039805920C1800277F1C84
:1022B0000E98FFB2012805D103213846FDF718FF1B
:1022C000002924D0012000900D9B0C9A01990298BE
:1022D00000F0B0F803986100814209DB0298B04237
:1022E000C8D00398069924180298401880B202902A
:1022F000049861008142DADC0198A842BAD00498BF
:10230000059924180198401880B20190CFE7012068
:102310000090FF220D9B0199029800F08BF8002796
:10232000D8E700006002002044656275673A2050DB
:1023300061696E745F447261774C696E6520496EA5
:1023400070757420657863656564732074686520B2
:102350006E6F726D616C20646973706C617920724C
:10236000616E67650D0A0000FFB5FFB0FF2786B0FC
:102370000024013716462546394644A8FDF719FFC3
:10238000394604A8FDF715FF44A80390184885991D
:1023900082888A4204D3C188869804AF81420ED2D3
:1023A00014A000F07FFE7FB00AB0F0BD0A213046D5
:1023B000FDF7B4FE30313955641C24B20646002EB8
:1023C000F4D144A8002C08DD39192039C97F4155C2
:1023D0006D1C641E2DB224B2F4E78E988F99019083
:1023E0000091889B039A8699859800F0FBF9DAE7BB
:1023F0006002002044656275673A205061696E741E
:102400005F4469734E756D20496E707574206578F0
:10241000636565647320746865206E6F726D616CAE
:1024200020646973706C61792072616E67650D0A52
:1024300000000000FFB52A4D81B0AA8801990A98D2
:102440001C468A4203D3EA8802998A420ED225A00A
:1024500000F028FEAA8833A0019900F023FEEA8844
:1024600039A0029900F01EFE05B0F0BD012801D090
:10247000002632E0002567007F1E18E00198002644
:102480004019001B00900EE0009800280DD402981F
:102490008019001B09D481B20098039A80B200F021
:1024A000FFF9761C36B2B742EEDC6D1C2DB2AF429E
:1024B000E4DCD9E70198002587197F1E09E002981E
:1024C000039A4019401E81B2B8B200F0E9F96D1CC0
:1024D0002DB2A542F3DB761C36B2A642EADBC3E797
:1024E0006002002044656275673A205061696E742D
:1024F0005F44726177506F696E7420496E707574B5
:10250000206578636565647320746865206E6F72FA
:102510006D616C20646973706C61792072616E67A3
:10252000650D0A0058706F696E74203D2025642087
:102530002C205061696E742E5769647468203D20A8
:10254000256420200D0A200059706F696E74203DAB
:10255000202564202C205061696E742E48656967BF
:102560006874203D20256420200D0A200000000012
:10257000FFB583B00C4628491F468888039B0C9EF4
:102580000D9D0E9A984207D3C988A14204D3059B9A
:10259000984201D3B94204D220A000F083FD07B0D5
:1025A000F0BD002A0CD10EE00020234600960290D8
:1025B00001951946059A0398FFF74AFE641CA4B2D8
:1025C000BC42F1D3EBE70020234600960290019530
:1025D0001946059A0398FFF73BFE0020039A0290E4
:1025E0003B460096019521461046FFF731FE0096C6
:1025F0000020059A02902346019539461046FFF7C0
:1026000027FE00203B460096029001951946039A4A
:102610000598FFF71DFEC2E7600200204465627561
:10262000673A20496E7075742065786365656473D8
:1026300020746865206E6F726D616C2064697370C0
:102640006C61792072616E67650D0A00FEB51D46EA
:10265000064601920091BCE07F2A58D80020A98844
:102660004EE0A6232C684343E35C934247D1A62265
:102670005043801C2018002702903CE0002430E0EA
:102680000998FF28029800780AD0E117490F091924
:10269000C908C900621A8021D14008420AD110E05D
:1026A000E117490F0919C908C900621A8021D140F0
:1026B00008420ED00098089AC01981B2301980B231
:1026C00005E00098099AC01981B2301980B200F073
:1026D000E7F843482040072802D10298401C0290A6
:1026E000641C2889A042CBDC287A400702D00298DB
:1026F000401C02907F1C6889B842BFDC02E0401C8D
:102700008142AEDC0198401C0190E88860E0002026
:10271000AB8857E0A62701462C687943675C97424F
:102720004FD1491C645C019949788C4249D1A62259
:1027300050432968801C0818002702903DE00024BF
:1027400031E00998FF28029800780AD0E117490F74
:102750000919C908C900621A8021D14008420AD16A
:1027600010E0E117490F0919C908C900621A802150
:10277000D14008420ED00098089AC01981B2301991
:1027800080B205E00098099AC01981B2301980B270
:1027900000F086F8124920460840072802D1029826
:1027A000401C0290641C2889A042CADC287A400799
:1027B00002D00298401C02907F1C6889B842BEDC9F
:1027C00002E0401C8342A5DC0198801C019028890E
:1027D000861901980278002A00D03DE7FEBD00006E
:1027E00007000080FFB5194883B08188039C049DD1
:1027F0001E461746A14202D3C188A94222D21448DC
:1028000000F050FC07B0F0BDB08801190F48838874
:10281000994203D9F188039C49198DB2F188C08887
:102820004919814201D9049D039C0D990C9800918E
:102830000190334629462046FFF78EFBB0880019E9
:1028400084B27F1C3A78002ADED1DBE760020020E8
:10285000B857000870B50E4C049E2060218162813B
:10286000A6810220E08200254E07C808002E00D075
:10287000401C6082A282E3812582002B04D0B42B0D
:1028800002D0A280E18070BDA180E28070BD000016
:1028900060020020014908607047000060020020CB
:1028A000F8B53B4CA388834236D3E3888B4233D3BD
:1028B0002346E7891E895D89002F1AD05A2F1BD025
:1028C000B42F1DD0FF3F0F2F29D10B46281A401ED1
:1028D00080B2218A00291BD0012916D0022904D0F8
:1028E00003291CD1F11A491E8BB2281A401E80B24E
:1028F0000EE003460846ECE7711A491E8BB2E8E782
:10290000301A401E83B2681AE1E7F11A491E8BB2F1
:102910009E4201D3854203D21EA000F0C3FBF8BD46
:102920001B49E58A4C8A0968022D11D0042D22D05A
:10293000072DF4D15D0844432819DB070C5C5B0FBD
:10294000F025DD40AC431201DA4022430A54F8BDC1
:102950004443DD082C190D5D8020002A05D05A075C
:10296000520FD04028430855F8BD5A07520FD040A7
:1029700085430D55F8BD9D084443281992079B07D0
:102980000C5C5B0FC025DD40AC43120EDCE70000A1
:102990006002002044656275673A2045786365658A
:1029A00064696E6720646973706C617920626F7509
:1029B0006E6461726965730D0A000000704738B576
:1029C00004464068FF2305332025984204D1009235
:1029D0000B460022802107E05120005D05280DD123
:1029E00000920B4600220121204600F009F8002841
:1029F00004D0606D28436065032038BD002038BDD9
:102A0000F8B51D4617460E46044609E0681C07D077
:102A1000FEF70AF90699401AA8420BD2002D09D0F8
:102A200020688168304688432ED00020B842EDD11E
:102A30000020F8BD20684168E02291434160606851
:102A4000C11FFD390CD10121A068C903884202D001
:102A50004911884204D120680168402291430160F5
:102A60000120A16A4003814207D121680A6882439C
:102A70000A6021680A6802430A60012040346074D9
:102A8000002020740320F8BD0120CFE7704710B567
:102A9000FEF7D0F810BD000030B59DB03821684673
:102AA000FDF787FB142117A8FDF783FB24210EA84F
:102AB000FDF77FFB144801680322D2029143C21440
:102AC00089180160500101900B90032002218004BD
:102AD0000C900125880500950D900A916846FEF737
:102AE000D5FA0F20179000240320189019941A94F7
:102AF00001211B9417A8FEF7B7F90EA80E951194A3
:102B0000FEF7E6F81DB030BD0070004010480168C7
:102B1000821511430160C1680E4A1140C16001680D
:102B20000D4A1140016081684908490081600168CF
:102B30000122920491430160C168FD221204914375
:102B4000C160002101610549C00388607047000031
:102B5000001002400C40FF88F6FFF6FE00ED00E09A
:102B600010B5818CC90707D001684A6801235B044E
:102B70009A43836A1A434A60818C890707D50168A2
:102B80004A6801231B049A43C36A1A434A60818C32
:102B9000490707D501684A6801239B049A43036BE0
:102BA0001A434A60818C090707D501684A680123E6
:102BB000DB039A43436B1A434A60818CC90607D5ED
:102BC0000268916801231B039943836B1943916049
:102BD000818C890607D501688A6801235B039A43C3
:102BE000C36B1A438A60818C490612D503685A6800
:102BF00001210905046C8A4322435A60026C8A420F
:102C000007D10268516803235B059943436C19435C
:102C10005160818C090607D501684A680123DB04ED
:102C2000806C9A4302434A6010BD0000F8B500264C
:102C30000446C667FDF7F8FF054620680068124F96
:102C4000000709D501212B4600224905204600979F
:102C500000F0B8F900280DD12068006840070BD5B6
:102C600001212B46002289052046009700F0AAF991
:102C7000002801D00320F8BD20206067A0676034E1
:102C800026740020F8BD0000FFFFFF0110B5806A28
:102C90000022014640314A834A82FEF7CDFD10BD35
:102CA00070B5846A606FA56F21688968002609067F
:102CB000002906DA212804D152200653204600F0CC
:102CC00064F820688068400606D5222D04D15A2079
:102CD0000653204600F049F8E06F10210843E067F2
:102CE0002046FEF7A9FD70BD10B501460968806A4F
:102CF0000968890614D400225A210A5201680A6818
:102D0000FF2301339A430A6001688A68520852001F
:102D10008A6001688A6840239A438A60202181671B
:102D2000FEF722FF10BD10B5806AFEF71EFF10BD32
:102D300010B501460968806A096889060DD4002229
:102D400052210A5201688A6880239A438A60006887
:102D5000016840221143016010BDFEF7C5FF10BDA0
:102D600010B5806AFEF7C1FF10BD01680A68FF2335
:102D700021339A430A6001688A68520852008A60C7
:102D80002021816700210166704701680A68C0231D
:102D90009A430A602021416770470000F8B5044655
:102DA0002669A268E76932436669102000253E4320
:102DB0002368324378491E68784F3E4016431E60B0
:102DC00023685A6803263603B243E66832435A60E2
:102DD0002368A2698B4201D0266A32439E680B2782
:102DE0003F02BE4316439E606D4E23686D4AB34258
:102DF0000CD1D2689207920F06D0012A38D0022A4D
:102E000034D0032A20D11EE001201DE0664EB342DB
:102E10000AD1D2680C26324026D0042A28D0082AAB
:102E200024D00C2A10D10EE08B420DD1D66803229B
:102E30009202164018D001229202B61A18D0B61A81
:102E400014D0964200D10820564A0126403A574FE6
:102E5000F6038B4236D100280CD002280DD004286E
:102E600012D008281FD11CE00020EDE70220EBE77C
:102E70000420E9E7FEF7AEF808E01068C00601D5C7
:102E8000384605E04A4803E0FEF7C4F8002873D04E
:102E9000626851005118814205D81103814202D362
:102EA00003E03046F4E7012566E0010E0602500813
:102EB000002330185941FDF745F903210902411A51
:102EC0003C4A55E0E169B14232D1030000F0FAF822
:102ED00009070A0D06250606062B0600E3E7FEF79E
:102EE00079F81CE0FEF786F819E010686168C00602
:102EF00002D54808304A01E0304A48088018FDF7FA
:102F0000F7F880B201462E4A10399142CBD8511CB5
:102F100001400007400F08432CE0FEF77BF8616892
:102F200040004A08EAE76168012248081204E5E720
:102F3000030000F0C7F809070A0D06260606062C4E
:102F40000600B0E7FEF746F81DE0FEF753F81AE07A
:102F500010686168C00602D54808C01902E014482C
:102F60004A081018FDF7C4F880B20146144A103917
:102F7000914298D82168C860002020666066284683
:102F8000F8BDFEF747F861684A088018EAE761680B
:102F900048088019E6E7000000480040F369FFEFA9
:102FA00000380140401002400044004000093D004C
:102FB0000024F400FFFC0F0000127A000048E80132
:102FC000EFFF0000FFB581B017460E4604460A9D8C
:102FD00009E0681C07D0FDF727FE0499401AA842B3
:102FE0000CD8002D0AD02068C1693046884318D01B
:102FF0000020B842EDD0002005B0F0BD2068016887
:10300000FF22A1329143016020688168490849008C
:10301000816020206067A067002060342074032056
:10302000EAE70120E5E7000010B500F01FF80248CC
:10303000FEF704FC10BD00005001002010B5094C43
:1030400021780948FDF738F9002020706070217858
:103050000548FDF7AEF8044964228818FEF728FDFC
:1030600010BD000004000020EC00002010B50B484B
:103070000068C169C906C90F0ED010210162074856
:10308000FEF79DFB05488030006840686421091AFE
:10309000034801700121417010BD00005001002063
:1030A000040000200FB410B503A9044B044A029891
:1030B00000F024F810BC08BC04B01847DD3200084A
:1030C0003000002030B47446641E2578641CAB4286
:1030D00000D21D46635D5B00E31830BC184702E078
:1030E00008C8121F08C1002AFAD170477047002093
:1030F00001E001C1121F002AFBD17047FFB58DB05E
:103100000F460546002606E025280AD0109A0F999A
:1031100090476D1C761C28780028F5D1304611B0F8
:10312000F0BD00240121674A009400E004436D1CB7
:103130002B780846203B98401042F7D128782E285B
:1031400015D10420044368786D1C2A280AD101CFC8
:103150006D1C00900BE000990A2251433039401851
:103160006D1C00902878014630390929F3D9287858
:10317000692843D006DC0028D0D063280BD064280F
:1031800004D13BE073280FD075284CD0109A0F99CA
:103190009047761C94E0387869460872002048729F
:1031A00002A80190012003E0386801900020C0438C
:1031B0003F1D61070CD5002400E0641C00998C427F
:1031C0000FDA8442F9DB0199095D0029F5D108E0A5
:1031D000002400E0641C8442FCDB0199095D0029A5
:1031E000F8D1361907E0019801990078491C01913E
:1031F000109A0F999047641EF5D261E00A20019061
:1032000001CF002802DA40422D2102E0210504D539
:103210002B216A461172012103E0E10701D0202130
:10322000F7E70C9104E00A20019001CF00210C91F6
:103230000BA90B9108E00199FCF75AFF0A460B997C
:103240003032491E0B910A700028F4D10B9803A963
:10325000081A20300190600701D5009801E0012094
:1032600000900199884203DD01460198081A00E0A8
:1032700000200024009006E002A8109A005D0F993B
:103280009047641C761C0C988442F5DB04E0109A8D
:1032900030200F999047761C0099481E0090002915
:1032A000F5DC08E00B980B990078491C0B91109AFB
:1032B0000F999047761C0199481E01900029F1DC76
:1032C0006D1C28E70928010010B504460420FEF70C
:1032D00051FA0148046010BD0000002013B5044BF2
:1032E000012269460348FEF741FC00981CBD00001E
:1032F000FFFF00005001002010B5002823D0124B22
:103300000022001F196803E0814203D80A46496879
:103310000029F9D1002A0AD01368841A9C4204D1EA
:10332000006818181060104602E0506000E0186055
:10333000002907D002680B1A934203D10B68D218F8
:1033400002604968416010BD34000020FDF77AFC3E
:10335000FFF7A2FBFEF7E0FCFEF7CAFCFEF766FDF6
:10336000FEF784FDFEF740FD2020FFF7ADFF0B4880
:10337000006801681022114301606422084907486F
:10338000FEF796FB07A0FFF78DFEFDF733F9084C1B
:1033900020780028FCD0FFF751FEF9E7500100200B
:1033A000EC000020455F50617065720D0A0000005E
:1033B00005000020F0B50B30C108C900144F0026ED
:1033C000144A0FE003688B420BD38B4205D95C1A79
:1033D0004318456830C3083B00E04368136002C0EF
:1033E00004E0021D10680028ECD13046002803D10B
:1033F0003868002801D00020F0BD064A0648106059
:10340000064A121AD208D20044C001203860D7E719
:1034100038000020340000207C02002078160020B4
:103420000000000000000000010203040607080974
:10343000030406080C1018203000000000010203ED
:10344000042255AA55AA55AA110000000000000048
:10345000001E1E1E1E1E1E1E1E0100000000001863
:103460000000000000000000000000000000000F4D
:1034700001000000000000000000000000C4E300A4
:10348000000000000000001DC01D803BFF3B073F07
:10349000777E76F870FBFEFBFE3F773F773E733812
:1034A0007038703BE00000000000000000000000E9
:1034B000000000000000000000000000000000000C
:1034C00000000000000000000000000000000000FC
:1034D00000000000000000000000000000000000EC
:1034E00000000000000000000000000000000000DC
:1034F00000000000000000000000000000000000CC
:1035000000000000000000000000000000000000BB
:1035100000000000000000000000000000000000AB
:10352000000000BAC300000000000000003000737B
:10353000FF700FFE1E7E3C6E38EE30EFFFFC307CDD
:103540003038303E307E30E030C1F0000000000006
:10355000000000000000000000000000000000006B
:10356000000000000000000000000000000000005B
:10357000000000000000000000000000000000004B
:10358000000000000000000000000000000000003B
:10359000000000000000000000000000000000002B
:1035A000000000000000000000000000000000001B
:1035B000000000000000000000000000000000000B
:1035C000000000000000000000CAF700000000003A
:1035D000000000300E300E3FEE30EEFCFF76CE776E
:1035E000FE7BFEFFFEF3DEF3CE37EE3E6E3C0E308A
:1035F0003E0000000000000000000000000000008D
:1036000000000000000000000000000000000000BA
:1036100000000000000000000000000000000000AA
:10362000000000000000000000000000000000009A
:10363000000000000000000000000000000000008A
:10364000000000000000000000000000000000007A
:10365000000000000000000000000000000000006A
:10366000000000000000000000000000000000DD7D
:10367000AE00000000000000000670FFFF3E703842
:10368000007FFFE000FFFC3B8C39CCFFFF739C7197
:10369000DC7FFF001C01F8000000000000000000BB
:1036A000000000000000000000000000000000001A
:1036B000000000000000000000000000000000000A
:1036C00000000000000000000000000000000000FA
:1036D00000000000000000000000000000000000EA
:1036E00000000000000000000000000000000000DA
:1036F00000000000000000000000000000000000CA
:1037000000000000000000000000000000000000B9
:103710000000000000C5C90000000000000000E03B
:103720001FFFF03E000E1FCFFBFFF83FFF0FFF7F94
:10373000D87FDC6FCEEDFFFDF7F9C0000000000080
:103740000000000000000000000000000000000079
:103750000000000000000000000000000000000069
:103760000000000000000000000000000000000059
:103770000000000000000000000000000000000049
:103780000000000000000000000000000000000039
:103790000000000000000000000000000000000029
:1037A0000000000000000000000000000000000019
:1037B00000000000000000000000006100000000A8
:1037C000000000000000000000000000003E006754
:1037D0000007800F807F80E380E780E7807F8000A4
:1037E00000000000000000000000000000000000D9
:1037F00000000000000000000000000000000000C9
:1038000000000000000000000000000000000000B8
:1038100000000000000000000000000000000000A8
:103820000000000000000000000000000000000098
:103830000000000000000000000000000000000088
:103840000000000000000000000000000000000078
:103850000000000000000000000000000000000068
:1038600000620000000000000000007000700070A6
:103870000070007F007B8071C071C071C071C07129
:10388000C07B807F000000000000000000000000FE
:103890000000000000000000000000000000000028
:1038A0000000000000000000000000000000000018
:1038B0000000000000000000000000000000000008
:1038C00000000000000000000000000000000000F8
:1038D00000000000000000000000000000000000E8
:1038E00000000000000000000000000000000000D8
:1038F00000000000000000000000000000000000C8
:103900000000000000000063000000000000000054
:103910000000000000000000003F007300F000E025
:1039200000E000E000F00073003F00000000000035
:103930000000000000000000000000000000000087
:103940000000000000000000000000000000000077
:103950000000000000000000000000000000000067
:103960000000000000000000000000000000000057
:103970000000000000000000000000000000000047
:103980000000000000000000000000000000000037
:103990000000000000000000000000000000000027
:1039A00000000000000000000000000000410000D6
:1039B0000000000000000000000E001F001F001F9C
:1039C000003B803B8071807FC071C0E0E0E0E0E0C0
:1039D000E000000000000000000000000000000007
:1039E00000000000000000000000000000000000D7
:1039F00000000000000000000000000000000000C7
:103A000000000000000000000000000000000000B6
:103A100000000000000000000000000000000000A6
:103A20000000000000000000000000000000000096
:103A30000000000000000000000000000000000086
:103A40000000000000000000000000000000000076
:103A50000000000000000000000000000000000066
:103A60000000000000000000000000000000000056
:103A700000000000000C000C000C000C000C000CFE
:103A8000000C000C0000000C000000000000000012
:103A9000000000000000001DC01DC0088008800854
:103AA0008000000000000000000000000000000096
:103AB00000000000000D800D800D800D803FC01BB8
:103AC000003FC01B001B001B001B0000000000008B
:103AD00000000004001F803180318038001E000F7C
:103AE000000380318031803F0004000400000000AA
:103AF000000000000018002400240018C007801EE9
:103B000000318002400240018000000000000000FF
:103B1000000000000000000F001800180018000C42
:103B2000001D80370033001D8000000000000000F1
:103B30000000000000000007000700020002000271
:103B40000000000000000000000000000000000075
:103B500000000000000300030006000E000C000C33
:103B6000000C000C000E0006000300030000000023
:103B70000000000000180018000C000600060006F7
:103B8000000600060006000C001C001800000000E3
:103B90000000000000060006003FC03FC00F001FED
:103BA00080198000000000000000000000000000FC
:103BB0000000000000000000000400040004003FBA
:103BC0008004000400040000000000000000000069
:103BD00000000000000000000000000000000000E5
:103BE0000000000000060004000C000800080000AF
:103BF0000000000000000000000000000000003F86
:103C00008000000000000000000000000000000034
:103C100000000000000000000000000000000000A4
:103C200000000000000C000C00000000000000007C
:103C300000000000C000C0018001800300030006F6
:103C4000000C000C001800180030003000000000CC
:103C500000000000000E001B0031803180318031F7
:103C600080318031801B000E000000000000000049
:103C7000000000000006003E0006000600060006E8
:103C8000000600060006003FC00000000000000023
:103C900000000000000F0019803180318003000611
:103CA000000C00180030003F800000000000000001
:103CB00000000000003F006180018003001F00033E
:103CC000800180018061803F000000000000000052
:103CD0000000000000070007000F000B001B00138E
:103CE0000033003F8003000F800000000000000050
:103CF00000000000001F801800180018001F0011AD
:103D0000800180018021801F000000000000000071
:103D1000000000000007801C001800300037003948
:103D2000803180318019800F000000000000000009
:103D300000000000007F00430003000600060006AC
:103D40000006000C000C000C000000000000000049
:103D500000000000001F003180318031801F0031E1
:103D6000803180318031801F0000000000000000A1
:103D700000000000001E0033003180318033801DC0
:103D8000800180030007003C0000000000000000EC
:103D900000000000000000000000000C000C00000B
:103DA00000000000000C000C0000000000000000FB
:103DB00000000000000000000000000300030000FD
:103DC00000000000000600040008000800000000D9
:103DD0000000000000000000C003000400180060A4
:103DE0000018000400030000C000000000000000F4
:103DF000000000000000000000000000007FC00084
:103E0000007FC00000000000000000000000000073
:103E10000000000000000060001800040003000023
:103E2000C003000400180060000000000000000053
:103E3000000000000000001F003180318001800779
:103E4000000C000C0000000C00000000000000004E
:103E500000000000000E00110021002100270029B1
:103E60000029002700200011000E000000000000C3
:103E7000000000000000003F000F00090019801939
:103E8000801F8030C030C079E000000000000000DA
:103E9000000000000000007F003180318031803F51
:103EA000003180318031807F000000000000000080
:103EB000000000000000001F4030C0604060006053
:103EC000006000604030801F000000000000000023
:103ED000000000000000007F00318030C030C030A2
:103EE000C030C030C031807F000000000000000002
:103EF000000000000000007F803080308032003EF3
:103F0000003200308030807F800000000000000020
:103F1000000000000000007FC03040304032003E12
:103F2000003200300030007C000000000000000083
:103F3000000000000000001E803180608060006092
:103F40000067C0618031801F000000000000000099
:103F5000000000000000007BC03180318031803FD4
:103F6000803180318031807BC00000000000000083
:103F7000000000000000003FC0060006000600062A
:103F8000000600060006003FC00000000000000020
:103F9000000000000000001FC00300030003000336
:103FA000006300630063003E0000000000000000AA
:103FB000000000000000007BC03180330036003C70
:103FC000003E003300318079C00000000000000096
:103FD000000000000000007E001800180018001803
:103FE000001840184018407FC0000000000000008A
:103FF00000000000000000E0E060C071C07BC06A0B
:10400000C06EC064C060C0FBE000000000000000A3
:104010000000000000000073C0318039803D803511
:1040200080378033803180798000000000000000FC
:10403000000000000000001F00318060C060C06010
:10404000C060C060C031801F0000000000000000A0
:10405000000000000000007F00318031803180319D
:10406000803F00300030007E0000000000000000B3
:10407000000000000000001F00318060C060C060D0
:10408000C060C060C031801F000CC01F80000000F5
:10409000000000000000007F003180318031803E50
:1040A000003300318031807CE0000000000000001F
:1040B000000000000000001F803180318038001FA8
:1040C000000380318031803F0000000000000000CC
:1040D000000000000000007F804C804C804C800C71
:1040E000000C000C000C003F00000000000000006D
:1040F000000000000000007BC03180318031803141
:10410000803180318031801F0000000000000000FD
:10411000000000000000007BC0318031801B001BCC
:10412000001B000A000E000E00000000000000004E
:1041300000000000000000FBE060C064C06EC06EC4
:10414000C02A803B803B80318000000000000000DE
:10415000000000000000007BC031801B000E000E3C
:10416000000E001B0031807BC0000000000000003A
:104170000000000000000079E030C019800F000648
:10418000000600060006001F80000000000000007E
:10419000000000000000003F802180230006000492
:1041A000000C00188030803F8000000000000000FC
:1041B000000000000007800600060006000600065A
:1041C000000600060006000600060007800000004A
:1041D00000000030003000180018000C000C000631
:1041E00000030003000180018000C000C000000047
:1041F00000000000001E0006000600060006000683
:1042000000060006000600060006001E0000000072
:1042100000000004000A000A001100208020800035
:10422000000000000000000000000000000000008E
:10423000000000000000000000000000000000007E
:10424000000000000000000000000000000000006E
:1042500000FFE00800040002000000000000000071
:10426000000000000000000000000000000000004E
:1042700000000000000000000000001F000180019D
:10428000801F80318033801DC000000000000000CE
:10429000000000000070003000300037003980302E
:1042A000C030C030C039807700000000000000003E
:1042B00000000000000000000000001E803180604F
:1042C000806000608031801F00000000000000005E
:1042D00000000000000380018001801D80338061A8
:1042E000806180618033801DC000000000000000FC
:1042F00000000000000000000000001F003180608E
:10430000C07FC0600030C01F8000000000000000BF
:10431000000000000007E00C000C003F800C000CC7
:10432000000C000C000C003F8000000000000000AA
:1043300000000000000000000000001DC03380618C
:10434000806180618033801D80018001801F0000BA
:10435000000000000070003000300037003980316C
:10436000803180318031807BC0000000000000007F
:1043700000000000000600060000001E0006000607
:10438000000600060006003FC0000000000000001C
:1043900000000000000600060000003F00030003CC
:1043A000000300030003000300030003003E0000BD
:1043B0000000000000700030003000378036003C04
:1043C000003C003600330077C00000000000000011
:1043D00000000000001E00060006000600060006A1
:1043E000000600060006003FC000000000000000BC
:1043F00000000000000000000000007F8036C03692
:10440000C036C036C036C076E000000000000000B4
:10441000000000000000000000000077003980313B
:10442000803180318031807BC000000000000000BE
:1044300000000000000000000000001F003180604C
:10444000C060C060C031801F00000000000000009C
:1044500000000000000000000000007700398030FC
:10446000C030C030C039803700300030007C0000E0
:1044700000000000000000000000001DC03380614B
:10448000806180618033801D800180018007C000D1
:1044900000000000000000000000007B801CC0182D
:1044A000001800180018007F000000000000000045
:1044B00000000000000000000000001F8031803C70
:1044C000001F00038031803F00000000000000005A
:1044D00000000000001800180018007F00180018E5
:1044E000001800180018800F0000000000000000F5
:1044F00000000000000000000000007380318031E7
:10450000803180318033801DC00000000000000039
:1045100000000000000000000000007BC03180317E
:10452000801B001B000E000E0000000000000000B9
:104530000000000000000000000000F1E060C06426
:10454000C06EC03B803B8031800000000000000056
:1045500000000000000000000000007BC01B000EF7
:10456000000E000E001B007BC000000000000000D9
:10457000000000000000000000000079E030C019D9
:104580008019800B000F00060006000C003E0000A2
:1045900000000000000000000000003F80218003B8
:1045A000000E00180030803F800000000000000076
:1045B000000000000006000C000C000C000C000CB9
:1045C0000018000C000C000C000C0006000000009D
:1045D00000000000000600060006000600060006B7
:1045E00000060006000600060006000600000000A7
:1045F00000000000000C0006000600060006000691
:1046000000030006000600060006000C0000000083
:10461000000000000000000000000000001800245E
:104620008003000000000000000000000000000007
:10463000000000C4E30000000000000000000000D3
:10464000000000000000000000000000000000006A
:104650000001C1C00001E3E00003E3C00003C78024
:104660000003C7FFFF078FFFFF078F000F0F1E001C
:104670001E0F3C1E1E1F3C1E3E1F181E3C3F001EF0
:104680001C7F001E007F079E70FF079EF0EF0F9EAD
:10469000786F0F1E780F0F1E3C0F1E1E3C0F1E1E44
:1046A0001E0F3C1E1E0F3C1E1F0F7C1E0F0F781E80
:1046B0000E0F001E000F001E000F003C000F07FC35
:1046C000000F07F8000000000000000000000000DC
:1046D000000000000000000000BAC300000000005D
:1046E00000000000000000000000000000000000CA
:1046F0000000000F0000000F0000000F07FFFE0F7A
:1047000007FFFE0F00003E1E0000FCFFF801F0FF57
:10471000F803E01E7807C01E780F803C780F003C3D
:10472000780F003C780F003C780F003C7FFFFF784B
:10473000FFFFFF78F00F0078F00F003DE00F001F43
:10474000E00F000FE00F0007C00F0007E00F0007A9
:10475000F00F000FF80F001E7C0F003C380F0078A0
:10476000000F00F003FF006001FE000000000000E9
:10477000000000000000000000000000000000CE6B
:10478000A200000000000000000000000000000087
:10479000000000000000000000030701E00787019F
:1047A000E0070701C00FF779C01EF77BC01EF77B3B
:1047B000803CF77BFF78F77BFFF8F77F9EF7FFFFE2
:1047C0009E67FFFF9E07007F9C0F000F9C1E001F2F
:1047D0009C1E7FFFBC3E7FF3FC3E0003FC7E00017D
:1047E000F8FE0001F8FE7FE1F8DE7FE1F81E78E0D8
:1047F000F01E78EEF01E78FFF01E78FDF81E79FBB3
:10480000FC1EF1F7BC1EF0EF9E1FE00F0F1EC01E36
:104810000F1E000C07000000000000000000000058
:104820000000000000C8ED000000000000000000D3
:10483000000000000000000000000003C078000736
:10484000807800078078000780F0000F00F000FFFC
:10485000FFFFFFFFFFFFFF1E03C01F1E03C01E1F41
:10486000E78F3E3DE78F3C3DEF0F7C3DE70F7879CA
:10487000E00F0079E00E007FFE0E007FFE1F0001BA
:10488000E01F0001E01F0001E01F8001E01F800128
:10489000E03F8001FF3FC00FFF7BC0FFF079E0F9F0
:1048A000E0F1F001E1F0F001E3E0F801E7C07C01A4
:1048B000FF803F01FF001F01EC000E000000000020
:1048C0000000000000000000000000D1C500000052
:1048D00000000000000000000000000000000000D8
:1048E0000000000000000077000000FF007FFCF7E0
:1048F000807FFDE3C001C1E3C001C3C1803DC7FFAC
:10490000FF39C7FFFF39CF838079DF838079FF8349
:104910008079DF838071C383807FFFFFFE7FFFFF8D
:10492000FE03C3838007C3838007C383800FC383D1
:10493000800FC383801FC3FFFE1DC3FFFE3DC383E3
:104940008079C38380F1C38380F1C3838061C38393
:104950008001C3FFFF03C3FFFF1FC380001F8380CD
:104960000000000000000000000000000000000047
:1049700000BADA00000000000000000000000000A3
:104980000000000000000000000000000000000027
:104990000000001FFFFFFC1FFFFFFC1E03C03C1EAA
:1049A000C3C73C1FE3C7BC1EF3CF3C1EFBDF3C1E4E
:1049B0007BDE3C1E33DC3C1E03C03C1FFFFFFC1FA4
:1049C000FFFFFC1E03C03C0003C0000003C0003F0B
:1049D000FFFFFC3FFFFFFC0003C0000003C000001E
:1049E00003C000FFFFFFFFFFFFFFFF000000001CF0
:1049F0003870703E78F8F83C7C787C7C3C3C3EF823
:104A00003E3C1FF01C180E000000000000000000DB
:104A100000000000000000B4CB0000000000000017
:104A20000000000000000000000000000000000086
:104A3000000000000000783C0000783C0000783C5A
:104A40000000783C0000783C0000783C0C3C783C4E
:104A50001E3C783C3F3C783CF83C7FFDF03C7FFFBF
:104A6000E03C783F803C783E003C783C003C783C21
:104A7000003C783C003C783C003C783C003C783C76
:104A8000003C783C0E3C783C0F3C783C0F3C79FC79
:104A90000F3C7FFC0F3FFF3C0F3FF03E1EFF001F0F
:104AA000FEF0000FFC00000000000000000000000D
:104AB00000000000000000000000000000D7D60049
:104AC00000000000000000000000000000000000E6
:104AD00000000000038000000780000003C0000009
:104AE00003E0000001E0007FFFFFFE7FFFFFFE7894
:104AF00000001E7800001E7800001E7800001E7B5B
:104B0000FFFFDE03FFFFC000000FC000003F0000FA
:104B1000007E000001F8000001E0000001E000FF5D
:104B2000FFFFFFFFFFFFFF0001E0000001E00000CA
:104B300001E0000001E0000001E0000001E00000F1
:104B400003E0000003C00000FFC00000FF80000081
:104B50000000000000000000000000000000000055
:104B6000000000CCE5000000000000000000000094
:104B70000000000000000000000000000000000035
:104B80000003C03C0003C03C0003C03C0007803C65
:104B90000007803C0007803C000FFFFFFF0FFFFF76
:104BA000FF1F01FE001F01FF003F01FF003F03FF49
:104BB000007F03FF807F07BF80FF07BFC0EF0F3D6F
:104BC000C0CF0F3DE00F1E3DE00F1E3CF00F3C3C00
:104BD000780F7C3C7C0FF83C3E0FF7FFDF0FE7FFC0
:104BE000CF0FC03C060F003C000F003C000F003C04
:104BF000000F003C000F003C00000000000000001F
:104C0000000000000000000000CFC2000000000013
:104C10000000000000000000000000000000000094
:104C20000000000000000000000000FFFFFFFFFF89
:104C3000FFFFFF000F8000000F8000000F800000CA
:104C40000F8000000F8000000F8000000FE00000C8
:104C50000FF800000FFC00000FBF00000F9F800046
:104C60000F87E0000F83F0000F80F8000F807C00BA
:104C70000F8038000F8000000F8000000F800000C0
:104C80000F8000000F8000000F8000000F800000E8
:104C90000F8000000F8000000F8000000000000067
:104CA000000000000000000000000000000000B64E
:104CB000D400000000000000000000000000000020
:104CC00000000000000000000000000000000000E4
:104CD0007800000078000000787FFC00787FFC00FE
:104CE00078003C0078003FFFFF303FFFFF783C003A
:104CF000783C3800783E7800781E78C0780F79E0EC
:104D0000780FF0F07807F0F87803F0787801E03C5D
:104D10007803F03E7803F0187807F8007807FC0075
:104D2000780F3E00781F1E00783E1F00787C0E0032
:104D3000F8F80000F0F0003FF060003FE0000000F5
:104D40000000000000000000000000000000000063
:104D50000000000000D3A6000000000000000000DA
:104D600000000000000000000000000001C0000082
:104D700003E0000001E0000001F0000000F0001F6F
:104D8000FFFFFF1FFFFFFF1E0000001E0000001EB0
:104D900001E0781E01E0781EE1E0781FF1F0F81ED6
:104DA000F0F0F01EF0F0F01EF8F0F01E78F1F01EBA
:104DB00078F9E01E7879E01E7C7BE01E3C7BC01E0B
:104DC0003C7BC01E3C7BC03C3E07803C1C07803CBB
:104DD0000007803C000F0078000F007BFFFFFFF30F
:104DE000FFFFFFF000000060000000000000000076
:104DF0000000000000000000000000B5C40000003A
:104E000000000000000000000000000000000000A2
:104E1000000000000003803C0007C03E0007803C0B
:104E20000007807C000F0078007FFE7FFE7FFEFF82
:104E3000FE781EF01E781FE01E781FE01E781FC04F
:104E40001E781FC01E781FF01E781EF81E781E7C6C
:104E50001E7FFE3C1E7FFE1E1E781E1F1E781E0F2C
:104E60009E781E079E781E071E781E001E781E0064
:104E70001E781E003E781E003C781E003C7FFE001F
:104E80003C7FFE007C781E3FF8781E3FF00000005B
:104E90000000000000000000000000000000000012
:104EA00000B5E3000000000000000000000000006A
:104EB00000000000000000000000000003C000002F
:104EC00003C0000003C0000003C0000003FFFF0098
:104ED00003FFFF0003C0000003C0000003C0000088
:104EE00003C0000FFFFFF80FFFFFF80F0000780F5F
:104EF0000000780F0000780F0000780F0000780F96
:104F00000000780FFFFFF80FFFFFF80F0000780098
:104F10000000000C3838301E7C78783E3C78783CB5
:104F20003C3C3C7C3E3C3EF81E3C1EF01E1E1F706E
:104F30001E1C0E0000000000000000000000000029
:104F400000000000000000D5F30000000000000099
:104F50000000000000000000000000000000000051
:104F60000000003C00000078007FF078007FF078BF
:104F70000079FFFFFF79FFFFFF79E1E00079E1E0D1
:104F8000007BC1EF807BC3CF807BC3CF807F87CF87
:104F9000807F878F807F878F807BCF0F807BCFFF45
:104FA000FE79EFFFFE79E00F8078E00F8078F00F58
:104FB0008078F00F8078F00F8078FFFFFF79FFFF97
:104FC000FF7FE00F807FC00F8078000F8078000F98
:104FD0008078000F8078000F8078000F800000003C
:104FE00000000000000000000000000000CEAA0049
:104FF00000000000000000000000000000000000B1
:105000000000000000000000000000000780000E0B
:105010000780001F0780000F87800007C7800001FE
:10502000E7800000C78000000780007FFFFFFC7F53
:10503000FFFFFC0007803C000F803C000F003C009D
:105040000F003C000F603C001FF03C001E783C004D
:105050003E3C3C003C3E3C007C1F3C00780F3C004A
:10506000F8063C01F0003C03E0007C07C0007C0F28
:105070008000781F0000F83E00FFF07C00FFE03861
:105080000000000000000000000000000000000020
:10509000000000CAF700000000000000000000004F
:1050A0000000000000000000000000000000000000
:1050B000000F0000380F0000380F0000380F3FF8D5
:1050C000380F3FF8380F007838FFE07FFFFFE07FB0
:1050D000FF0F0070380F18F0381F3CF0381F1CFE0F
:1050E000381FDEFE383FEFEF383FFFEF383FF7E77E
:1050F000B87F67C7B87F03C3B8FF07E038EF07E0A2
:1051000038EF0FF038CF1FF0380F1E78380F3C7C87
:10511000380F783C380FF838380F6000780F000FE0
:10512000F80F0007F00F0000000000000000000072
:10513000000000000000000000DDAE0000000000E4
:10514000000000000000000000000000000000005F
:10515000000000003C1E00003C1E00003C1E00FF42
:10516000FFFFFFFFFFFFFF003C1E0007BC1E000704
:105170008000000FFFFFFC0FFFFFFC1E0000003C43
:105180000000003C0000007FFFFFF0F7FFFFF0375A
:105190008380F00787C0F00783F0F00700E0F0FF9E
:1051A000FFFFFFFFFFFFFF0F0F00E00F0F81E00E7B
:1051B00003E1E01E01C1E01FFFFFFE1FFFFFFE0035
:1051C0000001E0000003C00000FFC00000FF8000FD
:1051D000000000000000000000000000000000C50A
:1051E000C9000000000000000000000000000000F6
:1051F0000000000000000000000000000038000077
:105200003E7C003FFE3F3FFFF01FBFE00007BC00B9
:1052100000033C0000003C003C003C0FFE703DFFE2
:10522000F8F83DFF007C3DE7803F3DE7801F3DE70C
:105230008E0E3DE79F003DE7FE0039E7F80039E3B9
:10524000F01C39E3C01E79E3C01E79E1E01E79E16C
:10525000E03C79E0F03C79E0F83CF1E07C3CF1E3C3
:105260007C7DF1EF3F79E1FE1F7BE1F80E7BC3E02F
:10527000007981C000000000000000000000000074
:1052800000000000004100000000000000000000DD
:10529000000000000000000000000000000000000E
:1052A00000000000000000007C000000FC00000086
:1052B000FE000000FE000001FF000001FF000001F1
:1052C000EF000003EF800003CF800007C7800007D6
:1052D000C7C0000787C0000F83E0000F83E0000F06
:1052E00001E0001FFFF0001FFFF0003FFFF8003E4D
:1052F00000F8003C00F8007C007C007C007C00781A
:10530000003C00F8003E00F8003E000000000000F5
:10531000000000000000000000000000000000008D
:10532000000000000000000000000061000000001C
:10533000000000000000000000000000000000006D
:10534000000000000000000000000000000000005D
:10535000000000000000000000000000000000004D
:1053600000000000000000000007F800001FFE0021
:10537000003FFE00003E3F0000381F0000000F000D
:1053800000000F000003FF00001FFF00003F8F0020
:10539000007C0F00007C0F0000781F00007C1F00C5
:1053A000007E7F00007FFF00003FFF00000FCF0066
:1053B00000000000000000000000000000000000ED
:1053C00000000000000000000000000000000000DD
:1053D000006200000000000000000000000000006B
:1053E0000000000000000000000000000000003C81
:1053F0000000003C0000003C0000003C0000003CBD
:105400000000003C0000003C0000003C0000003CAC
:10541000FE00003DFF80003FFFC0003F8FC0003F07
:1054200007E0003E03E0003E03E0003C01E0003CFA
:1054300001E0003C01E0003C03E0003E03E0003EF0
:1054400003E0003F07C0003F8FC0003FFF80003FE8
:10545000FF00003CFC000000000000000000000015
:10546000000000000000000000000000000000003C
:1054700000000000000000630000000000000000C9
:10548000000000000000000000000000000000001C
:10549000000000000000000000000000000000000C
:1054A00000000000000000000000000000000000FC
:1054B000000000000001FC000007FE00001FFE00CD
:1054C000003F8600003E0000007C0000007C0000E1
:1054D000007C00000078000000780000007C0000E4
:1054E000007C0000007C0000003E0000003F8600C1
:1054F000001FFE00000FFE000003FC000000000083
:10550000000000000000000000000000000000009B
:1055100000000000000000000000000000CEA2001B
:10552000000000000000000000000000000000007B
:1055300000000000000000030701E0078701E0070A
:105540000701C00FF779C01EF77BC01EF77B803CB8
:10555000F77BFF78F77BFFF8F77F9EF7FFFF9E67EB
:10556000FFFF9E07007F9C0F000F9C1E001F9C1ECC
:105570007FFFBC3E7FF3FC3E0003FC7E0001F8FE93
:105580000001F8FE7FE1F8DE7FE1F81E78E0F01E12
:1055900078EEF01E78FFF01E78FDF81E79FBFC1EF9
:1055A000F1F7BC1EF0EF9E1FE00F0F1EC01E0F1E76
:1055B000000C0700000000000000000000000000D8
:1055C000000000D1A9000000000000000000000061
:1055D00000000000000000000000000000000000CB
:1055E00000000000001FFFFFF81FFFFFF80003C0CE
:1055F000000003C0007FFFFFFE7FFFFFFE7803C0B7
:105600001E7803C01E7FFFFFFE7FFFFFFE0003C06A
:10561000000003C00007FFFFE007FFFFE00003C03A
:1056200000000000001FFFFFF81FFFFFF800000050
:1056300078000000781FFFFFF81FFFFFF800000050
:105640007800000078000000783FFFFFF83FFFFF80
:10565000F8000000780000000000000000000000DA
:10566000000000000000000000B5E700000000009E
:10567000000000000000000000000000000000002A
:105680000000000007800000078000000780000085
:105690000780007FFFFFF87FFFFFF8780780F8782A
:1056A0000780F8780780F8780780F8780780F8781E
:1056B0000780F87FFFFFF87FFFFFF8780780F87812
:1056C0000780F8780780F8780780F8780780F878FE
:1056D0000780F87FFFFFF87FFFFFF87807800E78DC
:1056E00007800F0007800F0007800F0007801F0052
:1056F00007801E0003FFFE0001FFFC000000000009
:10570000000000000000000000000000000000D7C2
:10571000D3000000000000000000000000000000B6
:105720000000000000000000000000000000000079
:10573000001FFFFFF81FFFFFF8000001F80000073F
:10574000E000000FC000001F8000003E000000FCD1
:10575000000001F8000003E0000003E0000003E0A7
:1057600000FFFFFFFFFFFFFFFF0003E0000003E07B
:10577000000003E0000003E0000003E0000003E09D
:10578000000003E0000003E0000003E0000003E08D
:10579000000003E0000003C00001FFC00000FF8024
:1057A00000000000000000000000000000000000F9
:1057B000000000000000000044656275673A205058
:1057C00061696E745F44726177537472696E675F6A
:1057D000454E20496E707574206578636565647305
:1057E00020746865206E6F726D616C2064697370DF
:1057F0006C61792072616E67650D0A00446562759F
:10580000673A205061696E745F44726177436972D0
:10581000636C6520496E7075742065786365656496
:105820007320746865206E6F726D616C206469739B
:10583000706C61792072616E67650D0A000000006E
:1058400060580008000000203C000000DE30000826
:105850009C5800083C0000203C1A0000EE30000874
:105860000000000000000000000000000000200018
:105870007D34000809000B0010001500533A0008A1
:105880000B001000334600081B0018002000290000
:0C5890000000000000000000000000000C
:04000005080000C12E
:00000001FF
