:020000040800F2
:1000000020060020010100087F1C0008B91A000822
:100010007D1C00080F020008FD24000800000000FD
:10002000000000000000000000000000BD200008EB
:100030007502000800000000851F0008BF200008AE
:100040001B0100081B0100081B0100081B01000820
:100050001B0100081B0100081B0100081B01000810
:100060001B0100081B0100081B0100081B01000800
:100070001B0100081B010008110200081D020008F6
:100080001B0100081B0100081B0100081B010008E0
:100090001B0100081B0100081B0100081B010008D0
:1000A0001B010008592100081B0100081B01000862
:1000B0001B0100081B0100081B0100081B010008B0
:1000C0001B0100081B0100081B0100081B010008A0
:1000D0001B010008E92400081B0100081B0100089F
:1000E0001B0100081B0100081B010008DFF80CD0F1
:1000F00000F06CF800480047912A00082006002014
:100100000648804706480047FEE7FEE7FEE7FEE7B1
:10011000FEE7FEE7FEE7FEE7FEE7FEE71121000847
:10012000ED000008202A04DB203A21FA02F0002129
:10013000704721FA02F3D040C2F1200291400843F7
:1001400019467047D2B201E000F8012B491EFBD2DC
:1001500070470022F6E710B513460A4604461946D2
:10016000FFF7F0FF204610BD2DE9F05F05460020A7
:1001700092469B4688460646814640241BE0284618
:10018000414647462246FFF7CDFF53465A46C01A1E
:10019000914110D311461846224600F029F82D1A35
:1001A00067EB01084F4622460120002100F020F8AD
:1001B00017EB00094E41201EA4F10104DFDC484684
:1001C00031462A464346BDE8F09F0000064C074DE5
:1001D00006E0E06840F0010394E807009847103417
:1001E000AC42F6D3FFF786FFE82B0008082C000886
:1001F000202A04DB203A00FA02F1002070479140E7
:10020000C2F1200320FA03F3194390407047FEE740
:10021000014800F0A1B80000D8010020014800F01A
:100220009BB800009401002030B590F840500124A4
:10023000AC40C56B6C60046863604368102B036856
:1002400003D099600068C26030BD9A600068C160E8
:1002500030BD00000A4610B50146054801F0EAFB32
:10026000002803D0BDE8104000F005B810BD000024
:10027000540100207047704710B590F821100022FB
:10028000022905D00421816380F82020012010BDBF
:1002900001680B6823F00E030B6001680B6823F004
:1002A00001030B6090F84030C46B012101FA03F3A5
:1002B000636080F8211080F82020104610BD0000F7
:1002C00010B590F821100024022903D00421816385
:1002D00001243DE001680A6822F00E020A6001680C
:1002E0000A6822F001020A601A4A0168914201D1AB
:1002F000012121E0174A1432914201D110211BE063
:10030000144A2832914201D1891515E0114A3C3234
:10031000914201D189140FE00E4A5032914202D12C
:100320004FF4803108E00B4A6432914202D14FF41D
:10033000801101E04FF08071064A083A51600121B6
:1003400080F82110002180F82010416B01B188470E
:10035000204610BD080002402DE9F05FC16B0C681B
:1003600001680B68D0F840C0042202FA0CF2494D33
:10037000DFF824A1494E4A4FDFF828B1DFF828E121
:1003800022422CD05A072AD50A68920603D40A685A
:1003900022F004020A600168A94201D1042219E096
:1003A000514501D1402215E0B14202D14FF48062A3
:1003B00010E0B94202D14FF480420BE0594502D11E
:1003C0004FF4802206E0714502D14FF4800201E033
:1003D0004FF080622F4908394A60C16A3BE04FF014
:1003E000020808FA0CF818EA040F4FF000094FF061
:1003F000010235D05FEA837832D50B689B0605D4BD
:100400000B6823F00A030B6080F821200168A942E1
:1004100001D1022219E0514501D1202215E0B1425B
:1004200002D14FF4007210E0B94202D14FF40052F1
:100430000BE0594502D14FF4003206E0714502D17C
:100440004FF4001201E04FF00072124908394A607F
:1004500080F82090816A00291AD0BDE8F05F084733
:10046000082505FA0CF5254212D01B0710D50B689C
:1004700023F00E030B6090F84010C36B02FA01F1F9
:100480005960826380F8212080F82090016BE2E7B8
:10049000BDE8F09F080002401C000240300002400E
:1004A00044000240580002406C00024030B528B3BE
:1004B00008C8134914221944B1FBF2F18900C16341
:1004C00010498163022141771A6843F6F0718A432B
:1004D000D0E900142143D0E902452C4321430469AB
:1004E0002143446921438469214311431960002158
:1004F0004163012242770177084630BD012030BDBB
:10050000F8FFFDBF0000024070B5044690F82000DF
:10051000002501280CD0012084F8200094F82160E7
:100520000020012E06D084F820000225284670BD48
:10053000022070BD022684F82160A063206806684E
:1005400026F0010606602046FFF76EFEE06A0028EE
:100550002068016802D041F00E0106E021F004019C
:1005600001602068016841F00A01016020680168AB
:1005700041F001010160D9E72DE9F84FDFF8B891AA
:10058000002409F1040A0AF1040B23460F270BF19A
:10059000040EC9E00125A5402A40AA427DD1674E3C
:1005A000D1F804C0ACEB0608B44532D014DCBCF181
:1005B000030F3AD009DCBCF1000F2AD0BCF1010FC7
:1005C0001CD0BCF1020F31D11DE0BCF1110F17D0CE
:1005D000BCF1120F2AD119E0B8F5881F19D006DC3A
:1005E000B8F5803F15D0B8F5801F1FD111E0B8F5E0
:1005F000001F0ED0B8F5041F18D10AE0CB6815E033
:10060000CB681B1D12E0CB6808330FE0CB680C33BE
:100610000CE08B682BB1012B4FF0080303D0456130
:1006200004E0042302E0056100E00023FF2A01D872
:10063000064601E000F104064FEA840501D9A5F160
:100640002005D6F8008007FA05FC28EA0C0803FA12
:1006500005F548EA0508C6F800804D68ED0062D54A
:10066000374DAE6946F00106AE61AD6924F0030670
:1006700005F001050095334D06EB050CDCF808503C
:10068000A607360F07FA06F825EA0805DFF8B8804E
:10069000404503D14FF0000817E044E0DFF8AC809C
:1006A000404502D14FF001080FE0DFF8A48040453B
:1006B00002D14FF0020808E0DFF89880404502D1EF
:1006C0004FF0030801E04FF0040808FA06F848EA82
:1006D0000508CCF808804D68D9F80060ED034D4658
:1006E00001D5164300E096432E604D68DAF80060AD
:1006F000AD03554601D5164300E096432E604D6884
:10070000DBF80060ED025D4601D5164300E096433C
:100710002E604D68DEF80060AD02754601D51643C7
:1007200000E096432E60641C0D682A46E5407FF485
:1007300031AFBDE8F88F0000000401400000111047
:10074000001002400000014000080140000C014080
:100750000010014000140140C26821EA02030A406F
:1007600043EA0241016170470AB10161704709041F
:10077000FBE700000148806870470000300000205F
:10078000024881680278114481607047300000207F
:10079000074810B5016841F010010160032000F026
:1007A00075F8002000F006F800F024F8002010BDD5
:1007B0000020024070B50D4D04464FF47A71287840
:1007C000B1FBF0F00A490968B1FBF0F000F02AFD36
:1007D00048B9102C07D200222146501E00F036F8EE
:1007E00000206C6070BD012070BD00003000002052
:1007F0003C0000200C4808B5816941F0010181618D
:10080000816901F001010091C16941F08051C1612C
:10081000C06900F0805000900448416821F0E06118
:1008200041F00071416008BD00100240000001402D
:10083000002809DB00F01F020121914040098000DF
:1008400000F1E020C0F8001170470000F0B40E4B3A
:100850001B680C46C3F30223C3F10705042D00D91E
:100860000425191D072901D2002300E0DB1E012603
:1008700006FA05F1491E214099409E40761E164019
:100880003143F0BC01F080BE0CED00E0064900F001
:10089000070208684FF6FF03184040EA0220034AA7
:1008A00010430860704700000CED00E00000FA05FE
:1008B0002DE9F0470F46050061D0434E306800F047
:1008C0000700B84209D2306820F007003843306092
:1008D000306800F00700B84251D128683B4C8107CE
:1008E00012D5400703D5606840F4E0606060287866
:1008F000000703D5606840F4605060606068A968D4
:1009000020F0F000084360602878C00728D06868AD
:10091000012810D02168022810D0890700292EDA7A
:10092000616821F0030101436160FFF723FF804606
:1009300041F288390DE021688903EFE78901EDE78D
:10094000FFF718FFA0EB0801494502D90320BDE8D5
:10095000F0876068696800F00C00B0EB810FEFD1A0
:10096000306800F00700B8420BD9306820F007006B
:1009700038433060306800F00700B84201D00120F1
:10098000E5E72878400705D56068E96820F4E0606D
:10099000084360602878000706D56068296920F45C
:1009A000605040EAC100606000F038F86168084AB1
:1009B000C1F30311515CC84006490860064800684D
:1009C000FFF7F8FE0020C2E70020024000100240BE
:1009D000D02B00083C0000203400002004480549CA
:1009E00000684968044AC1F30221515CC84070475D
:1009F0003C00002000100240E02B0008044805499C
:100A000000684968044AC1F3C221515CC84070477C
:100A10003C00002000100240E02B000812A185B02D
:100A20000FC98DE80F0014A0144A006804905168A3
:100A3000134801F00C03042B10D0082B0ED1C1F386
:100A40008343C9031DF803000AD5516804AAC1F302
:100A50004041515C0A4A5043B0FBF1F005B0704789
:100A600008494843FAE7000002030405060708099D
:100A70000A0B0C0D0E0F10100102000000100240B6
:100A800000127A0000093D002DE9F84F040070D0F3
:100A90002078C04DC00749D06868C0F381000128A4
:100AA00007D06868C0F38100022809D16868C003D4
:100AB00006D52868800339D560680028E7D035E07E
:100AC0006068B0F5803F0BD010B1B0F5A02F11D009
:100AD000286820F480302860286820F4802002E014
:100AE000286840F480302860606890B1FFF742FECB
:100AF00006460AE0286840F480202860F0E700BF3E
:100B0000FFF738FE801B642873D828688003F7D568
:100B10000CE0FFF72FFE064605E000BFFFF72AFEB8
:100B2000801B6428F0D828688003F7D420789A4E78
:100B300080074FF001094FF0000839D5686810F0C0
:100B40000C0F07D06868C0F38100022809D16868DB
:100B5000C00306D42868800714D52069012808D16D
:100B600010E02069B0B1C6F80090FFF703FE074619
:100B700005E00AE1FFF7FEFDC01B0228C4D8286883
:100B80008007F7D52868616920F0F80040EAC100C5
:100B900028600DE0C6F80080FFF7ECFD074604E092
:100BA000FFF7E8FDC01B022823D828688007F7D488
:100BB000207800072CD57948A169D9B1C0F80090F8
:100BC000FFF7D8FD074604E0FFF7D4FDC01B02285D
:100BD0000FD8686A8007F7D571484FF4FA5100685A
:100BE000B0FBF1F0009000BF0098411E0091FAD2D6
:100BF0000EE080E0C0F80080FFF7BCFD074604E08F
:100C0000FFF7B8FDC01B022875D8686A8007F7D4C3
:100C10002078400760D5E8690027C00008D4E8695B
:100C200040F08050E861E869012700F080500090B2
:100C30005C480168C90513D40168834641F480719A
:100C40000160FFF797FD824606E000BFFFF792FDC7
:100C5000A0EB0A0064284ED8DBF80000C005F5D5EB
:100C6000E06801280AD008B1052813D0286A20F0CE
:100C700001002862286A20F0040002E0286A40F09F
:100C800001002862E06841F2883B98B1FFF772FDED
:100C900082460BE0286A40F004002862EEE700BFBD
:100CA000FFF768FDA0EB0A0159455AD8286A80076A
:100CB000F6D50CE0FFF75EFD824605E0FFF75AFD32
:100CC000A0EB0A0159454CD8286A8007F6D41FB119
:100CD000E86920F08050E861E06988B36968C1F391
:100CE0008101022944D00228C6F8608004D0FFF7B1
:100CF00041FD044638E034E0FFF73CFD074604E0E0
:100D0000FFF738FDC01B02282BD828688001F7D4D4
:100D1000206AB0F5803F05D16868A16820F40030F2
:100D200008436860D4E908010843696821F4741134
:100D300008436860C6F86090FFF71CFD044606E0B3
:100D400025E000BFFFF716FD001B022809D8286820
:100D50008001F7D51BE000BFFFF70CFD001B022848
:100D600002D90320BDE8F88F28688001F4D40EE092
:100D70000128F7D06868226A00F48031914204D1DA
:100D8000616A00F47010884201D00120EAE7002077
:100D9000E8E70000001002400000424280044242A6
:100DA0003C0000200070004070B5040009D0606A6B
:100DB000002540B125616561A56294F8510040B1FC
:100DC0000CE0012070BD6068B0F5827FF4D0E56171
:100DD000F2E784F85050204600F040F8022084F8F2
:100DE00051002068016821F040010160A08821893C
:100DF00000F4827001F404410843A18901F4006108
:100E00000843217C01F002010843217D01F001012A
:100E10000843218B01F400710843217F01F0380160
:100E2000084394F8201001F080010843218D01F45B
:100E30000051084321680860A069042101EA1040BC
:100E4000216848602068C16921F40061C16165655D
:100E5000012084F85100002070BD000030B585B03D
:100E60000024009401940294039400681549884278
:100E700025D11548C16941F48041C161C16901F4BE
:100E800080410491816941F00801816180690F4DC1
:100E900000F0080004904FF42040009002200190E0
:100EA0000320039069462846FFF766FB4FF4804015
:100EB000CDE90004694628460294FFF75DFB05B0C2
:100EC00030BD00000038004000100240000C01401E
:100ED0002DE9F84F044640680025984616460F460F
:100EE0004FF0040BB0F5827F01D1A06888B194F86F
:100EF0005000012818D0012084F85000FFF73AFC78
:100F0000814694F851004FF0000A01280ED00225C6
:100F100082E084F851B013460A462046CDF800809E
:100F200000F083F8BDE8F88F0220FBE7002F72D0B5
:100F3000002E70D084F851B0C4F854A0A763A687DF
:100F4000E687C4F830A0A4F834A0A4F836A0C4F80A
:100F500040A0C4F844A0A068B0F5004F09D12068B3
:100F6000016821F0400101602068016821F480419E
:100F7000016020680168490603D4016841F040011E
:100F80000160E068D8B139E020688168C90709D0FC
:100F9000007BA16B0870A06B401CA063E08F401E1B
:100FA000E0870CE0FFF7E6FBA0EB0901414503D326
:100FB000B8F1FF3F03D036E0B8F1000F33D0E08F37
:100FC0000028E1D11DE020688168C90709D0C06808
:100FD000A16B0880A06B801CA063E08F401EE0879F
:100FE0000CE0FFF7C7FBA0EB0901414503D3B8F1C3
:100FF000FF3F03D017E0B8F1000F14D0E08F0028B6
:10100000E1D14A464146204600F0BDFF08B120200C
:101010006065606D00B10125012084F8510084F8FD
:1010200050A028467EE70325F6E72DE9F84F044651
:1010300090F8500000270A9E1D4692468B464FF0BE
:10104000010901280ED0012084F85000FFF792FB1F
:10105000804694F85100616801280CD0B1F5827F78
:1010600007D102E00220BDE8F88FA16809B9042881
:1010700001D00227C2E0BBF1000F27D0BAF1000F68
:1010800024D01DB394F85100042802D0052084F820
:10109000510000206065C4F838A0E587A587C4F832
:1010A00030B0E586A5862064606420680168490642
:1010B00003D4016841F040010160E068B0F5006FC1
:1010C000606805D0E8B3012D46D07FE0012795E0A8
:1010D00008B1012D39D1206B21680088C860206BD0
:1010E000801C2063E08E401EE0862EE02068816830
:1010F00089070FD5E18E69B1B9F1010F0AD1216BD2
:101100000988C160206B801C2063E08E401EE08651
:101110004FF0000920688168C9070CD0E18F51B1F8
:10112000C068A16B0880A06B801CA063E08F401E8C
:10113000E0874FF00109FFF71DFBA0EB0800B0426C
:1011400000E009E001D3701C50D1E08E0028CDD121
:10115000E08F0028CAD13FE0206B21680078087337
:10116000206B401C2063E08E401EE0862EE020684D
:10117000816889070FD5E18E69B1B9F1010F0AD1F4
:10118000216B09780173206B401C2063E08E401EA8
:10119000E0864FF0000920688168C9070CD0E18F14
:1011A00051B1C068A16B0870A06B401CA063E08FB8
:1011B000401EE0874FF00109FFF7DCFAA0EB0800C2
:1011C000B04202D3701C01D010E07EB1E08E002846
:1011D000CDD1E08F0028CAD142463146204600F0EA
:1011E00000FF28B101272020606507E0032705E004
:1011F000A06818B92068C16880680090012084F850
:101200005100002084F8500038462CE74FF0E021D0
:101210000428086903D020F004000861704740F0FA
:101220000400FAE710B5401EB0F1807F01D3012021
:1012300010BD4FF0E02460610F21601701F0A4F9A8
:101240000020A06107202061002010BD704770477A
:1012500070B590F83C20012A26D0012480F83C404B
:10126000022280F83D2003685A689D6822F07006CB
:101270000A6832435A600D4B02689A4208D0B2F1B4
:10128000804F05D00A4B9A4202D00A4B9A4204D1B1
:10129000496825F080031943916080F83D400021A2
:1012A00080F83C10084670BD022070BD002C014043
:1012B000000400400008004010B5040003D094F87A
:1012C0003D0010B107E0012010BD002084F83C0073
:1012D000204600F01FF8022084F83D00211D206800
:1012E00000F040FF012084F8460084F83E0084F8B6
:1012F0003F0084F8400084F8410084F8420084F8FC
:10130000430084F8440084F8450084F83D00002040
:1013100010BD000008B500680649884208D106489B
:10132000816941F400618161806900F4006000908E
:1013300008BD0000002C01400010024090F83D1054
:10134000012901D001207047022180F83D10016879
:10135000CA6842F00102CA6000680B49884208D09E
:10136000B0F1804F05D00949884202D0084988422F
:1013700004D1816801F00701062903D0016841F01A
:101380000101016000207047002C01400004004072
:101390000008004070B5044690F83C00012817D0C2
:1013A000012584F83C50022084F83D0020688268C2
:1013B00022F0770222F47F4282600868502830D001
:1013C0000DDC20284DD005DC98B310283BD148E037
:1013D000022070BD302844D0402834D139E0602844
:1013E00028D0702806D0B0F5805F2CD0B0F5005F13
:1013F00029D10AE0CB68D1E90121206800F0E8FE9C
:101400002068816841F0770109E0CB68D1E90121CA
:10141000206800F0DDFE2068816841F48041816031
:1014200011E0CA684968206800F0E4FE5021206895
:1014300007E016E0CA684968206800F0ECFE602109
:10144000206800F0CFFE84F83D50002084F83C0076
:1014500070BDCA684968206800F0CCFE4021206851
:10146000EFE7226801461046EBE7704770B5044687
:10147000006801694FF00005C943890715D4C168A8
:10148000C943890711D4E91E016101202077206832
:1014900080698007204602D0FFF7E7FF04E000F0F4
:1014A00098F8204600F096F8257720680169C9432E
:1014B000490717D4C168C943490713D46FF0040121
:1014C0000161022020772068806910F4407F204667
:1014D00002D0FFF7CAFF04E000F07BF8204600F0DE
:1014E00079F8257720680169C943090716D4C168CE
:1014F000C943090712D46FF0080101610420207765
:101500002068C0698007204602D0FFF7AEFF04E0E4
:1015100000F05FF8204600F05DF82577206801694B
:10152000C943C90617D4C168C943C90613D46FF0AB
:1015300010010161082020772068C06910F4407F05
:10154000204602D0FFF791FF04E000F042F8204669
:1015500000F040F8257720680169C943C90708D120
:10156000C168C943C90704D1891E0161204600F042
:1015700033F820680169C943090609D4C168C94321
:10158000090605D46FF0800101612046FFF75EFE79
:1015900020680169C943490609D4C168C94349069D
:1015A00005D46FF040010161204600F027F8206863
:1015B0000169C94389060BD4C168C943890607D4A8
:1015C0006FF0200101612046BDE87040FFF73FBE8B
:1015D00070BD7047704700000549884207D1054932
:1015E0000888401C088004490888401C088070470F
:1015F000A8000020280000202A000020704710B515
:1016000004460068416994F83920C1F3C011212AC9
:101610000BD151B1416921F080014161206B08B1CA
:10162000FEF72AFE204600F082FE2068416994F809
:101630003A20C1F38011222A0BD151B1416921F026
:1016400040014161606B08B1FEF716FE204600F0D4
:1016500060FE002010BD704770B502680446106837
:10166000D168536910F00F0F52D003F0010501F457
:1016700090762E435FD0C20705D0CA0503D5E26B32
:1016800042F00102E263420705D5DA0703D0E26BBC
:1016900042F00202E263820705D5DA0703D0E26B6B
:1016A00042F00402E263020707D501F020022A4358
:1016B00003D0E26B42F00802E263E26B002A33D00F
:1016C000800604D5880602D5204600F039FE206841
:1016D0004069E16BC0F38010090700D428B32046AD
:1016E00000F017FE2068416949061AD5416921F0CA
:1016F00040014161606BA0B12D494163606BFEF711
:10170000DFFD002810D0606B416BBDE870400847DA
:10171000830610D58B060ED52046BDE8704000F03C
:101720000FBE2046FFF797FF70BD2046FFF793FFDF
:101730000020E06370BD03062BD50B0629D594F875
:1017400039002128F6D1A068B0F5805F01D1206969
:10175000B0B1206A411C2162216800784860E08CA9
:10176000401E0004000CE084E4D12068C16821F030
:101770008001C1602068C16841F04001C16070BD56
:10178000206A0088C0F308005060206A801C206234
:10179000E5E74006F3D54806F1D5D168204621F0AB
:1017A0004001D160202184F8391000F083F970BD28
:1017B0003B22000870B5040004D094F839000025DD
:1017C00010B106E0012070BD84F83850204600F0CA
:1017D00023F8242084F839002068C16821F40051DE
:1017E000C160204600F0F2FD2068016921F49041BB
:1017F00001612068416921F02A0141612068C168C6
:1018000041F40051C160E563202084F8390084F878
:101810003A00002070BD0000F0B585B000240646F7
:1018200000940194029403940068294988424CD1A1
:101830002848816941F480418161816901F48041D6
:101840000491816941F0040181618069224D00F0B9
:10185000040004904FF400700090022001900320D7
:10186000039069462846FEF787FE2815CDE9000457
:10187000694628460294FEF77FFE194D17488027D7
:10188000C5E90004C5E902472C616C61AC612846DA
:10189000EC61FEF70BFE08B1FEF7EDFC75636E62BE
:1018A0000F4D0E484435143801C5102091C50C4821
:1018B00045F8104944306C61AC61EC61FEF7F6FD0F
:1018C00008B1FEF7D8FC35636E6205B0F0BD0000CC
:1018D000003801400010024000080140580002405A
:1018E00094010020F8B5044690F83A0020283CD135
:1018F000C1B3BAB394F83800012836D0012084F877
:101900003800A162A2850025E563222084F83A0010
:10191000636B17489862636B1648D862636B16480E
:101920001863606B134645630846666B2168024680
:101930003046091DFEF7E8FD206801684168009106
:1019400084F83850C16841F48071C16020684169F1
:1019500041F0010141612068416941F0400141616C
:101960000020F8BDFFE70120FBE70220F9E70000B7
:1019700095220008D12200084B22000870477047CA
:101980002DE9F843044690F839001F4616460D46E7
:1019900020284CD1C5B1BEB194F83800012846D0FA
:1019A000012084F838004FF00008C4F83C80212062
:1019B00084F83900FEF7DEFEA6848146E684A0683E
:1019C000B0F5805F03D004E00120BDE8F883206912
:1019D00028B12E465FF0000584F838800EE000261E
:1019E000FAE78021204600F04DFDA0B9AEB116F80F
:1019F000010B21684860E08C401EE084E08C4B467F
:101A00004FF0000200970028EBD14FF04001204634
:101A100000F038FD30B10320D7E735F8020BC0F3F2
:101A20000800E6E7202084F839000020CDE70220F6
:101A3000CBE7000070B5044690F83900202830D17B
:101A400069B362B394F8380001282AD0012084F8E1
:101A500038002162A284E2840025E563212084F815
:101A60003900236B10489862236B1048D862236BAF
:101A70000F481863206B134645632668206B321DA0
:101A8000FEF742FD21686FF04000086084F838508E
:101A90002068416941F080014161002070BD012052
:101AA00070BD022070BD0000DB2200080923000881
:101AB0004B22000870477047FEE70000054808B554
:101AC000416941F001014161406900F0010000906D
:101AD00008BD0000001002402DE9F04385B000264B
:101AE00028480096019602960396816941F01001FC
:101AF0008161816901F010010491816941F0200147
:101B00008161816901F020010491816941F0040142
:101B10008161816901F004010491816941F008014A
:101B200081618069DFF8609000F008000490012274
:101B300002214846FEF718FE0122DFF85080170305
:101B400039464046FEF710FE02250124CDE9005437
:101B500069464846CDE90245FEF70EFDCDE9007421
:101B600069464046CDE90245FEF706FD4FF40140C7
:101B7000CDE90006694602944846FEF7FDFC05B033
:101B8000BDE8F0830010024000080140000C014055
:101B9000104810B50E4901604FF482714160002178
:101BA00002228160C0E903121202C0E9051230224C
:101BB000C2618022C0E9082181620A21C162FFF767
:101BC000F3F8002803D0BDE81040FEF754BB10BD69
:101BD000003800405000002010B586B0002418489E
:101BE00000940194029403940494144905940160B0
:101BF0004721C0E9011440F2E731C0E90314802114
:101C0000C0E90541FFF758FB08B1FEF734FB4FF47C
:101C10008050009069460A48FFF7BCFB08B1FEF708
:101C20002AFB049404A906480594FFF711FB002839
:101C300001D0FEF720FB06B010BD0000002C0140D3
:101C4000A80000200C4810B50A4901604FF4E131AA
:101C50004160002181600C22C160C0E904128161F1
:101C6000C161FFF7A7FD002803D0BDE81040FEF7D3
:101C700002BB10BD0038014054010020FEE7704750
:101C80000149085C7047000044000020002004491E
:101C900002460A54401CC0B20928FAD3704700001B
:101CA0004400002001B582B00120ADF80000074AD1
:101CB0000020012302F8010FFF20009002A9044830
:101CC000FFF7B3F9102000F0BBFE0EBD440000206A
:101CD0005000002070B5FFF7D9FF00F083F80B48E3
:101CE0000B4BB0F803100A481B1D41800020012453
:101CF00013F8105000F101006D1E04FA05F20A42BB
:101D0000C0B202D01028F3D3002070BD44000020E0
:101D10000400002070B5184D4FF480540022214675
:101D20002846FEF721FD102000F08AFE0120FFF773
:101D3000B9FF4320FFF7B6FF0020FFF7B3FF0120F4
:101D4000FFF7B0FF0020FFF7ADFF0020FFF7AAFF6D
:101D50000020FFF7A7FF0020FFF7A4FF0020FFF7F8
:101D6000A1FF012221462846FEF7FEFCBDE8704097
:101D7000102000F065BE0000000C014070B5184D49
:101D80004FF48054002221462846FEF7EDFC102037
:101D900000F056FE0120FFF785FF4320FFF782FF8A
:101DA0000020FFF77FFF0020FFF77CFF5A20FFF79E
:101DB00079FF5A20FFF776FF5A20FFF773FF5A206A
:101DC000FFF770FF5A20FFF76DFF012221462846DA
:101DD000FEF7CAFCBDE87040102000F031BE0000E4
:101DE000000C01407CB500208DF800000120ADF80A
:101DF00004000503164E002229463046FEF7B4FCC7
:101E0000144C2078FFF74EFF6078FFF74BFF02205D
:101E10008DF80000104C0FE09DF80000FF23211802
:101E200001220E48FFF754F8102000F009FE9DF83B
:101E30000000401C8DF800009DF800000928EBD33D
:101E400002B029463046BDE870400122FEF78CBC46
:101E5000000C01400400002044000020500000203D
:101E600010B500F00FF800F00DF800F00BF8FFF7D8
:101E700051FF00F02FF800F05DF8BDE81040FFF7CB
:101E80007DBF000070B5124D4FF4805400222146F2
:101E90002846FEF769FC102000F0D2FD0120FFF774
:101EA00001FF4220FFF7FEFE0020FFF7FBFE0020AF
:101EB000FFF7F8FE0020FFF7F5FE01222146284635
:101EC000FEF752FCBDE87040102000F0B9BD0000E4
:101ED000000C014070B5164D4FF48054002221468D
:101EE0002846FEF741FC0120FFF7DCFE4420FFF707
:101EF000D9FE0020FFF7D6FE0120FFF7D3FEEE202B
:101F0000FFF7D0FE0020FFF7CDFE0020FFF7CAFE4E
:101F10000020FFF7C7FE0020FFF7C4FE0122214684
:101F20002846FEF721FCBDE87040102000F088BD77
:101F3000000C014070B5124D4FF480540022214630
:101F40002846FEF711FC102000F07AFD0120FFF773
:101F5000A9FE4D20FFF7A6FE0020FFF7A3FE0020FC
:101F6000FFF7A0FE0120FFF79DFE01222146284633
:101F7000FEF7FAFBBDE87040102000F061BD0000E4
:101F8000000C01407047F8B5044640684FF4827376
:101F9000984217D1A0684FF48065B0F5004F01D08A
:101FA000A8420FD12068066826F0400606606068E7
:101FB000984207D1A068A84204D100920B460022A3
:101FC000012103E000920B4600228021204600F010
:101FD00019F8002804D0606D40F0200060650320EF
:101FE000F8BD38B50B46009204460022802100F06F
:101FF00009F8002804D0606D40F0200060650320DF
:1020000038BD00002DE9F8431E4691468846044637
:10201000089DFEF7AFFB401B351AFEF7ABFB0746EA
:1020200025480068C0F3CB30684338E0701C37D0D7
:10203000FEF7A0FBC01BA84203D215B1009860B305
:102040002CE02068416821F0E00141606068B0F553
:10205000827F0BD1A068B0F5004F02D0B0F5806F41
:1020600004D12068016821F040010160A06AB0F548
:10207000005F09D12068016821F4005101602068E7
:10208000016841F400510160012084F851000020F2
:1020900084F850000320BDE8F8830025401E00901E
:1020A0002068816838EA010004D000214945BDD18B
:1020B0000020F0E70121F9E73C0000207047FEF71F
:1020C0005FBB30B58FB028216846FEF742F8142177
:1020D0000AA8FEF73EF801210804CDE9001000240B
:1020E000029402250491CDE907504FF4E0100990C5
:1020F0006846FEF7C9FC0F20CDE90A056802CDE964
:102100000C4002210AA80E94FEF7D2FB0FB030BD9E
:102110000D48016841F00101016041680B4A11401E
:10212000416001680A4A11400160016821F4802180
:102130000160416821F4FE0141604FF41F0181609C
:102140000449C00308607047001002400000FFF817
:10215000FFFFF6FE08ED00E00148FFF787B9000039
:10216000A8000020F0B50268164B174C174D4FF031
:102170008047984205D0B84203D0A04201D0A8427F
:1021800003D122F070064A683243984205D0B84223
:1021900003D0A04201D0A84203D122F44074CA68FF
:1021A00022434C6922F08002224302608A68C262A4
:1021B0000A688262984201D1096901630121416183
:1021C000F0BD0000002C0140000400400008004069
:1021D00010B5846842EA032224F47F440A43224370
:1021E000826010BD826822F070020A4342F007014B
:1021F0008160704710B5036A046A24F00104046228
:10220000846924F0F00444EA021423F00A020A4329
:102210008461026210BD10B5036A23F010030362EB
:102220008369046A23F4704343EA023224F0A00372
:1022300043EA01118261016210BD10B5406A0021BC
:10224000C185C184FFF707FA10BD70B5446A2068E4
:10225000406994F83910C0F3C0100025212904D139
:1022600018B1E584204600F062F82068406994F8CF
:102270003A10C0F38010222904D118B1E585204618
:1022800000F047F8E06B40F01000E0632046FFF7F5
:10229000E2F970BD10B50146406A0968096889060F
:1022A00013D40021C1850168CA6822F48072CA6013
:1022B00001684A6922F001024A6101684A6922F014
:1022C00040024A61202180F83A10FFF757FB10BD09
:1022D00010B5406AFFF753FB10BD10B50146406AC8
:1022E0000968096889060CD40021C18401684A691B
:1022F00022F080024A610068C16841F04001C1607B
:1023000010BDFFF7D7FB10BD10B5406AFFF7D3FB38
:1023100010BD0168CA6822F49072CA6001684A69F7
:1023200022F001024A61202180F83A1070470168CA
:10233000CA6822F0C002CA60202180F839107047B4
:1023400010B590F83A10222901D0022010BD826801
:102350004FF480539A4201D1016921B1816A9A42B6
:102360001BD04AB10AE00268816A5268C2F30802CF
:102370000A80816A891C08E0026972B102685268A9
:1023800002F07F020A70816A491C8162C18D491E78
:102390000904090CC18503D016E002685268F1E710
:1023A0000168CA6822F02002CA600168CA6822F483
:1023B0008072CA6001684A6922F001024A612021E4
:1023C00080F83A10FFF7DAFA002010BD70B5044625
:1023D00000680169E26821F44051114301612169FB
:1023E000A0680843616908432168CA6841F20C6328
:1023F0009A430243CA6020684169A26921F440718E
:10240000114341611E492068884202D1FEF7F6FA65
:1024100001E0FEF7E3FA00EBC00101EB0012606897
:1024200064218000B2FBF0F3B3FBF1F36FF0180608
:102430007343B2FBF0F5B2FBF0F605EB83053223F4
:1024400003EB0515B5FBF1F5B6FBF1F605F0F0056C
:1024500005EB0615B2FBF0F6B2FBF0F0B0FBF1F0C5
:102460006FF01802504306EB800003EB0010B0FB46
:10247000F1F0216800F00F002844886070BD000072
:10248000003801402DE9F041984617460E460446B3
:10249000069D1DE0681C1BD02DB1FEF76BF9A0EB6B
:1024A0000800A84214D92068C16821F4D071C16025
:1024B0002068416921F001014161202084F8390040
:1024C00084F83A00002084F838000320BDE8F08149
:1024D0002068006836EA000004D00020B842D9D055
:1024E0000020F3E70120F9E710B500F01FF8BDE880
:1024F00010400148FFF7B0B854010020FEE700008B
:1025000010B5084C21780848FDF7A4FE0020207083
:1025100060700549BDE81040642201F16400FFF7D6
:10252000E1B900002C000020F00000200C4808B5A4
:1025300000680168C1F3001100290FD001684068EC
:1025400000900748FFF75BF8054840300068406896
:10255000C0F16401034801700121417008BD000011
:10256000540100202C0000200FB4054B10B503A926
:10257000044A029800F028F810BC5DF814FB000033
:10258000792A0008400000200907090E002804DB12
:1025900000F1E02080F80014704700F00F0000F117
:1025A000E02080F8141D704702E008C8121F08C11F
:1025B000002AFAD170477047002001E001C1121FC4
:1025C000002AFBD1704700002DE9FF4F8DB00F4668
:1025D0000546002606E025280BD0DDE90F129047BE
:1025E0006D1C761C28780028F5D111B03046BDE866
:1025F000F08F0024A246A1460122EC4900E00443EA
:1026000015F8013F203B02FA03F00842F7D1287881
:102610002A2810D06FF02F022878A0F13001092964
:1026200014D80AEB8A0102EB410144F0020400EBEA
:10263000010A6D1CF0E701CF5FEA000A03D544F4FC
:102640000054CAF1000A44F002046D1C28782E28B8
:1026500017D115F8010F44F004042A280ED06FF0AA
:102660002F022878A0F1300109290AD809EB890145
:1026700002EB410100EB01096D1CF2E757F8049BE6
:102680006D1C28786C280FD006DC4C2817D06828E1
:102690000DD06A2814D104E0742810D07A280FD104
:1026A0000DE044F400140AE044F4801401E044F422
:1026B00040146978814202D104F580146D1C6D1CB0
:1026C0002A786E2A1FD00CDC632A31D004DC002A61
:1026D0008BD0582A11D1A3E0642A68D0692A0CD182
:1026E00065E0732A2ED004DC6F2A73D0702A04D1DF
:1026F0009BE0752A6FD0782A6ED01046DDE90F1264
:102700009047761C50E1C4F30250022806D00328FB
:1027100009D0042801CF09D0066045E101CFF117A7
:10272000C0E9006140E101CF06803DE106703BE178
:1027300017F8040B8DF8000000208DF80100EB461F
:10274000012003E057F804BB4FF0FF3061074FF062
:10275000000102D40DE008F10101884649450FDA75
:102760008045F8DB1BF808100029F4D108E008F1D7
:10277000010188468142FADB1BF808100029F6D1D6
:10278000DDE90F23AAEB08008146214600F036F967
:10279000304400EB080604E0DDE90F121BF8010BE2
:1027A0009047B8F10108F7D221464846F7E00A21E0
:1027B000C4F302534FF0000B0891022B04D001CF59
:1027C000C117032B09D00AE0FF1D27F00707F7E820
:1027D000020108E032E01FE020E000B2C117042B44
:1027E00001D140B2C117031E71F1000307DA4FF0A7
:1027F000000CD0EB0C006CEB01012D2302E0230553
:1028000004D52B238DF82430012303E0E30701D006
:102810002023F7E7984658E00A2110E010210EE047
:1028200010204FF0000B08900CE010214FF0000B2F
:1028300044F004044FF00809089103E008214FF028
:10284000000B0891C4F30253022B04D001CF0021E6
:10285000032B06D006E0FF1D27F00707F7E802016B
:1028600003E080B2042B00D1C0B24FF00008230770
:102870002BD5702A07D0DDF820C08CF0100C5CEA54
:102880000B0C05D00EE040238DF82430012308E026
:1028900050EA010306D030238DF824308DF825202E
:1028A00002239846DDF820C08CF0080C5CEA0B0C83
:1028B0000BD150EA010301D1630706D530238DF80F
:1028C00024304FF00108A9F10109582A04D038A298
:1028D0000B9208AA0A920BE03AA2F9E75B46089A23
:1028E000FDF742FC0B9B9B5C0A9A521E0A921370E6
:1028F00050EA0102F2D10A98ADEB000000F1200B82
:10290000600702D524F4803401E04FF00109D94575
:1029100002DDA9EB0B0000E0002000EB0B014144BD
:102920000890AAEB010AE00306D4DDE90F23214653
:10293000504600F063F806444FF0000908E009A98A
:1029400011F80900DDE90F12904709F10109761C21
:10295000C145F4DBE0030CD5DDE90F2321465046E9
:1029600000F04CF8064404E0DDE90F1230209047F7
:10297000761C0899481E08900029F5DC08E00A98A2
:102980000A990078491C0A91DDE90F129047761CDC
:10299000BBF10001ABF1010BF1DC21465046DDE952
:1029A0000F2300F019F806446D1C1BE609280100EE
:1029B00030313233343536373839616263646566B5
:1029C0000000000030313233343536373839414277
:1029D00043444546000000002DE9F041044600252F
:1029E0001E461746880404D405E039462020B04727
:1029F0006D1C641EF9D52846BDE8F0812DE9F04133
:102A0000044600251E469046C80301D5302700E045
:102A10002027880404D505E041463846B0476D1CA0
:102A2000641EF9D52846BDE8F081000010B50446C3
:102A30000420FEF7EBFB0148046010BD00000020FD
:102A400070B54FF0E024002365690A49A26909685E
:102A500048432B38A1699142FCD002D2A2EB01027B
:102A600002E0A5EB0106324413440A468342F1D347
:102A700070BD00000000002013B54FF6FF73012267
:102A800069460248FEF77CFF00981CBD54010020F7
:102A90001FB5FDF77DFEFFF714FBFFF71DF8FFF7ED
:102AA0000DF8FFF7CFF8FFF797F8FFF771F800225E
:102AB00011460E20FDF7CAFE0E20FDF7B9FE0022DA
:102AC00011460F20FDF7C2FE0F20FDF7B1FE0022D8
:102AD00011461920FDF7BAFE1920FDF7A9FE0022C4
:102AE00011462520FDF7B2FE2520FDF7A1FE482066
:102AF000FFF79CFF23480068C16841F01001C160E6
:102B0000642221491F48FEF7EDFE20A0FFF72CFDAF
:102B1000FFF7A6F92048FEF711FC204C204E4FF499
:102B2000FA7800252088404504D302211D48FDF78E
:102B300013FE2580608832281ED31B4F3D607D60C8
:102B40003D72FFF7C7F803900620FFF799F8834618
:102B50000520FFF795F882460820FFF791F8814697
:102B60000720FFF78DF88DE8000E034679780FA057
:102B7000039AFFF7F9FC658030780028D2D0FFF780
:102B8000BFFCCFE754010020F0000020707332B288
:102B9000E2CAD40D0A000000A8000020280000208E
:102BA0002D00002000080140440000206D6F646586
:102BB0003A30782578206B3A25642020413A253335
:102BC000642025336420253364202533640D0A00F6
:102BD00000000000000000000102030406070809CD
:102BE0000000000001020304082C0008000000207F
:102BF00044000000A82500084C2C000844000020D8
:102C0000DC050000B82500080000000001420000BB
:102C10000100020003000400050006000700080090
:102C200009000A000B000C000D000E000F00100040
:102C30000000000000000000010000001000000083
:0C2C4000000000000024F4000000000070
:04000005080000ED02
:00000001FF
