:020000040800F2
:10000000D00A0020AD0100085F260008151E000878
:100010005D26000811090008292C000800000000D6
:100020000000000000000000000000006127000840
:10003000F10900080000000061260008632700089D
:10004000C7010008C7010008C7010008C701000870
:10005000C701000863260008F3090008C70100086B
:10006000C7010008C7010008C7010008C701000850
:10007000C7010008C7010008C7010008C701000840
:10008000C7010008C7010008C70100080000000000
:10009000000000000000000000000000C701000890
:1000A000C7010008C7010008C7010008C701000810
:1000B000C7010008C7010008C7010008C701000800
:1000C000C7010008C7010008C7010008C7010008F0
:1000D000C7010008E12B0008C7010008000000006C
:1000E000C7010008C7010008C701000800000000A0
:1000F000000000000000000000000000C701000830
:1001000000000000C7010008C7010008C70100087F
:1001100000000000000000000000000000000000DF
:10012000C7010008C701000815090008C701000839
:10013000C7010008000000000000000000000000EF
:10014000000000000000000000000000C7010008DF
:10015000C7010008C701000821090008C7010008FD
:10016000C7010008C70100080000000000000000EF
:10017000000000000000000000000000000000007F
:1001800000000000C701000800000000000000009F
:10019000C7010008C7010008DFF80CD000F0E4FA3E
:1001A0000048004785350008D00A002006488047EF
:1001B00006480047FEE7FEE7FEE7FEE7FEE7FEE74C
:1001C000FEE7FEE7FEE7FEE7E927000899010008E1
:1001D0002DE9F05F0546002092469B46884606467C
:1001E000814640241BE0284641464746224600F00F
:1001F0000BFA53465A46C01A914110D3114618467D
:10020000224600F0F2F92D1A67EB01084F4622460C
:100210000120002100F0E9F917EB00094E41201EF2
:10022000A4F10104DFDC484631462A464346BDE8D6
:10023000F09FD2B201E000F8012B491EFBD27047BB
:100240000022F6E710B513460A4604461946FFF7A2
:10025000F0FF204610BD2DE9FE4F804681EA0300E5
:10026000C00F0C46009021F0004123F00045B8EB90
:100270000200A94105D24046214690461C460B4645
:10028000024623F00040104347D0270DC7F30A0071
:10029000C3F30A510290401A019040286BDAC3F36D
:1002A000130040F4801B0098924620B10023D2EB4B
:1002B000030A63EB0B0B01985946C0F1400250460C
:1002C00000F093F906460D4650465946019A00F053
:1002D000ABF910EB08006141002487EA115284EA6F
:1002E000E7731A4340D0009A62B3019A012A4FEA99
:1002F000075215DC001B61EB02014FF0004202EADD
:100300000752CDE90042001C41F5801132462B46D0
:1003100000F0ABF903B0BDE8F08F40462146F9E7A5
:10032000001B61EB0201001C41F5801300185B41CA
:100330002018A2F5001747EB030140EAD570B61963
:100340006D4111E06D084FEA360645EAC0754FEA87
:100350000752001B61EB0201001C41F580114908A6
:100360004FEA30000019514132462B4603B0BDE838
:10037000F04F00F06BB90098012240000023D0EB51
:10038000020263EBE073009821464FEAE074B8EB99
:10039000000061EB0401E9E783F000435BE781F0D3
:1003A000004158E72DE9FE4F81EA030404F00044C0
:1003B00021F0004100944FF0000B23F0004350EA7D
:1003C00001045ED052EA03045BD0C3F30A54C1F3C4
:1003D0000A552C44A4F2F3340194A0FB0254C1F357
:1003E000130141F48011C3F3130343F4801301FBA1
:1003F000024400FB034E840A970A44EA815447EA08
:100400008357A4FB076802958D0A05FB07854FEA11
:10041000932C04FB0C542705029D4FEA065847EA2B
:100420001637B5EB08056EEB070C870E920E47EA00
:10043000811742EA8312A7FB0201B6EB0B0164EBC2
:1004400000042B0D43EA0C335E1844EB1C50DA46D3
:100450005146E7FB0201C5F313044FEA0B3343EAAD
:1004600014534FEA0432019C43EA0603A4F10C043E
:100470000294009CCDE900B400F0F7F803B0BDE8A9
:10048000F08F00200146F9E72DE9F04D81EA0304E1
:1004900004F0004B21F0004514464FF0000A23F011
:1004A000004150EA050220D054EA01021DD0C5F3F4
:1004B0000A570246C5F31303C1F31300C1F30A56EA
:1004C00040F4801543F48013A7EB0608101BD646B2
:1004D00008F2FD3873EB050002D308F1010801E0D2
:1004E00092185B41B8F1000F03DA00200146BDE825
:1004F000F08D00204FF48011064684460EE0171B55
:1005000073EB050705D3121B63EB050306434CEAA7
:10051000010C49084FEA300092185B4150EA01078C
:10052000EDD152EA030012D082EA040083EA050109
:10053000084305D0101BAB4106D20122002306E080
:1005400000224FF0004302E06FF0010253101AEB5B
:1005500006004CEB085110EB0A0041EB0B01BDE823
:10056000F04D00F073B80EB540F233410291002116
:10057000CDE900110A460B4600F077F803B000BD44
:1005800070B5C1F30A5201F000450024C1F3130114
:1005900040F2FF3341F480119A4201DA002070BD2D
:1005A00040F233439A42A2F2334203DC524200F05B
:1005B0002BF800E090402C43F1D0404270BD30B5A4
:1005C0000B46014600202022012409E021FA02F511
:1005D0009D4205D303FA02F5491B04FA02F52844AB
:1005E000151EA2F10102F1DC30BD202A04DB203A05
:1005F00000FA02F1002070479140C2F1200320FA76
:1006000003F3194390407047202A04DB203A21FA73
:1006100002F00021704721FA02F3D040C2F120021B
:100620009140084319467047202A06DBCB17203A31
:1006300041FA02F043EAE07306E041FA02F3D040E7
:10064000C2F12002914008431946704710B5141EAC
:1006500073F1000408DA401C41F1000192185B417B
:100660001A4301D120F0010010BD2DE9F04D924652
:100670009B4611B1B1FA81F202E0B0FA80F2203269
:100680009046FFF7B2FF04460F4640EA0A0041EAEF
:100690000B0153465A46084313D0114653EA010052
:1006A00019D0C8F140025046FFF7AEFF05460E468E
:1006B000504659464246FFF798FF084305D00120AF
:1006C00004E020463946BDE8F08D0020054346EAA7
:1006D000E0762C4337430A986305E40AA0EB080050
:1006E0000022FD0A44EA47540A3002D500200146A0
:1006F000E9E7010510196941DDE90845001969417B
:10070000BDE8F04DA2E7C1F30A52C1F3130140F274
:10071000FF3341F480119A4202DA0020014670470B
:1007200040F233439A42A2F2334202DC5242FFF7D4
:100730006BBFFFF75ABF000030B5041E71F1000413
:1007400004DB4FF00044404264EB0101141E73F1DE
:10075000000405DB1C464FF00043524263EB0403E8
:10076000994208BF904230BD064C074D06E0E06854
:1007700040F0010394E8070098471034AC42F6D3E8
:10078000FFF70EFD3C8F00085C8F00082DE9F04755
:10079000174E04464FF4805900224946304600F077
:1007A000F7FB44F4885500244FF400584FF4804779
:1007B00000223946304600F0EBFB280401D5012227
:1007C00000E000224146304600F0E2FB6D000122CD
:1007D0003946304600F0DCFB641CE4B2102CE7D351
:1007E00049463046BDE8F047012200F0D1BB000089
:1007F000000402402DE9F0419FED281B90462DEDAD
:10080000028B0C4605469FED238B53EC112B51ECCC
:10081000100BFFF739FE53EC182BFFF7C3FDFFF762
:10082000AFFEC0F30D06C0F38D3748F440484FF4D7
:10083000807000F037F84FF4045000F033F815B131
:10084000012D05D010E046F4804047F4804503E0D8
:1008500046F4004047F4004500F024F8284600F034
:1008600021F8404600F01EF8012C09D05CB1022CA2
:100870000CD12003BDEC028BBDE8F04100F012B8B2
:1008800042F20200F6E742F22800F3E7BDEC028BE9
:10089000BDE8F08100000040E17A64410000000002
:1008A00080842E412DE9F0470122184E054697031A
:1008B0003946304600F06CFB4FF4004900224946AF
:1008C000304600F065FB00244FF40058280401D5A1
:1008D000012200E000224146304600F059FB002290
:1008E0003946304600F054FB01223946304600F0CC
:1008F0004FFB641C6D00E4B2102CE7D34946304630
:10090000BDE8F047012200F043BB000000040240B4
:10091000FEE70000014800F0C9B80000E40500202F
:10092000014800F0C3B80000440600200168182305
:10093000CAB2103AB2FBF3F2054B6FF30901032A76
:100940009B5CC36500D9091D81650846704700009E
:100950001C8F000810B5014600208B698A6A4FF091
:10096000C07453B1B3F5005F15D072B1012A0CD039
:10097000022A0AD0032A09D104E01AB1012A06D0BA
:10098000022A03D1C96AC90100D5012010BDC96A74
:10099000A142FAD010BD002AF7D0012AF2D0022AD3
:1009A000F3D0032AF3D010BD30B50468256825F4D0
:1009B00080252560046863608368402B036803D04A
:1009C00099600068C26030BD9A600068C16030BD47
:1009D0000A4610B50146054801F0DAF9002803D0AF
:1009E000BDE8104000F008B810BD0000A4050020CC
:1009F0007047012000F0F6B970472DE9F041044638
:100A0000876D00F0CBFA064694F8350000250228E1
:100A100006D08020606584F834500120BDE8F08164
:100A20002068016821F0160101602068416921F009
:100A300080014161206C08B9A06C20B12068016878
:100A400021F0080101602068016821F001010160C6
:100A50000BE000F0A3FA801B052806D92020606572
:100A600004F8345F03206070D8E720680068C0078E
:100A7000EFD194F85C103F208840B86004F8345FF0
:100A8000012060700020C9E790F83510022903D0DA
:100A90008021416501207047052180F835100068EC
:100AA000016821F001010160002070472DE9F84341
:100AB00004464FF00009CDF8009063484FF41651FA
:100AC000A56D0068B0FBF1F72E6894F85C10082063
:100AD00000FA01F131420FD021680A6852070BD5A4
:100AE0000A6822F004020A6094F85C108840A8604A
:100AF000606D40F00100606594F85C104FF00108F3
:100B000008FA01F0304208D021684969090604D585
:100B1000A860606D40F00200606594F85C100420ED
:100B20008840304208D021680968890704D5A86048
:100B3000606D40F00400606594F85C1010208840FF
:100B4000304218D021680968090714D5A8602068C8
:100B50000168490304D50068000308D5A16C07E0CB
:100B60000168C90503D4016821F008010160216C06
:100B700009B12046884794F85C1020208840304214
:100B800031D021680968C9062DD5A86094F83500D0
:100B900005282068016806D0490347D5006800038E
:100BA0001DD4616C1CE021F01601016020684169D0
:100BB00021F080014161206C08B9A06C20B120684F
:100BC000016821F00801016094F85C103F20884022
:100BD000A86084F8349084F83580216D1FE0E16BC3
:100BE00009B120468847606D00282BD0606DC00792
:100BF00014D0052084F835002068016821F0010137
:100C000001600098401C0090B84203D8206800683A
:100C1000C007F6D184F8349084F83580E16C00295F
:100C200010D001B02046BDE8F04308470168C9056F
:100C3000D5D4016821F01001016084F8349084F863
:100C40003580CCE7BDE8F883240000202DE9F04191
:100C5000044600F0A3F906465CB1002584F8345040
:100C6000022084F835002068016821F0010101604C
:100C70000DE00120BDE8F08100F090F9801B05280F
:100C800005D920206065032084F83500F2E720684C
:100C90000068C007F0D12268116820480140D4E9FB
:100CA00001031843D4E903363343184363691843F7
:100CB000A3691843E3691843236A18430843616A28
:100CC000042903D1D4E90B131943084310602068A9
:100CD0004069666A20F0070130460E430127042868
:100CE0000CD1A06A0643E06A40B12046FFF732FE0D
:100CF00020B14020606584F83570BAE7206846610D
:100D00002046FFF713FE94F85C203F21914081605C
:100D1000656584F835700020ACE700003F8010F076
:100D20002DE9F0410446866D90F834000025012835
:100D30000DD0012084F8340094F835700020012F84
:100D400007D084F8340002252846BDE8F08102204F
:100D5000FBE7022784F8357060652046FFF724FE24
:100D600094F85C103F208840B0602068016841F032
:100D700016010160206C20B12068016841F0080173
:100D800001602068016841F001010160DCE70000BA
:100D900070B5044600F002F90546601C02D0044814
:100DA0000078044400F0FAF8401BA042FAD370BD6A
:100DB00018000020012812D109480178491CC9B245
:100DC0000170032901D30021017011F0FF0003D04D
:100DD000012804D102F0ACBC012002F083BE7047B0
:100DE00006000020044910B50A68024202D00860DB
:100DF000FFF7E0FF10BD0000143C01402DE9F84F63
:100E000000224FF0010803254FF00F0E0B6808FA7F
:100E100002F42340A34271D14E68012E05D0022E68
:100E200003D0112E01D0122E15D18668570005FA75
:100E300007FC26EA0C06D1F80CC00CFA07FC4CEAB9
:100E4000060CC0F808C04668A6430C79C4F3001429
:100E5000944034434460C668570005FA07FC8C6828
:100E600026EA0C06BC403443C4604C68022C01D016
:100E7000122C13D1D40800EB8404A346D4F820909C
:100E800054074FEAD46A0EFA0AF629EA06090E69EF
:100E900006FA0AF646EA0906CBF8206004680E79DD
:100EA00024EA0C0406F00306BE40264306604C68A4
:100EB000E40056D52E4C266846F480462660246809
:100EC00022F0030604F4804400942A4C3444A446DF
:100ED000D4F808489607370F0EFA07F6B443264EA3
:100EE000B04201D1002615E0244EB04201D10126C6
:100EF00010E0234EB04202D102260BE031E0214E39
:100F0000B04201D1032605E01F4EB04201D10426B4
:100F100000E00726BE402643CCF808681B4E346824
:100F20004F689C43FF0300D51C433460174E361DA9
:100F300034684F689C43BF0300D51C433460134E94
:100F4000083634684F689C43FF0200D51C43346068
:100F50000E4E0C3634684F689C43BF0200D51C43CC
:100F60003460521C102AFFF451AFBDE8F88F000026
:100F700044380240003001400000024000040240BA
:100F800000080240000C024000100240003C0140FA
:100F90000AB1816170470904FBE7000001488068DD
:100FA0007047000018000020024881680278114450
:100FB00081607047180000200B4810B5016841F4AB
:100FC00000710160016841F480610160016841F4D1
:100FD00080710160032000F077F8002000F006F82F
:100FE00000F024F8002010BD003C024070B50D4D0B
:100FF00004464FF47A712878B1FBF0F00A49096889
:10100000B1FBF0F000F02CFC48B9102C07D2002204
:101010002146501E00F038F800206C6070BD0120A1
:1010200070BD000018000020240000200E4808B504
:10103000016841F480410160006800F48040009044
:101040000948001F016841F08051016000680022DA
:1010500000F0805000901146052000F015F8BDE822
:101060000840052000F002B844380240002809DB9F
:1010700000F01F02012191404009800000F1E020B2
:10108000C0F8001170470000F0B40E4B1B680C460E
:10109000C3F30223C3F10705042D00D90425191D4C
:1010A000072901D2002300E0DB1E012606FA05F124
:1010B000491E214099409E40761E16403143F0BCA7
:1010C00001F0E2BD0CED00E0064900F007020868FF
:1010D0004FF6FF03184040EA0220034A104308601D
:1010E000704700000CED00E00000FA052DE9F04724
:1010F0000E46050065D0DFF81481D8F80000F7B27D
:1011000000F00F00B04207D288F80070D8F8000055
:1011100000F00F00B04254D128683D4C810712D531
:10112000400703D5206840F4E0502060287800078D
:1011300003D5206840F4604020602068A96820F052
:10114000F000084320602878C0072DD03049686837
:101150000839012812D0022813D0032811D00968B9
:10116000890700292DDA216821F00301014321605C
:10117000FFF714FF814641F2883A0EE009688903BF
:10118000EFE709688901ECE7FFF708FFA0EB090129
:10119000514502D90320BDE8F0872068696800F056
:1011A0000C00B0EB810FEFD1D8F80010404601F0F1
:1011B0000F01B14207D90770006800F00F00B0427C
:1011C00001D00120E7E72878400705D52068E968C5
:1011D00020F4E050084320602878000706D52068F6
:1011E000296920F4604040EAC100206000F038F82E
:1011F0002168084AC1F30311515CC84006490860E0
:1012000006480068FFF7F2FE0020C4E7003C0240F9
:1012100008380240248F0008240000201C00002011
:101220000448054900680968044AC1F38221515CF9
:10123000C84070472400002008380240348F00085E
:101240000448054900680968044AC1F34231515C09
:10125000C84070472400002008380240348F00083E
:10126000154810B5006810F00C02144813D0411056
:10127000042A0FD0082A0ED10F4C241F226823689D
:1012800002F03F025B0207D52068C0F38810A0FB84
:10129000010106E0084610BD2168C1F38811A1FBD9
:1012A00000010023FEF794FF2168C1F30141491CAE
:1012B0004900B0FBF1F010BD083802400024F400F2
:1012C0002DE9F84F04006ED02078DFF83C93C0077A
:1012D000A9F104054AD009F104000168C1F38101B4
:1012E000012908D00068C0F3810002280AD1D9F88A
:1012F0000000400206D52868800337D560680028C2
:10130000E1D033E06068B0F5803F10D0B0F5A02F99
:10131000286810D020F480302860286820F48020CD
:1013200028606068A8B1FFF739FE06460DE028681E
:1013300040F48030F4E740F480202860F7E700BFF5
:10134000FFF72CFE801B642873D828688003F7D52C
:101350000CE0FFF723FE064605E000BFFFF71EFE88
:10136000801B6428F0D828688003F7D42078DFF841
:101370009C8280074FF0000A3ED5A348001D0168FB
:1013800011F00C0F08D00068C0F3810002280BD1C7
:10139000D9F80000400207D42868800716D5E06815
:1013A000012800D112E02BE1E068B8B10120C8F8B3
:1013B0000000FFF7F3FD064605E000BFFFF7EEFD76
:1013C000801B0228C0D828688007F7D528682169C3
:1013D00020F0F80040EAC10028600DE0C8F800A045
:1013E000FFF7DCFD064604E0FFF7D8FD801B02286E
:1013F0001FD828688007F7D42078000722D5824EAE
:1014000083486169703671B101210160FFF7C6FD43
:10141000074604E0FFF7C2FDC01B022809D8306868
:101420008007F7D50EE0C0F800A0FFF7B7FD07462C
:1014300005E082E0FFF7B2FDC01B02287DD83068CE
:101440008007F7D42078400768D5DFF8BCB10027C3
:101450000BF13C0BDBF80000C0000BD4DBF80010F4
:1014600041F08051CBF80010DBF80000012700F0BC
:1014700080500090674E3068C00510D4306840F44A
:1014800080703060FFF78AFD009005E0FFF786FD71
:101490000099401A022850D83068C005F6D55A4E37
:1014A000A0686C3601280FD00528306810D020F0D5
:1014B00001003060306820F004003060A068B8B1EE
:1014C000FFF76CFD00900FE0306840F00100F4E79A
:1014D00040F004003060F7E7FFF760FD0099411A23
:1014E00041F28830814266D830688007F4D50EE03A
:1014F000FFF754FD009007E0FFF750FD0099411AF7
:1015000041F28830814256D830688007F4D42FB138
:10151000DBF8001021F08051CBF80010A069C8B3AF
:101520003949091D0968C1F3810102294AD00228FD
:10153000504607D0C8F8600000E03CE0FFF72EFD01
:1015400004463BE04746C8F86000FFF727FD064623
:1015500005E000BFFFF722FD801B02282BD828687A
:101560008001F7D4D4E907010843A16A2A4A49084F
:1015700002EB0141626A41EA8211084394F82C109F
:1015800040EA0161C9F8001001203866FFF706FD46
:10159000044606E036E000BFFFF700FD001B02280E
:1015A00009D828688001F7D52CE000BFFFF7F6FCCA
:1015B000001B022802D90320BDE8F88F28688001AB
:1015C000F4D41FE00128F7D0D9F80000E26900F454
:1015D0008001914214D1226A00F03F0191420FD163
:1015E00047F6C071626A0140914209D1A26A00F4D3
:1015F0004031914204D1E16A00F07060884201D02C
:101600000120D9E70020D7E7043802400000474214
:10161000800E4742007000400000FFFF70B50400DC
:1016200005D00025A56294F8510010B106E0012014
:1016300070BD84F85050204600F030F8022084F845
:1016400051002068016821F040010160D4E90101E6
:101650000843D4E903121143084361690843218B0D
:1016600001F400710843E1690843216A0843A16A53
:10167000084321680860A069042101EA1040616AFA
:101680000843216848602068C16921F40061C16194
:101690006565012084F85100002070BD10B586B04A
:1016A000044614216846FEF7CBFD134920688842A2
:1016B00020D11248016841F400410160006800F443
:1016C000004005900D481038016841F002010160AA
:1016D0000068694600F00200059028200090022072
:1016E00001900120029003200390062004900448FA
:1016F000FFF784FB06B010BD003C004040380240BC
:10170000000402402DE9F84F044690F850000027ED
:101710001D461646894601280DD04FF0010B84F86E
:1017200050B0FFF73BFC804694F85100BA460128C0
:1017300004D002278EE00220BDE8F88FB9F1000F37
:101740007DD0002E7BD0032084F85100C4F854A033
:10175000C4F83090A686E686C4F838A0A4F83CA069
:10176000A4F83EA0C4F844A0C4F840A0A068B0F516
:10177000004F04D12068016841F480410160206875
:101780000168490603D4016841F040010160E06846
:10179000B0F5006F606803D030B3012E24D040E074
:1017A00008B1012E1CD1206B21680088C86006E0BA
:1017B00020688168890709D5216B0988C160206B81
:1017C000801C2063E08E401EE08609E0FFF7E6FB08
:1017D000A0EB0800A84202D3681C01D031E07DB321
:1017E000E08E0028E4D11FE0206B216800780873A8
:1017F00006E020688168890709D5216B09780173A3
:10180000206B401C2063E08E401EE08609E0FFF75D
:10181000C5FBA0EB0800A84202D3681C01D010E071
:1018200075B1E08E0028E4D142462946204600F0FA
:1018300021FF08B120206065A06820B107E008E022
:10184000FFE7032706E02068C16880680090606DAC
:1018500000B1012784F851B084F850A038466BE7F6
:1018600010B5401EB0F1807F01D3012010BD4FF0B4
:10187000E02460610F21601701F006FA0020A061EA
:1018800007202061002010BD70B590F83C20012A8F
:101890002CD0012480F83C40022280F83D200368CF
:1018A0005A689D6822F070060A6832435A60104BED
:1018B00002689A420ED0B2F1804F0BD00D4B9A4283
:1018C00008D00D4B9A4205D00C4B9A4202D00C4BDB
:1018D0009A4204D1496825F080031943916080F849
:1018E0003D40002180F83C10084670BD022070BDCC
:1018F000000001400004004000080040000C0040CF
:10190000004001402DE9F0410D46040003D094F859
:101910003D0018B108E00120BDE8F081002084F806
:101920003C00204600F03AF8022084F83D00206890
:10193000816844F2070291438160211D206800F014
:1019400061FF226890689169166A2B68AF6903434A
:1019500040F20330814341EA0721A868EF69084358
:101960004FF6FC418843E96840EA072001432869B3
:101970002F6A000140EA0730084369686D6926F064
:10198000AA0646EA051529439360226890612068FB
:101990000162012084F83D000020BDE710B586B04B
:1019A000044614216846FEF74BFC13492068884220
:1019B0001FD112480021026842F002020260006852
:1019C00000F0020005900D481038026842F0010254
:1019D00002600068012200F001000590C020009024
:1019E0000220CDE90102CDE9031069460448FFF762
:1019F00005FA06B010BD0000000400404038024067
:101A00000000024010B50446006891B1042904D0DA
:101A10000122002100F042FF206801225FF0040152
:101A200000F03CFF2068016841F0010101600020E6
:101A300010BD01220021F3E710B50446006841699A
:101A400094F83920C1F3C011212A0BD151B1416959
:101A500021F080014161206B08B1FEF7CEFF2046E6
:101A600000F0A3FF2068416994F83A20C1F3801187
:101A7000222A0BD151B1416921F040014161606BD3
:101A800008B1FEF7BAFF204600F081FF002010BD2C
:101A90007047000070B5026804461068D168536949
:101AA00010F00F0F52D003F0010501F490762E4391
:101AB0005FD0C20705D0CA0503D5E26B42F0010230
:101AC000E263420705D5DA0703D0E26B42F0020277
:101AD000E263820705D5DA0703D0E26B42F0040225
:101AE000E263020707D501F020022A4303D0E26B2C
:101AF00042F00802E263E26B002A33D0800604D58C
:101B0000880602D5204600F059FF20684069E16B45
:101B1000C0F38010090700D428B3204600F037FF37
:101B20002068416949061AD5416921F040014161A7
:101B3000606BA0B11B490165606BFEF7A5FF002833
:101B400010D0606B016DBDE870400847830610D56A
:101B50008B060ED52046BDE8704000F02FBF204612
:101B6000FFF796FF70BD2046FFF792FF0020E0636D
:101B700070BD030606D50B0604D52046BDE87040AF
:101B800000F0FCBF4006F3D54806F1D5D1682046E9
:101B900021F04001D160202184F8391000F038F99B
:101BA00070BD0000B728000870B5040004D094F898
:101BB0003900002510B106E0012070BD84F83850CE
:101BC000204600F023F8242084F839002068C168FA
:101BD00021F40051C160204600F03CFF20680169FB
:101BE00021F4904101612068416921F02A0141619D
:101BF0002068C16841F40051C160E563202084F889
:101C0000390084F83A00002070BD00002DE9F04151
:101C100086B0064614216846FEF712FB304930684C
:101C2000884259D12F480024016841F01001016019
:101C3000006800F0100005902A481438016841F04F
:101C4000010101600068694600F0010005904FF451
:101C5000C06000900220CDE901040320039007201A
:101C600004902148FFF7CAF8214D20484FF0006743
:101C70002860C5E901744FF48068C5E903486C61C8
:101C8000AC61EC612C6228466C62FEF7DFFF08B1A4
:101C9000FEF7B2FE7563AE63154D144860357830BB
:101CA000E5E802074020A5E81101114845F814496C
:101CB0006030AC61EC612C626C62FEF7C7FF08B16A
:101CC000FEF79AFE3563002211462520AE63FFF72A
:101CD000DBF92520FFF7CAF906B0BDE8F081000066
:101CE00000100140443802400000024040640240BD
:101CF000E4050020F8B5044690F83A0020283CD1CD
:101D0000C1B3BAB394F83800012836D0012084F862
:101D10003800A162A2850025E563222084F83A00FC
:101D2000636B1748D863636B16481864636B164877
:101D3000D864606B134605650846666B21680246E9
:101D40003046091DFEF7ECFF2068016841680091EC
:101D500084F83850C16841F48071C16020684169DD
:101D600041F0010141612068416941F04001416158
:101D70000020F8BDFFE70120FBE70220F9E70000A3
:101D8000112900084D290008C7280008704770472E
:101D900070B5044690F83900202830D169B362B399
:101DA00094F8380001282AD0012084F838002162F4
:101DB000A284E2840025E563212084F83900236BA6
:101DC0001048D863236B10481864236B0F48D864FD
:101DD000206B134605652668206B321DFEF7A0FFB9
:101DE00021686FF04000086084F83850206841692D
:101DF00041F080014161002070BD012070BD0220D2
:101E000070BD00005729000885290008C728000870
:101E100070477047FEE72DE9F04107461C4615461E
:101E20000E462A2000F0D8FA2837B8B200F0F0FAAF
:101E30002835A8B200F0ECFA2B2000F0CDFA3536A8
:101E4000B0B200F0E5FA3534A0B200F0E1FABDE836
:101E5000F0412C2000F0C0BA08B500210090872383
:101E6000F022084600F086F808BD00002DE9FE4F7C
:101E70004FF00008141A4746454699421FD1FFF714
:101E8000CAFF324932480A88110AD2B206E000BFBE
:101E900000F8151000EB45036D1C5A70AC42F7D8E2
:101EA000012210212B48FFF773F84FF6FF7000EA6C
:101EB000440103B02648BDE8F04F00F07BB9CDE9FE
:101EC00000105E1A4FF0FF30002C02DD4FF00101D0
:101ED00002E003D14FF000018B4602E08346C4F1DB
:101EE0000004002E02DD4FF0010002E003D14FF0AC
:101EF0000000824602E08246C6F10006B44201DDDF
:101F0000254600E03546681C4FF00009029018E0B5
:101F1000009881B2019880B200F01EF8A0443744C6
:101F2000A84504DD0198A8EB050858440190AF428C
:101F300003DD00987F1B5044009009F101001FFA57
:101F400080F902998945E3DDBDE8FE8F000000209D
:101F5000280000200004024010B50B460246FFF79F
:101F60005AFF03480088BDE8104000F051BA000055
:101F7000000000202DE9F047141A5F1A641C7F1C32
:101F80007C43002564004FF49068089E444502D9C4
:101F9000A4F590654446FFF73EFF370ADFF84C9002
:101FA000DFF84CA0F6B20020494606E001F81070B8
:101FB00001EB4002401C567080B2B0EB540FF5D3D9
:101FC000012210215046FEF7E3FFA1B2074800F0BE
:101FD000F1F8002D07D0454502D9A5F59065E2E757
:101FE0002C460025DFE7BDE8F08700002800002030
:101FF0000004024010B56E4C002280212046FEF7FE
:10200000C7FF7820FEF7C4FE002240212046FEF7DD
:10201000BFFF7820FEF7BCFE012240212046FEF7DC
:10202000B7FF7820FEF7B4FE112000F0D5F9782034
:10203000FEF7AEFE362000F0CFF9702000F0DAF99E
:102040003A2000F0C9F9052000F0D4F9B22000F0E0
:10205000C3F90C2000F0CEF90C2000F0CBF90020E1
:1020600000F0C8F9332000F0C5F9332000F0C2F9C0
:10207000B72000F0B1F9352000F0BCF9BB2000F02A
:10208000ABF9192000F0B6F9C02000F0A5F92C201A
:1020900000F0B0F9C22000F09FF9012000F0AAF989
:1020A000C32000F099F9122000F0A4F9C42000F038
:1020B00093F9202000F09EF9C62000F08DF90F2042
:1020C00000F098F9D02000F087F9A42000F092F9F0
:1020D000A12000F08FF9E02000F07EF9D02000F080
:1020E00089F9042000F086F90D2000F083F9112011
:1020F00000F080F9132000F07DF92B2000F07AF930
:102100003F2000F077F9542000F074F94C2000F0E3
:1021100071F9182000F06EF90D2000F06BF90B201A
:1021200000F068F91F2000F065F9232000F062F943
:10213000E12000F051F9D02000F05CF9042000F01B
:1021400059F90C2000F056F9112000F053F9132032
:1021500000F050F92C2000F04DF93F2000F04AF932
:10216000442000F047F9512000F044F92F2000F0FE
:1021700041F91F2000F03EF91F2000F03BF920201C
:1021800000F038F9232000F035F9212000F024F97F
:10219000292000F021F900218623EF220846FFF7CD
:1021A0003AFE20460122BDE810408021FEF7F0BE35
:1021B0000004024000F056BA2DE9F05F203AD7B291
:1021C0001C46F022A2EB540282425BD3C4F1870288
:1021D0008A4257DB0A19521E93B200EB5402521E78
:1021E00092B2FFF718FE3F4E102C1AD0202C18D0B8
:1021F0000C2C49D0182C45D13B4907EB47004FF038
:10220000300A002401EB00194FEA060819F80460AF
:10221000E00756D004270025300654D5B8F8000052
:1022200053E0600700D0012000EBD400610810FBF0
:1022300001F000F0FF082D48002500EB071A00F51B
:10224000BE5000EBC71BB1461AE0102C09D0202C61
:1022500018D11BF805600027300605D5B9F8000035
:1022600004E01AF80560F6E7B9F8020000F0D0F8CB
:1022700070067F1C060EFFB2082FEDD36D1CEDB269
:102280004545E2D3BDE8F09F194807EB47014FF001
:102290000C09002400EB8108002518F804703806AA
:1022A00001D5308800E0708800F0B2F878066D1C27
:1022B000070EEDB2062DF2D3641CE4B24C45EBD30D
:1022C000E0E70827A7E7B8F8020000F0A1F87006D9
:1022D0006D1C060EEDB2BD429ED3641CE4B25445A3
:1022E00094D3CFE700000020CC460008DC40000873
:1022F000683C00082DE9F047044600F0FF0910197A
:102300000D46DDE908A61FFA80F8581987B210E0DB
:10231000444503D305EB0A004C4685B2BD420DD2BD
:10232000534629462046FFF747FF04EB5A0084B284
:10233000761C3278A2F120005E28E9D9BDE8F0874A
:102340002DE9F04716468A199A46521E93B2821911
:10235000521E92B2DDF82080FFF75DFD0024F508E3
:10236000DFF83490754312E01AF80470002638063E
:1023700001D5404601E0B9F8020000F049F87806BE
:10238000761C070EF6B2082EF1D3641CE4B2A54207
:10239000EAD8BDE8F0870000000000202DE9F84FE2
:1023A0001C46DDE90A6915468A4607464FEAD20807
:1023B0000DE033462A4651463846CDF80090FFF7E7
:1023C000BFFF781905FB0866641E87B2A4B2002C13
:1023D000EFD1BDE8F88F000001B5002210210448BC
:1023E000FEF7D6FD01216846FFF7E4FE08BD0000B8
:1023F0000004024001B5012210210448FEF7C8FD87
:1024000001216846FFF7D6FE08BD00000004024027
:1024100008B500210091010A8DF800108DF8010027
:10242000012210210348FEF7B3FD02216846FFF7A1
:10243000C1FE08BD000402400D4808B5016841F422
:10244000800101600068002200F4800000901146C5
:102450003A20FEF719FE3A20FEF708FE0022114648
:102460004620FEF711FEBDE808404620FEF7FEBDFF
:1024700030380240F0B587B014216846FDF7E0FE21
:1024800036480025016841F004010160016801F04F
:1024900004010591016841F080010160016801F0CB
:1024A00080010591016841F001010160016801F0BE
:1024B00001010591016841F0020101600068284EA8
:1024C00000F002000590012207213046FEF760FD72
:1024D000244F01224FF290013846FEF759FD0022A9
:1024E00040213846FEF754FD01240720CDE90004C1
:1024F00069463046CDE90245FEF780FC1A48694638
:10250000CDE9004038460294FEF778FC4FF4704065
:10251000CDE900040220CDE9024069463846FEF7C5
:102520006DFC9020CDE900040320CDE9024069460E
:102530003846FEF763FC40208DE831006946384696
:102540000395FEF75BFC002211460620FEF79CFD7A
:102550000620FEF78BFD07B0F0BD000030380240CA
:10256000000002400004024000002110114810B594
:102570000F4901604FF4827141604FF40041816066
:1025800000210222C0E90312012242615202C0E985
:1025900006210162416281620A21C162FFF73EF8B1
:1025A000002803D0BDE81040FEF726BA10BD000099
:1025B000003C0040A804002010B58CB024216846DF
:1025C000FDF73EFE00241648099414490A94016060
:1025D0000321C0E90114EF22C0E9032484610091C2
:1025E0000120CDE901400F21CDE90341CDE90540AE
:1025F000CDE9074169460A48FFF784F908B1FEF7BB
:10260000FBF9099409A906480A94FFF73DF9002847
:1026100001D0FEF7F1F90CB010BD0000000400403D
:10262000000500200C4810B50A4901604FF4E13163
:102630004160002181600C22C160C0E90412816107
:10264000C161FFF7B1FA002803D0BDE81040FEF7E2
:10265000D3B910BD00100140A4050020FEE770476B
:10266000704770470A46014664230148FFF74AB89D
:10267000A804002038B504461248134B0068B0FB8C
:10268000F3F04FF47A73584300906068B0F5827F9E
:102690000DD10B46009200228021204600F016F852
:1026A00070B1606D40F020006065032038BD009877
:1026B00030B1401E009020688068C0430006F6D507
:1026C000002038BD2400002000366E012DE9F041C5
:1026D0001D4617460E460446DDF8188008E0681CC3
:1026E00006D0FEF75BFCA0EB0800A8420BD255B168
:1026F0002068806836EA000030D00020B842EED171
:102700000020BDE8F0812068416821F0E0014160CF
:102710006068B0F5827F0BD1A068B0F5004F02D0A1
:10272000B0F5806F04D12068016821F0400101609C
:10273000A06AB0F5005F09D12068016821F400515A
:1027400001602068016841F400510160012084F8B3
:102750005100002084F850000320D2E70120CDE78B
:102760007047FEF721BC000030B593B030216846B9
:10277000FDF766FD14210CA8FDF762FD1848002541
:10278000016841F080510160006800F080501190B4
:102790001448016841F4404101600068022400F4DB
:1027A0004040119001200090000401908001CDE98B
:1027B000064008AA0420642182E813000B906846B2
:1027C000FEF77EFD0CA90F2081E83100E002CDE983
:1027D0000F0503210CA8FEF789FC13B030BD0000E3
:1027E00040380240007000400548016841F4700123
:1027F000016003494FF000608039086070470000B5
:1028000088ED00E0F0B502681D4B1E4C9F031E4D85
:102810001E4E984207D0B84205D0A04203D0A8422D
:1028200001D0B04204D122F0700C4A6842EA0C0296
:10283000984210D0B8420ED0A0420CD0A8420AD084
:10284000B04208D0124CA04205D0124CA04202D097
:10285000114CA04203D122F44074CA6822434C694F
:1028600022F08002224302608A68C2620A688262A1
:10287000984201D10969016301214161F0BD000065
:10288000000001400004004000080040000C00402F
:1028900000400140004401400048014010B501F0F3
:1028A0001F030121046A99408C430462016A9A4023
:1028B0001143016210BD10B5806B0021C185C18438
:1028C000FFF7E6F810BD70B5846B2068406994F896
:1028D0003910C0F3C0100025212904D118B1E584B6
:1028E000204600F062F82068406994F83A10C0F37E
:1028F0008010222904D118B1E585204600F047F860
:10290000E06B40F01000E0632046FFF7C1F870BDB7
:1029100010B50146806B09680968C90513D4002108
:10292000C1850168CA6822F48072CA6001684A6978
:1029300022F001024A6101684A6922F040024A61BC
:10294000202180F83A10FFF721FA10BD10B5806BF6
:10295000FFF71DFA10BD10B50146806B09680968C4
:10296000C9050CD40021C18401684A6922F08002A3
:102970004A610068C16841F04001C16010BDFFF7C5
:1029800047FA10BD10B5806BFFF743FA10BD016820
:10299000CA6822F49072CA6001684A6922F0010292
:1029A0004A61202180F83A1070470168CA6822F015
:1029B000C002CA60202180F83910704710B590F825
:1029C0003A10222901D0022010BD8168B1F5805F44
:1029D00011D00169002901681FD0496801F07F0307
:1029E000816A4A1C82620B70C18D491E0904090C60
:1029F000C18518D02BE00269816A002A02685268FA
:102A000005D0D2B20A80816A491C8162ECE7C2F328
:102A100008020A80816A891CF7E74A68816A4B1CB0
:102A200083620A70E0E70168CA6822F02002CA6087
:102A30000168CA6822F48072CA6001684A6922F09B
:102A400001024A61202180F83A10FFF79FF9002027
:102A500010BD00002DE9F041044600680169E268FC
:102A600021F44051114301612169A068E2690843E2
:102A70006169114308432168CA6849F20C639A43AB
:102A80000243CA6020684169A26921F44071114380
:102A90004161E069192764253226B0F5004F354AB7
:102AA000354920684FF0000806D0884201D0904296
:102AB00036D1FEF7C5FB35E0884201D0904202D105
:102AC000FEF7BEFB01E0FEF7ABFB61684A18A0FB16
:102AD000070148EB0803FDF77BFB0146B0FBF5F06F
:102AE0000201B1FBF5F06FF01803584301EB8000D1
:102AF00006EBC000B0FBF5F000F0F80002EB40027E
:102B0000B1FBF5F0584301EB800006EBC000B0FBD1
:102B1000F5F000F00700216810448860BDE8F081FE
:102B2000FEF77EFB61688B0F8A00A0FB0701FDF7B3
:102B30004FFB0146B0FBF5F06FF01802504301EB7C
:102B4000800006EB0010B0FBF5F000F0F002B1FBE6
:102B5000F5F002EB0012B1FBF5F06FF018035843EB
:102B600001EB800006EB0010B0FBF5F000F00F0069
:102B7000D1E70000001401400010014090F8391026
:102B8000212901D0022070478168B1F5805F016A78
:102B90000BD04A1C0262026809785160C18C491E40
:102BA0000904090CC1840ED017E009880268C1F33A
:102BB0000801516001690029016A02D0491C0162C3
:102BC000ECE7891CFBE70168CA6822F08002CA6052
:102BD0000068C16841F04001C160002070470000FA
:102BE0000D4808B500680168C1F3001179B10168AA
:102BF000406800900848FEF71FFF084800684068DA
:102C00000749C0F164000870064901200870BDE85A
:102C100008400148FEF73EBFA4050020E40500205F
:102C20000400002005000020FEE7000010B50A4C5B
:102C300021780A48FDF7CCFE0020207060702178D2
:102C40000648FDF7FDFA0549BDE81040642201F190
:102C50006400FFF74FB8000004000020400500208A
:102C60000FB4084B10B504A902AA039800F0EEF8BF
:102C7000044602A9002000F080FC204610BC5DF84C
:102C800014FB00007B3500080907090E002804DB4F
:102C900000F1E02080F80014704700F00F0000F110
:102CA000E02080F8141D704702E008C8121F08C118
:102CB000002AFAD170477047002001E001C1121FBD
:102CC000002AFBD1704700002DE9FF5F82B0002190
:102CD000DDE90430020DDDF840B0034318D044F6BE
:102CE0001050A2F2FF3242431514119801281FD050
:102CF000A5EB0B00401C5FEA000A4FF000064E4FA8
:102D0000DFF83891B046504615D5CAF1000413E0FB
:102D1000119801244AA3012801D16FEA0B010298FE
:102D2000119AC0E90031C0E9024206B0BDE8F09F47
:102D3000CBF10000DFE704460021404A491842EB8E
:102D40000450CDE9001012E0E00707D032463B46C0
:102D500040464946FDF726FB8046894632463B46BB
:102D600010461946FDF71EFB06460F466410002C60
:102D7000EAD1DDE90401DDE90023BAF1000F06DA4A
:102D8000FDF710FB42464B46FDF70CFB05E0FDF757
:102D90007BFB42464B46FDF777FB04460E4600227E
:102DA000284BFDF7C9FC03D84FF0FF30014607E080
:102DB0000022254B20463146FDF74DFAFDF7A3FCD6
:102DC000102409E0002C0ADB0A220023FDF700FA98
:102DD000039B30321A55641E50EA0102F2D1641C82
:102DE000039AC4F111031444119A012A03D0012259
:102DF00008430DD10AE0084304D000204FF0110B26
:102E0000119072E7A3EB0B056D1E0DE05B4504DD31
:102E10004FF0000205F1010504E003DA4FF0000273
:102E2000A5F10105002AECD002981199C0E9023100
:102E3000C0E9004579E70000000014400000F03FC1
:102E4000300000000000F0430000E03F2DE9FF4F9C
:102E500095B09B468946064600250FE2252877D186
:102E600000242746F84A0121059400E0044316F89F
:102E7000013F203B01FA03F01042F7D130782A28B5
:102E800011D06FF02F033078A0F13002092A16D844
:102E9000059A44F0020402EB820203EB4202104462
:102EA000761C0590EFE759F8042B0592002A03DA07
:102EB000504244F40054059044F00204761C3078EB
:102EC0002E2816D116F8010F44F004042A280DD03C
:102ED0006FF02F023078A0F13003092B09D807EBEF
:102EE000870302EB4303C718761CF3E759F8047B0A
:102EF000761C30786C280FD006DC4C2817D0682858
:102F00000DD06A2814D104E0742810D07A280FD18B
:102F10000DE044F400140AE044F4801401E044F4A9
:102F200040147278824202D104F58014761C761C1B
:102F3000307866280BD013DC582877D009DC0028BD
:102F400075D04528F6D04628F4D047281AD19DE1FF
:102F500018E0632835D0642879D0652812D195E12E
:102F6000702873D008DC6728F1D069286FD06E28EC
:102F70000DD06F2806D1B5E073282CD0752875D0F8
:102F8000782874D05A46179990476D1C75E1C4F3A0
:102F90000250022809D003280DD0D9F800100428C7
:102FA0000DD00D6009F1040967E1D9F80010EA17A6
:102FB000C1E90052F6E7D9F800100D80F2E70D7074
:102FC000F0E719F8041B8DF8001000208DF80100BF
:102FD000EA46012003E059F804AB4FF0FF306107E7
:102FE0004FF0000102D40DE008F101018846B9421A
:102FF0000FDA8045F8DB1AF808100029F4D108E050
:1030000008F1010188468142FADB1AF8081000290C
:10301000F6D105985B46A0EB080721463846179A7B
:1030200000F094FA284400EB080507E04DE029E1A0
:103030000DE01AF8010B5A4617999047B8F10108AC
:10304000F7D25B4621463846179A13E142E00A223E
:103050000092C4F302524FF0000A022A08D059F835
:1030600004CB032A4FEAEC710AD00DE029E02AE0F4
:1030700009F1070121F00702F2E802C1914609E0D7
:103080000FFA8CFC4FEAEC71042A03D14FFA8CFC46
:103090004FEAEC71002907DA0A460021DCF1000C46
:1030A00061EB02012D2202E0220504D52B228DF8CE
:1030B0000420012203E0E20701D02022F7E7904636
:1030C00059E00A2102E010220DE010214FF0000A21
:1030D00000910BE010224FF0000A44F0040408278E
:1030E000009203E008224FF0000A0092C4F302525B
:1030F000022A05D059F804CB0021032A08D009E0A0
:1031000009F1070121F00702F2E802C1914605E04A
:103110001FFA8CFC042A01D10CF0FF0C4FF00008C0
:10312000220728D5702806D0009B83F0100353EAAD
:103130000A0305D00EE040228DF80420012208E0A9
:103140005CEA010206D030228DF804208DF80500DB
:1031500002229046009B83F0080353EA0A030AD137
:103160005CEA010201D1620705D530228DF8042006
:103170004FF001087F1E582804D034A003900EA8F9
:1031800002900DE036A0F9E753466046009AFDF73D
:103190001FF884460398825C0298401E02900270D9
:1031A0005CEA0100F0D1029806A9081A00F1200A91
:1031B000600702D524F4803400E00127574502DD82
:1031C000A7EB0A0000E0002000EB0A010090059840
:1031D0004144401A0590E00306D45B462146179A05
:1031E000059800F0B3F90544002706E001A85A4607
:1031F000C05D179990476D1C7F1C4745F6DBE003C7
:103200000CD55B462146179A059800F09FF90544B6
:1032100004E030205A46179990476D1C0099481ECB
:1032200000900029F5DC08E0029802995A460078DF
:10323000491C0291179990476D1CBAF10001AAF13F
:10324000010AF1DC65E10000092801003031323368
:1032500034353637383961626364656600000000D2
:1032600030313233343536373839414243444546BC
:103270000000000000F058F90544761C3078002862
:103280007FF4ECAD19B02846BDE8F08F620700D49A
:10329000062709F1070222F0070CFCE80223E146A9
:1032A00003F000485FEA080C02D00FF2702C0DE02A
:1032B0005FEA045C02D50FF2682C07E05FEAC47C89
:1032C00002D00FF2602C01E0AFF2700C4FF0FF382B
:1032D00023F00043CDF850C065280CD006DC45280B
:1032E00009D046281DD047283DD13DE0662818D09A
:1032F00067287ED138E00021112F01DB112000E08A
:10330000781CCDE9000106A90EA8FFF7DDFCDDE978
:103310000F010E9A03910021009207F1010A049116
:103320004DE04FF000400097CDE9011006A90EA82E
:10333000FFF7CAFCDDE90F0203920E9B11990022F0
:10334000DDF80CA00093049211B9791C00EB010A7E
:10335000B7EB0A0004D4C0F1FF3007F1010A049072
:10336000AAEB0700019044E0012F00DA01270021B9
:10337000112F01DD112000E03846CDE9000106A93A
:103380000EA8FFF7A1FCDDE90F010E9A03910021C1
:1033900004910092BA4621070CD40399514500DAF2
:1033A0008A46BAF1010F05DD009AAAF10101515CCC
:1033B000302908D0B84202DA10F1040F06DA0121F0
:1033C000CDE9011015E0AAF10101E9E7002805DCCB
:1033D000049901440491AAEB000102E0411C51450B
:1033E00000DD8A460499401A401C01904FF00040CD
:1033F0000290200704D40198504501DBCDF80480E9
:1034000000208DF84F0002980DF14F07B0F1004FEA
:1034100025D02B200E9002984FF0020800280CDADD
:10342000404202902D200E9007E00A210298FDF7FD
:10343000C6F83031029007F8011DB8F10001A8F17B
:103440000108F2DC02980028EFD1791E0E9808706E
:10345000307800F0200040F0450007F8020D12A877
:10346000C01B00F107081498007800B1012000EBA0
:103470000A01019801EBE07105984144401A401E91
:103480000590E00306D45B462146179A059800F0A4
:103490005DF805441498007818B15A46179990477A
:1034A0006D1CE00324D55B462146179A059800F071
:1034B0004DF805441CE00498002807DBDDE9030112
:1034C000884203DD0098405C179901E0179930208D
:1034D0005A469047049805F10105401C0490019854
:1034E000401E019004D12E205A46179990476D1C1A
:1034F000BAF10001AAF1010ADDDC05E017F8010BC1
:103500005A46179990476D1CB8F10001A8F10108BF
:10351000F4DC5B462146179A0598ABE62D000000C7
:103520002B000000200000002DE9F041044600259A
:103530001E461746880404D405E039462020B047CB
:103540006D1C641EF9D52846BDE8F0812DE9F041D7
:10355000044600251E469046C80301D5302700E0EA
:103560002027880404D505E041463846B0476D1C45
:10357000641EF9D52846BDE8F0810A68531C0B602B
:10358000107070472DED028BFDF716FDFFF7ECF87C
:10359000FEF770FFFEF750FFFEF7E8FFFFF742F877
:1035A000FFF70AF856480068C16841F01001C16091
:1035B000642254495248FEF79DFB3C215248FEF7D5
:1035C00021FA00F0ADF9504C7825206845624F4F44
:1035D000DFF83C81DFF83C914FF0000A4FF0020B1E
:1035E0009FED4D8B4E4E2068416A782954D0416A38
:1035F0004562782938783CD920B101280ED00228BC
:1036000077D116E098F80010491CC9B288F800106C
:10361000032901D388F800A001203BE099F80010AD
:10362000491CC9B289F80010032920D389F800A0E9
:103630001DE099F8000020B101280FD0022816D112
:1036400011E0384853EC182B90ED000B51EC100BA7
:10365000FCF701FE334AC2E9000108E03248017874
:10366000491C017003E031480188491C0180012098
:103670003DE020B1012810D002283AD118E098F896
:103680000010491EC9B288F80010032901D388F838
:1036900000B0002000F026FA2BE099F80010491E37
:1036A000C9B289F80010032920D389F800B01DE0C1
:1036B00099F8000020B101280FD0022816D111E09E
:1036C000184853EC182B90ED000B51EC100BFCF745
:1036D00063FE144AC2E9000108E013480178491E5C
:1036E000017003E011480188491E0180002000F0AC
:1036F0001FF8307800283FF476AFFFF797FA72E7AB
:10370000A405002040050020000500200600002040
:10371000080000200A0000200000000000005940BE
:103720000500002010000020090000200C000020EF
:103730002DE9F043DFF8B08107462DED028B83B011
:103740004FF67951694C6A48A8F800102178008832
:1037500021B101290AD0022911D11FE06549CDE923
:103760000010022320220621102006E06249CDE944
:10377000001003232022332116E0FEF70FFEA1786C
:103780004FF6FF709FED5D8B5E4E4FF4784910252C
:1037900061B101293BD002296ED174E05A49CDE9CB
:1037A00000100323202260210020E6E7A8F8000093
:1037B00047B1A28855A15348FFF752FA10234E2271
:1037C000652111E06078FCF7CEFE53EC182BFCF776
:1037D000E9FD41EC100B4EA153EC102B4948FFF7CB
:1037E0003FFA10234E223821CDE90056A220FEF7E1
:1037F00081FDA8F8009094ED020B47A153EC102B2B
:103800004048FFF72DFA10234E220A212FE0A8F896
:1038100000005FB194ED020B3FA153EC102B39482F
:10382000FFF71EFA10234E220A2107E0A28837A1D3
:103830003448FFF715FA10234E226521CDE90056D2
:10384000A220FEF757FDA8F800906078FCF78BFEE9
:1038500053EC182BFCF7A6FD41EC100B2CA153ECFC
:10386000102B2848FFF7FCF910234E223821CDE910
:103870000056A220FEF73EFD03B0BDEC028BBDE872
:10388000F04300F01FB9A8F8000097B16078FCF78A
:103890006AFE53EC182BFCF785FD41EC100B1CA1C4
:1038A00053EC102B1748FFF7DBF910234E22382179
:1038B0000AE094ED020B18A153EC102B1148FFF70E
:1038C000CFF910234E220A21CDE90056A220FEF79F
:1038D00011FDA8F80090A2880CA10A48FFF7C0F9D2
:1038E00010234E226521C2E70200002008000020BC
:1038F000000000201C8800081C890008DBBFB2D231
:10390000A414943FA40600209C8A00082534640077
:1039100025312E326656000025342E3166487A0055
:103920007CB5FEF767FB564D564E4FF6FF742C8064
:10393000002030802046FEF78FFA4FF6E070288096
:103940000021009086235F220846FEF713FB318892
:103950004D48CDE900010223202206211020FEF768
:103960001DFD31884948CDE9000103232022332180
:103970000020FEF713FD31884548CDE900010323FF
:10398000202260210020FEF709FD1F2028800090E2
:103990008523A02200216120FEF7ECFA3D48CDE905
:1039A00000040223202206216120FEF7F7FC3A489A
:1039B000CDE900040223202233216120FEF7EEFC32
:1039C0003648CDE900040223202260216120FEF761
:1039D000E5FC2D23EF2219460020FEF747FA5A2373
:1039E000EF2219460020FEF741FA602286230021CB
:1039F0001046FEF73BFAA122862300211046FEF76F
:103A000035FA2C80264C27A1284894ED020B53EC64
:103A1000102BFFF725F9254D1026CDE9006533461B
:103A20004E220A21A220FEF765FC6078FCF79BFD80
:103A30009FED1F1B53EC112BFCF7B4FC41EC100B5A
:103A40001DA153EC102B2846FFF70AF9CDE90065BC
:103A500010234E223821A220FEF74CFCA28818A188
:103A60002846FFF7FDF8CDE9006510234E226521B9
:103A7000A220FEF73FFCBDE87C40012000F032B8F8
:103A800002000020000000201C8800081C8900089B
:103A90009C8A00081C8C00081C8D00081C8E0008E5
:103AA0000800002025342E3166487A00A406002044
:103AB000DBBFB2D2A414943F25312E3266560000EB
:103AC0002534640010B5064C0020A288217894EDBE
:103AD000020BFCF78FFE6078BDE81040FCF756BE85
:103AE000080000202DE9FC47DFF84CA15349544C55
:103AF0009AF800300988534D4FF6E07204F52077AC
:103B000004F580764FF478484FF6FF7923B1012B06
:103B10001BD0022B34D140E02A804FF003034FF03A
:103B2000200218B1CDE90071602102E0CDE9006109
:103B300033210020FEF732FCA5F80080CDE90049D2
:103B4000022320220621102018E02A8030B1CDE97E
:103B50000041022320220621102005E0CDE900715A
:103B60000323202260210020FEF718FCA5F8008026
:103B7000CDE900690323202233210020FEF70EFC4B
:103B80004FF6795028809AF802102F4D1024F1B189
:103B9000012928D0022940D143E02A8030B1CDE963
:103BA0000061032320223321002005E0CDE90041FC
:103BB0000223202206211020FEF7F0FBA5F800804A
:103BC000CDE900790323202260210020D6E79AED79
:103BD000020B1EA153EC102B1B48FFF741F81023DA
:103BE0004E220A2114E09AF80100FCF7BCFC9FED7C
:103BF000191B53EC112BFCF7D5FB41EC100B17A153
:103C000053EC102B1048FFF72BF810234E223821CD
:103C1000A220CDE90045FEF76DFBBDE8FC47FFF7AC
:103C200051BFBAF804200FA10748FFF719F8102375
:103C30004E226521ECE70000080000200000002073
:103C40001C88000802000020A406002025342E3124
:103C500066487A00DBBFB2D2A414943F25312E32DD
:103C600066560000253464000000000000000000DB
:103C70000000000000002020202020000020000084
:103C800028285000000000000000000000005050F4
:103C9000F85050F850500000002070A8A060302864
:103CA000A8702000000048A8B0A874345448000050
:103CB00000002050506CA8A894680000404080008C
:103CC000000000000000000008101020202020202C
:103CD000101008004020201010101010202040006C
:103CE00000000020A87070A8200000000000001054
:103CF000107C101000000000000000000000000018
:103D0000404080000000000000FC000000000000B7
:103D1000000000000000000000400000000408084F
:103D2000101020204040800000007088888888881B
:103D300088700000000020602020202020700000FB
:103D4000000070888810204080F800000000708813
:103D5000083008088870000000001030305090F8DB
:103D6000103800000000F88080F08808887000009B
:103D70000000304880B0C8888870000000007808D3
:103D80001010202020200000000070888870888893
:103D900088700000000070888898680890600000B3
:103DA00000000000200000000020000000000000D3
:103DB00000200000002020000000081020404020CB
:103DC0001008000000000000FC00FC0000000000E3
:103DD00000004020100808102040000000007088FB
:103DE00088102020002000000000384494B4B4B8AB
:103DF00044380000000020203050507848CC0000AB
:103E00000000F0484870484848F0000000007888FA
:103E100080808080887000000000F0484848484852
:103E200048F000000000F8485070504048F800008A
:103E30000000F8485070504040E000000000384852
:103E400080809C88483000000000CC484878484872
:103E500048CC00000000F8202020202020F800009E
:103E600000007C1010101010101090E00000EC48C2
:103E70005060504848EC00000000E04040404040A6
:103E800044FC00000000DCD8D8D8A8A8A8AC0000EA
:103E90000000DC486868585848E800000000708856
:103EA00088888888887000000000F048487040408A
:103EB00040E0000000007088888888E8987018004A
:103EC0000000F0484870504848EC00000000788836
:103ED0008060100888F000000000F8A82020202052
:103EE000207000000000CC48484848484830000096
:103EF0000000CC4848505030202000000000A8A806
:103F0000A8A87050505000000000D85050202050F9
:103F100050D800000000D8505050202020700000E1
:103F20000000F8901020204048F8000038202020A1
:103F30002020202020203800004040202020101089
:103F400010080800701010101010101010107000E1
:103F500020500000000000000000000000000000F1
:103F600000000000000000FC4020000000000000F5
:103F7000000000000000000000304838483C00000D
:103F800000C04040407048484870000000000000F9
:103F900000384840483000000018080808384848F1
:103FA000483C000000000000003048784038000025
:103FB0000018242020782020207800000000000035
:103FC000003C48304038443800C0404040704848C9
:103FD00048EC00000020200000602020207000003D
:103FE0000010100000301010101010E000C0404011
:103FF0004058506050C8000000E0202020202020C1
:1040000020F800000000000000F0A8A8A8A8000008
:104010000000000000F0484848EC000000000000EC
:1040200000304848483000000000000000F04848D8
:10403000487040E000000000003848484838081C3C
:104040000000000000D8604040E0000000000000D8
:104050000078403008780000000000202078202000
:10406000203800000000000000D84848483C00000C
:104070000000000000D85050202000000000000088
:1040800000A8A870505000000000000000D8502088
:1040900050D800000000000000CC4848301020C07C
:1040A0000000000000781020207800001810101088
:1040B00010301010101018001010101010101010E8
:1040C00010101010602020202010202020206000E0
:1040D00068900000000000000000000000000000E8
:1040E00000000000000000000000000000000010C0
:1040F00010101010101000001010000000122424E6
:104100004800000000000000000000000000001255
:1041100012127E2424247E24242400000000083C63
:104120004A4A48380C0A0A4A4A3C08080000004437
:10413000A4A8A8B0541A2A2A4A440000000000305B
:10414000484848506EA4949889760000006020206A
:104150004000000000000000000000000002040811
:104160000810101010101008080402000040201061
:10417000100808080808081010204000000000007F
:104180001010D63838D610100000000000000000D3
:10419000000808087F080808000000000000000070
:1041A000000000000000000060202040000000002F
:1041B000000000007E000000000000000000000081
:1041C0000000000000000000606000000000020429
:1041D00004040808101010202040400000000018BF
:1041E0002442424242424242241800000000000899
:1041F0003808080808080808083E00000000003CCD
:104200004242420204081020427E00000000003CAE
:104210004242020418040242423C00000000000432
:104220000C0C142424447F04041F00000000007EB2
:104230004040407844020242443800000000001828
:104240002440405C62424242221C00000000007E8A
:104250004204040808101010101000000000003C78
:104260004242422418244242423C000000000038EE
:1042700044424242463A0202241800000000000074
:1042800000001818000000001818000000000000CE
:1042900000000010000000000010101000000002DC
:1042A0000408102040201008040200000000000054
:1042B00000007E00007E00000000000000000040C2
:1042C0002010080402040810204000000000003CF8
:1042D0004242620408080800181800000000003874
:1042E000445AAAAAAAAAAA5C423C000000000010F4
:1042F00010182828243C444242E70000000000F83F
:10430000444444784442424244F800000000003EE5
:10431000424280808080804244380000000000F8E3
:10432000444242424242424244F80000000000FC43
:10433000424848784848404242FC0000000000FCE7
:10434000424848784848404040E000000000003CB7
:1043500044448080808E844444380000000000E79C
:10436000424242427E42424242E700000000007C5C
:104370001010101010101010107C00000000003EF3
:104380000808080808080808080888F0000000EE77
:10439000444850705048484444EE0000000000E09B
:1043A000404040404040404042FE0000000000EEDF
:1043B0006C6C6C6C6C54545454D60000000000C7F4
:1043C000626252524A4A4A4646E200000000003801
:1043D000448282828282828244380000000000FC93
:1043E000424242427C40404040E000000000003831
:1043F00044828282828282B24C380600000000FC35
:104400004242427C4848444442E300000000003EEF
:104410004242402018040242427C0000000000FE9C
:10442000921010101010101010380000000000E75B
:104430004242424242424242423C0000000000E707
:10444000424244242428281810100000000000D6FE
:1044500054545454546C282828280000000000E7C5
:10446000422424181818242442E70000000000EE1B
:104470004444282810101010103800000000007E5E
:10448000840408081020204242FC0000001E101086
:10449000101010101010101010101E0000004020FE
:1044A00020201010100808040404020200780808F4
:1044B00008080808080808080808780000182400F8
:1044C00000000000000000000000000000000000EC
:1044D0000000000000000000000000FF006010006D
:1044E00000000000000000000000000000000000CC
:1044F00000000038440C34444C360000000000003A
:10450000C04040586442424264580000000000002D
:104510000000001C22404040221C0000000000005F
:104520000602023E42424242463B000000000000BA
:104530000000003C42427E40423C0000000000007F
:104540000C12107C10101010107C000000000000F5
:104550000000003E444438403C42423C0000000021
:10456000C040405C6242424242E70000000000302E
:104570003000007010101010107C00000000000CC3
:104580000C00001C0404040404044478000000002F
:10459000C040404E4850704844EE000000000010FB
:1045A0007010101010101010107C0000000000009F
:1045B000000000FE4949494949ED000000000000A3
:1045C000000000DC6242424242E7000000000000BE
:1045D0000000003C42424242423C00000000000019
:1045E000000000D864424242645840E000000000ED
:1045F0000000001A26424242261A0207000000006C
:10460000000000EE3220202020F800000000000012
:104610000000003E42403C02427C000000000000DE
:104620000010107C10101010120C00000000000090
:10463000000000C642424242463B0000000000002B
:10464000000000EE44442828101000000000000084
:10465000000000DB894A5A542424000000000000B6
:104660000000007624181818246E000000000000D6
:10467000000000E742242418181010600000000019
:104680000000007E44081010227E00000003040495
:1046900004040404080404040404030008080808CB
:1046A00008080808080808080808080800C02020AA
:1046B00020202020102020202020C000205A04008C
:1046C00000000000000000000000000000000000EA
:1046D00000000000000000000000000000000000DA
:1046E00000000000000000000000000000000000CA
:1046F00000000000000000000000000000000000BA
:104700000000000006000600060006000600060085
:104710000600020004000400040000000000000085
:104720000600060006000000000000000000000077
:10473000066006600CC01980110022000000000015
:104740000000000000000000000000000000000069
:104750000000000000000000000000000000000059
:104760000000000008400840084008407FE07FE06B
:10477000104010801080108010807FE07FE020804B
:104780002080208020800000000000000000000049
:104790000000020002000F801AC032C033C0320095
:1047A0001A000E0007000380038002C032C03AC026
:1047B00032C012800F000200020000000000000062
:1047C00000000000708050808900890089008A0004
:1047D0008A005C0075C005400A200A2012201220C1
:1047E0001220214021C00000000000000000000055
:1047F000000000001C00360036003600360036008F
:10480000340019E038805880CC80CC80C680C70046
:10481000C31063903CE000000000000000000000B6
:1048200030003800080008001000200000000000E0
:104830000000000000000000000000000000000078
:104840000000000000000000000000000000000068
:10485000002000400080010001000200020004006E
:10486000040004000400040004000400020002002C
:104870000100010000800040002000000000000056
:10488000400020001000080008000400040002009E
:104890000200020002000200020002000400040004
:1048A0000800080010002000400000000000000088
:1048B000000000000000000002000300020062305F
:1048C00072F00B800F807AF062300200020002006A
:1048D00000000000000000000000000000000000D8
:1048E00000000000000000000000020002000200C2
:1048F000020002007FF0020002000200020002003B
:1049000000000000000000000000000000000000A7
:104910000000000000000000000000000000000097
:104920000000000000000000000000000000000087
:1049300030003800080008001000200000000000CF
:104940000000000000000000000000000000000067
:10495000000000007FE000000000000000000000F8
:104960000000000000000000000000000000000047
:104970000000000000000000000000000000000037
:104980000000000000000000000000000000000027
:10499000380038003800000000000000000000006F
:1049A00000200060004000C0008000800100010085
:1049B00002000200060004000400080008001000C5
:1049C00010003000200060004000000000000000E7
:1049D0000000000000000F00198030C030C060608F
:1049E000606060606060606060606060606030C097
:1049F00030C019800F00000000000000000000001F
:104A000000000000000002003E0006000600060054
:104A10000600060006000600060006000600060066
:104A2000060006003FC0000000000000000000007B
:104A30000000000000001F00218040C060C060C076
:104A400000C0008001800300060004000800104040
:104A5000204060407FC00000000000000000000017
:104A60000000000000001E00630061806180018082
:104A7000018003000E000180008000C000C060C003
:104A800060C061801F000000000000000000000006
:104A90000000000000000180018003800580058087
:104AA000098011801180218041807FF00180018088
:104AB0000180018007E0000000000000000000000D
:104AC0000000000000003FC0200020002000200067
:104AD00020002F00318020C000C000C060C060C036
:104AE000418021801F000000000000000000000045
:104AF000000000000000078018C030C03000200017
:104B00006000678068C070606060606060602060A6
:104B1000304018C00F00000000000000000000003E
:104B20000000000000001FE0306020402080008076
:104B300000800100010002000200020006000600E1
:104B40000600060006000000000000000000000053
:104B50000000000000001F8030C060606060606086
:104B6000304038C00F00138030C06060606060600B
:104B7000606030C00F8000000000000000000000F6
:104B80000000000000000F00308030C06040606016
:104B90006060606060E031601E60006000C000C066
:104BA000308031801E000000000000000000000086
:104BB00000000000000000000000000000000000F5
:104BC00007000700070000000000000000000000D0
:104BD00007000700070000000000000000000000C0
:104BE00000000000000000000000000000000000C5
:104BF00006000600000000000000000000000000A9
:104C0000000006000600020004000400000000008E
:104C100000000000002000400080010002000400AD
:104C2000080010002000100008000400020001002D
:104C30000080004000200000000000000000000094
:104C40000000000000000000000000000000000064
:104C50007FE00000000000007FE000000000000096
:104C60000000000000000000000000000000000044
:104C700000000000200010000800040002000100F5
:104C8000008000400020004000800100020004007D
:104C900008001000200000000000000000000000DC
:104CA00000000000000007C01860203020303030C5
:104CB000303000E00180020002000200000000002D
:104CC00007000700070000000000000000000000CF
:104CD00000000000070018C0304033A026A066A0E6
:104CE00065A06D206D206D206D206D4027803020E7
:104CF000304018C00F00000000000000000000005D
:104D0000000000000000060006000A000B00090079
:104D100009001100118010801F8020C020C0204099
:104D200040404060F0F00000000000000000000083
:104D30000000000000007F0031C030C030C030C033
:104D400030C031803F0030C0304030603060306073
:104D5000306030C07F8000000000000000000000D4
:104D600000000000000007C018C030603020202084
:104D70006000600060006000600060006020302023
:104D8000304018C00F0000000000000000000000CC
:104D9000000000000000FE00318030C030C03060F4
:104DA000306030603060306030603060306030C023
:104DB00030C03180FE000000000000000000000054
:104DC000000000000000FFC060C0602060206000A4
:104DD000610061007F00610061006100600060208F
:104DE00060206040FFC000000000000000000000E4
:104DF000000000000000FFC060C060206020600074
:104E0000610061007F00610061006100600060007E
:104E100060006000F80000000000000000000000DA
:104E20000000000000000F0018803040304020409B
:104E3000600060006000600063F060C060C030C06F
:104E400030C018C00F00000000000000000000008B
:104E5000000000000000F0F0606060606060606072
:104E6000606060607FE060606060606060606060A3
:104E700060606060F0F000000000000000000000D2
:104E80000000000000003FC006000600060006000B
:104E900006000600060006000600060006000600E2
:104EA000060006003FC000000000000000000000F7
:104EB0000000000000001FE00300030003000300E7
:104EC00003000300030003000300030003000300CA
:104ED000030003000300630066003C0000000000C4
:104EE000000000000000F3C0618063006200640005
:104EF00068006C00740076006200630061006180ED
:104F0000608060C0F1E000000000000000000000D0
:104F1000000000000000F800600060006000600019
:104F20006000600060006000600060006000602061
:104F300060206040FFC00000000000000000000092
:104F4000000000000000E0E061C061C071C071C0FD
:104F500072C072C052C05AC05AC05CC04CC04CC073
:104F60004CC048C0E1E0000000000000000000006C
:104F700000000000000071F03040384038402C4004
:104F80002C402640264022402340214021C021C001
:104F900020C020C0F8400000000000000000000019
:104FA0000000000000000F00198030C03040606039
:104FB0006060606060606060606060606060304041
:104FC00030C019800F000000000000000000000049
:104FD000000000000000FF0060C060606060606072
:104FE0006060606061C07F00600060006000600021
:104FF00060006000F80000000000000000000000F9
:105000000000000000000F00198030C030406060D8
:105010006060606060606060606060606E603240D0
:1050200033C019800F0001E000C000000000000044
:10503000000000000000FF8060C060606060606091
:10504000606060C07F00620063006100618060C0DA
:1050500060C06060F0700000000000000000000010
:105060000000000000001F4030C060406040600051
:1050700070003C001F0007C001C000E040604060BD
:10508000606030C00F8000000000000000000000E1
:105090000000000000007FE0462086108610060019
:1050A00006000600060006000600060006000600D0
:1050B000060006001F800000000000000000000045
:1050C00000000000000078E03040304030403040C8
:1050D0003040304030403040304030403040304050
:1050E000304018800F0000000000000000000000A9
:1050F000000000000000F0E0604020802080308050
:10510000308011001100190019000A000A000E0079
:105110000C0004000400000000000000000000007B
:10512000000000000000EF70462042206220622054
:105130002640264027402740394039801980198071
:1051400011801100110000000000000000000000AC
:1051500000000000000079E0308010801880090015
:105160000D0006000400060006000B000900118077
:10517000108020C071E0000000000000000000006E
:10518000000000000000F0F060202040304010805F
:1051900018801D000D000E00060006000600060027
:1051A000060006001F800000000000000000000054
:1051B0000000000000003FE0304060C040800180FF
:1051C0000100020002000400040008001800102082
:1051D000302020407FC000000000000000000000E0
:1051E00007C00400040004000400040004000400DC
:1051F000040004000400040004000400040004008F
:10520000040004000400040007C0000000000000C7
:10521000000000002000200010001000080008001E
:105220000800040004000200020003000100010065
:10523000008000800040004000400020000000008E
:105240003E00020002000200020002000200020012
:10525000020002000200020002000200020002003E
:1052600002000200020002003E00000000000600F2
:105270000900108000000000000000000000000095
:10528000000000000000000000000000000000001E
:10529000000000000000000000000000000000000E
:1052A00000000000000000000000000000000000FE
:1052B00000000000000000000000000000000000EE
:1052C00000000000000000000000FFF000000000EF
:1052D00018000600000000000000000000000000B0
:1052E00000000000000000000000000000000000BE
:1052F00000000000000000000000000000000000AE
:10530000000000000000000000000000000000009D
:105310000F8030C030C000C007C038C070C060C04F
:1053200060C071D03E70000000000000000000006E
:10533000000000001000700030003000300030002D
:1053400033803CC038603060306030603060306046
:10535000304038C02780000000000000000000003E
:10536000000000000000000000000000000000003D
:105370000F0031803180618060006000600060401B
:10538000304030800F0000000000000000000000EE
:1053900000000000004003C000C000C000C000C00A
:1053A0001EC031C030C060C060C060C060C060C09E
:1053B00020C031E01E80000000000000000000005E
:1053C00000000000000000000000000000000000DD
:1053D000078018C01040306030603FE0300030007F
:1053E00018201840078000000000000000000000A6
:1053F00000000000000003C006600C600C000C0000
:105400007F800C000C000C000C000C000C000C0049
:105410000C000C003F8000000000000000000000B5
:10542000000000000000000000000000000000007C
:105430000FE01B6031803180318019801F00300007
:105440003F0033C060C060C071C01F00000000009A
:10545000000000001000700030003000300030000C
:10546000378038C030C030C030C030C030C030C0ED
:1054700030C030C079E000000000000000000000F3
:10548000000000000000060006000000000002000E
:105490003E000600060006000600060006000600A4
:1054A000060006003FC000000000000000000000F1
:1054B0000000000000000380038000000000008066
:1054C0000F800180018001800180018001800180C6
:1054D000018001800180018033003E000000000057
:1054E000000000001000700030003000300030007C
:1054F00031C031003100320036003A0031003180D5
:10550000308030C079E000000000000000000000A2
:105510000000000002003E00060006000600060033
:10552000060006000600060006000600060006004B
:10553000060006003FC00000000000000000000060
:10554000000000000000000000000000000000005B
:10555000ECE0776066606660666066606660666004
:1055600066606660FFF000000000000000000000C0
:10557000000000000000000000000000000000002B
:10558000778038C030C030C030C030C030C030C08C
:1055900030C030C079E000000000000000000000D2
:1055A00000000000000000000000000000000000FB
:1055B0000F00198030C06060606060606060606093
:1055C00030C030C00F0000000000000000000000EC
:1055D00000000000000000000000000000000000CB
:1055E000778038C03060306030603060306030606C
:1055F00030C038C03780300030007C000000000030
:10560000000000000000000000000000000000009A
:105610001E4031C030C060C060C060C060C060C0AB
:1056200020C031C01EC000C000C003E00000000068
:10563000000000000000000000000000000000006A
:10564000F9C01A601C601800180018001800180033
:1056500018001800FF00000000000000000000001B
:10566000000000000000000000000000000000003A
:105670000FC038C0304030401C000F0003C020C0B5
:1056800020C031C03F80000000000000000000008A
:105690000000000000000000040004000C000C00EA
:1056A0007F800C000C000C000C000C000C000C00A7
:1056B0000C400C40078000000000000000000000CB
:1056C000000000000000000000000000000010408A
:1056D00071C030C030C030C030C030C030C030C009
:1056E00030C039E01E800000000000000000000013
:1056F00000000000000000000000000000000000AA
:1057000078E0304010801080188009000D000D00F6
:105710000600060004000000000000000000000079
:105720000000000000000000000000000000000079
:10573000EF7046206220264026403740398019808D
:105740001980198010000000000000000000000017
:105750000000000000000000000000000000000049
:105760003DE0188008800D000600060007000900D3
:10577000108010C079E00000000000000000000070
:105780000000000000000000000000000000000019
:1057900079E0108010801080090009000D000600DB
:1057A0000600060004000400240038000000000089
:1057B00000000000000000000000000000000000E9
:1057C0003F80218023002200060004000C001840C6
:1057D000104030C03F8000000000000000000000CA
:1057E00000C00100010001000100010001000100F2
:1057F000010002000400020001000100010001009C
:10580000010001000100010000C0000002000200D0
:105810000200020002000200020002000200020078
:105820000200020002000200020002000200020068
:10583000020002000200020002000200000000005C
:1058400030000800080008000800080008000800F0
:105850000800040002000400080008000800080016
:1058600008000800080008003000000000003800B0
:105870004420432001C000000000000000000000A0
:105880000000000000000000000000000000000018
:105890000000000000000000000000000000000008
:1058A00000000000000000000000000000000000F8
:1058B00000000000000000000000000000000000E8
:1058C00000000000000000000000000000000000D8
:1058D00000000000000000000000000000000000C8
:1058E00000000000000000000000000000000000B8
:1058F00000000000000000000000000000000000A8
:105900000000000000000000000000000000000097
:105910000000000000000000000000000000000087
:10592000000000000000000003C003C003C003C06B
:1059300003C003C001C0018001800180018001809B
:10594000018001800180000000000000018003C090
:1059500003C0018000000000000000000000000003
:105960000000000000000000000000000000000037
:105970000000000000000000000000000000000027
:105980000000000000000000000000000000000017
:105990000000000000000000000000000000000007
:1059A0000318073807380E700C6018C031802100CA
:1059B00000000000000000000000000000000000E7
:1059C00000000000000000000000000000000000D7
:1059D00000000000000000000000000000000000C7
:1059E00000000000000000000000000000000000B7
:1059F00000000000000000000000000000000000A7
:105A00000000000000000000000000000000000096
:105A10000000000000000000000000000000000086
:105A20000000000000000000040804080408040846
:105A300004087FFE7FFE7FFE081008100810081083
:105A4000081008107FFE7FFE7FFE18301020102007
:105A500010201020000000000000000000000000E6
:105A60000000000000000000000000000000000036
:105A70000000000000000000000000000000000026
:105A80000000000000000000000000000000000016
:105A90000000000000000000000000000000000006
:105AA000000000000100010003C00D3009181918A2
:105AB000193819381D000D000F00070003C001E060
:105AC00001F0013001380118391839183118313016
:105AD000196007C001000100010000000000000083
:105AE00000000000000000000000000000000000B6
:105AF00000000000000000000000000000000000A6
:105B00000000000000000000000000000000000095
:105B10000000000000000000000000000000000085
:105B2000000000000000000038106C104420C62067
:105B3000C640C640C640C680C68044806D38396CB9
:105B4000024402C602C604C604C608C608C6084403
:105B5000106C103800000000000000000000000081
:105B60000000000000000000000000000000000035
:105B70000000000000000000000000000000000025
:105B80000000000000000000000000000000000015
:105B90000000000000000000000000000000000005
:105BA00000000000000000000F001900318031806B
:105BB00031803180310033003A001C00387C3C10C9
:105BC0004C10CE10C620C720C320C1C0C1C260E6A1
:105BD000317C1E38000000000000000000000000C2
:105BE00000000000000000000000000000000000B5
:105BF00000000000000000000000000000000000A5
:105C00000000000000000000000000000000000094
:105C10000000000000000000000000000000000084
:105C200038003C003C000C000C0008003000600014
:105C30000000000000000000000000000000000064
:105C40000000000000000000000000000000000054
:105C50000000000000000000000000000000000044
:105C60000000000000000000000000000000000034
:105C70000000000000000000000000000000000024
:105C80000000000000000000000000000000000014
:105C90000000000000000000000000000000000004
:105CA00000020004000800180030002000600040DE
:105CB00000C000C00180018001800180018001805E
:105CC00001800180018000C000C000400060002011
:105CD000003000180008000400020000000000006E
:105CE00000000000000000000000000000000000B4
:105CF00000000000000000000000000000000000A4
:105D00000000000000000000000000000000000093
:105D10000000000000000000000000000000000083
:105D200040002000100018000C00040006000200D3
:105D30000300030001800180018001800180018057
:105D400001800180018003000300030006000400BD
:105D50000C001800100020004000000000000000AF
:105D60000000000000000000000000000000000033
:105D70000000000000000000000000000000000023
:105D80000000000000000000000000000000000013
:105D90000000000000000000000000000000000003
:105DA00000000000000000000000000000C001C072
:105DB00001C030C6388E1C9C06B001C001C006B0C0
:105DC0001C9C388E318601C001C001C0000000005B
:105DD00000000000000000000000000000000000C3
:105DE00000000000000000000000000000000000B3
:105DF00000000000000000000000000000000000A3
:105E00000000000000000000000000000000000092
:105E10000000000000000000000000000000000082
:105E200000000000000000000000000000000080F2
:105E30000080008000800080008000803FFE0080A5
:105E40000080008000800080008000800000000052
:105E50000000000000000000000000000000000042
:105E60000000000000000000000000000000000032
:105E70000000000000000000000000000000000022
:105E80000000000000000000000000000000000012
:105E90000000000000000000000000000000000002
:105EA00000000000000000000000000000000000F2
:105EB00000000000000000000000000000000000E2
:105EC00000000000000000000000000038003C005E
:105ED0003C000C000C0008003000600000000000D6
:105EE00000000000000000000000000000000000B2
:105EF00000000000000000000000000000000000A2
:105F00000000000000000000000000000000000091
:105F10000000000000000000000000000000000081
:105F20000000000000000000000000000000000071
:105F30000000000000000000000000007FFE0000E4
:105F40000000000000000000000000000000000051
:105F50000000000000000000000000000000000041
:105F60000000000000000000000000000000000031
:105F70000000000000000000000000000000000021
:105F80000000000000000000000000000000000011
:105F90000000000000000000000000000000000001
:105FA00000000000000000000000000000000000F1
:105FB00000000000000000000000000000000000E1
:105FC00000000000000000000000000018003C007D
:105FD0003C0018000000000000000000000000006D
:105FE00000000000000000000000000000000000B1
:105FF00000000000000000000000000000000000A1
:106000000000000000000000000000000000000090
:106010000000000000000000000000000000000080
:106020000000000200060004000C00080018001028
:10603000003000200060004000C0008001800100AE
:1060400003000200060004000C0008001800100005
:106050003000200060004000000000000000000050
:106060000000000000000000000000000000000030
:106070000000000000000000000000000000000020
:106080000000000000000000000000000000000010
:106090000000000000000000000000000000000000
:1060A000000000000000000003C006200C3018189B
:1060B00018181808300C300C300C300C300C300C28
:1060C000300C300C300C300C1808181818180C3024
:1060D000062003C0000000000000000000000000D7
:1060E00000000000000000000000000000000000B0
:1060F00000000000000000000000000000000000A0
:10610000000000000000000000000000000000008F
:10611000000000000000000000000000000000007F
:106120000000000000000000008001801F8001804E
:106130000180018001800180018001800180018057
:106140000180018001800180018001800180018047
:1061500003C01FF800000000000000000000000065
:10616000000000000000000000000000000000002F
:10617000000000000000000000000000000000001F
:10618000000000000000000000000000000000000F
:1061900000000000000000000000000000000000FF
:1061A000000000000000000007E008381018200C74
:1061B000200C300C300C000C00180018003000606F
:1061C00000C0018003000200040408041004200C35
:1061D0003FF83FF800000000000000000000000051
:1061E00000000000000000000000000000000000AF
:1061F000000000000000000000000000000000009F
:10620000000000000000000000000000000000008E
:10621000000000000000000000000000000000007E
:10622000000000000000000007C018603030301887
:1062300030183018001800180030006003C00070DB
:1062400000180008000C000C300C300C300830181E
:10625000183007C00000000000000000000000002F
:10626000000000000000000000000000000000002E
:10627000000000000000000000000000000000001E
:10628000000000000000000000000000000000000E
:1062900000000000000000000000000000000000FE
:1062A00000000000000000000060006000E000E06E
:1062B00001600160026004600460086008601060B2
:1062C0003060206040607FFC006000600060006023
:1062D000006003FC0000000000000000000000005F
:1062E00000000000000000000000000000000000AE
:1062F000000000000000000000000000000000009E
:10630000000000000000000000000000000000008D
:10631000000000000000000000000000000000007D
:1063200000000000000000000FFC0FFC1000100037
:10633000100010001000100013E01430181810089E
:10634000000C000C000C000C300C300C2018201835
:10635000183007C00000000000000000000000002E
:10636000000000000000000000000000000000002D
:10637000000000000000000000000000000000001D
:10638000000000000000000000000000000000000D
:1063900000000000000000000000000000000000FD
:1063A000000000000000000001E006180C180818AA
:1063B000180010001000300033E03630381838086C
:1063C000300C300C300C300C300C180C18080C1839
:1063D0000E3003E00000000000000000000000009C
:1063E00000000000000000000000000000000000AD
:1063F000000000000000000000000000000000009D
:10640000000000000000000000000000000000008C
:10641000000000000000000000000000000000007C
:1064200000000000000000001FFC1FFC10083010DE
:10643000201020200020004000400040008000800C
:10644000010001000100010003000300030003003C
:106450000300030000000000000000000000000036
:10646000000000000000000000000000000000002C
:10647000000000000000000000000000000000001C
:10648000000000000000000000000000000000000C
:1064900000000000000000000000000000000000FC
:1064A000000000000000000007E00C301818300C5D
:1064B000300C300C380C38081E180F2007C018F0AC
:1064C00030783038601C600C600C600C600C301848
:1064D000183007C0000000000000000000000000AD
:1064E00000000000000000000000000000000000AC
:1064F000000000000000000000000000000000009C
:10650000000000000000000000000000000000008B
:10651000000000000000000000000000000000007B
:10652000000000000000000007C0182030103018E4
:106530006008600C600C600C600C600C701C302CEF
:10654000186C0F8C000C00180018001030303060F0
:1065500030C00F80000000000000000000000000BC
:10656000000000000000000000000000000000002B
:10657000000000000000000000000000000000001B
:10658000000000000000000000000000000000000B
:1065900000000000000000000000000000000000FB
:1065A00000000000000000000000000000000000EB
:1065B000000000000000018003C003C00180000053
:1065C000000000000000000000000000018003C087
:1065D00003C0018000000000000000000000000077
:1065E00000000000000000000000000000000000AB
:1065F000000000000000000000000000000000009B
:10660000000000000000000000000000000000008A
:10661000000000000000000000000000000000007A
:10662000000000000000000000000000000000006A
:1066300000000000000000000380038003800000D1
:1066400000000000000000000000000000000380C7
:1066500003800380018003000300000000000000AD
:10666000000000000000000000000000000000002A
:10667000000000000000000000000000000000001A
:10668000000000000000000000000000000000000A
:1066900000000000000000000000000000000000FA
:1066A00000000000000000000004000800100020AE
:1066B00000400080010002000400080010001000EB
:1066C00008000400020001000080004000200010CB
:1066D00000080004000000000000000000000000AE
:1066E00000000000000000000000000000000000AA
:1066F000000000000000000000000000000000009A
:106700000000000000000000000000000000000089
:106710000000000000000000000000000000000079
:106720000000000000000000000000000000000069
:106730000000000000007FFE0000000000000000DC
:1067400000007FFE000000000000000000000000CC
:106750000000000000000000000000000000000039
:106760000000000000000000000000000000000029
:106770000000000000000000000000000000000019
:106780000000000000000000000000000000000009
:1067900000000000000000000000000000000000F9
:1067A00000000000000000002000100008000400AD
:1067B00002000100008000400020001000080008D6
:1067C00000100020004000800100020004000800CA
:1067D0001000200000000000000000000000000089
:1067E00000000000000000000000000000000000A9
:1067F0000000000000000000000000000000000099
:106800000000000000000000000000000000000088
:106810000000000000000000000000000000000078
:10682000000000000000000003E00C18180C100627
:106830003006380638063806000C0018007000C014
:10684000008000800080008000000000018003C004
:1068500003C00180000000000000000000000000F4
:106860000000000000000000000000000000000028
:106870000000000000000000000000000000000018
:106880000000000000000000000000000000000008
:1068900000000000000000000000000000000000F8
:1068A000000000000000000003E006100C081804BF
:1068B00030D431B2213263326322662266226622EC
:1068C00066626664666426E8333030021004180C91
:1068D0000C1803E0000000000000000000000000B1
:1068E00000000000000000000000000000000000A8
:1068F0000000000000000000000000000000000098
:106900000000000000000000000000000000000087
:106910000000000000000000000000000000000077
:10692000000000000000000003800380038003805B
:1069300004C004C004C004C00C40086008600860C3
:1069400008201FF0103010301030201820182018A8
:10695000601CF83E00000000000000000000000085
:106960000000000000000000000000000000000027
:106970000000000000000000000000000000000017
:106980000000000000000000000000000000000007
:1069900000000000000000000000000000000000F7
:1069A00000000000000000007FE018381818180CE4
:1069B000180C180C180C180C181818301FE01818A0
:1069C000180C180418061806180618061806180CCD
:1069D00018187FF000000000000000000000000018
:1069E00000000000000000000000000000000000A7
:1069F0000000000000000000000000000000000097
:106A00000000000000000000000000000000000086
:106A10000000000000000000000000000000000076
:106A2000000000000000000003E0061C080C18062F
:106A300030023002300060006000600060006000E2
:106A4000600060006000600030023002100418082E
:106A50000C1003E000000000000000000000000037
:106A60000000000000000000000000000000000026
:106A70000000000000000000000000000000000016
:106A80000000000000000000000000000000000006
:106A900000000000000000000000000000000000F6
:106AA00000000000000000007FC0187018181808CF
:106AB000180C180C180618061806180618061806DA
:106AC0001806180618061804180C180C18181818A8
:106AD00018607FC0000000000000000000000000FF
:106AE00000000000000000000000000000000000A6
:106AF0000000000000000000000000000000000096
:106B00000000000000000000000000000000000085
:106B10000000000000000000000000000000000075
:106B200000000000000000007FFC180C1804180290
:106B30001802180018001810181018301FF018301C
:106B4000181018101800180018001802180218045D
:106B5000180C7FFC00000000000000000000000096
:106B60000000000000000000000000000000000025
:106B70000000000000000000000000000000000015
:106B80000000000000000000000000000000000005
:106B900000000000000000000000000000000000F5
:106BA00000000000000000007FFC181C1804180200
:106BB0001802180018001810181018301FF018309C
:106BC00018101810181018001800180018001800D5
:106BD00018007E000000000000000000000000001F
:106BE00000000000000000000000000000000000A5
:106BF0000000000000000000000000000000000095
:106C00000000000000000000000000000000000084
:106C10000000000000000000000000000000000074
:106C2000000000000000000003C00C30081018181D
:106C300030083008200060006000600060006000E4
:106C4000607E601860182018301830181018181856
:106C50000C2007C000000000000000000000000041
:106C60000000000000000000000000000000000024
:106C70000000000000000000000000000000000014
:106C80000000000000000000000000000000000004
:106C900000000000000000000000000000000000F4
:106CA0000000000000000000FC3F300C300C300CF5
:106CB000300C300C300C300C300C300C3FFC300CF5
:106CC000300C300C300C300C300C300C300C300CE4
:106CD000300CFC3F0000000000000000000000003D
:106CE00000000000000000000000000000000000A4
:106CF0000000000000000000000000000000000094
:106D00000000000000000000000000000000000083
:106D10000000000000000000000000000000000073
:106D200000000000000000001FF8018001800180C9
:106D3000018001800180018001800180018001804B
:106D4000018001800180018001800180018001803B
:106D500001801FF80000000000000000000000009B
:106D60000000000000000000000000000000000023
:106D70000000000000000000000000000000000013
:106D80000000000000000000000000000000000003
:106D900000000000000000000000000000000000F3
:106DA000000000000000000007FE006000600060BE
:106DB00000600060006000600060006000600060D3
:106DC00000600060006000600060006000600060C3
:106DD00000600060706070C071803F0000000000C3
:106DE00000000000000000000000000000000000A3
:106DF0000000000000000000000000000000000093
:106E00000000000000000000000000000000000082
:106E10000000000000000000000000000000000072
:106E200000000000000000007E7C18301820186070
:106E3000184018801880190019001B001D801D8043
:106E400018C018C01860186018301830183018189A
:106E500018187E3E00000000000000000000000046
:106E60000000000000000000000000000000000022
:106E70000000000000000000000000000000000012
:106E80000000000000000000000000000000000002
:106E900000000000000000000000000000000000F2
:106EA00000000000000000007E001800180018001C
:106EB0001800180018001800180018001800180012
:106EC00018001800180018001800180218021804FA
:106ED000180C7FFC00000000000000000000000013
:106EE00000000000000000000000000000000000A2
:106EF0000000000000000000000000000000000092
:106F00000000000000000000000000000000000081
:106F10000000000000000000000000000000000071
:106F20000000000000000000F00F381C381C381C66
:106F3000381C382C2C2C2C2C2C2C2C4C2C4C264C2F
:106F4000264C264C268C228C238C238C230C230C41
:106F5000210CF13F000000000000000000000000D4
:106F60000000000000000000000000000000000021
:106F70000000000000000000000000000000000011
:106F80000000000000000000000000000000000001
:106F900000000000000000000000000000000000F1
:106FA0000000000000000000F01F380438042C042A
:106FB0002C0426042604230423042184218420C4D1
:106FC00020C42064206420342034201C201C200C89
:106FD000200CF80400000000000000000000000089
:106FE00000000000000000000000000000000000A1
:106FF0000000000000000000000000000000000091
:107000000000000000000000000000000000000080
:107010000000000000000000000000000000000070
:10702000000000000000000003C00C301818100819
:10703000300C300C60046006600660066006600676
:107040006006600660062006300C300C1008181828
:107050000C3003C000000000000000000000000031
:107060000000000000000000000000000000000020
:107070000000000000000000000000000000000010
:107080000000000000000000000000000000000000
:1070900000000000000000000000000000000000F0
:1070A00000000000000000007FF01818180C1806FF
:1070B00018061806180618061806180C18181FE0E7
:1070C0001800180018001800180018001800180000
:1070D00018007E000000000000000000000000001A
:1070E00000000000000000000000000000000000A0
:1070F0000000000000000000000000000000000090
:10710000000000000000000000000000000000007F
:10711000000000000000000000000000000000006F
:10712000000000000000000003C00C301818100818
:10713000300C300C60066006600660066006600673
:107140006006600660066006278438CC386C1878C4
:107150000C7003E00032003C001C00000000000046
:10716000000000000000000000000000000000001F
:10717000000000000000000000000000000000000F
:1071800000000000000000000000000000000000FF
:1071900000000000000000000000000000000000EF
:1071A00000000000000000007FE018381818180CDC
:1071B000180C180C180C180C181818301FE018C0F0
:1071C00018C0186018601860183018301830181877
:1071D00018187E1E000000000000000000000000E3
:1071E000000000000000000000000000000000009F
:1071F000000000000000000000000000000000008F
:10720000000000000000000000000000000000007E
:10721000000000000000000000000000000000006E
:1072200000000000000000000FC818783018601837
:1072300060086008600070003C001F0007C001F09B
:1072400000780018001C400C400C600C200C30181A
:10725000383027E0000000000000000000000000BF
:10726000000000000000000000000000000000001E
:10727000000000000000000000000000000000000E
:1072800000000000000000000000000000000000FE
:1072900000000000000000000000000000000000EE
:1072A00000000000000000003FFC31842186418284
:1072B0004182018001800180018001800180018084
:1072C00001800180018001800180018001800180B6
:1072D000018007E000000000000000000000000046
:1072E000000000000000000000000000000000009E
:1072F000000000000000000000000000000000008E
:10730000000000000000000000000000000000007D
:10731000000000000000000000000000000000006D
:107320000000000000000000FC3E3008300830087B
:10733000300830083008300830083008300830088D
:10734000300830083008300830083008300818108D
:107350001C2007C00000000000000000000000002A
:10736000000000000000000000000000000000001D
:10737000000000000000000000000000000000000D
:1073800000000000000000000000000000000000FD
:1073900000000000000000000000000000000000ED
:1073A00000000000000000007C1E180C18081808DF
:1073B00018080C100C100C100C100C2006200620C5
:1073C0000620064003400340034003800180018003
:1073D00001000100000000000000000000000000AB
:1073E000000000000000000000000000000000009D
:1073F000000000000000000000000000000000008D
:10740000000000000000000000000000000000007C
:10741000000000000000000000000000000000006C
:107420000000000000000000F3CF61866184218429
:10743000208430C431C431C431C831C811C81248A5
:107440001A681A681A701C700C700C700C300C20C2
:1074500008200820000000000000000000000000DC
:10746000000000000000000000000000000000001C
:10747000000000000000000000000000000000000C
:1074800000000000000000000000000000000000FC
:1074900000000000000000000000000000000000EC
:1074A00000000000000000007C3E180818100C10BE
:1074B0000C200620064003400380018001800180EB
:1074C00001C002C00260046004700830083018185F
:1074D000101C7C3E000000000000000000000000C6
:1074E000000000000000000000000000000000009C
:1074F000000000000000000000000000000000008C
:10750000000000000000000000000000000000007B
:10751000000000000000000000000000000000006B
:1075200000000000000000007E3E38081808181017
:107530000C100C100C200620062003400340038092
:107540000180018001800180018001800180018033
:10755000018007E0000000000000000000000000C3
:10756000000000000000000000000000000000001B
:10757000000000000000000000000000000000000B
:1075800000000000000000000000000000000000FB
:1075900000000000000000000000000000000000EB
:1075A00000000000000000001FFE1C0C180C30182A
:1075B000201800300060006000C000C00180018021
:1075C00003000300060006000C0018021806300431
:1075D000301C7FFC000000000000000000000000E4
:1075E000000000000000000000000000000000009B
:1075F000000000000000000000000000000000008B
:10760000000000000000000000000000000000007A
:10761000000000000000000000000000000000006A
:10762000000003FC03000300030003000300030049
:107630000300030003000300030003000300030032
:107640000300030003000300030003000300030022
:1076500003000300030003FC000000000000000022
:10766000000000000000000000000000000000001A
:10767000000000000000000000000000000000000A
:1076800000000000000000000000000000000000FA
:1076900000000000000000000000000000000000EA
:1076A0000000000000001800180008000C00040092
:1076B0000600060002000300010001800180008036
:1076C00000C0004000600060003000300030001852
:1076D0000018000C000C000C000600000000000068
:1076E000000000000000000000000000000000009A
:1076F000000000000000000000000000000000008A
:107700000000000000000000000000000000000079
:107710000000000000000000000000000000000069
:1077200000003FC000C000C000C000C000C000C0DA
:1077300000C000C000C000C000C000C000C000C049
:1077400000C000C000C000C000C000C000C000C039
:1077500000C000C000C03FC00000000000000000EA
:107760000000000000000000000000000000000019
:107770000000000000000000000000000000000009
:1077800000000000000000000000000000000000F9
:1077900000000000000000000000000000000000E9
:1077A00003C003E0062008100000000000000000F5
:1077B00000000000000000000000000000000000C9
:1077C00000000000000000000000000000000000B9
:1077D00000000000000000000000000000000000A9
:1077E0000000000000000000000000000000000099
:1077F0000000000000000000000000000000000089
:107800000000000000000000000000000000000078
:107810000000000000000000000000000000000068
:107820000000000000000000000000000000000058
:107830000000000000000000000000000000000048
:107840000000000000000000000000000000000038
:1078500000000000000000000000FFFF000000002A
:107860000000000000000000000000000000000018
:107870000000000000000000000000000000000008
:1078800000000000000000000000000000000000F8
:1078900000000000000000000000000000000000E8
:1078A0001E00030000800000000000000000000037
:1078B00000000000000000000000000000000000C8
:1078C00000000000000000000000000000000000B8
:1078D00000000000000000000000000000000000A8
:1078E0000000000000000000000000000000000098
:1078F0000000000000000000000000000000000088
:107900000000000000000000000000000000000077
:107910000000000000000000000000000000000067
:107920000000000000000000000000000000000057
:1079300000000000000007E0183030183018301840
:10794000003807D81C1830186018601860186019C3
:1079500030791F8E000000000000000000000000D1
:107960000000000000000000000000000000000017
:107970000000000000000000000000000000000007
:1079800000000000000000000000000000000000F7
:1079900000000000000000000000000000000000E7
:1079A000000000000000080078001800180018000F
:1079B00018001800180019E01A381C181C0C180CB4
:1079C000180C180C180C180C180C180C18081C188B
:1079D0001C3013E000000000000000000000000068
:1079E0000000000000000000000000000000000097
:1079F0000000000000000000000000000000000087
:107A00000000000000000000000000000000000076
:107A10000000000000000000000000000000000066
:107A20000000000000000000000000000000000056
:107A300000000000000003E00E100C1818183018A9
:107A400030003000300030003000300418041808D6
:107A50000C1003E000000000000000000000000027
:107A60000000000000000000000000000000000016
:107A70000000000000000000000000000000000006
:107A800000000000000000000000000000000000F6
:107A900000000000000000000000000000000000E6
:107AA000000000000000000800780018001800180E
:107AB00000180018001807D80C38181818183018B3
:107AC000301830183018301830183018101818388E
:107AD0000C5E0790000000000000000000000000A5
:107AE0000000000000000000000000000000000096
:107AF0000000000000000000000000000000000086
:107B00000000000000000000000000000000000075
:107B10000000000000000000000000000000000065
:107B20000000000000000000000000000000000055
:107B300000000000000003C00C3008181808300CCA
:107B4000300C300C3FFC30003000300018041808B6
:107B50000E1803E00000000000000000000000001C
:107B60000000000000000000000000000000000015
:107B70000000000000000000000000000000000005
:107B800000000000000000000000000000000000F5
:107B900000000000000000000000000000000000E5
:107BA0000000000000000000007C018601060306C2
:107BB0000300030003003FF8030003000300030079
:107BC000030003000300030003000300030003009D
:107BD00003001FF000000000000000000000000093
:107BE0000000000000000000000000000000000095
:107BF0000000000000000000000000000000000085
:107C00000000000000000000000000000000000074
:107C10000000000000000000000000000000000064
:107C20000000000000000000000000000000000054
:107C300000000000000003EE0C3608181818181891
:107C4000181808180C300FE0180018001FC00FF8A3
:107C5000181C300C300C300C181807E00000000025
:107C60000000000000000000000000000000000014
:107C70000000000000000000000000000000000004
:107C800000000000000000000000000000000000F4
:107C900000000000000000000000000000000000E4
:107CA000000000000000080078001800180018000C
:107CB00018001800180019E01A301C1818181818A5
:107CC0001818181818181818181818181818181834
:107CD00018187E7E00000000000000000000000078
:107CE0000000000000000000000000000000000094
:107CF0000000000000000000000000000000000084
:107D00000000000000000000000000000000000073
:107D10000000000000000000000000000000000063
:107D20000000000000000000018003C0018000008E
:107D30000000000000801F80018001800180018020
:107D4000018001800180018001800180018001802B
:107D500001801FF80000000000000000000000008B
:107D60000000000000000000000000000000000013
:107D70000000000000000000000000000000000003
:107D800000000000000000000000000000000000F3
:107D900000000000000000000000000000000000E3
:107DA00000000000000000000038007800300000F3
:107DB00000000000001003F0003000300030003000
:107DC0000030003000300030003000300030003033
:107DD000003000300030186018400F8000000000B4
:107DE0000000000000000000000000000000000093
:107DF0000000000000000000000000000000000083
:107E00000000000000000000000000000000000072
:107E10000000000000000000000000000000000062
:107E2000000000000000080078001800180018008A
:107E3000180018001800187C1830182018401880F6
:107E400019801B801EC01CC018601830183018180C
:107E5000181C7E3E00000000000000000000000032
:107E60000000000000000000000000000000000012
:107E70000000000000000000000000000000000002
:107E800000000000000000000000000000000000F2
:107E900000000000000000000000000000000000E2
:107EA00000000000000000801F8001800180018030
:107EB00001800180018001800180018001800180BA
:107EC00001800180018001800180018001800180AA
:107ED00001801FF80000000000000000000000000A
:107EE0000000000000000000000000000000000092
:107EF0000000000000000000000000000000000082
:107F00000000000000000000000000000000000071
:107F10000000000000000000000000000000000061
:107F20000000000000000000000000000000000051
:107F3000000000002000EF3C71C66186618661860A
:107F400061866186618661866186618661866186F9
:107F50006186F3CF00000000000000000000000078
:107F60000000000000000000000000000000000011
:107F70000000000000000000000000000000000001
:107F800000000000000000000000000000000000F1
:107F900000000000000000000000000000000000E1
:107FA00000000000000000000000000000000000D1
:107FB00000000000000009E07A301C18181818189A
:107FC0001818181818181818181818181818181831
:107FD00018187E7E00000000000000000000000075
:107FE0000000000000000000000000000000000091
:107FF0000000000000000000000000000000000081
:108000000000000000000000000000000000000070
:108010000000000000000000000000000000000060
:108020000000000000000000000000000000000050
:1080300000000000000003C00C3008181818100CD5
:10804000300C300C300C300C300C300C1818181868
:108050000C3003C000000000000000000000000021
:108060000000000000000000000000000000000010
:108070000000000000000000000000000000000000
:1080800000000000000000000000000000000000F0
:1080900000000000000000000000000000000000E0
:1080A00000000000000000000000000000000000D0
:1080B00000000000000009E07A301C181808180CB5
:1080C000180C180C180C180C180C180C18181C1874
:1080D0001E3019E01800180018007E000000000093
:1080E0000000000000000000000000000000000090
:1080F0000000000000000000000000000000000080
:10810000000000000000000000000000000000006F
:10811000000000000000000000000000000000005F
:10812000000000000000000000000000000000004F
:1081300000000000000003C80C7818381818301828
:108140003018301830183018301830181018183807
:108150000C780798001800180018007E0000000036
:10816000000000000000000000000000000000000F
:1081700000000000000000000000000000000000FF
:1081800000000000000000000000000000000000EF
:1081900000000000000000000000000000000000DF
:1081A00000000000000000000000000000000000CF
:1081B000000000000000061C7E660686078007009F
:1081C000060006000600060006000600060006007F
:1081D00006007FE00000000000000000000000003A
:1081E000000000000000000000000000000000008F
:1081F000000000000000000000000000000000007F
:10820000000000000000000000000000000000006E
:10821000000000000000000000000000000000005E
:10822000000000000000000000000000000000004E
:1082300000000000000003E4061C0C0C0C040C04FD
:108240000E0007C001F00078001C100C100C180C78
:108250001C1813F0000000000000000000000000E7
:10826000000000000000000000000000000000000E
:1082700000000000000000000000000000000000FE
:1082800000000000000000000000000000000000EE
:1082900000000000000000000000000000000000DE
:1082A00000000000000000000000000001000100CC
:1082B0000100030007003FF8030003000300030070
:1082C000030003000300030003000300030403048E
:1082D000018800F000000000000000000000000025
:1082E000000000000000000000000000000000008E
:1082F000000000000000000000000000000000007E
:10830000000000000000000000000000000000006D
:10831000000000000000000000000000000000005D
:10832000000000000000000000000000000000004D
:10833000000000000808787818181818181818187D
:10834000181818181818181818181818181818388D
:108350000C5E07900000000000000000000000001C
:10836000000000000000000000000000000000000D
:1083700000000000000000000000000000000000FD
:1083800000000000000000000000000000000000ED
:1083900000000000000000000000000000000000DD
:1083A00000000000000000000000000000000000CD
:1083B0000000000000007C3E180C180818180C1073
:1083C0000C100420062006200340034003C0018057
:1083D000018001000000000000000000000000001B
:1083E000000000000000000000000000000000008D
:1083F000000000000000000000000000000000007D
:10840000000000000000000000000000000000006C
:10841000000000000000000000000000000000005C
:10842000000000000000000000000000000000004C
:10843000000000000000FBCF61862184318431847C
:1084400031C811C81AC81A481A700E700C700C3056
:108450000C200420000000000000000000000000CC
:10846000000000000000000000000000000000000C
:1084700000000000000000000000000000000000FC
:1084800000000000000000000000000000000000EC
:1084900000000000000000000000000000000000DC
:1084A00000000000000000000000000000000000CC
:1084B0000000000000003E7C0C100E10062003405F
:1084C00003400180018001C002600460043008188C
:1084D00018187C7E00000000000000000000000072
:1084E000000000000000000000000000000000008C
:1084F000000000000000000000000000000000007C
:10850000000000000000000000000000000000006B
:10851000000000000000000000000000000000005B
:10852000000000000000000000000000000000004B
:108530000000000000007C3E1818181008100C10F5
:1085400004200620062002400340014001800180F3
:1085500001000100010002003E003C00000000009C
:10856000000000000000000000000000000000000B
:1085700000000000000000000000000000000000FB
:1085800000000000000000000000000000000000EB
:1085900000000000000000000000000000000000DB
:1085A00000000000000000000000000000000000CB
:1085B0000000000000003FF830383030206020E03C
:1085C00000C001800380030006000E040C04180C98
:1085D00030183FF80000000000000000000000001C
:1085E000000000000000000000000000000000008B
:1085F000000000000000000000000000000000007B
:10860000000000000000000000000000000000006A
:10861000000000000000000000000000000000005A
:10862000000C00100020002000200020002000206E
:108630000020002000200020002000C00180004019
:10864000002000200020002000200020002000202A
:108650000020002000200010000C0000000000009E
:10866000000000000000000000000000000000000A
:1086700000000000000000000000000000000000FA
:1086800000000000000000000000000000000000EA
:1086900000000000000000000000000000800080DA
:1086A00000800080008000800080008000800080CA
:1086B00000800080008000800080008000800080BA
:1086C00000800080008000800080008000800080AA
:1086D000008000800080008000800080000000009A
:1086E000000000000000000000000000000000008A
:1086F000000000000000000000000000000000007A
:108700000000000000000000000000000000000069
:108710000000000000000000000000000000000059
:108720001800040002000200020002000200020021
:1087300002000200020002000200018000C00100ED
:108740000200020002000200020002000200020019
:1087500002000200020004001800000000000000F7
:108760000000000000000000000000000000000009
:1087700000000000000000000000000000000000F9
:1087800000000000000000000000000000000000E9
:1087900000000000000000000000000000001E00BB
:1087A00023004182408200E4003800000000000005
:1087B00000000000000000000000000000000000B9
:1087C00000000000000000000000000000000000A9
:1087D0000000000000000000000000000000000099
:1087E0000000000000000000000000000000000089
:1087F0000000000000000000000000000000000079
:108800000000000000000000000000000000000068
:108810000000000000000000000000000000000058
:1088200000000000000700000003C0000001C000BD
:108830000001E0000000C0000000001C3FFFFFFE40
:10884000000700000007000000070000000700000C
:10885000000700C00007FFE0000701C0000601C0DC
:10886000000E01C0000E01C0000C0380001C03803C
:1088700000180380003803800030038000700380FC
:1088800000E0030001C007000381C70006007F006D
:108890001C003E0030003800000000000000000016
:1088A0000000000000001C000E001C0007001C005F
:1088B00003801C0003801C00018C1C18001FFFFC9F
:1088C000003E1C3C303E1C301C6E1C601E6E1C00AA
:1088D0000E6E1C000ECE1C3000CFFFF8018EC07053
:1088E000018EC0E0018E60E0030E61C0030C31C058
:1088F000070C3B803E1C1F000E180F000E180E00C8
:108900000E301F800E707BC00E60E1F00EC3C07E83
:10891000078F003C0338000000000000000000004A
:108920000000000000000000000000000000000047
:1089300000000030000000780FFFFFF8000000008A
:108940000000000000000000000000000000000027
:108950000000000000000000000001C003FFFFE075
:108960000000000000000000000000000000000007
:1089700000000000000000000000000000000000F7
:10898000000000000000001C7FFFFFFE0000000050
:1089900000000000000000000000000000000000D7
:1089A0000000000000180000001E0000001C000075
:1089B00000380C00007FFE0000701C0000E0380052
:1089C00001C0307001FFFFF803E0E07006E0E070E6
:1089D0000CE0E07038E0E07000FFFFF000E0E070D5
:1089E00000E0E07000E0E07000E0E07000FFFFF009
:1089F00000C0E07000C0E07001C0E07001C0E07035
:108A00000380E0700300E0700700E0700E00E7F004
:108A10001800C1F0300000C000000000000000009D
:108A20000000000000001C000E001C0007001C00DD
:108A300003801C0003801C00018C1C18001FFFFC1D
:108A4000003E1C3C303E1C301C6E1C601E6E1C0028
:108A50000E6E1C000ECE1C3000CFFFF8018EC070D1
:108A6000018EC0E0018E60E0030E61C0030C31C0D6
:108A7000070C3B803E1C1F000E180F000E180E0046
:108A80000E301F800E707BC00E60E1F00EC3C07E02
:108A9000078F003C033800000000000000000000C9
:108AA0000000000000000000000000180000003C72
:108AB0000FFFFFFC0000E0000000E0000000E0000D
:108AC0000000E0000000E0000000E00000C0E00066
:108AD00000F0E00000E0E07000E0FFF800E0E000FF
:108AE00000E0E00000E0E00000E0E00000E0E00086
:108AF00000E0E00000E0E00000E0E00000E0E00076
:108B000000E0E00000E0E01800E0E03C3FFFFFFE96
:108B10000000000000000000000000000000000055
:108B2000000000000000300000301C001FF80E00A4
:108B300000300E0000300E1C0037FFFE00300C002D
:108B400000301E0000301C000FF038000C30306088
:108B50000C0070F00C0060E01C00C1C01C019F8084
:108B60001C31F3803FF9870018300E0000300C00F4
:108B700000701C00007038E0007070700070E03809
:108B80000071C03C0073FFFC00E3F81C1FE1800C87
:108B900003C000000380000000000000000000008F
:108BA0000000000000001C000E001C0007001C005C
:108BB00003801C0003801C00018C1C18001FFFFC9C
:108BC000003E1C3C303E1C301C6E1C601E6E1C00A7
:108BD0000E6E1C000ECE1C3000CFFFF8018EC07050
:108BE000018EC0E0018E60E0030E61C0030C31C055
:108BF000070C3B803E1C1F000E180F000E180E00C5
:108C00000E301F800E707BC00E60E1F00EC3C07E80
:108C1000078F003C03380000000000000000000047
:108C200000000000006000000070000C0071FFFEFA
:108C3000007003800770070007760600077F060CA8
:108C400007707FFE0770701C0770701C0773731C21
:108C50003FFFF3DC0060739C0070739C0660739CA4
:108C60000760739C0763739C0E67F39C0E67739C8D
:108C70001C6E731C186E731C301C0780303806C0C5
:108C800000700E7000E01C3C01C0381E0700700E22
:108C90000C01C006380700060000000000000000BC
:108CA00000000000000300000003C0000001C0003D
:108CB0000001C0301FFFFFF80003800000038000A8
:108CC0000E071860078E3CF003DC39C001BFF3804B
:108CD00001BCE6000001C0000063830000C731E072
:108CE000038C1CF00F3FFE381E3F8E380C01CC0069
:108CF0000001C0000001C01C3FFFFFFE0001C000DA
:108D00000001C0000001C0000001C0000001C0005F
:108D10000001C00000018000000000000000000011
:108D2000000000000180000001C0000C0187FFFE70
:108D300001800000018000003198C0601FFCFFF03E
:108D4000199CE070199CE070199CE070199CE0700F
:108D5000199CFFF0199CE070199CE000199F00001D
:108D6000199FFFFC199F861C199F861C199F861C42
:108D7000199B861C19FBFFFC19BB861C3183861CC2
:108D80000183861C0183861C0183861C0183FFFCF2
:108D90000183801C0183801C01830000000000000F
:108DA00000000000000180000000E0000000F0185A
:108DB0000600603C07FFFFFE0706060007078780E6
:108DC000070707000707073807FFFFFC070707002B
:108DD0000707070007070700070707000707FF0047
:108DE0000707070006000180063FFFC00E0603C00C
:108DF0000E0307800E0387000C018E000C00FC00A0
:108E00001C0078001800FC001803DF00300F07FC7E
:108E1000307800FC67C0001800000000000000006F
:108E20000000000000C0000000F0000000E000189A
:108E300000E07FFC00E0703800E0703800E070383F
:108E400000E770383FFFF03800E0703800E07FF84E
:108E500001E0703801F0703801FC703803EE7038B2
:108E600003EE703807E6703807E07FF80EE07038E0
:108E70000CE070381CE0703818E0703830E0703862
:108E800060E0703800E0703800E07FF800E0703893
:108E900000E0703800C060300000000000000000FA
:108EA0000000000000C0C00000F0600000E03800DA
:108EB00000E0380001C03C0001C01800018000380B
:108EC00003BFFFFC0300000007C00000078000C0D4
:108ED0000F8601E00F8301E01F8301C01B8381C067
:108EE000338381806381C3800381C3800381C30096
:108EF0000381C3000381C3000381C6000380060011
:108F00000380060003800C0003800C1C03BFFFFEDF
:108F1000038000000300000000000000000610169F
:108F2000000610160000000000000000010203040B
:108F30000607080900000000010203045C8F000816
:108F40000000002028000000A82C0008848F0008E2
:108F500028000020A80A0000B82C0008FF7F0000AD
:108F60000000000000C80000000000000000000039
:108F7000005C8140010000001000000000000000C3
:048F80000024F400D5
:040000050800019955
:00000001FF
