:020000040800F2
:10000000980A0020AD01000877210008251A000891
:1000100075210008B90200086128000800000000EE
:100020000000000000000000000000007D22000829
:100030009903000800000000792100087F220008D1
:10004000C7010008C7010008C7010008C701000870
:10005000C70100087B210008C7010008C70100088C
:10006000C7010008C7010008C7010008C701000850
:10007000C7010008C7010008C7010008C701000840
:10008000C7010008C7010008C70100080000000000
:10009000000000000000000000000000C701000890
:1000A000C7010008C7010008C70100082123000894
:1000B000C7010008C7010008C7010008C701000800
:1000C000C7010008C7010008C7010008C7010008F0
:1000D000C70100084D280008C70100080000000003
:1000E000C7010008C7010008C701000800000000A0
:1000F000000000000000000000000000C701000830
:1001000000000000C7010008C7010008C70100087F
:1001100000000000000000000000000000000000DF
:10012000C7010008C7010008BD020008C701000898
:10013000C7010008000000000000000000000000EF
:10014000000000000000000000000000C7010008DF
:10015000C7010008C7010008C9020008C70100085C
:10016000C7010008C70100080000000000000000EF
:10017000000000000000000000000000000000007F
:1001800000000000C701000800000000000000009F
:10019000C7010008C7010008DFF80CD000F07AF8AA
:1001A0000048004715290008980A002006488047A3
:1001B00006480047FEE7FEE7FEE7FEE7FEE7FEE74C
:1001C000FEE7FEE7FEE7FEE70523000899010008C9
:1001D0002DE9F05F0546002092469B46884606467C
:1001E000814640241BE0284641464746224600F00F
:1001F00041F853465A46C01A914110D31146184649
:10020000224600F028F82D1A67EB01084F462246D7
:100210000120002100F01FF817EB00094E41201EBD
:10022000A4F10104DFDC484631462A464346BDE8D6
:10023000F09FD2B201E000F8012B491EFBD27047BB
:100240000022F6E710B513460A4604461946FFF7A2
:10025000F0FF204610BD202A04DB203A00FA02F10C
:10026000002070479140C2F1200320FA03F31943A4
:1002700090407047202A04DB203A21FA02F0002146
:10028000704721FA02F3D040C2F1200291400843A6
:1002900019467047064C074D06E0E06840F0010340
:1002A00094E8070098471034AC42F6D3FFF778FF84
:1002B000F874010818750108FEE70000014800F015
:1002C000C7B80000D4050020014800F0C1B8000004
:1002D0003406002001681823CAB2103AB2FBF3F2C8
:1002E000054B6FF30901032A9B5CC36500D9091D07
:1002F0008165084670470000D874010810B50146B2
:1003000000208B698A6A4FF0C07453B1B3F5005F67
:1003100015D072B1012A0CD0022A0AD0032A09D1C1
:1003200004E01AB1012A06D0022A03D1C96AC90120
:1003300000D5012010BDC96AA142FAD010BD002A23
:10034000F7D0012AF2D0022AF3D0032AF3D010BD4D
:1003500030B50468256825F480252560046863604D
:100360008368402B036803D099600068C26030BD89
:100370009A600068C16030BD0A4610B50146054864
:1003800001F00EFB002803D0BDE8104000F005B8D6
:1003900010BD000094050020704770472DE9F04122
:1003A0000446876D00F0AEFA064694F83500002545
:1003B000022806D08020606584F834500120BDE812
:1003C000F0812068016821F0160101602068416910
:1003D00021F080014161206C08B9A06C20B1206837
:1003E000016821F0080101602068016821F0010125
:1003F00001600BE000F086FA801B052806D920205A
:10040000606504F8345F03206070D8E720680068F6
:10041000C007EFD194F85C103F208840B86004F822
:10042000345F012060700020C9E790F83510022980
:1004300003D08021416501207047052180F83510E7
:100440000068016821F00101016000207047000090
:100450002DE9F84304464FF00009CDF800906348B9
:100460004FF41651A56D0068B0FBF1F72E6894F8B3
:100470005C10082000FA01F131420FD021680A68AF
:1004800052070BD50A6822F004020A6094F85C1047
:100490008840A860606D40F00100606594F85C10D1
:1004A0004FF0010808FA01F0304208D0216849698C
:1004B000090604D5A860606D40F00200606594F8FC
:1004C0005C1004208840304208D021680968890700
:1004D00004D5A860606D40F00400606594F85C107D
:1004E00010208840304218D021680968090714D5C7
:1004F000A86020680168490304D50068000308D596
:10050000A16C07E00168C90503D4016821F0080166
:100510000160216C09B12046884794F85C102020C6
:100520008840304231D021680968C9062DD5A860BD
:1005300094F8350005282068016806D0490347D59E
:10054000006800031DD4616C1CE021F016010160FD
:100550002068416921F080014161206C08B9A06CDC
:1005600020B12068016821F00801016094F85C1056
:100570003F208840A86084F8349084F83580216D4D
:100580001FE0E16B09B120468847606D00282BD041
:10059000606DC00714D0052084F83500206801681C
:1005A00021F0010101600098401C0090B84203D87E
:1005B00020680068C007F6D184F8349084F835804C
:1005C000E16C002910D001B02046BDE8F043084797
:1005D0000168C905D5D4016821F01001016084F8D3
:1005E000349084F83580CCE7BDE8F883140000200F
:1005F0002DE9F041044600F085F906465CB100257E
:1006000084F83450022084F835002068016821F015
:10061000010101600DE00120BDE8F08100F072F9F8
:10062000801B052805D920206065032084F835004B
:10063000F2E720680068C007F0D1226811682048FE
:100640000140D4E901031843D4E903363343184386
:1006500063691843A3691843E3691843236A18437D
:100660000843616A042903D1D4E90B1319430843F1
:10067000106020684069666A20F0070130460E432A
:10068000012704280CD1A06A0643E06A40B1204645
:10069000FFF734FE20B14020606584F83570BAE77A
:1006A000206846612046FFF715FE94F85C203F2144
:1006B00091408160656584F835700020ACE70000EA
:1006C0003F8010F02DE9F0410446866D90F834002B
:1006D000002501280DD0012084F8340094F83570ED
:1006E0000020012F07D084F8340002252846BDE8F9
:1006F000F0810220FBE7022784F835706065204610
:10070000FFF726FE94F85C103F208840B060206818
:10071000016841F016010160206C20B12068016879
:1007200041F0080101602068016841F001010160A9
:10073000DCE7000070B5044600F0E4F80546601CF4
:1007400002D004480078044400F0DCF8401BA042CA
:10075000FAD370BD080000202DE9F84F00224FF0B9
:10076000010803254FF00F0E0B6808FA02F423402E
:10077000A34271D14E68012E05D0022E03D0112E56
:1007800001D0122E15D18668570005FA07FC26EA1B
:100790000C06D1F80CC00CFA07FC4CEA060CC0F8A9
:1007A00008C04668A6430C79C4F30014944034434F
:1007B0004460C668570005FA07FC8C6826EA0C06F8
:1007C000BC403443C4604C68022C01D0122C13D1BD
:1007D000D40800EB8404A346D4F8209054074FEAD1
:1007E000D46A0EFA0AF629EA06090E6906FA0AF62A
:1007F00046EA0906CBF8206004680E7924EA0C0466
:1008000006F00306BE40264306604C68E40056D559
:100810002E4C266846F480462660246822F00306A3
:1008200004F4804400942A4C3444A446D4F8084884
:100830009607370F0EFA07F6B443264EB04201D1A1
:10084000002615E0244EB04201D1012610E0234ECF
:10085000B04202D102260BE031E0214EB04201D17C
:10086000032605E01F4EB04201D1042600E0072612
:10087000BE402643CCF808681B4E34684F689C4342
:10088000FF0300D51C433460174E361D34684F6893
:100890009C43BF0300D51C433460134E08363468B4
:1008A0004F689C43FF0200D51C4334600E4E0C364B
:1008B00034684F689C43BF0200D51C433460521C0F
:1008C000102AFFF451AFBDE8F88F00004438024011
:1008D00000300140000002400004024000080240D5
:1008E000000C024000100240003C0140426931EA25
:1008F000020200D10904816170470AB18161704729
:100900000904FBE7014880687047000008000020E8
:100910000248816802781144816070470800002015
:100920000B4810B5016841F400710160016841F4A1
:1009300080610160016841F480710160032000F072
:1009400077F8002000F006F800F024F8002010BD31
:10095000003C024070B50D4D04464FF47A71287882
:10096000B1FBF0F00A490968B1FBF0F000F02CFC93
:1009700048B9102C07D200222146501E00F038F84A
:1009800000206C6070BD012070BD000008000020D8
:10099000140000200E4808B5016841F48041016050
:1009A000006800F4804000900948001F016841F091
:1009B000805101600068002200F0805000901146D4
:1009C000052000F015F8BDE80840052000F002B849
:1009D00044380240002809DB00F01F020121914049
:1009E0004009800000F1E020C0F8001170470000CD
:1009F000F0B40E4B1B680C46C3F30223C3F107058A
:100A0000042D00D90425191D072901D2002300E077
:100A1000DB1E012606FA05F1491E214099409E4041
:100A2000761E16403143F0BC01F054BF0CED00E0DF
:100A3000064900F0070208684FF6FF03184040EA35
:100A40000220034A10430860704700000CED00E0EC
:100A50000000FA052DE9F0470E46050065D0DFF8E5
:100A60001481D8F80000F7B200F00F00B04207D2AE
:100A700088F80070D8F8000000F00F00B04254D1A0
:100A800028683D4C810712D5400703D5206840F403
:100A9000E05020602878000703D5206840F46040CB
:100AA00020602068A96820F0F000084320602878C2
:100AB000C0072DD0304968680839012812D00228B3
:100AC00013D0032811D00968890700292DDA21687D
:100AD00021F0030101432160FFF714FF814641F239
:100AE000883A0EE009688903EFE709688901ECE7B5
:100AF000FFF708FFA0EB0901514502D90320BDE82B
:100B0000F0872068696800F00C00B0EB810FEFD12E
:100B1000D8F80010404601F00F01B14207D9077024
:100B2000006800F00F00B04201D00120E7E728780C
:100B3000400705D52068E96820F4E05008432060AC
:100B40002878000706D52068296920F4604040EA2B
:100B5000C100206000F038F82168084AC1F3031191
:100B6000515CC8400649086006480068FFF7F2FE7D
:100B70000020C4E7003C024008380240E07401084D
:100B8000140000200C000020044805490068096892
:100B9000044AC1F38221515CC84070471400002010
:100BA00008380240F07401080448054900680968E3
:100BB000044AC1F34231515CC84070471400002020
:100BC00008380240F0740108154810B5006810F0AC
:100BD0000C02144813D04110042A0FD0082A0ED159
:100BE0000F4C241F2268236802F03F025B0207D5E6
:100BF0002068C0F38810A0FB010106E0084610BD84
:100C00002168C1F38811A1FB00010023FFF7E0FA7E
:100C10002168C1F30141491C4900B0FBF1F010BD4E
:100C2000083802400024F4002DE9F84F04006ED08B
:100C30002078DFF83C93C007A9F104054AD009F1F8
:100C400004000168C1F38101012908D00068C0F3E4
:100C5000810002280AD1D9F80000400206D5286890
:100C6000800337D560680028E1D033E06068B0F5D4
:100C7000803F10D0B0F5A02F286810D020F480302D
:100C80002860286820F4802028606068A8B1FFF7F9
:100C900039FE06460DE0286840F48030F4E740F461
:100CA00080202860F7E700BFFFF72CFE801B642838
:100CB00073D828688003F7D50CE0FFF723FE0646BB
:100CC00005E000BFFFF71EFE801B6428F0D82868EF
:100CD0008003F7D42078DFF89C8280074FF0000A69
:100CE0003ED5A348001D016811F00C0F08D0006824
:100CF000C0F3810002280BD1D9F80000400207D4CC
:100D00002868800716D5E068012800D112E02BE1A1
:100D1000E068B8B10120C8F80000FFF7F3FD06460F
:100D200005E000BFFFF7EEFD801B0228C0D8286851
:100D30008007F7D52868216920F0F80040EAC10053
:100D400028600DE0C8F800A0FFF7DCFD064604E0CF
:100D5000FFF7D8FD801B02281FD828688007F7D42A
:100D60002078000722D5824E83486169703671B1C0
:100D700001210160FFF7C6FD074604E0FFF7C2FD51
:100D8000C01B022809D830688007F7D50EE0C0F8EC
:100D900000A0FFF7B7FD074605E082E0FFF7B2FDD0
:100DA000C01B02287DD830688007F7D42078400720
:100DB00068D5DFF8BCB100270BF13C0BDBF8000075
:100DC000C0000BD4DBF8001041F08051CBF80010CC
:100DD000DBF80000012700F080500090674E30687B
:100DE000C00510D4306840F480703060FFF78AFD91
:100DF000009005E0FFF786FD0099401A022850D8C0
:100E00003068C005F6D55A4EA0686C3601280FD060
:100E10000528306810D020F001003060306820F0E4
:100E200004003060A068B8B1FFF76CFD00900FE0DF
:100E3000306840F00100F4E740F004003060F7E76C
:100E4000FFF760FD0099411A41F28830814266D86F
:100E500030688007F4D50EE0FFF754FD009007E0FE
:100E6000FFF750FD0099411A41F28830814256D86F
:100E700030688007F4D42FB1DBF8001021F08051E6
:100E8000CBF80010A069C8B33949091D0968C1F33E
:100E9000810102294AD00228504607D0C8F86000D4
:100EA00000E03CE0FFF72EFD04463BE04746C8F873
:100EB0006000FFF727FD064605E000BFFFF722FDB3
:100EC000801B02282BD828688001F7D4D4E90701B9
:100ED0000843A16A2A4A490802EB0141626A41EAD1
:100EE0008211084394F82C1040EA0161C9F80010FF
:100EF00001203866FFF706FD044606E036E000BF35
:100F0000FFF700FD001B022809D828688001F7D5EB
:100F10002CE000BFFFF7F6FC001B022802D90320DB
:100F2000BDE8F88F28688001F4D41FE00128F7D0CD
:100F3000D9F80000E26900F48001914214D1226ADC
:100F400000F03F0191420FD147F6C071626A014043
:100F5000914209D1A26A00F44031914204D1E16A80
:100F600000F07060884201D00120D9E70020D7E767
:100F70000438024000004742800E474200700040A3
:100F80000000FFFF70B5040005D00025A56294F8AD
:100F9000510010B106E0012070BD84F85050204689
:100FA00000F030F8022084F851002068016821F038
:100FB00040010160D4E901010843D4E9031211435F
:100FC000084361690843218B01F400710843E1691A
:100FD0000843216A0843A16A084321680860A069A0
:100FE000042101EA1040616A0843216848602068D2
:100FF000C16921F40061C1616565012084F8510077
:10100000002070BD10B586B0044614216846FFF775
:1010100017F913492068884220D11248002102683C
:1010200042F400420260006800F4004005900D4860
:101030001038026842F002020260006800F002000C
:101040000590282000900220CDE9010103200390A3
:101050000620049069460448FFF77EFB06B010BDE9
:10106000003C004040380240000402402DE9F84FA7
:10107000044690F8500000271D4616468946012870
:101080000DD04FF0010B84F850B0FFF73BFC8046C9
:1010900094F85100BA46012804D002278EE00220BD
:1010A000BDE8F88FB9F1000F7DD0002E7BD0032072
:1010B00084F85100C4F854A0C4F83090A686E6869F
:1010C000C4F838A0A4F83CA0A4F83EA0C4F844A0FA
:1010D000C4F840A0A068B0F5004F04D120680168B2
:1010E00041F48041016020680168490603D4016829
:1010F00041F040010160E068B0F5006F606803D026
:1011000030B3012E24D040E008B1012E1CD1206B59
:1011100021680088C86006E020688168890709D5D1
:10112000216B0988C160206B801C2063E08E401E0B
:10113000E08609E0FFF7E6FBA0EB0800A84202D337
:10114000681C01D031E07DB3E08E0028E4D11FE0BF
:10115000206B21680078087306E0206881688907A1
:1011600009D5216B09780173206B401C2063E08E48
:10117000401EE08609E0FFF7C5FBA0EB0800A8428F
:1011800002D3681C01D010E075B1E08E0028E4D1D4
:1011900042462946204600F0FBFF08B1202060654A
:1011A000A06820B107E008E0FFE7032706E0206819
:1011B000C16880680090606D00B1012784F851B06B
:1011C00084F850A038466BE710B5401EB0F1807F20
:1011D00001D3012010BD4FF0E02460610F216017A2
:1011E00001F078FB0020A06107202061002010BDE5
:1011F0007047704710B590F83C20012A22D0012298
:1012000080F83C20CA688C6822F4407222434C6803
:1012100022F4806222430C6822F4006222430C69AB
:1012200022F4805222434C6922F400522243C969BD
:10123000002322F480420A4301684A6480F83C306B
:10124000002010BD022010BD70B590F83C20012A8E
:101250002CD0012480F83C40022280F83D20036815
:101260005A689D6822F070060A6832435A60104B33
:1012700002689A420ED0B2F1804F0BD00D4B9A42C9
:1012800008D00D4B9A4205D00C4B9A4202D00C4B21
:101290009A4204D1496825F080031943916080F88F
:1012A0003D40002180F83C10084670BD022070BD12
:1012B000000001400004004000080040000C004015
:1012C00000400140704770B50446006801694FF066
:1012D0000005C943890715D4C168C943890711D4DA
:1012E000E91E01610120207720688069800720467F
:1012F00002D0FFF7E7FF04E000F0C4F8204600F05A
:1013000063F9257720680169C943490717D4C16883
:10131000C943490713D46FF004010161022020770B
:101320002068806910F4407F204602D0FFF7CAFF92
:1013300004E000F0A7F8204600F046F92577206881
:101340000169C943090716D4C168C943090712D402
:101350006FF008010161042020772068C0698007D0
:10136000204602D0FFF7AEFF04E000F08BF82046E5
:1013700000F02AF9257720680169C943C90617D406
:10138000C168C943C90613D46FF010010161082078
:1013900020772068C06910F4407F204602D0FFF714
:1013A00091FF04E000F06EF8204600F00DF925777B
:1013B00020680169C943C90708D1C168C943C90781
:1013C00004D1891E0161204600F03AF920680169C4
:1013D000C943090609D4C168C943090605D46FF099
:1013E000800101612046FFF703FF20680169C943BE
:1013F000490609D4C168C943490605D46FF04001C4
:101400000161204600F01DF920680169C943890681
:101410000BD4C168C943890607D46FF0200101616C
:101420002046BDE87040FFF7E4BE70BD10B586B041
:10143000044614216846FEF703FF0F4920688842DE
:1014400017D10E480021026842F0010202600068D4
:1014500000F0010005904FF4807000900220CDE96B
:101460000101032003900120049069460448FFF71E
:1014700073F906B010BD0000000001403038024092
:1014800000000240704770B5044690F83C000D46DD
:1014900001280DD0012684F83C60022084F83D002C
:1014A00042B1042A18D0082A2AD00C2A4DD139E09A
:1014B000022070BD206800F093FF2068816941F030
:1014C000080181612068816921F00401816120683F
:1014D00081692A69114311E0206800F0A9FF2068A2
:1014E000816941F4006181612068816921F4806132
:1014F0008161206881692A6941EA0221816124E0D1
:10150000206800F0C1FF2068C16941F00801C16195
:101510002068C16921F00401C1612068C1692A699C
:10152000114311E0206800F0DBFF2068C16941F43D
:101530000061C1612068C16921F48061C1612068D6
:10154000C1692A6941EA0221C16184F83D60002035
:1015500084F83C0070BD10B5040003D094F83D0041
:1015600010B107E0012010BD002084F83C002046A7
:1015700000F00CF8022084F83D00211D206800F0E6
:10158000D5FE012084F83D00002010BD08B500689C
:101590000B49884212D10B48016841F001010160FA
:1015A0000068002200F00100009011461B20FFF7A8
:1015B0001FFABDE808401B20FFF70CBA08BD000069
:1015C000000001404438024001210148FFF78EB974
:1015D0000000024010B50268044631B1042908D069
:1015E000082922D00C2908D123E0D06840F002005D
:1015F00002E0D06840F00400D0600122206800F0D2
:10160000E1FE0E492068884203D1416C41F400415B
:1016100041642068816801F00701062903D0016850
:1016200041F001010160002010BDD06840F00800C9
:10163000E2E7D06840F01000DEE700000000014063
:101640007047704710B504460068416994F8392026
:10165000C1F3C011212A0BD151B1416921F08001A0
:101660004161206B08B1FEF799FE204600F0D4FFDF
:101670002068416994F83A20C1F38011222A0BD1E5
:1016800051B1416921F040014161606B08B1FEF741
:1016900085FE204600F0B2FF002010BD704700001C
:1016A00070B5026804461068D168536910F00F0FD6
:1016B00052D003F0010501F490762E435FD0C207AB
:1016C00005D0CA0503D5E26B42F00102E26342078E
:1016D00005D5DA0703D0E26B42F00202E26382072B
:1016E00005D5DA0703D0E26B42F00402E263020799
:1016F00007D501F020022A4303D0E26B42F0080232
:10170000E263E26B002A33D0800604D5880602D556
:10171000204600F08AFF20684069E16BC0F380102A
:10172000090700D428B3204600F068FF206841690B
:1017300049061AD5416921F040014161606BA0B1B1
:101740001B490165606BFEF770FE002810D0606BCE
:10175000016DBDE870400847830610D58B060ED595
:101760002046BDE8704000F060BF2046FFF796FFBE
:1017700070BD2046FFF792FF0020E06370BD0306B6
:1017800006D50B0604D52046BDE8704001F02CB804
:101790004006F3D54806F1D5D168204621F0400136
:1017A000D160202184F8391000F03AF970BD0000B2
:1017B0002525000870B5040004D094F839000025F0
:1017C00010B106E0012070BD84F83850204600F0CA
:1017D00023F8242084F839002068C16821F40051DE
:1017E000C160204600F06CFF2068016921F490413F
:1017F00001612068416921F02A0141612068C168C6
:1018000041F40051C160E563202084F8390084F878
:101810003A00002070BD00002DE9F04387B0064675
:1018200014216846FEF70CFD3149306888425BD1CF
:1018300030480024016841F010010160006800F0A8
:10184000100005902B481438016841F00101016037
:101850000068694600F0010005904FF4C0600090F8
:101860000220CDE9010403200390072004902248C0
:10187000FEF772FF224D21484FF000672860C5E94E
:1018800001744FF48068C5E903486C614FF48039F6
:10189000AC61C5E9074928466C62FEF7A9FE08B1AC
:1018A000FEF77BFD7563AE63154D144860357830E7
:1018B000E5E802074020A5E81101114845F8144960
:1018C0006030AC61C5E907496C62FEF791FE08B172
:1018D000FEF763FD3563002211462520AE63FFF756
:1018E00087F82520FFF776F807B0BDE8F083000001
:1018F00000100140443802400000024040640240B1
:10190000D4050020F8B5044690F83A0020283CD1D0
:10191000C1B3BAB394F83800012836D0012084F856
:101920003800A162A2850025E563222084F83A00F0
:10193000636B1748D863636B16481864636B16486B
:10194000D864606B134605650846666B21680246DD
:101950003046091DFEF7B6FE206801684168009117
:1019600084F83850C16841F48071C16020684169D1
:1019700041F0010141612068416941F0400141614C
:101980000020F8BDFFE70120FBE70220F9E7000097
:101990007F250008BB2500083525000870477047E3
:1019A00070B5044690F83900202830D169B362B38D
:1019B00094F8380001282AD0012084F838002162E8
:1019C000A284E2840025E563212084F83900236B9A
:1019D0001048D863236B10481864236B0F48D864F1
:1019E000206B134605652668206B321DFEF76AFEE4
:1019F00021686FF04000086084F838502068416921
:101A000041F080014161002070BD012070BD0220C5
:101A100070BD0000C5250008F32500083525000825
:101A200070477047FEE72DE9F04107461C46154612
:101A30000E462A2000F06CFA2837B8B200F084FA7B
:101A40002835A8B200F080FA2B2000F061FA353674
:101A5000B0B200F079FA3534A0B200F075FABDE802
:101A6000F0412C2000F054BA2DE9F047141A5F1A07
:101A7000641C7F1C7C43002564004FF49068089E22
:101A8000444502D9A4F590654446FFF7CCFF370AD8
:101A9000DFF84C90DFF84CA0F6B20020494606E093
:101AA00001F8107001EB4002401C567080B2B0EBA0
:101AB000540FF5D3012210215046FEF71EFFA1B2AC
:101AC000074800F0F1F8002D07D0454502D9A5F5EB
:101AD0009065E2E72C460025DFE7BDE8F0870000CF
:101AE000180000200004024010B56E4C0022802136
:101AF0002046FEF702FF7820FEF71CFE0022402160
:101B00002046FEF7FAFE7820FEF714FE012240215F
:101B10002046FEF7F2FE7820FEF70CFE112000F0C2
:101B2000F7F97820FEF706FE362000F0F1F9702074
:101B300000F0FCF93A2000F0EBF9052000F0F6F98E
:101B4000B22000F0E5F90C2000F0F0F90C2000F0D4
:101B5000EDF9002000F0EAF9332000F0E7F9332036
:101B600000F0E4F9B72000F0D3F9352000F0DEF9F9
:101B7000BB2000F0CDF9192000F0D8F9C02000F00A
:101B8000C7F92C2000F0D2F9C22000F0C1F90120E1
:101B900000F0CCF9C32000F0BBF9122000F0C6F928
:101BA000C42000F0B5F9202000F0C0F9C62000F0F4
:101BB000AFF90F2000F0BAF9D02000F0A9F9A42065
:101BC00000F0B4F9A12000F0B1F9E02000F0A0F994
:101BD000D02000F0ABF9042000F0A8F90D2000F0AF
:101BE000A5F9112000F0A2F9132000F09FF92B2095
:101BF00000F09CF93F2000F099F9542000F096F98C
:101C00004C2000F093F9182000F090F90D2000F01E
:101C10008DF90B2000F08AF91F2000F087F92320AE
:101C200000F084F9E12000F073F9D02000F07EF993
:101C3000042000F07BF90C2000F078F9112000F06E
:101C400075F9132000F072F92C2000F06FF93F2095
:101C500000F06CF9442000F069F9512000F066F9B9
:101C60002F2000F063F91F2000F060F91F2000F022
:101C70005DF9202000F05AF9232000F057F92120C7
:101C800000F046F9292000F043F900218623EF22D5
:101C90000846FFF7C8FE20460122BDE8104080211B
:101CA000FEF72BBE0004024000F068BA2DE9F05F99
:101CB000203AD7B21C46F022A2EB540282425BD3F8
:101CC000C4F187028A4257DB0A19521E93B200EB15
:101CD0005402521E92B2FFF7A6FE3F4E102C1AD0AD
:101CE000202C18D00C2C49D0182C45D13B4907EB9F
:101CF00047004FF0300A002401EB00194FEA0608B4
:101D000019F80460E00756D004270025300654D5A2
:101D1000B8F8000053E0600700D0012000EBD400C9
:101D2000610810FB01F000F0FF082D48002500EBD2
:101D3000071A00F5BE5000EBC71BB1461AE0102C85
:101D400009D0202C18D11BF805600027300605D5D6
:101D5000B9F8000004E01AF80560F6E7B9F80200E7
:101D600000F0F2F870067F1C060EFFB2082FEDD3CC
:101D70006D1CEDB24545E2D3BDE8F09F194807EB75
:101D800047014FF00C09002400EB8108002518F8EA
:101D90000470380601D5308800E0708800F0D4F86F
:101DA00078066D1C070EEDB2062DF2D3641CE4B26A
:101DB0004C45EBD3E0E70827A7E7B8F8020000F0AE
:101DC000C3F870066D1C060EEDB2BD429ED3641CB6
:101DD000E4B2544594D3CFE70000002068340008F3
:101DE000782E0008042A00082DE9F047044600F088
:101DF000FF0910190D46DDE908A61FFA80F85819E9
:101E000087B210E0444503D305EB0A004C4685B287
:101E1000BD420DD2534629462046FFF747FF04EB4B
:101E20005A0084B2761C3278A2F120005E28E9D9EB
:101E3000BDE8F0872DE9F04716468A199A46521EEA
:101E400093B28219521E92B2DDF82080FFF7EBFDAB
:101E50000024F508DFF83490754312E01AF8047096
:101E60000026380601D5404601E0B9F8020000F02E
:101E70006BF87806761C070EF6B2082EF1D3641CB8
:101E8000E4B2A542EAD8BDE8F087000000000020D7
:101E90002DE9F84F1C46DDE90A6915468A460746D2
:101EA0004FEAD2080DE033462A4651463846CDF86F
:101EB0000090FFF7BFFF781905FB0866641E87B224
:101EC000A4B2002CEFD1BDE8F88F000070B5144625
:101ED0000219049E1D46F02A17D84B19872B14D8D7
:101EE0005B1E521E9BB292B2FFF79DFD0122102194
:101EF0000648FEF702FD6C434FF6FF7000EA44010E
:101F00003046BDE87040FFF7CFBE70BD0004024010
:101F100001B5002210210448FEF7EFFC01216846BC
:101F2000FFF7C2FE08BD00000004024001B5012217
:101F300010210448FEF7E1FC01216846FFF7B4FEDA
:101F400008BD00000004024008B500210091010A0C
:101F50008DF800108DF80100012210210348FEF7D2
:101F6000CCFC02216846FFF79FFE08BD000402403A
:101F70000D4808B5016841F4800101600068002245
:101F800000F48000009011463A20FEF731FD3A201F
:101F9000FEF720FD002211464620FEF729FDBDE890
:101FA00008404620FEF716BD30380240F0B587B035
:101FB00014216846FEF744F921480025016841F0E4
:101FC00004010160016801F004010591016841F01C
:101FD00080010160016801F080010591016841F014
:101FE00001010160016801F001010591016841F002
:101FF000020101600068134E00F00200059001220A
:1020000007213046FEF779FC0F4F0022D0213846D9
:10201000FEF773FC01240720CDE900046946304631
:10202000CDE90245FEF798FBD020CDE9000403205E
:10203000CDE9024069463846FEF78EFB07B0F0BD99
:10204000303802400000024000040240114810B540
:102050000F4901604FF4827141604FF4004181608B
:1020600000210222C0E90312012242615202C0E9AA
:1020700006210162416281620A21C162FEF782FF8C
:10208000002803D0BDE81040FEF787B910BD00005E
:10209000003C00409804002010B592B000240F943A
:1020A0001C2108A81094FEF7CBF820216846FEF703
:1020B000C7F821481F4901600921C0E901146421C2
:1020C000C0E903148021C0E90541FFF744FA08B1D3
:1020D000FEF763F90F940FA917481094FFF7B4F8AF
:1020E00008B1FEF75AF9602008903220CDE90904C2
:1020F0000B940C940D94002208A90F480E94FFF73E
:10210000C2F908B1FEF749F900944FF40050CDE947
:102110000440029401940394694607480794FFF72A
:1021200069F808B1FEF739F90348FFF77FF912B0F3
:1021300010BD000000000140F00400200C4810B564
:102140000A4901604FF4E1314160002181600C22B5
:10215000C160C0E904128161C161FFF72BFB002857
:1021600003D0BDE81040FEF718B910BD00100140C3
:1021700094050020FEE77047704770470A46014605
:102180004FF47A730148FEF771BF000098040020F5
:1021900038B504461248134B0068B0FBF3F04FF417
:1021A0007A73584300906068B0F5827F0DD10B467A
:1021B000009200228021204600F016F870B1606D78
:1021C00040F020006065032038BD009830B1401E0B
:1021D000009020688068C0430006F6D5002038BD16
:1021E0001400002000366E012DE9F0411D4617460F
:1021F0000E460446DDF8188008E0681C06D0FEF79D
:1022000081FBA0EB0800A8420BD255B12068806882
:1022100036EA000030D00020B842EED10020BDE800
:10222000F0812068416821F0E00141606068B0F50C
:10223000827F0BD1A068B0F5004F02D0B0F5806F5F
:1022400004D12068016821F040010160A06AB0F566
:10225000005F09D12068016821F400510160206805
:10226000016841F400510160012084F85100002010
:1022700084F850000320D2E70120CDE77047FEF735
:1022800047BB000030B593B030216846FDF7D8FF5A
:1022900014210CA8FDF7D4FF18480025016841F06F
:1022A00080510160006800F080501190144801686E
:1022B00041F4404101600068022400F44040119064
:1022C00001200090000401908001CDE9064008AA99
:1022D0000420642182E813000B906846FEF7A4FCFA
:1022E0000CA90F2081E83100E002CDE90F050321A0
:1022F0000CA8FEF7AFFB13B030BD00004038024021
:10230000007000400548016841F470010160034914
:102310004FF00060803908607047000088ED00E0F1
:102320000148FEF7D0BF0000F0040020F0B50268BD
:102330001D4B1E4C9F031E4D1E4E984207D0B842A7
:1023400005D0A04203D0A84201D0B04204D122F06F
:10235000700C4A6842EA0C02984210D0B8420ED083
:10236000A0420CD0A8420AD0B04208D0124CA042E1
:1023700005D0124CA04202D0114CA04203D122F44D
:102380004074CA6822434C6922F0800222430260F2
:102390008A68C2620A688262984201D1096901634F
:1023A00001214161F0BD0000000001400004004037
:1023B00000080040000C0040004001400044014083
:1023C0000048014010B501F01F030121046A994043
:1023D0008C430462016A9A401143016210BD0000FF
:1023E00030B5026A22F001020262026A436884691F
:1023F00024F073050C682C4322F002058A682A43F6
:102400000A4DA8420BD122F00805CA6823F4407394
:102410002A434D6922F004021D438B692B4343601C
:10242000846149684163026230BD000000000140E0
:1024300030B5026A22F010020262026A43688469BF
:102440000D6824F4E64444EA05248D6822F0200255
:1024500042EA05120B4DA8420ED1CD6822F080024F
:1024600042EA05124D6923F4406343EA85038D690E
:1024700022F0400243EA8503436084614968816336
:10248000026230BD0000014030B5026A22F4807261
:102490000262036A4268C46923F4007324F073057E
:1024A0000C682C438D6843EA05230C4DA8420ED1DD
:1024B000CD6823F4006343EA05234D6922F44052BA
:1024C00042EA05128D6923F4806342EA05124260F4
:1024D000C4614968C163036230BD0000000001406F
:1024E00030B5026A22F480520262046A4268C3690B
:1024F0000D6823F4E64343EA05238D6824F4005471
:1025000044EA0534064DA84204D14D6922F48042C4
:1025100042EA85124260C36149680164046230BDC9
:102520000000014010B5806B0021C185C184FFF718
:10253000B5F810BD70B5846B2068406994F8391007
:10254000C0F3C0100025212904D118B1E58420462C
:1025500000F062F82068406994F83A10C0F38010E7
:10256000222904D118B1E585204600F047F8E06B38
:1025700040F01000E0632046FFF790F870BD10B502
:102580000146806B09680968C90513D40021C1851B
:102590000168CA6822F48072CA6001684A6922F040
:1025A00001024A6101684A6922F040024A61202121
:1025B00080F83A10FFF7F2F910BD10B5806BFFF705
:1025C000EEF910BD10B50146806B09680968C905B0
:1025D0000CD40021C18401684A6922F080024A615A
:1025E0000068C16841F04001C16010BDFFF718FAF2
:1025F00010BD10B5806BFFF714FA10BD0168CA68F2
:1026000022F49072CA6001684A6922F001024A61AC
:10261000202180F83A1070470168CA6822F0C00291
:10262000CA60202180F83910704710B590F83A1030
:10263000222901D0022010BD8168B1F5805F11D040
:102640000169002901681FD0496801F07F03816A90
:102650004A1C82620B70C18D491E0904090CC18598
:1026600018D02BE00269816A002A0268526805D0FE
:10267000D2B20A80816A491C8162ECE7C2F3080287
:102680000A80816A891CF7E74A68816A4B1C836269
:102690000A70E0E70168CA6822F02002CA60016897
:1026A000CA6822F48072CA6001684A6922F0010295
:1026B0004A61202180F83A10FFF770F9002010BD20
:1026C0002DE9F041044600680169E26821F44051B7
:1026D000114301612169A068E269084361691143FE
:1026E00008432168CA6849F20C639A430243CA60EE
:1026F00020684169A26921F4407111434161E06998
:10270000192764253226B0F5004F354A354920682F
:102710004FF0000806D0884201D0904236D1FEF733
:1027200043FA35E0884201D0904202D1FEF73CFAEC
:1027300001E0FEF729FA61684A18A0FB070148EB9F
:102740000803FDF745FD0146B0FBF5F00201B1FBC2
:10275000F5F06FF01803584301EB800006EBC00062
:10276000B0FBF5F000F0F80002EB4002B1FBF5F031
:10277000584301EB800006EBC000B0FBF5F000F021
:102780000700216810448860BDE8F081FEF7FCF97D
:1027900061688B0F8A00A0FB0701FDF719FD014658
:1027A000B0FBF5F06FF01802504301EB800006EB30
:1027B0000010B0FBF5F000F0F002B1FBF5F002EB19
:1027C0000012B1FBF5F06FF01803584301EB8000E5
:1027D00006EB0010B0FBF5F000F00F00D1E70000B1
:1027E000001401400010014090F83910212901D057
:1027F000022070478168B1F5805F016A0BD04A1CE6
:102800000262026809785160C18C491E0904090CF2
:10281000C1840ED017E009880268C1F30801516035
:1028200001690029016A02D0491C0162ECE7891C98
:10283000FBE70168CA6822F08002CA600068C168CC
:1028400041F04001C16000207047000010B500F069
:1028500023F8BDE810400148FEF722BF9405002090
:10286000FEE7000010B50A4C21780A48FDF784FD08
:1028700000202070607021780648FDF7E1FC0549D2
:10288000BDE81040642201F16400FFF73BB800008E
:1028900004000020300500200C4808B500680168DD
:1028A000C1F3001100290FD001684068009007486B
:1028B000FEF7C8FE0548403000684068C0F164017A
:1028C000034801700121417008BD000094050020FB
:1028D000040000200907090E002804DB00F1E020B5
:1028E00080F80014704700F00F0000F1E02080F83D
:1028F000141D704702E008C8121F08C1002AFAD14F
:1029000070477047002001E001C1121F002AFBD16F
:10291000704700001CB5FEF703F8FFF7B3FCFFF7A4
:1029200045FBFFF725FBFFF791FBFFF707FCFFF7E0
:10293000B3FB26480068C16841F01001C160642201
:1029400023492248FEF7DEFFFFF7CEF8214D4EF671
:102950005B70214C288000202080204800210090BE
:102960008723F0220846FFF7B1FA288800907A23DF
:10297000E0220C210F20FFF777F8202518A0CDE9E1
:1029800000502B46C8220D211420FFF72DFA218874
:102990001648CDE90001042320222D211420FFF741
:1029A00077FA13A0CDE900502023C8224D2114202E
:1029B000FFF71AFA00211148FEF70CFE104C2078A0
:1029C0000028FCD0FFF74EFFF9E700009405002037
:1029D000300500200200002000000020B87500082B
:1029E00053544D333246343131000000D87201085F
:1029F00050574D5F5445534500000000F00400203F
:102A000005000020000000000000000000000000A1
:102A10000000202020202000002000002828500056
:102A2000000000000000000000005050F85050F876
:102A300050500000002070A8A0603028A87020002E
:102A4000000048A8B0A8743454480000000020508A
:102A5000506CA8A89468000040408000000000006E
:102A60000000000008101020202020201010080076
:102A700040202010101010102020400000000020E6
:102A8000A87070A82000000000000010107C10103A
:102A90000000000000000000000000004040800036
:102AA0000000000000FC000000000000000000002A
:102AB0000000000000400000000408081010202062
:102AC00040408000000070888888888888700000F6
:102AD000000020602020202020700000000070886E
:102AE0008810204080F80000000070880830080836
:102AF0008870000000001030305090F8103800004E
:102B00000000F88080F088088870000000003048DD
:102B100080B0C8888870000000007808101020205D
:102B2000202000000000708888708888887000006D
:102B3000000070888898680890600000000000001D
:102B40002000000000200000000000000020000025
:102B50000020200000000810204040201008000045
:102B600000000000FC00FC0000000000000040200D
:102B700010080810204000000000708888102020F5
:102B8000002000000000384494B4B4B84438000079
:102B9000000020203050507848CC00000000F04861
:102BA0004870484848F000000000788880808080A5
:102BB000887000000000F0484848484848F000008D
:102BC0000000F8485070504048F800000000F848F5
:102BD0005070504040E000000000384880809C88E1
:102BE000483000000000CC484878484848CC0000F5
:102BF0000000F8202020202020F8000000007C1099
:102C000010101010101090E00000EC485060504878
:102C100048EC00000000E0404040404044FC000020
:102C20000000DCD8D8D8A8A8A8AC00000000DC4878
:102C30006868585848E800000000708888888888CC
:102C4000887000000000F0484870404040E00000FC
:102C500000007088888888E8987018000000F048A4
:102C60004870504848EC00000000788880601008E8
:102C700088F000000000F8A820202020207000002C
:102C80000000CC4848484848483000000000CC4884
:102C900048505030202000000000A8A8A8A870507C
:102CA000505000000000D8505020205050D8000054
:102CB0000000D85050502020207000000000F890F4
:102CC0001020204048F8000038202020202020201C
:102CD000202038000040402020201010100808005C
:102CE0007010101010101010101070002050000004
:102CF00000000000000000000000000000000000D4
:102D0000000000FC40200000000000000000000067
:102D10000000000000304838483C000000C040403F
:102D200040704848487000000000000000384840EB
:102D3000483000000018080808384848483C00009F
:102D400000000000003048784038000000182420BF
:102D5000207820202078000000000000003C48304F
:102D60004038443800C040404070484848EC0000BB
:102D700000202000006020202070000000101000C3
:102D800000301010101010E000C04040405850605B
:102D900050C8000000E020202020202020F8000063
:102DA0000000000000F0A8A8A8A800000000000093
:102DB00000F0484848EC000000000000003048489F
:102DC000483000000000000000F04848487040E033
:102DD00000000000003848484838081C0000000087
:102DE00000D8604040E00000000000000078403063
:102DF0000878000000000020207820202038000003
:102E00000000000000D84848483C000000000000D6
:102E100000D85050202000000000000000A8A8703A
:102E2000505000000000000000D8502050D8000092
:102E30000000000000CC4848301020C00000000016
:102E4000007810202078000018101010103010109A
:102E5000101018001010101010101010101010107A
:102E6000602020202010202020206000689000009A
:102E70000000000000000000000000000000000052
:102E800000000000000000000000001010101010F2
:102E90001010000010100000001224244800000050
:102EA00000000000000000000000001212127E244A
:102EB00024247E24242400000000083C4A4A483888
:102EC0000C0A0A4A4A3C080800000044A4A8A8B01A
:102ED000541A2A2A4A44000000000030484848504A
:102EE0006EA49498897600000060202040000000C5
:102EF000000000000000000000020408081010108C
:102F000010101008080402000040201010080808E3
:102F10000808081010204000000000001010D638EB
:102F200038D610100000000000000000000808085B
:102F30007F080808000000000000000000000000FA
:102F400000000000602020400000000000000000A1
:102F50007E000000000000000000000000000000F3
:102F60000000000060600000000002040404080883
:102F7000101010202040400000000018244242425F
:102F800042424242241800000000000838080808A5
:102F900008080808083E00000000003C42424202C7
:102FA00004081020427E00000000003C424202045F
:102FB00018040242423C0000000000040C0C1424DF
:102FC00024447F04041F00000000007E404040783D
:102FD0004402024244380000000000182440405CD3
:102FE00062424242221C00000000007E42040408AB
:102FF00008101010101000000000003C4242422453
:1030000018244242423C0000000000384442424240
:10301000463A0202241800000000000000001818C0
:103020000000000018180000000000000000001060
:103030000000000000101010000000020408102022
:1030400040201008040200000000000000007E0084
:10305000007E000000000000000000402010080476
:1030600002040810204000000000003C42426204BC
:10307000080808001818000000000038445AAAAADE
:10308000AAAAAA5C423C00000000001010182828E0
:10309000243C444242E70000000000F844444478E5
:1030A0004442424244F800000000003E4242808018
:1030B0008080804244380000000000F844424242D0
:1030C0004242424244F80000000000FC4248487876
:1030D0004848404242FC0000000000FC424848785A
:1030E0004848404040E000000000003C44448080EC
:1030F000808E844444380000000000E7424242428F
:103100007E42424242E700000000007C1010101096
:1031100010101010107C00000000003E0808080885
:1031200008080808080888F0000000EE44485070BD
:103130005048484444EE0000000000E04040404059
:103140004040404042FE0000000000EE6C6C6C6CA1
:103150006C54545454D60000000000C762625252AE
:103160004A4A4A4646E20000000000384482828211
:103170008282828244380000000000FC42424242C7
:103180007C40404040E000000000003844828282E1
:10319000828282B24C380600000000FC4242427C2F
:1031A0004848444442E300000000003E42424020C0
:1031B00018040242427C0000000000FE9210101031
:1031C0001010101010380000000000E74242424288
:1031D00042424242423C0000000000E74242442496
:1031E0002428281810100000000000D6545454540D
:1031F000546C282828280000000000E742242418E6
:103200001818242442E70000000000EE4444282857
:1032100010101010103800000000007E8404080810
:103220001020204242FC0000001E10101010101050
:103230001010101010101E00000040202020101050
:1032400010080804040402020078080808080808A6
:10325000080808080808780000182400000000008A
:10326000000000000000000000000000000000005E
:1032700000000000000000FF0060100000000000DF
:103280000000000000000000000000000000003806
:10329000440C34444C36000000000000C04040584C
:1032A0006442424264580000000000000000001C1C
:1032B00022404040221C0000000000000602023EA6
:1032C00042424242463B0000000000000000003C39
:1032D00042427E40423C0000000000000C12107C84
:1032E00010101010107C0000000000000000003ED4
:1032F000444438403C42423C00000000C040405C36
:103300006242424242E7000000000030300000709C
:1033100010101010107C00000000000C0C00001CAD
:10332000040404040404447800000000C040404E3B
:103330004850704844EE000000000010701010105B
:1033400010101010107C000000000000000000FEB3
:103350004949494949ED000000000000000000DC37
:103360006242424242E70000000000000000003CD0
:1033700042424242423C000000000000000000D8EF
:1033800064424242645840E0000000000000001A1D
:1033900026424242261A020700000000000000EE0A
:1033A0003220202020F80000000000000000003E35
:1033B00042403C02427C0000000000000010107CF3
:1033C00010101010120C000000000000000000C6D9
:1033D00042424242463B000000000000000000EE76
:1033E000444428281010000000000000000000DB0A
:1033F000894A5A542424000000000000000000768E
:1034000024181818246E000000000000000000E7D7
:103410004224241818101060000000000000007EF4
:1034200044081010227E0000000304040404040475
:10343000080404040404030008080808080808082D
:10344000080808080808080800C0202020202020BC
:10345000102020202020C000205A0400000000007E
:10346000000000000000000000000000000000005C
:10347000000000000000000000000000000000004C
:10348000000000000000000000000000000000003C
:10349000000000000000000000000000000000002C
:1034A00006000600060006000600060006000200F0
:1034B00004000400040000000000000006000600F4
:1034C000060000000000000000000000066006602A
:1034D0000CC0198011002200000000000000000054
:1034E00000000000000000000000000000000000DC
:1034F00000000000000000000000000000000000CC
:1035000008400840084008407FE07FE010401080FD
:103510001080108010807FE07FE02080208020805D
:1035200020800000000000000000000000000200F9
:1035300002000F801AC032C033C032001A000E00E1
:1035400007000380038002C032C03AC032C012803C
:103550000F00020002000000000000000000000058
:10356000708050808900890089008A008A005C0090
:1035700075C005400A200A20122012201220214086
:1035800021C000000000000000000000000000005A
:103590001C0036003600360036003600340019E0D4
:1035A00038805880CC80CC80C680C700C310639020
:1035B0003CE0000000000000000000003000380087
:1035C00008000800100020000000000000000000BB
:1035D00000000000000000000000000000000000EB
:1035E000000000000000000000000000002000407B
:1035F0000080010001000200020004000400040039
:1036000004000400040004000200020001000100A4
:10361000008000400020000000000000400020006A
:10362000100008000800040004000200020002006C
:10363000020002000200020004000400080008006A
:10364000100020004000000000000000000000000A
:1036500000000000020003000200623072F00B80E4
:103660000F807AF0623002000200020000000000C9
:10367000000000000000000000000000000000004A
:103680000000000000000200020002000200020030
:103690007FF00200020002000200020000000000B1
:1036A000000000000000000000000000000000001A
:1036B000000000000000000000000000000000000A
:1036C0000000000000000000000000003000380092
:1036D00008000800100020000000000000000000AA
:1036E00000000000000000000000000000000000DA
:1036F0007FE000000000000000000000000000006B
:1037000000000000000000000000000000000000B9
:1037100000000000000000000000000000000000A9
:103720000000000000000000000000003800380029
:1037300038000000000000000000000000200060D1
:10374000004000C000800080010001000200020073
:1037500006000400040008000800100010003000FB
:103760002000600040000000000000000000000099
:1037700000000F00198030C030C060606060606081
:103780006060606060606060606030C030C0198000
:103790000F0000000000000000000000000000001A
:1037A000000002003E0006000600060006000600BB
:1037B00006000600060006000600060006000600D9
:1037C0003FC00000000000000000000000000000FA
:1037D00000001F00218040C060C060C000C00080A9
:1037E00001800300060004000800104020406040F3
:1037F0007FC000000000000000000000000000008A
:1038000000001E0063006180618001800180030070
:103810000E000180008000C000C060C060C06180F8
:103820001F00000000000000000000000000000079
:1038300000000180018003800580058009801180DF
:103840001180218041807FF0018001800180018012
:1038500007E0000000000000000000000000000081
:1038600000003FC0200020002000200020002F008A
:10387000318020C000C000C060C060C04180218095
:103880001F00000000000000000000000000000019
:103890000000078018C030C0300020006000678042
:1038A00068C070606060606060602060304018C018
:1038B0000F000000000000000000000000000000F9
:1038C00000001FE030602040208000800080010068
:1038D00001000200020002000600060006000600C9
:1038E00006000000000000000000000000000000D2
:1038F00000001F8030C0606060606060304038C091
:103900000F00138030C0606060606060606030C035
:103910000F80000000000000000000000000000018
:1039200000000F00308030C0604060606060606008
:1039300060E031601E60006000C000C030803180F7
:103940001E00000000000000000000000000000059
:103950000000000000000000000000000700070059
:103960000700000000000000000000000700070042
:103970000700000000000000000000000000000040
:10398000000000000000000000000000060006002B
:103990000000000000000000000000000000060021
:1039A0000600020004000400000000000000000007
:1039B0000020004000800100020004000800100008
:1039C00020001000080004000200010000800040F8
:1039D00000200000000000000000000000000000C7
:1039E0000000000000000000000000007FE0000078
:1039F000000000007FE00000000000000000000068
:103A000000000000000000000000000000000000B6
:103A100020001000080004000200010000800040A7
:103A20000020004000800100020004000800100097
:103A30002000000000000000000000000000000066
:103A4000000007C01860203020303030303000E0F7
:103A500001800200020002000000000007000700D1
:103A6000070000000000000000000000000000004F
:103A7000070018C0304033A026A066A065A06D20C6
:103A80006D206D206D206D4027803020304018C0A3
:103A90000F00000000000000000000000000000017
:103AA0000000060006000A000B00090009001100D2
:103AB000118010801F8020C020C020404040406006
:103AC000F0F0000000000000000000000000000016
:103AD00000007F0031C030C030C030C030C0318005
:103AE0003F0030C03040306030603060306030C007
:103AF0007F800000000000000000000000000000C7
:103B0000000007C018C03060302020206000600036
:103B1000600060006000600060203020304018C00D
:103B20000F00000000000000000000000000000086
:103B30000000FE00318030C030C030603060306046
:103B40003060306030603060306030C030C0318014
:103B5000FE00000000000000000000000000000067
:103B60000000FFC060C06020602060006100610054
:103B70007F006100610061006000602060206040A3
:103B8000FFC0000000000000000000000000000076
:103B90000000FFC060C06020602060006100610024
:103BA0007F006100610061006000600060006000F3
:103BB000F80000000000000000000000000000000D
:103BC00000000F001880304030402040600060004E
:103BD0006000600063F060C060C030C030C018C0DA
:103BE0000F000000000000000000000000000000C6
:103BF0000000F0F060606060606060606060606065
:103C00007FE0606060606060606060606060606015
:103C1000F0F00000000000000000000000000000C4
:103C200000003FC006000600060006000600060071
:103C30000600060006000600060006000600060054
:103C40003FC0000000000000000000000000000075
:103C500000001FE003000300030003000300030053
:103C6000030003000300030003000300030003003C
:103C70000300630066003C0000000000000000003C
:103C80000000F3C0618063006200640068006C00A3
:103C9000740076006200630061006180608060C033
:103CA000F1E0000000000000000000000000000043
:103CB0000000F800600060006000600060006000CC
:103CC0006000600060006000600060206020604074
:103CD000FFC0000000000000000000000000000025
:103CE0000000E0E061C061C071C071C072C072C00C
:103CF00052C05AC05AC05CC04CC04CC04CC048C036
:103D0000E1E00000000000000000000000000000F2
:103D1000000071F03040384038402C402C402640A4
:103D2000264022402340214021C021C020C020C085
:103D3000F84000000000000000000000000000004B
:103D400000000F00198030C030406060606060602B
:103D500060606060606060606060304030C01980AA
:103D60000F00000000000000000000000000000044
:103D70000000FF0060C06060606060606060606064
:103D800061C07F0060006000600060006000600053
:103D9000F80000000000000000000000000000002B
:103DA00000000F00198030C03040606060606060CB
:103DB00060606060606060606E60324033C0198037
:103DC0000F0001E000C00000000000000000000043
:103DD0000000FF8060C0606060606060606060C024
:103DE0007F00620063006100618060C060C060604D
:103DF000F070000000000000000000000000000063
:103E000000001F4030C060406040600070003C0017
:103E10001F0007C001C000E040604060606030C02B
:103E20000F80000000000000000000000000000003
:103E300000007FE04620861086100600060006007F
:103E40000600060006000600060006000600060042
:103E50001F800000000000000000000000000000C3
:103E6000000078E03040304030403040304030405A
:103E7000304030403040304030403040304018809A
:103E80000F00000000000000000000000000000023
:103E90000000F0E060402080208030803080110001
:103EA0001100190019000A000A000E000C0004009D
:103EB00004000000000000000000000000000000FE
:103EC0000000EF70462042206220622026402640FB
:103ED000274027403940398019801980118011000E
:103EE00011000000000000000000000000000000C1
:103EF000000079E030801080188009000D00060075
:103F00000400060006000B0009001180108020C08C
:103F100071E0000000000000000000000000000050
:103F20000000F0F0602020403040108018801D001C
:103F30000D000E0006000600060006000600060042
:103F40001F800000000000000000000000000000D2
:103F500000003FE0304060C040800180010002006E
:103F60000200040004000800180010203020204047
:103F70007FC00000000000000000000007C0040037
:103F80000400040004000400040004000400040011
:103F90000400040004000400040004000400040001
:103FA0000400040007C00000000000000000000042
:103FB0002000200010001000080008000800040085
:103FC00004000200020003000100010000800080E4
:103FD0000040004000400020000000003E000200C1
:103FE00002000200020002000200020002000200C1
:103FF00002000200020002000200020002000200B1
:10400000020002003E0000000000060009001080CF
:1040100000000000000000000000000000000000A0
:104020000000000000000000000000000000000090
:104030000000000000000000000000000000000080
:104040000000000000000000000000000000000070
:104050000000000000000000000000000000000060
:10406000000000000000FFF0000000001800060043
:104070000000000000000000000000000000000040
:104080000000000000000000000000000000000030
:104090000000000000000000000000000000000020
:1040A0000000000000000000000000000F8030C091
:1040B00030C000C007C038C070C060C060C071D0E0
:1040C0003E70000000000000000000000000000042
:1040D00010007000300030003000300033803CC0F1
:1040E000386030603060306030603060304038C000
:1040F0002780000000000000000000000000000019
:104100000000000000000000000000000F003180EF
:10411000318061806000600060006040304030802D
:104120000F00000000000000000000000000000080
:10413000004003C000C000C000C000C01EC031C0AD
:1041400030C060C060C060C060C060C020C031E0EE
:104150001E800000000000000000000000000000C1
:10416000000000000000000000000000078018C0F0
:104170001040306030603FE03000300018201840C0
:1041800007800000000000000000000000000000A8
:10419000000003C006600C600C000C007F800C0067
:1041A0000C000C000C000C000C000C000C000C00AF
:1041B0003F80000000000000000000000000000040
:1041C0000000000000000000000000000FE01B6085
:1041D00031803180318019801F0030003F0033C0B2
:1041E00060C060C071C01F0000000000000000003F
:1041F000100070003000300030003000378038C0D0
:1042000030C030C030C030C030C030C030C030C02E
:1042100079E0000000000000000000000000000045
:104220000000060006000000000002003E0006003C
:10423000060006000600060006000600060006004E
:104240003FC000000000000000000000000000006F
:104250000000038003800000000000800F800180C8
:104260000180018001800180018001800180018046
:104270000180018033003E000000000000000000CB
:1042800010007000300030003000300031C03100CC
:104290003100320036003A0031003180308030C0C9
:1042A00079E00000000000000000000000000000B5
:1042B00002003E000600060006000600060006009A
:1042C00006000600060006000600060006000600BE
:1042D0003FC00000000000000000000000000000DF
:1042E000000000000000000000000000ECE077602B
:1042F000666066606660666066606660666066608E
:10430000FFF00000000000000000000000000000BE
:10431000000000000000000000000000778038C0AE
:1043200030C030C030C030C030C030C030C030C00D
:1043300079E0000000000000000000000000000024
:104340000000000000000000000000000F001980C5
:1043500030C06060606060606060606030C030C0CD
:104360000F0000000000000000000000000000003E
:10437000000000000000000000000000778038C04E
:1043800030603060306030603060306030C038C0E5
:104390003780300030007C0000000000000000008A
:1043A0000000000000000000000000001E4031C0BE
:1043B00030C060C060C060C060C060C020C031C09C
:1043C0001EC000C000C003E00000000000000000AC
:1043D000000000000000000000000000F9C01A60AA
:1043E0001C601800180018001800180018001800A9
:1043F000FF000000000000000000000000000000BE
:104400000000000000000000000000000FC038C0E5
:10441000304030401C000F0003C020C020C031C01D
:104420003F800000000000000000000000000000CD
:1044300000000000040004000C000C007F800C0051
:104440000C000C000C000C000C000C000C400C408C
:1044500007800000000000000000000000000000D5
:1044600000000000000000000000104071C030C0DB
:1044700030C030C030C030C030C030C030C039E093
:104480001E8000000000000000000000000000008E
:1044900000000000000000000000000078E0304054
:1044A00010801080188009000D000D000600060025
:1044B00004000000000000000000000000000000F8
:1044C000000000000000000000000000EF70462027
:1044D0006220264026403740398019801980198093
:1044E00010000000000000000000000000000000BC
:1044F0000000000000000000000000003DE0188007
:1045000008800D000600060007000900108010C09A
:1045100079E0000000000000000000000000000042
:1045200000000000000000000000000079E01080A2
:1045300010801080090009000D000600060006002A
:104540000400040024003800000000000000000007
:104550000000000000000000000000003F802180FB
:1045600023002200060004000C001840104030C058
:104570003F800000000000000000000000C00100BB
:104580000100010001000100010001000100020022
:10459000040002000100010001000100010001000F
:1045A0000100010000C00000020002000200020041
:1045B00002000200020002000200020002000200EB
:1045C00002000200020002000200020002000200DB
:1045D000020002000200020000000000300008009B
:1045E000080008000800080008000800080004008F
:1045F0000200040008000800080008000800080085
:10460000080008003000000000003800442043206B
:1046100001C00000000000000000000000000000D9
:10462000000000000000000000000000000000008A
:10463000000000000000000000000000000000007A
:10464000000000000000000000000000000000006A
:10465000000000000000000000000000000000005A
:10466000000000000000000000000000000000004A
:10467000000000000000000000000000000000003A
:10468000000000000000000000000000000000002A
:10469000000000000000000000000000000000001A
:1046A000000000000000000000000000000000000A
:1046B00000000000000000000000000000000000FA
:1046C0000000000003C003C003C003C003C003C058
:1046D00001C0018001800180018001800180018092
:1046E0000180000000000000018003C003C00180C1
:1046F00000000000000000000000000000000000BA
:1047000000000000000000000000000000000000A9
:104710000000000000000000000000000000000099
:104720000000000000000000000000000000000089
:10473000000000000000000000000000031807381F
:1047400007380E700C6018C0318021000000000096
:104750000000000000000000000000000000000059
:104760000000000000000000000000000000000049
:104770000000000000000000000000000000000039
:104780000000000000000000000000000000000029
:104790000000000000000000000000000000000019
:1047A0000000000000000000000000000000000009
:1047B00000000000000000000000000000000000F9
:1047C00000000000040804080408040804087FFE30
:1047D0007FFE7FFE0810081008100810081008104F
:1047E0007FFE7FFE7FFE183010201020102010204A
:1047F00000000000000000000000000000000000B9
:1048000000000000000000000000000000000000A8
:104810000000000000000000000000000000000098
:104820000000000000000000000000000000000088
:104830000000000000000000000000000000000078
:104840000100010003C00D30091819181938193872
:104850001D000D000F00070003C001E001F0013052
:10486000013801183918391831183130196007C06A
:104870000100010001000000000000000000000035
:104880000000000000000000000000000000000028
:104890000000000000000000000000000000000018
:1048A0000000000000000000000000000000000008
:1048B00000000000000000000000000000000000F8
:1048C0000000000038106C104420C620C640C640CE
:1048D000C640C680C68044806D38396C024402C62A
:1048E00002C604C604C608C608C60844106C1038C0
:1048F00000000000000000000000000000000000B8
:1049000000000000000000000000000000000000A7
:104910000000000000000000000000000000000097
:104920000000000000000000000000000000000087
:104930000000000000000000000000000000000077
:10494000000000000F00190031803180318031807B
:10495000310033003A001C00387C3C104C10CE1063
:10496000C620C720C320C1C0C1C260E6317C1E384A
:104970000000000000000000000000000000000037
:104980000000000000000000000000000000000027
:104990000000000000000000000000000000000017
:1049A0000000000000000000000000000000000007
:1049B00000000000000000000000000038003C0083
:1049C0003C000C000C0008003000600000000000FB
:1049D00000000000000000000000000000000000D7
:1049E00000000000000000000000000000000000C7
:1049F00000000000000000000000000000000000B7
:104A000000000000000000000000000000000000A6
:104A10000000000000000000000000000000000096
:104A20000000000000000000000000000000000086
:104A30000000000000000000000000000002000470
:104A400000080018003000200060004000C000C0D6
:104A5000018001800180018001800180018001804E
:104A6000018000C000C0004000600020003000183D
:104A70000008000400020000000000000000000028
:104A80000000000000000000000000000000000026
:104A90000000000000000000000000000000000016
:104AA0000000000000000000000000000000000006
:104AB0000000000000000000000000004000200096
:104AC000100018000C0004000600020003000300A0
:104AD00001800180018001800180018001800180CE
:104AE0000180030003000300060004000C0018000E
:104AF0001000200040000000000000000000000046
:104B000000000000000000000000000000000000A5
:104B10000000000000000000000000000000000095
:104B20000000000000000000000000000000000085
:104B30000000000000000000000000000000000075
:104B4000000000000000000000C001C001C030C62D
:104B5000388E1C9C06B001C001C006B01C9C388E6B
:104B6000318601C001C001C000000000000000004B
:104B70000000000000000000000000000000000035
:104B80000000000000000000000000000000000025
:104B90000000000000000000000000000000000015
:104BA0000000000000000000000000000000000005
:104BB00000000000000000000000000000000000F5
:104BC0000000000000000000000000800080008065
:104BD00000800080008000803FFE00800080008018
:104BE00000800080008000800000000000000000C5
:104BF00000000000000000000000000000000000B5
:104C000000000000000000000000000000000000A4
:104C10000000000000000000000000000000000094
:104C20000000000000000000000000000000000084
:104C30000000000000000000000000000000000074
:104C40000000000000000000000000000000000064
:104C50000000000000000000000000000000000054
:104C6000000000000000000038003C003C000C0088
:104C70000C00080030006000000000000000000090
:104C80000000000000000000000000000000000024
:104C90000000000000000000000000000000000014
:104CA0000000000000000000000000000000000004
:104CB00000000000000000000000000000000000F4
:104CC00000000000000000000000000000000000E4
:104CD00000000000000000007FFE00000000000057
:104CE00000000000000000000000000000000000C4
:104CF00000000000000000000000000000000000B4
:104D000000000000000000000000000000000000A3
:104D10000000000000000000000000000000000093
:104D20000000000000000000000000000000000083
:104D30000000000000000000000000000000000073
:104D40000000000000000000000000000000000063
:104D50000000000000000000000000000000000053
:104D6000000000000000000018003C003C0018009B
:104D70000000000000000000000000000000000033
:104D80000000000000000000000000000000000023
:104D90000000000000000000000000000000000013
:104DA0000000000000000000000000000000000003
:104DB00000000000000000000000000000000002F1
:104DC00000060004000C000800180010003000204D
:104DD0000060004000C0008001800100030002006C
:104DE000060004000C00080018001000300020002D
:104DF0006000400000000000000000000000000013
:104E000000000000000000000000000000000000A2
:104E10000000000000000000000000000000000092
:104E20000000000000000000000000000000000082
:104E30000000000000000000000000000000000072
:104E40000000000003C006200C30181818181808BD
:104E5000300C300C300C300C300C300C300C300C72
:104E6000300C300C1808181818180C30062003C025
:104E70000000000000000000000000000000000032
:104E80000000000000000000000000000000000022
:104E90000000000000000000000000000000000012
:104EA0000000000000000000000000000000000002
:104EB00000000000000000000000000000000000F2
:104EC00000000000008001801F80018001800180BF
:104ED00001800180018001800180018001800180CA
:104EE00001800180018001800180018003C01FF8E2
:104EF00000000000000000000000000000000000B2
:104F000000000000000000000000000000000000A1
:104F10000000000000000000000000000000000091
:104F20000000000000000000000000000000000081
:104F30000000000000000000000000000000000071
:104F40000000000007E008381018200C200C300C7E
:104F5000300C000C001800180030006000C0018008
:104F600003000200040408041004200C3FF83FF87A
:104F70000000000000000000000000000000000031
:104F80000000000000000000000000000000000021
:104F90000000000000000000000000000000000011
:104FA0000000000000000000000000000000000001
:104FB00000000000000000000000000000000000F1
:104FC0000000000007C0186030303018301830186A
:104FD000001800180030006003C0007000180008BE
:104FE000000C000C300C300C30083018183007C0A2
:104FF00000000000000000000000000000000000B1
:1050000000000000000000000000000000000000A0
:105010000000000000000000000000000000000090
:105020000000000000000000000000000000000080
:105030000000000000000000000000000000000070
:10504000000000000060006000E000E0016001601E
:1050500002600460046008600860106030602060D6
:1050600040607FFC0060006000600060006003FC46
:105070000000000000000000000000000000000030
:105080000000000000000000000000000000000020
:105090000000000000000000000000000000000010
:1050A0000000000000000000000000000000000000
:1050B00000000000000000000000000000000000F0
:1050C000000000000FFC0FFC10001000100010008A
:1050D0001000100013E0143018181008000C000C19
:1050E000000C000C300C300C20182018183007C0B1
:1050F00000000000000000000000000000000000B0
:10510000000000000000000000000000000000009F
:10511000000000000000000000000000000000008F
:10512000000000000000000000000000000000007F
:10513000000000000000000000000000000000006F
:105140000000000001E006180C18081818001000F4
:105150001000300033E0363038183808300C300C8E
:10516000300C300C300C180C18080C180E3003E002
:10517000000000000000000000000000000000002F
:10518000000000000000000000000000000000001F
:10519000000000000000000000000000000000000F
:1051A00000000000000000000000000000000000FF
:1051B00000000000000000000000000000000000EF
:1051C000000000001FFC1FFC1008301020102020E1
:1051D00000200040004000400080008001000100ED
:1051E00001000100030003000300030003000300AB
:1051F00000000000000000000000000000000000AF
:10520000000000000000000000000000000000009E
:10521000000000000000000000000000000000008E
:10522000000000000000000000000000000000007E
:10523000000000000000000000000000000000006E
:105240000000000007E00C301818300C300C300C57
:10525000380C38081E180F2007C018F03078303886
:10526000601C600C600C600C600C3018183007C0BB
:10527000000000000000000000000000000000002E
:10528000000000000000000000000000000000001E
:10529000000000000000000000000000000000000E
:1052A00000000000000000000000000000000000FE
:1052B00000000000000000000000000000000000EE
:1052C0000000000007C01820301030186008600C83
:1052D000600C600C600C600C701C302C186C0F8C17
:1052E000000C0018001800103030306030C00F8003
:1052F00000000000000000000000000000000000AE
:10530000000000000000000000000000000000009D
:10531000000000000000000000000000000000008D
:10532000000000000000000000000000000000007D
:10533000000000000000000000000000000000006D
:10534000000000000000000000000000000000005D
:105350000000018003C003C00180000000000000C5
:105360000000000000000000018003C003C00180B5
:10537000000000000000000000000000000000002D
:10538000000000000000000000000000000000001D
:10539000000000000000000000000000000000000D
:1053A00000000000000000000000000000000000FD
:1053B00000000000000000000000000000000000ED
:1053C00000000000000000000000000000000000DD
:1053D0000000000003800380038000000000000044
:1053E0000000000000000000000003800380038034
:1053F0000180030003000000000000000000000026
:10540000000000000000000000000000000000009C
:10541000000000000000000000000000000000008C
:10542000000000000000000000000000000000007C
:10543000000000000000000000000000000000006C
:105440000000000000040008001000200040008060
:105450000100020004000800100010000800040011
:10546000020001000080004000200010000800043D
:10547000000000000000000000000000000000002C
:10548000000000000000000000000000000000001C
:10549000000000000000000000000000000000000C
:1054A00000000000000000000000000000000000FC
:1054B00000000000000000000000000000000000EC
:1054C00000000000000000000000000000000000DC
:1054D00000007FFE000000000000000000007FFED2
:1054E00000000000000000000000000000000000BC
:1054F00000000000000000000000000000000000AC
:10550000000000000000000000000000000000009B
:10551000000000000000000000000000000000008B
:10552000000000000000000000000000000000007B
:10553000000000000000000000000000000000006B
:10554000000000002000100008000400020001001C
:10555000008000400020001000080008001000201B
:10556000004000800100020004000800100020003C
:10557000000000000000000000000000000000002B
:10558000000000000000000000000000000000001B
:10559000000000000000000000000000000000000B
:1055A00000000000000000000000000000000000FB
:1055B00000000000000000000000000000000000EB
:1055C0000000000003E00C18180C10063006380626
:1055D00038063806000C0018007000C000800080FB
:1055E0000080008000000000018003C003C0018033
:1055F00000000000000000000000000000000000AB
:10560000000000000000000000000000000000009A
:10561000000000000000000000000000000000008A
:10562000000000000000000000000000000000007A
:10563000000000000000000000000000000000006A
:105640000000000003E006100C08180430D431B24A
:1056500021326332632266226622662266626664B3
:10566000666426E8333030021004180C0C1803E08E
:10567000000000000000000000000000000000002A
:10568000000000000000000000000000000000001A
:10569000000000000000000000000000000000000A
:1056A00000000000000000000000000000000000FA
:1056B00000000000000000000000000000000000EA
:1056C00000000000038003800380038004C004C046
:1056D00004C004C00C4008600860086008201FF087
:1056E000103010301030201820182018601CF83EA0
:1056F00000000000000000000000000000000000AA
:105700000000000000000000000000000000000099
:105710000000000000000000000000000000000089
:105720000000000000000000000000000000000079
:105730000000000000000000000000000000000069
:10574000000000007FE018381818180C180C180C0E
:10575000180C180C181818301FE01818180C18041A
:1057600018061806180618061806180C18187FF0E0
:105770000000000000000000000000000000000029
:105780000000000000000000000000000000000019
:105790000000000000000000000000000000000009
:1057A00000000000000000000000000000000000F9
:1057B00000000000000000000000000000000000E9
:1057C0000000000003E0061C080C1806300230023E
:1057D00030006000600060006000600060006000F9
:1057E0006000600030023002100418080C1003E062
:1057F00000000000000000000000000000000000A9
:105800000000000000000000000000000000000098
:105810000000000000000000000000000000000088
:105820000000000000000000000000000000000078
:105830000000000000000000000000000000000068
:10584000000000007FC0187018181808180C180CF9
:105850001806180618061806180618061806180658
:1058600018061804180C180C1818181818607FC09F
:105870000000000000000000000000000000000028
:105880000000000000000000000000000000000018
:105890000000000000000000000000000000000008
:1058A00000000000000000000000000000000000F8
:1058B00000000000000000000000000000000000E8
:1058C000000000007FFC180C1804180218021800D1
:1058D00018001810181018301FF018301810181071
:1058E000180018001800180218021804180C7FFC81
:1058F00000000000000000000000000000000000A8
:105900000000000000000000000000000000000097
:105910000000000000000000000000000000000087
:105920000000000000000000000000000000000077
:105930000000000000000000000000000000000067
:10594000000000007FFC181C180418021802180040
:1059500018001810181018301FF0183018101810F0
:1059600018101800180018001800180018007E0001
:105970000000000000000000000000000000000027
:105980000000000000000000000000000000000017
:105990000000000000000000000000000000000007
:1059A00000000000000000000000000000000000F7
:1059B00000000000000000000000000000000000E7
:1059C0000000000003C00C30081018183008300820
:1059D000200060006000600060006000607E601871
:1059E0006018201830183018101818180C2007C02C
:1059F00000000000000000000000000000000000A7
:105A00000000000000000000000000000000000096
:105A10000000000000000000000000000000000086
:105A20000000000000000000000000000000000076
:105A30000000000000000000000000000000000066
:105A400000000000FC3F300C300C300C300C300CEF
:105A5000300C300C300C300C3FFC300C300C300C67
:105A6000300C300C300C300C300C300C300CFC3F57
:105A70000000000000000000000000000000000026
:105A80000000000000000000000000000000000016
:105A90000000000000000000000000000000000006
:105AA00000000000000000000000000000000000F6
:105AB00000000000000000000000000000000000E6
:105AC000000000001FF8018001800180018001803A
:105AD00001800180018001800180018001800180BE
:105AE00001800180018001800180018001801FF818
:105AF00000000000000000000000000000000000A6
:105B00000000000000000000000000000000000095
:105B10000000000000000000000000000000000085
:105B20000000000000000000000000000000000075
:105B30000000000000000000000000000000000065
:105B40000000000007FE0060006000600060006070
:105B50000060006000600060006000600060006045
:105B60000060006000600060006000600060006035
:105B7000706070C071803F000000000000000000F5
:105B80000000000000000000000000000000000015
:105B90000000000000000000000000000000000005
:105BA00000000000000000000000000000000000F5
:105BB00000000000000000000000000000000000E5
:105BC000000000007E7C18301820186018401880F3
:105BD0001880190019001B001D801D8018C018C0F6
:105BE00018601860183018301830181818187E3ED1
:105BF00000000000000000000000000000000000A5
:105C00000000000000000000000000000000000094
:105C10000000000000000000000000000000000084
:105C20000000000000000000000000000000000074
:105C30000000000000000000000000000000000064
:105C4000000000007E00180018001800180018005E
:105C50001800180018001800180018001800180084
:105C6000180018001800180218021804180C7FFCFD
:105C70000000000000000000000000000000000024
:105C80000000000000000000000000000000000014
:105C90000000000000000000000000000000000004
:105CA00000000000000000000000000000000000F4
:105CB00000000000000000000000000000000000E4
:105CC00000000000F00F381C381C381C381C382C21
:105CD0002C2C2C2C2C2C2C4C2C4C264C264C264C76
:105CE000268C228C238C238C230C230C210CF13F3B
:105CF00000000000000000000000000000000000A4
:105D00000000000000000000000000000000000093
:105D10000000000000000000000000000000000083
:105D20000000000000000000000000000000000073
:105D30000000000000000000000000000000000063
:105D400000000000F01F380438042C042C04260442
:105D50002604230423042184218420C420C4206435
:105D6000206420342034201C201C200C200CF8043B
:105D70000000000000000000000000000000000023
:105D80000000000000000000000000000000000013
:105D90000000000000000000000000000000000003
:105DA00000000000000000000000000000000000F3
:105DB00000000000000000000000000000000000E3
:105DC0000000000003C00C3018181008300C300C14
:105DD0006004600660066006600660066006600695
:105DE00060062006300C300C100818180C3003C068
:105DF00000000000000000000000000000000000A3
:105E00000000000000000000000000000000000092
:105E10000000000000000000000000000000000082
:105E20000000000000000000000000000000000072
:105E30000000000000000000000000000000000062
:105E4000000000007FF01818180C18061806180635
:105E5000180618061806180C18181FE01800180065
:105E600018001800180018001800180018007E000C
:105E70000000000000000000000000000000000022
:105E80000000000000000000000000000000000012
:105E90000000000000000000000000000000000002
:105EA00000000000000000000000000000000000F2
:105EB00000000000000000000000000000000000E2
:105EC0000000000003C00C3018181008300C300C13
:105ED0006006600660066006600660066006600692
:105EE00060066006278438CC386C18780C7003E0A4
:105EF0000032003C001C0000000000000000000018
:105F00000000000000000000000000000000000091
:105F10000000000000000000000000000000000081
:105F20000000000000000000000000000000000071
:105F30000000000000000000000000000000000061
:105F4000000000007FE018381818180C180C180C06
:105F5000180C180C181818301FE018C018C018605A
:105F600018601860183018301830181818187E1E6D
:105F70000000000000000000000000000000000021
:105F80000000000000000000000000000000000011
:105F90000000000000000000000000000000000001
:105FA00000000000000000000000000000000000F1
:105FB00000000000000000000000000000000000E1
:105FC000000000000FC818783018601860086008DA
:105FD000600070003C001F0007C001F0007800184E
:105FE000001C400C400C600C200C3018383027E0AE
:105FF00000000000000000000000000000000000A1
:106000000000000000000000000000000000000090
:106010000000000000000000000000000000000080
:106020000000000000000000000000000000000070
:106030000000000000000000000000000000000060
:10604000000000003FFC31842186418241820180B2
:106050000180018001800180018001800180018038
:10606000018001800180018001800180018007E0C2
:106070000000000000000000000000000000000020
:106080000000000000000000000000000000000010
:106090000000000000000000000000000000000000
:1060A00000000000000000000000000000000000F0
:1060B00000000000000000000000000000000000E0
:1060C00000000000FC3E300830083008300830087E
:1060D0003008300830083008300830083008300800
:1060E0003008300830083008300818101C2007C06D
:1060F00000000000000000000000000000000000A0
:10610000000000000000000000000000000000008F
:10611000000000000000000000000000000000007F
:10612000000000000000000000000000000000006F
:10613000000000000000000000000000000000005F
:10614000000000007C1E180C1808180818080C1015
:106150000C100C100C100C20062006200620064007
:1061600003400340034003800180018001000100DF
:10617000000000000000000000000000000000001F
:10618000000000000000000000000000000000000F
:1061900000000000000000000000000000000000FF
:1061A00000000000000000000000000000000000EF
:1061B00000000000000000000000000000000000DF
:1061C00000000000F3CF618661842184208430C404
:1061D00031C431C431C831C811C812481A681A68AC
:1061E0001A701C700C700C700C300C2008200820E9
:1061F000000000000000000000000000000000009F
:10620000000000000000000000000000000000008E
:10621000000000000000000000000000000000007E
:10622000000000000000000000000000000000006E
:10623000000000000000000000000000000000005E
:10624000000000007C3E180818100C100C200620DE
:1062500006400340038001800180018001C002C02C
:10626000026004600470083008301818101C7C3E6E
:10627000000000000000000000000000000000001E
:10628000000000000000000000000000000000000E
:1062900000000000000000000000000000000000FE
:1062A00000000000000000000000000000000000EE
:1062B00000000000000000000000000000000000DE
:1062C000000000007E3E3808180818100C100C1052
:1062D0000C2006200620034003400380018001803B
:1062E000018001800180018001800180018007E040
:1062F000000000000000000000000000000000009E
:10630000000000000000000000000000000000008D
:10631000000000000000000000000000000000007D
:10632000000000000000000000000000000000006D
:10633000000000000000000000000000000000005D
:10634000000000001FFE1C0C180C30182018003034
:106350000060006000C000C00180018003000300F5
:10636000060006000C00180218063004301C7FFCE2
:10637000000000000000000000000000000000001D
:10638000000000000000000000000000000000000D
:1063900000000000000000000000000000000000FD
:1063A00000000000000000000000000000000000ED
:1063B000000000000000000000000000000003FCDE
:1063C00003000300030003000300030003000300B5
:1063D00003000300030003000300030003000300A5
:1063E0000300030003000300030003000300030095
:1063F000030003FC0000000000000000000000009B
:10640000000000000000000000000000000000008C
:10641000000000000000000000000000000000007C
:10642000000000000000000000000000000000006C
:10643000000000000000000000000000000000005C
:1064400000001800180008000C00040006000600F8
:1064500002000300010001800180008000C00040B4
:106460000060006000300030003000180018000CA0
:10647000000C000C000600000000000000000000FE
:10648000000000000000000000000000000000000C
:1064900000000000000000000000000000000000FC
:1064A00000000000000000000000000000000000EC
:1064B00000000000000000000000000000003FC0DD
:1064C00000C000C000C000C000C000C000C000C0CC
:1064D00000C000C000C000C000C000C000C000C0BC
:1064E00000C000C000C000C000C000C000C000C0AC
:1064F00000C03FC0000000000000000000000000DD
:10650000000000000000000000000000000000008B
:10651000000000000000000000000000000000007B
:10652000000000000000000000000000000000006B
:1065300000000000000000000000000003C003E0B5
:10654000062008100000000000000000000000000D
:10655000000000000000000000000000000000003B
:10656000000000000000000000000000000000002B
:10657000000000000000000000000000000000001B
:10658000000000000000000000000000000000000B
:1065900000000000000000000000000000000000FB
:1065A00000000000000000000000000000000000EB
:1065B00000000000000000000000000000000000DB
:1065C00000000000000000000000000000000000CB
:1065D00000000000000000000000000000000000BB
:1065E00000000000000000000000000000000000AB
:1065F000000000000000FFFF00000000000000009D
:10660000000000000000000000000000000000008A
:10661000000000000000000000000000000000007A
:10662000000000000000000000000000000000006A
:106630000000000000000000000000001E00030039
:1066400000800000000000000000000000000000CA
:10665000000000000000000000000000000000003A
:10666000000000000000000000000000000000002A
:10667000000000000000000000000000000000001A
:10668000000000000000000000000000000000000A
:1066900000000000000000000000000000000000FA
:1066A00000000000000000000000000000000000EA
:1066B00000000000000000000000000000000000DA
:1066C00000000000000000000000000000000000CA
:1066D000000007E01830301830183018003807D89C
:1066E0001C183018601860186018601930791F8EF7
:1066F000000000000000000000000000000000009A
:106700000000000000000000000000000000000089
:106710000000000000000000000000000000000079
:106720000000000000000000000000000000000069
:106730000000000000000000000000000000000059
:106740000000080078001800180018001800180051
:10675000180019E01A381C181C0C180C180C180C0E
:10676000180C180C180C180C18081C181C3013E006
:106770000000000000000000000000000000000019
:106780000000000000000000000000000000000009
:1067900000000000000000000000000000000000F9
:1067A00000000000000000000000000000000000E9
:1067B00000000000000000000000000000000000D9
:1067C00000000000000000000000000000000000C9
:1067D000000003E00E100C181818301830003000BC
:1067E0003000300030003004180418080C1003E0AA
:1067F0000000000000000000000000000000000099
:106800000000000000000000000000000000000088
:106810000000000000000000000000000000000078
:106820000000000000000000000000000000000068
:106830000000000000000000000000000000000058
:106840000000000800780018001800180018001850
:10685000001807D80C3818181818301830183018C5
:106860003018301830183018101818380C5E07908F
:106870000000000000000000000000000000000018
:106880000000000000000000000000000000000008
:1068900000000000000000000000000000000000F8
:1068A00000000000000000000000000000000000E8
:1068B00000000000000000000000000000000000D8
:1068C00000000000000000000000000000000000C8
:1068D000000003C00C3008181808300C300C300CC5
:1068E0003FFC300030003000180418080E1803E098
:1068F0000000000000000000000000000000000098
:106900000000000000000000000000000000000087
:106910000000000000000000000000000000000077
:106920000000000000000000000000000000000067
:106930000000000000000000000000000000000057
:1069400000000000007C018601060306030003002E
:1069500003003FF8030003000300030003000300EB
:1069600003000300030003000300030003001FF003
:106970000000000000000000000000000000000017
:106980000000000000000000000000000000000007
:1069900000000000000000000000000000000000F7
:1069A00000000000000000000000000000000000E7
:1069B00000000000000000000000000000000000D7
:1069C00000000000000000000000000000000000C7
:1069D000000003EE0C3608181818181818180818B4
:1069E0000C300FE0180018001FC00FF8181C300CF6
:1069F000300C300C181807E0000000000000000008
:106A00000000000000000000000000000000000086
:106A10000000000000000000000000000000000076
:106A20000000000000000000000000000000000066
:106A30000000000000000000000000000000000056
:106A4000000008007800180018001800180018004E
:106A5000180019E01A301C181818181818181818E7
:106A600018181818181818181818181818187E7EDA
:106A70000000000000000000000000000000000016
:106A80000000000000000000000000000000000006
:106A900000000000000000000000000000000000F6
:106AA00000000000000000000000000000000000E6
:106AB00000000000000000000000000000000000D6
:106AC00000000000018003C0018000000000000001
:106AD00000801F8001800180018001800180018091
:106AE00001800180018001800180018001801FF808
:106AF0000000000000000000000000000000000096
:106B00000000000000000000000000000000000085
:106B10000000000000000000000000000000000075
:106B20000000000000000000000000000000000065
:106B30000000000000000000000000000000000055
:106B40000000000000380078003000000000000065
:106B5000001003F000300030003000300030003012
:106B600000300030003000300030003000300030A5
:106B70000030186018400F80000000000000000086
:106B80000000000000000000000000000000000005
:106B900000000000000000000000000000000000F5
:106BA00000000000000000000000000000000000E5
:106BB00000000000000000000000000000000000D5
:106BC00000000800780018001800180018001800CD
:106BD0001800187C183018201840188019801B8065
:106BE0001EC01CC01860183018301818181C7E3EC3
:106BF0000000000000000000000000000000000095
:106C00000000000000000000000000000000000084
:106C10000000000000000000000000000000000074
:106C20000000000000000000000000000000000064
:106C30000000000000000000000000000000000054
:106C4000000000801F8001800180018001800180A0
:106C5000018001800180018001800180018001802C
:106C600001800180018001800180018001801FF886
:106C70000000000000000000000000000000000014
:106C80000000000000000000000000000000000004
:106C900000000000000000000000000000000000F4
:106CA00000000000000000000000000000000000E4
:106CB00000000000000000000000000000000000D4
:106CC00000000000000000000000000000000000C4
:106CD0002000EF3C71C661866186618661866186AF
:106CE0006186618661866186618661866186F3CF91
:106CF0000000000000000000000000000000000094
:106D00000000000000000000000000000000000083
:106D10000000000000000000000000000000000073
:106D20000000000000000000000000000000000063
:106D30000000000000000000000000000000000053
:106D40000000000000000000000000000000000043
:106D5000000009E07A301C181818181818181818AC
:106D600018181818181818181818181818187E7ED7
:106D70000000000000000000000000000000000013
:106D80000000000000000000000000000000000003
:106D900000000000000000000000000000000000F3
:106DA00000000000000000000000000000000000E3
:106DB00000000000000000000000000000000000D3
:106DC00000000000000000000000000000000000C3
:106DD000000003C00C3008181818100C300C300CD0
:106DE000300C300C300C300C181818180C3003C054
:106DF0000000000000000000000000000000000093
:106E00000000000000000000000000000000000082
:106E10000000000000000000000000000000000072
:106E20000000000000000000000000000000000062
:106E30000000000000000000000000000000000052
:106E40000000000000000000000000000000000042
:106E5000000009E07A301C181808180C180C180CDF
:106E6000180C180C180C180C18181C181E3019E0E7
:106E70001800180018007E0000000000000000004C
:106E80000000000000000000000000000000000002
:106E900000000000000000000000000000000000F2
:106EA00000000000000000000000000000000000E2
:106EB00000000000000000000000000000000000D2
:106EC00000000000000000000000000000000000C2
:106ED000000003C80C78183818183018301830180B
:106EE0003018301830183018101818380C780798E7
:106EF000001800180018007E0000000000000000CC
:106F00000000000000000000000000000000000081
:106F10000000000000000000000000000000000071
:106F20000000000000000000000000000000000061
:106F30000000000000000000000000000000000051
:106F40000000000000000000000000000000000041
:106F50000000061C7E660686078007000600060005
:106F600006000600060006000600060006007FE098
:106F70000000000000000000000000000000000011
:106F80000000000000000000000000000000000001
:106F900000000000000000000000000000000000F1
:106FA00000000000000000000000000000000000E1
:106FB00000000000000000000000000000000000D1
:106FC00000000000000000000000000000000000C1
:106FD000000003E4061C0C0C0C040C040E0007C09B
:106FE00001F00078001C100C100C180C1C1813F089
:106FF0000000000000000000000000000000000091
:107000000000000000000000000000000000000080
:107010000000000000000000000000000000000070
:107020000000000000000000000000000000000060
:107030000000000000000000000000000000000050
:10704000000000000000000001000100010003003A
:1070500007003FF8030003000300030003000300E0
:10706000030003000300030003040304018800F08D
:107070000000000000000000000000000000000010
:107080000000000000000000000000000000000000
:1070900000000000000000000000000000000000F0
:1070A00000000000000000000000000000000000E0
:1070B00000000000000000000000000000000000D0
:1070C00000000000000000000000000000000000C0
:1070D0000808787818181818181818181818181890
:1070E0001818181818181818181818380C5E07905F
:1070F0000000000000000000000000000000000090
:10710000000000000000000000000000000000007F
:10711000000000000000000000000000000000006F
:10712000000000000000000000000000000000005F
:10713000000000000000000000000000000000004F
:10714000000000000000000000000000000000003F
:1071500000007C3E180C180818180C100C100420A5
:10716000062006200340034003C001800180010087
:10717000000000000000000000000000000000000F
:1071800000000000000000000000000000000000FF
:1071900000000000000000000000000000000000EF
:1071A00000000000000000000000000000000000DF
:1071B00000000000000000000000000000000000CF
:1071C00000000000000000000000000000000000BF
:1071D0000000FBCF618621843184318431C811C81D
:1071E0001AC81A481A700E700C700C300C2004204B
:1071F000000000000000000000000000000000008F
:10720000000000000000000000000000000000007E
:10721000000000000000000000000000000000006E
:10722000000000000000000000000000000000005E
:10723000000000000000000000000000000000004E
:10724000000000000000000000000000000000003E
:1072500000003E7C0C100E1006200340034001800D
:10726000018001C0026004600430081818187C7E98
:10727000000000000000000000000000000000000E
:1072800000000000000000000000000000000000FE
:1072900000000000000000000000000000000000EE
:1072A00000000000000000000000000000000000DE
:1072B00000000000000000000000000000000000CE
:1072C00000000000000000000000000000000000BE
:1072D00000007C3E1818181008100C10042006201E
:1072E00006200240034001400180018001000100AE
:1072F000010002003E003C00000000000000000011
:10730000000000000000000000000000000000007D
:10731000000000000000000000000000000000006D
:10732000000000000000000000000000000000005D
:10733000000000000000000000000000000000004D
:10734000000000000000000000000000000000003D
:1073500000003FF830383030206020E000C001806D
:107360000380030006000E040C04180C30183FF8CC
:10737000000000000000000000000000000000000D
:1073800000000000000000000000000000000000FD
:1073900000000000000000000000000000000000ED
:1073A00000000000000000000000000000000000DD
:1073B000000000000000000000000000000C0010B1
:1073C00000200020002000200020002000200020BD
:1073D00000200020002000C001800040002000208C
:1073E000002000200020002000200020002000209D
:1073F00000200010000C0000000000000000000051
:10740000000000000000000000000000000000007C
:10741000000000000000000000000000000000006C
:10742000000000000000000000000000000000005C
:10743000000000000000000000800080008000804C
:10744000008000800080008000800080008000803C
:10745000008000800080008000800080008000802C
:10746000008000800080008000800080008000801C
:10747000008000800080008000000000000000000C
:1074800000000000000000000000000000000000FC
:1074900000000000000000000000000000000000EC
:1074A00000000000000000000000000000000000DC
:1074B00000000000000000000000000018000400B0
:1074C00002000200020002000200020002000200AC
:1074D000020002000200018000C001000200020060
:1074E000020002000200020002000200020002008C
:1074F000020004001800000000000000000000006E
:10750000000000000000000000000000000000007B
:10751000000000000000000000000000000000006B
:10752000000000000000000000000000000000005B
:10753000000000000000000000001E002300418247
:10754000408200E40038000000000000000000005D
:10755000000000000000000000000000000000002B
:10756000000000000000000000000000000000001B
:10757000000000000000000000000000000000000B
:1075800000000000000000000000000000000000FB
:1075900000000000000000000000000000000000EB
:1075A00000000000000000000000000000000000DB
:1075B0000000000000000000FFFFFFFFFFFFFFFFD3
:1075C000FFFFFFFFFFFFFFFFFFFFFFFFFFFFFFFFCB
:1075D000FFFFFFFFFFFFFFFFFFFFFFFFFFFFFFFFBB
:1075E000FFFFFFFFFFFFFFFFFFFFFFFFFFFFFFFFAB
:1075F000FFFFFFFFFFFFFFFFFFFFFFFFFFFFFFFF9B
:10760000FFFFFFFFFFFFFFFFFFFFFFFFFFFFFFFF8A
:10761000FFFFFFFFFFFFFFFFFFFFFFFFFFFFFFFF7A
:10762000FFFFFFFFFFFFFFFFFFFFFFFFFFFFFFFF6A
:10763000FFFFFFFFFFFFFFFFFFFFFFFFFFFFFFFF5A
:10764000FFFFFFFFFFFFFFFFFFFFFFFFFFFFFFFF4A
:10765000FFFFFFFFFFFFFFFFFFFFFFFFFFFFFFFF3A
:10766000FFFFFFFFFFFFFFFFFFFFFFFFFFFFFFFF2A
:10767000FFFFFFFFFFFFFFFFFFFFFFFFFFFFFFFF1A
:10768000FFFFFFFFFFFFFFFFFFFFFFFFFFFFFFFF0A
:10769000FFFFFFFFFFFFFFFFFFFFFFFFFFFFFFFFFA
:1076A000FFFFFFFFFFFFFFFFFFFFFFFFFFFFFFFFEA
:1076B000FFFFFFFFFFFFFFFFFFFFFFFFFFFFFFFFDA
:1076C000FFFFFFFFFFFFFFFFFFFFFFFFFFFFFFFFCA
:1076D000FFFFFFFFFFFFFFFFFFFFFFFFFFFFFFFFBA
:1076E000FFFFFFFFFFFFFFFFFFFFFFFFFFFFFFFFAA
:1076F000FFFFFFFFFFFFFFFFFFFFFFFFFFFFFFFF9A
:10770000FFFFFFFFFFFFFFFFFFFFFFFFFFFFFFFF89
:10771000FFFFFFFFFFFFFFFFFFFFFFFFFFFFFFFF79
:10772000FFFFFFFFFFFFFFFFFFFFFFFFFFFFFFFF69
:10773000FFFFFFFFFFFFFFFFFFFFFFFFFFFFFFFF59
:10774000FFFFFFFFFFFFFFFFFFFFFFFFFFFFFFFF49
:10775000FFFFFFFFFFFFFFFFFFFFFFFFFFFFFFFF39
:10776000FFFFFFFFFFFFFFFFFFFFFFFFFFFFFFFF29
:10777000FFFFFFFFFFFFFFFFFFFFFFFFFFFFFFFF19
:10778000FFFFFFFFFFFFFFFFFFFFFFFFFFFFFFFF09
:10779000FFFFFFFFFFFFFFFFFFFFFFFFFFFFFFFFF9
:1077A000DFFFFFFFFFFFFFFFFFFFDFFFFFFFFFFF29
:1077B000DFFFFFFFFFFFFFFFFFFFFFFFFFFFFFFFF9
:1077C000FFFFFFFFFFFFFFFFBEF7DFFFFFFFFFFF32
:1077D000FFFFFFFFFFFFFFFFFFFFFFFFFFFFFFFFB9
:1077E000FFFFFFFFDFFFDFFFFFFFFFFFFFFFFFFFE9
:1077F000FFFFFFFFFFFFFFFFFFFFFFFFFFFFFFFF99
:10780000FFFFFFFFFFFFFFFFFFFFFFFFFFFFFFFF88
:10781000FFFFFFFFFFFFFFFFFFFFFFFFFFFFFFFF78
:10782000FFFFFFFFFFFFFFFFFFFFFFFFFFFFFFFF68
:10783000FFFFFFFFFFFFFFFFFFFFFFFFFFFFFFFF58
:10784000FFFFFFFFFFFFFFFFFFFFFFFFFFFFFFFF48
:10785000FFFFFFFFFFFFFFFFFFFFFFFFFFFFFFFF38
:10786000FFFFFFFFFFFFFFFFFFFFFFFFFFFFFFFF28
:10787000FFFFFFFFFFFFFFFFFFFFFFFFFFFFFFFF18
:10788000FFFFFFFFFFFFFFFFFFFFFFFFFFFFFFFF08
:10789000FFFFFFFFFFFFFFFFFFFFFFFFFFFFFFFFF8
:1078A000FFFFFFFFFFFFFFFFFFFFFFFFFFFFFFFFE8
:1078B000FFFFFFFFFFFFFFFFFFFFFFFFFFFFFFFFD8
:1078C000FFFFFFFFFFFFFFFFFFFFFFFFFFFFFFFFC8
:1078D000FFFFFFFFFFFFFFFFFFFFFFFFFFFFFFFFB8
:1078E000FFFFFFFFFFFFFFFFFFFFFFFFFFFFFFFFA8
:1078F000FFFFFFFFFFFFFFFFFFFFFFFFFFFFFFFF98
:10790000FFFFFFFFFFFFFFFFFFFFFFFFFFFFFFFF87
:10791000FFFFFFFFFFFFFFFFFFFFFFFFFFFFFFFF77
:10792000FFFFFFFFFFFFFFFFDFFFDFFFFFFFFFFFA7
:10793000FFFFFFFFFFFFFFFFFFFFFFFFFFFFFFFF57
:10794000FFFFFFFFFFFFBEF7DFFFFFFFFFFFFFFFB0
:10795000FFFFFFFFFFFFDFFFFFFFFFFFFFFFDFFF77
:10796000FFFFFFFFFFFFFFFFFFFFFFFFFFFFFFFF27
:10797000DFFFDFFFFFFFFFFFFFFFFFFFFFFFFFFF57
:10798000FFFFFBDE75AD18C6CF7B30849AD6D7BD1E
:107990009EF7DBDE55AD3CE7FFFFFFFF5DEF34A553
:1079A0006D6BCB5A2842EB5AEF7BCF7B518C9AD62A
:1079B0007DEF9EF73CE775AD2C632842694A494A42
:1079C000494A34A5FFFFFFFFFFFFFFFFFFFFFFFF57
:1079D000FFFFFFFFFFFFFFFFFFFFFFFFFFFFFFFFB7
:1079E000FFFFFFFFFFFFFFFFFFFFFFFFFFFFFFFFA7
:1079F000FFFFFFFFFFFFFFFFFFFFFFFFFFFFFFFF97
:107A0000FFFFFFFFFFFFFFFFFFFFFFFFFFFFFFFF86
:107A1000FFFFFFFFFFFFFFFFFFFFFFFFFFFFFFFF76
:107A2000FFFFFFFFFFFFFFFFFFFFFFFFFFFFFFFF66
:107A3000FFFFFFFFFFFFFFFFFFFFFFFFFFFFFFFF56
:107A4000FFFFFFFFFFFFFFFFFFFFFFFFFFFFFFFF46
:107A5000FFFFFFFFFFFFFFFFFFFFFFFFFFFFFFFF36
:107A6000FFFFFFFFFFFFFFFFFFFFFFFFFFFFFFFF26
:107A7000FFFFFFFFFFFFFFFFFFFFFFFFFFFFFFFF16
:107A8000FFFFFFFFFFFFFFFFFFFFFFFFFFFFFFFF06
:107A9000FFFFFFFFFFFFFFFFFFFFFFFFFFFFFFFFF6
:107AA000FFFFFFFFFFFFFFFFFFFFFFFFFFFFFFFFE6
:107AB000FFFFFFFFFFFFFFFFFFFFFFFFFFFFFFFFD6
:107AC000FFFFFFFFFFFFFFFFFFFFFFFFFFFFFFFFC6
:107AD000FFFFFFFFFFFFFFFFFFFFFFFFFFFFFFFFB6
:107AE000FFFFFFFFFFFFFFFFFFFFFFFFFFFFFFFFA6
:107AF000FFFFFFFFFFFFFFFFFFFFFFFFFFFFFFFF96
:107B0000FFFFFFFFFFFFFFFFFFFFFFFF38C6AA5287
:107B10000842AA52494AAA52F39C1CE79EF79EF7D4
:107B20009AD6D39CEF7B1084AA52A631AA524D6BF1
:107B3000D39C1CE7FFFFFFFF7DEF55AD38C6FFFF6D
:107B400079CE79CED7BD4D6B34A538C696B5DFFF5B
:107B5000FFFFBEF7FFFFFFFFFFFFFFFFFFFFDFFF9E
:107B6000FFFF79CE0842821045294529E318AA5221
:107B7000FFFFBEF78631C31855AD718C6108000058
:107B80000000000000004108E739E31841080842FE
:107B90006529000000000000000000000000000057
:107BA00000001084FFFFFFFFFFFFFFFFFFFFFFFF4D
:107BB000FFFFFFFFFFFFFFFFFFFFFFFFFFFFFFFFD5
:107BC000FFFFFFFFFFFFFFFFFFFFFFFFFFFFFFFFC5
:107BD000FFFFFFFFFFFFFFFFFFFFFFFFFFFFFFFFB5
:107BE000FFFFFFFFFFFFFFFFFFFFFFFFFFFFFFFFA5
:107BF000FFFFFFFFFFFFFFFFFFFFFFFFFFFFFFFF95
:107C0000FFFFFFFFFFFFFFFFFFFFFFFFFFFFFFFF84
:107C1000FFFFFFFFFFFFFFFFFFFFFFFFFFFFFFFF74
:107C2000FFFFFFFFFFFFFFFFFFFFFFFFFFFFFFFF64
:107C3000FFFFFFFFFFFFFFFFFFFFFFFFFFFFFFFF54
:107C4000FFFFFFFFFFFFFFFFFFFFFFFFFFFFFFFF44
:107C5000FFFFFFFFFFFFFFFFFFFFFFFFFFFFFFFF34
:107C6000FFFFFFFFFFFFFFFFFFFFFFFFFFFFFFFF24
:107C7000FFFFFFFFFFFFFFFFFFFFFFFFFFFFFFFF14
:107C8000FFFFFFFFFFFFFFFFFFFFFFFFFFFFFFFF04
:107C9000FFFFFFFFFFFFFFFFFFFFFFFFFFFFFFFFF4
:107CA000FFFFFFFFFFFFFFFFFFFFFFFFFFFFFFFFE4
:107CB000FFFFFFFFFFFFFFFFFFFFFFFFFFFFFFFFD4
:107CC000FFFFFFFFFFFFFFFFFFFFFFFFFFFFFFFFC4
:107CD000FFFFFFFFFFFFFFFFFFFFFFFFFFFFFFFFB4
:107CE000FFFFFFFFFFFFFFFFFFFFFFFF34A50000C7
:107CF000000000000000000000000000000004215F
:107D000008428210E318494AA21000000000000057
:107D100000000000EF7BD7BD6529E31859CEFFFFB7
:107D200055AD0421C318863145290421EF7BBEF7E8
:107D3000DFFFFFFFFFFFFFFFFFFFFFFFFFFFDFFF93
:107D4000AE7304216529494A6D6B2C63C739242120
:107D5000084296B5B6B5863100004108518C9EF7B1
:107D6000FFFFDFFFB294E3180000000041082C631E
:107D700075AD2C6320000000000000000000000032
:107D80000000A6312C630C63EB5ACB5ACB5ACB5A6A
:107D9000CB5ACB5ACB5ACB5ACB5ACB5ACB5ACB5ABB
:107DA000CB5ACB5ACB5ACB5ACB5ACB5ACB5ACB5AAB
:107DB000CB5ACB5ACB5ACB5ACB5ACB5ACB5ACB5A9B
:107DC000CB5ACB5ACB5ACB5ACB5ACB5ACB5ACB5A8B
:107DD000CB5ACB5ACB5ACB5ACB5ACB5ACB5ACB5A7B
:107DE000CB5ACB5ACB5ACB5ACB5ACB5ACB5ACB5A6B
:107DF000CB5ACB5ACB5ACB5ACB5ACB5ACB5ACB5A5B
:107E0000CB5ACB5ACB5ACB5ACB5ACB5ACB5ACB5A4A
:107E1000CB5ACB5ACB5ACB5ACB5ACB5ACB5ACB5A3A
:107E2000CB5ACB5ACB5ACB5ACB5ACB5ACB5ACB5A2A
:107E3000CB5ACB5ACB5ACB5ACB5ACB5ACB5ACB5A1A
:107E4000CB5ACB5ACB5ACB5ACB5ACB5ACB5ACB5A0A
:107E5000CB5ACB5ACB5ACB5ACB5ACB5ACB5ACB5AFA
:107E6000CB5ACB5ACB5ACB5ACB5ACB5ACB5ACB5AEA
:107E7000CB5ACB5ACB5ACB5ACB5ACB5ACB5ACB5ADA
:107E8000CB5ACB5ACB5ACB5ACB5ACB5ACB5ACB5ACA
:107E9000CB5ACB5ACB5ACB5ACB5ACB5ACB5ACB5ABA
:107EA000CB5ACB5ACB5ACB5ACB5ACB5ACB5ACB5AAA
:107EB000CB5ACB5ACB5ACB5ACB5ACB5ACB5AEB5A7A
:107EC000EB5AEB5AEB5AEB5AEB5A2C630842200060
:107ED0000000000000000000000020008A5255ADA4
:107EE000AE738210000000006108EF7B7DEFFFFFA2
:107EF000DFFFD39C61080000C318F39CDBDEAE7388
:107F00008631863108422C63CB5A28424529A63156
:107F100096B5FFFFFFFFFFFFDFFFFFFFFFFFFFFF44
:107F20009294042128422C63452965290C63A631CB
:107F30008631DBDE38C661086529DBDEFFFFB6B5BA
:107F4000AE7375ADFFFFDFFF4D6B0000000000005A
:107F5000CB5AFBDEFFFF9AD6D39C8E732C63C739B6
:107F60002000694AB6B5B6B555AD55AD55AD55AD60
:107F700055AD55AD55AD55AD55AD55AD55AD55ADF1
:107F800055AD55AD55AD55AD55AD55AD55AD55ADE1
:107F900055AD55AD55AD55AD55AD55AD55AD55ADD1
:107FA00055AD55AD55AD55AD55AD55AD55AD55ADC1
:107FB00055AD55AD55AD55AD55AD55AD55AD55ADB1
:107FC00055AD55AD55AD55AD55AD55AD55AD55ADA1
:107FD00055AD55AD55AD55AD55AD55AD55AD55AD91
:107FE00055AD55AD55AD55AD55AD55AD55AD55AD81
:107FF00055AD55AD55AD55AD55AD55AD55AD55AD71
:1080000055AD55AD55AD55AD55AD55AD55AD55AD60
:1080100055AD55AD55AD55AD55AD55AD55AD55AD50
:1080200055AD55AD55AD55AD55AD55AD55AD55AD40
:1080300055AD55AD55AD55AD55AD55AD55AD55AD30
:1080400055AD55AD55AD55AD55AD55AD55AD55AD20
:1080500055AD55AD55AD55AD55AD55AD55AD55AD10
:1080600055AD55AD55AD55AD55AD55AD55AD55AD00
:1080700055AD55AD55AD55AD55AD55AD55AD55ADF0
:1080800055AD55AD55AD55AD55AD55AD55AD55ADE0
:1080900055AD55AD55AD55AD55AD55AD55AD55ADD0
:1080A00055AD55AD75AD75AD75ADF7BD6D6B610871
:1080B00086312C634D6B718C79CEBEF73CE78E73A5
:1080C000000000000000AA525DEFFFFFD7BDAE73B5
:1080D00034A5FFFF7DEF28420000F39CFFFFEF7BFC
:1080E000C318CB5ACB5AC318C7392C63C739494A6E
:1080F000DBDEFFFFFFFFFFFFDFFFFFFFFFFF14A53A
:1081000082100842694AA63196B59294C739CB5A73
:1081100065290C638E73A210718C9AD64529A631FD
:10812000718C4529A6313CE7FFFF96B5E3180000A6
:1081300000000000494A75AD1CE77DEF3CE7AE73D7
:1081400000006529AE736D6B4D6B4D6B6D6B4D6BA8
:108150004D6B4D6B4D6B4D6B4D6B4D6B4D6B4D6B5F
:108160004D6B4D6B4D6B4D6B4D6B4D6B4D6B4D6B4F
:108170004D6B4D6B4D6B4D6B4D6B4D6B4D6B4D6B3F
:108180004D6B4D6B4D6B4D6B4D6B4D6B4D6B4D6B2F
:108190004D6B4D6B4D6B4D6B4D6B4D6B4D6B4D6B1F
:1081A0004D6B4D6B4D6B4D6B4D6B4D6B4D6B4D6B0F
:1081B0004D6B4D6B4D6B4D6B4D6B4D6B4D6B4D6BFF
:1081C0004D6B4D6B4D6B4D6B4D6B4D6B4D6B4D6BEF
:1081D0004D6B4D6B4D6B4D6B6D6B6D6B6D6B6D6B5F
:1081E0006D6B4D6B4D6B4D6B4D6B4D6B4D6B4D6BAF
:1081F0004D6B4D6B4D6B4D6B6D6B6D6B6D6B6D6B3F
:108200006D6B4D6B4D6B4D6B4D6B4D6B4D6B4D6B8E
:108210004D6B4D6B4D6B4D6B4D6B4D6B4D6B4D6B9E
:108220004D6B4D6B4D6B4D6B4D6B4D6B4D6B4D6B8E
:108230004D6B4D6B4D6B4D6B4D6B4D6B4D6B4D6B7E
:108240004D6B4D6B6D6B6D6B6D6B6D6B4D6B4D6BEE
:108250004D6B4D6B4D6B4D6B4D6B4D6B4D6B4D6B5E
:108260004D6B4D6B6D6B6D6B6D6B4D6B4D6B4D6BEE
:108270004D6B4D6B4D6B6D6B6D6B4D6B4D6B6D6BDE
:108280006D6B6D6B6D6B6D6B4D6BCF7BE739410823
:108290002C63DBDE5DEF5DEFD7BDAA52000000006E
:1082A00000004108D39CFFFFFFFF8A52C3183084AF
:1082B000694AA210F7BD55AD6108108418C645295A
:1082C0000842C739694AF7BD8E73E739EB5AC318BC
:1082D0008A52BAD6FFFFFFFFDFFFFFFFFFFFDFFF7E
:1082E0001084A631694A694AC739E739694A0842A0
:1082F000E739D7BDF39C0421EF7B10840000C3183D
:10830000FBDEFBDE2421CB5AFFFFFFFFF7BDC318C6
:1083100000008210000000000000000000000000CB
:108320000000AA52D7BDB6B575AD75AD75AD75ADCA
:1083300075AD75AD75AD75AD75AD75AD75AD75AD2D
:1083400075AD75AD75AD75AD75AD75AD75AD75AD1D
:1083500075AD75AD75AD75AD75AD75AD75AD75AD0D
:1083600075AD75AD75AD75AD75AD75AD75AD75ADFD
:1083700075AD75AD75AD75AD75AD75AD75AD75ADED
:1083800075AD75AD75AD75AD75AD75AD75AD75ADDD
:1083900075AD75AD75AD75AD75AD75AD75AD75ADCD
:1083A00075AD75AD75AD75AD75AD75AD75AD75ADBD
:1083B00075AD75AD75AD75AD75AD75AD75AD75ADAD
:1083C00075AD75AD75AD75AD75AD75AD75AD75AD9D
:1083D00075AD75AD75AD75AD75AD75AD75AD75AD8D
:1083E00075AD75AD75AD75AD75AD75AD75AD75AD7D
:1083F00075AD75AD75AD75AD75AD75AD75AD75AD6D
:1084000075AD75AD75AD75AD75AD75AD75AD75AD5C
:1084100075AD75AD75AD75AD75AD75AD75AD75AD4C
:1084200075AD75AD75AD75AD75AD75AD75AD75AD3C
:1084300075AD75AD75AD75AD75AD75AD75AD75AD2C
:1084400075AD75AD75AD75AD75AD75AD75AD75AD1C
:1084500075AD75AD75AD75AD75AD75AD75AD75AD0C
:1084600075AD75AD75AD75AD75AD18C66D6B0000AC
:1084700000000000000000000000000041080000B3
:108480004108F39CFFFFFFFFEF7B8210B6B55DEF65
:10849000863100004D6BB2942421718CBEF76D6B58
:1084A00086312842494AE73908428A52C739E739B2
:1084B00059CEFFFFFFFFFFFFFFFFDFFFFFFF9EF72C
:1084C0006D6B4108C7392C63694A8A52CB5AA21096
:1084D000E31879CEFFFFA631452955AD0C630000A6
:1084E00075AD5DEFE3180000B294FFFFFFFFF7BD2D
:1084F000D7BD9EF779CE4D6BE739CF7BB6B555AD7D
:10850000108475ADFFFFFFFFFFFFFFFFFFFFFFFFC1
:10851000FFFFFFFFFFFFFFFFFFFFFFFFFFFFFFFF6B
:10852000FFFFFFFFFFFFFFFFFFFFFFFFFFFFFFFF5B
:10853000FFFFFFFFFFFFFFFFFFFFFFFFFFFFFFFF4B
:10854000FFFFFFFFFFFFFFFFFFFFFFFFFFFFFFFF3B
:10855000FFFFFFFFFFFFFFFFFFFFFFFFFFFFFFFF2B
:10856000FFFFFFFFFFFFFFFFFFFFFFFFFFFFFFFF1B
:10857000FFFFFFFFFFFFFFFFFFFFFFFFFFFFFFFF0B
:10858000FFFFFFFFFFFFFFFFFFFFFFFFFFFFFFFFFB
:10859000FFFFFFFFFFFFFFFFFFFFFFFFFFFFFFFFEB
:1085A000FFFFFFFFFFFFFFFFFFFFFFFFFFFFFFFFDB
:1085B000FFFFFFFFFFFFFFFFFFFFFFFFFFFFFFFFCB
:1085C000FFFFFFFFFFFFFFFFFFFFFFFFFFFFFFFFBB
:1085D000FFFFFFFFFFFFFFFFFFFFFFFFFFFFFFFFAB
:1085E000FFFFFFFFFFFFFFFFFFFFFFFFFFFFFFFF9B
:1085F000FFFFFFFFFFFFFFFFFFFFFFFFFFFFFFFF8B
:10860000FFFFFFFFFFFFFFFFFFFFFFFFFFFFFFFF7A
:10861000FFFFFFFFFFFFFFFFFFFFFFFFFFFFFFFF6A
:10862000FFFFFFFFFFFFFFFFFFFFFFFFFFFFFFFF5A
:10863000FFFFFFFFFFFFFFFFFFFFFFFFFFFFFFFF4A
:10864000FFFFFFFFFFFFFFFFFFFFFFFF59CE10847B
:10865000F39CF7BD518CE739EB5A18C69EF718C644
:10866000B6B59EF7FFFF75AD0000000079CE18C6C5
:108670006108E73975AD494A0421FBDEFFFF8E73BF
:108680004108E739EB5A2842AA52CB5A0421042167
:10869000B6B5FFFFFFFFFFFFFFFFDFFFFFFFBEF7E6
:1086A0009EF755AD24216108694A65294108EB5AB6
:1086B0009AD65DEFFFFF6D6B00004529518CB6B572
:1086C000F39C0842042124214529F39CFFFFFFFF6E
:1086D000FFFFFFFFFFFFFFFFFFFFFFFFFFFFFFFFAA
:1086E000FFFFFFFFDFFFDFFFDFFFFFFFFFFFFFFFFA
:1086F000FFFFFFFFFFFFFFFFFFFFFFFFFFFFFFFF8A
:10870000FFFFFFFFFFFFFFFFFFFFFFFFFFFFFFFF79
:10871000FFFFFFFFFFFFFFFFFFFFFFFFFFFFFFFF69
:10872000FFFFFFFFFFFFFFFFFFFFFFFFFFFFFFFF59
:10873000FFFFFFFFFFFFFFFFFFFFFFFFFFFFFFFF49
:10874000FFFFFFFFFFFFFFFFFFFFFFFFFFFFFFFF39
:10875000FFFFFFFFFFFFFFFFFFFFFFFFFFFFFFFF29
:10876000FFFFFFFFFFFFFFFFFFFFFFFFFFFFFFFF19
:10877000FFFFFFFFFFFFFFFFFFFFFFFFFFFFFFFF09
:10878000FFFFFFFFFFFFFFFFFFFFFFFFFFFFFFFFF9
:10879000FFFFFFFFFFFFFFFFFFFFFFFFFFFFFFFFE9
:1087A000FFFFFFFFFFFFFFFFFFFFFFFFFFFFFFFFD9
:1087B000FFFFFFFFFFFFFFFFFFFFFFFFFFFFFFFFC9
:1087C000FFFFFFFFFFFFFFFFFFFFFFFFFFFFFFFFB9
:1087D000FFFFFFFFFFFFFFFFFFFFFFFFFFFFFFFFA9
:1087E000FFFFFFFFFFFFFFFFFFFFFFFFFFFFFFFF99
:1087F000FFFFFFFFFFFFFFFFFFFFFFFFFFFFFFFF89
:10880000FFFFFFFFFFFFFFFFFFFFFFFFFFFFFFFF78
:10881000FFFFFFFFFFFFFFFFFFFFFFFFFFFFFFFF68
:10882000FFFFFFFFFFFFFFFFDFFFDFFFFFFFFFFF98
:10883000FFFFFFFFFFFFFFFFFFFFFFFFFFFFFFFF48
:10884000FFFFFFFF96B5A63124210421A6319294A3
:10885000D7BD718CC73900002842BEF7FFFFDBDEB1
:10886000D39C65298210494A863141082C63DBDE9E
:108870005DEFDFFFFFFFFFFFFFFFFFFFDFFFDFFF1A
:10888000FFFFBAD675AD34A58A52AE7314A514A5F0
:1088900079CE718C0C63EB5AAA52AA520842C7399E
:1088A000E739718CFFFFFFFFDFFFDFFFFFFFFFFFF7
:1088B000FFFFFFFFFFFFFFFFFFFFFFFFFFFFFFFFC8
:1088C000FFFFFFFFFFFFFFFFFFFFFFFFFFFFFFFFB8
:1088D000FFFFFFFFFFFFFFFFFFFFFFFFFFFFFFFFA8
:1088E000FFFFFFFFFFFFFFFFFFFFFFFFFFFFFFFF98
:1088F000FFFFFFFFFFFFFFFFFFFFFFFFFFFFFFFF88
:10890000FFFFFFFFFFFFFFFFFFFFFFFFFFFFFFFF77
:10891000FFFFFFFFFFFFFFFFFFFFFFFFFFFFFFFF67
:10892000FFFFFFFFFFFFFFFFFFFFFFFFFFFFFFFF57
:10893000FFFFFFFFFFFFFFFFFFFFFFFFFFFFFFFF47
:10894000FFFFFFFFFFFFFFFFFFFFFFFFFFFFFFFF37
:10895000FFFFFFFFFFFFFFFFFFFFFFFFFFFFFFFF27
:10896000FFFFFFFFFFFFFFFFFFFFFFFFFFFFFFFF17
:10897000FFFFFFFFFFFFFFFFFFFFFFFFFFFFFFFF07
:10898000FFFFFFFFFFFFFFFFFFFFFFFFFFFFFFFFF7
:10899000FFFFFFFFFFFFFFFFFFFFFFFFFFFFFFFFE7
:1089A000FFFFFFFFFFFFFFFFFFFFFFFFFFFFFFFFD7
:1089B000FFFFFFFFFFFFFFFFFFFFFFFFFFFFFFFFC7
:1089C000FFFFFFFFFFFFFFFFFFFFFFFFFFFFFFFFB7
:1089D000FFFFFFFFFFFFFFFFFFFFFFFFFFFFFFFFA7
:1089E000FFFFFFFFFFFFFFFFFFFFFFFFFFFFFFFF97
:1089F000FFFFFFFFFFFFFFFFFFFFFFFFFFFFFFFF87
:108A0000FFFFFFFFFFFFFFFFFFFFFFFFFFFFFFFF76
:108A1000FFFFFFFFFFFFFFFFFFFFFFFFFFFFFFFF66
:108A2000FFFFFFFFDFFFDFFFFFFFFFFF34A5494A26
:108A3000E739E739694AAA52EB5A2C636D6BDBDEE2
:108A4000BAD6B294F39CCB5AAE73B6B5B6B5DFFFC7
:108A5000FFFFBEF7FFFFFFFFFFFFFFFFFFFF79CE26
:108A6000AE73718C1CE7DBDED7BDDBDEFFFFFFFFE3
:108A7000D39C6D6B79CEFBDEBAD6FBDE59CED7BD6B
:108A80009AD63CE7DBDE9AD6BAD6BAD69AD69AD62A
:108A900079CE9AD69AD679CE79CE9AD69AD679CEFA
:108AA00079CE79CE79CE79CE79CE79CE59CE59CECE
:108AB00079CE79CE79CE79CE79CE79CE79CE79CE7E
:108AC00079CE79CE79CE79CE79CE79CE79CE79CE6E
:108AD00079CE79CE79CE79CE79CE79CE79CE79CE5E
:108AE00079CE79CE79CE79CE79CE79CE79CE79CE4E
:108AF00079CE79CE79CE79CE79CE79CE79CE79CE3E
:108B000079CE79CE79CE79CE79CE79CE79CE79CE2D
:108B100079CE79CE79CE79CE79CE79CE79CE79CE1D
:108B200079CE79CE79CE79CE79CE79CE79CE79CE0D
:108B300079CE79CE79CE79CE79CE79CE79CE79CEFD
:108B400079CE79CE79CE79CE79CE79CE79CE79CEED
:108B500079CE79CE79CE79CE79CE79CE79CE79CEDD
:108B600079CE79CE79CE79CE79CE79CE79CE79CECD
:108B700079CE79CE79CE79CE79CE79CE79CE79CEBD
:108B800079CE79CE79CE79CE79CE79CE79CE79CEAD
:108B900079CE79CE79CE79CE79CE79CE79CE79CE9D
:108BA00079CE79CE79CE79CE79CE79CE79CE79CE8D
:108BB00079CE79CE79CE79CE79CE79CE79CE79CE7D
:108BC00079CE79CE79CE79CE79CE79CE79CE79CE6D
:108BD00079CE79CE79CE79CE79CE59CE79CE79CE7D
:108BE00079CE79CE79CE79CE79CE79CE79CE79CE4D
:108BF00079CE79CE9AD69AD679CE79CE79CE79CEEB
:108C000079CE9AD69AD6BAD6BAD6DBDE3CE7BAD6B1
:108C1000B6B538C61CE7FBDEBAD6BAD6AE739294A8
:108C2000FFFFFFFF7DEFF7BD38C63CE714A54D6B96
:108C3000D7BDFFFFFFFFFFFFFFFFFFFFFFFFFFFFAE
:108C40002C6300000421A21000004108652914A52E
:108C5000718C14A575AD694A08428A52AA52CB5A42
:108C6000694A494A694A8A52694A2842694A694AAC
:108C7000694A694A694A694A694A694A694A694A5C
:108C8000494A494A694A694A694A494A494A494AEC
:108C9000494A494A494A494A494A494A494A494A3C
:108CA000494A494A494A494A494A494A494A494A2C
:108CB000494A494A494A494A494A494A494A494A1C
:108CC000494A494A494A494A494A494A494A494A0C
:108CD000494A494A494A494A494A494A494A494AFC
:108CE000494A494A494A494A494A494A494A494AEC
:108CF000494A494A494A494A494A494A494A494ADC
:108D0000494A494A494A494A494A494A494A494ACB
:108D1000494A494A494A494A494A494A494A494ABB
:108D2000494A494A494A494A494A494A494A494AAB
:108D3000494A494A494A494A494A494A494A494A9B
:108D4000494A494A494A494A494A494A494A494A8B
:108D5000494A494A494A494A494A494A494A494A7B
:108D6000494A494A494A494A494A494A494A494A6B
:108D7000494A494A494A494A494A494A494A494A5B
:108D8000494A494A494A494A494A494A494A494A4B
:108D9000494A494A494A494A494A494A494A494A3B
:108DA000494A494A494A494A494A494A494A494A2B
:108DB000494A494A494A494A494A494A494A494A1B
:108DC000494A494A494A494A694A694A494A494ACB
:108DD000694A694A694A694A494A694A694A494A3B
:108DE000494A494A494A494A494A694A494A694AAB
:108DF000CB5AAA528A522842C73975AD75AD518CEB
:108E0000F39CE73900000000A210242141088A5297
:108E10009EF7FFFFFFFFFFFFFFFFFFFFDFFFFFFFEB
:108E20009EF78E730000C739B29455ADAA52000068
:108E3000000055AD14A54D6B1CE7FFFF7DEF9EF7BD
:108E40007DEF7DEF9EF79EF77DEF7DEF9EF79EF71E
:108E50009EF77DEF7DEF9EF79EF79EF79EF77DEFE5
:108E60007DEF9EF79EF79EF79EF79EF79EF79EF783
:108E70009EF79EF79EF79EF79EF79EF79EF79EF74A
:108E80009EF79EF79EF79EF79EF79EF79EF79EF73A
:108E90009EF79EF79EF79EF79EF79EF79EF79EF72A
:108EA0009EF79EF79EF79EF79EF79EF79EF79EF71A
:108EB0009EF79EF79EF79EF79EF79EF79EF79EF70A
:108EC0009EF79EF79EF79EF79EF79EF79EF79EF7FA
:108ED0009EF79EF79EF79EF79EF79EF79EF79EF7EA
:108EE0009EF79EF79EF79EF79EF79EF79EF79EF7DA
:108EF0009EF79EF79EF79EF79EF79EF79EF79EF7CA
:108F00009EF79EF79EF79EF79EF79EF79EF79EF7B9
:108F10009EF79EF79EF79EF79EF79EF79EF79EF7A9
:108F20009EF79EF79EF79EF79EF79EF79EF79EF799
:108F30009EF79EF79EF79EF79EF79EF79EF79EF789
:108F40009EF79EF79EF79EF79EF79EF79EF79EF779
:108F50009EF79EF79EF79EF79EF79EF79EF79EF769
:108F60009EF79EF79EF79EF79EF79EF79EF79EF759
:108F70009EF79EF79EF79EF79EF79EF79EF79EF749
:108F80009EF79EF79EF79EF79EF79EF79EF79EF739
:108F90009EF79EF79EF79EF79EF79EF79EF79EF729
:108FA0009EF79EF79EF79EF79EF79EF79EF79EF719
:108FB0007DEF7DEF7DEF7DEF7DEF9EF77DEF9EF7FF
:108FC0007DEF7DEF7DEF9EF79EF79EF77DEF7DEFC6
:108FD0007DEF7DEFFFFF9EF74D6BD39CD7BD8210D9
:108FE0000000C73914A514A5284200008A52FBDEF0
:108FF000FFFFDFFFFFFFFFFFFFFFDFFFFFFFFFFFC1
:109000009AD62421494AFFFF9AD68E7334A5AE73AF
:109010008210F39C75ADAE737DEFFFFFFFFFFFFF86
:10902000FFFFFFFFFFFFFFFFFFFFFFFFFFFFFFFF50
:10903000FFFFFFFFFFFFFFFFFFFFFFFFFFFFFFFF40
:10904000FFFFFFFFFFFFFFFFFFFFFFFFFFFFFFFF30
:10905000FFFFFFFFFFFFFFFFFFFFFFFFFFFFFFFF20
:10906000FFFFFFFFFFFFFFFFFFFFFFFFFFFFFFFF10
:10907000FFFFFFFFFFFFFFFFFFFFFFFFFFFFFFFF00
:10908000FFFFFFFFFFFFFFFFFFFFFFFFFFFFFFFFF0
:10909000FFFFFFFFFFFFFFFFFFFFFFFFFFFFFFFFE0
:1090A000FFFFFFFFFFFFFFFFFFFFFFFFFFFFFFFFD0
:1090B000FFFFFFFFFFFFFFFFFFFFFFFFFFFFFFFFC0
:1090C000FFFFFFFFFFFFFFFFFFFFFFFFFFFFFFFFB0
:1090D000FFFFFFFFFFFFFFFFFFFFFFFFFFFFFFFFA0
:1090E000FFFFFFFFFFFFFFFFFFFFFFFFFFFFFFFF90
:1090F000FFFFFFFFFFFFFFFFFFFFFFFFFFFFFFFF80
:10910000FFFFFFFFFFFFFFFFFFFFFFFFFFFFFFFF6F
:10911000FFFFFFFFFFFFFFFFFFFFFFFFFFFFFFFF5F
:10912000FFFFFFFFFFFFFFFFFFFFFFFFFFFFFFFF4F
:10913000FFFFFFFFFFFFFFFFFFFFFFFFFFFFFFFF3F
:10914000FFFFFFFFFFFFFFFFFFFFFFFFFFFFFFFF2F
:10915000FFFFFFFFFFFFFFFFFFFFFFFFFFFFFFFF1F
:10916000FFFFFFFFFFFFFFFFFFFFFFFFFFFFFFFF0F
:10917000FFFFFFFFFFFFFFFFFFFFFFFFFFFFFFFFFF
:10918000FFFFFFFFFFFFFFFFFFFFFFFFFFFFFFFFEF
:10919000FFFFFFFFFFFFFFFFFFFFFFFFFFFFFFFFDF
:1091A000FFFFFFFFFFFFFFFFFFFFFFFFFFFFFFFFCF
:1091B000FFFFFFFFFFFFFFFFAE73F39C75ADC3180A
:1091C0004D6B75AD8E73D7BDFFFF6D6BE318D7BDCB
:1091D000FFFFFFFFFFFFFFFFFFFFDFFFFFFFFFFFBF
:1091E000694A6529BEF7DBDEA21000006108108421
:1091F0006D6BAE739294CF7B7DEFFFFFFFFFFFFFA0
:10920000FFFFFFFFFFFFFFFFFFFFFFFFFFFFFFFF6E
:10921000FFFFFFFFFFFFFFFFFFFFFFFFFFFFFFFF5E
:10922000FFFFFFFFFFFFFFFFFFFFFFFFFFFFFFFF4E
:10923000FFFFFFFFFFFFFFFFFFFFFFFFFFFFFFFF3E
:10924000FFFFFFFFFFFFFFFFFFFFFFFFFFFFFFFF2E
:10925000FFFFFFFFFFFFFFFFFFFFFFFFFFFFFFFF1E
:10926000FFFFFFFFFFFFFFFFFFFFFFFFFFFFFFFF0E
:10927000FFFFFFFFFFFFFFFFFFFFFFFFFFFFFFFFFE
:10928000FFFFFFFFFFFFFFFFFFFFFFFFFFFFFFFFEE
:10929000FFFFFFFFFFFFFFFFFFFFFFFFFFFFFFFFDE
:1092A000FFFFFFFFFFFFFFFFFFFFFFFFFFFFFFFFCE
:1092B000FFFFFFFFFFFFFFFFFFFFFFFFFFFFFFFFBE
:1092C000FFFFFFFFFFFFFFFFFFFFFFFFFFFFFFFFAE
:1092D000FFFFFFFFFFFFFFFFFFFFFFFFFFFFFFFF9E
:1092E000FFFFFFFFFFFFFFFFFFFFFFFFFFFFFFFF8E
:1092F000FFFFFFFFFFFFFFFFFFFFFFFFFFFFFFFF7E
:10930000FFFFFFFFFFFFFFFFFFFFFFFFFFFFFFFF6D
:10931000FFFFFFFFFFFFFFFFFFFFFFFFFFFFFFFF5D
:10932000FFFFFFFFFFFFFFFFFFFFFFFFFFFFFFFF4D
:10933000FFFFFFFFFFFFFFFFFFFFFFFFFFFFFFFF3D
:10934000FFFFFFFFFFFFFFFFFFFFFFFFFFFFFFFF2D
:10935000FFFFFFFFFFFFFFFFFFFFFFFFFFFFFFFF1D
:10936000FFFFFFFFFFFFFFFFFFFFFFFFFFFFFFFF0D
:10937000FFFFFFFFFFFFFFFFFFFFFFFFFFFFFFFFFD
:10938000FFFFFFFFFFFFFFFFFFFFFFFFFFFFFFFFED
:10939000FFFFFFFFFFFFFFFFEF7B9294EF7B2C634C
:1093A000518C452900000000D7BDFFFF2842A6319F
:1093B0007DEFFFFFFFFFFFFFFFFFFFFFFFFF79CE06
:1093C00004214D6BFFFF3084CF7BCF7B0421F39CC6
:1093D000718CEF7B718CEF7B7DEFFFFFFFFFFFFF59
:1093E000FFFFFFFFFFFFFFFFFFFFFFFFFFFFFFFF8D
:1093F000FFFFFFFFFFFFFFFFFFFFFFFFFFFFFFFF7D
:10940000FFFFFFFFFFFFFFFFFFFFFFFFFFFFFFFF6C
:10941000FFFFFFFFFFFFFFFFFFFFFFFFFFFFFFFF5C
:10942000FFFFFFFFFFFFFFFFFFFFFFFFFFFFFFFF4C
:10943000FFFFFFFFFFFFFFFFFFFFFFFFFFFFFFFF3C
:10944000FFFFFFFFFFFFFFFFFFFFFFFFFFFFFFFF2C
:10945000FFFFFFFFFFFFFFFFFFFFFFFFFFFFFFFF1C
:10946000FFFFFFFFFFFFFFFFFFFFFFFFFFFFFFFF0C
:10947000FFFFFFFFFFFFFFFFFFFFFFFFFFFFFFFFFC
:10948000FFFFFFFFFFFFFFFFFFFFFFFFFFFFFFFFEC
:10949000FFFFFFFFFFFFFFFFFFFFFFFFFFFFFFFFDC
:1094A000FFFFFFFFFFFFFFFFFFFFFFFFFFFFFFFFCC
:1094B000FFFFFFFFFFFFFFFFFFFFFFFFFFFFFFFFBC
:1094C000FFFFFFFFFFFFFFFFFFFFFFFFFFFFFFFFAC
:1094D000FFFFFFFFFFFFFFFFFFFFFFFFFFFFFFFF9C
:1094E000FFFFFFFFFFFFFFFFFFFFFFFFFFFFFFFF8C
:1094F000FFFFFFFFFFFFFFFFFFFFFFFFFFFFFFFF7C
:10950000FFFFFFFFFFFFFFFFFFFFFFFFFFFFFFFF6B
:10951000FFFFFFFFFFFFFFFFFFFFFFFFFFFFFFFF5B
:10952000FFFFFFFFFFFFFFFFFFFFFFFFFFFFFFFF4B
:10953000FFFFFFFFFFFFFFFFFFFFFFFFFFFFFFFF3B
:10954000FFFFFFFFFFFFFFFFFFFFFFFFFFFFFFFF2B
:10955000FFFFFFFFFFFFFFFFFFFFFFFFFFFFFFFF1B
:10956000FFFFFFFFFFFFFFFFFFFFFFFFFFFFFFFF0B
:10957000FFFFFFFFFFFFFFFFAE73718C30846D6B49
:10958000D39CE7398E7310846D6BFFFF518C61089B
:1095900075ADFFFFFFFFFFFFFFFFFFFFFFFF96B56A
:1095A00000000C63FFFF8E73CB5A9EF7FFFF55AD93
:1095B000C73975AD75AD8E737DEFFFFFFFFFFFFF00
:1095C000FFFFFFFFFFFFFFFFFFFFFFFFFFFFFFFFAB
:1095D000FFFFFFFFFFFFFFFFFFFFFFFFFFFFFFFF9B
:1095E000FFFFFFFFFFFFFFFFFFFFFFFFFFFFFFFF8B
:1095F000FFFFFFFFFFFFFFFFFFFFFFFFFFFFFFFF7B
:10960000FFFFFFFFFFFFFFFFFFFFFFFFFFFFFFFF6A
:10961000FFFFFFFFFFFFFFFFFFFFFFFFFFFFFFFF5A
:10962000FFFFFFFFFFFFFFFFFFFFFFFFFFFFFFFF4A
:10963000FFFFFFFFFFFFFFFFFFFFFFFFFFFFFFFF3A
:10964000FFFFFFFFFFFFFFFFFFFFFFFFFFFFFFFF2A
:10965000FFFFFFFFFFFFFFFFFFFFFFFFFFFFFFFF1A
:10966000FFFFFFFFFFFFFFFFFFFFFFFFFFFFFFFF0A
:10967000FFFFFFFFFFFFFFFFFFFFFFFFFFFFFFFFFA
:10968000FFFFFFFFFFFFFFFFFFFFFFFFFFFFFFFFEA
:10969000FFFFFFFFFFFFFFFFFFFFFFFFFFFFFFFFDA
:1096A000FFFFFFFFFFFFFFFFFFFFFFFFFFFFFFFFCA
:1096B000FFFFFFFFFFFFFFFFFFFFFFFFFFFFFFFFBA
:1096C000FFFFFFFFFFFFFFFFFFFFFFFFFFFFFFFFAA
:1096D000FFFFFFFFFFFFFFFFFFFFFFFFFFFFFFFF9A
:1096E000FFFFFFFFFFFFFFFFFFFFFFFFFFFFFFFF8A
:1096F000FFFFFFFFFFFFFFFFFFFFFFFFFFFFFFFF7A
:10970000FFFFFFFFFFFFFFFFFFFFFFFFFFFFFFFF69
:10971000FFFFFFFFFFFFFFFFFFFFFFFFFFFFFFFF59
:10972000FFFFFFFFFFFFFFFFFFFFFFFFFFFFFFFF49
:10973000FFFFFFFFFFFFFFFFFFFFFFFFFFFFFFFF39
:10974000FFFFFFFFFFFFFFFFFFFFFFFFFFFFFFFF29
:10975000FFFFFFFFFFFFFFFF8E73B294F7BD2842AC
:109760009294FFFFFFFF6D6BCB5AFFFF518C0000FF
:10977000518CFFFFFFFFFFFFFFFFFFFFFFFFF39C89
:10978000000082105DEF5DEF45298210E739A210DD
:109790003084FFFFF39C6D6B7DEFFFFFFFFFFFFF4A
:1097A000FFFFFFFFFFFFFFFFFFFFFFFFFFFFFFFFC9
:1097B000FFFFFFFFFFFFFFFFFFFFFFFFFFFFFFFFB9
:1097C000FFFFFFFFFFFFFFFFFFFFFFFFFFFFFFFFA9
:1097D000FFFFFFFFFFFFFFFFFFFFFFFFFFFFFFFF99
:1097E000FFFFFFFFFFFFFFFFFFFFFFFFFFFFFFFF89
:1097F000FFFFFFFFFFFFFFFFFFFFFFFFFFFFFFFF79
:10980000FFFFFFFFFFFFFFFFFFFFFFFFFFFFFFFF68
:10981000FFFFFFFFFFFFFFFFFFFFFFFFFFFFFFFF58
:10982000FFFFFFFFFFFFFFFFFFFFFFFFFFFFFFFF48
:10983000FFFFFFFFFFFFFFFFFFFFFFFFFFFFFFFF38
:10984000FFFFFFFFFFFFFFFFFFFFFFFFFFFFFFFF28
:10985000FFFFFFFFFFFFFFFFFFFFFFFFFFFFFFFF18
:10986000FFFFFFFFFFFFFFFFFFFFFFFFFFFFFFFF08
:10987000FFFFFFFFFFFFFFFFFFFFFFFFFFFFFFFFF8
:10988000FFFFFFFFFFFFFFFFFFFFFFFFFFFFFFFFE8
:10989000FFFFFFFFFFFFFFFFFFFFFFFFFFFFFFFFD8
:1098A000FFFFFFFFFFFFFFFFFFFFFFFFFFFFFFFFC8
:1098B000FFFFFFFFFFFFFFFFFFFFFFFFFFFFFFFFB8
:1098C000FFFFFFFFFFFFFFFFFFFFFFFFFFFFFFFFA8
:1098D000FFFFFFFFFFFFFFFFFFFFFFFFFFFFFFFF98
:1098E000FFFFFFFFFFFFFFFFFFFFFFFFFFFFFFFF88
:1098F000FFFFFFFFFFFFFFFFFFFFFFFFFFFFFFFF78
:10990000FFFFFFFFFFFFFFFFFFFFFFFFFFFFFFFF67
:10991000FFFFFFFFFFFFFFFFFFFFFFFFFFFFFFFF57
:10992000FFFFFFFFFFFFFFFFFFFFFFFFFFFFFFFF47
:10993000FFFFFFFFFFFFFFFF8E731084FFFF34A5C3
:10994000E318A631E318A2109AD6FFFFA631000053
:10995000EF7BFFFFFFFFFFFFFFFFFFFFFFFFB29463
:1099600000000000AA52FFFFFFFF6D6B0000000027
:1099700034A5FFFFB2948E737DEFFFFFFFFFFFFF63
:10998000FFFFFFFFFFFFFFFFFFFFFFFFFFFFFFFFE7
:10999000FFFFFFFFFFFFFFFFFFFFFFFFFFFFFFFFD7
:1099A000FFFFFFFFFFFFFFFFFFFFFFFFFFFFFFFFC7
:1099B000FFFFFFFFFFFFFFFFFFFFFFFFFFFFFFFFB7
:1099C000FFFFFFFFFFFFFFFFFFFFFFFFFFFFFFFFA7
:1099D000FFFFFFFFFFFFFFFFFFFFFFFFFFFFFFFF97
:1099E000FFFFFFFFFFFFFFFFFFFFFFFFFFFFFFFF87
:1099F000FFFFFFFFFFFFFFFFFFFFFFFFFFFFFFFF77
:109A0000FFFFFFFFFFFFFFFFFFFFFFFFFFFFFFFF66
:109A1000FFFFFFFFFFFFFFFFFFFFFFFFFFFFFFFF56
:109A2000FFFFFFFFFFFFFFFFFFFFFFFFFFFFFFFF46
:109A3000FFFFFFFFFFFFFFFFFFFFFFFFFFFFFFFF36
:109A4000FFFFFFFFFFFFFFFFFFFFFFFFFFFFFFFF26
:109A5000FFFFFFFFFFFFFFFFFFFFFFFFFFFFFFFF16
:109A6000FFFFFFFFFFFFFFFFFFFFFFFFFFFFFFFF06
:109A7000FFFFFFFFFFFFFFFFFFFFFFFFFFFFFFFFF6
:109A8000FFFFFFFFFFFFFFFFFFFFFFFFFFFFFFFFE6
:109A9000FFFFFFFFFFFFFFFFFFFFFFFFFFFFFFFFD6
:109AA000FFFFFFFFFFFFFFFFFFFFFFFFFFFFFFFFC6
:109AB000FFFFFFFFFFFFFFFFFFFFFFFFFFFFFFFFB6
:109AC000FFFFFFFFFFFFFFFFFFFFFFFFFFFFFFFFA6
:109AD000FFFFFFFFFFFFFFFFFFFFFFFFFFFFFFFF96
:109AE000FFFFFFFFFFFFFFFFFFFFFFFFFFFFFFFF86
:109AF000FFFFFFFFFFFFFFFFFFFFFFFFFFFFFFFF76
:109B0000FFFFFFFFFFFFFFFFFFFFFFFFFFFFFFFF65
:109B1000FFFFFFFFFFFFFFFF6D6BEF7BFFFF38C60F
:109B200020000000CB5A3CE7FFFF6D6B00000000F7
:109B30003084FFFFFFFFFFFFFFFFFFFFFFFF96B532
:109B40004D6B86310000EB5AFFFFFFFF1CE7E73942
:109B50004D6BFFFF14A56D6B7DEFFFFFFFFFFFFF58
:109B6000FFFFFFFFFFFFFFFFFFFFFFFFFFFFFFFF05
:109B7000FFFFFFFFFFFFFFFFFFFFFFFFFFFFFFFFF5
:109B8000FFFFFFFFFFFFFFFFFFFFFFFFFFFFFFFFE5
:109B9000FFFFFFFFFFFFFFFFFFFFFFFFFFFFFFFFD5
:109BA000FFFFFFFFFFFFFFFFFFFFFFFFFFFFFFFFC5
:109BB000FFFFFFFFFFFFFFFFFFFFFFFFFFFFFFFFB5
:109BC000FFFFFFFFFFFFFFFFFFFFFFFFFFFFFFFFA5
:109BD000FFFFFFFFFFFFFFFFFFFFFFFFFFFFFFFF95
:109BE000FFFFFFFFFFFFFFFFFFFFFFFFFFFFFFFF85
:109BF000FFFFFFFFFFFFFFFFFFFFFFFFFFFFFFFF75
:109C0000FFFFFFFFFFFFFFFFFFFFFFFFFFFFFFFF64
:109C1000FFFFFFFFFFFFFFFFFFFFFFFFFFFFFFFF54
:109C2000FFFFFFFFFFFFFFFFFFFFFFFFFFFFFFFF44
:109C3000FFFFFFFFFFFFFFFFFFFFFFFFFFFFFFFF34
:109C4000FFFFFFFFFFFFFFFFFFFFFFFFFFFFFFFF24
:109C5000FFFFFFFFFFFFFFFFFFFFFFFFFFFFFFFF14
:109C6000FFFFFFFFFFFFFFFFFFFFFFFFFFFFFFFF04
:109C7000FFFFFFFFFFFFFFFFFFFFFFFFFFFFFFFFF4
:109C8000FFFFFFFFFFFFFFFFFFFFFFFFFFFFFFFFE4
:109C9000FFFFFFFFFFFFFFFFFFFFFFFFFFFFFFFFD4
:109CA000FFFFFFFFFFFFFFFFFFFFFFFFFFFFFFFFC4
:109CB000FFFFFFFFFFFFFFFFFFFFFFFFFFFFFFFFB4
:109CC000FFFFFFFFFFFFFFFFFFFFFFFFFFFFFFFFA4
:109CD000FFFFFFFFFFFFFFFFFFFFFFFFFFFFFFFF94
:109CE000FFFFFFFFFFFFFFFFFFFFFFFFFFFFFFFF84
:109CF000FFFFFFFFFFFFFFFF8E731084FFFF108445
:109D0000652918C6FFFFFFFFCF7B000061088A525C
:109D100075ADBEF7FFFFFFFFFFFFFFFFFFFFB6B50B
:109D2000A6314108000000000C639EF7FFFFFBDE38
:109D3000BAD6FFFFB2946D6B7DEFFFFFFFFFFFFF11
:109D4000FFFFFFFFFFFFFFFFFFFFFFFFFFFFFFFF23
:109D5000FFFFFFFFFFFFFFFFFFFFFFFFFFFFFFFF13
:109D6000FFFFFFFFFFFFFFFFFFFFFFFFFFFFFFFF03
:109D7000FFFFFFFFFFFFFFFFFFFFFFFFFFFFFFFFF3
:109D8000FFFFFFFFFFFFFFFFFFFFFFFFFFFFFFFFE3
:109D9000FFFFFFFFFFFFFFFFFFFFFFFFFFFFFFFFD3
:109DA000FFFFFFFFFFFFFFFFFFFFFFFFFFFFFFFFC3
:109DB000FFFFFFFFFFFFFFFFFFFFFFFFFFFFFFFFB3
:109DC000FFFFFFFFFFFFFFFFFFFFFFFFFFFFFFFFA3
:109DD000FFFFFFFFFFFFFFFFFFFFFFFFFFFFFFFF93
:109DE000FFFFFFFFFFFFFFFFFFFFFFFFFFFFFFFF83
:109DF000FFFFFFFFFFFFFFFFFFFFFFFFFFFFFFFF73
:109E0000FFFFFFFFFFFFFFFFFFFFFFFFFFFFFFFF62
:109E1000FFFFFFFFFFFFFFFFFFFFFFFFFFFFFFFF52
:109E2000FFFFFFFFFFFFFFFFFFFFFFFFFFFFFFFF42
:109E3000FFFFFFFFFFFFFFFFFFFFFFFFFFFFFFFF32
:109E4000FFFFFFFFFFFFFFFFFFFFFFFFFFFFFFFF22
:109E5000FFFFFFFFFFFFFFFFFFFFFFFFFFFFFFFF12
:109E6000FFFFFFFFFFFFFFFFFFFFFFFFFFFFFFFF02
:109E7000FFFFFFFFFFFFFFFFFFFFFFFFFFFFFFFFF2
:109E8000FFFFFFFFFFFFFFFFFFFFFFFFFFFFFFFFE2
:109E9000FFFFFFFFFFFFFFFFFFFFFFFFFFFFFFFFD2
:109EA000FFFFFFFFFFFFFFFFFFFFFFFFFFFFFFFFC2
:109EB000FFFFFFFFFFFFFFFFFFFFFFFFFFFFFFFFB2
:109EC000FFFFFFFFFFFFFFFFFFFFFFFFFFFFFFFFA2
:109ED000FFFFFFFFFFFFFFFF8E73EF7BFFFFDBDE68
:109EE00079CEFFFFFFFFCF7B000000000000E318EA
:109EF00034A5FFFFFFFFFFFFFFFFFFFFFFFF9EF700
:109F0000CB5AC318C31800000000E73918C6FFFF7A
:109F1000FFFFFFFF718C4D6B7DEFFFFFFFFFFFFF2A
:109F2000FFFFFFFFFFFFFFFFFFFFFFFFFFFFFFFF41
:109F3000FFFFFFFFFFFFFFFFFFFFFFFFFFFFFFFF31
:109F4000FFFFFFFFFFFFFFFFFFFFFFFFFFFFFFFF21
:109F5000FFFFFFFFFFFFFFFFFFFFFFFFFFFFFFFF11
:109F6000FFFFFFFFFFFFFFFFFFFFFFFFFFFFFFFF01
:109F7000FFFFFFFFFFFFFFFFFFFFFFFFFFFFFFFFF1
:109F8000FFFFFFFFFFFFFFFFFFFFFFFFFFFFFFFFE1
:109F9000FFFFFFFFFFFFFFFFFFFFFFFFFFFFFFFFD1
:109FA000FFFFFFFFFFFFFFFFFFFFFFFFFFFFFFFFC1
:109FB000FFFFFFFFFFFFFFFFFFFFFFFFFFFFFFFFB1
:109FC000FFFFFFFFFFFFFFFFFFFFFFFFFFFFFFFFA1
:109FD000FFFFFFFFFFFFFFFFFFFFFFFFFFFFFFFF91
:109FE000FFFFFFFFFFFFFFFFFFFFFFFFFFFFFFFF81
:109FF000FFFFFFFFFFFFFFFFFFFFFFFFFFFFFFFF71
:10A00000FFFFFFFFFFFFFFFFFFFFFFFFFFFFFFFF60
:10A01000FFFFFFFFFFFFFFFFFFFFFFFFFFFFFFFF50
:10A02000FFFFFFFFFFFFFFFFFFFFFFFFFFFFFFFF40
:10A03000FFFFFFFFFFFFFFFFFFFFFFFFFFFFFFFF30
:10A04000FFFFFFFFFFFFFFFFFFFFFFFFFFFFFFFF20
:10A05000FFFFFFFFFFFFFFFFFFFFFFFFFFFFFFFF10
:10A06000FFFFFFFFFFFFFFFFFFFFFFFFFFFFFFFF00
:10A07000FFFFFFFFFFFFFFFFFFFFFFFFFFFFFFFFF0
:10A08000FFFFFFFFFFFFFFFFFFFFFFFFFFFFFFFFE0
:10A09000FFFFFFFFFFFFFFFFFFFFFFFFFFFFFFFFD0
:10A0A000FFFFFFFFFFFFFFFFFFFFFFFFFFFFFFFFC0
:10A0B000FFFFFFFFFFFFFFFF8E73AE73FFFFFFFF8A
:10A0C000FFFF9AD6694A00000000A210E318694A0F
:10A0D0009AD6FFFFFFFFFFFFFFFFFFFFFFFFFFFF1E
:10A0E000EF7B4D6BD39C863100000000CB5ABEF74E
:10A0F000FFFFFFFF92944D6B5DEFFFFFFFFFFFFF40
:10A10000FFFFFFFFFFFFFFFFFFFFFFFFFFFFFFFF5F
:10A11000FFFFFFFFFFFFFFFFFFFFFFFFFFFFFFFF4F
:10A12000FFFFFFFFFFFFFFFFFFFFFFFFFFFFFFFF3F
:10A13000FFFFFFFFFFFFFFFFFFFFFFFFFFFFFFFF2F
:10A14000FFFFFFFFFFFFFFFFFFFFFFFFFFFFFFFF1F
:10A15000FFFFFFFFFFFFFFFFFFFFFFFFFFFFFFFF0F
:10A16000FFFFFFFFFFFFFFFFFFFFFFFFFFFFFFFFFF
:10A17000FFFFFFFFFFFFFFFFFFFFFFFFFFFFFFFFEF
:10A18000FFFFFFFFFFFFFFFFFFFFFFFFFFFFFFFFDF
:10A19000FFFFFFFFFFFFFFFFFFFFFFFFFFFFFFFFCF
:10A1A000FFFFFFFFFFFFFFFFFFFFFFFFFFFFFFFFBF
:10A1B000FFFFFFFFFFFFFFFFFFFFFFFFFFFFFFFFAF
:10A1C000FFFFFFFFFFFFFFFFFFFFFFFFFFFFFFFF9F
:10A1D000FFFFFFFFFFFFFFFFFFFFFFFFFFFFFFFF8F
:10A1E000FFFFFFFFFFFFFFFFFFFFFFFFFFFFFFFF7F
:10A1F000FFFFFFFFFFFFFFFFFFFFFFFFFFFFFFFF6F
:10A20000FFFFFFFFFFFFFFFFFFFFFFFFFFFFFFFF5E
:10A21000FFFFFFFFFFFFFFFFFFFFFFFFFFFFFFFF4E
:10A22000FFFFFFFFFFFFFFFFFFFFFFFFFFFFFFFF3E
:10A23000FFFFFFFFFFFFFFFFFFFFFFFFFFFFFFFF2E
:10A24000FFFFFFFFFFFFFFFFFFFFFFFFFFFFFFFF1E
:10A25000FFFFFFFFFFFFFFFFFFFFFFFFFFFFFFFF0E
:10A26000FFFFFFFFFFFFFFFFFFFFFFFFFFFFFFFFFE
:10A27000FFFFFFFFFFFFFFFFFFFFFFFFFFFFFFFFEE
:10A28000FFFFFFFFFFFFFFFFFFFFFFFFFFFFFFFFDE
:10A29000FFFFFFFFFFFFFFFF8E73AE73FFFFFFFFA8
:10A2A000FFFFAE7300000000A210B2941084CF7BB9
:10A2B000DFFFFFFFFFFFFFFFFFFFFFFFFFFFFFFFCE
:10A2C0001084A210B6B5D7BD00000000B294FFFF05
:10A2D000FFFFFFFF718C4D6B5DEFFFFFFFFFFFFF87
:10A2E000FFFFFFFFFFFFFFFFFFFFFFFFFFFFFFFF7E
:10A2F000FFFFFFFFFFFFFFFFFFFFFFFFFFFFFFFF6E
:10A30000FFFFFFFFFFFFFFFFFFFFFFFFFFFFFFFF5D
:10A31000FFFFFFFFFFFFFFFFFFFFFFFFFFFFFFFF4D
:10A32000FFFFFFFFFFFFFFFFFFFFFFFFFFFFFFFF3D
:10A33000FFFFFFFFFFFFFFFFFFFFFFFFFFFFFFFF2D
:10A34000FFFFFFFFFFFFFFFFFFFFFFFFFFFFFFFF1D
:10A35000FFFFFFFFFFFFFFFFFFFFFFFFFFFFFFFF0D
:10A36000FFFFFFFFFFFFFFFFFFFFFFFFFFFFFFFFFD
:10A37000FFFFFFFFFFFFFFFFFFFFFFFFFFFFFFFFED
:10A38000FFFFFFFFFFFFFFFFFFFFFFFFFFFFFFFFDD
:10A39000FFFFFFFFFFFFFFFFFFFFFFFFFFFFFFFFCD
:10A3A000FFFFFFFFFFFFFFFFFFFFFFFFFFFFFFFFBD
:10A3B000FFFFFFFFFFFFFFFFFFFFFFFFFFFFFFFFAD
:10A3C000FFFFFFFFFFFFFFFFFFFFFFFFFFFFFFFF9D
:10A3D000FFFFFFFFFFFFFFFFFFFFFFFFFFFFFFFF8D
:10A3E000FFFFFFFFFFFFFFFFFFFFFFFFFFFFFFFF7D
:10A3F000FFFFFFFFFFFFFFFFFFFFFFFFFFFFFFFF6D
:10A40000FFFFFFFFFFFFFFFFFFFFFFFFFFFFFFFF5C
:10A41000FFFFFFFFFFFFFFFFFFFFFFFFFFFFFFFF4C
:10A42000FFFFFFFFFFFFFFFFFFFFFFFFFFFFFFFF3C
:10A43000FFFFFFFFFFFFFFFFFFFFFFFFFFFFFFFF2C
:10A44000FFFFFFFFFFFFFFFFFFFFFFFFFFFFFFFF1C
:10A45000FFFFFFFFFFFFFFFFFFFFFFFFFFFFFFFF0C
:10A46000FFFFFFFFFFFFFFFFFFFFFFFFFFFFFFFFFC
:10A47000FFFFFFFFFFFFFFFF8E73AE73FFFFFFFFC6
:10A48000FFFFD7BD2000000014A538C6C3180C6319
:10A49000FFFFFFFFFFFFFFFFFFFFFFFFFFFFFFFFCC
:10A4A00010840000EB5A7DEFCB5A0000518CFFFF67
:10A4B000FFFFFFFF92946D6B5DEFFFFFFFFFFFFF5C
:10A4C000FFFFFFFFFFFFFFFFFFFFFFFFFFFFFFFF9C
:10A4D000FFFFFFFFFFFFFFFFFFFFFFFFFFFFFFFF8C
:10A4E000FFFFFFFFFFFFFFFFFFFFFFFFFFFFFFFF7C
:10A4F000FFFFFFFFFFFFFFFFFFFFFFFFFFFFFFFF6C
:10A50000FFFFFFFFFFFFFFFFFFFFFFFFFFFFFFFF5B
:10A51000FFFFFFFFFFFFFFFFFFFFFFFFFFFFFFFF4B
:10A52000FFFFFFFFFFFFFFFFFFFFFFFFFFFFFFFF3B
:10A53000FFFFFFFFFFFFFFFFFFFFFFFFFFFFFFFF2B
:10A54000FFFFFFFFFFFFFFFFFFFFFFFFFFFFFFFF1B
:10A55000FFFFFFFFFFFFFFFFFFFFFFFFFFFFFFFF0B
:10A56000FFFFFFFFFFFFFFFFFFFFFFFFFFFFFFFFFB
:10A57000FFFFFFFFFFFFFFFFFFFFFFFFFFFFFFFFEB
:10A58000FFFFFFFFFFFFFFFFFFFFFFFFFFFFFFFFDB
:10A59000FFFFFFFFFFFFFFFFFFFFFFFFFFFFFFFFCB
:10A5A000FFFFFFFFFFFFFFFFFFFFFFFFFFFFFFFFBB
:10A5B000FFFFFFFFFFFFFFFFFFFFFFFFFFFFFFFFAB
:10A5C000FFFFFFFFFFFFFFFFFFFFFFFFFFFFFFFF9B
:10A5D000FFFFFFFFFFFFFFFFFFFFFFFFFFFFFFFF8B
:10A5E000FFFFFFFFFFFFFFFFFFFFFFFFFFFFFFFF7B
:10A5F000FFFFFFFFFFFFFFFFFFFFFFFFFFFFFFFF6B
:10A60000FFFFFFFFFFFFFFFFFFFFFFFFFFFFFFFF5A
:10A61000FFFFFFFFFFFFFFFFFFFFFFFFFFFFFFFF4A
:10A62000FFFFFFFFFFFFFFFFFFFFFFFFFFFFFFFF3A
:10A63000FFFFFFFFFFFFFFFFFFFFFFFFFFFFFFFF2A
:10A64000FFFFFFFFFFFFFFFFFFFFFFFFFFFFFFFF1A
:10A65000FFFFFFFFFFFFFFFF8E73AE73FFFFFFFFE4
:10A66000FFFF34A50000C7399EF7CF7B00000C63C5
:10A67000FFFFFFFFFFFFFFFFDFFFDFFFFFFF7DEFBC
:10A68000694A0000A210FBDE59CE0000A21059CE8C
:10A69000FFFFFFFF718C6D6B5DEFFFFFFFFFFFFFA3
:10A6A000FFFFFFFFFFFFFFFFFFFFFFFFFFFFFFFFBA
:10A6B000FFFFFFFFFFFFFFFFFFFFFFFFFFFFFFFFAA
:10A6C000FFFFFFFFFFFFFFFFFFFFFFFFFFFFFFFF9A
:10A6D000FFFFFFFFFFFFFFFFFFFFFFFFFFFFFFFF8A
:10A6E000FFFFFFFFFFFFFFFFFFFFFFFFFFFFFFFF7A
:10A6F000FFFFFFFFFFFFFFFFFFFFFFFFFFFFFFFF6A
:10A70000FFFFFFFFFFFFFFFFFFFFFFFFFFFFFFFF59
:10A71000FFFFFFFFFFFFFFFFFFFFFFFFFFFFFFFF49
:10A72000FFFFFFFFFFFFFFFFFFFFFFFFFFFFFFFF39
:10A73000FFFFFFFFFFFFFFFFFFFFFFFFFFFFFFFF29
:10A74000FFFFFFFFFFFFFFFFFFFFFFFFFFFFFFFF19
:10A75000FFFFFFFFFFFFFFFFFFFFFFFFFFFFFFFF09
:10A76000FFFFFFFFFFFFFFFFFFFFFFFFFFFFFFFFF9
:10A77000FFFFFFFFFFFFFFFFFFFFFFFFFFFFFFFFE9
:10A78000FFFFFFFFFFFFFFFFFFFFFFFFFFFFFFFFD9
:10A79000FFFFFFFFFFFFFFFFFFFFFFFFFFFFFFFFC9
:10A7A000FFFFFFFFFFFFFFFFFFFFFFFFFFFFFFFFB9
:10A7B000FFFFFFFFFFFFFFFFFFFFFFFFFFFFFFFFA9
:10A7C000FFFFFFFFFFFFFFFFFFFFFFFFFFFFFFFF99
:10A7D000FFFFFFFFFFFFFFFFFFFFFFFFFFFFFFFF89
:10A7E000FFFFFFFFFFFFFFFFFFFFFFFFFFFFFFFF79
:10A7F000FFFFFFFFFFFFFFFFFFFFFFFFFFFFFFFF69
:10A80000FFFFFFFFFFFFFFFFFFFFFFFFFFFFFFFF58
:10A81000FFFFFFFFFFFFFFFFFFFFFFFFFFFFFFFF48
:10A82000FFFFFFFFFFFFFFFFFFFFFFFFFFFFFFFF38
:10A83000FFFFFFFFFFFFFFFF8E73CF7BFFFFFFFFD9
:10A840001CE786310000F39C1CE7E739000065290E
:10A85000DBDEFFFFFFFFFFFFFFFFFFFFFFFF96B500
:10A8600041080000000055AD5DEFE3180000D7BDC2
:10A87000FFFFFFFF92944D6B5DEFFFFFFFFFFFFFB8
:10A88000FFFFFFFFFFFFFFFFFFFFFFFFFFFFFFFFD8
:10A89000FFFFFFFFFFFFFFFFFFFFFFFFFFFFFFFFC8
:10A8A000FFFFFFFFFFFFFFFFFFFFFFFFFFFFFFFFB8
:10A8B000FFFFFFFFFFFFFFFFFFFFFFFFFFFFFFFFA8
:10A8C000FFFFFFFFFFFFFFFFFFFFFFFFFFFFFFFF98
:10A8D000FFFFFFFFFFFFFFFFFFFFFFFFFFFFFFFF88
:10A8E000FFFFFFFFFFFFFFFFFFFFFFFFFFFFFFFF78
:10A8F000FFFFFFFFFFFFFFFFFFFFFFFFFFFFFFFF68
:10A90000FFFFFFFFFFFFFFFFFFFFFFFFFFFFFFFF57
:10A91000FFFFFFFFFFFFFFFFFFFFFFFFFFFFFFFF47
:10A92000FFFFFFFFFFFFFFFFFFFFFFFFFFFFFFFF37
:10A93000FFFFFFFFFFFFFFFFFFFFFFFFFFFFFFFF27
:10A94000FFFFFFFFFFFFFFFFFFFFFFFFFFFFFFFF17
:10A95000FFFFFFFFFFFFFFFFFFFFFFFFFFFFFFFF07
:10A96000FFFFFFFFFFFFFFFFFFFFFFFFFFFFFFFFF7
:10A97000FFFFFFFFFFFFFFFFFFFFFFFFFFFFFFFFE7
:10A98000FFFFFFFFFFFFFFFFFFFFFFFFFFFFFFFFD7
:10A99000FFFFFFFFFFFFFFFFFFFFFFFFFFFFFFFFC7
:10A9A000FFFFFFFFFFFFFFFFFFFFFFFFFFFFFFFFB7
:10A9B000FFFFFFFFFFFFFFFFFFFFFFFFFFFFFFFFA7
:10A9C000FFFFFFFFFFFFFFFFFFFFFFFFFFFFFFFF97
:10A9D000FFFFFFFFFFFFFFFFFFFFFFFFFFFFFFFF87
:10A9E000FFFFFFFFFFFFFFFFFFFFFFFFFFFFFFFF77
:10A9F000FFFFFFFFFFFFFFFFFFFFFFFFFFFFFFFF67
:10AA0000FFFFFFFFFFFFFFFFFFFFFFFFFFFFFFFF56
:10AA1000FFFFFFFFFFFFFFFF8E73AE73FFFFFFFF20
:10AA2000BAD6C3180000BAD6F7BD4108000000002E
:10AA3000D39CFFFFFFFFFFFFFFFFFFFFFFFF55ADB1
:10AA4000200000000000CF7BBAD6652986317DEF5B
:10AA5000FFFFFFFF718C6D6B5DEFFFFFFFFFFFFFDF
:10AA6000FFFFFFFFFFFFFFFFFFFFFFFFFFFFFFFFF6
:10AA7000FFFFFFFFFFFFFFFFFFFFFFFFFFFFFFFFE6
:10AA8000FFFFFFFFFFFFFFFFFFFFFFFFFFFFFFFFD6
:10AA9000FFFFFFFFFFFFFFFFFFFFFFFFFFFFFFFFC6
:10AAA000FFFFFFFFFFFFFFFFFFFFFFFFFFFFFFFFB6
:10AAB000FFFFFFFFFFFFFFFFFFFFFFFFFFFFFFFFA6
:10AAC000FFFFFFFFFFFFFFFFFFFFFFFFFFFFFFFF96
:10AAD000FFFFFFFFFFFFFFFFFFFFFFFFFFFFFFFF86
:10AAE000FFFFFFFFFFFFFFFFFFFFFFFFFFFFFFFF76
:10AAF000FFFFFFFFFFFFFFFFFFFFFFFFFFFFFFFF66
:10AB0000FFFFFFFFFFFFFFFFFFFFFFFFFFFFFFFF55
:10AB1000FFFFFFFFFFFFFFFFFFFFFFFFFFFFFFFF45
:10AB2000FFFFFFFFFFFFFFFFFFFFFFFFFFFFFFFF35
:10AB3000FFFFFFFFFFFFFFFFFFFFFFFFFFFFFFFF25
:10AB4000FFFFFFFFFFFFFFFFFFFFFFFFFFFFFFFF15
:10AB5000FFFFFFFFFFFFFFFFFFFFFFFFFFFFFFFF05
:10AB6000FFFFFFFFFFFFFFFFFFFFFFFFFFFFFFFFF5
:10AB7000FFFFFFFFFFFFFFFFFFFFFFFFFFFFFFFFE5
:10AB8000FFFFFFFFFFFFFFFFFFFFFFFFFFFFFFFFD5
:10AB9000FFFFFFFFFFFFFFFFFFFFFFFFFFFFFFFFC5
:10ABA000FFFFFFFFFFFFFFFFFFFFFFFFFFFFFFFFB5
:10ABB000FFFFFFFFFFFFFFFFFFFFFFFFFFFFFFFFA5
:10ABC000FFFFFFFFFFFFFFFFFFFFFFFFFFFFFFFF95
:10ABD000FFFFFFFFFFFFFFFFFFFFFFFFFFFFFFFF85
:10ABE000FFFFFFFFFFFFFFFFFFFFFFFFFFFFFFFF75
:10ABF000FFFFFFFFFFFFFFFF8E73AE73FFFFFFFF3F
:10AC0000FFFFCB5AC31879CED39C00000000000090
:10AC10009294FFFFFFFFFFFFFFFFFFFFFFFF96B5CF
:10AC20008210000000004D6B96B5E31886317DEF71
:10AC3000FFFFFFFF718C6D6B5DEFFFFFFFFFFFFFFD
:10AC4000FFFFFFFFFFFFFFFFFFFFFFFFFFFFFFFF14
:10AC5000FFFFFFFFFFFFFFFFFFFFFFFFFFFFFFFF04
:10AC6000FFFFFFFFFFFFFFFFFFFFFFFFFFFFFFFFF4
:10AC7000FFFFFFFFFFFFFFFFFFFFFFFFFFFFFFFFE4
:10AC8000FFFFFFFFFFFFFFFFFFFFFFFFFFFFFFFFD4
:10AC9000FFFFFFFFFFFFFFFFFFFFFFFFFFFFFFFFC4
:10ACA000FFFFFFFFFFFFFFFFFFFFFFFFFFFFFFFFB4
:10ACB000FFFFFFFFFFFFFFFFFFFFFFFFFFFFFFFFA4
:10ACC000FFFFFFFFFFFFFFFFFFFFFFFFFFFFFFFF94
:10ACD000FFFFFFFFFFFFFFFFFFFFFFFFFFFFFFFF84
:10ACE000FFFFFFFFFFFFFFFFFFFFFFFFFFFFFFFF74
:10ACF000FFFFFFFFFFFFFFFFFFFFFFFFFFFFFFFF64
:10AD0000FFFFFFFFFFFFFFFFFFFFFFFFFFFFFFFF53
:10AD1000FFFFFFFFFFFFFFFFFFFFFFFFFFFFFFFF43
:10AD2000FFFFFFFFFFFFFFFFFFFFFFFFFFFFFFFF33
:10AD3000FFFFFFFFFFFFFFFFFFFFFFFFFFFFFFFF23
:10AD4000FFFFFFFFFFFFFFFFFFFFFFFFFFFFFFFF13
:10AD5000FFFFFFFFFFFFFFFFFFFFFFFFFFFFFFFF03
:10AD6000FFFFFFFFFFFFFFFFFFFFFFFFFFFFFFFFF3
:10AD7000FFFFFFFFFFFFFFFFFFFFFFFFFFFFFFFFE3
:10AD8000FFFFFFFFFFFFFFFFFFFFFFFFFFFFFFFFD3
:10AD9000FFFFFFFFFFFFFFFFFFFFFFFFFFFFFFFFC3
:10ADA000FFFFFFFFFFFFFFFFFFFFFFFFFFFFFFFFB3
:10ADB000FFFFFFFFFFFFFFFFFFFFFFFFFFFFFFFFA3
:10ADC000FFFFFFFFFFFFFFFFFFFFFFFFFFFFFFFF93
:10ADD000FFFFFFFFFFFFFFFF8E73CF7BFFFFFFFF34
:10ADE000FFFFEB5A410855AD518C000000000000F8
:10ADF000B294FFFFFFFFFFFFDFFFFFFFFFFF96B5EE
:10AE00004108000000006108C318000086319AD68E
:10AE1000FFFFFFFF718C4D6B5DEFFFFFFFFFFFFF3B
:10AE2000FFFFFFFFFFFFFFFFFFFFFFFFFFFFFFFF32
:10AE3000FFFFFFFFFFFFFFFFFFFFFFFFFFFFFFFF22
:10AE4000FFFFFFFFFFFFFFFFFFFFFFFFFFFFFFFF12
:10AE5000FFFFFFFFFFFFFFFFFFFFFFFFFFFFFFFF02
:10AE6000FFFFFFFFFFFFFFFFFFFFFFFFFFFFFFFFF2
:10AE7000FFFFFFFFFFFFFFFFFFFFFFFFFFFFFFFFE2
:10AE8000FFFFFFFFFFFFFFFFFFFFFFFFFFFFFFFFD2
:10AE9000FFFFFFFFFFFFFFFFFFFFFFFFFFFFFFFFC2
:10AEA000FFFFFFFFFFFFFFFFFFFFFFFFFFFFFFFFB2
:10AEB000FFFFFFFFFFFFFFFFFFFFFFFFFFFFFFFFA2
:10AEC000FFFFFFFFFFFFFFFFFFFFFFFFFFFFFFFF92
:10AED000FFFFFFFFFFFFFFFFFFFFFFFFFFFFFFFF82
:10AEE000FFFFFFFFFFFFFFFFFFFFFFFFFFFFFFFF72
:10AEF000FFFFFFFFFFFFFFFFFFFFFFFFFFFFFFFF62
:10AF0000FFFFFFFFFFFFFFFFFFFFFFFFFFFFFFFF51
:10AF1000FFFFFFFFFFFFFFFFFFFFFFFFFFFFFFFF41
:10AF2000FFFFFFFFFFFFFFFFFFFFFFFFFFFFFFFF31
:10AF3000FFFFFFFFFFFFFFFFFFFFFFFFFFFFFFFF21
:10AF4000FFFFFFFFFFFFFFFFFFFFFFFFFFFFFFFF11
:10AF5000FFFFFFFFFFFFFFFFFFFFFFFFFFFFFFFF01
:10AF6000FFFFFFFFFFFFFFFFFFFFFFFFFFFFFFFFF1
:10AF7000FFFFFFFFFFFFFFFFFFFFFFFFFFFFFFFFE1
:10AF8000FFFFFFFFFFFFFFFFFFFFFFFFFFFFFFFFD1
:10AF9000FFFFFFFFFFFFFFFFFFFFFFFFFFFFFFFFC1
:10AFA000FFFFFFFFFFFFFFFFFFFFFFFFFFFFFFFFB1
:10AFB000FFFFFFFFFFFFFFFF8E73CF7BFFFFFFFF52
:10AFC000FBDE08420000A21082100000000000001A
:10AFD000518CFFFFFFFFFFFFDFFFFFFFFFFF79CE79
:10AFE0008E738A52A631A631863104214D6B59CE1B
:10AFF000FFFFFFFF718C6D6B5DEFFFFFFFFFFFFF3A
:10B00000FFFFFFFFFFFFFFFFFFFFFFFFFFFFFFFF50
:10B01000FFFFFFFFFFFFFFFFFFFFFFFFFFFFFFFF40
:10B02000FFFFFFFFFFFFFFFFFFFFFFFFFFFFFFFF30
:10B03000FFFFFFFFFFFFFFFFFFFFFFFFFFFFFFFF20
:10B04000FFFFFFFFFFFFFFFFFFFFFFFFFFFFFFFF10
:10B05000FFFFFFFFFFFFFFFFFFFFFFFFFFFFFFFF00
:10B06000FFFFFFFFFFFFFFFFFFFFFFFFFFFFFFFFF0
:10B07000FFFFFFFFFFFFFFFFFFFFFFFFFFFFFFFFE0
:10B08000FFFFFFFFFFFFFFFFFFFFFFFFFFFFFFFFD0
:10B09000FFFFFFFFFFFFFFFFFFFFFFFFFFFFFFFFC0
:10B0A000FFFFFFFFFFFFFFFFFFFFFFFFFFFFFFFFB0
:10B0B000FFFFFFFFFFFFFFFFFFFFFFFFFFFFFFFFA0
:10B0C000FFFFFFFFFFFFFFFFFFFFFFFFFFFFFFFF90
:10B0D000FFFFFFFFFFFFFFFFFFFFFFFFFFFFFFFF80
:10B0E000FFFFFFFFFFFFFFFFFFFFFFFFFFFFFFFF70
:10B0F000FFFFFFFFFFFFFFFFFFFFFFFFFFFFFFFF60
:10B10000FFFFFFFFFFFFFFFFFFFFFFFFFFFFFFFF4F
:10B11000FFFFFFFFFFFFFFFFFFFFFFFFFFFFFFFF3F
:10B12000FFFFFFFFFFFFFFFFFFFFFFFFFFFFFFFF2F
:10B13000FFFFFFFFFFFFFFFFFFFFFFFFFFFFFFFF1F
:10B14000FFFFFFFFFFFFFFFFFFFFFFFFFFFFFFFF0F
:10B15000FFFFFFFFFFFFFFFFFFFFFFFFFFFFFFFFFF
:10B16000FFFFFFFFFFFFFFFFFFFFFFFFFFFFFFFFEF
:10B17000FFFFFFFFFFFFFFFFFFFFFFFFFFFFFFFFDF
:10B18000FFFFFFFFFFFFFFFFFFFFFFFFFFFFFFFFCF
:10B19000FFFFFFFFFFFFFFFF8E73CF7BFFFFFFFF70
:10B1A0009AD6EF7B45296529C7398631694A6D6B87
:10B1B000D7BDFFFFFFFFFFFFFFFFFFFFFFFFFFFF09
:10B1C000FFFF1CE70C6314A5F39CAE73FFFFFFFFAA
:10B1D000FFFFFFFF718C6D6B5DEFFFFFFFFFFFFF58
:10B1E000FFFFFFFFFFFFFFFFFFFFFFFFFFFFFFFF6F
:10B1F000FFFFFFFFFFFFFFFFFFFFFFFFFFFFFFFF5F
:10B20000FFFFFFFFFFFFFFFFFFFFFFFFFFFFFFFF4E
:10B21000FFFFFFFFFFFFFFFFFFFFFFFFFFFFFFFF3E
:10B22000FFFFFFFFFFFFFFFFFFFFFFFFFFFFFFFF2E
:10B23000FFFFFFFFFFFFFFFFFFFFFFFFFFFFFFFF1E
:10B24000FFFFFFFFFFFFFFFFFFFFFFFFFFFFFFFF0E
:10B25000FFFFFFFFFFFFFFFFFFFFFFFFFFFFFFFFFE
:10B26000FFFFFFFFFFFFFFFFFFFFFFFFFFFFFFFFEE
:10B27000FFFFFFFFFFFFFFFFFFFFFFFFFFFFFFFFDE
:10B28000FFFFFFFFFFFFFFFFFFFFFFFFFFFFFFFFCE
:10B29000FFFFFFFFFFFFFFFFFFFFFFFFFFFFFFFFBE
:10B2A000FFFFFFFFFFFFFFFFFFFFFFFFFFFFFFFFAE
:10B2B000FFFFFFFFFFFFFFFFFFFFFFFFFFFFFFFF9E
:10B2C000FFFFFFFFFFFFFFFFFFFFFFFFFFFFFFFF8E
:10B2D000FFFFFFFFFFFFFFFFFFFFFFFFFFFFFFFF7E
:10B2E000FFFFFFFFFFFFFFFFFFFFFFFFFFFFFFFF6E
:10B2F000FFFFFFFFFFFFFFFFFFFFFFFFFFFFFFFF5E
:10B30000FFFFFFFFFFFFFFFFFFFFFFFFFFFFFFFF4D
:10B31000FFFFFFFFFFFFFFFFFFFFFFFFFFFFFFFF3D
:10B32000FFFFFFFFFFFFFFFFFFFFFFFFFFFFFFFF2D
:10B33000FFFFFFFFFFFFFFFFFFFFFFFFFFFFFFFF1D
:10B34000FFFFFFFFFFFFFFFFFFFFFFFFFFFFFFFF0D
:10B35000FFFFFFFFFFFFFFFFFFFFFFFFFFFFFFFFFD
:10B36000FFFFFFFFFFFFFFFFFFFFFFFFFFFFFFFFED
:10B37000FFFFFFFFFFFFFFFF8E73AE73FFFFFFFFB7
:10B38000FFFFFFFFB294718CD39C4D6B9AD6FFFFE9
:10B39000FFFFDFFFFFFFFFFFFFFFFFFFFFFFFFFFDD
:10B3A000FFFFFBDEEB5AD39C92944D6BDFFFFFFF58
:10B3B000FFFFFFFF92944D6B5DEFFFFFFFFFFFFF6D
:10B3C000FFFFFFFFFFFFFFFFFFFFFFFFFFFFFFFF8D
:10B3D000FFFFFFFFFFFFFFFFFFFFFFFFFFFFFFFF7D
:10B3E000FFFFFFFFFFFFFFFFFFFFFFFFFFFFFFFF6D
:10B3F000FFFFFFFFFFFFFFFFFFFFFFFFFFFFFFFF5D
:10B40000FFFFFFFFFFFFFFFFFFFFFFFFFFFFFFFF4C
:10B41000FFFFFFFFFFFFFFFFFFFFFFFFFFFFFFFF3C
:10B42000FFFFFFFFFFFFFFFFFFFFFFFFFFFFFFFF2C
:10B43000FFFFFFFFFFFFFFFFFFFFFFFFFFFFFFFF1C
:10B44000FFFFFFFFFFFFFFFFFFFFFFFFFFFFFFFF0C
:10B45000FFFFFFFFFFFFFFFFFFFFFFFFFFFFFFFFFC
:10B46000FFFFFFFFFFFFFFFFFFFFFFFFFFFFFFFFEC
:10B47000FFFFFFFFFFFFFFFFFFFFFFFFFFFFFFFFDC
:10B48000FFFFFFFFFFFFFFFFFFFFFFFFFFFFFFFFCC
:10B49000FFFFFFFFFFFFFFFFFFFFFFFFFFFFFFFFBC
:10B4A000FFFFFFFFFFFFFFFFFFFFFFFFFFFFFFFFAC
:10B4B000FFFFFFFFFFFFFFFFFFFFFFFFFFFFFFFF9C
:10B4C000FFFFFFFFFFFFFFFFFFFFFFFFFFFFFFFF8C
:10B4D000FFFFFFFFFFFFFFFFFFFFFFFFFFFFFFFF7C
:10B4E000FFFFFFFFFFFFFFFFFFFFFFFFFFFFFFFF6C
:10B4F000FFFFFFFFFFFFFFFFFFFFFFFFFFFFFFFF5C
:10B50000FFFFFFFFFFFFFFFFFFFFFFFFFFFFFFFF4B
:10B51000FFFFFFFFFFFFFFFFFFFFFFFFFFFFFFFF3B
:10B52000FFFFFFFFFFFFFFFFFFFFFFFFFFFFFFFF2B
:10B53000FFFFFFFFFFFFFFFFFFFFFFFFFFFFFFFF1B
:10B54000FFFFFFFFFFFFFFFFFFFFFFFFFFFFFFFF0B
:10B55000FFFFFFFFFFFFFFFF8E73CF7BFFFFFFFFAC
:10B56000FFFFFFFF518C1084718C0C6379CEFFFFBD
:10B57000FFFFFFFFFFFFFFFFFFFFFFFFFFFFFFFFDB
:10B58000FFFFFBDE0C63D39C92944D6BDFFFFFFF4C
:10B59000FFFFFFFF92946D6B7DEFFFFFFFFFFFFF4B
:10B5A000FFFFFFFFFFFFFFFFFFFFFFFFFFFFFFFFAB
:10B5B000FFFFFFFFFFFFFFFFFFFFFFFFFFFFFFFF9B
:10B5C000FFFFFFFFFFFFFFFFFFFFFFFFFFFFFFFF8B
:10B5D000FFFFFFFFFFFFFFFFFFFFFFFFFFFFFFFF7B
:10B5E000FFFFFFFFFFFFFFFFFFFFFFFFFFFFFFFF6B
:10B5F000FFFFFFFFFFFFFFFFFFFFFFFFFFFFFFFF5B
:10B60000FFFFFFFFFFFFFFFFFFFFFFFFFFFFFFFF4A
:10B61000FFFFFFFFFFFFFFFFFFFFFFFFFFFFFFFF3A
:10B62000FFFFFFFFFFFFFFFFFFFFFFFFFFFFFFFF2A
:10B63000FFFFFFFFFFFFFFFFFFFFFFFFFFFFFFFF1A
:10B64000FFFFFFFFFFFFFFFFFFFFFFFFFFFFFFFF0A
:10B65000FFFFFFFFFFFFFFFFFFFFFFFFFFFFFFFFFA
:10B66000FFFFFFFFFFFFFFFFFFFFFFFFFFFFFFFFEA
:10B67000FFFFFFFFFFFFFFFFFFFFFFFFFFFFFFFFDA
:10B68000FFFFFFFFFFFFFFFFFFFFFFFFFFFFFFFFCA
:10B69000FFFFFFFFFFFFFFFFFFFFFFFFFFFFFFFFBA
:10B6A000FFFFFFFFFFFFFFFFFFFFFFFFFFFFFFFFAA
:10B6B000FFFFFFFFFFFFFFFFFFFFFFFFFFFFFFFF9A
:10B6C000FFFFFFFFFFFFFFFFFFFFFFFFFFFFFFFF8A
:10B6D000FFFFFFFFFFFFFFFFFFFFFFFFFFFFFFFF7A
:10B6E000FFFFFFFFFFFFFFFFFFFFFFFFFFFFFFFF6A
:10B6F000FFFFFFFFFFFFFFFFFFFFFFFFFFFFFFFF5A
:10B70000FFFFFFFFFFFFFFFFFFFFFFFFFFFFFFFF49
:10B71000FFFFFFFFFFFFFFFFFFFFFFFFFFFFFFFF39
:10B72000FFFFFFFFFFFFFFFFFFFFFFFFFFFFFFFF29
:10B73000FFFFFFFFFFFFFFFF8E73AE73FFFFFFFFF3
:10B74000FFFFFFFF3084308492940C6379CEFFFFBB
:10B75000FFFFFFFFFFFFFFFFFFFFFFFFFFFFFFFFF9
:10B76000FFFF1CE70C63D39C92944D6BDFFFFFFF40
:10B77000FFFFFFFF92946D6B7DEFFFFFFFFFFFFF69
:10B78000FFFFFFFFFFFFFFFFFFFFFFFFFFFFFFFFC9
:10B79000FFFFFFFFFFFFFFFFFFFFFFFFFFFFFFFFB9
:10B7A000FFFFFFFFFFFFFFFFFFFFFFFFFFFFFFFFA9
:10B7B000FFFFFFFFFFFFFFFFFFFFFFFFFFFFFFFF99
:10B7C000FFFFFFFFFFFFFFFFFFFFFFFFFFFFFFFF89
:10B7D000FFFFFFFFFFFFFFFFFFFFFFFFFFFFFFFF79
:10B7E000FFFFFFFFFFFFFFFFFFFFFFFFFFFFFFFF69
:10B7F000FFFFFFFFFFFFFFFFFFFFFFFFFFFFFFFF59
:10B80000FFFFFFFFFFFFFFFFFFFFFFFFFFFFFFFF48
:10B81000FFFFFFFFFFFFFFFFFFFFFFFFFFFFFFFF38
:10B82000FFFFFFFFFFFFFFFFFFFFFFFFFFFFFFFF28
:10B83000FFFFFFFFFFFFFFFFFFFFFFFFFFFFFFFF18
:10B84000FFFFFFFFFFFFFFFFFFFFFFFFFFFFFFFF08
:10B85000FFFFFFFFFFFFFFFFFFFFFFFFFFFFFFFFF8
:10B86000FFFFFFFFFFFFFFFFFFFFFFFFFFFFFFFFE8
:10B87000FFFFFFFFFFFFFFFFFFFFFFFFFFFFFFFFD8
:10B88000FFFFFFFFFFFFFFFFFFFFFFFFFFFFFFFFC8
:10B89000FFFFFFFFFFFFFFFFFFFFFFFFFFFFFFFFB8
:10B8A000FFFFFFFFFFFFFFFFFFFFFFFFFFFFFFFFA8
:10B8B000FFFFFFFFFFFFFFFFFFFFFFFFFFFFFFFF98
:10B8C000FFFFFFFFFFFFFFFFFFFFFFFFFFFFFFFF88
:10B8D000FFFFFFFFFFFFFFFFFFFFFFFFFFFFFFFF78
:10B8E000FFFFFFFFFFFFFFFFFFFFFFFFFFFFFFFF68
:10B8F000FFFFFFFFFFFFFFFFFFFFFFFFFFFFFFFF58
:10B90000FFFFFFFFFFFFFFFFFFFFFFFFFFFFFFFF47
:10B91000FFFFFFFFFFFFFFFF6D6BAE73FFFFFFFF3A
:10B92000FFFFFFFF3084308492940C6379CEFFFFD9
:10B93000FFFFFFFFFFFFFFFFFFFFFFFFFFFFFFFF17
:10B94000FFFF1CE7EB5AD39C92942C63DFFFFFFFB1
:10B95000FFFFFFFF92946D6B7DEFFFFFFFFFFFFF87
:10B96000FFFFFFFFFFFFFFFFFFFFFFFFFFFFFFFFE7
:10B97000FFFFFFFFFFFFFFFFFFFFFFFFFFFFFFFFD7
:10B98000FFFFFFFFFFFFFFFFFFFFFFFFFFFFFFFFC7
:10B99000FFFFFFFFFFFFFFFFFFFFFFFFFFFFFFFFB7
:10B9A000FFFFFFFFFFFFFFFFFFFFFFFFFFFFFFFFA7
:10B9B000FFFFFFFFFFFFFFFFFFFFFFFFFFFFFFFF97
:10B9C000FFFFFFFFFFFFFFFFFFFFFFFFFFFFFFFF87
:10B9D000FFFFFFFFFFFFFFFFFFFFFFFFFFFFFFFF77
:10B9E000FFFFFFFFFFFFFFFFFFFFFFFFFFFFFFFF67
:10B9F000FFFFFFFFFFFFFFFFFFFFFFFFFFFFFFFF57
:10BA0000FFFFFFFFFFFFFFFFFFFFFFFFFFFFFFFF46
:10BA1000FFFFFFFFFFFFFFFFFFFFFFFFFFFFFFFF36
:10BA2000FFFFFFFFFFFFFFFFFFFFFFFFFFFFFFFF26
:10BA3000FFFFFFFFFFFFFFFFFFFFFFFFFFFFFFFF16
:10BA4000FFFFFFFFFFFFFFFFFFFFFFFFFFFFFFFF06
:10BA5000FFFFFFFFFFFFFFFFFFFFFFFFFFFFFFFFF6
:10BA6000FFFFFFFFFFFFFFFFFFFFFFFFFFFFFFFFE6
:10BA7000FFFFFFFFFFFFFFFFFFFFFFFFFFFFFFFFD6
:10BA8000FFFFFFFFFFFFFFFFFFFFFFFFFFFFFFFFC6
:10BA9000FFFFFFFFFFFFFFFFFFFFFFFFFFFFFFFFB6
:10BAA000FFFFFFFFFFFFFFFFFFFFFFFFFFFFFFFFA6
:10BAB000FFFFFFFFFFFFFFFFFFFFFFFFFFFFFFFF96
:10BAC000FFFFFFFFFFFFFFFFFFFFFFFFFFFFFFFF86
:10BAD000FFFFFFFFFFFFFFFFFFFFFFFFFFFFFFFF76
:10BAE000FFFFFFFFFFFFFFFFFFFFFFFFFFFFFFFF66
:10BAF000FFFFFFFFFFFFFFFF6D6BAE73FFFFFFFF59
:10BB0000FFFFFFFF3084308492940C6379CEFFFFF7
:10BB1000FFFFFFFFFFFFFFFFFFFFFFFFFFFFFFFF35
:10BB2000FFFF1CE7EB5AD39C92942C63DFFFFFFFCF
:10BB3000FFFFFFFF92946D6B7DEFFFFFFFFFFFFFA5
:10BB4000FFFFFFFFFFFFFFFFFFFFFFFFFFFFFFFF05
:10BB5000FFFFFFFFFFFFFFFFFFFFFFFFFFFFFFFFF5
:10BB6000FFFFFFFFFFFFFFFFFFFFFFFFFFFFFFFFE5
:10BB7000FFFFFFFFFFFFFFFFFFFFFFFFFFFFFFFFD5
:10BB8000FFFFFFFFFFFFFFFFFFFFFFFFFFFFFFFFC5
:10BB9000FFFFFFFFFFFFFFFFFFFFFFFFFFFFFFFFB5
:10BBA000FFFFFFFFFFFFFFFFFFFFFFFFFFFFFFFFA5
:10BBB000FFFFFFFFFFFFFFFFFFFFFFFFFFFFFFFF95
:10BBC000FFFFFFFFFFFFFFFFFFFFFFFFFFFFFFFF85
:10BBD000FFFFFFFFFFFFFFFFFFFFFFFFFFFFFFFF75
:10BBE000FFFFFFFFFFFFFFFFFFFFFFFFFFFFFFFF65
:10BBF000FFFFFFFFFFFFFFFFFFFFFFFFFFFFFFFF55
:10BC0000FFFFFFFFFFFFFFFFFFFFFFFFFFFFFFFF44
:10BC1000FFFFFFFFFFFFFFFFFFFFFFFFFFFFFFFF34
:10BC2000FFFFFFFFFFFFFFFFFFFFFFFFFFFFFFFF24
:10BC3000FFFFFFFFFFFFFFFFFFFFFFFFFFFFFFFF14
:10BC4000FFFFFFFFFFFFFFFFFFFFFFFFFFFFFFFF04
:10BC5000FFFFFFFFFFFFFFFFFFFFFFFFFFFFFFFFF4
:10BC6000FFFFFFFFFFFFFFFFFFFFFFFFFFFFFFFFE4
:10BC7000FFFFFFFFFFFFFFFFFFFFFFFFFFFFFFFFD4
:10BC8000FFFFFFFFFFFFFFFFFFFFFFFFFFFFFFFFC4
:10BC9000FFFFFFFFFFFFFFFFFFFFFFFFFFFFFFFFB4
:10BCA000FFFFFFFFFFFFFFFFFFFFFFFFFFFFFFFFA4
:10BCB000FFFFFFFFFFFFFFFFFFFFFFFFFFFFFFFF94
:10BCC000FFFFFFFFFFFFFFFFFFFFFFFFFFFFFFFF84
:10BCD000FFFFFFFFFFFFFFFF8E73AE73FFFFFFFF4E
:10BCE000FFFFFFFF3084308492942C6379CEFFFFF6
:10BCF000FFFFFFFFFFFFFFFFFFFFFFFFFFFFFFFF54
:10BD0000FFFF1CE7EB5AD39C92942C63DFFFFFFFED
:10BD1000FFFFFFFF92946D6B7DEFFFFFFFFFFFFFC3
:10BD2000FFFFFFFFFFFFFFFFFFFFFFFFFFFFFFFF23
:10BD3000FFFFFFFFFFFFFFFFFFFFFFFFFFFFFFFF13
:10BD4000FFFFFFFFFFFFFFFFFFFFFFFFFFFFFFFF03
:10BD5000FFFFFFFFFFFFFFFFFFFFFFFFFFFFFFFFF3
:10BD6000FFFFFFFFFFFFFFFFFFFFFFFFFFFFFFFFE3
:10BD7000FFFFFFFFFFFFFFFFFFFFFFFFFFFFFFFFD3
:10BD8000FFFFFFFFFFFFFFFFFFFFFFFFFFFFFFFFC3
:10BD9000FFFFFFFFFFFFFFFFFFFFFFFFFFFFFFFFB3
:10BDA000FFFFFFFFFFFFFFFFFFFFFFFFFFFFFFFFA3
:10BDB000FFFFFFFFFFFFFFFFFFFFFFFFFFFFFFFF93
:10BDC000FFFFFFFFFFFFFFFFFFFFFFFFFFFFFFFF83
:10BDD000FFFFFFFFFFFFFFFFFFFFFFFFFFFFFFFF73
:10BDE000FFFFFFFFFFFFFFFFFFFFFFFFFFFFFFFF63
:10BDF000FFFFFFFFFFFFFFFFFFFFFFFFFFFFFFFF53
:10BE0000FFFFFFFFFFFFFFFFFFFFFFFFFFFFFFFF42
:10BE1000FFFFFFFFFFFFFFFFFFFFFFFFFFFFFFFF32
:10BE2000FFFFFFFFFFFFFFFFFFFFFFFFFFFFFFFF22
:10BE3000FFFFFFFFFFFFFFFFFFFFFFFFFFFFFFFF12
:10BE4000FFFFFFFFFFFFFFFFFFFFFFFFFFFFFFFF02
:10BE5000FFFFFFFFFFFFFFFFFFFFFFFFFFFFFFFFF2
:10BE6000FFFFFFFFFFFFFFFFFFFFFFFFFFFFFFFFE2
:10BE7000FFFFFFFFFFFFFFFFFFFFFFFFFFFFFFFFD2
:10BE8000FFFFFFFFFFFFFFFFFFFFFFFFFFFFFFFFC2
:10BE9000FFFFFFFFFFFFFFFFFFFFFFFFFFFFFFFFB2
:10BEA000FFFFFFFFFFFFFFFFFFFFFFFFFFFFFFFFA2
:10BEB000FFFFFFFFFFFFFFFF8E73AE73FFFFFFFF6C
:10BEC000FFFFFFFF3084308492942C6379CEFFFF14
:10BED000FFFFFFFFFFFFFFFFFFFFFFFFFFFFFFFF72
:10BEE000FFFF1CE7EB5AD39C92942C63DFFFFFFF0C
:10BEF000FFFFFFFF92946D6B7DEFFFFFFFFFFFFFE2
:10BF0000FFFFFFFFFFFFFFFFFFFFFFFFFFFFFFFF41
:10BF1000FFFFFFFFFFFFFFFFFFFFFFFFFFFFFFFF31
:10BF2000FFFFFFFFFFFFFFFFFFFFFFFFFFFFFFFF21
:10BF3000FFFFFFFFFFFFFFFFFFFFFFFFFFFFFFFF11
:10BF4000FFFFFFFFFFFFFFFFFFFFFFFFFFFFFFFF01
:10BF5000FFFFFFFFFFFFFFFFFFFFFFFFFFFFFFFFF1
:10BF6000FFFFFFFFFFFFFFFFFFFFFFFFFFFFFFFFE1
:10BF7000FFFFFFFFFFFFFFFFFFFFFFFFFFFFFFFFD1
:10BF8000FFFFFFFFFFFFFFFFFFFFFFFFFFFFFFFFC1
:10BF9000FFFFFFFFFFFFFFFFFFFFFFFFFFFFFFFFB1
:10BFA000FFFFFFFFFFFFFFFFFFFFFFFFFFFFFFFFA1
:10BFB000FFFFFFFFFFFFFFFFFFFFFFFFFFFFFFFF91
:10BFC000FFFFFFFFFFFFFFFFFFFFFFFFFFFFFFFF81
:10BFD000FFFFFFFFFFFFFFFFFFFFFFFFFFFFFFFF71
:10BFE000FFFFFFFFFFFFFFFFFFFFFFFFFFFFFFFF61
:10BFF000FFFFFFFFFFFFFFFFFFFFFFFFFFFFFFFF51
:10C00000FFFFFFFFFFFFFFFFFFFFFFFFFFFFFFFF40
:10C01000FFFFFFFFFFFFFFFFFFFFFFFFFFFFFFFF30
:10C02000FFFFFFFFFFFFFFFFFFFFFFFFFFFFFFFF20
:10C03000FFFFFFFFFFFFFFFFFFFFFFFFFFFFFFFF10
:10C04000FFFFFFFFFFFFFFFFFFFFFFFFFFFFFFFF00
:10C05000FFFFFFFFFFFFFFFFFFFFFFFFFFFFFFFFF0
:10C06000FFFFFFFFFFFFFFFFFFFFFFFFFFFFFFFFE0
:10C07000FFFFFFFFFFFFFFFFFFFFFFFFFFFFFFFFD0
:10C08000FFFFFFFFFFFFFFFFFFFFFFFFFFFFFFFFC0
:10C09000FFFFFFFFFFFFFFFF8E73AE73FFFFFFFF8A
:10C0A000FFFFFFFF3084308492942C6379CEFFFF32
:10C0B000FFFFFFFFFFFFFFFFFFFFFFFFFFFFFFFF90
:10C0C000FFFF1CE7EB5AD39C92942C63DFFFFFFF2A
:10C0D000FFFFFFFF92946D6B7DEFFFFFFFFFFFFF00
:10C0E000FFFFFFFFFFFFFFFFFFFFFFFFFFFFFFFF60
:10C0F000FFFFFFFFFFFFFFFFFFFFFFFFFFFFFFFF50
:10C10000FFFFFFFFFFFFFFFFFFFFFFFFFFFFFFFF3F
:10C11000FFFFFFFFFFFFFFFFFFFFFFFFFFFFFFFF2F
:10C12000FFFFFFFFFFFFFFFFFFFFFFFFFFFFFFFF1F
:10C13000FFFFFFFFFFFFFFFFFFFFFFFFFFFFFFFF0F
:10C14000FFFFFFFFFFFFFFFFFFFFFFFFFFFFFFFFFF
:10C15000FFFFFFFFFFFFFFFFFFFFFFFFFFFFFFFFEF
:10C16000FFFFFFFFFFFFFFFFFFFFFFFFFFFFFFFFDF
:10C17000FFFFFFFFFFFFFFFFFFFFFFFFFFFFFFFFCF
:10C18000FFFFFFFFFFFFFFFFFFFFFFFFFFFFFFFFBF
:10C19000FFFFFFFFFFFFFFFFFFFFFFFFFFFFFFFFAF
:10C1A000FFFFFFFFFFFFFFFFFFFFFFFFFFFFFFFF9F
:10C1B000FFFFFFFFFFFFFFFFFFFFFFFFFFFFFFFF8F
:10C1C000FFFFFFFFFFFFFFFFFFFFFFFFFFFFFFFF7F
:10C1D000FFFFFFFFFFFFFFFFFFFFFFFFFFFFFFFF6F
:10C1E000FFFFFFFFFFFFFFFFFFFFFFFFFFFFFFFF5F
:10C1F000FFFFFFFFFFFFFFFFFFFFFFFFFFFFFFFF4F
:10C20000FFFFFFFFFFFFFFFFFFFFFFFFFFFFFFFF3E
:10C21000FFFFFFFFFFFFFFFFFFFFFFFFFFFFFFFF2E
:10C22000FFFFFFFFFFFFFFFFFFFFFFFFFFFFFFFF1E
:10C23000FFFFFFFFFFFFFFFFFFFFFFFFFFFFFFFF0E
:10C24000FFFFFFFFFFFFFFFFFFFFFFFFFFFFFFFFFE
:10C25000FFFFFFFFFFFFFFFFFFFFFFFFFFFFFFFFEE
:10C26000FFFFFFFFFFFFFFFFFFFFFFFFFFFFFFFFDE
:10C27000FFFFFFFFFFFFFFFF8E73AE73FFFFFFFFA8
:10C28000FFFFFFFF3084308492940C6379CEFFFF70
:10C29000FFFFFFFFFFFFFFFFFFFFFFFFFFFFFFFFAE
:10C2A000FFFF1CE7EB5AD39C92942C63DFFFFFFF48
:10C2B000FFFFFFFF92946D6B7DEFFFFFFFFFFFFF1E
:10C2C000FFFFFFFFFFFFFFFFFFFFFFFFFFFFFFFF7E
:10C2D000FFFFFFFFFFFFFFFFFFFFFFFFFFFFFFFF6E
:10C2E000FFFFFFFFFFFFFFFFFFFFFFFFFFFFFFFF5E
:10C2F000FFFFFFFFFFFFFFFFFFFFFFFFFFFFFFFF4E
:10C30000FFFFFFFFFFFFFFFFFFFFFFFFFFFFFFFF3D
:10C31000FFFFFFFFFFFFFFFFFFFFFFFFFFFFFFFF2D
:10C32000FFFFFFFFFFFFFFFFFFFFFFFFFFFFFFFF1D
:10C33000FFFFFFFFFFFFFFFFFFFFFFFFFFFFFFFF0D
:10C34000FFFFFFFFFFFFFFFFFFFFFFFFFFFFFFFFFD
:10C35000FFFFFFFFFFFFFFFFFFFFFFFFFFFFFFFFED
:10C36000FFFFFFFFFFFFFFFFFFFFFFFFFFFFFFFFDD
:10C37000FFFFFFFFFFFFFFFFFFFFFFFFFFFFFFFFCD
:10C38000FFFFFFFFFFFFFFFFFFFFFFFFFFFFFFFFBD
:10C39000FFFFFFFFFFFFFFFFFFFFFFFFFFFFFFFFAD
:10C3A000FFFFFFFFFFFFFFFFFFFFFFFFFFFFFFFF9D
:10C3B000FFFFFFFFFFFFFFFFFFFFFFFFFFFFFFFF8D
:10C3C000FFFFFFFFFFFFFFFFFFFFFFFFFFFFFFFF7D
:10C3D000FFFFFFFFFFFFFFFFFFFFFFFFFFFFFFFF6D
:10C3E000FFFFFFFFFFFFFFFFFFFFFFFFFFFFFFFF5D
:10C3F000FFFFFFFFFFFFFFFFFFFFFFFFFFFFFFFF4D
:10C40000FFFFFFFFFFFFFFFFFFFFFFFFFFFFFFFF3C
:10C41000FFFFFFFFFFFFFFFFFFFFFFFFFFFFFFFF2C
:10C42000FFFFFFFFFFFFFFFFFFFFFFFFFFFFFFFF1C
:10C43000FFFFFFFFFFFFFFFFFFFFFFFFFFFFFFFF0C
:10C44000FFFFFFFFFFFFFFFFFFFFFFFFFFFFFFFFFC
:10C45000FFFFFFFFFFFFFFFF8E73AE73FFFFFFFFC6
:10C46000FFFFFFFF3084308492940C6379CEFFFF8E
:10C47000FFFFFFFFFFFFFFFFFFFFFFFFFFFFFFFFCC
:10C48000FFFFFBDEEB5AD39C92942C63DFFFFFFF90
:10C49000FFFFFFFF92946D6B7DEFFFFFFFFFFFFF3C
:10C4A000FFFFFFFFFFFFFFFFFFFFFFFFFFFFFFFF9C
:10C4B000FFFFFFFFFFFFFFFFFFFFFFFFFFFFFFFF8C
:10C4C000FFFFFFFFFFFFFFFFFFFFFFFFFFFFFFFF7C
:10C4D000FFFFFFFFFFFFFFFFFFFFFFFFFFFFFFFF6C
:10C4E000FFFFFFFFFFFFFFFFFFFFFFFFFFFFFFFF5C
:10C4F000FFFFFFFFFFFFFFFFFFFFFFFFFFFFFFFF4C
:10C50000FFFFFFFFFFFFFFFFFFFFFFFFFFFFFFFF3B
:10C51000FFFFFFFFFFFFFFFFFFFFFFFFFFFFFFFF2B
:10C52000FFFFFFFFFFFFFFFFFFFFFFFFFFFFFFFF1B
:10C53000FFFFFFFFFFFFFFFFFFFFFFFFFFFFFFFF0B
:10C54000FFFFFFFFFFFFFFFFFFFFFFFFFFFFFFFFFB
:10C55000FFFFFFFFFFFFFFFFFFFFFFFFFFFFFFFFEB
:10C56000FFFFFFFFFFFFFFFFFFFFFFFFFFFFFFFFDB
:10C57000FFFFFFFFFFFFFFFFFFFFFFFFFFFFFFFFCB
:10C58000FFFFFFFFFFFFFFFFFFFFFFFFFFFFFFFFBB
:10C59000FFFFFFFFFFFFFFFFFFFFFFFFFFFFFFFFAB
:10C5A000FFFFFFFFFFFFFFFFFFFFFFFFFFFFFFFF9B
:10C5B000FFFFFFFFFFFFFFFFFFFFFFFFFFFFFFFF8B
:10C5C000FFFFFFFFFFFFFFFFFFFFFFFFFFFFFFFF7B
:10C5D000FFFFFFFFFFFFFFFFFFFFFFFFFFFFFFFF6B
:10C5E000FFFFFFFFFFFFFFFFFFFFFFFFFFFFFFFF5B
:10C5F000FFFFFFFFFFFFFFFFFFFFFFFFFFFFFFFF4B
:10C60000FFFFFFFFFFFFFFFFFFFFFFFFFFFFFFFF3A
:10C61000FFFFFFFFFFFFFFFFFFFFFFFFFFFFFFFF2A
:10C62000FFFFFFFFFFFFFFFFFFFFFFFFFFFFFFFF1A
:10C63000FFFFFFFFFFFFFFFF8E73AE73FFFFFFFFE4
:10C64000FFFFFFFF3084308492940C6379CEFFFFAC
:10C65000FFFFFFFFFFFFFFFFFFFFFFFFFFFFFFFFEA
:10C66000FFFFFBDEEB5AD39C92942C63DFFFFFFFAE
:10C67000FFFFFFFF92946D6B7DEFFFFFFFFFFFFF5A
:10C68000FFFFFFFFFFFFFFFFFFFFFFFFFFFFFFFFBA
:10C69000FFFFFFFFFFFFFFFFFFFFFFFFFFFFFFFFAA
:10C6A000FFFFFFFFFFFFFFFFFFFFFFFFFFFFFFFF9A
:10C6B000FFFFFFFFFFFFFFFFFFFFFFFFFFFFFFFF8A
:10C6C000FFFFFFFFFFFFFFFFFFFFFFFFFFFFFFFF7A
:10C6D000FFFFFFFFFFFFFFFFFFFFFFFFFFFFFFFF6A
:10C6E000FFFFFFFFFFFFFFFFFFFFFFFFFFFFFFFF5A
:10C6F000FFFFFFFFFFFFFFFFFFFFFFFFFFFFFFFF4A
:10C70000FFFFFFFFFFFFFFFFFFFFFFFFFFFFFFFF39
:10C71000FFFFFFFFFFFFFFFFFFFFFFFFFFFFFFFF29
:10C72000FFFFFFFFFFFFFFFFFFFFFFFFFFFFFFFF19
:10C73000FFFFFFFFFFFFFFFFFFFFFFFFFFFFFFFF09
:10C74000FFFFFFFFFFFFFFFFFFFFFFFFFFFFFFFFF9
:10C75000FFFFFFFFFFFFFFFFFFFFFFFFFFFFFFFFE9
:10C76000FFFFFFFFFFFFFFFFFFFFFFFFFFFFFFFFD9
:10C77000FFFFFFFFFFFFFFFFFFFFFFFFFFFFFFFFC9
:10C78000FFFFFFFFFFFFFFFFFFFFFFFFFFFFFFFFB9
:10C79000FFFFFFFFFFFFFFFFFFFFFFFFFFFFFFFFA9
:10C7A000FFFFFFFFFFFFFFFFFFFFFFFFFFFFFFFF99
:10C7B000FFFFFFFFFFFFFFFFFFFFFFFFFFFFFFFF89
:10C7C000FFFFFFFFFFFFFFFFFFFFFFFFFFFFFFFF79
:10C7D000FFFFFFFFFFFFFFFFFFFFFFFFFFFFFFFF69
:10C7E000FFFFFFFFFFFFFFFFFFFFFFFFFFFFFFFF59
:10C7F000FFFFFFFFFFFFFFFFFFFFFFFFFFFFFFFF49
:10C80000FFFFFFFFFFFFFFFFFFFFFFFFFFFFFFFF38
:10C81000FFFFFFFFFFFFFFFF8E73AE73FFFFFFFF02
:10C82000FFFFFFFF3084308492940C6379CEFFFFCA
:10C83000FFFFFFFFFFFFFFFFFFFFFFFFFFFFFFFF08
:10C84000FFFFFBDEEB5AD39C92942C63DFFFFFFFCC
:10C85000FFFFFFFF92946D6B7DEFFFFFFFFFFFFF78
:10C86000FFFFFFFFFFFFFFFFFFFFFFFFFFFFFFFFD8
:10C87000FFFFFFFFFFFFFFFFFFFFFFFFFFFFFFFFC8
:10C88000FFFFFFFFFFFFFFFFFFFFFFFFFFFFFFFFB8
:10C89000FFFFFFFFFFFFFFFFFFFFFFFFFFFFFFFFA8
:10C8A000FFFFFFFFFFFFFFFFFFFFFFFFFFFFFFFF98
:10C8B000FFFFFFFFFFFFFFFFFFFFFFFFFFFFFFFF88
:10C8C000FFFFFFFFFFFFFFFFFFFFFFFFFFFFFFFF78
:10C8D000FFFFFFFFFFFFFFFFFFFFFFFFFFFFFFFF68
:10C8E000FFFFFFFFFFFFFFFFFFFFFFFFFFFFFFFF58
:10C8F000FFFFFFFFFFFFFFFFFFFFFFFFFFFFFFFF48
:10C90000FFFFFFFFFFFFFFFFFFFFFFFFFFFFFFFF37
:10C91000FFFFFFFFFFFFFFFFFFFFFFFFFFFFFFFF27
:10C92000FFFFFFFFFFFFFFFFFFFFFFFFFFFFFFFF17
:10C93000FFFFFFFFFFFFFFFFFFFFFFFFFFFFFFFF07
:10C94000FFFFFFFFFFFFFFFFFFFFFFFFFFFFFFFFF7
:10C95000FFFFFFFFFFFFFFFFFFFFFFFFFFFFFFFFE7
:10C96000FFFFFFFFFFFFFFFFFFFFFFFFFFFFFFFFD7
:10C97000FFFFFFFFFFFFFFFFFFFFFFFFFFFFFFFFC7
:10C98000FFFFFFFFFFFFFFFFFFFFFFFFFFFFFFFFB7
:10C99000FFFFFFFFFFFFFFFFFFFFFFFFFFFFFFFFA7
:10C9A000FFFFFFFFFFFFFFFFFFFFFFFFFFFFFFFF97
:10C9B000FFFFFFFFFFFFFFFFFFFFFFFFFFFFFFFF87
:10C9C000FFFFFFFFFFFFFFFFFFFFFFFFFFFFFFFF77
:10C9D000FFFFFFFFFFFFFFFFFFFFFFFFFFFFFFFF67
:10C9E000FFFFFFFFFFFFFFFFFFFFFFFFFFFFFFFF57
:10C9F000FFFFFFFFFFFFFFFF8E73AE73FFFFFFFF21
:10CA0000FFFFFFFF3084308492940C6379CEFFFFE8
:10CA1000FFFFFFFFFFFFFFFFFFFFFFFFFFFFFFFF26
:10CA2000FFFFFBDEEB5AD39C92942C63DFFFFFFFEA
:10CA3000FFFFFFFF92946D6B7DEFFFFFFFFFFFFF96
:10CA4000FFFFFFFFFFFFFFFFFFFFFFFFFFFFFFFFF6
:10CA5000FFFFFFFFFFFFFFFFFFFFFFFFFFFFFFFFE6
:10CA6000FFFFFFFFFFFFFFFFFFFFFFFFFFFFFFFFD6
:10CA7000FFFFFFFFFFFFFFFFFFFFFFFFFFFFFFFFC6
:10CA8000FFFFFFFFFFFFFFFFFFFFFFFFFFFFFFFFB6
:10CA9000FFFFFFFFFFFFFFFFFFFFFFFFFFFFFFFFA6
:10CAA000FFFFFFFFFFFFFFFFFFFFFFFFFFFFFFFF96
:10CAB000FFFFFFFFFFFFFFFFFFFFFFFFFFFFFFFF86
:10CAC000FFFFFFFFFFFFFFFFFFFFFFFFFFFFFFFF76
:10CAD000FFFFFFFFFFFFFFFFFFFFFFFFFFFFFFFF66
:10CAE000FFFFFFFFFFFFFFFFFFFFFFFFFFFFFFFF56
:10CAF000FFFFFFFFFFFFFFFFFFFFFFFFFFFFFFFF46
:10CB0000FFFFFFFFFFFFFFFFFFFFFFFFFFFFFFFF35
:10CB1000FFFFFFFFFFFFFFFFFFFFFFFFFFFFFFFF25
:10CB2000FFFFFFFFFFFFFFFFFFFFFFFFFFFFFFFF15
:10CB3000FFFFFFFFFFFFFFFFFFFFFFFFFFFFFFFF05
:10CB4000FFFFFFFFFFFFFFFFFFFFFFFFFFFFFFFFF5
:10CB5000FFFFFFFFFFFFFFFFFFFFFFFFFFFFFFFFE5
:10CB6000FFFFFFFFFFFFFFFFFFFFFFFFFFFFFFFFD5
:10CB7000FFFFFFFFFFFFFFFFFFFFFFFFFFFFFFFFC5
:10CB8000FFFFFFFFFFFFFFFFFFFFFFFFFFFFFFFFB5
:10CB9000FFFFFFFFFFFFFFFFFFFFFFFFFFFFFFFFA5
:10CBA000FFFFFFFFFFFFFFFFFFFFFFFFFFFFFFFF95
:10CBB000FFFFFFFFFFFFFFFFFFFFFFFFFFFFFFFF85
:10CBC000FFFFFFFFFFFFFFFFFFFFFFFFFFFFFFFF75
:10CBD000FFFFFFFFFFFFFFFF8E73AE73FFFFFFFF3F
:10CBE000FFFFFFFF3084308492940C6379CEFFFF07
:10CBF000FFFFFFFFFFFFFFFFFFFFFFFFFFFFFFFF45
:10CC0000FFFFFBDEEB5AD39C92942C63DFFFFFFF08
:10CC1000FFFFFFFF92946D6B7DEFFFFFFFFFFFFFB4
:10CC2000FFFFFFFFFFFFFFFFFFFFFFFFFFFFFFFF14
:10CC3000FFFFFFFFFFFFFFFFFFFFFFFFFFFFFFFF04
:10CC4000FFFFFFFFFFFFFFFFFFFFFFFFFFFFFFFFF4
:10CC5000FFFFFFFFFFFFFFFFFFFFFFFFFFFFFFFFE4
:10CC6000FFFFFFFFFFFFFFFFFFFFFFFFFFFFFFFFD4
:10CC7000FFFFFFFFFFFFFFFFFFFFFFFFFFFFFFFFC4
:10CC8000FFFFFFFFFFFFFFFFFFFFFFFFFFFFFFFFB4
:10CC9000FFFFFFFFFFFFFFFFFFFFFFFFFFFFFFFFA4
:10CCA000FFFFFFFFFFFFFFFFFFFFFFFFFFFFFFFF94
:10CCB000FFFFFFFFFFFFFFFFFFFFFFFFFFFFFFFF84
:10CCC000FFFFFFFFFFFFFFFFFFFFFFFFFFFFFFFF74
:10CCD000FFFFFFFFFFFFFFFFFFFFFFFFFFFFFFFF64
:10CCE000FFFFFFFFFFFFFFFFFFFFFFFFFFFFFFFF54
:10CCF000FFFFFFFFFFFFFFFFFFFFFFFFFFFFFFFF44
:10CD0000FFFFFFFFFFFFFFFFFFFFFFFFFFFFFFFF33
:10CD1000FFFFFFFFFFFFFFFFFFFFFFFFFFFFFFFF23
:10CD2000FFFFFFFFFFFFFFFFFFFFFFFFFFFFFFFF13
:10CD3000FFFFFFFFFFFFFFFFFFFFFFFFFFFFFFFF03
:10CD4000FFFFFFFFFFFFFFFFFFFFFFFFFFFFFFFFF3
:10CD5000FFFFFFFFFFFFFFFFFFFFFFFFFFFFFFFFE3
:10CD6000FFFFFFFFFFFFFFFFFFFFFFFFFFFFFFFFD3
:10CD7000FFFFFFFFFFFFFFFFFFFFFFFFFFFFFFFFC3
:10CD8000FFFFFFFFFFFFFFFFFFFFFFFFFFFFFFFFB3
:10CD9000FFFFFFFFFFFFFFFFFFFFFFFFFFFFFFFFA3
:10CDA000FFFFFFFFFFFFFFFFFFFFFFFFFFFFFFFF93
:10CDB000FFFFFFFFFFFFFFFF8E73AE73FFFFFFFF5D
:10CDC000FFFFFFFF3084308492940C6379CEFFFF25
:10CDD000FFFFFFFFFFFFFFFFFFFFFFFFFFFFFFFF63
:10CDE000FFFFFBDEEB5AD39C92942C63DFFFFFFF27
:10CDF000FFFFFFFF92946D6B7DEFFFFFFFFFFFFFD3
:10CE0000FFFFFFFFFFFFFFFFFFFFFFFFFFFFFFFF32
:10CE1000FFFFFFFFFFFFFFFFFFFFFFFFFFFFFFFF22
:10CE2000FFFFFFFFFFFFFFFFFFFFFFFFFFFFFFFF12
:10CE3000FFFFFFFFFFFFFFFFFFFFFFFFFFFFFFFF02
:10CE4000FFFFFFFFFFFFFFFFFFFFFFFFFFFFFFFFF2
:10CE5000FFFFFFFFFFFFFFFFFFFFFFFFFFFFFFFFE2
:10CE6000FFFFFFFFFFFFFFFFFFFFFFFFFFFFFFFFD2
:10CE7000FFFFFFFFFFFFFFFFFFFFFFFFFFFFFFFFC2
:10CE8000FFFFFFFFFFFFFFFFFFFFFFFFFFFFFFFFB2
:10CE9000FFFFFFFFFFFFFFFFFFFFFFFFFFFFFFFFA2
:10CEA000FFFFFFFFFFFFFFFFFFFFFFFFFFFFFFFF92
:10CEB000FFFFFFFFFFFFFFFFFFFFFFFFFFFFFFFF82
:10CEC000FFFFFFFFFFFFFFFFFFFFFFFFFFFFFFFF72
:10CED000FFFFFFFFFFFFFFFFFFFFFFFFFFFFFFFF62
:10CEE000FFFFFFFFFFFFFFFFFFFFFFFFFFFFFFFF52
:10CEF000FFFFFFFFFFFFFFFFFFFFFFFFFFFFFFFF42
:10CF0000FFFFFFFFFFFFFFFFFFFFFFFFFFFFFFFF31
:10CF1000FFFFFFFFFFFFFFFFFFFFFFFFFFFFFFFF21
:10CF2000FFFFFFFFFFFFFFFFFFFFFFFFFFFFFFFF11
:10CF3000FFFFFFFFFFFFFFFFFFFFFFFFFFFFFFFF01
:10CF4000FFFFFFFFFFFFFFFFFFFFFFFFFFFFFFFFF1
:10CF5000FFFFFFFFFFFFFFFFFFFFFFFFFFFFFFFFE1
:10CF6000FFFFFFFFFFFFFFFFFFFFFFFFFFFFFFFFD1
:10CF7000FFFFFFFFFFFFFFFFFFFFFFFFFFFFFFFFC1
:10CF8000FFFFFFFFFFFFFFFFFFFFFFFFFFFFFFFFB1
:10CF9000FFFFFFFFFFFFFFFF8E73AE73FFFFFFFF7B
:10CFA000FFFFFFFF3084308492940C6379CEFFFF43
:10CFB000FFFFFFFFFFFFFFFFFFFFFFFFFFFFFFFF81
:10CFC000FFFFFBDEEB5AD39C92942C63DFFFFFFF45
:10CFD000FFFFFFFF92946D6B7DEFFFFFFFFFFFFFF1
:10CFE000FFFFFFFFFFFFFFFFFFFFFFFFFFFFFFFF51
:10CFF000FFFFFFFFFFFFFFFFFFFFFFFFFFFFFFFF41
:10D00000FFFFFFFFFFFFFFFFFFFFFFFFFFFFFFFF30
:10D01000FFFFFFFFFFFFFFFFFFFFFFFFFFFFFFFF20
:10D02000FFFFFFFFFFFFFFFFFFFFFFFFFFFFFFFF10
:10D03000FFFFFFFFFFFFFFFFFFFFFFFFFFFFFFFF00
:10D04000FFFFFFFFFFFFFFFFFFFFFFFFFFFFFFFFF0
:10D05000FFFFFFFFFFFFFFFFFFFFFFFFFFFFFFFFE0
:10D06000FFFFFFFFFFFFFFFFFFFFFFFFFFFFFFFFD0
:10D07000FFFFFFFFFFFFFFFFFFFFFFFFFFFFFFFFC0
:10D08000FFFFFFFFFFFFFFFFFFFFFFFFFFFFFFFFB0
:10D09000FFFFFFFFFFFFFFFFFFFFFFFFFFFFFFFFA0
:10D0A000FFFFFFFFFFFFFFFFFFFFFFFFFFFFFFFF90
:10D0B000FFFFFFFFFFFFFFFFFFFFFFFFFFFFFFFF80
:10D0C000FFFFFFFFFFFFFFFFFFFFFFFFFFFFFFFF70
:10D0D000FFFFFFFFFFFFFFFFFFFFFFFFFFFFFFFF60
:10D0E000FFFFFFFFFFFFFFFFFFFFFFFFFFFFFFFF50
:10D0F000FFFFFFFFFFFFFFFFFFFFFFFFFFFFFFFF40
:10D10000FFFFFFFFFFFFFFFFFFFFFFFFFFFFFFFF2F
:10D11000FFFFFFFFFFFFFFFFFFFFFFFFFFFFFFFF1F
:10D12000FFFFFFFFFFFFFFFFFFFFFFFFFFFFFFFF0F
:10D13000FFFFFFFFFFFFFFFFFFFFFFFFFFFFFFFFFF
:10D14000FFFFFFFFFFFFFFFFFFFFFFFFFFFFFFFFEF
:10D15000FFFFFFFFFFFFFFFFFFFFFFFFFFFFFFFFDF
:10D16000FFFFFFFFFFFFFFFFFFFFFFFFFFFFFFFFCF
:10D17000FFFFFFFFFFFFFFFF8E73AE73FFFFFFFF99
:10D18000FFFFFFFF3084308492940C6379CEFFFF61
:10D19000FFFFFFFFFFFFFFFFFFFFFFFFFFFFFFFF9F
:10D1A000FFFFFBDEEB5AD39C92942C63DFFFFFFF63
:10D1B000FFFFFFFF92946D6B7DEFFFFFFFFFFFFF0F
:10D1C000FFFFFFFFFFFFFFFFFFFFFFFFFFFFFFFF6F
:10D1D000FFFFFFFFFFFFFFFFFFFFFFFFFFFFFFFF5F
:10D1E000FFFFFFFFFFFFFFFFFFFFFFFFFFFFFFFF4F
:10D1F000FFFFFFFFFFFFFFFFFFFFFFFFFFFFFFFF3F
:10D20000FFFFFFFFFFFFFFFFFFFFFFFFFFFFFFFF2E
:10D21000FFFFFFFFFFFFFFFFFFFFFFFFFFFFFFFF1E
:10D22000FFFFFFFFFFFFFFFFFFFFFFFFFFFFFFFF0E
:10D23000FFFFFFFFFFFFFFFFFFFFFFFFFFFFFFFFFE
:10D24000FFFFFFFFFFFFFFFFFFFFFFFFFFFFFFFFEE
:10D25000FFFFFFFFFFFFFFFFFFFFFFFFFFFFFFFFDE
:10D26000FFFFFFFFFFFFFFFFFFFFFFFFFFFFFFFFCE
:10D27000FFFFFFFFFFFFFFFFFFFFFFFFFFFFFFFFBE
:10D28000FFFFFFFFFFFFFFFFFFFFFFFFFFFFFFFFAE
:10D29000FFFFFFFFFFFFFFFFFFFFFFFFFFFFFFFF9E
:10D2A000FFFFFFFFFFFFFFFFFFFFFFFFFFFFFFFF8E
:10D2B000FFFFFFFFFFFFFFFFFFFFFFFFFFFFFFFF7E
:10D2C000FFFFFFFFFFFFFFFFFFFFFFFFFFFFFFFF6E
:10D2D000FFFFFFFFFFFFFFFFFFFFFFFFFFFFFFFF5E
:10D2E000FFFFFFFFFFFFFFFFFFFFFFFFFFFFFFFF4E
:10D2F000FFFFFFFFFFFFFFFFFFFFFFFFFFFFFFFF3E
:10D30000FFFFFFFFFFFFFFFFFFFFFFFFFFFFFFFF2D
:10D31000FFFFFFFFFFFFFFFFFFFFFFFFFFFFFFFF1D
:10D32000FFFFFFFFFFFFFFFFFFFFFFFFFFFFFFFF0D
:10D33000FFFFFFFFFFFFFFFFFFFFFFFFFFFFFFFFFD
:10D34000FFFFFFFFFFFFFFFFFFFFFFFFFFFFFFFFED
:10D35000FFFFFFFFFFFFFFFF8E73AE73FFFFFFFFB7
:10D36000FFFFFFFF3084308492940C6379CEFFFF7F
:10D37000FFFFFFFFFFFFFFFFFFFFFFFFFFFFFFFFBD
:10D38000FFFFFBDEEB5AD39C92942C63DFFFFFFF81
:10D39000FFFFFFFF92946D6B7DEFFFFFFFFFFFFF2D
:10D3A000FFFFFFFFFFFFFFFFFFFFFFFFFFFFFFFF8D
:10D3B000FFFFFFFFFFFFFFFFFFFFFFFFFFFFFFFF7D
:10D3C000FFFFFFFFFFFFFFFFFFFFFFFFFFFFFFFF6D
:10D3D000FFFFFFFFFFFFFFFFFFFFFFFFFFFFFFFF5D
:10D3E000FFFFFFFFFFFFFFFFFFFFFFFFFFFFFFFF4D
:10D3F000FFFFFFFFFFFFFFFFFFFFFFFFFFFFFFFF3D
:10D40000FFFFFFFFFFFFFFFFFFFFFFFFFFFFFFFF2C
:10D41000FFFFFFFFFFFFFFFFFFFFFFFFFFFFFFFF1C
:10D42000FFFFFFFFFFFFFFFFFFFFFFFFFFFFFFFF0C
:10D43000FFFFFFFFFFFFFFFFFFFFFFFFFFFFFFFFFC
:10D44000FFFFFFFFFFFFFFFFFFFFFFFFFFFFFFFFEC
:10D45000FFFFFFFFFFFFFFFFFFFFFFFFFFFFFFFFDC
:10D46000FFFFFFFFFFFFFFFFFFFFFFFFFFFFFFFFCC
:10D47000FFFFFFFFFFFFFFFFFFFFFFFFFFFFFFFFBC
:10D48000FFFFFFFFFFFFFFFFFFFFFFFFFFFFFFFFAC
:10D49000FFFFFFFFFFFFFFFFFFFFFFFFFFFFFFFF9C
:10D4A000FFFFFFFFFFFFFFFFFFFFFFFFFFFFFFFF8C
:10D4B000FFFFFFFFFFFFFFFFFFFFFFFFFFFFFFFF7C
:10D4C000FFFFFFFFFFFFFFFFFFFFFFFFFFFFFFFF6C
:10D4D000FFFFFFFFFFFFFFFFFFFFFFFFFFFFFFFF5C
:10D4E000FFFFFFFFFFFFFFFFFFFFFFFFFFFFFFFF4C
:10D4F000FFFFFFFFFFFFFFFFFFFFFFFFFFFFFFFF3C
:10D50000FFFFFFFFFFFFFFFFFFFFFFFFFFFFFFFF2B
:10D51000FFFFFFFFFFFFFFFFFFFFFFFFFFFFFFFF1B
:10D52000FFFFFFFFFFFFFFFFFFFFFFFFFFFFFFFF0B
:10D53000FFFFFFFFFFFFFFFF8E73AE73FFFFFFFFD5
:10D54000FFFFFFFF3084308492940C6379CEFFFF9D
:10D55000FFFFFFFFFFFFFFFFFFFFFFFFFFFFFFFFDB
:10D56000FFFFFBDEEB5AD39C92942C63DFFFFFFF9F
:10D57000FFFFFFFF92946D6B7DEFFFFFFFFFFFFF4B
:10D58000FFFFFFFFFFFFFFFFFFFFFFFFFFFFFFFFAB
:10D59000FFFFFFFFFFFFFFFFFFFFFFFFFFFFFFFF9B
:10D5A000FFFFFFFFFFFFFFFFFFFFFFFFFFFFFFFF8B
:10D5B000FFFFFFFFFFFFFFFFFFFFFFFFFFFFFFFF7B
:10D5C000FFFFFFFFFFFFFFFFFFFFFFFFFFFFFFFF6B
:10D5D000FFFFFFFFFFFFFFFFFFFFFFFFFFFFFFFF5B
:10D5E000FFFFFFFFFFFFFFFFFFFFFFFFFFFFFFFF4B
:10D5F000FFFFFFFFFFFFFFFFFFFFFFFFFFFFFFFF3B
:10D60000FFFFFFFFFFFFFFFFFFFFFFFFFFFFFFFF2A
:10D61000FFFFFFFFFFFFFFFFFFFFFFFFFFFFFFFF1A
:10D62000FFFFFFFFFFFFFFFFFFFFFFFFFFFFFFFF0A
:10D63000FFFFFFFFFFFFFFFFFFFFFFFFFFFFFFFFFA
:10D64000FFFFFFFFFFFFFFFFFFFFFFFFFFFFFFFFEA
:10D65000FFFFFFFFFFFFFFFFFFFFFFFFFFFFFFFFDA
:10D66000FFFFFFFFFFFFFFFFFFFFFFFFFFFFFFFFCA
:10D67000FFFFFFFFFFFFFFFFFFFFFFFFFFFFFFFFBA
:10D68000FFFFFFFFFFFFFFFFFFFFFFFFFFFFFFFFAA
:10D69000FFFFFFFFFFFFFFFFFFFFFFFFFFFFFFFF9A
:10D6A000FFFFFFFFFFFFFFFFFFFFFFFFFFFFFFFF8A
:10D6B000FFFFFFFFFFFFFFFFFFFFFFFFFFFFFFFF7A
:10D6C000FFFFFFFFFFFFFFFFFFFFFFFFFFFFFFFF6A
:10D6D000FFFFFFFFFFFFFFFFFFFFFFFFFFFFFFFF5A
:10D6E000FFFFFFFFFFFFFFFFFFFFFFFFFFFFFFFF4A
:10D6F000FFFFFFFFFFFFFFFFFFFFFFFFFFFFFFFF3A
:10D70000FFFFFFFFFFFFFFFFFFFFFFFFFFFFFFFF29
:10D71000FFFFFFFFFFFFFFFF8E73AE73FFFFFFFFF3
:10D72000FFFFFFFF3084308492940C6379CEFFFFBB
:10D73000FFFFFFFFFFFFFFFFFFFFFFFFFFFFFFFFF9
:10D74000FFFFFBDEEB5AD39C92942C63DFFFFFFFBD
:10D75000FFFFFFFF92946D6B7DEFFFFFFFFFFFFF69
:10D76000FFFFFFFFFFFFFFFFFFFFFFFFFFFFFFFFC9
:10D77000FFFFFFFFFFFFFFFFFFFFFFFFFFFFFFFFB9
:10D78000FFFFFFFFFFFFFFFFFFFFFFFFFFFFFFFFA9
:10D79000FFFFFFFFFFFFFFFFFFFFFFFFFFFFFFFF99
:10D7A000FFFFFFFFFFFFFFFFFFFFFFFFFFFFFFFF89
:10D7B000FFFFFFFFFFFFFFFFFFFFFFFFFFFFFFFF79
:10D7C000FFFFFFFFFFFFFFFFFFFFFFFFFFFFFFFF69
:10D7D000FFFFFFFFFFFFFFFFFFFFFFFFFFFFFFFF59
:10D7E000FFFFFFFFFFFFFFFFFFFFFFFFFFFFFFFF49
:10D7F000FFFFFFFFFFFFFFFFFFFFFFFFFFFFFFFF39
:10D80000FFFFFFFFFFFFFFFFFFFFFFFFFFFFFFFF28
:10D81000FFFFFFFFFFFFFFFFFFFFFFFFFFFFFFFF18
:10D82000FFFFFFFFFFFFFFFFFFFFFFFFFFFFFFFF08
:10D83000FFFFFFFFFFFFFFFFFFFFFFFFFFFFFFFFF8
:10D84000FFFFFFFFFFFFFFFFFFFFFFFFFFFFFFFFE8
:10D85000FFFFFFFFFFFFFFFFFFFFFFFFFFFFFFFFD8
:10D86000FFFFFFFFFFFFFFFFFFFFFFFFFFFFFFFFC8
:10D87000FFFFFFFFFFFFFFFFFFFFFFFFFFFFFFFFB8
:10D88000FFFFFFFFFFFFFFFFFFFFFFFFFFFFFFFFA8
:10D89000FFFFFFFFFFFFFFFFFFFFFFFFFFFFFFFF98
:10D8A000FFFFFFFFFFFFFFFFFFFFFFFFFFFFFFFF88
:10D8B000FFFFFFFFFFFFFFFFFFFFFFFFFFFFFFFF78
:10D8C000FFFFFFFFFFFFFFFFFFFFFFFFFFFFFFFF68
:10D8D000FFFFFFFFFFFFFFFFFFFFFFFFFFFFFFFF58
:10D8E000FFFFFFFFFFFFFFFFFFFFFFFFFFFFFFFF48
:10D8F000FFFFFFFFFFFFFFFF8E73AE73FFFFFFFF12
:10D90000FFFFFFFF3084308492940C6379CEFFFFD9
:10D91000FFFFFFFFFFFFFFFFFFFFFFFFFFFFFFFF17
:10D92000FFFFFBDEEB5AD39C92942C63DFFFFFFFDB
:10D93000FFFFFFFF92946D6B7DEFFFFFFFFFFFFF87
:10D94000FFFFFFFFFFFFFFFFFFFFFFFFFFFFFFFFE7
:10D95000FFFFFFFFFFFFFFFFFFFFFFFFFFFFFFFFD7
:10D96000FFFFFFFFFFFFFFFFFFFFFFFFFFFFFFFFC7
:10D97000FFFFFFFFFFFFFFFFFFFFFFFFFFFFFFFFB7
:10D98000FFFFFFFFFFFFFFFFFFFFFFFFFFFFFFFFA7
:10D99000FFFFFFFFFFFFFFFFFFFFFFFFFFFFFFFF97
:10D9A000FFFFFFFFFFFFFFFFFFFFFFFFFFFFFFFF87
:10D9B000FFFFFFFFFFFFFFFFFFFFFFFFFFFFFFFF77
:10D9C000FFFFFFFFFFFFFFFFFFFFFFFFFFFFFFFF67
:10D9D000FFFFFFFFFFFFFFFFFFFFFFFFFFFFFFFF57
:10D9E000FFFFFFFFFFFFFFFFFFFFFFFFFFFFFFFF47
:10D9F000FFFFFFFFFFFFFFFFFFFFFFFFFFFFFFFF37
:10DA0000FFFFFFFFFFFFFFFFFFFFFFFFFFFFFFFF26
:10DA1000FFFFFFFFFFFFFFFFFFFFFFFFFFFFFFFF16
:10DA2000FFFFFFFFFFFFFFFFFFFFFFFFFFFFFFFF06
:10DA3000FFFFFFFFFFFFFFFFFFFFFFFFFFFFFFFFF6
:10DA4000FFFFFFFFFFFFFFFFFFFFFFFFFFFFFFFFE6
:10DA5000FFFFFFFFFFFFFFFFFFFFFFFFFFFFFFFFD6
:10DA6000FFFFFFFFFFFFFFFFFFFFFFFFFFFFFFFFC6
:10DA7000FFFFFFFFFFFFFFFFFFFFFFFFFFFFFFFFB6
:10DA8000FFFFFFFFFFFFFFFFFFFFFFFFFFFFFFFFA6
:10DA9000FFFFFFFFFFFFFFFFFFFFFFFFFFFFFFFF96
:10DAA000FFFFFFFFFFFFFFFFFFFFFFFFFFFFFFFF86
:10DAB000FFFFFFFFFFFFFFFFFFFFFFFFFFFFFFFF76
:10DAC000FFFFFFFFFFFFFFFFFFFFFFFFFFFFFFFF66
:10DAD000FFFFFFFFFFFFFFFF8E73AE73FFFFFFFF30
:10DAE000FFFFFFFF3084308492940C6379CEFFFFF8
:10DAF000FFFFFFFFFFFFFFFFFFFFFFFFFFFFFFFF36
:10DB0000FFFFFBDEEB5AD39C92942C63DFFFFFFFF9
:10DB1000FFFFFFFF92946D6B7DEFFFFFFFFFFFFFA5
:10DB2000FFFFFFFFFFFFFFFFFFFFFFFFFFFFFFFF05
:10DB3000FFFFFFFFFFFFFFFFFFFFFFFFFFFFFFFFF5
:10DB4000FFFFFFFFFFFFFFFFFFFFFFFFFFFFFFFFE5
:10DB5000FFFFFFFFFFFFFFFFFFFFFFFFFFFFFFFFD5
:10DB6000FFFFFFFFFFFFFFFFFFFFFFFFFFFFFFFFC5
:10DB7000FFFFFFFFFFFFFFFFFFFFFFFFFFFFFFFFB5
:10DB8000FFFFFFFFFFFFFFFFFFFFFFFFFFFFFFFFA5
:10DB9000FFFFFFFFFFFFFFFFFFFFFFFFFFFFFFFF95
:10DBA000FFFFFFFFFFFFFFFFFFFFFFFFFFFFFFFF85
:10DBB000FFFFFFFFFFFFFFFFFFFFFFFFFFFFFFFF75
:10DBC000FFFFFFFFFFFFFFFFFFFFFFFFFFFFFFFF65
:10DBD000FFFFFFFFFFFFFFFFFFFFFFFFFFFFFFFF55
:10DBE000FFFFFFFFFFFFFFFFFFFFFFFFFFFFFFFF45
:10DBF000FFFFFFFFFFFFFFFFFFFFFFFFFFFFFFFF35
:10DC0000FFFFFFFFFFFFFFFFFFFFFFFFFFFFFFFF24
:10DC1000FFFFFFFFFFFFFFFFFFFFFFFFFFFFFFFF14
:10DC2000FFFFFFFFFFFFFFFFFFFFFFFFFFFFFFFF04
:10DC3000FFFFFFFFFFFFFFFFFFFFFFFFFFFFFFFFF4
:10DC4000FFFFFFFFFFFFFFFFFFFFFFFFFFFFFFFFE4
:10DC5000FFFFFFFFFFFFFFFFFFFFFFFFFFFFFFFFD4
:10DC6000FFFFFFFFFFFFFFFFFFFFFFFFFFFFFFFFC4
:10DC7000FFFFFFFFFFFFFFFFFFFFFFFFFFFFFFFFB4
:10DC8000FFFFFFFFFFFFFFFFFFFFFFFFFFFFFFFFA4
:10DC9000FFFFFFFFFFFFFFFFFFFFFFFFFFFFFFFF94
:10DCA000FFFFFFFFFFFFFFFFFFFFFFFFFFFFFFFF84
:10DCB000FFFFFFFFFFFFFFFF8E73AE73FFFFFFFF4E
:10DCC000FFFFFFFF3084308492940C6379CEFFFF16
:10DCD000FFFFFFFFFFFFFFFFFFFFFFFFFFFFFFFF54
:10DCE000FFFFFBDEEB5AD39C92942C63DFFFFFFF18
:10DCF000FFFFFFFF92946D6B7DEFFFFFFFFFFFFFC4
:10DD0000FFFFFFFFFFFFFFFFFFFFFFFFFFFFFFFF23
:10DD1000FFFFFFFFFFFFFFFFFFFFFFFFFFFFFFFF13
:10DD2000FFFFFFFFFFFFFFFFFFFFFFFFFFFFFFFF03
:10DD3000FFFFFFFFFFFFFFFFFFFFFFFFFFFFFFFFF3
:10DD4000FFFFFFFFFFFFFFFFFFFFFFFFFFFFFFFFE3
:10DD5000FFFFFFFFFFFFFFFFFFFFFFFFFFFFFFFFD3
:10DD6000FFFFFFFFFFFFFFFFFFFFFFFFFFFFFFFFC3
:10DD7000FFFFFFFFFFFFFFFFFFFFFFFFFFFFFFFFB3
:10DD8000FFFFFFFFFFFFFFFFFFFFFFFFFFFFFFFFA3
:10DD9000FFFFFFFFFFFFFFFFFFFFFFFFFFFFFFFF93
:10DDA000FFFFFFFFFFFFFFFFFFFFFFFFFFFFFFFF83
:10DDB000FFFFFFFFFFFFFFFFFFFFFFFFFFFFFFFF73
:10DDC000FFFFFFFFFFFFFFFFFFFFFFFFFFFFFFFF63
:10DDD000FFFFFFFFFFFFFFFFFFFFFFFFFFFFFFFF53
:10DDE000FFFFFFFFFFFFFFFFFFFFFFFFFFFFFFFF43
:10DDF000FFFFFFFFFFFFFFFFFFFFFFFFFFFFFFFF33
:10DE0000FFFFFFFFFFFFFFFFFFFFFFFFFFFFFFFF22
:10DE1000FFFFFFFFFFFFFFFFFFFFFFFFFFFFFFFF12
:10DE2000FFFFFFFFFFFFFFFFFFFFFFFFFFFFFFFF02
:10DE3000FFFFFFFFFFFFFFFFFFFFFFFFFFFFFFFFF2
:10DE4000FFFFFFFFFFFFFFFFFFFFFFFFFFFFFFFFE2
:10DE5000FFFFFFFFFFFFFFFFFFFFFFFFFFFFFFFFD2
:10DE6000FFFFFFFFFFFFFFFFFFFFFFFFFFFFFFFFC2
:10DE7000FFFFFFFFFFFFFFFFFFFFFFFFFFFFFFFFB2
:10DE8000FFFFFFFFFFFFFFFFFFFFFFFFFFFFFFFFA2
:10DE9000FFFFFFFFFFFFFFFF8E73AE73FFFFFFFF6C
:10DEA000FFFFFFFF3084308492940C6379CEFFFF34
:10DEB000FFFFFFFFFFFFFFFFFFFFFFFFFFFFFFFF72
:10DEC000FFFFFBDEEB5AD39C92942C63DFFFFFFF36
:10DED000FFFFFFFF92946D6B7DEFFFFFFFFFFFFFE2
:10DEE000FFFFFFFFFFFFFFFFFFFFFFFFFFFFFFFF42
:10DEF000FFFFFFFFFFFFFFFFFFFFFFFFFFFFFFFF32
:10DF0000FFFFFFFFFFFFFFFFFFFFFFFFFFFFFFFF21
:10DF1000FFFFFFFFFFFFFFFFFFFFFFFFFFFFFFFF11
:10DF2000FFFFFFFFFFFFFFFFFFFFFFFFFFFFFFFF01
:10DF3000FFFFFFFFFFFFFFFFFFFFFFFFFFFFFFFFF1
:10DF4000FFFFFFFFFFFFFFFFFFFFFFFFFFFFFFFFE1
:10DF5000FFFFFFFFFFFFFFFFFFFFFFFFFFFFFFFFD1
:10DF6000FFFFFFFFFFFFFFFFFFFFFFFFFFFFFFFFC1
:10DF7000FFFFFFFFFFFFFFFFFFFFFFFFFFFFFFFFB1
:10DF8000FFFFFFFFFFFFFFFFFFFFFFFFFFFFFFFFA1
:10DF9000FFFFFFFFFFFFFFFFFFFFFFFFFFFFFFFF91
:10DFA000FFFFFFFFFFFFFFFFFFFFFFFFFFFFFFFF81
:10DFB000FFFFFFFFFFFFFFFFFFFFFFFFFFFFFFFF71
:10DFC000FFFFFFFFFFFFFFFFFFFFFFFFFFFFFFFF61
:10DFD000FFFFFFFFFFFFFFFFFFFFFFFFFFFFFFFF51
:10DFE000FFFFFFFFFFFFFFFFFFFFFFFFFFFFFFFF41
:10DFF000FFFFFFFFFFFFFFFFFFFFFFFFFFFFFFFF31
:10E00000FFFFFFFFFFFFFFFFFFFFFFFFFFFFFFFF20
:10E01000FFFFFFFFFFFFFFFFFFFFFFFFFFFFFFFF10
:10E02000FFFFFFFFFFFFFFFFFFFFFFFFFFFFFFFF00
:10E03000FFFFFFFFFFFFFFFFFFFFFFFFFFFFFFFFF0
:10E04000FFFFFFFFFFFFFFFFFFFFFFFFFFFFFFFFE0
:10E05000FFFFFFFFFFFFFFFFFFFFFFFFFFFFFFFFD0
:10E06000FFFFFFFFFFFFFFFFFFFFFFFFFFFFFFFFC0
:10E07000FFFFFFFFFFFFFFFF8E73AE73FFFFFFFF8A
:10E08000FFFFFFFF3084308492940C6379CEFFFF52
:10E09000FFFFFFFFFFFFFFFFFFFFFFFFFFFFFFFF90
:10E0A000FFFFFBDEEB5AD39C92942C63DFFFFFFF54
:10E0B000FFFFFFFF92946D6B7DEFFFFFFFFFFFFF00
:10E0C000FFFFFFFFFFFFFFFFFFFFFFFFFFFFFFFF60
:10E0D000FFFFFFFFFFFFFFFFFFFFFFFFFFFFFFFF50
:10E0E000FFFFFFFFFFFFFFFFFFFFFFFFFFFFFFFF40
:10E0F000FFFFFFFFFFFFFFFFFFFFFFFFFFFFFFFF30
:10E10000FFFFFFFFFFFFFFFFFFFFFFFFFFFFFFFF1F
:10E11000FFFFFFFFFFFFFFFFFFFFFFFFFFFFFFFF0F
:10E12000FFFFFFFFFFFFFFFFFFFFFFFFFFFFFFFFFF
:10E13000FFFFFFFFFFFFFFFFFFFFFFFFFFFFFFFFEF
:10E14000FFFFFFFFFFFFFFFFFFFFFFFFFFFFFFFFDF
:10E15000FFFFFFFFFFFFFFFFFFFFFFFFFFFFFFFFCF
:10E16000FFFFFFFFFFFFFFFFFFFFFFFFFFFFFFFFBF
:10E17000FFFFFFFFFFFFFFFFFFFFFFFFFFFFFFFFAF
:10E18000FFFFFFFFFFFFFFFFFFFFFFFFFFFFFFFF9F
:10E19000FFFFFFFFFFFFFFFFFFFFFFFFFFFFFFFF8F
:10E1A000FFFFFFFFFFFFFFFFFFFFFFFFFFFFFFFF7F
:10E1B000FFFFFFFFFFFFFFFFFFFFFFFFFFFFFFFF6F
:10E1C000FFFFFFFFFFFFFFFFFFFFFFFFFFFFFFFF5F
:10E1D000FFFFFFFFFFFFFFFFFFFFFFFFFFFFFFFF4F
:10E1E000FFFFFFFFFFFFFFFFFFFFFFFFFFFFFFFF3F
:10E1F000FFFFFFFFFFFFFFFFFFFFFFFFFFFFFFFF2F
:10E20000FFFFFFFFFFFFFFFFFFFFFFFFFFFFFFFF1E
:10E21000FFFFFFFFFFFFFFFFFFFFFFFFFFFFFFFF0E
:10E22000FFFFFFFFFFFFFFFFFFFFFFFFFFFFFFFFFE
:10E23000FFFFFFFFFFFFFFFFFFFFFFFFFFFFFFFFEE
:10E24000FFFFFFFFFFFFFFFFFFFFFFFFFFFFFFFFDE
:10E25000FFFFFFFFFFFFFFFF8E73AE73FFFFFFFFA8
:10E26000FFFFFFFF3084308492940C6379CEFFFF70
:10E27000FFFFFFFFFFFFFFFFFFFFFFFFFFFFFFFFAE
:10E28000FFFFFBDEEB5AD39C92942C63DFFFFFFF72
:10E29000FFFFFFFF92946D6B7DEFFFFFFFFFFFFF1E
:10E2A000FFFFFFFFFFFFFFFFFFFFFFFFFFFFFFFF7E
:10E2B000FFFFFFFFFFFFFFFFFFFFFFFFFFFFFFFF6E
:10E2C000FFFFFFFFFFFFFFFFFFFFFFFFFFFFFFFF5E
:10E2D000FFFFFFFFFFFFFFFFFFFFFFFFFFFFFFFF4E
:10E2E000FFFFFFFFFFFFFFFFFFFFFFFFFFFFFFFF3E
:10E2F000FFFFFFFFFFFFFFFFFFFFFFFFFFFFFFFF2E
:10E30000FFFFFFFFFFFFFFFFFFFFFFFFFFFFFFFF1D
:10E31000FFFFFFFFFFFFFFFFFFFFFFFFFFFFFFFF0D
:10E32000FFFFFFFFFFFFFFFFFFFFFFFFFFFFFFFFFD
:10E33000FFFFFFFFFFFFFFFFFFFFFFFFFFFFFFFFED
:10E34000FFFFFFFFFFFFFFFFFFFFFFFFFFFFFFFFDD
:10E35000FFFFFFFFFFFFFFFFFFFFFFFFFFFFFFFFCD
:10E36000FFFFFFFFFFFFFFFFFFFFFFFFFFFFFFFFBD
:10E37000FFFFFFFFFFFFFFFFFFFFFFFFFFFFFFFFAD
:10E38000FFFFFFFFFFFFFFFFFFFFFFFFFFFFFFFF9D
:10E39000FFFFFFFFFFFFFFFFFFFFFFFFFFFFFFFF8D
:10E3A000FFFFFFFFFFFFFFFFFFFFFFFFFFFFFFFF7D
:10E3B000FFFFFFFFFFFFFFFFFFFFFFFFFFFFFFFF6D
:10E3C000FFFFFFFFFFFFFFFFFFFFFFFFFFFFFFFF5D
:10E3D000FFFFFFFFFFFFFFFFFFFFFFFFFFFFFFFF4D
:10E3E000FFFFFFFFFFFFFFFFFFFFFFFFFFFFFFFF3D
:10E3F000FFFFFFFFFFFFFFFFFFFFFFFFFFFFFFFF2D
:10E40000FFFFFFFFFFFFFFFFFFFFFFFFFFFFFFFF1C
:10E41000FFFFFFFFFFFFFFFFFFFFFFFFFFFFFFFF0C
:10E42000FFFFFFFFFFFFFFFFFFFFFFFFFFFFFFFFFC
:10E43000FFFFFFFFFFFFFFFF8E73AE73FFFFFFFFC6
:10E44000FFFFFFFF3084308492940C6379CEFFFF8E
:10E45000FFFFFFFFFFFFFFFFFFFFFFFFFFFFFFFFCC
:10E46000FFFFFBDEEB5AD39C92942C63DFFFFFFF90
:10E47000FFFFFFFF92946D6B7DEFFFFFFFFFFFFF3C
:10E48000FFFFFFFFFFFFFFFFFFFFFFFFFFFFFFFF9C
:10E49000FFFFFFFFFFFFFFFFFFFFFFFFFFFFFFFF8C
:10E4A000FFFFFFFFFFFFFFFFFFFFFFFFFFFFFFFF7C
:10E4B000FFFFFFFFFFFFFFFFFFFFFFFFFFFFFFFF6C
:10E4C000FFFFFFFFFFFFFFFFFFFFFFFFFFFFFFFF5C
:10E4D000FFFFFFFFFFFFFFFFFFFFFFFFFFFFFFFF4C
:10E4E000FFFFFFFFFFFFFFFFFFFFFFFFFFFFFFFF3C
:10E4F000FFFFFFFFFFFFFFFFFFFFFFFFFFFFFFFF2C
:10E50000FFFFFFFFFFFFFFFFFFFFFFFFFFFFFFFF1B
:10E51000FFFFFFFFFFFFFFFFFFFFFFFFFFFFFFFF0B
:10E52000FFFFFFFFFFFFFFFFFFFFFFFFFFFFFFFFFB
:10E53000FFFFFFFFFFFFFFFFFFFFFFFFFFFFFFFFEB
:10E54000FFFFFFFFFFFFFFFFFFFFFFFFFFFFFFFFDB
:10E55000FFFFFFFFFFFFFFFFFFFFFFFFFFFFFFFFCB
:10E56000FFFFFFFFFFFFFFFFFFFFFFFFFFFFFFFFBB
:10E57000FFFFFFFFFFFFFFFFFFFFFFFFFFFFFFFFAB
:10E58000FFFFFFFFFFFFFFFFFFFFFFFFFFFFFFFF9B
:10E59000FFFFFFFFFFFFFFFFFFFFFFFFFFFFFFFF8B
:10E5A000FFFFFFFFFFFFFFFFFFFFFFFFFFFFFFFF7B
:10E5B000FFFFFFFFFFFFFFFFFFFFFFFFFFFFFFFF6B
:10E5C000FFFFFFFFFFFFFFFFFFFFFFFFFFFFFFFF5B
:10E5D000FFFFFFFFFFFFFFFFFFFFFFFFFFFFFFFF4B
:10E5E000FFFFFFFFFFFFFFFFFFFFFFFFFFFFFFFF3B
:10E5F000FFFFFFFFFFFFFFFFFFFFFFFFFFFFFFFF2B
:10E60000FFFFFFFFFFFFFFFFFFFFFFFFFFFFFFFF1A
:10E61000FFFFFFFFFFFFFFFF8E73AE73FFFFFFFFE4
:10E62000FFFFFFFF3084308492940C6379CEFFFFAC
:10E63000FFFFFFFFFFFFFFFFFFFFFFFFFFFFFFFFEA
:10E64000FFFFFBDEEB5AD39C92942C63DFFFFFFFAE
:10E65000FFFFFFFF92946D6B7DEFFFFFFFFFFFFF5A
:10E66000FFFFFFFFFFFFFFFFFFFFFFFFFFFFFFFFBA
:10E67000FFFFFFFFFFFFFFFFFFFFFFFFFFFFFFFFAA
:10E68000FFFFFFFFFFFFFFFFFFFFFFFFFFFFFFFF9A
:10E69000FFFFFFFFFFFFFFFFFFFFFFFFFFFFFFFF8A
:10E6A000FFFFFFFFFFFFFFFFFFFFFFFFFFFFFFFF7A
:10E6B000FFFFFFFFFFFFFFFFFFFFFFFFFFFFFFFF6A
:10E6C000FFFFFFFFFFFFFFFFFFFFFFFFFFFFFFFF5A
:10E6D000FFFFFFFFFFFFFFFFFFFFFFFFFFFFFFFF4A
:10E6E000FFFFFFFFFFFFFFFFFFFFFFFFFFFFFFFF3A
:10E6F000FFFFFFFFFFFFFFFFFFFFFFFFFFFFFFFF2A
:10E70000FFFFFFFFFFFFFFFFFFFFFFFFFFFFFFFF19
:10E71000FFFFFFFFFFFFFFFFFFFFFFFFFFFFFFFF09
:10E72000FFFFFFFFFFFFFFFFFFFFFFFFFFFFFFFFF9
:10E73000FFFFFFFFFFFFFFFFFFFFFFFFFFFFFFFFE9
:10E74000FFFFFFFFFFFFFFFFFFFFFFFFFFFFFFFFD9
:10E75000FFFFFFFFFFFFFFFFFFFFFFFFFFFFFFFFC9
:10E76000FFFFFFFFFFFFFFFFFFFFFFFFFFFFFFFFB9
:10E77000FFFFFFFFFFFFFFFFFFFFFFFFFFFFFFFFA9
:10E78000FFFFFFFFFFFFFFFFFFFFFFFFFFFFFFFF99
:10E79000FFFFFFFFFFFFFFFFFFFFFFFFFFFFFFFF89
:10E7A000FFFFFFFFFFFFFFFFFFFFFFFFFFFFFFFF79
:10E7B000FFFFFFFFFFFFFFFFFFFFFFFFFFFFFFFF69
:10E7C000FFFFFFFFFFFFFFFFFFFFFFFFFFFFFFFF59
:10E7D000FFFFFFFFFFFFFFFFFFFFFFFFFFFFFFFF49
:10E7E000FFFFFFFFFFFFFFFFFFFFFFFFFFFFFFFF39
:10E7F000FFFFFFFFFFFFFFFF8E73AE73FFFFFFFF03
:10E80000FFFFFFFF3084308492940C6379CEFFFFCA
:10E81000FFFFFFFFFFFFFFFFFFFFFFFFFFFFFFFF08
:10E82000FFFFFBDEEB5AD39C92942C63DFFFFFFFCC
:10E83000FFFFFFFF92946D6B7DEFFFFFFFFFFFFF78
:10E84000FFFFFFFFFFFFFFFFFFFFFFFFFFFFFFFFD8
:10E85000FFFFFFFFFFFFFFFFFFFFFFFFFFFFFFFFC8
:10E86000FFFFFFFFFFFFFFFFFFFFFFFFFFFFFFFFB8
:10E87000FFFFFFFFFFFFFFFFFFFFFFFFFFFFFFFFA8
:10E88000FFFFFFFFFFFFFFFFFFFFFFFFFFFFFFFF98
:10E89000FFFFFFFFFFFFFFFFFFFFFFFFFFFFFFFF88
:10E8A000FFFFFFFFFFFFFFFFFFFFFFFFFFFFFFFF78
:10E8B000FFFFFFFFFFFFFFFFFFFFFFFFFFFFFFFF68
:10E8C000FFFFFFFFFFFFFFFFFFFFFFFFFFFFFFFF58
:10E8D000FFFFFFFFFFFFFFFFFFFFFFFFFFFFFFFF48
:10E8E000FFFFFFFFFFFFFFFFFFFFFFFFFFFFFFFF38
:10E8F000FFFFFFFFFFFFFFFFFFFFFFFFFFFFFFFF28
:10E90000FFFFFFFFFFFFFFFFFFFFFFFFFFFFFFFF17
:10E91000FFFFFFFFFFFFFFFFFFFFFFFFFFFFFFFF07
:10E92000FFFFFFFFFFFFFFFFFFFFFFFFFFFFFFFFF7
:10E93000FFFFFFFFFFFFFFFFFFFFFFFFFFFFFFFFE7
:10E94000FFFFFFFFFFFFFFFFFFFFFFFFFFFFFFFFD7
:10E95000FFFFFFFFFFFFFFFFFFFFFFFFFFFFFFFFC7
:10E96000FFFFFFFFFFFFFFFFFFFFFFFFFFFFFFFFB7
:10E97000FFFFFFFFFFFFFFFFFFFFFFFFFFFFFFFFA7
:10E98000FFFFFFFFFFFFFFFFFFFFFFFFFFFFFFFF97
:10E99000FFFFFFFFFFFFFFFFFFFFFFFFFFFFFFFF87
:10E9A000FFFFFFFFFFFFFFFFFFFFFFFFFFFFFFFF77
:10E9B000FFFFFFFFFFFFFFFFFFFFFFFFFFFFFFFF67
:10E9C000FFFFFFFFFFFFFFFFFFFFFFFFFFFFFFFF57
:10E9D000FFFFFFFFFFFFFFFF8E73AE73FFFFFFFF21
:10E9E000FFFFFFFF3084308492940C6379CEFFFFE9
:10E9F000FFFFFFFFFFFFFFFFFFFFFFFFFFFFFFFF27
:10EA0000FFFFFBDEEB5AD39C92942C63DFFFFFFFEA
:10EA1000FFFFFFFF92946D6B7DEFFFFFFFFFFFFF96
:10EA2000FFFFFFFFFFFFFFFFFFFFFFFFFFFFFFFFF6
:10EA3000FFFFFFFFFFFFFFFFFFFFFFFFFFFFFFFFE6
:10EA4000FFFFFFFFFFFFFFFFFFFFFFFFFFFFFFFFD6
:10EA5000FFFFFFFFFFFFFFFFFFFFFFFFFFFFFFFFC6
:10EA6000FFFFFFFFFFFFFFFFFFFFFFFFFFFFFFFFB6
:10EA7000FFFFFFFFFFFFFFFFFFFFFFFFFFFFFFFFA6
:10EA8000FFFFFFFFFFFFFFFFFFFFFFFFFFFFFFFF96
:10EA9000FFFFFFFFFFFFFFFFFFFFFFFFFFFFFFFF86
:10EAA000FFFFFFFFFFFFFFFFFFFFFFFFFFFFFFFF76
:10EAB000FFFFFFFFFFFFFFFFFFFFFFFFFFFFFFFF66
:10EAC000FFFFFFFFFFFFFFFFFFFFFFFFFFFFFFFF56
:10EAD000FFFFFFFFFFFFFFFFFFFFFFFFFFFFFFFF46
:10EAE000FFFFFFFFFFFFFFFFFFFFFFFFFFFFFFFF36
:10EAF000FFFFFFFFFFFFFFFFFFFFFFFFFFFFFFFF26
:10EB0000FFFFFFFFFFFFFFFFFFFFFFFFFFFFFFFF15
:10EB1000FFFFFFFFFFFFFFFFFFFFFFFFFFFFFFFF05
:10EB2000FFFFFFFFFFFFFFFFFFFFFFFFFFFFFFFFF5
:10EB3000FFFFFFFFFFFFFFFFFFFFFFFFFFFFFFFFE5
:10EB4000FFFFFFFFFFFFFFFFFFFFFFFFFFFFFFFFD5
:10EB5000FFFFFFFFFFFFFFFFFFFFFFFFFFFFFFFFC5
:10EB6000FFFFFFFFFFFFFFFFFFFFFFFFFFFFFFFFB5
:10EB7000FFFFFFFFFFFFFFFFFFFFFFFFFFFFFFFFA5
:10EB8000FFFFFFFFFFFFFFFFFFFFFFFFFFFFFFFF95
:10EB9000FFFFFFFFFFFFFFFFFFFFFFFFFFFFFFFF85
:10EBA000FFFFFFFFFFFFFFFFFFFFFFFFFFFFFFFF75
:10EBB000FFFFFFFFFFFFFFFF8E73AE73FFFFFFFF3F
:10EBC000FFFFFFFF3084308492940C6379CEFFFF07
:10EBD000FFFFFFFFFFFFFFFFFFFFFFFFFFFFFFFF45
:10EBE000FFFFFBDEEB5AD39C92942C63DFFFFFFF09
:10EBF000FFFFFFFF92946D6B7DEFFFFFFFFFFFFFB5
:10EC0000FFFFFFFFFFFFFFFFFFFFFFFFFFFFFFFF14
:10EC1000FFFFFFFFFFFFFFFFFFFFFFFFFFFFFFFF04
:10EC2000FFFFFFFFFFFFFFFFFFFFFFFFFFFFFFFFF4
:10EC3000FFFFFFFFFFFFFFFFFFFFFFFFFFFFFFFFE4
:10EC4000FFFFFFFFFFFFFFFFFFFFFFFFFFFFFFFFD4
:10EC5000FFFFFFFFFFFFFFFFFFFFFFFFFFFFFFFFC4
:10EC6000FFFFFFFFFFFFFFFFFFFFFFFFFFFFFFFFB4
:10EC7000FFFFFFFFFFFFFFFFFFFFFFFFFFFFFFFFA4
:10EC8000FFFFFFFFFFFFFFFFFFFFFFFFFFFFFFFF94
:10EC9000FFFFFFFFFFFFFFFFFFFFFFFFFFFFFFFF84
:10ECA000FFFFFFFFFFFFFFFFFFFFFFFFFFFFFFFF74
:10ECB000FFFFFFFFFFFFFFFFFFFFFFFFFFFFFFFF64
:10ECC000FFFFFFFFFFFFFFFFFFFFFFFFFFFFFFFF54
:10ECD000FFFFFFFFFFFFFFFFFFFFFFFFFFFFFFFF44
:10ECE000FFFFFFFFFFFFFFFFFFFFFFFFFFFFFFFF34
:10ECF000FFFFFFFFFFFFFFFFFFFFFFFFFFFFFFFF24
:10ED0000FFFFFFFFFFFFFFFFFFFFFFFFFFFFFFFF13
:10ED1000FFFFFFFFFFFFFFFFFFFFFFFFFFFFFFFF03
:10ED2000FFFFFFFFFFFFFFFFFFFFFFFFFFFFFFFFF3
:10ED3000FFFFFFFFFFFFFFFFFFFFFFFFFFFFFFFFE3
:10ED4000FFFFFFFFFFFFFFFFFFFFFFFFFFFFFFFFD3
:10ED5000FFFFFFFFFFFFFFFFFFFFFFFFFFFFFFFFC3
:10ED6000FFFFFFFFFFFFFFFFFFFFFFFFFFFFFFFFB3
:10ED7000FFFFFFFFFFFFFFFFFFFFFFFFFFFFFFFFA3
:10ED8000FFFFFFFFFFFFFFFFFFFFFFFFFFFFFFFF93
:10ED9000FFFFFFFFFFFFFFFF8E73AE73FFFFFFFF5D
:10EDA000FFFFFFFF3084308492940C6379CEFFFF25
:10EDB000FFFFFFFFFFFFFFFFFFFFFFFFFFFFFFFF63
:10EDC000FFFFFBDEEB5AD39C92942C63DFFFFFFF27
:10EDD000FFFFFFFF92946D6B7DEFFFFFFFFFFFFFD3
:10EDE000FFFFFFFFFFFFFFFFFFFFFFFFFFFFFFFF33
:10EDF000FFFFFFFFFFFFFFFFFFFFFFFFFFFFFFFF23
:10EE0000FFFFFFFFFFFFFFFFFFFFFFFFFFFFFFFF12
:10EE1000FFFFFFFFFFFFFFFFFFFFFFFFFFFFFFFF02
:10EE2000FFFFFFFFFFFFFFFFFFFFFFFFFFFFFFFFF2
:10EE3000FFFFFFFFFFFFFFFFFFFFFFFFFFFFFFFFE2
:10EE4000FFFFFFFFFFFFFFFFFFFFFFFFFFFFFFFFD2
:10EE5000FFFFFFFFFFFFFFFFFFFFFFFFFFFFFFFFC2
:10EE6000FFFFFFFFFFFFFFFFFFFFFFFFFFFFFFFFB2
:10EE7000FFFFFFFFFFFFFFFFFFFFFFFFFFFFFFFFA2
:10EE8000FFFFFFFFFFFFFFFFFFFFFFFFFFFFFFFF92
:10EE9000FFFFFFFFFFFFFFFFFFFFFFFFFFFFFFFF82
:10EEA000FFFFFFFFFFFFFFFFFFFFFFFFFFFFFFFF72
:10EEB000FFFFFFFFFFFFFFFFFFFFFFFFFFFFFFFF62
:10EEC000FFFFFFFFFFFFFFFFFFFFFFFFFFFFFFFF52
:10EED000FFFFFFFFFFFFFFFFFFFFFFFFFFFFFFFF42
:10EEE000FFFFFFFFFFFFFFFFFFFFFFFFFFFFFFFF32
:10EEF000FFFFFFFFFFFFFFFFFFFFFFFFFFFFFFFF22
:10EF0000FFFFFFFFFFFFFFFFFFFFFFFFFFFFFFFF11
:10EF1000FFFFFFFFFFFFFFFFFFFFFFFFFFFFFFFF01
:10EF2000FFFFFFFFFFFFFFFFFFFFFFFFFFFFFFFFF1
:10EF3000FFFFFFFFFFFFFFFFFFFFFFFFFFFFFFFFE1
:10EF4000FFFFFFFFFFFFFFFFFFFFFFFFFFFFFFFFD1
:10EF5000FFFFFFFFFFFFFFFFFFFFFFFFFFFFFFFFC1
:10EF6000FFFFFFFFFFFFFFFFFFFFFFFFFFFFFFFFB1
:10EF7000FFFFFFFFFFFFFFFF8E73AE73FFFFFFFF7B
:10EF8000FFFFFFFF3084308492940C6379CEFFFF43
:10EF9000FFFFFFFFFFFFFFFFFFFFFFFFFFFFFFFF81
:10EFA000FFFFFBDEEB5AD39C92942C63DFFFFFFF45
:10EFB000FFFFFFFF92946D6B7DEFFFFFFFFFFFFFF1
:10EFC000FFFFFFFFFFFFFFFFFFFFFFFFFFFFFFFF51
:10EFD000FFFFFFFFFFFFFFFFFFFFFFFFFFFFFFFF41
:10EFE000FFFFFFFFFFFFFFFFFFFFFFFFFFFFFFFF31
:10EFF000FFFFFFFFFFFFFFFFFFFFFFFFFFFFFFFF21
:10F00000FFFFFFFFFFFFFFFFFFFFFFFFFFFFFFFF10
:10F01000FFFFFFFFFFFFFFFFFFFFFFFFFFFFFFFF00
:10F02000FFFFFFFFFFFFFFFFFFFFFFFFFFFFFFFFF0
:10F03000FFFFFFFFFFFFFFFFFFFFFFFFFFFFFFFFE0
:10F04000FFFFFFFFFFFFFFFFFFFFFFFFFFFFFFFFD0
:10F05000FFFFFFFFFFFFFFFFFFFFFFFFFFFFFFFFC0
:10F06000FFFFFFFFFFFFFFFFFFFFFFFFFFFFFFFFB0
:10F07000FFFFFFFFFFFFFFFFFFFFFFFFFFFFFFFFA0
:10F08000FFFFFFFFFFFFFFFFFFFFFFFFFFFFFFFF90
:10F09000FFFFFFFFFFFFFFFFFFFFFFFFFFFFFFFF80
:10F0A000FFFFFFFFFFFFFFFFFFFFFFFFFFFFFFFF70
:10F0B000FFFFFFFFFFFFFFFFFFFFFFFFFFFFFFFF60
:10F0C000FFFFFFFFFFFFFFFFFFFFFFFFFFFFFFFF50
:10F0D000FFFFFFFFFFFFFFFFFFFFFFFFFFFFFFFF40
:10F0E000FFFFFFFFFFFFFFFFFFFFFFFFFFFFFFFF30
:10F0F000FFFFFFFFFFFFFFFFFFFFFFFFFFFFFFFF20
:10F10000FFFFFFFFFFFFFFFFFFFFFFFFFFFFFFFF0F
:10F11000FFFFFFFFFFFFFFFFFFFFFFFFFFFFFFFFFF
:10F12000FFFFFFFFFFFFFFFFFFFFFFFFFFFFFFFFEF
:10F13000FFFFFFFFFFFFFFFFFFFFFFFFFFFFFFFFDF
:10F14000FFFFFFFFFFFFFFFFFFFFFFFFFFFFFFFFCF
:10F15000FFFFFFFFFFFFFFFF8E73AE73FFFFFFFF99
:10F16000FFFFFFFF3084308492940C6379CEFFFF61
:10F17000FFFFFFFFFFFFFFFFFFFFFFFFFFFFFFFF9F
:10F18000FFFFFBDEEB5AD39C92942C63DFFFFFFF63
:10F19000FFFFFFFF92946D6B7DEFFFFFFFFFFFFF0F
:10F1A000FFFFFFFFFFFFFFFFFFFFFFFFFFFFFFFF6F
:10F1B000FFFFFFFFFFFFFFFFFFFFFFFFFFFFFFFF5F
:10F1C000FFFFFFFFFFFFFFFFFFFFFFFFFFFFFFFF4F
:10F1D000FFFFFFFFFFFFFFFFFFFFFFFFFFFFFFFF3F
:10F1E000FFFFFFFFFFFFFFFFFFFFFFFFFFFFFFFF2F
:10F1F000FFFFFFFFFFFFFFFFFFFFFFFFFFFFFFFF1F
:10F20000FFFFFFFFFFFFFFFFFFFFFFFFFFFFFFFF0E
:10F21000FFFFFFFFFFFFFFFFFFFFFFFFFFFFFFFFFE
:10F22000FFFFFFFFFFFFFFFFFFFFFFFFFFFFFFFFEE
:10F23000FFFFFFFFFFFFFFFFFFFFFFFFFFFFFFFFDE
:10F24000FFFFFFFFFFFFFFFFFFFFFFFFFFFFFFFFCE
:10F25000FFFFFFFFFFFFFFFFFFFFFFFFFFFFFFFFBE
:10F26000FFFFFFFFFFFFFFFFFFFFFFFFFFFFFFFFAE
:10F27000FFFFFFFFFFFFFFFFFFFFFFFFFFFFFFFF9E
:10F28000FFFFFFFFFFFFFFFFFFFFFFFFFFFFFFFF8E
:10F29000FFFFFFFFFFFFFFFFFFFFFFFFFFFFFFFF7E
:10F2A000FFFFFFFFFFFFFFFFFFFFFFFFFFFFFFFF6E
:10F2B000FFFFFFFFFFFFFFFFFFFFFFFFFFFFFFFF5E
:10F2C000FFFFFFFFFFFFFFFFFFFFFFFFFFFFFFFF4E
:10F2D000FFFFFFFFFFFFFFFFFFFFFFFFFFFFFFFF3E
:10F2E000FFFFFFFFFFFFFFFFFFFFFFFFFFFFFFFF2E
:10F2F000FFFFFFFFFFFFFFFFFFFFFFFFFFFFFFFF1E
:10F30000FFFFFFFFFFFFFFFFFFFFFFFFFFFFFFFF0D
:10F31000FFFFFFFFFFFFFFFFFFFFFFFFFFFFFFFFFD
:10F32000FFFFFFFFFFFFFFFFFFFFFFFFFFFFFFFFED
:10F33000FFFFFFFFFFFFFFFF8E73AE73FFFFFFFFB7
:10F34000FFFFFFFF3084308492940C6379CEFFFF7F
:10F35000FFFFFFFFFFFFFFFFFFFFFFFFFFFFFFFFBD
:10F36000FFFFFBDEEB5AD39C92942C63DFFFFFFF81
:10F37000FFFFFFFF92946D6B7DEFFFFFFFFFFFFF2D
:10F38000FFFFFFFFFFFFFFFFFFFFFFFFFFFFFFFF8D
:10F39000FFFFFFFFFFFFFFFFFFFFFFFFFFFFFFFF7D
:10F3A000FFFFFFFFFFFFFFFFFFFFFFFFFFFFFFFF6D
:10F3B000FFFFFFFFFFFFFFFFFFFFFFFFFFFFFFFF5D
:10F3C000FFFFFFFFFFFFFFFFFFFFFFFFFFFFFFFF4D
:10F3D000FFFFFFFFFFFFFFFFFFFFFFFFFFFFFFFF3D
:10F3E000FFFFFFFFFFFFFFFFFFFFFFFFFFFFFFFF2D
:10F3F000FFFFFFFFFFFFFFFFFFFFFFFFFFFFFFFF1D
:10F40000FFFFFFFFFFFFFFFFFFFFFFFFFFFFFFFF0C
:10F41000FFFFFFFFFFFFFFFFFFFFFFFFFFFFFFFFFC
:10F42000FFFFFFFFFFFFFFFFFFFFFFFFFFFFFFFFEC
:10F43000FFFFFFFFFFFFFFFFFFFFFFFFFFFFFFFFDC
:10F44000FFFFFFFFFFFFFFFFFFFFFFFFFFFFFFFFCC
:10F45000FFFFFFFFFFFFFFFFFFFFFFFFFFFFFFFFBC
:10F46000FFFFFFFFFFFFFFFFFFFFFFFFFFFFFFFFAC
:10F47000FFFFFFFFFFFFFFFFFFFFFFFFFFFFFFFF9C
:10F48000FFFFFFFFFFFFFFFFFFFFFFFFFFFFFFFF8C
:10F49000FFFFFFFFFFFFFFFFFFFFFFFFFFFFFFFF7C
:10F4A000FFFFFFFFFFFFFFFFFFFFFFFFFFFFFFFF6C
:10F4B000FFFFFFFFFFFFFFFFFFFFFFFFFFFFFFFF5C
:10F4C000FFFFFFFFFFFFFFFFFFFFFFFFFFFFFFFF4C
:10F4D000FFFFFFFFFFFFFFFFFFFFFFFFFFFFFFFF3C
:10F4E000FFFFFFFFFFFFFFFFFFFFFFFFFFFFFFFF2C
:10F4F000FFFFFFFFFFFFFFFFFFFFFFFFFFFFFFFF1C
:10F50000FFFFFFFFFFFFFFFFFFFFFFFFFFFFFFFF0B
:10F51000FFFFFFFFFFFFFFFF8E73AE73FFFFFFFFD5
:10F52000FFFFFFFF3084308492940C6379CEFFFF9D
:10F53000FFFFFFFFFFFFFFFFFFFFFFFFFFFFFFFFDB
:10F54000FFFFFBDEEB5AD39C92942C63DFFFFFFF9F
:10F55000FFFFFFFF92946D6B7DEFFFFFFFFFFFFF4B
:10F56000FFFFFFFFFFFFFFFFFFFFFFFFFFFFFFFFAB
:10F57000FFFFFFFFFFFFFFFFFFFFFFFFFFFFFFFF9B
:10F58000FFFFFFFFFFFFFFFFFFFFFFFFFFFFFFFF8B
:10F59000FFFFFFFFFFFFFFFFFFFFFFFFFFFFFFFF7B
:10F5A000FFFFFFFFFFFFFFFFFFFFFFFFFFFFFFFF6B
:10F5B000FFFFFFFFFFFFFFFFFFFFFFFFFFFFFFFF5B
:10F5C000FFFFFFFFFFFFFFFFFFFFFFFFFFFFFFFF4B
:10F5D000FFFFFFFFFFFFFFFFFFFFFFFFFFFFFFFF3B
:10F5E000FFFFFFFFFFFFFFFFFFFFFFFFFFFFFFFF2B
:10F5F000FFFFFFFFFFFFFFFFFFFFFFFFFFFFFFFF1B
:10F60000FFFFFFFFFFFFFFFFFFFFFFFFFFFFFFFF0A
:10F61000FFFFFFFFFFFFFFFFFFFFFFFFFFFFFFFFFA
:10F62000FFFFFFFFFFFFFFFFFFFFFFFFFFFFFFFFEA
:10F63000FFFFFFFFFFFFFFFFFFFFFFFFFFFFFFFFDA
:10F64000FFFFFFFFFFFFFFFFFFFFFFFFFFFFFFFFCA
:10F65000FFFFFFFFFFFFFFFFFFFFFFFFFFFFFFFFBA
:10F66000FFFFFFFFFFFFFFFFFFFFFFFFFFFFFFFFAA
:10F67000FFFFFFFFFFFFFFFFFFFFFFFFFFFFFFFF9A
:10F68000FFFFFFFFFFFFFFFFFFFFFFFFFFFFFFFF8A
:10F69000FFFFFFFFFFFFFFFFFFFFFFFFFFFFFFFF7A
:10F6A000FFFFFFFFFFFFFFFFFFFFFFFFFFFFFFFF6A
:10F6B000FFFFFFFFFFFFFFFFFFFFFFFFFFFFFFFF5A
:10F6C000FFFFFFFFFFFFFFFFFFFFFFFFFFFFFFFF4A
:10F6D000FFFFFFFFFFFFFFFFFFFFFFFFFFFFFFFF3A
:10F6E000FFFFFFFFFFFFFFFFFFFFFFFFFFFFFFFF2A
:10F6F000FFFFFFFFFFFFFFFF8E73AE73FFFFFFFFF4
:10F70000FFFFFFFF3084308492940C6379CEFFFFBB
:10F71000FFFFFFFFFFFFFFFFFFFFFFFFFFFFFFFFF9
:10F72000FFFFFBDEEB5AD39C92942C63DFFFFFFFBD
:10F73000FFFFFFFF92946D6B7DEFFFFFFFFFFFFF69
:10F74000FFFFFFFFFFFFFFFFFFFFFFFFFFFFFFFFC9
:10F75000FFFFFFFFFFFFFFFFFFFFFFFFFFFFFFFFB9
:10F76000FFFFFFFFFFFFFFFFFFFFFFFFFFFFFFFFA9
:10F77000FFFFFFFFFFFFFFFFFFFFFFFFFFFFFFFF99
:10F78000FFFFFFFFFFFFFFFFFFFFFFFFFFFFFFFF89
:10F79000FFFFFFFFFFFFFFFFFFFFFFFFFFFFFFFF79
:10F7A000FFFFFFFFFFFFFFFFFFFFFFFFFFFFFFFF69
:10F7B000FFFFFFFFFFFFFFFFFFFFFFFFFFFFFFFF59
:10F7C000FFFFFFFFFFFFFFFFFFFFFFFFFFFFFFFF49
:10F7D000FFFFFFFFFFFFFFFFFFFFFFFFFFFFFFFF39
:10F7E000FFFFFFFFFFFFFFFFFFFFFFFFFFFFFFFF29
:10F7F000FFFFFFFFFFFFFFFFFFFFFFFFFFFFFFFF19
:10F80000FFFFFFFFFFFFFFFFFFFFFFFFFFFFFFFF08
:10F81000FFFFFFFFFFFFFFFFFFFFFFFFFFFFFFFFF8
:10F82000FFFFFFFFFFFFFFFFFFFFFFFFFFFFFFFFE8
:10F83000FFFFFFFFFFFFFFFFFFFFFFFFFFFFFFFFD8
:10F84000FFFFFFFFFFFFFFFFFFFFFFFFFFFFFFFFC8
:10F85000FFFFFFFFFFFFFFFFFFFFFFFFFFFFFFFFB8
:10F86000FFFFFFFFFFFFFFFFFFFFFFFFFFFFFFFFA8
:10F87000FFFFFFFFFFFFFFFFFFFFFFFFFFFFFFFF98
:10F88000FFFFFFFFFFFFFFFFFFFFFFFFFFFFFFFF88
:10F89000FFFFFFFFFFFFFFFFFFFFFFFFFFFFFFFF78
:10F8A000FFFFFFFFFFFFFFFFFFFFFFFFFFFFFFFF68
:10F8B000FFFFFFFFFFFFFFFFFFFFFFFFFFFFFFFF58
:10F8C000FFFFFFFFFFFFFFFFFFFFFFFFFFFFFFFF48
:10F8D000FFFFFFFFFFFFFFFF8E73AE73FFFFFFFF12
:10F8E000FFFFFFFF3084308492940C6379CEFFFFDA
:10F8F000FFFFFFFFFFFFFFFFFFFFFFFFFFFFFFFF18
:10F90000FFFFFBDEEB5AD39C92942C63DFFFFFFFDB
:10F91000FFFFFFFF92946D6B7DEFFFFFFFFFFFFF87
:10F92000FFFFFFFFFFFFFFFFFFFFFFFFFFFFFFFFE7
:10F93000FFFFFFFFFFFFFFFFFFFFFFFFFFFFFFFFD7
:10F94000FFFFFFFFFFFFFFFFFFFFFFFFFFFFFFFFC7
:10F95000FFFFFFFFFFFFFFFFFFFFFFFFFFFFFFFFB7
:10F96000FFFFFFFFFFFFFFFFFFFFFFFFFFFFFFFFA7
:10F97000FFFFFFFFFFFFFFFFFFFFFFFFFFFFFFFF97
:10F98000FFFFFFFFFFFFFFFFFFFFFFFFFFFFFFFF87
:10F99000FFFFFFFFFFFFFFFFFFFFFFFFFFFFFFFF77
:10F9A000FFFFFFFFFFFFFFFFFFFFFFFFFFFFFFFF67
:10F9B000FFFFFFFFFFFFFFFFFFFFFFFFFFFFFFFF57
:10F9C000FFFFFFFFFFFFFFFFFFFFFFFFFFFFFFFF47
:10F9D000FFFFFFFFFFFFFFFFFFFFFFFFFFFFFFFF37
:10F9E000FFFFFFFFFFFFFFFFFFFFFFFFFFFFFFFF27
:10F9F000FFFFFFFFFFFFFFFFFFFFFFFFFFFFFFFF17
:10FA0000FFFFFFFFFFFFFFFFFFFFFFFFFFFFFFFF06
:10FA1000FFFFFFFFFFFFFFFFFFFFFFFFFFFFFFFFF6
:10FA2000FFFFFFFFFFFFFFFFFFFFFFFFFFFFFFFFE6
:10FA3000FFFFFFFFFFFFFFFFFFFFFFFFFFFFFFFFD6
:10FA4000FFFFFFFFFFFFFFFFFFFFFFFFFFFFFFFFC6
:10FA5000FFFFFFFFFFFFFFFFFFFFFFFFFFFFFFFFB6
:10FA6000FFFFFFFFFFFFFFFFFFFFFFFFFFFFFFFFA6
:10FA7000FFFFFFFFFFFFFFFFFFFFFFFFFFFFFFFF96
:10FA8000FFFFFFFFFFFFFFFFFFFFFFFFFFFFFFFF86
:10FA9000FFFFFFFFFFFFFFFFFFFFFFFFFFFFFFFF76
:10FAA000FFFFFFFFFFFFFFFFFFFFFFFFFFFFFFFF66
:10FAB000FFFFFFFFFFFFFFFF8E73AE73FFFFFFFF30
:10FAC000FFFFFFFF3084308492940C6379CEFFFFF8
:10FAD000FFFFFFFFFFFFFFFFFFFFFFFFFFFFFFFF36
:10FAE000FFFFFBDEEB5AD39C92942C63DFFFFFFFFA
:10FAF000FFFFFFFF92946D6B7DEFFFFFFFFFFFFFA6
:10FB0000FFFFFFFFFFFFFFFFFFFFFFFFFFFFFFFF05
:10FB1000FFFFFFFFFFFFFFFFFFFFFFFFFFFFFFFFF5
:10FB2000FFFFFFFFFFFFFFFFFFFFFFFFFFFFFFFFE5
:10FB3000FFFFFFFFFFFFFFFFFFFFFFFFFFFFFFFFD5
:10FB4000FFFFFFFFFFFFFFFFFFFFFFFFFFFFFFFFC5
:10FB5000FFFFFFFFFFFFFFFFFFFFFFFFFFFFFFFFB5
:10FB6000FFFFFFFFFFFFFFFFFFFFFFFFFFFFFFFFA5
:10FB7000FFFFFFFFFFFFFFFFFFFFFFFFFFFFFFFF95
:10FB8000FFFFFFFFFFFFFFFFFFFFFFFFFFFFFFFF85
:10FB9000FFFFFFFFFFFFFFFFFFFFFFFFFFFFFFFF75
:10FBA000FFFFFFFFFFFFFFFFFFFFFFFFFFFFFFFF65
:10FBB000FFFFFFFFFFFFFFFFFFFFFFFFFFFFFFFF55
:10FBC000FFFFFFFFFFFFFFFFFFFFFFFFFFFFFFFF45
:10FBD000FFFFFFFFFFFFFFFFFFFFFFFFFFFFFFFF35
:10FBE000FFFFFFFFFFFFFFFFFFFFFFFFFFFFFFFF25
:10FBF000FFFFFFFFFFFFFFFFFFFFFFFFFFFFFFFF15
:10FC0000FFFFFFFFFFFFFFFFFFFFFFFFFFFFFFFF04
:10FC1000FFFFFFFFFFFFFFFFFFFFFFFFFFFFFFFFF4
:10FC2000FFFFFFFFFFFFFFFFFFFFFFFFFFFFFFFFE4
:10FC3000FFFFFFFFFFFFFFFFFFFFFFFFFFFFFFFFD4
:10FC4000FFFFFFFFFFFFFFFFFFFFFFFFFFFFFFFFC4
:10FC5000FFFFFFFFFFFFFFFFFFFFFFFFFFFFFFFFB4
:10FC6000FFFFFFFFFFFFFFFFFFFFFFFFFFFFFFFFA4
:10FC7000FFFFFFFFFFFFFFFFFFFFFFFFFFFFFFFF94
:10FC8000FFFFFFFFFFFFFFFFFFFFFFFFFFFFFFFF84
:10FC9000FFFFFFFFFFFFFFFF8E73AE73FFFFFFFF4E
:10FCA000FFFFFFFF3084308492940C6379CEFFFF16
:10FCB000FFFFFFFFFFFFFFFFFFFFFFFFFFFFFFFF54
:10FCC000FFFFFBDEEB5AD39C92942C63DFFFFFFF18
:10FCD000FFFFFFFF92946D6B7DEFFFFFFFFFFFFFC4
:10FCE000FFFFFFFFFFFFFFFFFFFFFFFFFFFFFFFF24
:10FCF000FFFFFFFFFFFFFFFFFFFFFFFFFFFFFFFF14
:10FD0000FFFFFFFFFFFFFFFFFFFFFFFFFFFFFFFF03
:10FD1000FFFFFFFFFFFFFFFFFFFFFFFFFFFFFFFFF3
:10FD2000FFFFFFFFFFFFFFFFFFFFFFFFFFFFFFFFE3
:10FD3000FFFFFFFFFFFFFFFFFFFFFFFFFFFFFFFFD3
:10FD4000FFFFFFFFFFFFFFFFFFFFFFFFFFFFFFFFC3
:10FD5000FFFFFFFFFFFFFFFFFFFFFFFFFFFFFFFFB3
:10FD6000FFFFFFFFFFFFFFFFFFFFFFFFFFFFFFFFA3
:10FD7000FFFFFFFFFFFFFFFFFFFFFFFFFFFFFFFF93
:10FD8000FFFFFFFFFFFFFFFFFFFFFFFFFFFFFFFF83
:10FD9000FFFFFFFFFFFFFFFFFFFFFFFFFFFFFFFF73
:10FDA000FFFFFFFFFFFFFFFFFFFFFFFFFFFFFFFF63
:10FDB000FFFFFFFFFFFFFFFFFFFFFFFFFFFFFFFF53
:10FDC000FFFFFFFFFFFFFFFFFFFFFFFFFFFFFFFF43
:10FDD000FFFFFFFFFFFFFFFFFFFFFFFFFFFFFFFF33
:10FDE000FFFFFFFFFFFFFFFFFFFFFFFFFFFFFFFF23
:10FDF000FFFFFFFFFFFFFFFFFFFFFFFFFFFFFFFF13
:10FE0000FFFFFFFFFFFFFFFFFFFFFFFFFFFFFFFF02
:10FE1000FFFFFFFFFFFFFFFFFFFFFFFFFFFFFFFFF2
:10FE2000FFFFFFFFFFFFFFFFFFFFFFFFFFFFFFFFE2
:10FE3000FFFFFFFFFFFFFFFFFFFFFFFFFFFFFFFFD2
:10FE4000FFFFFFFFFFFFFFFFFFFFFFFFFFFFFFFFC2
:10FE5000FFFFFFFFFFFFFFFFFFFFFFFFFFFFFFFFB2
:10FE6000FFFFFFFFFFFFFFFFFFFFFFFFFFFFFFFFA2
:10FE7000FFFFFFFFFFFFFFFF8E73AE73FFFFFFFF6C
:10FE8000FFFFFFFF3084308492940C6379CEFFFF34
:10FE9000FFFFFFFFFFFFFFFFFFFFFFFFFFFFFFFF72
:10FEA000FFFFFBDEEB5AD39C92942C63DFFFFFFF36
:10FEB000FFFFFFFF92946D6B7DEFFFFFFFFFFFFFE2
:10FEC000FFFFFFFFFFFFFFFFFFFFFFFFFFFFFFFF42
:10FED000FFFFFFFFFFFFFFFFFFFFFFFFFFFFFFFF32
:10FEE000FFFFFFFFFFFFFFFFFFFFFFFFFFFFFFFF22
:10FEF000FFFFFFFFFFFFFFFFFFFFFFFFFFFFFFFF12
:10FF0000FFFFFFFFFFFFFFFFFFFFFFFFFFFFFFFF01
:10FF1000FFFFFFFFFFFFFFFFFFFFFFFFFFFFFFFFF1
:10FF2000FFFFFFFFFFFFFFFFFFFFFFFFFFFFFFFFE1
:10FF3000FFFFFFFFFFFFFFFFFFFFFFFFFFFFFFFFD1
:10FF4000FFFFFFFFFFFFFFFFFFFFFFFFFFFFFFFFC1
:10FF5000FFFFFFFFFFFFFFFFFFFFFFFFFFFFFFFFB1
:10FF6000FFFFFFFFFFFFFFFFFFFFFFFFFFFFFFFFA1
:10FF7000FFFFFFFFFFFFFFFFFFFFFFFFFFFFFFFF91
:10FF8000FFFFFFFFFFFFFFFFFFFFFFFFFFFFFFFF81
:10FF9000FFFFFFFFFFFFFFFFFFFFFFFFFFFFFFFF71
:10FFA000FFFFFFFFFFFFFFFFFFFFFFFFFFFFFFFF61
:10FFB000FFFFFFFFFFFFFFFFFFFFFFFFFFFFFFFF51
:10FFC000FFFFFFFFFFFFFFFFFFFFFFFFFFFFFFFF41
:10FFD000FFFFFFFFFFFFFFFFFFFFFFFFFFFFFFFF31
:10FFE000FFFFFFFFFFFFFFFFFFFFFFFFFFFFFFFF21
:10FFF000FFFFFFFFFFFFFFFFFFFFFFFFFFFFFFFF11
:020000040801F1
:10000000FFFFFFFFFFFFFFFFFFFFFFFFFFFFFFFF00
:10001000FFFFFFFFFFFFFFFFFFFFFFFFFFFFFFFFF0
:10002000FFFFFFFFFFFFFFFFFFFFFFFFFFFFFFFFE0
:10003000FFFFFFFFFFFFFFFFFFFFFFFFFFFFFFFFD0
:10004000FFFFFFFFFFFFFFFFFFFFFFFFFFFFFFFFC0
:10005000FFFFFFFFFFFFFFFF8E73AE73FFFFFFFF8A
:10006000FFFFFFFF3084308492940C6379CEFFFF52
:10007000FFFFFFFFFFFFFFFFFFFFFFFFFFFFFFFF90
:10008000FFFFFBDEEB5AD39C92942C63DFFFFFFF54
:10009000FFFFFFFF92946D6B7DEFFFFFFFFFFFFF00
:1000A000FFFFFFFFFFFFFFFFFFFFFFFFFFFFFFFF60
:1000B000FFFFFFFFFFFFFFFFFFFFFFFFFFFFFFFF50
:1000C000FFFFFFFFFFFFFFFFFFFFFFFFFFFFFFFF40
:1000D000FFFFFFFFFFFFFFFFFFFFFFFFFFFFFFFF30
:1000E000FFFFFFFFFFFFFFFFFFFFFFFFFFFFFFFF20
:1000F000FFFFFFFFFFFFFFFFFFFFFFFFFFFFFFFF10
:10010000FFFFFFFFFFFFFFFFFFFFFFFFFFFFFFFFFF
:10011000FFFFFFFFFFFFFFFFFFFFFFFFFFFFFFFFEF
:10012000FFFFFFFFFFFFFFFFFFFFFFFFFFFFFFFFDF
:10013000FFFFFFFFFFFFFFFFFFFFFFFFFFFFFFFFCF
:10014000FFFFFFFFFFFFFFFFFFFFFFFFFFFFFFFFBF
:10015000FFFFFFFFFFFFFFFFFFFFFFFFFFFFFFFFAF
:10016000FFFFFFFFFFFFFFFFFFFFFFFFFFFFFFFF9F
:10017000FFFFFFFFFFFFFFFFFFFFFFFFFFFFFFFF8F
:10018000FFFFFFFFFFFFFFFFFFFFFFFFFFFFFFFF7F
:10019000FFFFFFFFFFFFFFFFFFFFFFFFFFFFFFFF6F
:1001A000FFFFFFFFFFFFFFFFFFFFFFFFFFFFFFFF5F
:1001B000FFFFFFFFFFFFFFFFFFFFFFFFFFFFFFFF4F
:1001C000FFFFFFFFFFFFFFFFFFFFFFFFFFFFFFFF3F
:1001D000FFFFFFFFFFFFFFFFFFFFFFFFFFFFFFFF2F
:1001E000FFFFFFFFFFFFFFFFFFFFFFFFFFFFFFFF1F
:1001F000FFFFFFFFFFFFFFFFFFFFFFFFFFFFFFFF0F
:10020000FFFFFFFFFFFFFFFFFFFFFFFFFFFFFFFFFE
:10021000FFFFFFFFFFFFFFFFFFFFFFFFFFFFFFFFEE
:10022000FFFFFFFFFFFFFFFFFFFFFFFFFFFFFFFFDE
:10023000FFFFFFFFFFFFFFFF8E73AE73FFFFFFFFA8
:10024000FFFFFFFF3084308492940C6379CEFFFF70
:10025000FFFFFFFFFFFFFFFFFFFFFFFFFFFFFFFFAE
:10026000FFFFFBDEEB5AD39C92942C63DFFFFFFF72
:10027000FFFFFFFF92946D6B7DEFFFFFFFFFFFFF1E
:10028000FFFFFFFFFFFFFFFFFFFFFFFFFFFFFFFF7E
:10029000FFFFFFFFFFFFFFFFFFFFFFFFFFFFFFFF6E
:1002A000FFFFFFFFFFFFFFFFFFFFFFFFFFFFFFFF5E
:1002B000FFFFFFFFFFFFFFFFFFFFFFFFFFFFFFFF4E
:1002C000FFFFFFFFFFFFFFFFFFFFFFFFFFFFFFFF3E
:1002D000FFFFFFFFFFFFFFFFFFFFFFFFFFFFFFFF2E
:1002E000FFFFFFFFFFFFFFFFFFFFFFFFFFFFFFFF1E
:1002F000FFFFFFFFFFFFFFFFFFFFFFFFFFFFFFFF0E
:10030000FFFFFFFFFFFFFFFFFFFFFFFFFFFFFFFFFD
:10031000FFFFFFFFFFFFFFFFFFFFFFFFFFFFFFFFED
:10032000FFFFFFFFFFFFFFFFFFFFFFFFFFFFFFFFDD
:10033000FFFFFFFFFFFFFFFFFFFFFFFFFFFFFFFFCD
:10034000FFFFFFFFFFFFFFFFFFFFFFFFFFFFFFFFBD
:10035000FFFFFFFFFFFFFFFFFFFFFFFFFFFFFFFFAD
:10036000FFFFFFFFFFFFFFFFFFFFFFFFFFFFFFFF9D
:10037000FFFFFFFFFFFFFFFFFFFFFFFFFFFFFFFF8D
:10038000FFFFFFFFFFFFFFFFFFFFFFFFFFFFFFFF7D
:10039000FFFFFFFFFFFFFFFFFFFFFFFFFFFFFFFF6D
:1003A000FFFFFFFFFFFFFFFFFFFFFFFFFFFFFFFF5D
:1003B000FFFFFFFFFFFFFFFFFFFFFFFFFFFFFFFF4D
:1003C000FFFFFFFFFFFFFFFFFFFFFFFFFFFFFFFF3D
:1003D000FFFFFFFFFFFFFFFFFFFFFFFFFFFFFFFF2D
:1003E000FFFFFFFFFFFFFFFFFFFFFFFFFFFFFFFF1D
:1003F000FFFFFFFFFFFFFFFFFFFFFFFFFFFFFFFF0D
:10040000FFFFFFFFFFFFFFFFFFFFFFFFFFFFFFFFFC
:10041000FFFFFFFFFFFFFFFF8E73AE73FFFFFFFFC6
:10042000FFFFFFFF3084308492940C6379CEFFFF8E
:10043000FFFFFFFFFFFFFFFFFFFFFFFFFFFFFFFFCC
:10044000FFFFFBDEEB5AD39C92942C63DFFFFFFF90
:10045000FFFFFFFF92946D6B7DEFFFFFFFFFFFFF3C
:10046000FFFFFFFFFFFFFFFFFFFFFFFFFFFFFFFF9C
:10047000FFFFFFFFFFFFFFFFFFFFFFFFFFFFFFFF8C
:10048000FFFFFFFFFFFFFFFFFFFFFFFFFFFFFFFF7C
:10049000FFFFFFFFFFFFFFFFFFFFFFFFFFFFFFFF6C
:1004A000FFFFFFFFFFFFFFFFFFFFFFFFFFFFFFFF5C
:1004B000FFFFFFFFFFFFFFFFFFFFFFFFFFFFFFFF4C
:1004C000FFFFFFFFFFFFFFFFFFFFFFFFFFFFFFFF3C
:1004D000FFFFFFFFFFFFFFFFFFFFFFFFFFFFFFFF2C
:1004E000FFFFFFFFFFFFFFFFFFFFFFFFFFFFFFFF1C
:1004F000FFFFFFFFFFFFFFFFFFFFFFFFFFFFFFFF0C
:10050000FFFFFFFFFFFFFFFFFFFFFFFFFFFFFFFFFB
:10051000FFFFFFFFFFFFFFFFFFFFFFFFFFFFFFFFEB
:10052000FFFFFFFFFFFFFFFFFFFFFFFFFFFFFFFFDB
:10053000FFFFFFFFFFFFFFFFFFFFFFFFFFFFFFFFCB
:10054000FFFFFFFFFFFFFFFFFFFFFFFFFFFFFFFFBB
:10055000FFFFFFFFFFFFFFFFFFFFFFFFFFFFFFFFAB
:10056000FFFFFFFFFFFFFFFFFFFFFFFFFFFFFFFF9B
:10057000FFFFFFFFFFFFFFFFFFFFFFFFFFFFFFFF8B
:10058000FFFFFFFFFFFFFFFFFFFFFFFFFFFFFFFF7B
:10059000FFFFFFFFFFFFFFFFFFFFFFFFFFFFFFFF6B
:1005A000FFFFFFFFFFFFFFFFFFFFFFFFFFFFFFFF5B
:1005B000FFFFFFFFFFFFFFFFFFFFFFFFFFFFFFFF4B
:1005C000FFFFFFFFFFFFFFFFFFFFFFFFFFFFFFFF3B
:1005D000FFFFFFFFFFFFFFFFFFFFFFFFFFFFFFFF2B
:1005E000FFFFFFFFFFFFFFFFFFFFFFFFFFFFFFFF1B
:1005F000FFFFFFFFFFFFFFFF8E73AE73FFFFFFFFE5
:10060000FFFFFFFF3084308492940C6379CEFFFFAC
:10061000FFFFFFFFFFFFFFFFFFFFFFFFFFFFFFFFEA
:10062000FFFFFBDEEB5AD39C92942C63DFFFFFFFAE
:10063000FFFFFFFF92946D6B7DEFFFFFFFFFFFFF5A
:10064000FFFFFFFFFFFFFFFFFFFFFFFFFFFFFFFFBA
:10065000FFFFFFFFFFFFFFFFFFFFFFFFFFFFFFFFAA
:10066000FFFFFFFFFFFFFFFFFFFFFFFFFFFFFFFF9A
:10067000FFFFFFFFFFFFFFFFFFFFFFFFFFFFFFFF8A
:10068000FFFFFFFFFFFFFFFFFFFFFFFFFFFFFFFF7A
:10069000FFFFFFFFFFFFFFFFFFFFFFFFFFFFFFFF6A
:1006A000FFFFFFFFFFFFFFFFFFFFFFFFFFFFFFFF5A
:1006B000FFFFFFFFFFFFFFFFFFFFFFFFFFFFFFFF4A
:1006C000FFFFFFFFFFFFFFFFFFFFFFFFFFFFFFFF3A
:1006D000FFFFFFFFFFFFFFFFFFFFFFFFFFFFFFFF2A
:1006E000FFFFFFFFFFFFFFFFFFFFFFFFFFFFFFFF1A
:1006F000FFFFFFFFFFFFFFFFFFFFFFFFFFFFFFFF0A
:10070000FFFFFFFFFFFFFFFFFFFFFFFFFFFFFFFFF9
:10071000FFFFFFFFFFFFFFFFFFFFFFFFFFFFFFFFE9
:10072000FFFFFFFFFFFFFFFFFFFFFFFFFFFFFFFFD9
:10073000FFFFFFFFFFFFFFFFFFFFFFFFFFFFFFFFC9
:10074000FFFFFFFFFFFFFFFFFFFFFFFFFFFFFFFFB9
:10075000FFFFFFFFFFFFFFFFFFFFFFFFFFFFFFFFA9
:10076000FFFFFFFFFFFFFFFFFFFFFFFFFFFFFFFF99
:10077000FFFFFFFFFFFFFFFFFFFFFFFFFFFFFFFF89
:10078000FFFFFFFFFFFFFFFFFFFFFFFFFFFFFFFF79
:10079000FFFFFFFFFFFFFFFFFFFFFFFFFFFFFFFF69
:1007A000FFFFFFFFFFFFFFFFFFFFFFFFFFFFFFFF59
:1007B000FFFFFFFFFFFFFFFFFFFFFFFFFFFFFFFF49
:1007C000FFFFFFFFFFFFFFFFFFFFFFFFFFFFFFFF39
:1007D000FFFFFFFFFFFFFFFF8E73AE73FFFFFFFF03
:1007E000FFFFFFFF3084308492940C6379CEFFFFCB
:1007F000FFFFFFFFFFFFFFFFFFFFFFFFFFFFFFFF09
:10080000FFFFFBDEEB5AD39C92942C63DFFFFFFFCC
:10081000FFFFFFFF92946D6B7DEFFFFFFFFFFFFF78
:10082000FFFFFFFFFFFFFFFFFFFFFFFFFFFFFFFFD8
:10083000FFFFFFFFFFFFFFFFFFFFFFFFFFFFFFFFC8
:10084000FFFFFFFFFFFFFFFFFFFFFFFFFFFFFFFFB8
:10085000FFFFFFFFFFFFFFFFFFFFFFFFFFFFFFFFA8
:10086000FFFFFFFFFFFFFFFFFFFFFFFFFFFFFFFF98
:10087000FFFFFFFFFFFFFFFFFFFFFFFFFFFFFFFF88
:10088000FFFFFFFFFFFFFFFFFFFFFFFFFFFFFFFF78
:10089000FFFFFFFFFFFFFFFFFFFFFFFFFFFFFFFF68
:1008A000FFFFFFFFFFFFFFFFFFFFFFFFFFFFFFFF58
:1008B000FFFFFFFFFFFFFFFFFFFFFFFFFFFFFFFF48
:1008C000FFFFFFFFFFFFFFFFFFFFFFFFFFFFFFFF38
:1008D000FFFFFFFFFFFFFFFFFFFFFFFFFFFFFFFF28
:1008E000FFFFFFFFFFFFFFFFFFFFFFFFFFFFFFFF18
:1008F000FFFFFFFFFFFFFFFFFFFFFFFFFFFFFFFF08
:10090000FFFFFFFFFFFFFFFFFFFFFFFFFFFFFFFFF7
:10091000FFFFFFFFFFFFFFFFFFFFFFFFFFFFFFFFE7
:10092000FFFFFFFFFFFFFFFFFFFFFFFFFFFFFFFFD7
:10093000FFFFFFFFFFFFFFFFFFFFFFFFFFFFFFFFC7
:10094000FFFFFFFFFFFFFFFFFFFFFFFFFFFFFFFFB7
:10095000FFFFFFFFFFFFFFFFFFFFFFFFFFFFFFFFA7
:10096000FFFFFFFFFFFFFFFFFFFFFFFFFFFFFFFF97
:10097000FFFFFFFFFFFFFFFFFFFFFFFFFFFFFFFF87
:10098000FFFFFFFFFFFFFFFFFFFFFFFFFFFFFFFF77
:10099000FFFFFFFFFFFFFFFFFFFFFFFFFFFFFFFF67
:1009A000FFFFFFFFFFFFFFFFFFFFFFFFFFFFFFFF57
:1009B000FFFFFFFFFFFFFFFF8E73AE73FFFFFFFF21
:1009C000FFFFFFFF3084308492940C6379CEFFFFE9
:1009D000FFFFFFFFFFFFFFFFFFFFFFFFFFFFFFFF27
:1009E000FFFFFBDEEB5AD39C92942C63DFFFFFFFEB
:1009F000FFFFFFFF92946D6B7DEFFFFFFFFFFFFF97
:100A0000FFFFFFFFFFFFFFFFFFFFFFFFFFFFFFFFF6
:100A1000FFFFFFFFFFFFFFFFFFFFFFFFFFFFFFFFE6
:100A2000FFFFFFFFFFFFFFFFFFFFFFFFFFFFFFFFD6
:100A3000FFFFFFFFFFFFFFFFFFFFFFFFFFFFFFFFC6
:100A4000FFFFFFFFFFFFFFFFFFFFFFFFFFFFFFFFB6
:100A5000FFFFFFFFFFFFFFFFFFFFFFFFFFFFFFFFA6
:100A6000FFFFFFFFFFFFFFFFFFFFFFFFFFFFFFFF96
:100A7000FFFFFFFFFFFFFFFFFFFFFFFFFFFFFFFF86
:100A8000FFFFFFFFFFFFFFFFFFFFFFFFFFFFFFFF76
:100A9000FFFFFFFFFFFFFFFFFFFFFFFFFFFFFFFF66
:100AA000FFFFFFFFFFFFFFFFFFFFFFFFFFFFFFFF56
:100AB000FFFFFFFFFFFFFFFFFFFFFFFFFFFFFFFF46
:100AC000FFFFFFFFFFFFFFFFFFFFFFFFFFFFFFFF36
:100AD000FFFFFFFFFFFFFFFFFFFFFFFFFFFFFFFF26
:100AE000FFFFFFFFFFFFFFFFFFFFFFFFFFFFFFFF16
:100AF000FFFFFFFFFFFFFFFFFFFFFFFFFFFFFFFF06
:100B0000FFFFFFFFFFFFFFFFFFFFFFFFFFFFFFFFF5
:100B1000FFFFFFFFFFFFFFFFFFFFFFFFFFFFFFFFE5
:100B2000FFFFFFFFFFFFFFFFFFFFFFFFFFFFFFFFD5
:100B3000FFFFFFFFFFFFFFFFFFFFFFFFFFFFFFFFC5
:100B4000FFFFFFFFFFFFFFFFFFFFFFFFFFFFFFFFB5
:100B5000FFFFFFFFFFFFFFFFFFFFFFFFFFFFFFFFA5
:100B6000FFFFFFFFFFFFFFFFFFFFFFFFFFFFFFFF95
:100B7000FFFFFFFFFFFFFFFFFFFFFFFFFFFFFFFF85
:100B8000FFFFFFFFFFFFFFFFFFFFFFFFFFFFFFFF75
:100B9000FFFFFFFFFFFFFFFF8E73AE73FFFFFFFF3F
:100BA000FFFFFFFF3084308492940C6379CEFFFF07
:100BB000FFFFFFFFFFFFFFFFFFFFFFFFFFFFFFFF45
:100BC000FFFFFBDEEB5AD39C92942C63DFFFFFFF09
:100BD000FFFFFFFF92946D6B7DEFFFFFFFFFFFFFB5
:100BE000FFFFFFFFFFFFFFFFFFFFFFFFFFFFFFFF15
:100BF000FFFFFFFFFFFFFFFFFFFFFFFFFFFFFFFF05
:100C0000FFFFFFFFFFFFFFFFFFFFFFFFFFFFFFFFF4
:100C1000FFFFFFFFFFFFFFFFFFFFFFFFFFFFFFFFE4
:100C2000FFFFFFFFFFFFFFFFFFFFFFFFFFFFFFFFD4
:100C3000FFFFFFFFFFFFFFFFFFFFFFFFFFFFFFFFC4
:100C4000FFFFFFFFFFFFFFFFFFFFFFFFFFFFFFFFB4
:100C5000FFFFFFFFFFFFFFFFFFFFFFFFFFFFFFFFA4
:100C6000FFFFFFFFFFFFFFFFFFFFFFFFFFFFFFFF94
:100C7000FFFFFFFFFFFFFFFFFFFFFFFFFFFFFFFF84
:100C8000FFFFFFFFFFFFFFFFFFFFFFFFFFFFFFFF74
:100C9000FFFFFFFFFFFFFFFFFFFFFFFFFFFFFFFF64
:100CA000FFFFFFFFFFFFFFFFFFFFFFFFFFFFFFFF54
:100CB000FFFFFFFFFFFFFFFFFFFFFFFFFFFFFFFF44
:100CC000FFFFFFFFFFFFFFFFFFFFFFFFFFFFFFFF34
:100CD000FFFFFFFFFFFFFFFFFFFFFFFFFFFFFFFF24
:100CE000FFFFFFFFFFFFFFFFFFFFFFFFFFFFFFFF14
:100CF000FFFFFFFFFFFFFFFFFFFFFFFFFFFFFFFF04
:100D0000FFFFFFFFFFFFFFFFFFFFFFFFFFFFFFFFF3
:100D1000FFFFFFFFFFFFFFFFFFFFFFFFFFFFFFFFE3
:100D2000FFFFFFFFFFFFFFFFFFFFFFFFFFFFFFFFD3
:100D3000FFFFFFFFFFFFFFFFFFFFFFFFFFFFFFFFC3
:100D4000FFFFFFFFFFFFFFFFFFFFFFFFFFFFFFFFB3
:100D5000FFFFFFFFFFFFFFFFFFFFFFFFFFFFFFFFA3
:100D6000FFFFFFFFFFFFFFFFFFFFFFFFFFFFFFFF93
:100D7000FFFFFFFFFFFFFFFF8E73AE73FFFFFFFF5D
:100D8000FFFFFFFF3084308492940C6379CEFFFF25
:100D9000FFFFFFFFFFFFFFFFFFFFFFFFFFFFFFFF63
:100DA000FFFFFBDEEB5AD39C92942C63DFFFFFFF27
:100DB000FFFFFFFF92946D6B7DEFFFFFFFFFFFFFD3
:100DC000FFFFFFFFFFFFFFFFFFFFFFFFFFFFFFFF33
:100DD000FFFFFFFFFFFFFFFFFFFFFFFFFFFFFFFF23
:100DE000FFFFFFFFFFFFFFFFFFFFFFFFFFFFFFFF13
:100DF000FFFFFFFFFFFFFFFFFFFFFFFFFFFFFFFF03
:100E0000FFFFFFFFFFFFFFFFFFFFFFFFFFFFFFFFF2
:100E1000FFFFFFFFFFFFFFFFFFFFFFFFFFFFFFFFE2
:100E2000FFFFFFFFFFFFFFFFFFFFFFFFFFFFFFFFD2
:100E3000FFFFFFFFFFFFFFFFFFFFFFFFFFFFFFFFC2
:100E4000FFFFFFFFFFFFFFFFFFFFFFFFFFFFFFFFB2
:100E5000FFFFFFFFFFFFFFFFFFFFFFFFFFFFFFFFA2
:100E6000FFFFFFFFFFFFFFFFFFFFFFFFFFFFFFFF92
:100E7000FFFFFFFFFFFFFFFFFFFFFFFFFFFFFFFF82
:100E8000FFFFFFFFFFFFFFFFFFFFFFFFFFFFFFFF72
:100E9000FFFFFFFFFFFFFFFFFFFFFFFFFFFFFFFF62
:100EA000FFFFFFFFFFFFFFFFFFFFFFFFFFFFFFFF52
:100EB000FFFFFFFFFFFFFFFFFFFFFFFFFFFFFFFF42
:100EC000FFFFFFFFFFFFFFFFFFFFFFFFFFFFFFFF32
:100ED000FFFFFFFFFFFFFFFFFFFFFFFFFFFFFFFF22
:100EE000FFFFFFFFFFFFFFFFFFFFFFFFFFFFFFFF12
:100EF000FFFFFFFFFFFFFFFFFFFFFFFFFFFFFFFF02
:100F0000FFFFFFFFFFFFFFFFFFFFFFFFFFFFFFFFF1
:100F1000FFFFFFFFFFFFFFFFFFFFFFFFFFFFFFFFE1
:100F2000FFFFFFFFFFFFFFFFFFFFFFFFFFFFFFFFD1
:100F3000FFFFFFFFFFFFFFFFFFFFFFFFFFFFFFFFC1
:100F4000FFFFFFFFFFFFFFFFFFFFFFFFFFFFFFFFB1
:100F5000FFFFFFFFFFFFFFFF8E73AE73FFFFFFFF7B
:100F6000FFFFFFFF3084308492940C6379CEFFFF43
:100F7000FFFFFFFFFFFFFFFFFFFFFFFFFFFFFFFF81
:100F8000FFFFFBDEEB5AD39C92942C63DFFFFFFF45
:100F9000FFFFFFFF92946D6B7DEFFFFFFFFFFFFFF1
:100FA000FFFFFFFFFFFFFFFFFFFFFFFFFFFFFFFF51
:100FB000FFFFFFFFFFFFFFFFFFFFFFFFFFFFFFFF41
:100FC000FFFFFFFFFFFFFFFFFFFFFFFFFFFFFFFF31
:100FD000FFFFFFFFFFFFFFFFFFFFFFFFFFFFFFFF21
:100FE000FFFFFFFFFFFFFFFFFFFFFFFFFFFFFFFF11
:100FF000FFFFFFFFFFFFFFFFFFFFFFFFFFFFFFFF01
:10100000FFFFFFFFFFFFFFFFFFFFFFFFFFFFFFFFF0
:10101000FFFFFFFFFFFFFFFFFFFFFFFFFFFFFFFFE0
:10102000FFFFFFFFFFFFFFFFFFFFFFFFFFFFFFFFD0
:10103000FFFFFFFFFFFFFFFFFFFFFFFFFFFFFFFFC0
:10104000FFFFFFFFFFFFFFFFFFFFFFFFFFFFFFFFB0
:10105000FFFFFFFFFFFFFFFFFFFFFFFFFFFFFFFFA0
:10106000FFFFFFFFFFFFFFFFFFFFFFFFFFFFFFFF90
:10107000FFFFFFFFFFFFFFFFFFFFFFFFFFFFFFFF80
:10108000FFFFFFFFFFFFFFFFFFFFFFFFFFFFFFFF70
:10109000FFFFFFFFFFFFFFFFFFFFFFFFFFFFFFFF60
:1010A000FFFFFFFFFFFFFFFFFFFFFFFFFFFFFFFF50
:1010B000FFFFFFFFFFFFFFFFFFFFFFFFFFFFFFFF40
:1010C000FFFFFFFFFFFFFFFFFFFFFFFFFFFFFFFF30
:1010D000FFFFFFFFFFFFFFFFFFFFFFFFFFFFFFFF20
:1010E000FFFFFFFFFFFFFFFFFFFFFFFFFFFFFFFF10
:1010F000FFFFFFFFFFFFFFFFFFFFFFFFFFFFFFFF00
:10110000FFFFFFFFFFFFFFFFFFFFFFFFFFFFFFFFEF
:10111000FFFFFFFFFFFFFFFFFFFFFFFFFFFFFFFFDF
:10112000FFFFFFFFFFFFFFFFFFFFFFFFFFFFFFFFCF
:10113000FFFFFFFFFFFFFFFF8E73AE73FFFFFFFF99
:10114000FFFFFFFF3084308492940C6379CEFFFF61
:10115000FFFFFFFFFFFFFFFFFFFFFFFFFFFFFFFF9F
:10116000FFFFFBDEEB5AD39C92942C63DFFFFFFF63
:10117000FFFFFFFF92946D6B7DEFFFFFFFFFFFFF0F
:10118000FFFFFFFFFFFFFFFFFFFFFFFFFFFFFFFF6F
:10119000FFFFFFFFFFFFFFFFFFFFFFFFFFFFFFFF5F
:1011A000FFFFFFFFFFFFFFFFFFFFFFFFFFFFFFFF4F
:1011B000FFFFFFFFFFFFFFFFFFFFFFFFFFFFFFFF3F
:1011C000FFFFFFFFFFFFFFFFFFFFFFFFFFFFFFFF2F
:1011D000FFFFFFFFFFFFFFFFFFFFFFFFFFFFFFFF1F
:1011E000FFFFFFFFFFFFFFFFFFFFFFFFFFFFFFFF0F
:1011F000FFFFFFFFFFFFFFFFFFFFFFFFFFFFFFFFFF
:10120000FFFFFFFFFFFFFFFFFFFFFFFFFFFFFFFFEE
:10121000FFFFFFFFFFFFFFFFFFFFFFFFFFFFFFFFDE
:10122000FFFFFFFFFFFFFFFFFFFFFFFFFFFFFFFFCE
:10123000FFFFFFFFFFFFFFFFFFFFFFFFFFFFFFFFBE
:10124000FFFFFFFFFFFFFFFFFFFFFFFFFFFFFFFFAE
:10125000FFFFFFFFFFFFFFFFFFFFFFFFFFFFFFFF9E
:10126000FFFFFFFFFFFFFFFFFFFFFFFFFFFFFFFF8E
:10127000FFFFFFFFFFFFFFFFFFFFFFFFFFFFFFFF7E
:10128000FFFFFFFFFFFFFFFFFFFFFFFFFFFFFFFF6E
:10129000FFFFFFFFFFFFFFFFFFFFFFFFFFFFFFFF5E
:1012A000FFFFFFFFFFFFFFFFFFFFFFFFFFFFFFFF4E
:1012B000FFFFFFFFFFFFFFFFFFFFFFFFFFFFFFFF3E
:1012C000FFFFFFFFFFFFFFFFFFFFFFFFFFFFFFFF2E
:1012D000FFFFFFFFFFFFFFFFFFFFFFFFFFFFFFFF1E
:1012E000FFFFFFFFFFFFFFFFFFFFFFFFFFFFFFFF0E
:1012F000FFFFFFFFFFFFFFFFFFFFFFFFFFFFFFFFFE
:10130000FFFFFFFFFFFFFFFFFFFFFFFFFFFFFFFFED
:10131000FFFFFFFFFFFFFFFF8E73AE73FFFFFFFFB7
:10132000FFFFFFFF3084308492940C6379CEFFFF7F
:10133000FFFFFFFFFFFFFFFFFFFFFFFFFFFFFFFFBD
:10134000FFFFFBDEEB5AD39C92942C63DFFFFFFF81
:10135000FFFFFFFF92946D6B7DEFFFFFFFFFFFFF2D
:10136000FFFFFFFFFFFFFFFFFFFFFFFFFFFFFFFF8D
:10137000FFFFFFFFFFFFFFFFFFFFFFFFFFFFFFFF7D
:10138000FFFFFFFFFFFFFFFFFFFFFFFFFFFFFFFF6D
:10139000FFFFFFFFFFFFFFFFFFFFFFFFFFFFFFFF5D
:1013A000FFFFFFFFFFFFFFFFFFFFFFFFFFFFFFFF4D
:1013B000FFFFFFFFFFFFFFFFFFFFFFFFFFFFFFFF3D
:1013C000FFFFFFFFFFFFFFFFFFFFFFFFFFFFFFFF2D
:1013D000FFFFFFFFFFFFFFFFFFFFFFFFFFFFFFFF1D
:1013E000FFFFFFFFFFFFFFFFFFFFFFFFFFFFFFFF0D
:1013F000FFFFFFFFFFFFFFFFFFFFFFFFFFFFFFFFFD
:10140000FFFFFFFFFFFFFFFFFFFFFFFFFFFFFFFFEC
:10141000FFFFFFFFFFFFFFFFFFFFFFFFFFFFFFFFDC
:10142000FFFFFFFFFFFFFFFFFFFFFFFFFFFFFFFFCC
:10143000FFFFFFFFFFFFFFFFFFFFFFFFFFFFFFFFBC
:10144000FFFFFFFFFFFFFFFFFFFFFFFFFFFFFFFFAC
:10145000FFFFFFFFFFFFFFFFFFFFFFFFFFFFFFFF9C
:10146000FFFFFFFFFFFFFFFFFFFFFFFFFFFFFFFF8C
:10147000FFFFFFFFFFFFFFFFFFFFFFFFFFFFFFFF7C
:10148000FFFFFFFFFFFFFFFFFFFFFFFFFFFFFFFF6C
:10149000FFFFFFFFFFFFFFFFFFFFFFFFFFFFFFFF5C
:1014A000FFFFFFFFFFFFFFFFFFFFFFFFFFFFFFFF4C
:1014B000FFFFFFFFFFFFFFFFFFFFFFFFFFFFFFFF3C
:1014C000FFFFFFFFFFFFFFFFFFFFFFFFFFFFFFFF2C
:1014D000FFFFFFFFFFFFFFFFFFFFFFFFFFFFFFFF1C
:1014E000FFFFFFFFFFFFFFFFFFFFFFFFFFFFFFFF0C
:1014F000FFFFFFFFFFFFFFFF8E73AE73FFFFFFFFD6
:10150000FFFFFFFF3084308492940C6379CEFFFF9D
:10151000FFFFFFFFFFFFFFFFFFFFFFFFFFFFFFFFDB
:10152000FFFFFBDEEB5AD39C92942C63DFFFFFFF9F
:10153000FFFFFFFF92946D6B7DEFFFFFFFFFFFFF4B
:10154000FFFFFFFFFFFFFFFFFFFFFFFFFFFFFFFFAB
:10155000FFFFFFFFFFFFFFFFFFFFFFFFFFFFFFFF9B
:10156000FFFFFFFFFFFFFFFFFFFFFFFFFFFFFFFF8B
:10157000FFFFFFFFFFFFFFFFFFFFFFFFFFFFFFFF7B
:10158000FFFFFFFFFFFFFFFFFFFFFFFFFFFFFFFF6B
:10159000FFFFFFFFFFFFFFFFFFFFFFFFFFFFFFFF5B
:1015A000FFFFFFFFFFFFFFFFFFFFFFFFFFFFFFFF4B
:1015B000FFFFFFFFFFFFFFFFFFFFFFFFFFFFFFFF3B
:1015C000FFFFFFFFFFFFFFFFFFFFFFFFFFFFFFFF2B
:1015D000FFFFFFFFFFFFFFFFFFFFFFFFFFFFFFFF1B
:1015E000FFFFFFFFFFFFFFFFFFFFFFFFFFFFFFFF0B
:1015F000FFFFFFFFFFFFFFFFFFFFFFFFFFFFFFFFFB
:10160000FFFFFFFFFFFFFFFFFFFFFFFFFFFFFFFFEA
:10161000FFFFFFFFFFFFFFFFFFFFFFFFFFFFFFFFDA
:10162000FFFFFFFFFFFFFFFFFFFFFFFFFFFFFFFFCA
:10163000FFFFFFFFFFFFFFFFFFFFFFFFFFFFFFFFBA
:10164000FFFFFFFFFFFFFFFFFFFFFFFFFFFFFFFFAA
:10165000FFFFFFFFFFFFFFFFFFFFFFFFFFFFFFFF9A
:10166000FFFFFFFFFFFFFFFFFFFFFFFFFFFFFFFF8A
:10167000FFFFFFFFFFFFFFFFFFFFFFFFFFFFFFFF7A
:10168000FFFFFFFFFFFFFFFFFFFFFFFFFFFFFFFF6A
:10169000FFFFFFFFFFFFFFFFFFFFFFFFFFFFFFFF5A
:1016A000FFFFFFFFFFFFFFFFFFFFFFFFFFFFFFFF4A
:1016B000FFFFFFFFFFFFFFFFFFFFFFFFFFFFFFFF3A
:1016C000FFFFFFFFFFFFFFFFFFFFFFFFFFFFFFFF2A
:1016D000FFFFFFFFFFFFFFFF8E73AE73FFFFFFFFF4
:1016E000FFFFFFFF3084308492940C6379CEFFFFBC
:1016F000FFFFFFFFFFFFFFFFFFFFFFFFFFFFFFFFFA
:10170000FFFFFBDEEB5AD39C92942C63DFFFFFFFBD
:10171000FFFFFFFF92946D6B7DEFFFFFFFFFFFFF69
:10172000FFFFFFFFFFFFFFFFFFFFFFFFFFFFFFFFC9
:10173000FFFFFFFFFFFFFFFFFFFFFFFFFFFFFFFFB9
:10174000FFFFFFFFFFFFFFFFFFFFFFFFFFFFFFFFA9
:10175000FFFFFFFFFFFFFFFFFFFFFFFFFFFFFFFF99
:10176000FFFFFFFFFFFFFFFFFFFFFFFFFFFFFFFF89
:10177000FFFFFFFFFFFFFFFFFFFFFFFFFFFFFFFF79
:10178000FFFFFFFFFFFFFFFFFFFFFFFFFFFFFFFF69
:10179000FFFFFFFFFFFFFFFFFFFFFFFFFFFFFFFF59
:1017A000FFFFFFFFFFFFFFFFFFFFFFFFFFFFFFFF49
:1017B000FFFFFFFFFFFFFFFFFFFFFFFFFFFFFFFF39
:1017C000FFFFFFFFFFFFFFFFFFFFFFFFFFFFFFFF29
:1017D000FFFFFFFFFFFFFFFFFFFFFFFFFFFFFFFF19
:1017E000FFFFFFFFFFFFFFFFFFFFFFFFFFFFFFFF09
:1017F000FFFFFFFFFFFFFFFFFFFFFFFFFFFFFFFFF9
:10180000FFFFFFFFFFFFFFFFFFFFFFFFFFFFFFFFE8
:10181000FFFFFFFFFFFFFFFFFFFFFFFFFFFFFFFFD8
:10182000FFFFFFFFFFFFFFFFFFFFFFFFFFFFFFFFC8
:10183000FFFFFFFFFFFFFFFFFFFFFFFFFFFFFFFFB8
:10184000FFFFFFFFFFFFFFFFFFFFFFFFFFFFFFFFA8
:10185000FFFFFFFFFFFFFFFFFFFFFFFFFFFFFFFF98
:10186000FFFFFFFFFFFFFFFFFFFFFFFFFFFFFFFF88
:10187000FFFFFFFFFFFFFFFFFFFFFFFFFFFFFFFF78
:10188000FFFFFFFFFFFFFFFFFFFFFFFFFFFFFFFF68
:10189000FFFFFFFFFFFFFFFFFFFFFFFFFFFFFFFF58
:1018A000FFFFFFFFFFFFFFFFFFFFFFFFFFFFFFFF48
:1018B000FFFFFFFFFFFFFFFF8E73AE73FFFFFFFF12
:1018C000FFFFFFFF3084308492940C6379CEFFFFDA
:1018D000FFFFFFFFFFFFFFFFFFFFFFFFFFFFFFFF18
:1018E000FFFFFBDEEB5AD39C92942C63DFFFFFFFDC
:1018F000FFFFFFFF92946D6B7DEFFFFFFFFFFFFF88
:10190000FFFFFFFFFFFFFFFFFFFFFFFFFFFFFFFFE7
:10191000FFFFFFFFFFFFFFFFFFFFFFFFFFFFFFFFD7
:10192000FFFFFFFFFFFFFFFFFFFFFFFFFFFFFFFFC7
:10193000FFFFFFFFFFFFFFFFFFFFFFFFFFFFFFFFB7
:10194000FFFFFFFFFFFFFFFFFFFFFFFFFFFFFFFFA7
:10195000FFFFFFFFFFFFFFFFFFFFFFFFFFFFFFFF97
:10196000FFFFFFFFFFFFFFFFFFFFFFFFFFFFFFFF87
:10197000FFFFFFFFFFFFFFFFFFFFFFFFFFFFFFFF77
:10198000FFFFFFFFFFFFFFFFFFFFFFFFFFFFFFFF67
:10199000FFFFFFFFFFFFFFFFFFFFFFFFFFFFFFFF57
:1019A000FFFFFFFFFFFFFFFFFFFFFFFFFFFFFFFF47
:1019B000FFFFFFFFFFFFFFFFFFFFFFFFFFFFFFFF37
:1019C000FFFFFFFFFFFFFFFFFFFFFFFFFFFFFFFF27
:1019D000FFFFFFFFFFFFFFFFFFFFFFFFFFFFFFFF17
:1019E000FFFFFFFFFFFFFFFFFFFFFFFFFFFFFFFF07
:1019F000FFFFFFFFFFFFFFFFFFFFFFFFFFFFFFFFF7
:101A0000FFFFFFFFFFFFFFFFFFFFFFFFFFFFFFFFE6
:101A1000FFFFFFFFFFFFFFFFFFFFFFFFFFFFFFFFD6
:101A2000FFFFFFFFFFFFFFFFFFFFFFFFFFFFFFFFC6
:101A3000FFFFFFFFFFFFFFFFFFFFFFFFFFFFFFFFB6
:101A4000FFFFFFFFFFFFFFFFFFFFFFFFFFFFFFFFA6
:101A5000FFFFFFFFFFFFFFFFFFFFFFFFFFFFFFFF96
:101A6000FFFFFFFFFFFFFFFFFFFFFFFFFFFFFFFF86
:101A7000FFFFFFFFFFFFFFFFFFFFFFFFFFFFFFFF76
:101A8000FFFFFFFFFFFFFFFFFFFFFFFFFFFFFFFF66
:101A9000FFFFFFFFFFFFFFFF8E73AE73FFFFFFFF30
:101AA000FFFFFFFF3084308492940C6379CEFFFFF8
:101AB000FFFFFFFFFFFFFFFFFFFFFFFFFFFFFFFF36
:101AC000FFFFFBDEEB5AD39C92942C63DFFFFFFFFA
:101AD000FFFFFFFF92946D6B7DEFFFFFFFFFFFFFA6
:101AE000FFFFFFFFFFFFFFFFFFFFFFFFFFFFFFFF06
:101AF000FFFFFFFFFFFFFFFFFFFFFFFFFFFFFFFFF6
:101B0000FFFFFFFFFFFFFFFFFFFFFFFFFFFFFFFFE5
:101B1000FFFFFFFFFFFFFFFFFFFFFFFFFFFFFFFFD5
:101B2000FFFFFFFFFFFFFFFFFFFFFFFFFFFFFFFFC5
:101B3000FFFFFFFFFFFFFFFFFFFFFFFFFFFFFFFFB5
:101B4000FFFFFFFFFFFFFFFFFFFFFFFFFFFFFFFFA5
:101B5000FFFFFFFFFFFFFFFFFFFFFFFFFFFFFFFF95
:101B6000FFFFFFFFFFFFFFFFFFFFFFFFFFFFFFFF85
:101B7000FFFFFFFFFFFFFFFFFFFFFFFFFFFFFFFF75
:101B8000FFFFFFFFFFFFFFFFFFFFFFFFFFFFFFFF65
:101B9000FFFFFFFFFFFFFFFFFFFFFFFFFFFFFFFF55
:101BA000FFFFFFFFFFFFFFFFFFFFFFFFFFFFFFFF45
:101BB000FFFFFFFFFFFFFFFFFFFFFFFFFFFFFFFF35
:101BC000FFFFFFFFFFFFFFFFFFFFFFFFFFFFFFFF25
:101BD000FFFFFFFFFFFFFFFFFFFFFFFFFFFFFFFF15
:101BE000FFFFFFFFFFFFFFFFFFFFFFFFFFFFFFFF05
:101BF000FFFFFFFFFFFFFFFFFFFFFFFFFFFFFFFFF5
