:020000040800F2
:10000000B8090020AD010008571A00085513000870
:10001000551A0008E5020008511E00080000000003
:100020000000000000000000000000005D1B000850
:10003000E702000800000000591A00085F1B0008D2
:10004000C7010008C7010008C7010008C701000870
:10005000C70100085B1A0008C7010008C7010008B3
:10006000C7010008C7010008C7010008C701000850
:10007000C7010008C7010008C7010008C701000840
:10008000C7010008C7010008C70100080000000000
:10009000000000000000000000000000C701000890
:1000A000C7010008011C0008C7010008C7010008BB
:1000B000C7010008C7010008C7010008C701000800
:1000C000C7010008C7010008C7010008C7010008F0
:1000D000C7010008C7010008C701000800000000B0
:1000E000C7010008C7010008C701000800000000A0
:1000F000000000000000000000000000C701000830
:1001000000000000C7010008C7010008C70100087F
:1001100000000000000000000000000000000000DF
:10012000C7010008C7010008C7010008C70100088F
:10013000C7010008000000000000000000000000EF
:10014000000000000000000000000000C7010008DF
:10015000C7010008C7010008C7010008C70100085F
:10016000C7010008C70100080000000000000000EF
:10017000000000000000000000000000000000007F
:1001800000000000C701000800000000000000009F
:10019000C7010008C7010008DFF80CD000F090F894
:1001A000004800471D200008B80900200648804785
:1001B00006480047FEE7FEE7FEE7FEE7FEE7FEE74C
:1001C000FEE7FEE7FEE7FEE7E51B000899010008F1
:1001D0002DE9F05F0546002092469B46884606467C
:1001E000814640241BE0284641464746224600F00F
:1001F00057F853465A46C01A914110D31146184633
:10020000224600F03EF82D1A67EB01084F462246C1
:100210000120002100F035F817EB00094E41201EA7
:10022000A4F10104DFDC484631462A464346BDE8D6
:10023000F09FD2B201E000F8012B491EFBD27047BB
:100240000022F6E710B513460A4604461946FFF7A2
:10025000F0FF204610BD30B50B460146002020229D
:10026000012409E021FA02F59D4205D303FA02F5C3
:10027000491B04FA02F52844151EA2F10102F1DC23
:1002800030BD202A04DB203A00FA02F1002070473A
:100290009140C2F1200320FA03F3194390407047C4
:1002A000202A04DB203A21FA02F00021704721FACB
:1002B00002F3D040C2F12002914008431946704732
:1002C000064C074D06E0E06840F0010394E80700A3
:1002D00098471034AC42F6D3FFF762FFCC690108AF
:1002E000EC690108FEE770477047000070B50446EE
:1002F00000F0E4F80546601C02D00448007804448D
:1003000000F0DCF8401BA042FAD370BD10000020C2
:100310002DE9F84F00224FF0010803254FF00F0E92
:100320000B6808FA02F42340A34271D14E68012EF3
:1003300005D0022E03D0112E01D0122E15D18668C1
:10034000570005FA07FC26EA0C06D1F80CC00CFA97
:1003500007FC4CEA060CC0F808C04668A6430C79B6
:10036000C4F30014944034434460C668570005FA4F
:1003700007FC8C6826EA0C06BC403443C4604C6819
:10038000022C01D0122C13D1D40800EB8404A34614
:10039000D4F8209054074FEAD46A0EFA0AF629EAF4
:1003A00006090E6906FA0AF646EA0906CBF8206045
:1003B00004680E7924EA0C0406F00306BE402643C6
:1003C00006604C68E40056D52E4C266846F48046FC
:1003D0002660246822F0030604F4804400942A4C2A
:1003E0003444A446D4F808489607370F0EFA07F6A7
:1003F000B443264EB04201D1002615E0244EB0424F
:1004000001D1012610E0234EB04202D102260BE0BA
:1004100031E0214EB04201D1032605E01F4EB0422B
:1004200001D1042600E00726BE402643CCF8086828
:100430001B4E34684F689C43FF0300D51C43346057
:10044000174E361D34684F689C43BF0300D51C43CC
:100450003460134E083634684F689C43FF0200D561
:100460001C4334600E4E0C3634684F689C43BF0208
:1004700000D51C433460521C102AFFF451AFBDE874
:10048000F88F000044380240003001400000024074
:100490000004024000080240000C0240001002402C
:1004A000003C0140426931EA020200D10904816145
:1004B00070470AB1816170470904FBE70148806811
:1004C0007047000010000020024881680278114443
:1004D00081607047100000200B4810B5016841F49E
:1004E00000710160016841F480610160016841F4BC
:1004F00080710160032000F077F8002000F006F81A
:1005000000F024F8002010BD003C024070B50D4DF5
:1005100004464FF47A712878B1FBF0F00A49096873
:10052000B1FBF0F000F02CFC48B9102C07D20022EF
:100530002146501E00F038F800206C6070BD01208C
:1005400070BD0000100000201C0000200E4808B5FF
:10055000016841F480410160006800F4804000902F
:100560000948001F016841F08051016000680022C5
:1005700000F0805000901146052000F015F8BDE80D
:100580000840052000F002B844380240002809DB8A
:1005900000F01F02012191404009800000F1E0209D
:1005A000C0F8001170470000F0B40E4B1B680C46F9
:1005B000C3F30223C3F10705042D00D90425191D37
:1005C000072901D2002300E0DB1E012606FA05F10F
:1005D000491E214099409E40761E16403143F0BC92
:1005E00001F048BC0CED00E0064900F00702086885
:1005F0004FF6FF03184040EA0220034A1043086008
:10060000704700000CED00E00000FA052DE9F0470E
:100610000E46050065D0DFF81481D8F80000F7B267
:1006200000F00F00B04207D288F80070D8F8000040
:1006300000F00F00B04254D128683D4C810712D51C
:10064000400703D5206840F4E05020602878000778
:1006500003D5206840F4604020602068A96820F03D
:10066000F000084320602878C0072DD03049686822
:100670000839012812D0022813D0032811D00968A4
:10068000890700292DDA216821F003010143216047
:10069000FFF714FF814641F2883A0EE009688903AA
:1006A000EFE709688901ECE7FFF708FFA0EB090114
:1006B000514502D90320BDE8F0872068696800F041
:1006C0000C00B0EB810FEFD1D8F80010404601F0DC
:1006D0000F01B14207D90770006800F00F00B04267
:1006E00001D00120E7E72878400705D52068E968B0
:1006F00020F4E050084320602878000706D52068E1
:10070000296920F4604040EAC100206000F038F818
:100710002168084AC1F30311515CC84006490860CA
:1007200006480068FFF7F2FE0020C4E7003C0240E4
:1007300008380240B46901081C00002014000020A1
:100740000448054900680968044AC1F38221515CE4
:10075000C84070471C00002008380240C4690108E6
:100760000448054900680968044AC1F34231515CF4
:10077000C84070471C00002008380240C4690108C6
:10078000154810B5006810F00C02144813D0411041
:10079000042A0FD0082A0ED10F4C241F2268236888
:1007A00002F03F025B0207D52068C0F38810A0FB6F
:1007B000010106E0084610BD2168C1F38811A1FBC4
:1007C00000010023FFF704FD2168C1F30141491C2A
:1007D0004900B0FBF1F010BD083802400024F400DD
:1007E0002DE9F84F04006ED02078DFF83C93C00765
:1007F000A9F104054AD009F104000168C1F381019F
:10080000012908D00068C0F3810002280AD1D9F874
:100810000000400206D52868800337D560680028AC
:10082000E1D033E06068B0F5803F10D0B0F5A02F84
:10083000286810D020F480302860286820F48020B8
:1008400028606068A8B1FFF739FE06460DE0286809
:1008500040F48030F4E740F480202860F7E700BFE0
:10086000FFF72CFE801B642873D828688003F7D517
:100870000CE0FFF723FE064605E000BFFFF71EFE73
:10088000801B6428F0D828688003F7D42078DFF82C
:100890009C8280074FF0000A3ED5A348001D0168E6
:1008A00011F00C0F08D00068C0F3810002280BD1B2
:1008B000D9F80000400207D42868800716D5E06800
:1008C000012800D112E02BE1E068B8B10120C8F89E
:1008D0000000FFF7F3FD064605E000BFFFF7EEFD61
:1008E000801B0228C0D828688007F7D528682169AE
:1008F00020F0F80040EAC10028600DE0C8F800A030
:10090000FFF7DCFD064604E0FFF7D8FD801B022858
:100910001FD828688007F7D42078000722D5824E98
:1009200083486169703671B101210160FFF7C6FD2E
:10093000074604E0FFF7C2FDC01B022809D8306853
:100940008007F7D50EE0C0F800A0FFF7B7FD074617
:1009500005E082E0FFF7B2FDC01B02287DD83068B9
:100960008007F7D42078400768D5DFF8BCB10027AE
:100970000BF13C0BDBF80000C0000BD4DBF80010DF
:1009800041F08051CBF80010DBF80000012700F0A7
:1009900080500090674E3068C00510D4306840F435
:1009A00080703060FFF78AFD009005E0FFF786FD5C
:1009B0000099401A022850D83068C005F6D55A4E22
:1009C000A0686C3601280FD00528306810D020F0C0
:1009D00001003060306820F004003060A068B8B1D9
:1009E000FFF76CFD00900FE0306840F00100F4E785
:1009F00040F004003060F7E7FFF760FD0099411A0E
:100A000041F28830814266D830688007F4D50EE024
:100A1000FFF754FD009007E0FFF750FD0099411AE1
:100A200041F28830814256D830688007F4D42FB123
:100A3000DBF8001021F08051CBF80010A069C8B39A
:100A40003949091D0968C1F3810102294AD00228E8
:100A5000504607D0C8F8600000E03CE0FFF72EFDEC
:100A600004463BE04746C8F86000FFF727FD06460E
:100A700005E000BFFFF722FD801B02282BD8286865
:100A80008001F7D4D4E907010843A16A2A4A49083A
:100A900002EB0141626A41EA8211084394F82C108A
:100AA00040EA0161C9F8001001203866FFF706FD31
:100AB000044606E036E000BFFFF700FD001B0228F9
:100AC00009D828688001F7D52CE000BFFFF7F6FCB5
:100AD000001B022802D90320BDE8F88F2868800196
:100AE000F4D41FE00128F7D0D9F80000E26900F43F
:100AF0008001914214D1226A00F03F0191420FD14E
:100B000047F6C071626A0140914209D1A26A00F4BD
:100B10004031914204D1E16A00F07060884201D016
:100B20000120D9E70020D7E70438024000004742FF
:100B3000800E4742007000400000FFFF70B50400C7
:100B400005D00025A56294F8510010B106E00120FF
:100B500070BD84F85050204600F030F8022084F830
:100B600051002068016821F040010160D4E90101D1
:100B70000843D4E903121143084361690843218BF8
:100B800001F400710843E1690843216A0843A16A3E
:100B9000084321680860A069042101EA1040616AE5
:100BA0000843216848602068C16921F40061C1617F
:100BB0006565012084F85100002070BD10B586B035
:100BC000044614216846FFF73BFB1349206888421E
:100BD00020D112480021026842F4004202600068FD
:100BE00000F4004005900D481038026842F00202FF
:100BF0000260006800F002000590282000900220AA
:100C0000CDE90101032003900620049069460448C1
:100C1000FFF77EFB06B010BD003C004040380240AC
:100C2000000402402DE9F84F044690F850000027D8
:100C30001D461646894601280DD04FF0010B84F859
:100C400050B0FFF73BFC804694F85100BA460128AB
:100C500004D002278EE00220BDE8F88FB9F1000F22
:100C60007DD0002E7BD0032084F85100C4F854A01E
:100C7000C4F83090A686E686C4F838A0A4F83CA054
:100C8000A4F83EA0C4F844A0C4F840A0A068B0F501
:100C9000004F04D12068016841F480410160206860
:100CA0000168490603D4016841F040010160E06831
:100CB000B0F5006F606803D030B3012E24D040E05F
:100CC00008B1012E1CD1206B21680088C86006E0A5
:100CD00020688168890709D5216B0988C160206B6C
:100CE000801C2063E08E401EE08609E0FFF7E6FBF3
:100CF000A0EB0800A84202D3681C01D031E07DB30C
:100D0000E08E0028E4D11FE0206B21680078087392
:100D100006E020688168890709D5216B097801738D
:100D2000206B401C2063E08E401EE08609E0FFF748
:100D3000C5FBA0EB0800A84202D3681C01D010E05C
:100D400075B1E08E0028E4D142462946204600F0E5
:100D50008FFE08B120206065A06820B107E008E0A0
:100D6000FFE7032706E02068C16880680090606D97
:100D700000B1012784F851B084F850A038466BE7E1
:100D800010B5401EB0F1807F01D3012010BD4FF09F
:100D9000E02460610F21601701F06CF80020A06171
:100DA00007202061002010BD7047704770B590F893
:100DB0003C20012A2CD0012480F83C40022280F8FB
:100DC0003D2003685A689D6822F070060A68324325
:100DD0005A60104B02689A420ED0B2F1804F0BD08D
:100DE0000D4B9A4208D00D4B9A4205D00C4B9A42BB
:100DF00002D00C4B9A4204D1496825F08003194374
:100E0000916080F83D40002180F83C10084670BD9C
:100E1000022070BD000001400004004000080040B6
:100E2000000C00400040014010B5040003D094F8CD
:100E30003D0010B107E0012010BD002084F83C0007
:100E4000204600F00DF8022084F83D00211D2068A6
:100E500000F0DCFE012084F83D00002010BD000001
:100E600008B500680B49884212D10B48016841F06F
:100E7000010101600068002200F0010000901146AD
:100E80001920FFF791FBBDE808401920FFF77EBB52
:100E900008BD000000000140443802400168CA68F3
:100EA00042F00102CA600068816801F0070106296A
:100EB00003D0016841F0010101600020704770B566
:100EC000044690F83C00012817D0012584F83C50D6
:100ED000022084F83D002068826822F0770222F424
:100EE0007F4282600868502830D00DDC20284DD029
:100EF00005DC98B310283BD148E0022070BD3028B3
:100F000044D0402834D139E0602828D0702806D059
:100F1000B0F5805F2CD0B0F5005F29D10AE0CB6836
:100F2000D1E90121206800F0CAFE2068816841F003
:100F3000770109E0CB68D1E90121206800F0BFFE0C
:100F40002068816841F48041816011E0CA68496885
:100F5000206800F0C6FE5021206807E016E0CA684D
:100F60004968206800F0CEFE6021206800F0B1FEE4
:100F700084F83D50002084F83C0070BDCA68496880
:100F8000206800F0AEFE40212068EFE722680146AD
:100F90001046EBE72DE9F0410D46040003D094F82C
:100FA0003D0018B108E00120BDE8F081002084F880
:100FB0003C00204600F03AF8022084F83D0020680A
:100FC000816844F2070291438160211D206800F08E
:100FD0001DFE226890689169166A2B68AF69034309
:100FE00040F20330814341EA0721A868EF690843D2
:100FF0004FF6FC418843E96840EA0720014328692D
:101000002F6A000140EA0730084369686D6926F0DD
:10101000AA0646EA05152943936022689061206874
:101020000162012084F83D000020BDE710B586B0C4
:10103000044614216846FFF703F9134920688842E3
:101040001FD112480021026842F0020202600068CB
:1010500000F0020005900D481038026842F00102CD
:1010600002600068012200F001000590C02000909D
:101070000220CDE90102CDE9031069460448FFF7DB
:1010800047F906B010BD000000040040403802409F
:101090000000024010B50446006889B104294FF0F1
:1010A000010216D0002100F0FDFD0122042120687C
:1010B00000F0F8FD2068C16841F00201C1600BE05A
:1010C0000122002100F0EEFD2068C16841F002011C
:1010D00006E0042100F0E6FD2068C16841F004014B
:1010E000C1602068016841F001010160002010BD6D
:1010F000704770B50446006801694FF00005C943A8
:10110000890715D4C168C943890711D4E91E016153
:1011100001202077206880698007204602D0FFF7F1
:10112000E7FF04E000F098F8204600F096F82577F5
:1011300020680169C943490717D4C168C9434907F1
:1011400013D46FF0040101610220207720688069C8
:1011500010F4407F204602D0FFF7CAFF04E000F001
:101160007BF8204600F079F8257720680169C943AB
:10117000090716D4C168C943090712D46FF00801E2
:101180000161042020772068C0698007204602D0D2
:10119000FFF7AEFF04E000F05FF8204600F05DF8D6
:1011A000257720680169C943C90617D4C168C943B6
:1011B000C90613D46FF01001016108202077206860
:1011C000C06910F4407F204602D0FFF791FF04E091
:1011D00000F042F8204600F040F8257720680169C9
:1011E000C943C90708D1C168C943C90704D1891EC9
:1011F0000161204600F032F820680169C943090600
:1012000009D4C168C943090605D46FF080010161A2
:101210002046FFF7C9FD20680169C943490609D482
:10122000C168C943490605D46FF0400101612046F9
:1012300000F028F820680169C94389060BD4C16809
:10124000C943890607D46FF0200101612046BDE83B
:101250007040FFF7AABD70BD7047704704498842CF
:1012600003D101210348FFF71DB903A000F0F2BD2F
:10127000F804002000000240BDF8C8EBD6D0B6CF7D
:101280000D0A0000704770B5040004D094F83900CE
:10129000002510B106E0012070BD84F838502046CA
:1012A00000F022F8242084F839002068C16821F475
:1012B0000051C160204600F037FD2068016921F42B
:1012C000904101612068416921F02A014161206853
:1012D000C16841F40051C160E563202084F8390001
:1012E00084F83A00002070BD10B586B00446142181
:1012F0006846FEF7A5FF14492068884221D11348AB
:101300000021026842F010020260006800F0100044
:1013100005900E481438026842F00102026000682D
:1013200000F0010005904FF4C06000900220CDE96C
:101330000101032003900720049069460448FEF74A
:10134000E7FF06B010BD0000001001404438024025
:1013500000000240FEE72DE9F04107461C46154615
:101360000E462A2000F042FA2837B8B200F05AFAA6
:101370002835A8B200F056FA2B2000F037FA35369F
:10138000B0B200F04FFA3534A0B200F04BFABDE82D
:10139000F0412C2000F02ABA08B5002100908723E4
:1013A000F022084600F002F808BD00002DE9F047E1
:1013B000141A5F1A641C7F1C7C43002564004FF4E0
:1013C0009068089E444502D9A4F590654446FFF70D
:1013D000C2FF370ADFF84C90DFF84CA0F6B20020CD
:1013E000494606E001F8107001EB4002401C5670BF
:1013F00080B2B0EB540FF5D3012210215046FFF715
:1014000058F8A1B2074800F0F9F8002D07D045457B
:1014100002D9A5F59065E2E72C460025DFE7BDE897
:10142000F0870000200000200004024010B56E4C40
:10143000002280212046FFF73CF87820FEF756FF77
:10144000002240212046FFF734F87820FEF74EFFB7
:10145000012240212046FFF72CF87820FEF746FFB6
:10146000112000F0C3F97820FEF740FF362000F08D
:10147000BDF9702000F0C8F93A2000F0B7F9052056
:1014800000F0C2F9B22000F0B1F90C2000F0BCF974
:101490000C2000F0B9F9002000F0B6F9332000F07C
:1014A000B3F9332000F0B0F9B72000F09FF93520F0
:1014B00000F0AAF9BB2000F099F9192000F0A4F976
:1014C000C02000F093F92C2000F09EF9C22000F01B
:1014D0008DF9012000F098F9C32000F087F912205F
:1014E00000F092F9C42000F081F9202000F08CF97E
:1014F000C62000F07BF90F2000F086F9D02000F024
:1015000075F9A42000F080F9A12000F07DF9E02019
:1015100000F06CF9D02000F077F9042000F074F9A5
:101520000D2000F071F9112000F06EF9132000F089
:101530006BF92B2000F068F93F2000F065F954208A
:1015400000F062F94C2000F05FF9182000F05CF91F
:101550000D2000F059F90B2000F056F91F2000F083
:1015600053F9232000F050F9E12000F03FF9D0209A
:1015700000F04AF9042000F047F90C2000F044F98B
:10158000112000F041F9132000F03EF92C2000F06A
:101590003BF93F2000F038F9442000F035F95120A4
:1015A00000F032F92F2000F02FF91F2000F02CF965
:1015B0001F2000F029F9202000F026F9232000F058
:1015C00023F9212000F012F9292000F00FF9002161
:1015D0008623EF220846FFF7BEFE20460122BDE823
:1015E00010408021FEF765BF000402400246012042
:1015F00000E05043491EC9B2FBD2704700F02EBA3A
:101600002DE9F05F203AD7B21C46F022A2EB54023B
:1016100082425BD3C4F187028A4257DB0A19521E09
:1016200093B200EB5402521E92B2FFF794FE3F4E6B
:10163000102C1AD0202C18D00C2C49D0182C45D1A5
:101640003B4907EB47004FF0300A002401EB00193B
:101650004FEA060819F80460E00756D00427002571
:10166000300654D5B8F8000053E0600700D00120E0
:1016700000EBD400610810FB01F000F0FF082D48DA
:10168000002500EB071A00F5BE5000EBC71BB14662
:101690001AE0102C09D0202C18D11BF80560002767
:1016A000300605D5B9F8000004E01AF80560F6E741
:1016B000B9F8020000F0B6F870067F1C060EFFB203
:1016C000082FEDD36D1CEDB24545E2D3BDE8F09F88
:1016D000194807EB47014FF00C09002400EB810883
:1016E000002518F80470380601D5308800E07088AD
:1016F00000F098F878066D1C070EEDB2062DF2D3B7
:10170000641CE4B24C45EBD3E0E70827A7E7B8F840
:10171000020000F087F870066D1C060EEDB2BD42A7
:101720009ED3641CE4B2544594D3CFE7000000205C
:101730003C2B00084C250008D82000082DE9F05F5C
:101740000026DDF828901D4692468B46804634469A
:101750004FEA590723E0281B401EC1B20A20FFF7B9
:1017600045FFBAFBF0F00A21B0FBF1F201FB1200D9
:1017700026B9691E8C4201DA38B101263030C2B276
:1017800007FB048080B24B4604E007FB048080B274
:101790004B4620225946FFF733FF641CE4B2AC42AB
:1017A000D9D3BDE8F09F000070B514460219049E1D
:1017B0001D46F02A17D84B19872B14D85B1E521ED2
:1017C0009BB292B2FFF7C7FD012210210648FEF737
:1017D00070FE6C434FF6FF7000EA44013046BDE8EE
:1017E0007040FFF70BBF70BD0004024001B500223E
:1017F00010210448FEF75DFE01216846FFF7FEFE5A
:1018000008BD00000004024001B501221021044877
:10181000FEF74FFE01216846FFF7F0FE08BD00000D
:101820000004024008B500210091010A8DF8001063
:101830008DF80100012210210348FEF73AFE022133
:101840006846FFF7DBFE08BD00040240F0B587B034
:1018500014216846FEF7F4FC24480025016841F095
:1018600004010160016801F004010591016841F083
:1018700080010160016801F080010591016841F07B
:1018800001010160016801F001010591016841F069
:10189000020101600068164E00F00200059001226E
:1018A00007213046FEF705FE124F00221021384670
:1018B000FEF7FFFD0122C0213846FEF7FAFD0124A4
:1018C0000720CDE9000469463046CDE90245FEF720
:1018D0001FFDD020CDE900040320CDE90240694678
:1018E0003846FEF715FD07B0F0BD00003038024065
:1018F0000000024000040240114810B50F49016089
:101900004FF4827141604FF4004181600021022256
:10191000C0E90312012242615202C0E906210162BC
:10192000416281620A21C162FFF708F9002803D0F1
:10193000BDE81040FEF7D8BC10BD0000003C0040E0
:10194000A004002010B586B000241848009401942B
:1019500002940394049414490594016042F20F71B7
:10196000C0E901144910C0E903148021C0E9054110
:10197000FFF75AFA08B1FEF7B7FC4FF48050009019
:1019800069460A48FFF79BFA08B1FEF7ADFC0494DC
:1019900004A906480594FFF709FA002801D0FEF7CC
:1019A000A3FC06B010BD000000000140F8040020B8
:1019B00010B58CB024216846FEF742FC002416487E
:1019C000099414490A94C0E900144F21C0E9024166
:1019D000046184610320CDE900040120CDE9020403
:1019E0000F210491CDE90540CDE9074169460A4838
:1019F000FFF7D0FA08B1FEF777FC099409A9064869
:101A00000A94FFF7D3F9002801D0FEF76DFC0CB063
:101A100010BD000000040040380500200C4810B53F
:101A20000A4901604FF4E1314160002181600C22DC
:101A3000C160C0E904128161C161FFF724FC002884
:101A400003D0BDE81040FEF74FBC10BD00100140B0
:101A500078050020FEE77047704770470A46014648
:101A60004FF47A730148FFF7DDB80000A0040020AE
:101A700038B504461248134B0068B0FBF3F04FF43E
:101A80007A73584300906068B0F5827F0DD10B46A1
:101A9000009200228021204600F016F870B1606D9F
:101AA00040F020006065032038BD009830B1401E32
:101AB000009020688068C0430006F6D5002038BD3D
:101AC0001C00002000366E012DE9F0411D4617462E
:101AD0000E460446DDF8188008E0681C06D0FEF7C4
:101AE000EDFCA0EB0800A8420BD255B1206880683D
:101AF00036EA000030D00020B842EED10020BDE828
:101B0000F0812068416821F0E00141606068B0F533
:101B1000827F0BD1A068B0F5004F02D0B0F5806F86
:101B200004D12068016821F040010160A06AB0F58D
:101B3000005F09D12068016821F40051016020682C
:101B4000016841F400510160012084F85100002037
:101B500084F850000320D2E70120CDE77047FEF75C
:101B6000B3BC000030B593B030216846FEF768FB87
:101B700014210CA8FEF764FB18480025016841F009
:101B800080510160006800F0805011901448016895
:101B900041F4404101600068022400F4404011908B
:101BA00001200090000401908001CDE9064008AAC0
:101BB0000420642182E813000B906846FEF710FEB3
:101BC0000CA90F2081E83100E002CDE90F050321C7
:101BD0000CA8FEF71BFD13B030BD000040380240DA
:101BE000007000400548016841F47001016003493C
:101BF0004FF00060803908607047000088ED00E019
:101C00000148FFF776BA0000F8040020F0B502683A
:101C10001D4B1E4C9F031E4D1E4E984207D0B842CE
:101C200005D0A04203D0A84201D0B04204D122F096
:101C3000700C4A6842EA0C02984210D0B8420ED0AA
:101C4000A0420CD0A8420AD0B04208D0124CA04208
:101C500005D0124CA04202D0114CA04203D122F474
:101C60004074CA6822434C6922F080022243026019
:101C70008A68C2620A688262984201D10969016376
:101C800001214161F0BD000000000140000400405E
:101C900000080040000C00400040014000440140AA
:101CA0000048014010B501F01F030121046A99406A
:101CB0008C430462016A9A401143016210BD10B561
:101CC000846842EA032224F47F440A432243826068
:101CD00010BD826822F070020A4342F00701816061
:101CE000704710B5036A046A24F001040462846931
:101CF00024F0F00444EA021423F00A020A43846147
:101D0000026210BD10B5036A23F0100303628369F9
:101D1000046A23F4704343EA023224F0A00343EA46
:101D200001118261016210BD2DE9F0410446006895
:101D30000169E26821F44051114301612169A06801
:101D4000E26908436169114308432168CA6849F29E
:101D50000C639A430243CA6020684169A26921F476
:101D6000407111434161E069192764253226B0F5BD
:101D7000004F354A354920684FF0000806D08842A8
:101D800001D0904236D1FEF7EBFC35E0884201D01D
:101D9000904202D1FEF7E4FC01E0FEF7D1FC61685D
:101DA0004A18A0FB070148EB0803FEF711FA0146A9
:101DB000B0FBF5F00201B1FBF5F06FF018035843EA
:101DC00001EB800006EBC000B0FBF5F000F0F8007E
:101DD00002EB4002B1FBF5F0584301EB800006EB4B
:101DE000C000B0FBF5F000F00700216810448860E7
:101DF000BDE8F081FEF7A4FC61688B0F8A00A0FBB0
:101E00000701FEF7E5F90146B0FBF5F06FF01802A7
:101E1000504301EB800006EB0010B0FBF5F000F042
:101E2000F002B1FBF5F002EB0012B1FBF5F06FF040
:101E30001803584301EB800006EB0010B0FBF5F0EF
:101E400000F00F00D1E70000001401400010014035
:101E5000FEE700000FB4054B10B503A9044A029831
:101E600000F028F810BC5DF814FB00000920000801
:101E70000C0000200907090E002804DB00F1E02017
:101E800080F80014704700F00F0000F1E02080F8A7
:101E9000141D704702E008C8121F08C1002AFAD1B9
:101EA00070477047002001E001C1121F002AFBD1DA
:101EB000704700002DE9FF4F89B09B46044600257E
:101EC00006E025280BD05A460B999047641C6D1CE0
:101ED00020780028F5D10DB02846BDE8F08F002706
:101EE000B8460122474900E0074314F8013F203B70
:101EF00002FA03F00842F7D120782E2819D114F8FD
:101F0000010F47F004072A280ED06FF02F02207827
:101F1000A0F1300109290CD808EB880102EB41013E
:101F200000EB0108641CF2E70A98641C50F8048B6B
:101F30000A9020780028CED0642808D0692806D0DE
:101F400075281ED05A460B9990476D1C58E00A9987
:101F50004FF00A0901C90A91002802DA40422D21F6
:101F600002E0390504D52B218DF82010012103E072
:101F7000F90704D02021F7E78A4608AE0DE00021DA
:101F8000FAE70A994FF00A0901C90A91F7E74946A9
:101F9000FEF761F9303106F8011D0028F7D1ADEBED
:101FA000060000F12009780701D44FF00108C84568
:101FB00002DDA8EB090000E000208046002706E0D3
:101FC00008A85A46C05D0B9990476D1C7F1C574569
:101FD000F6DB04E030205A460B9990476D1CB8F1AF
:101FE0000001A8F10108F5DC05E016F8010B5A46DE
:101FF0000B9990476D1CB9F10001A9F10109F4DCBE
:10200000641C65E70928010003490A685206FCD5EB
:10201000C2B24A60704700000010014008B5FEF7E8
:102020005BFAFFF79FFDFFF711FCFFF765FCFFF779
:10203000F5FCFFF787FCFFF7BBFC1D48FEF72EFF02
:102040003C211C48FFF726F8FFF7F0F94FF47840E1
:10205000FFF7A2F918494FF6FF7087230880174948
:102060000020F02208801648002100900846FFF763
:102070009BFB01270F4D134C20262868416A406ABC
:10208000890702D007EB900000E080086060D4E987
:1020900000018842F1D00CA0FFF7DCFE009602237D
:1020A000282114206268FFF749FB60682060E4E79C
:1020B000F804002038050020020000200000002065
:1020C0008C6C000804000020B5B1C7B0BCC6CAFDC6
:1020D0003A25640D0A000000000000000000000026
:1020E0000000000000002020202020000020000030
:1020F00028285000000000000000000000005050A0
:10210000F85050F850500000002070A8A06030280F
:10211000A8702000000048A8B0A8743454480000FB
:1021200000002050506CA8A8946800004040800037
:1021300000000000000000000810102020202020D7
:102140001010080040202010101010102020400017
:1021500000000020A87070A82000000000000010FF
:10216000107C1010000000000000000000000000C3
:10217000404080000000000000FC00000000000063
:1021800000000000000000000040000000040808FB
:1021900010102020404080000000708888888888C7
:1021A00088700000000020602020202020700000A7
:1021B000000070888810204080F8000000007088BF
:1021C000083008088870000000001030305090F887
:1021D000103800000000F88080F088088870000047
:1021E0000000304880B0C88888700000000078087F
:1021F000101020202020000000007088887088883F
:10220000887000000000708888986808906000005E
:10221000000000002000000000200000000000007E
:102220000020000000202000000008102040402076
:102230001008000000000000FC00FC00000000008E
:1022400000004020100808102040000000007088A6
:1022500088102020002000000000384494B4B4B856
:1022600044380000000020203050507848CC000056
:102270000000F0484870484848F0000000007888A6
:1022800080808080887000000000F04848484848FE
:1022900048F000000000F8485070504048F8000036
:1022A0000000F8485070504040E0000000003848FE
:1022B00080809C88483000000000CC48487848481E
:1022C00048CC00000000F8202020202020F800004A
:1022D00000007C1010101010101090E00000EC486E
:1022E0005060504848EC00000000E0404040404052
:1022F00044FC00000000DCD8D8D8A8A8A8AC000096
:102300000000DC486868585848E800000000708801
:1023100088888888887000000000F0484870404035
:1023200040E0000000007088888888E898701800F5
:102330000000F0484870504848EC000000007888E1
:102340008060100888F000000000F8A820202020FD
:10235000207000000000CC48484848484830000041
:102360000000CC4848505030202000000000A8A8B1
:10237000A8A87050505000000000D85050202050A5
:1023800050D800000000D85050502020207000008D
:102390000000F8901020204048F80000382020204D
:1023A0002020202020203800004040202020101035
:1023B000100808007010101010101010101070008D
:1023C000205000000000000000000000000000009D
:1023D00000000000000000FC4020000000000000A1
:1023E000000000000000000000304838483C0000B9
:1023F00000C04040407048484870000000000000A5
:10240000003848404830000000180808083848489C
:10241000483C0000000000000030487840380000D0
:1024200000182420207820202078000000000000E0
:10243000003C48304038443800C040404070484874
:1024400048EC0000002020000060202020700000E8
:102450000010100000301010101010E000C04040BC
:102460004058506050C8000000E02020202020206C
:1024700020F800000000000000F0A8A8A8A80000B4
:102480000000000000F0484848EC00000000000098
:1024900000304848483000000000000000F0484884
:1024A000487040E000000000003848484838081CE8
:1024B0000000000000D8604040E000000000000084
:1024C00000784030087800000000002020782020AC
:1024D000203800000000000000D84848483C0000B8
:1024E0000000000000D85050202000000000000034
:1024F00000A8A870505000000000000000D8502034
:1025000050D800000000000000CC4848301020C027
:102510000000000000781020207800001810101033
:102520001030101010101800101010101010101093
:10253000101010106020202020102020202060008B
:102540006890000000000000000000000000000093
:10255000000000000000000000000000000000106B
:102560001010101010100000101000000012242491
:102570004800000000000000000000000000001201
:1025800012127E2424247E24242400000000083C0F
:102590004A4A48380C0A0A4A4A3C080800000044E3
:1025A000A4A8A8B0541A2A2A4A4400000000003007
:1025B000484848506EA49498897600000060202016
:1025C00040000000000000000000000000020408BD
:1025D000081010101010100808040200004020100D
:1025E000100808080808081010204000000000002B
:1025F0001010D63838D6101000000000000000007F
:10260000000808087F08080800000000000000001B
:1026100000000000000000006020204000000000DA
:10262000000000007E00000000000000000000002C
:1026300000000000000000006060000000000204D4
:10264000040408081010102020404000000000186A
:102650002442424242424242241800000000000844
:102660003808080808080808083E00000000003C78
:102670004242420204081020427E00000000003C5A
:102680004242020418040242423C000000000004DE
:102690000C0C142424447F04041F00000000007E5E
:1026A00040404078440202424438000000000018D4
:1026B0002440405C62424242221C00000000007E36
:1026C0004204040808101010101000000000003C24
:1026D0004242422418244242423C0000000000389A
:1026E00044424242463A0202241800000000000020
:1026F000000018180000000018180000000000007A
:102700000000001000000000001010100000000287
:1027100004081020402010080402000000000000FF
:1027200000007E00007E000000000000000000406D
:102730002010080402040810204000000000003CA3
:10274000424262040808080018180000000000381F
:10275000445AAAAAAAAAAA5C423C0000000000109F
:1027600010182828243C444242E70000000000F8EA
:10277000444444784442424244F800000000003E91
:10278000424280808080804244380000000000F88F
:10279000444242424242424244F80000000000FCEF
:1027A000424848784848404242FC0000000000FC93
:1027B000424848784848404040E000000000003C63
:1027C00044448080808E844444380000000000E748
:1027D000424242427E42424242E700000000007C08
:1027E0001010101010101010107C00000000003E9F
:1027F0000808080808080808080888F0000000EE23
:10280000444850705048484444EE0000000000E046
:10281000404040404040404042FE0000000000EE8A
:102820006C6C6C6C6C54545454D60000000000C79F
:10283000626252524A4A4A4646E2000000000038AC
:10284000448282828282828244380000000000FC3E
:10285000424242427C40404040E0000000000038DC
:1028600044828282828282B24C380600000000FCE0
:102870004242427C4848444442E300000000003E9B
:102880004242402018040242427C0000000000FE48
:10289000921010101010101010380000000000E707
:1028A0004242424242424242423C0000000000E7B3
:1028B000424244242428281810100000000000D6AA
:1028C00054545454546C282828280000000000E771
:1028D000422424181818242442E70000000000EEC7
:1028E0004444282810101010103800000000007E0A
:1028F000840408081020204242FC0000001E101032
:10290000101010101010101010101E0000004020A9
:10291000202010101008080404040202007808089F
:1029200008080808080808080808780000182400A3
:102930000000000000000000000000000000000097
:102940000000000000000000000000FF0060100018
:102950000000000000000000000000000000000077
:1029600000000038440C34444C36000000000000E5
:10297000C0404058644242426458000000000000D9
:102980000000001C22404040221C0000000000000B
:102990000602023E42424242463B00000000000066
:1029A0000000003C42427E40423C0000000000002B
:1029B0000C12107C10101010107C000000000000A1
:1029C0000000003E444438403C42423C00000000CD
:1029D000C040405C6242424242E7000000000030DA
:1029E0003000007010101010107C00000000000C6F
:1029F0000C00001C040404040404447800000000DB
:102A0000C040404E4850704844EE000000000010A6
:102A10007010101010101010107C0000000000004A
:102A2000000000FE4949494949ED0000000000004E
:102A3000000000DC6242424242E700000000000069
:102A40000000003C42424242423C000000000000C4
:102A5000000000D864424242645840E00000000098
:102A60000000001A26424242261A02070000000017
:102A7000000000EE3220202020F8000000000000BE
:102A80000000003E42403C02427C0000000000008A
:102A90000010107C10101010120C0000000000003C
:102AA000000000C642424242463B000000000000D7
:102AB000000000EE44442828101000000000000030
:102AC000000000DB894A5A54242400000000000062
:102AD0000000007624181818246E00000000000082
:102AE000000000E7422424181810106000000000C5
:102AF0000000007E44081010227E00000003040441
:102B00000404040408040404040403000808080876
:102B100008080808080808080808080800C0202055
:102B200020202020102020202020C000205A040037
:102B30000000000000000000000000000000000095
:102B40000000000000000000000000000000000085
:102B50000000000000000000000000000000000075
:102B60000000000000000000000000000000000065
:102B70000000000006000600060006000600060031
:102B80000600020004000400040000000000000031
:102B90000600060006000000000000000000000023
:102BA000066006600CC019801100220000000000C1
:102BB0000000000000000000000000000000000015
:102BC0000000000000000000000000000000000005
:102BD0000000000008400840084008407FE07FE017
:102BE000104010801080108010807FE07FE02080F7
:102BF00020802080208000000000000000000000F5
:102C00000000020002000F801AC032C033C0320040
:102C10001A000E0007000380038002C032C03AC0D1
:102C200032C012800F00020002000000000000000D
:102C300000000000708050808900890089008A00AF
:102C40008A005C0075C005400A200A20122012206C
:102C50001220214021C00000000000000000000000
:102C6000000000001C00360036003600360036003A
:102C7000340019E038805880CC80CC80C680C700F2
:102C8000C31063903CE00000000000000000000062
:102C9000300038000800080010002000000000008C
:102CA0000000000000000000000000000000000024
:102CB0000000000000000000000000000000000014
:102CC000002000400080010001000200020004001A
:102CD00004000400040004000400040002000200D8
:102CE0000100010000800040002000000000000002
:102CF000400020001000080008000400040002004A
:102D000002000200020002000200020004000400AF
:102D10000800080010002000400000000000000033
:102D2000000000000000000002000300020062300A
:102D300072F00B800F807AF0623002000200020015
:102D40000000000000000000000000000000000083
:102D5000000000000000000000000200020002006D
:102D6000020002007FF002000200020002000200E6
:102D70000000000000000000000000000000000053
:102D80000000000000000000000000000000000043
:102D90000000000000000000000000000000000033
:102DA000300038000800080010002000000000007B
:102DB0000000000000000000000000000000000013
:102DC000000000007FE000000000000000000000A4
:102DD00000000000000000000000000000000000F3
:102DE00000000000000000000000000000000000E3
:102DF00000000000000000000000000000000000D3
:102E0000380038003800000000000000000000001A
:102E100000200060004000C0008000800100010030
:102E20000200020006000400040008000800100070
:102E30001000300020006000400000000000000092
:102E40000000000000000F00198030C030C060603A
:102E5000606060606060606060606060606030C042
:102E600030C019800F0000000000000000000000CA
:102E700000000000000002003E0006000600060000
:102E80000600060006000600060006000600060012
:102E9000060006003FC00000000000000000000027
:102EA0000000000000001F00218040C060C060C022
:102EB00000C00080018003000600040008001040EC
:102EC000204060407FC000000000000000000000C3
:102ED0000000000000001E0063006180618001802E
:102EE000018003000E000180008000C000C060C0AF
:102EF00060C061801F0000000000000000000000B2
:102F00000000000000000180018003800580058032
:102F1000098011801180218041807FF00180018033
:102F20000180018007E000000000000000000000B8
:102F30000000000000003FC0200020002000200012
:102F400020002F00318020C000C000C060C060C0E1
:102F5000418021801F0000000000000000000000F0
:102F6000000000000000078018C030C030002000C2
:102F70006000678068C07060606060606060206052
:102F8000304018C00F0000000000000000000000EA
:102F90000000000000001FE0306020402080008022
:102FA000008001000100020002000200060006008D
:102FB00006000600060000000000000000000000FF
:102FC0000000000000001F8030C060606060606032
:102FD000304038C00F00138030C0606060606060B7
:102FE000606030C00F8000000000000000000000A2
:102FF0000000000000000F00308030C060406060C2
:103000006060606060E031601E60006000C000C011
:10301000308031801E000000000000000000000031
:1030200000000000000000000000000000000000A0
:10303000070007000700000000000000000000007B
:10304000070007000700000000000000000000006B
:103050000000000000000000000000000000000070
:103060000600060000000000000000000000000054
:10307000000006000600020004000400000000003A
:103080000000000000200040008001000200040059
:1030900008001000200010000800040002000100D9
:1030A0000080004000200000000000000000000040
:1030B0000000000000000000000000000000000010
:1030C0007FE00000000000007FE000000000000042
:1030D00000000000000000000000000000000000F0
:1030E00000000000200010000800040002000100A1
:1030F0000080004000200040008001000200040029
:103100000800100020000000000000000000000087
:1031100000000000000007C0186020302030303070
:10312000303000E0018002000200020000000000D8
:10313000070007000700000000000000000000007A
:1031400000000000070018C0304033A026A066A091
:1031500065A06D206D206D206D206D402780302092
:10316000304018C00F000000000000000000000008
:10317000000000000000060006000A000B00090025
:1031800009001100118010801F8020C020C0204045
:1031900040404060F0F0000000000000000000002F
:1031A0000000000000007F0031C030C030C030C0DF
:1031B00030C031803F0030C030403060306030601F
:1031C000306030C07F800000000000000000000080
:1031D00000000000000007C018C030603020202030
:1031E00060006000600060006000600060203020CF
:1031F000304018C00F000000000000000000000078
:10320000000000000000FE00318030C030C030609F
:10321000306030603060306030603060306030C0CE
:1032200030C03180FE0000000000000000000000FF
:10323000000000000000FFC060C06020602060004F
:10324000610061007F00610061006100600060203A
:1032500060206040FFC0000000000000000000008F
:10326000000000000000FFC060C06020602060001F
:10327000610061007F00610061006100600060002A
:1032800060006000F8000000000000000000000086
:103290000000000000000F00188030403040204047
:1032A000600060006000600063F060C060C030C01B
:1032B00030C018C00F000000000000000000000037
:1032C000000000000000F0F060606060606060601E
:1032D000606060607FE0606060606060606060604F
:1032E00060606060F0F0000000000000000000007E
:1032F0000000000000003FC00600060006000600B7
:10330000060006000600060006000600060006008D
:10331000060006003FC000000000000000000000A2
:103320000000000000001FE0030003000300030092
:103330000300030003000300030003000300030075
:10334000030003000300630066003C00000000006F
:10335000000000000000F3C06180630062006400B0
:1033600068006C0074007600620063006100618098
:10337000608060C0F1E0000000000000000000007C
:10338000000000000000F8006000600060006000C5
:10339000600060006000600060006000600060200D
:1033A00060206040FFC0000000000000000000003E
:1033B000000000000000E0E061C061C071C071C0A9
:1033C00072C072C052C05AC05AC05CC04CC04CC01F
:1033D0004CC048C0E1E00000000000000000000018
:1033E00000000000000071F03040384038402C40B0
:1033F0002C402640264022402340214021C021C0AD
:1034000020C020C0F84000000000000000000000C4
:103410000000000000000F00198030C030406060E4
:1034200060606060606060606060606060603040EC
:1034300030C019800F0000000000000000000000F4
:10344000000000000000FF0060C06060606060601D
:103450006060606061C07F006000600060006000CC
:1034600060006000F80000000000000000000000A4
:103470000000000000000F00198030C03040606084
:103480006060606060606060606060606E6032407C
:1034900033C019800F0001E000C0000000000000F0
:1034A000000000000000FF8060C06060606060603D
:1034B000606060C07F00620063006100618060C086
:1034C00060C06060F07000000000000000000000BC
:1034D0000000000000001F4030C0604060406000FD
:1034E00070003C001F0007C001C000E04060406069
:1034F000606030C00F80000000000000000000008D
:103500000000000000007FE04620861086100600C4
:10351000060006000600060006000600060006007B
:10352000060006001F8000000000000000000000F0
:1035300000000000000078E0304030403040304073
:1035400030403040304030403040304030403040FB
:10355000304018800F000000000000000000000054
:10356000000000000000F0E06040208020803080FB
:10357000308011001100190019000A000A000E0025
:103580000C00040004000000000000000000000027
:10359000000000000000EF70462042206220622000
:1035A000264026402740274039403980198019801D
:1035B0001180110011000000000000000000000058
:1035C00000000000000079E03080108018800900C1
:1035D0000D0006000400060006000B000900118023
:1035E000108020C071E0000000000000000000001A
:1035F000000000000000F0F060202040304010800B
:1036000018801D000D000E000600060006000600D2
:10361000060006001F8000000000000000000000FF
:103620000000000000003FE0304060C040800180AA
:10363000010002000200040004000800180010202D
:10364000302020407FC0000000000000000000008B
:1036500007C0040004000400040004000400040087
:10366000040004000400040004000400040004003A
:10367000040004000400040007C000000000000073
:1036800000000000200020001000100008000800CA
:103690000800040004000200020003000100010011
:1036A000008000800040004000400020000000003A
:1036B0003E000200020002000200020002000200BE
:1036C00002000200020002000200020002000200EA
:1036D00002000200020002003E000000000006009E
:1036E0000900108000000000000000000000000041
:1036F00000000000000000000000000000000000CA
:1037000000000000000000000000000000000000B9
:1037100000000000000000000000000000000000A9
:103720000000000000000000000000000000000099
:1037300000000000000000000000FFF0000000009A
:10374000180006000000000000000000000000005B
:103750000000000000000000000000000000000069
:103760000000000000000000000000000000000059
:103770000000000000000000000000000000000049
:103780000F8030C030C000C007C038C070C060C0FB
:1037900060C071D03E70000000000000000000001A
:1037A00000000000100070003000300030003000D9
:1037B00033803CC0386030603060306030603060F2
:1037C000304038C0278000000000000000000000EA
:1037D00000000000000000000000000000000000E9
:1037E0000F003180318061806000600060006040C7
:1037F000304030800F00000000000000000000009A
:1038000000000000004003C000C000C000C000C0B5
:103810001EC031C030C060C060C060C060C060C049
:1038200020C031E01E800000000000000000000009
:103830000000000000000000000000000000000088
:10384000078018C01040306030603FE0300030002A
:103850001820184007800000000000000000000051
:1038600000000000000003C006600C600C000C00AB
:103870007F800C000C000C000C000C000C000C00F5
:103880000C000C003F800000000000000000000061
:103890000000000000000000000000000000000028
:1038A0000FE01B6031803180318019801F003000B3
:1038B0003F0033C060C060C071C01F000000000046
:1038C00000000000100070003000300030003000B8
:1038D000378038C030C030C030C030C030C030C099
:1038E00030C030C079E0000000000000000000009F
:1038F00000000000000006000600000000000200BA
:103900003E0006000600060006000600060006004F
:10391000060006003FC0000000000000000000009C
:103920000000000000000380038000000000008011
:103930000F80018001800180018001800180018071
:10394000018001800180018033003E000000000002
:103950000000000010007000300030003000300027
:1039600031C031003100320036003A003100318080
:10397000308030C079E0000000000000000000004E
:103980000000000002003E000600060006000600DF
:1039900006000600060006000600060006000600F7
:1039A000060006003FC0000000000000000000000C
:1039B0000000000000000000000000000000000007
:1039C000ECE07760666066606660666066606660B0
:1039D00066606660FFF0000000000000000000006C
:1039E00000000000000000000000000000000000D7
:1039F000778038C030C030C030C030C030C030C038
:103A000030C030C079E0000000000000000000007D
:103A100000000000000000000000000000000000A6
:103A20000F00198030C0606060606060606060603E
:103A300030C030C00F000000000000000000000097
:103A40000000000000000000000000000000000076
:103A5000778038C030603060306030603060306017
:103A600030C038C03780300030007C0000000000DB
:103A70000000000000000000000000000000000046
:103A80001E4031C030C060C060C060C060C060C057
:103A900020C031C01EC000C000C003E00000000014
:103AA0000000000000000000000000000000000016
:103AB000F9C01A601C6018001800180018001800DF
:103AC00018001800FF0000000000000000000000C7
:103AD00000000000000000000000000000000000E6
:103AE0000FC038C0304030401C000F0003C020C061
:103AF00020C031C03F800000000000000000000036
:103B00000000000000000000040004000C000C0095
:103B10007F800C000C000C000C000C000C000C0052
:103B20000C400C4007800000000000000000000076
:103B30000000000000000000000000000000104035
:103B400071C030C030C030C030C030C030C030C0B4
:103B500030C039E01E8000000000000000000000BE
:103B60000000000000000000000000000000000055
:103B700078E0304010801080188009000D000D00A2
:103B80000600060004000000000000000000000025
:103B90000000000000000000000000000000000025
:103BA000EF70462062202640264037403980198039
:103BB00019801980100000000000000000000000C3
:103BC00000000000000000000000000000000000F5
:103BD0003DE0188008800D0006000600070009007F
:103BE000108010C079E0000000000000000000001C
:103BF00000000000000000000000000000000000C5
:103C000079E0108010801080090009000D00060086
:103C10000600060004000400240038000000000034
:103C20000000000000000000000000000000000094
:103C30003F80218023002200060004000C00184071
:103C4000104030C03F800000000000000000000075
:103C500000C001000100010001000100010001009D
:103C60000100020004000200010001000100010047
:103C7000010001000100010000C00000020002007C
:103C80000200020002000200020002000200020024
:103C90000200020002000200020002000200020014
:103CA0000200020002000200020002000000000008
:103CB000300008000800080008000800080008009C
:103CC00008000400020004000800080008000800C2
:103CD000080008000800080030000000000038005C
:103CE0004420432001C0000000000000000000004C
:103CF00000000000000000000000000000000000C4
:103D000000000000000000000000000000000000B3
:103D100000000000000000000000000000000000A3
:103D20000000000000000000000000000000000093
:103D30000000000000000000000000000000000083
:103D40000000000000000000000000000000000073
:103D50000000000000000000000000000000000063
:103D60000000000000000000000000000000000053
:103D70000000000000000000000000000000000043
:103D80000000000000000000000000000000000033
:103D9000000000000000000003C003C003C003C017
:103DA00003C003C001C00180018001800180018047
:103DB000018001800180000000000000018003C03C
:103DC00003C00180000000000000000000000000AF
:103DD00000000000000000000000000000000000E3
:103DE00000000000000000000000000000000000D3
:103DF00000000000000000000000000000000000C3
:103E000000000000000000000000000000000000B2
:103E10000318073807380E700C6018C03180210075
:103E20000000000000000000000000000000000092
:103E30000000000000000000000000000000000082
:103E40000000000000000000000000000000000072
:103E50000000000000000000000000000000000062
:103E60000000000000000000000000000000000052
:103E70000000000000000000000000000000000042
:103E80000000000000000000000000000000000032
:103E900000000000000000000408040804080408F2
:103EA00004087FFE7FFE7FFE08100810081008102F
:103EB000081008107FFE7FFE7FFE183010201020B3
:103EC0001020102000000000000000000000000092
:103ED00000000000000000000000000000000000E2
:103EE00000000000000000000000000000000000D2
:103EF00000000000000000000000000000000000C2
:103F000000000000000000000000000000000000B1
:103F1000000000000100010003C00D30091819184D
:103F2000193819381D000D000F00070003C001E00B
:103F300001F00130013801183918391831183130C1
:103F4000196007C00100010001000000000000002E
:103F50000000000000000000000000000000000061
:103F60000000000000000000000000000000000051
:103F70000000000000000000000000000000000041
:103F80000000000000000000000000000000000031
:103F9000000000000000000038106C104420C62013
:103FA000C640C640C640C680C68044806D38396C65
:103FB000024402C602C604C604C608C608C60844AF
:103FC000106C10380000000000000000000000002D
:103FD00000000000000000000000000000000000E1
:103FE00000000000000000000000000000000000D1
:103FF00000000000000000000000000000000000C1
:1040000000000000000000000000000000000000B0
:1040100000000000000000000F0019003180318016
:1040200031803180310033003A001C00387C3C1074
:104030004C10CE10C620C720C320C1C0C1C260E64C
:10404000317C1E380000000000000000000000006D
:104050000000000000000000000000000000000060
:104060000000000000000000000000000000000050
:104070000000000000000000000000000000000040
:104080000000000000000000000000000000000030
:1040900038003C003C000C000C00080030006000C0
:1040A0000000000000000000000000000000000010
:1040B0000000000000000000000000000000000000
:1040C00000000000000000000000000000000000F0
:1040D00000000000000000000000000000000000E0
:1040E00000000000000000000000000000000000D0
:1040F00000000000000000000000000000000000C0
:1041000000000000000000000000000000000000AF
:104110000002000400080018003000200060004089
:1041200000C000C001800180018001800180018009
:1041300001800180018000C000C0004000600020BC
:104140000030001800080004000200000000000019
:10415000000000000000000000000000000000005F
:10416000000000000000000000000000000000004F
:10417000000000000000000000000000000000003F
:10418000000000000000000000000000000000002F
:1041900040002000100018000C000400060002007F
:1041A0000300030001800180018001800180018003
:1041B0000180018001800300030003000600040069
:1041C0000C0018001000200040000000000000005B
:1041D00000000000000000000000000000000000DF
:1041E00000000000000000000000000000000000CF
:1041F00000000000000000000000000000000000BF
:1042000000000000000000000000000000000000AE
:1042100000000000000000000000000000C001C01D
:1042200001C030C6388E1C9C06B001C001C006B06B
:104230001C9C388E318601C001C001C00000000006
:10424000000000000000000000000000000000006E
:10425000000000000000000000000000000000005E
:10426000000000000000000000000000000000004E
:10427000000000000000000000000000000000003E
:10428000000000000000000000000000000000002E
:10429000000000000000000000000000000000809E
:1042A0000080008000800080008000803FFE008051
:1042B00000800080008000800080008000000000FE
:1042C00000000000000000000000000000000000EE
:1042D00000000000000000000000000000000000DE
:1042E00000000000000000000000000000000000CE
:1042F00000000000000000000000000000000000BE
:1043000000000000000000000000000000000000AD
:10431000000000000000000000000000000000009D
:10432000000000000000000000000000000000008D
:1043300000000000000000000000000038003C0009
:104340003C000C000C000800300060000000000081
:10435000000000000000000000000000000000005D
:10436000000000000000000000000000000000004D
:10437000000000000000000000000000000000003D
:10438000000000000000000000000000000000002D
:10439000000000000000000000000000000000001D
:1043A0000000000000000000000000007FFE000090
:1043B00000000000000000000000000000000000FD
:1043C00000000000000000000000000000000000ED
:1043D00000000000000000000000000000000000DD
:1043E00000000000000000000000000000000000CD
:1043F00000000000000000000000000000000000BD
:1044000000000000000000000000000000000000AC
:10441000000000000000000000000000000000009C
:10442000000000000000000000000000000000008C
:1044300000000000000000000000000018003C0028
:104440003C00180000000000000000000000000018
:10445000000000000000000000000000000000005C
:10446000000000000000000000000000000000004C
:10447000000000000000000000000000000000003C
:10448000000000000000000000000000000000002C
:104490000000000200060004000C000800180010D4
:1044A000003000200060004000C00080018001005A
:1044B00003000200060004000C00080018001000B1
:1044C00030002000600040000000000000000000FC
:1044D00000000000000000000000000000000000DC
:1044E00000000000000000000000000000000000CC
:1044F00000000000000000000000000000000000BC
:1045000000000000000000000000000000000000AB
:10451000000000000000000003C006200C30181846
:1045200018181808300C300C300C300C300C300CD3
:10453000300C300C300C300C1808181818180C30CF
:10454000062003C000000000000000000000000082
:10455000000000000000000000000000000000005B
:10456000000000000000000000000000000000004B
:10457000000000000000000000000000000000003B
:10458000000000000000000000000000000000002B
:104590000000000000000000008001801F800180FA
:1045A0000180018001800180018001800180018003
:1045B00001800180018001800180018001800180F3
:1045C00003C01FF800000000000000000000000011
:1045D00000000000000000000000000000000000DB
:1045E00000000000000000000000000000000000CB
:1045F00000000000000000000000000000000000BB
:1046000000000000000000000000000000000000AA
:10461000000000000000000007E008381018200C1F
:10462000200C300C300C000C00180018003000601A
:1046300000C0018003000200040408041004200CE0
:104640003FF83FF8000000000000000000000000FC
:10465000000000000000000000000000000000005A
:10466000000000000000000000000000000000004A
:10467000000000000000000000000000000000003A
:10468000000000000000000000000000000000002A
:10469000000000000000000007C018603030301833
:1046A00030183018001800180030006003C0007087
:1046B00000180008000C000C300C300C30083018CA
:1046C000183007C0000000000000000000000000DB
:1046D00000000000000000000000000000000000DA
:1046E00000000000000000000000000000000000CA
:1046F00000000000000000000000000000000000BA
:1047000000000000000000000000000000000000A9
:1047100000000000000000000060006000E000E019
:10472000016001600260046004600860086010605D
:104730003060206040607FFC0060006000600060CE
:10474000006003FC0000000000000000000000000A
:104750000000000000000000000000000000000059
:104760000000000000000000000000000000000049
:104770000000000000000000000000000000000039
:104780000000000000000000000000000000000029
:1047900000000000000000000FFC0FFC10001000E3
:1047A000100010001000100013E01430181810084A
:1047B000000C000C000C000C300C300C20182018E1
:1047C000183007C0000000000000000000000000DA
:1047D00000000000000000000000000000000000D9
:1047E00000000000000000000000000000000000C9
:1047F00000000000000000000000000000000000B9
:1048000000000000000000000000000000000000A8
:10481000000000000000000001E006180C18081855
:10482000180010001000300033E036303818380817
:10483000300C300C300C300C300C180C18080C18E4
:104840000E3003E000000000000000000000000047
:104850000000000000000000000000000000000058
:104860000000000000000000000000000000000048
:104870000000000000000000000000000000000038
:104880000000000000000000000000000000000028
:1048900000000000000000001FFC1FFC100830108A
:1048A00020102020002000400040004000800080B8
:1048B00001000100010001000300030003000300E8
:1048C00003000300000000000000000000000000E2
:1048D00000000000000000000000000000000000D8
:1048E00000000000000000000000000000000000C8
:1048F00000000000000000000000000000000000B8
:1049000000000000000000000000000000000000A7
:10491000000000000000000007E00C301818300C08
:10492000300C300C380C38081E180F2007C018F057
:1049300030783038601C600C600C600C600C3018F3
:10494000183007C000000000000000000000000058
:104950000000000000000000000000000000000057
:104960000000000000000000000000000000000047
:104970000000000000000000000000000000000037
:104980000000000000000000000000000000000027
:10499000000000000000000007C018203010301890
:1049A0006008600C600C600C600C600C701C302C9B
:1049B000186C0F8C000C001800180010303030609C
:1049C00030C00F8000000000000000000000000068
:1049D00000000000000000000000000000000000D7
:1049E00000000000000000000000000000000000C7
:1049F00000000000000000000000000000000000B7
:104A000000000000000000000000000000000000A6
:104A10000000000000000000000000000000000096
:104A2000000000000000018003C003C001800000FE
:104A3000000000000000000000000000018003C032
:104A400003C0018000000000000000000000000022
:104A50000000000000000000000000000000000056
:104A60000000000000000000000000000000000046
:104A70000000000000000000000000000000000036
:104A80000000000000000000000000000000000026
:104A90000000000000000000000000000000000016
:104AA000000000000000000003800380038000007D
:104AB0000000000000000000000000000000038073
:104AC0000380038001800300030000000000000059
:104AD00000000000000000000000000000000000D6
:104AE00000000000000000000000000000000000C6
:104AF00000000000000000000000000000000000B6
:104B000000000000000000000000000000000000A5
:104B10000000000000000000000400080010002059
:104B20000040008001000200040008001000100096
:104B30000800040002000100008000400020001076
:104B40000008000400000000000000000000000059
:104B50000000000000000000000000000000000055
:104B60000000000000000000000000000000000045
:104B70000000000000000000000000000000000035
:104B80000000000000000000000000000000000025
:104B90000000000000000000000000000000000015
:104BA0000000000000007FFE000000000000000088
:104BB00000007FFE00000000000000000000000078
:104BC00000000000000000000000000000000000E5
:104BD00000000000000000000000000000000000D5
:104BE00000000000000000000000000000000000C5
:104BF00000000000000000000000000000000000B5
:104C000000000000000000000000000000000000A4
:104C10000000000000000000200010000800040058
:104C20000200010000800040002000100008000881
:104C30000010002000400080010002000400080075
:104C40001000200000000000000000000000000034
:104C50000000000000000000000000000000000054
:104C60000000000000000000000000000000000044
:104C70000000000000000000000000000000000034
:104C80000000000000000000000000000000000024
:104C9000000000000000000003E00C18180C1006D3
:104CA0003006380638063806000C0018007000C0C0
:104CB000008000800080008000000000018003C0B0
:104CC00003C00180000000000000000000000000A0
:104CD00000000000000000000000000000000000D4
:104CE00000000000000000000000000000000000C4
:104CF00000000000000000000000000000000000B4
:104D000000000000000000000000000000000000A3
:104D1000000000000000000003E006100C0818046A
:104D200030D431B221326332632266226622662297
:104D300066626664666426E8333030021004180C3C
:104D40000C1803E00000000000000000000000005C
:104D50000000000000000000000000000000000053
:104D60000000000000000000000000000000000043
:104D70000000000000000000000000000000000033
:104D80000000000000000000000000000000000023
:104D90000000000000000000038003800380038007
:104DA00004C004C004C004C00C400860086008606F
:104DB00008201FF010301030103020182018201854
:104DC000601CF83E00000000000000000000000031
:104DD00000000000000000000000000000000000D3
:104DE00000000000000000000000000000000000C3
:104DF00000000000000000000000000000000000B3
:104E000000000000000000000000000000000000A2
:104E100000000000000000007FE018381818180C8F
:104E2000180C180C180C180C181818301FE018184B
:104E3000180C180418061806180618061806180C78
:104E400018187FF0000000000000000000000000C3
:104E50000000000000000000000000000000000052
:104E60000000000000000000000000000000000042
:104E70000000000000000000000000000000000032
:104E80000000000000000000000000000000000022
:104E9000000000000000000003E0061C080C1806DB
:104EA000300230023000600060006000600060008E
:104EB00060006000600060003002300210041808DA
:104EC0000C1003E0000000000000000000000000E3
:104ED00000000000000000000000000000000000D2
:104EE00000000000000000000000000000000000C2
:104EF00000000000000000000000000000000000B2
:104F000000000000000000000000000000000000A1
:104F100000000000000000007FC01870181818087A
:104F2000180C180C18061806180618061806180685
:104F30001806180618061804180C180C1818181853
:104F400018607FC0000000000000000000000000AA
:104F50000000000000000000000000000000000051
:104F60000000000000000000000000000000000041
:104F70000000000000000000000000000000000031
:104F80000000000000000000000000000000000021
:104F900000000000000000007FFC180C180418023C
:104FA0001802180018001810181018301FF01830C8
:104FB0001810181018001800180018021802180409
:104FC000180C7FFC00000000000000000000000042
:104FD00000000000000000000000000000000000D1
:104FE00000000000000000000000000000000000C1
:104FF00000000000000000000000000000000000B1
:1050000000000000000000000000000000000000A0
:1050100000000000000000007FFC181C18041802AB
:105020001802180018001810181018301FF0183047
:105030001810181018101800180018001800180080
:1050400018007E00000000000000000000000000CA
:105050000000000000000000000000000000000050
:105060000000000000000000000000000000000040
:105070000000000000000000000000000000000030
:105080000000000000000000000000000000000020
:10509000000000000000000003C00C3008101818C9
:1050A0003008300820006000600060006000600090
:1050B000607E601860182018301830181018181802
:1050C0000C2007C0000000000000000000000000ED
:1050D00000000000000000000000000000000000D0
:1050E00000000000000000000000000000000000C0
:1050F00000000000000000000000000000000000B0
:10510000000000000000000000000000000000009F
:105110000000000000000000FC3F300C300C300CA0
:10512000300C300C300C300C300C300C3FFC300CA0
:10513000300C300C300C300C300C300C300C300C8F
:10514000300CFC3F000000000000000000000000E8
:10515000000000000000000000000000000000004F
:10516000000000000000000000000000000000003F
:10517000000000000000000000000000000000002F
:10518000000000000000000000000000000000001F
:1051900000000000000000001FF801800180018075
:1051A00001800180018001800180018001800180F7
:1051B00001800180018001800180018001800180E7
:1051C00001801FF800000000000000000000000047
:1051D00000000000000000000000000000000000CF
:1051E00000000000000000000000000000000000BF
:1051F00000000000000000000000000000000000AF
:10520000000000000000000000000000000000009E
:10521000000000000000000007FE00600060006069
:10522000006000600060006000600060006000607E
:10523000006000600060006000600060006000606E
:1052400000600060706070C071803F00000000006E
:10525000000000000000000000000000000000004E
:10526000000000000000000000000000000000003E
:10527000000000000000000000000000000000002E
:10528000000000000000000000000000000000001E
:1052900000000000000000007E7C1830182018601C
:1052A000184018801880190019001B001D801D80EF
:1052B00018C018C018601860183018301830181846
:1052C00018187E3E000000000000000000000000F2
:1052D00000000000000000000000000000000000CE
:1052E00000000000000000000000000000000000BE
:1052F00000000000000000000000000000000000AE
:10530000000000000000000000000000000000009D
:1053100000000000000000007E00180018001800C7
:1053200018001800180018001800180018001800BD
:1053300018001800180018001800180218021804A5
:10534000180C7FFC000000000000000000000000BE
:10535000000000000000000000000000000000004D
:10536000000000000000000000000000000000003D
:10537000000000000000000000000000000000002D
:10538000000000000000000000000000000000001D
:105390000000000000000000F00F381C381C381C12
:1053A000381C382C2C2C2C2C2C2C2C4C2C4C264CDB
:1053B000264C264C268C228C238C238C230C230CED
:1053C000210CF13F00000000000000000000000080
:1053D00000000000000000000000000000000000CD
:1053E00000000000000000000000000000000000BD
:1053F00000000000000000000000000000000000AD
:10540000000000000000000000000000000000009C
:105410000000000000000000F01F380438042C04D5
:105420002C0426042604230423042184218420C47C
:1054300020C42064206420342034201C201C200C34
:10544000200CF80400000000000000000000000034
:10545000000000000000000000000000000000004C
:10546000000000000000000000000000000000003C
:10547000000000000000000000000000000000002C
:10548000000000000000000000000000000000001C
:10549000000000000000000003C00C3018181008C5
:1054A000300C300C60046006600660066006600622
:1054B0006006600660062006300C300C10081818D4
:1054C0000C3003C0000000000000000000000000DD
:1054D00000000000000000000000000000000000CC
:1054E00000000000000000000000000000000000BC
:1054F00000000000000000000000000000000000AC
:10550000000000000000000000000000000000009B
:1055100000000000000000007FF01818180C1806AA
:1055200018061806180618061806180C18181FE092
:1055300018001800180018001800180018001800AB
:1055400018007E00000000000000000000000000C5
:10555000000000000000000000000000000000004B
:10556000000000000000000000000000000000003B
:10557000000000000000000000000000000000002B
:10558000000000000000000000000000000000001B
:10559000000000000000000003C00C3018181008C4
:1055A000300C300C6006600660066006600660061F
:1055B0006006600660066006278438CC386C187870
:1055C0000C7003E00032003C001C000000000000F2
:1055D00000000000000000000000000000000000CB
:1055E00000000000000000000000000000000000BB
:1055F00000000000000000000000000000000000AB
:10560000000000000000000000000000000000009A
:1056100000000000000000007FE018381818180C87
:10562000180C180C180C180C181818301FE018C09B
:1056300018C0186018601860183018301830181822
:1056400018187E1E0000000000000000000000008E
:10565000000000000000000000000000000000004A
:10566000000000000000000000000000000000003A
:10567000000000000000000000000000000000002A
:10568000000000000000000000000000000000001A
:1056900000000000000000000FC8187830186018E3
:1056A00060086008600070003C001F0007C001F047
:1056B00000780018001C400C400C600C200C3018C6
:1056C000383027E00000000000000000000000006B
:1056D00000000000000000000000000000000000CA
:1056E00000000000000000000000000000000000BA
:1056F00000000000000000000000000000000000AA
:105700000000000000000000000000000000000099
:1057100000000000000000003FFC3184218641822F
:10572000418201800180018001800180018001802F
:105730000180018001800180018001800180018061
:10574000018007E0000000000000000000000000F1
:105750000000000000000000000000000000000049
:105760000000000000000000000000000000000039
:105770000000000000000000000000000000000029
:105780000000000000000000000000000000000019
:105790000000000000000000FC3E30083008300827
:1057A0003008300830083008300830083008300839
:1057B0003008300830083008300830083008181039
:1057C0001C2007C0000000000000000000000000D6
:1057D00000000000000000000000000000000000C9
:1057E00000000000000000000000000000000000B9
:1057F00000000000000000000000000000000000A9
:105800000000000000000000000000000000000098
:1058100000000000000000007C1E180C180818088A
:1058200018080C100C100C100C100C200620062070
:1058300006200640034003400340038001800180AE
:105840000100010000000000000000000000000056
:105850000000000000000000000000000000000048
:105860000000000000000000000000000000000038
:105870000000000000000000000000000000000028
:105880000000000000000000000000000000000018
:105890000000000000000000F3CF618661842184D5
:1058A000208430C431C431C431C831C811C8124851
:1058B0001A681A681A701C700C700C700C300C206E
:1058C0000820082000000000000000000000000088
:1058D00000000000000000000000000000000000C8
:1058E00000000000000000000000000000000000B8
:1058F00000000000000000000000000000000000A8
:105900000000000000000000000000000000000097
:1059100000000000000000007C3E180818100C1069
:105920000C20062006400340038001800180018096
:1059300001C002C00260046004700830083018180A
:10594000101C7C3E00000000000000000000000071
:105950000000000000000000000000000000000047
:105960000000000000000000000000000000000037
:105970000000000000000000000000000000000027
:105980000000000000000000000000000000000017
:1059900000000000000000007E3E380818081810C3
:1059A0000C100C100C20062006200340034003803E
:1059B00001800180018001800180018001800180DF
:1059C000018007E00000000000000000000000006F
:1059D00000000000000000000000000000000000C7
:1059E00000000000000000000000000000000000B7
:1059F00000000000000000000000000000000000A7
:105A00000000000000000000000000000000000096
:105A100000000000000000001FFE1C0C180C3018D5
:105A2000201800300060006000C000C001800180CC
:105A300003000300060006000C00180218063004DC
:105A4000301C7FFC0000000000000000000000008F
:105A50000000000000000000000000000000000046
:105A60000000000000000000000000000000000036
:105A70000000000000000000000000000000000026
:105A80000000000000000000000000000000000016
:105A9000000003FC030003000300030003000300F5
:105AA00003000300030003000300030003000300DE
:105AB00003000300030003000300030003000300CE
:105AC00003000300030003FC0000000000000000CE
:105AD00000000000000000000000000000000000C6
:105AE00000000000000000000000000000000000B6
:105AF00000000000000000000000000000000000A6
:105B00000000000000000000000000000000000095
:105B10000000000000001800180008000C0004003D
:105B200006000600020003000100018001800080E1
:105B300000C00040006000600030003000300018FD
:105B40000018000C000C000C000600000000000013
:105B50000000000000000000000000000000000045
:105B60000000000000000000000000000000000035
:105B70000000000000000000000000000000000025
:105B80000000000000000000000000000000000015
:105B900000003FC000C000C000C000C000C000C086
:105BA00000C000C000C000C000C000C000C000C0F5
:105BB00000C000C000C000C000C000C000C000C0E5
:105BC00000C000C000C03FC0000000000000000096
:105BD00000000000000000000000000000000000C5
:105BE00000000000000000000000000000000000B5
:105BF00000000000000000000000000000000000A5
:105C00000000000000000000000000000000000094
:105C100003C003E0062008100000000000000000A0
:105C20000000000000000000000000000000000074
:105C30000000000000000000000000000000000064
:105C40000000000000000000000000000000000054
:105C50000000000000000000000000000000000044
:105C60000000000000000000000000000000000034
:105C70000000000000000000000000000000000024
:105C80000000000000000000000000000000000014
:105C90000000000000000000000000000000000004
:105CA00000000000000000000000000000000000F4
:105CB00000000000000000000000000000000000E4
:105CC00000000000000000000000FFFF00000000D6
:105CD00000000000000000000000000000000000C4
:105CE00000000000000000000000000000000000B4
:105CF00000000000000000000000000000000000A4
:105D00000000000000000000000000000000000093
:105D10001E000300008000000000000000000000E2
:105D20000000000000000000000000000000000073
:105D30000000000000000000000000000000000063
:105D40000000000000000000000000000000000053
:105D50000000000000000000000000000000000043
:105D60000000000000000000000000000000000033
:105D70000000000000000000000000000000000023
:105D80000000000000000000000000000000000013
:105D90000000000000000000000000000000000003
:105DA00000000000000007E01830301830183018EC
:105DB000003807D81C18301860186018601860196F
:105DC00030791F8E0000000000000000000000007D
:105DD00000000000000000000000000000000000C3
:105DE00000000000000000000000000000000000B3
:105DF00000000000000000000000000000000000A3
:105E00000000000000000000000000000000000092
:105E100000000000000008007800180018001800BA
:105E200018001800180019E01A381C181C0C180C5F
:105E3000180C180C180C180C180C180C18081C1836
:105E40001C3013E000000000000000000000000013
:105E50000000000000000000000000000000000042
:105E60000000000000000000000000000000000032
:105E70000000000000000000000000000000000022
:105E80000000000000000000000000000000000012
:105E90000000000000000000000000000000000002
:105EA00000000000000003E00E100C181818301855
:105EB0003000300030003000300030041804180882
:105EC0000C1003E0000000000000000000000000D3
:105ED00000000000000000000000000000000000C2
:105EE00000000000000000000000000000000000B2
:105EF00000000000000000000000000000000000A2
:105F00000000000000000000000000000000000091
:105F100000000000000000080078001800180018B9
:105F200000180018001807D80C381818181830185E
:105F30003018301830183018301830181018183839
:105F40000C5E079000000000000000000000000050
:105F50000000000000000000000000000000000041
:105F60000000000000000000000000000000000031
:105F70000000000000000000000000000000000021
:105F80000000000000000000000000000000000011
:105F90000000000000000000000000000000000001
:105FA00000000000000003C00C3008181808300C76
:105FB000300C300C3FFC3000300030001804180862
:105FC0000E1803E0000000000000000000000000C8
:105FD00000000000000000000000000000000000C1
:105FE00000000000000000000000000000000000B1
:105FF00000000000000000000000000000000000A1
:106000000000000000000000000000000000000090
:106010000000000000000000007C0186010603066D
:106020000300030003003FF8030003000300030024
:106030000300030003000300030003000300030048
:1060400003001FF00000000000000000000000003E
:106050000000000000000000000000000000000040
:106060000000000000000000000000000000000030
:106070000000000000000000000000000000000020
:106080000000000000000000000000000000000010
:106090000000000000000000000000000000000000
:1060A00000000000000003EE0C360818181818183D
:1060B000181808180C300FE0180018001FC00FF84F
:1060C000181C300C300C300C181807E000000000D1
:1060D00000000000000000000000000000000000C0
:1060E00000000000000000000000000000000000B0
:1060F00000000000000000000000000000000000A0
:10610000000000000000000000000000000000008F
:1061100000000000000008007800180018001800B7
:1061200018001800180019E01A301C181818181850
:1061300018181818181818181818181818181818DF
:1061400018187E7E00000000000000000000000023
:10615000000000000000000000000000000000003F
:10616000000000000000000000000000000000002F
:10617000000000000000000000000000000000001F
:10618000000000000000000000000000000000000F
:106190000000000000000000018003C0018000003A
:1061A0000000000000801F800180018001800180CC
:1061B00001800180018001800180018001800180D7
:1061C00001801FF800000000000000000000000037
:1061D00000000000000000000000000000000000BF
:1061E00000000000000000000000000000000000AF
:1061F000000000000000000000000000000000009F
:10620000000000000000000000000000000000008E
:10621000000000000000000000380078003000009E
:1062200000000000001003F00030003000300030AB
:1062300000300030003000300030003000300030DE
:10624000003000300030186018400F80000000005F
:10625000000000000000000000000000000000003E
:10626000000000000000000000000000000000002E
:10627000000000000000000000000000000000001E
:10628000000000000000000000000000000000000E
:106290000000000000000800780018001800180036
:1062A000180018001800187C1830182018401880A2
:1062B00019801B801EC01CC01860183018301818B8
:1062C000181C7E3E000000000000000000000000DE
:1062D00000000000000000000000000000000000BE
:1062E00000000000000000000000000000000000AE
:1062F000000000000000000000000000000000009E
:10630000000000000000000000000000000000008D
:1063100000000000000000801F80018001800180DB
:106320000180018001800180018001800180018065
:106330000180018001800180018001800180018055
:1063400001801FF8000000000000000000000000B5
:10635000000000000000000000000000000000003D
:10636000000000000000000000000000000000002D
:10637000000000000000000000000000000000001D
:10638000000000000000000000000000000000000D
:1063900000000000000000000000000000000000FD
:1063A000000000002000EF3C71C6618661866186B6
:1063B00061866186618661866186618661866186A5
:1063C0006186F3CF00000000000000000000000024
:1063D00000000000000000000000000000000000BD
:1063E00000000000000000000000000000000000AD
:1063F000000000000000000000000000000000009D
:10640000000000000000000000000000000000008C
:10641000000000000000000000000000000000007C
:1064200000000000000009E07A301C181818181845
:1064300018181818181818181818181818181818DC
:1064400018187E7E00000000000000000000000020
:10645000000000000000000000000000000000003C
:10646000000000000000000000000000000000002C
:10647000000000000000000000000000000000001C
:10648000000000000000000000000000000000000C
:1064900000000000000000000000000000000000FC
:1064A00000000000000003C00C3008181818100C81
:1064B000300C300C300C300C300C300C1818181814
:1064C0000C3003C0000000000000000000000000CD
:1064D00000000000000000000000000000000000BC
:1064E00000000000000000000000000000000000AC
:1064F000000000000000000000000000000000009C
:10650000000000000000000000000000000000008B
:10651000000000000000000000000000000000007B
:1065200000000000000009E07A301C181808180C60
:10653000180C180C180C180C180C180C18181C181F
:106540001E3019E01800180018007E00000000003E
:10655000000000000000000000000000000000003B
:10656000000000000000000000000000000000002B
:10657000000000000000000000000000000000001B
:10658000000000000000000000000000000000000B
:1065900000000000000000000000000000000000FB
:1065A00000000000000003C80C78183818183018D4
:1065B00030183018301830183018301810181838B3
:1065C0000C780798001800180018007E00000000E2
:1065D00000000000000000000000000000000000BB
:1065E00000000000000000000000000000000000AB
:1065F000000000000000000000000000000000009B
:10660000000000000000000000000000000000008A
:10661000000000000000000000000000000000007A
:10662000000000000000061C7E660686078007004A
:10663000060006000600060006000600060006002A
:1066400006007FE0000000000000000000000000E5
:10665000000000000000000000000000000000003A
:10666000000000000000000000000000000000002A
:10667000000000000000000000000000000000001A
:10668000000000000000000000000000000000000A
:1066900000000000000000000000000000000000FA
:1066A00000000000000003E4061C0C0C0C040C04A9
:1066B0000E0007C001F00078001C100C100C180C24
:1066C0001C1813F000000000000000000000000093
:1066D00000000000000000000000000000000000BA
:1066E00000000000000000000000000000000000AA
:1066F000000000000000000000000000000000009A
:106700000000000000000000000000000000000089
:106710000000000000000000000000000100010077
:106720000100030007003FF803000300030003001B
:106730000300030003000300030003000304030439
:10674000018800F0000000000000000000000000D0
:106750000000000000000000000000000000000039
:106760000000000000000000000000000000000029
:106770000000000000000000000000000000000019
:106780000000000000000000000000000000000009
:1067900000000000000000000000000000000000F9
:1067A0000000000008087878181818181818181829
:1067B0001818181818181818181818181818183839
:1067C0000C5E0790000000000000000000000000C8
:1067D00000000000000000000000000000000000B9
:1067E00000000000000000000000000000000000A9
:1067F0000000000000000000000000000000000099
:106800000000000000000000000000000000000088
:106810000000000000000000000000000000000078
:106820000000000000007C3E180C180818180C101E
:106830000C100420062006200340034003C0018002
:1068400001800100000000000000000000000000C6
:106850000000000000000000000000000000000038
:106860000000000000000000000000000000000028
:106870000000000000000000000000000000000018
:106880000000000000000000000000000000000008
:1068900000000000000000000000000000000000F8
:1068A000000000000000FBCF618621843184318428
:1068B00031C811C81AC81A481A700E700C700C3002
:1068C0000C20042000000000000000000000000078
:1068D00000000000000000000000000000000000B8
:1068E00000000000000000000000000000000000A8
:1068F0000000000000000000000000000000000098
:106900000000000000000000000000000000000087
:106910000000000000000000000000000000000077
:106920000000000000003E7C0C100E10062003400A
:1069300003400180018001C0026004600430081837
:1069400018187C7E0000000000000000000000001D
:106950000000000000000000000000000000000037
:106960000000000000000000000000000000000027
:106970000000000000000000000000000000000017
:106980000000000000000000000000000000000007
:1069900000000000000000000000000000000000F7
:1069A0000000000000007C3E1818181008100C10A1
:1069B000042006200620024003400140018001809F
:1069C00001000100010002003E003C000000000048
:1069D00000000000000000000000000000000000B7
:1069E00000000000000000000000000000000000A7
:1069F0000000000000000000000000000000000097
:106A00000000000000000000000000000000000086
:106A10000000000000000000000000000000000076
:106A20000000000000003FF830383030206020E0E7
:106A300000C001800380030006000E040C04180C43
:106A400030183FF8000000000000000000000000C7
:106A50000000000000000000000000000000000036
:106A60000000000000000000000000000000000026
:106A70000000000000000000000000000000000016
:106A80000000000000000000000000000000000006
:106A9000000C00100020002000200020002000201A
:106AA0000020002000200020002000C001800040C5
:106AB00000200020002000200020002000200020D6
:106AC0000020002000200010000C0000000000004A
:106AD00000000000000000000000000000000000B6
:106AE00000000000000000000000000000000000A6
:106AF0000000000000000000000000000000000096
:106B00000000000000000000000000000080008085
:106B10000080008000800080008000800080008075
:106B20000080008000800080008000800080008065
:106B30000080008000800080008000800080008055
:106B40000080008000800080008000800000000045
:106B50000000000000000000000000000000000035
:106B60000000000000000000000000000000000025
:106B70000000000000000000000000000000000015
:106B80000000000000000000000000000000000005
:106B900018000400020002000200020002000200CD
:106BA00002000200020002000200018000C0010099
:106BB00002000200020002000200020002000200C5
:106BC00002000200020004001800000000000000A3
:106BD00000000000000000000000000000000000B5
:106BE00000000000000000000000000000000000A5
:106BF0000000000000000000000000000000000095
:106C000000000000000000000000000000001E0066
:106C100023004182408200E40038000000000000B0
:106C20000000000000000000000000000000000064
:106C30000000000000000000000000000000000054
:106C40000000000000000000000000000000000044
:106C50000000000000000000000000000000000034
:106C60000000000000000000000000000000000024
:106C70000000000000000000000000000000000014
:106C80000000000000000000000000000010F00004
:106C90008700011BFFFFFFFFFFFFFFFFFFFFFFFF5D
:106CA000FFFFFFFFFFFFFFFFFFFFFFFFFFFFFFFFF4
:106CB000FFFFFFFFFFFFFFFFFFFFFFFFFFFFFFFFE4
:106CC000FFFFFFFFFFFFFFFFFFFFDFFFFFFFFFFFF4
:106CD000FFFFFFFFFFFFFFFFFFFFFFFFFFFFFFFFC4
:106CE000FFFFFFFFFFFFFFFFFFFFFFFFFFFFFFFFB4
:106CF000FFFFFFFFFFFFFFFFFFFFFFFFFFFFFFFFA4
:106D0000FFFFFFFFFFFFFFFFFFFFFFFFFFFFFFFF93
:106D1000FFFFFFFFFFFFFFFFFFFFFFFFFFFFFFFF83
:106D2000FFFFFFFFFFFFFFFFFFFFFFFFFFFFFFFF73
:106D3000FFFFFFFFFFFFFFFFFFFFFFFFFFFFFFFF63
:106D4000FFFFFFFFFFFFFFFFFFFFFFFFFFFFFFFF53
:106D5000FFFFFFFFFFFFFFFFFFFFFFFFFFFFFFFF43
:106D6000FFFFFFFFFFFFFFFFFFFFFFFFFFFFFFFF33
:106D7000FFFFFFFFFFFFFFFFFFFFFFFFFFFFFFFF23
:106D8000FFFFFFFFFFFFFFFFFFFFFFFFFFFFFFFF13
:106D9000FFFFFFFFFFFFFFFFFFFFFFFFFFFFFFFF03
:106DA000FFFFFFFFFFFFFFFFFFFFFFFFFFFFFFFFF3
:106DB000FFFFFFFFFFFFFFFFFFFFFFFFFFFFFFFFE3
:106DC000FFFFFFFFFFFFFFFFFFFFFFFFFFFFFFFFD3
:106DD000FFFFFFFFFFFFFFFFFFFFFFFFFFFFFFFFC3
:106DE000FFFFFFFFFFFFFFFFFFFFFFFFFFFFFFFFB3
:106DF000FFFFFFFFFFFFFFFFFFFFFFFFFFFFFFFFA3
:106E0000FFFFFFFFFFFFFFFFFFFFFFFFFFFFFFFF92
:106E1000FFFFFFFFFFFFFFFFFFFFFFFFFFFFFFFF82
:106E2000FFFFFFFFFFFFFFFFFFFFDFFFFFFFFFFF92
:106E3000FFFFFFFFFFFFFFFFFFFFFFFFFFFFFFFF62
:106E4000FFFFFFFFFFFFFFFFFFFFFFFFFFFFFFFF52
:106E5000FFFFFFFFFFFFFFFFFFFFFFFFDFFFFFFF62
:106E6000FFFFFFFFFFFFDFFFFFFFFFFFFFFFFFFF52
:106E7000FFFFFFFFFFFFFFFFFFFFDFFFFFFFFFFF42
:106E8000FFFFFFFFFFFFFFFFFFFFDFFFFFFFDFFF52
:106E9000DFFFFFFFFFFFFFFFFFFFFFFFFFFFFFFF22
:106EA000FFFFDFFFBEF7BEF7FFFFFFFFFFFFFFFFA4
:106EB000FFFFFFFFFFFFFFFFFFFFFFFFFFFFFFFFE2
:106EC000FFFFDFFFFFFFFFFFFFFFFFFFFFFFFFFFF2
:106ED000FFFFFFFFFFFFFFFFFFFFFFFFFFFFFFFFC2
:106EE000FFFFFFFFFFFFFFFFFFFFFFFFFFFFFFFFB2
:106EF000FFFFFFFFFFFFFFFFFFFFFFFFFFFFFFFFA2
:106F0000FFFFFFFFFFFFFFFFFFFFFFFFFFFFFFFF91
:106F1000FFFFFFFFFFFFFFFFFFFFFFFFFFFFFFFF81
:106F2000FFFFFFFFFFFFFFFFFFFFFFFFFFFFFFFF71
:106F3000FFFFFFFFFFFFFFFFFFFFFFFFFFFFFFFF61
:106F4000FFFFFFFFFFFFFFFFFFFFFFFFFFFFFFFF51
:106F5000FFFFFFFFFFFFFFFFFFFFFFFFFFFFFFFF41
:106F6000FFFFFFFFFFFFFFFFFFFFFFFFFFFFFFFF31
:106F7000FFFFFFFFFFFFFFFFFFFFFFFFFFFFFFFF21
:106F8000FFFFFFFFFFFFFFFFFFFFFFFFFFFFFFFF11
:106F9000FFFFFFFFFFFFFFFFFFFFFFFFFFFFFFFF01
:106FA000FFFFFFFFFFFFFFFFFFFFFFFFFFFFFFFFF1
:106FB000FFFFFFFFFFFFFFFFFFFFFFFFFFFFFFFFE1
:106FC000FFFFFFFFFFFFFFFFFFFFFFFFFFFFFFFFD1
:106FD000FFFFFFFFFFFFFFFFFFFFFFFFFFFFFFFFC1
:106FE000FFFFFFFFFFFFFFFFFFFFFFFFFFFFFFFFB1
:106FF000FFFFFFFFFFFFFFFFFFFFFFFFFFFFFFFFA1
:10700000FFFFFFFFDFFFFFFFFFFFFFFFFFFFFFFFB0
:10701000FFFFFFFFDFFFFFFFFFFFFFFFFFFFDFFFC0
:10702000DFFFBEF7FFFFFFFFFFFFFFFFFFFFFFFFD9
:10703000FFFFDFFFFFFFDFFFFFFFDFFFFFFFFFFFC0
:10704000DFFFFFFFFFFFFFFFFFFFBEF7DFFFBEF722
:10705000FFFFFFFFFFFFFFFFFFFFFFFFFFFFDBDE85
:1070600075AD18C6CF7B30849AD6D7BD9EF7DBDED0
:1070700055AD1CE7FFFFDFFF7DEF14A56D6BCB5A0D
:1070800028420C631084CF7B518C9AD67DEF9EF7FB
:107090001CE796B50C63494A694A494A284234A517
:1070A000DFFFFFFFFFFFFFFFFFFFFFFFFFFFFFFF10
:1070B000FFFFFFFFFFFFFFFFFFFFFFFFFFFFFFFFE0
:1070C000FFFFFFFFFFFFFFFFFFFFFFFFFFFFFFFFD0
:1070D000FFFFFFFFFFFFFFFFFFFFFFFFFFFFFFFFC0
:1070E000FFFFFFFFFFFFFFFFFFFFFFFFFFFFFFFFB0
:1070F000FFFFFFFFFFFFFFFFFFFFFFFFFFFFFFFFA0
:10710000FFFFFFFFFFFFFFFFFFFFFFFFFFFFFFFF8F
:10711000FFFFFFFFFFFFFFFFFFFFFFFFFFFFFFFF7F
:10712000FFFFFFFFFFFFFFFFFFFFFFFFFFFFFFFF6F
:10713000FFFFFFFFFFFFFFFFFFFFFFFFFFFFFFFF5F
:10714000FFFFFFFFFFFFFFFFFFFFFFFFFFFFFFFF4F
:10715000FFFFFFFFFFFFFFFFFFFFFFFFFFFFFFFF3F
:10716000FFFFFFFFFFFFFFFFFFFFFFFFFFFFFFFF2F
:10717000FFFFFFFFFFFFFFFFFFFFFFFFFFFFFFFF1F
:10718000FFFFFFFFFFFFFFFFFFFFFFFFFFFFFFFF0F
:10719000FFFFFFFFFFFFFFFFFFFFFFFFFFFFFFFFFF
:1071A000FFFFFFFFFFFFFFFFFFFFFFFFFFFFFFFFEF
:1071B000FFFFFFFFFFFFFFFFFFFFFFFFFFFFFFFFDF
:1071C000FFFFFFFFFFFFFFFFFFFFFFFFFFFFFFFFCF
:1071D000FFFFFFFFFFFFFFFFFFFFFFFFFFFFFFFFBF
:1071E000FFFFFFFFFFFFFFFF18C6AA522842AA5267
:1071F000494AAA5214A51CE79EF75DEFBAD6D39C64
:1072000010841084AA52C739AA524D6BF39CFBDE3E
:10721000FFFFFFFF3CE775AD18C6FFFF79CE59CEE3
:10722000D7BD4D6B34A518C6B6B5DFFFFFFFDFFF36
:10723000DFFFDFFFFFFFFFFFFFFFBEF7FFFF79CE9E
:107240002842821045294529E318AA52FFFFBEF7BC
:107250008631A21055AD9294410800000000000054
:1072600000004108E739C3184108E73965290000E3
:10727000000000002000000000000000000010845A
:10728000FFFFFFFFFFFFFFFFFFFFFFFFFFFFFFFF0E
:10729000FFFFFFFFFFFFFFFFFFFFFFFFFFFFFFFFFE
:1072A000FFFFFFFFFFFFFFFFFFFFFFFFFFFFFFFFEE
:1072B000FFFFFFFFFFFFFFFFFFFFFFFFFFFFFFFFDE
:1072C000FFFFFFFFFFFFFFFFFFFFFFFFFFFFFFFFCE
:1072D000FFFFFFFFFFFFFFFFFFFFFFFFFFFFFFFFBE
:1072E000FFFFFFFFFFFFFFFFFFFFFFFFFFFFFFFFAE
:1072F000FFFFFFFFFFFFFFFFFFFFFFFFFFFFFFFF9E
:10730000FFFFFFFFFFFFFFFFFFFFFFFFFFFFFFFF8D
:10731000FFFFFFFFFFFFFFFFFFFFFFFFFFFFFFFF7D
:10732000FFFFFFFFFFFFFFFFFFFFFFFFFFFFFFFF6D
:10733000FFFFFFFFFFFFFFFFFFFFFFFFFFFFFFFF5D
:10734000FFFFFFFFFFFFFFFFFFFFFFFFFFFFFFFF4D
:10735000FFFFFFFFFFFFFFFFFFFFFFFFFFFFFFFF3D
:10736000FFFFFFFFFFFFFFFFFFFFFFFFFFFFFFFF2D
:10737000FFFFFFFFFFFFFFFFFFFFFFFFFFFFFFFF1D
:10738000FFFFFFFFFFFFFFFFFFFFFFFFFFFFFFFF0D
:10739000FFFFFFFFFFFFFFFFFFFFFFFFFFFFFFFFFD
:1073A000FFFFFFFFFFFFFFFFFFFFFFFFFFFFFFFFED
:1073B000FFFFFFFFFFFFFFFFFFFFFFFFFFFFFFFFDD
:1073C000FFFFFFFFFFFFFFFF34A5000000000000EC
:1073D000000020000000200000002421E739821076
:1073E000C318494AA210000000000000200000005D
:1073F000EF7BD7BD8631C31879CEFFFF55AD042191
:10740000E318863145290421EF7BDFFFDFFFFFFF13
:10741000FFFFFFFFFFFFBEF7FFFFDFFFAE7324217B
:107420006529494A4D6B0C63C7392421084296B53A
:10743000D7BD863100002000718C9EF7FFFFDFFF73
:10744000D39CE3180000000020002C6355AD0C63B2
:107450004108000000000000000000000000A6310C
:107460000C632C63EB5AEB5AEB5AEB5AEB5AEB5A80
:10747000EB5AEB5AEB5AEB5AEB5AEB5AEB5AEB5AE4
:10748000EB5AEB5AEB5AEB5AEB5AEB5AEB5AEB5AD4
:10749000EB5AEB5AEB5AEB5AEB5AEB5AEB5AEB5AC4
:1074A000EB5AEB5AEB5AEB5AEB5AEB5AEB5AEB5AB4
:1074B000EB5AEB5AEB5AEB5AEB5AEB5AEB5AEB5AA4
:1074C000EB5AEB5AEB5AEB5AEB5AEB5AEB5AEB5A94
:1074D000EB5AEB5AEB5AEB5AEB5AEB5AEB5AEB5A84
:1074E000EB5AEB5ACB5ACB5ACB5ACB5ACB5ACB5A34
:1074F000CB5ACB5AEB5AEB5AEB5AEB5AEB5AEB5AA4
:10750000EB5AEB5ACB5ACB5ACB5ACB5ACB5ACB5A13
:10751000CB5ACB5AEB5AEB5AEB5AEB5AEB5AEB5A83
:10752000EB5AEB5AEB5AEB5AEB5AEB5AEB5AEB5A33
:10753000EB5AEB5AEB5AEB5AEB5AEB5AEB5AEB5A23
:10754000EB5AEB5AEB5AEB5AEB5AEB5AEB5AEB5A13
:10755000EB5AEB5ACB5ACB5ACB5ACB5ACB5ACB5AC3
:10756000CB5ACB5AEB5AEB5AEB5AEB5AEB5AEB5A33
:10757000EB5AEB5ACB5ACB5ACB5ACB5ACB5ACB5AA3
:10758000CB5ACB5AEB5AEB5AEB5AEB5AEB5AEB5A13
:10759000EB5AEB5ACB5ACB5AEB5AEB5AEB5AEB5A03
:1075A000EB5AEB5ACB5A4D6BE73920000000200014
:1075B0000000000000002000694A55ADAE73A21023
:1075C00020000000610810847DEFFFFFBEF7F39CF0
:1075D00041080000A21014A5BAD6AE73652965292A
:1075E00028420C63EB5A694A2421A631B6B5FFFF45
:1075F000FFFFFFFFDFFFFFFFBEF7FFFFB294C318DF
:1076000028422C63652986310C63A6318631DBDE86
:1076100038C682106529DBDEFFFFB6B58E7375AD07
:10762000FFFFDFFF4D6B000000000000EB5AFBDEA8
:10763000DFFF9AD6B2948E732C63E73920008A520A
:10764000B6B5B6B555AD55AD55AD55AD55AD55AD58
:1076500055AD55AD55AD55AD55AD55AD55AD55AD1A
:1076600055AD55AD55AD55AD55AD55AD55AD55AD0A
:1076700055AD55AD55AD55AD55AD55AD55AD55ADFA
:1076800055AD55AD55AD55AD55AD55AD55AD55ADEA
:1076900055AD55AD55AD55AD55AD55AD55AD55ADDA
:1076A00055AD55AD55AD55AD55AD55AD55AD55ADCA
:1076B00055AD55AD55AD55AD55AD55AD55AD55ADBA
:1076C00055AD55AD55AD55AD55AD55AD55AD55ADAA
:1076D00055AD55AD55AD55AD55AD55AD55AD55AD9A
:1076E00055AD55AD55AD55AD55AD55AD55AD55AD8A
:1076F00055AD55AD55AD55AD55AD55AD55AD55AD7A
:1077000055AD55AD55AD55AD55AD55AD55AD55AD69
:1077100055AD55AD55AD55AD55AD55AD55AD55AD59
:1077200055AD55AD55AD55AD55AD55AD55AD55AD49
:1077300055AD55AD55AD55AD55AD55AD55AD55AD39
:1077400055AD55AD55AD55AD55AD55AD55AD55AD29
:1077500055AD55AD55AD55AD55AD55AD55AD55AD19
:1077600055AD55AD55AD55AD55AD55AD55AD55AD09
:1077700055AD55AD55AD55AD55AD55AD55AD55ADF9
:1077800055AD75AD96B5F7BD8E73821086310C631D
:107790006D6B718C79CEBEF73CE7AE7300000000D4
:1077A0000000AA527DEFDFFFD7BDAE7334A5FFFF07
:1077B0009EF70842000014A5FFFFCF7BE318CB5AC9
:1077C000CB5AC318C7390C63A631694ABAD6FFFF32
:1077D000FFFFFFFFDFFFFFFFFFFF14A5821008423E
:1077E000694AC73975AD718CA631EB5A45294D6B85
:1077F0006D6BA210718CBAD62421A631518C45290B
:10780000A6313CE7FFFF96B5E3180000000000003A
:10781000694A75AD3CE77DEF3CE7AE730000452952
:10782000AE736D6B6D6B6D6B6D6B6D6B6D6B6D6B4F
:107830004D6B4D6B6D6B6D6B6D6B6D6B6D6B6D6BC8
:107840006D6B6D6B6D6B6D6B6D6B6D6B6D6B6D6B78
:107850006D6B6D6B6D6B6D6B6D6B6D6B6D6B6D6B68
:107860006D6B6D6B6D6B6D6B6D6B6D6B6D6B6D6B58
:107870006D6B6D6B6D6B6D6B6D6B6D6B6D6B6D6B48
:107880006D6B6D6B6D6B6D6B6D6B6D6B6D6B6D6B38
:107890006D6B6D6B6D6B6D6B6D6B6D6B6D6B6D6B28
:1078A0006D6B6D6B4D6B4D6B4D6B4D6B4D6B4D6BD8
:1078B0004D6B4D6B6D6B6D6B6D6B6D6B6D6B6D6B48
:1078C0006D6B6D6B4D6B4D6B4D6B4D6B4D6B4D6BB8
:1078D0004D6B4D6B6D6B6D6B6D6B6D6B6D6B6D6B28
:1078E0006D6B6D6B6D6B6D6B6D6B6D6B6D6B6D6BD8
:1078F0006D6B6D6B6D6B6D6B6D6B6D6B6D6B6D6BC8
:107900006D6B6D6B6D6B6D6B6D6B6D6B6D6B6D6BB7
:107910006D6B6D6B4D6B4D6B4D6B4D6B4D6B4D6B67
:107920004D6B4D6B6D6B6D6B6D6B6D6B6D6B6D6BD7
:107930006D6B6D6B4D6B4D6B4D6B4D6B4D6B4D6B47
:107940004D6B4D6B6D6B6D6B6D6B6D6B6D6B6D6BB7
:107950006D6B6D6B6D6B6D6B6D6B6D6B6D6B6D6B67
:107960006D6B6D6B4D6BAE73084241082C63DBDEB3
:107970005DEF5DEFD7BDCB5A00000000000061084D
:10798000F39CFFFFDFFFAA52C318518C694AA21073
:10799000F7BD55AD6108108438C645290842C7397E
:1079A000694AF7BDAE73E7390C63E318694ADBDE59
:1079B000FFFFFFFFFFFFDFFFFFFFDFFF1084A631A8
:1079C000694A694AE739E7398A520842E739D7BD37
:1079D000F39C0421CF7B30840000C318FBDEFBDE68
:1079E0002421CB5AFFFFFFFFF7BDE3180000A210D0
:1079F00000000000000000000000000000008A52AB
:107A0000D7BDB6B575AD75AD75AD75AD75AD75ADAB
:107A100075AD75AD75AD75AD75AD75AD75AD75AD56
:107A200075AD75AD75AD75AD75AD75AD75AD75AD46
:107A300075AD75AD75AD75AD75AD75AD75AD75AD36
:107A400075AD75AD75AD75AD75AD75AD75AD75AD26
:107A500075AD75AD75AD75AD75AD75AD75AD75AD16
:107A600075AD75AD75AD75AD75AD75AD75AD75AD06
:107A700075AD75AD75AD75AD75AD75AD75AD75ADF6
:107A800075AD75AD75AD75AD75AD75AD75AD75ADE6
:107A900075AD75AD75AD75AD75AD75AD75AD75ADD6
:107AA00075AD75AD75AD75AD75AD75AD75AD75ADC6
:107AB00075AD75AD75AD75AD75AD75AD75AD75ADB6
:107AC00075AD75AD75AD75AD75AD75AD75AD75ADA6
:107AD00075AD75AD75AD75AD75AD75AD75AD75AD96
:107AE00075AD75AD75AD75AD75AD75AD75AD75AD86
:107AF00075AD75AD75AD75AD75AD75AD75AD75AD76
:107B000075AD75AD75AD75AD75AD75AD75AD75AD65
:107B100075AD75AD75AD75AD75AD75AD75AD75AD55
:107B200075AD75AD75AD75AD75AD75AD75AD75AD45
:107B300075AD75AD75AD75AD75AD75AD75AD75AD35
:107B400075AD75AD75AD38C64D6B00000000000019
:107B50000000000000000000610820004108F39CC4
:107B6000FFFFFFFFEF7BA210B6B53CE7A631000098
:107B70002C63B2940421718CBEF78E73A631284217
:107B8000494AC739E739AA52C739E73959CEFFFF01
:107B9000FFFFFFFFDFFFDFFFDFFF9EF76D6B2000C2
:107BA000E7390C63694A8A52AA52A210E31859CEE7
:107BB000FFFFA631452955AD0C63000075AD5DEFA3
:107BC000C3180000D39CDFFFFFFFF7BDD7BDBEF792
:107BD00059CE4D6BE739CF7BB6B555ADEF7B96B53A
:107BE000FFFFFFFFFFFFFFFFFFFFFFFFFFFFFFFFA5
:107BF000FFFFFFFFFFFFFFFFFFFFFFFFFFFFFFFF95
:107C0000FFFFFFFFFFFFFFFFFFFFFFFFFFFFFFFF84
:107C1000FFFFFFFFFFFFFFFFFFFFFFFFFFFFFFFF74
:107C2000FFFFFFFFFFFFFFFFFFFFFFFFFFFFFFFF64
:107C3000FFFFFFFFFFFFFFFFFFFFFFFFFFFFFFFF54
:107C4000FFFFFFFFFFFFFFFFFFFFFFFFFFFFFFFF44
:107C5000FFFFFFFFFFFFFFFFFFFFFFFFFFFFFFFF34
:107C6000FFFFFFFFFFFFFFFFFFFFFFFFFFFFFFFF24
:107C7000FFFFFFFFFFFFFFFFFFFFFFFFFFFFFFFF14
:107C8000FFFFFFFFFFFFFFFFFFFFFFFFFFFFFFFF04
:107C9000FFFFFFFFFFFFFFFFFFFFFFFFFFFFFFFFF4
:107CA000FFFFFFFFFFFFFFFFFFFFFFFFFFFFFFFFE4
:107CB000FFFFFFFFFFFFFFFFFFFFFFFFFFFFFFFFD4
:107CC000FFFFFFFFFFFFFFFFFFFFFFFFFFFFFFFFC4
:107CD000FFFFFFFFFFFFFFFFFFFFFFFFFFFFFFFFB4
:107CE000FFFFFFFFFFFFFFFFFFFFFFFFFFFFFFFFA4
:107CF000FFFFFFFFFFFFFFFFFFFFFFFFFFFFFFFF94
:107D0000FFFFFFFFFFFFFFFFFFFFFFFFFFFFFFFF83
:107D1000FFFFFFFFFFFFFFFFFFFFFFFFFFFFFFFF73
:107D2000FFFFFFFFFFFFFFFF59CE3084F39CD7BD5D
:107D3000718CE739EB5A18C6BEF738C696B5BEF750
:107D4000FFFF75AD0000000079CEF7BD8210E73966
:107D500055AD494A0421FBDEFFFF8E732000E73951
:107D6000EB5A494A8A52EB5A04210421B6B5DFFF87
:107D7000FFFFFFFFFFFFDFFFFFFFBEF7BEF755ADC1
:107D8000E3186108494A65294108EB5A9AD65DEF24
:107D9000FFFF4D6B00004529308496B514A5E739E7
:107DA000242124212421F39CFFFFFFFFFFFFDFFF9D
:107DB000FFFFFFFFFFFFFFFFFFFFFFFFFFFFFFFFD3
:107DC000FFFFBEF7FFFFFFFFFFFFFFFFFFFFFFFF0C
:107DD000FFFFFFFFFFFFFFFFFFFFFFFFFFFFFFFFB3
:107DE000FFFFFFFFFFFFFFFFFFFFFFFFFFFFFFFFA3
:107DF000FFFFFFFFFFFFFFFFFFFFFFFFFFFFFFFF93
:107E0000FFFFFFFFFFFFFFFFFFFFFFFFFFFFFFFF82
:107E1000FFFFFFFFFFFFFFFFFFFFFFFFFFFFFFFF72
:107E2000FFFFFFFFFFFFFFFFFFFFFFFFFFFFFFFF62
:107E3000FFFFFFFFFFFFFFFFFFFFFFFFFFFFFFFF52
:107E4000FFFFFFFFFFFFFFFFFFFFFFFFFFFFFFFF42
:107E5000FFFFFFFFFFFFFFFFFFFFFFFFFFFFFFFF32
:107E6000FFFFFFFFFFFFFFFFFFFFFFFFFFFFFFFF22
:107E7000FFFFFFFFFFFFFFFFFFFFFFFFFFFFFFFF12
:107E8000FFFFFFFFFFFFFFFFFFFFFFFFFFFFFFFF02
:107E9000FFFFFFFFFFFFFFFFFFFFFFFFFFFFFFFFF2
:107EA000FFFFFFFFFFFFFFFFFFFFFFFFFFFFFFFFE2
:107EB000FFFFFFFFFFFFFFFFFFFFFFFFFFFFFFFFD2
:107EC000FFFFFFFFFFFFFFFFFFFFFFFFFFFFFFFFC2
:107ED000FFFFFFFFFFFFFFFFFFFFFFFFFFFFFFFFB2
:107EE000FFFFFFFFFFFFFFFFFFFFFFFFFFFFFFFFA2
:107EF000FFFFFFFFFFFFFFFFFFFFFFFFFFFFFFFF92
:107F0000FFFFFFFFDFFFFFFFFFFFDFFFFFFFFFFFC1
:107F1000FFFFFFFFFFFFFFFFFFFFFFFFFFFFFFFF71
:107F200075ADC739242104218631B29496B5929457
:107F3000C7390000494ABEF7FFFFDBDEF39C8631FC
:107F40006108494A863120002C63DBDE3CE7FFFFF5
:107F5000FFFFFFFFFFFFFFFFDFFFDFFFFFFF9AD6FF
:107F600075AD34A5AA526D6B34A514A579CE718C6C
:107F70004D6BEB5AAA528A522842C739E739718CA5
:107F8000FFFFFFFFBEF7DFFFFFFFFFFFFFFFFFFF6A
:107F9000FFFFFFFFDFFFFFFFFFFFFFFFFFFFFFFF11
:107FA000FFFFFFFFFFFFFFFFFFFFFFFFFFFFFFFFE1
:107FB000FFFFFFFFFFFFFFFFFFFFFFFFFFFFFFFFD1
:107FC000FFFFFFFFFFFFFFFFFFFFFFFFFFFFFFFFC1
:107FD000FFFFFFFFFFFFFFFFFFFFFFFFFFFFFFFFB1
:107FE000FFFFFFFFFFFFFFFFFFFFFFFFFFFFFFFFA1
:107FF000FFFFFFFFFFFFFFFFFFFFFFFFFFFFFFFF91
:10800000FFFFFFFFFFFFFFFFFFFFFFFFFFFFFFFF80
:10801000FFFFFFFFFFFFFFFFFFFFFFFFFFFFFFFF70
:10802000FFFFFFFFFFFFFFFFFFFFFFFFFFFFFFFF60
:10803000FFFFFFFFFFFFFFFFFFFFFFFFFFFFFFFF50
:10804000FFFFFFFFFFFFFFFFFFFFFFFFFFFFFFFF40
:10805000FFFFFFFFFFFFFFFFFFFFFFFFFFFFFFFF30
:10806000FFFFFFFFFFFFFFFFFFFFFFFFFFFFFFFF20
:10807000FFFFFFFFFFFFFFFFFFFFFFFFFFFFFFFF10
:10808000FFFFFFFFFFFFFFFFFFFFFFFFFFFFFFFF00
:10809000FFFFFFFFFFFFFFFFFFFFFFFFFFFFFFFFF0
:1080A000FFFFFFFFFFFFFFFFFFFFFFFFFFFFFFFFE0
:1080B000FFFFFFFFFFFFFFFFFFFFFFFFFFFFFFFFD0
:1080C000FFFFFFFFFFFFFFFFFFFFFFFFFFFFFFFFC0
:1080D000FFFFFFFFFFFFFFFFFFFFFFFFFFFFFFFFB0
:1080E000FFFFFFFFFFFFFFFFFFFFFFFFFFFFFFFFA0
:1080F000FFFFFFFFFFFFFFFFFFFFFFFFFFFFFFFF90
:10810000FFFFDFFFFFFFFFFF34A5494A0842C739E1
:10811000694AAA52CB5A2C636D6BDBDE9AD6B294B5
:1081200014A5CB5AAE73B6B596B5FFFFFFFFBEF7E9
:10813000FFFFFFFFFFFFDFFFFFFF79CEAE73718C04
:108140003CE7DBDED7BDDBDEFFFFFFFFD39C8E739A
:1081500038C6FBDE9AD61CE759CEB6B59AD65DEF87
:10816000BAD6BAD6BAD6BAD679CE9AD659CE9AD681
:1081700079CE9AD69AD679CE79CE79CE79CE79CE75
:10818000BAD69AD679CE79CE79CE79CE79CE79CE45
:1081900079CE79CE79CE79CE79CE79CE79CE79CEA7
:1081A00079CE79CE79CE79CE79CE79CE79CE79CE97
:1081B00079CE79CE79CE79CE79CE79CE79CE79CE87
:1081C00079CE79CE79CE79CE79CE79CE79CE79CE77
:1081D00079CE79CE79CE79CE79CE79CE79CE79CE67
:1081E00079CE79CE79CE79CE79CE79CE79CE79CE57
:1081F00079CE79CE79CE79CE79CE79CE79CE79CE47
:1082000079CE79CE79CE79CE79CE79CE79CE79CE36
:1082100079CE79CE79CE79CE79CE79CE79CE79CE26
:1082200079CE79CE79CE79CE79CE79CE79CE79CE16
:1082300079CE79CE79CE79CE79CE79CE79CE79CE06
:1082400079CE79CE79CE79CE79CE79CE79CE79CEF6
:1082500079CE79CE79CE79CE79CE79CE79CE79CEE6
:1082600079CE79CE79CE79CE79CE79CE79CE79CED6
:1082700079CE79CE79CE79CE79CE79CE79CE79CEC6
:1082800079CE79CE79CE79CE79CE79CE79CE79CEB6
:1082900079CE79CE79CE79CE79CE79CE79CE79CEA6
:1082A00079CE79CE79CE79CE79CE79CE79CE79CE96
:1082B00079CE79CE79CE79CE79CE79CE79CE79CE86
:1082C00079CE79CE79CE79CE9AD679CE59CE59CE8D
:1082D0009AD69AD659CE9AD679CE59CE79CE9AD602
:1082E0009AD6BAD6BAD6DBDE5DEFBAD696B538C620
:1082F0003CE7DBDEBAD6DBDEAE73B294FFFFFFFFF6
:108300005DEFF7BD38C63CE714A56D6BB6B5FFFF52
:10831000FFFFFFFFFFFFFFFFFFFFFFFF0C630000FA
:1083200004218210000041088631F39C718C14A551
:1083300096B5494A08428A52EB5ACB5A694A494A89
:10834000694A8A52694A494A694A694A694A694A8C
:10835000694A494A694A694A694A494A694A494AE5
:10836000494A694A694A694A494A494A494A494A15
:10837000494A494A494A494A494A494A494A494A65
:10838000494A494A494A494A494A494A494A494A55
:10839000494A494A494A494A494A494A494A494A45
:1083A000494A494A494A494A494A494A494A494A35
:1083B000494A494A494A494A494A494A494A494A25
:1083C000494A494A494A494A494A494A494A494A15
:1083D000494A494A494A494A494A494A494A494A05
:1083E000494A494A494A494A494A494A494A494AF5
:1083F000494A494A494A494A494A494A494A494AE5
:10840000494A494A494A494A494A494A494A494AD4
:10841000494A494A494A494A494A494A494A494AC4
:10842000494A494A494A494A494A494A494A494AB4
:10843000494A494A494A494A494A494A494A494AA4
:10844000494A494A494A494A494A494A494A494A94
:10845000494A494A494A494A494A494A494A494A84
:10846000494A494A494A494A494A494A494A494A74
:10847000494A494A494A494A494A494A494A494A64
:10848000494A494A494A494A494A494A494A494A54
:10849000494A494A494A494A494A494A494A494A44
:1084A000494A494A694A494A494A694A694A694AB4
:1084B000694A8A52694A494A694A694A28422842AD
:1084C000694A494A694A694A494A694AEB5A8A5299
:1084D0008A520842A63175AD75AD518CD39C0842C5
:1084E000000020008210242100008A52DFFFFFFFDD
:1084F000FFFFFFFFFFFFDFFFFFFFFFFF7DEF8E733B
:108500000000C739D39C34A58A520000000075AD25
:1085100014A52C631CE7DFFF5DEF9EF79EF77DEF50
:108520007DEF9EF77DEF7DEF9EF79EF7BEF77DEF27
:108530009EF79EF77DEF9EF79EF77DEF9EF7BEF7C5
:108540009EF79EF79EF79EF79EF79EF79EF79EF783
:108550009EF79EF79EF79EF79EF79EF79EF79EF773
:108560009EF79EF79EF79EF79EF79EF79EF79EF763
:108570009EF79EF79EF79EF79EF79EF79EF79EF753
:108580009EF79EF79EF79EF79EF79EF79EF79EF743
:108590009EF79EF79EF79EF79EF79EF79EF79EF733
:1085A0009EF79EF79EF79EF79EF79EF79EF79EF723
:1085B0009EF79EF79EF79EF79EF79EF79EF79EF713
:1085C0009EF79EF79EF79EF79EF79EF79EF79EF703
:1085D0009EF79EF79EF79EF79EF79EF79EF79EF7F3
:1085E0009EF79EF79EF79EF79EF79EF79EF79EF7E3
:1085F0009EF79EF79EF79EF79EF79EF79EF79EF7D3
:108600009EF79EF79EF79EF79EF79EF79EF79EF7C2
:108610009EF79EF79EF79EF79EF79EF79EF79EF7B2
:108620009EF79EF79EF79EF79EF79EF79EF79EF7A2
:108630009EF79EF79EF79EF79EF79EF79EF79EF792
:108640009EF79EF79EF79EF79EF79EF79EF79EF782
:108650009EF79EF79EF79EF79EF79EF79EF79EF772
:108660009EF79EF79EF79EF79EF79EF79EF79EF762
:108670009EF79EF79EF79EF79EF79EF79EF79EF752
:108680009EF79EF77DEF9EF79EF79EF77DEF7DEFBD
:108690005DEF7DEF9EF75DEF7DEF9EF77DEF7DEF68
:1086A0009EF79EF77DEF9EF79EF79EF75DEF7DEFBD
:1086B000FFFF9EF74D6BD39CD7BD82100000C739DA
:1086C00014A514A5494A00008A52FBDEFFFFDFFF14
:1086D000DFFFFFFFFFFFDFFFFFFFFFFF9AD6242131
:1086E0002842FFFF79CEAE7334A5AE736108D39CE8
:1086F00075AD8E739EF7FFFFFFFFFFFFFFFFFFFFCC
:10870000FFFFFFFFFFFFFFFFFFFFFFFFFFFFFFFF79
:10871000FFFFFFFFFFFFDFFFFFFFFFFFFFFFFFFF89
:10872000FFFFFFFFFFFFFFFFFFFFFFFFFFFFFFFF59
:10873000FFFFFFFFFFFFFFFFFFFFFFFFFFFFFFFF49
:10874000FFFFFFFFFFFFFFFFFFFFFFFFFFFFFFFF39
:10875000FFFFFFFFFFFFFFFFFFFFFFFFFFFFFFFF29
:10876000FFFFFFFFFFFFFFFFFFFFFFFFFFFFFFFF19
:10877000FFFFFFFFFFFFFFFFFFFFFFFFFFFFFFFF09
:10878000FFFFFFFFFFFFFFFFFFFFFFFFFFFFFFFFF9
:10879000FFFFFFFFFFFFFFFFFFFFFFFFFFFFFFFFE9
:1087A000FFFFFFFFFFFFFFFFFFFFFFFFFFFFFFFFD9
:1087B000FFFFFFFFFFFFFFFFFFFFFFFFFFFFFFFFC9
:1087C000FFFFFFFFFFFFFFFFFFFFFFFFFFFFFFFFB9
:1087D000FFFFFFFFFFFFFFFFFFFFFFFFFFFFFFFFA9
:1087E000FFFFFFFFFFFFFFFFFFFFFFFFFFFFFFFF99
:1087F000FFFFFFFFFFFFFFFFFFFFFFFFFFFFFFFF89
:10880000FFFFFFFFFFFFFFFFFFFFFFFFFFFFFFFF78
:10881000FFFFFFFFFFFFFFFFFFFFFFFFFFFFFFFF68
:10882000FFFFFFFFFFFFFFFFFFFFFFFFFFFFFFFF58
:10883000FFFFFFFFFFFFFFFFFFFFFFFFFFFFFFFF48
:10884000FFFFFFFFFFFFFFFFFFFFFFFFFFFFFFFF38
:10885000FFFFFFFFFFFFFFFFFFFFFFFFFFFFFFFF28
:10886000FFFFFFFFFFFFFFFFDFFFFFFFFFFFFFFF38
:10887000FFFFFFFFFFFFFFFFFFFFFFFFFFFFFFFF08
:10888000DFFFFFFFFFFFFFFFFFFFFFFFFFFFFFFF18
:10889000FFFFFFFFAE73F39C75ADC3182C6355AD9E
:1088A000AE73B6B5FFFF4D6BE318D7BDFFFFFFFFFB
:1088B000FFFFDFFFFFFFDFFFFFFFDFFF694A452903
:1088C000DFFFBAD6A2100000610810846D6BAE7392
:1088D0009294EF7B5DEFFFFFDFFFFFFFFFFFFFFFE6
:1088E000FFFFFFFFFFFFFFFFFFFFFFFFFFFFFFFF98
:1088F000FFFFFFFFFFFFFFFFFFFFFFFFFFFFFFFF88
:10890000FFFFFFFFFFFFFFFFFFFFFFFFFFFFFFFF77
:10891000FFFFFFFFFFFFFFFFFFFFFFFFFFFFFFFF67
:10892000FFFFFFFFFFFFFFFFFFFFFFFFFFFFFFFF57
:10893000FFFFFFFFFFFFFFFFFFFFFFFFFFFFFFFF47
:10894000FFFFFFFFFFFFFFFFFFFFFFFFFFFFFFFF37
:10895000FFFFFFFFFFFFFFFFFFFFFFFFFFFFFFFF27
:10896000FFFFFFFFFFFFFFFFFFFFFFFFFFFFFFFF17
:10897000FFFFFFFFFFFFFFFFFFFFFFFFFFFFFFFF07
:10898000FFFFFFFFFFFFFFFFFFFFFFFFFFFFFFFFF7
:10899000FFFFFFFFFFFFFFFFFFFFFFFFFFFFFFFFE7
:1089A000FFFFFFFFFFFFFFFFFFFFFFFFFFFFFFFFD7
:1089B000FFFFFFFFFFFFFFFFFFFFFFFFFFFFFFFFC7
:1089C000FFFFFFFFFFFFFFFFFFFFFFFFFFFFFFFFB7
:1089D000FFFFFFFFFFFFFFFFFFFFFFFFFFFFFFFFA7
:1089E000FFFFFFFFFFFFFFFFFFFFFFFFFFFFFFFF97
:1089F000FFFFFFFFFFFFFFFFFFFFFFFFFFFFFFFF87
:108A0000FFFFFFFFFFFFFFFFFFFFFFFFFFFFFFFF76
:108A1000FFFFFFFFFFFFFFFFFFFFFFFFFFFFFFFF66
:108A2000FFFFFFFFFFFFFFFFFFFFFFFFFFFFFFFF56
:108A3000FFFFFFFFFFFFFFFFFFFFFFFFFFFFFFFF46
:108A4000FFFFFFFFFFFFFFFFFFFFFFFFDFFFFFFF56
:108A5000FFFFFFFFFFFFFFFFFFFFFFFFFFFFFFFF26
:108A6000FFFFFFFFFFFFFFFFFFFFFFFFFFFFDFFF36
:108A7000FFFFFFFFCF7B9294EF7B0C63518C652946
:108A800000000000D7BDFFFF084286317DEFFFFFE9
:108A9000DFFFFFFFFFFFFFFFFFFF79CE04214D6BDC
:108AA000FFFF3084AE731084042114A5718CEF7B1A
:108AB000718CCF7B5DEFFFFFFFFFFFFFFFFFFFFF2D
:108AC000FFFFFFFFFFFFFFFFFFFFFFFFFFFFFFFFB6
:108AD000FFFFFFFFFFFFFFFFFFFFFFFFFFFFFFFFA6
:108AE000FFFFFFFFFFFFFFFFFFFFFFFFFFFFFFFF96
:108AF000FFFFFFFFFFFFFFFFFFFFFFFFFFFFFFFF86
:108B0000FFFFFFFFFFFFFFFFFFFFDFFFFFFFFFFF95
:108B1000FFFFFFFFFFFFFFFFFFFFFFFFFFFFDFFF85
:108B2000FFFFFFFFFFFFFFFFFFFFFFFFFFFFFFFF55
:108B3000FFFFFFFFFFFFFFFFFFFFFFFFFFFFFFFF45
:108B4000FFFFFFFFFFFFDFFFFFFFFFFFFFFFDFFF75
:108B5000FFFFFFFFFFFFFFFFFFFFFFFFFFFFFFFF25
:108B6000FFFFFFFFDFFFDFFFFFFFFFFFFFFFFFFF55
:108B7000FFF7FFFFFFFFFFFFFFFFFFFFFFFFFFFF0D
:108B8000FFFFFFFFFFFFFFFFFFFFFFFFFFFFFFFFF5
:108B9000FFFFFFFFFFFFDFFFFFFFFFFFFFFFFFFF05
:108BA000FFFFFFFFFFFFFFFFFFFFDFFFFFFFFFFFF5
:108BB000FFFFFFFFFFFFFFFFFFFFDEFFFFFFFFFFE6
:108BC000DFFFFFFFFFFFFFFFFFFFFFFFFFFFFFFFD5
:108BD000FFFFFFFFFFFFDEFFFFFFFFFFFFFFDFFFE6
:108BE000FFFFFFFFFFFFFFFFFFFFFFFFFFFFFFFF95
:108BF000FFFFFFFFFFFFFFFFFFFFFFFFFFFFFFFF85
:108C0000FFFFFFFFFFFFFFFFFFFFFFFFFFFFFFFF74
:108C1000FFFFFFFFFFFFFFFFFFFFFFFFFFFFFFFF64
:108C2000FFFFFFFFFFFFFFFFFFFFFFFFFFFFFFFF54
:108C3000FFFFFFFFFFFFFFFFFFFFFFFFFFFFFFFF44
:108C4000FFFFFFFFFFFFFFFFFFFFFFFFFFFFFFFF34
:108C5000FFFFFFFF8E73929410846D6BB294E7391F
:108C60008E7310846D6BFFFF718C610896B5FFFFEA
:108C7000FFFFFFFFFFFFDFFFFFFF75AD00000C638D
:108C8000FFFFAE73EB5A7DEFFFFF55ADC73996B5C9
:108C900055ADAE737DEFFFFFFFFFFFFFFFFFFFFF4F
:108CA000FFFFFFFFFFFFFFFFFFFFFFFFFFFFFFFFD4
:108CB000FFFFFFFFFFFFFFFFFFFFFFFFFFFFFFFFC4
:108CC000FFFFFFFFFFFFFFFFFFFFFFFFFFFFDFFFD4
:108CD000FFFFFFFFFFFFFFFFFFFFFFFFFFFFFFFFA4
:108CE000FFFFFFFFDFFFFFFFFFFFFFFFFFFFFFFFB4
:108CF000FFFFFFFFFFFFFFFFFFFFFFFFFFFFFFFF84
:108D0000FFFFFFFFFFFFFFFFFFFFFFFFFFFFFFFF73
:108D1000DFFFFFFFFFFFFFFFFFFFFFFFFFFFFFFF83
:108D2000DFFFFFFFFFFFFFFFFFFFFFFFFFFFFFFF73
:108D3000FFFFFFFFFFFFFFFFFFFFFFFFFFFFFFFF43
:108D4000FFFFFFFFFFFFFFFFFFFFFFFFFFFFFFFF33
:108D5000FFFFFFFFFFFFDFFFFFFFFEFFFFFFFFFF44
:108D6000FFFFFFFFFFFFFFFFFFFFFFFFFFFFDFFF33
:108D7000FFFFFFFFDFFFFFFFFFFFFFFFFFFFFFFF23
:108D8000FFFFFFFFFFFFDFFFFFFFFFFFFFFFDFFF33
:108D9000FFFFFFFFFFFFFFFFFFFFFFFFFFFFFFFFE3
:108DA000FFFFFFFFFFFFFFFFFFFFFFFFFFFFFFFFD3
:108DB000FFFFFFFFDEFFFFFFFFFFFFFFFFFFFFFFE4
:108DC000FFFFFFFFFFFFFFFFFFFFFFFFFFFFFFFFB3
:108DD000FFFFFFFFFFFFFFFFFFFFFFFFFFFFFFFFA3
:108DE000FFFFFFFFFFFFFFFFFFFFFFFFFFFFFFFF93
:108DF000FFFFFFFFFFFFFFFFFFFFFFFFFFFFFFFF83
:108E0000FFFFFFFFFFFFFFFFFFFFFFFFFFFFFFFF72
:108E1000FFFFFFFFFFFFFFFFFFFFFFFFFFFFFFFF62
:108E2000FFFFFFFFFFFFFFFFFFFFFFFFFFFFFFFF52
:108E3000FFFFFFFFAE73B294F7BD2842B294FFFF6D
:108E4000FFFF6D6BEB5AFFFF518C0000518CFFFF51
:108E5000FFFFFFFFFFFFFFFFFFFFF39C0000A210DB
:108E60005DEF5DEF65296108C73982103084FFFF2F
:108E700014A56D6B7DEFFFFFFFFFFFFFFFFFFFFFFF
:108E8000FFFFFFFFFFFFFFFFFFFFFFFFFFFFFFFFF2
:108E9000DFFFFFFFFFFFFFFFDFFFFFFFFFFFFFFF22
:108EA000FFFFFFFFDFFFFFFFFFFFFFFFFFFFFFFFF2
:108EB000FFFFFFFFFFFFFFFFFFFFFFFFFFFFFFFFC2
:108EC000FFFFFFFFFFFFFFFFFFFFFFFFFFFFFFFFB2
:108ED000FFFFFFFFFFFFDEFFFFFFFFFFFFFFFFFFC3
:108EE000DFFFFFFFFFFFFFFFFFFFFFFFFFFFFFFFB2
:108EF000FFFFFFFFFFFFFFFFFFFFFFFFFFFFFFFF82
:108F0000FFFFFFFFFFFFFFFFFFFFFFFFFFFFFFFF71
:108F1000FFFFFFFFFFFFFFFFFFFFFFFFFFFFFFFF61
:108F2000FFFFFFFFDFFFFFFFDFFFDFFFFFFFDFFFD1
:108F3000FFFFFFFFFFFFFFFFFFFFFFFFFFFFFFFF41
:108F4000FFFFFFFFDFFFFFFFFFFFFFFFFFFFFFFF51
:108F5000FFFFFFFFFFFFFFFFFFFFFFFFFFFFFFFF21
:108F6000DFFFDFFFFFFFFFFFFFFFDFFFFFFFFFFF71
:108F7000FFFFFFFFFFFFFFFFFFFFDEFFFFFFFFFF22
:108F8000FFFFFFFFFFFFFFFFFFFFFFFFFFFFDFFF11
:108F9000FFFFFFFFFFFFFFFFFFFFFFFFFFFFFFFFE1
:108FA000FFFFFFFFFFFFFFFFFFFFFFFFFFFFFFFFD1
:108FB000FFFFFFFFFFFFFFFFFFFFFFFFFFFFFFFFC1
:108FC000FFFFFFFFFFFFFFFFFFFFFFFFFFFFFFFFB1
:108FD000FFFFFFFFFFFFFFFFFFFFFFFFFFFFFFFFA1
:108FE000FFFFFFFFFFFFFFFFFFFFFFFFFFFFFFFF91
:108FF000FFFFFFFFFFFFFFFFFFFFFFFFFFFFFFFF81
:10900000FFFFFFFFFFFFFFFFFFFFFFFFFFFFFFFF70
:10901000FFFFFFFF8E73EF7BFFFF34A5E318A63140
:10902000E318821059CEFFFFC7390000CF7BFFFF46
:10903000FFFFFFFFFFFFDFFFFFFFB2940000000014
:109040008A52FFFFDFFF8E732000000055ADFFFF47
:10905000B2946D6B7DEFFFFFFFFFFFFFFFFFFFFF90
:10906000FFFFFFFFFFFFFFFFFFFFFFFFFFFFFFFF10
:10907000FFFFFFFFFFFFFFFFFFFFFFFFFFFFFFFF00
:10908000FFFFFFFFFFFFFFFFFFFFFFF7FFFFFFFFF8
:10909000FFFFFFFFFFFFFFFFFFFFFFFFFFFFFFFFE0
:1090A000FFFFFFFFFFFFFFFFFFFFFFFFFFFFFFFFD0
:1090B000FFFFFFFFFFFFFFFFFFFFFFFFFFFFFFFFC0
:1090C000DFFFDFFFFFFFFFFFFFFFFFFFFFFFFFFFF0
:1090D000FFFFFFFFDFFFFFFFFFFFFFFFFFFFFFFFC0
:1090E000FFFFFFFFFFFFFFFFFFFFFFFFFFFFFFF798
:1090F000FFFFFFFFFFFFFFFFFFFFDFF7FFFFFFFFA8
:10910000FFFFFFFFFFFFFFFFFFFFFFFFFFFFFFFF6F
:10911000FFFFFFFFFFFFFFFFFFFFFFFFFFFFFFFF5F
:10912000FEFFDFFFDFFFDFFFFFFFFFF7FFFFFFFFB8
:10913000DFFFFFFFFFFFFFFFFFFFFFFFFFFFFFFF5F
:10914000FFFFFFFFDFFFDFFFFFFFFFFFFFFFDFFF8F
:10915000DFFFFFFFFFFFDFFFFFFFFFFFFFFFFFFF5F
:10916000FFFFFFFFFFFFFFFFFFFFFFFFFFFFFFFF0F
:10917000FFFFFFFFFFFFFFFFFFFFFFFFFFFFFFFFFF
:10918000FFFFFFFFFFFFFFFFFFFFFFFFFFFFFFFFEF
:10919000FFFFFFFFFFFFFFFFFFFFFFFFFFFFFFFFDF
:1091A000FFFFFFFFFFFFFFFFFFFFFFFFFFFFFFFFCF
:1091B000FFFFFFFFFFFFFFFFFFFFFFFFFFFFFFFFBF
:1091C000FFFFFFFFFFFFFFFFFFFFFFFFFFFFFFFFAF
:1091D000FFFFFFFFFFFFFFFFFFFFFFFFFFFFFFFF9F
:1091E000FFFFFFFFFFFFFFFFFFFFFFFFFFFFFFFF8F
:1091F000FFFFFFFF8E731084FFFF18C620000000E2
:10920000CB5A3CE7FFFF8E73000000003084FFFF65
:10921000FFFFDFFFFFFFFFFFFFFF96B56D6B6529C7
:109220000000EB5AFFFFFFFFDBDEE7394D6BDFFF8E
:1092300014A56D6B7DEFFFFFFFFFFFFFFFFFFFFF3B
:10924000FFFFFFFFFFFFFFFFFFFFFFFFDFFFFFFF4E
:10925000FFFFDFFFFFFFFFFFFFFFFFFFFFFFFFFF3E
:10926000DFFFFFFFFFFFBEFFFFFFFFFFFFFFFFFF6F
:10927000FFFFFFFFFFFFFFFFFFFFFFFFFFFFFFFFFE
:10928000FFFFFFFFFFFFFFFFFFFFFFFFDFFFFFFF0E
:10929000FFFFFFFFFFFFFFFFFFFFDFFFFFFFFFFFFE
:1092A000DFFFDFFFFFFFDFF7FFFFFFFFFFFFFFFF36
:1092B000FFFFFFFFFFFFDFFFFFFFFFFFFFFFFFFFDE
:1092C000FFFFFFFFFFFFFFFFFFFFDFFFFFFFFFFFCE
:1092D000FFFFFFFFFFFFFFFFFFFFFFFFFFFFFFFF9E
:1092E000FFFFFFFFFFFFFFFFFFFFFFFFFFFFDEFFAF
:1092F000FFFFFFFFFFFFFFFFFFFFFFFFFFFFFEFF7F
:10930000FEFFDEFFFFFFFFFFFFEFFFF7FFFFFFFFA7
:10931000FFFFDFFFFFFFFFFFFFFFFFFFFFF7FFFF85
:10932000FFFFFFFFFFFFFFFFFEF7FFFFFFFFFFFF56
:10933000FFFFFFFFFFFFFFF7FFFFDFFFFFFFFFFF65
:10934000DFFFFFFFFFFFFFFFFFFFFFFFFFFFFFFF4D
:10935000FFFFFFFFFFFFFFF7FFFFFFFFFFFFFFFF25
:10936000FFFFDFFFFFFFFFFFFFFFFFFFFFFFFFFF2D
:10937000FFFFFFFFFFFFFFFFFFFFFFFFFFFFFFFFFD
:10938000FFFFFFFFFFFFFFFFFFFFFFFFFFFFFFFFED
:10939000FFFFFFFFFFFFFFFFFFFFFFFFFFFFFFFFDD
:1093A000FFFFFFFFFFFFFFFFFFFFFFFFFFFFFFFFCD
:1093B000FFFFFFFFFFFFFFFFFFFFFFFFFFFFFFFFBD
:1093C000FFFFFFFFFFFFFFFFFFFFFFFFFFFFFFFFAD
:1093D000FFFFFFFF6D6BEF7BFFFF30846529F7BD5B
:1093E000FFFFFFFFAE73000041088A5275ADBEF764
:1093F000FFFFFFFFFFFFFFFFFFFFB6B5A6314108EC
:10940000000000000C639EF7FFFFFBDEBAD6FFFFF3
:10941000D39C4D6B7DEFFFFFFFFFFFFFFFFFFFFFC3
:10942000FFFFFFFFFFFFFFFFFFFFDFFFFFFFFFFF6C
:10943000DFFFFFFFFFFFDFFFFFFFFFFFFFFFFFFF7C
:10944000FFFFFFFFFFFFFFFFFFFFDEFFFFFFFFFF4D
:10945000FFFFDFFFFFFFFFFFFFFFFFFFFFFFFFFF3C
:10946000FFFFFFFFFFFFFFF7FFFFFFFFDFFFDFFF54
:10947000FFFFFFF7FFFFFFF7FFFFFFFFFFFFFFFF0C
:10948000DFFFFFFFFFFFFFFFFFFFFFFFFEFFFEFF0E
:10949000DEFFFFFFFFF7FFF7FFFFDFFFFFFFFFFF2D
:1094A000FFFFFFFFFFFFFFFFDFFFFFFFFFFFFFFFEC
:1094B000FFFFFFFFFFFFFFFFFFFFFFFFDEFFFDFFDF
:1094C000FEFFFEFFFFFFFFFFFFFFFFFFFFFFFFFFAE
:1094D000FFFFFFFFFFFFFFFFFFFFFEFFFEFFBDFFE0
:1094E000AD7B000000000100326CFFEFFFFFDFFFEB
:1094F000DFFFFFFFFFFFBEF7FFFFFFFFFFFFFFFFE5
:10950000FFFFFFFFFFFFFFFFFFFFFEFFFFFFFFFF6C
:10951000BEFFFFFFFFFFFFFFFFFFFFFFFFFFFFFF9C
:10952000DFFFFFFFFFFFFFFFFFFFFFFFFFFFBEFFAC
:10953000FFFFDFFFFFF7FFF7DFF7FFFFFFFFFFFF93
:10954000FFFFFFFFFFFFFFFFFFFFFFFFFFFFFFFF2B
:10955000FFFFFFFFFFFFFFFFFFFFFFFFFFFFFFFF1B
:10956000FFFFFFFFFFFFFFFFFFFFFFFFFFFFFFFF0B
:10957000FFFFFFFFFFFFFFFFFFFFFFFFFFFFFFFFFB
:10958000FFFFFFFFFFFFFFFFFFFFFFFFFFFFFFFFEB
:10959000FFFFFFFFFFFFFFFFFFFFFFFFFFFFFFFFDB
:1095A000FFFFFFFFFFFFFFFFFFFFFFFFFFFFFFFFCB
:1095B000FFFFFFFFAE73EF7BFFFFBAD679CEFFFF51
:1095C000FFFFAE73000000000000C31834A5FFFFCA
:1095D000FFFFFFFFFFFFFFFFFFFF9EF7EB5AA21009
:1095E000C31800000000E73918C6DFFFFFFFFFFFC8
:1095F000518C6D6B7DEFFFFFFFFFFFFFFFFFFFFF54
:10960000FFFFFFFFFFFFFFFFFFFFFFFFFFFFDFFF8A
:10961000FEFFDDFFFBF6B2AC85310000200000004C
:1096200022000A3A999DFFF7FEFFD5CD2C6B0C6303
:109630002D632D6B2C6B2C632D632D632C6B2C6396
:109640002C634D5B4F5B98A5FFFFFEFFD5D50A73DA
:109650004D6B6F637FD7FFF7FFF7FEFFFFFFFFFF45
:10966000FFFFFFFFFFFFFFFFFFFFFEFFBCFFB4CDCB
:109670000C6B4E637374FFE7FFFFFFFFFEFFDDFF20
:10968000D8E66C736110000000004200EE52BDCEBF
:10969000FFF7FFF7FFFFFFFFFFFFFFFFFDFFDCFF0F
:1096A000B3C5A4390000010001000932B7A5FFF7D6
:1096B000FFFFFFFFFFFFFFFFFFFFFEFFBBFF255A7E
:1096C0002000200000000000116CFFEFFFFFFFFFF3
:1096D000FFFFFFFFFFFFFEFFBDFFAE8B0E63748435
:1096E0009FE7FFFFFFFFDFFFFFFFFFF7FFFFFEFF2B
:1096F000FDFFDCFFF9EE0642AD3AFFE7FFF7DFFFC3
:10970000FFFFFFFFFFFFFFFFFFFFFFFFFEFFFEFF6B
:10971000DDFFFBEE293AAC42FFF7FFFFFFFFFFFF43
:10972000FFFFFFFFFFFFFFFFFFFFFFFFFFFFFFFF49
:10973000FFFFFFFFFFFFFFFFFFFFFFFFFFFFFFFF39
:10974000FFFFFFFFFFFFFFFFFFFFFFFFFFFFFFFF29
:10975000FFFFFFFFFFFFFFFFFFFFFFFFFFFFFFFF19
:10976000FFFFFFFFFFFFFFFFFFFFFFFFFFFFFFFF09
:10977000FFFFFFFFFFFFFFFFFFFFFFFFFFFFFFFFF9
:10978000FFFFFFFFFFFFFFFFFFFFFFFFFFFFFFFFE9
:10979000FFFFFFFF6D6BAE73FFFFFFFFFFFF9AD66A
:1097A000494A20000000A210E3188A529AD6DFFF2F
:1097B000FFFFFFFFFFFFFFFFFFFFFFFFEF7B6D6B73
:1097C000D39C863100000000EB5ABEF7FFFFFFFF7D
:1097D00092944D6B7DEFFFFFFFFFFFFFFFFFFFFF49
:1097E000FFFFFFFFFFFFFFFFFFFFFFFFFFFFFFFF89
:1097F000DDFFD1B441180008000020000000000087
:1098000001000200AA219FE7FEFFD1AC000000008A
:109810000000000000000000000001000000000047
:10982000000000000200F273FFFFFEFFB0B4001062
:1098300000000100346CFFEFFFF7FEFFFFFFFFFFAA
:10984000FFFFFFFFFFFFFFFFFFFFDEFFBBFFA030BB
:1098500000000100EA19DFD7FFFFDEFFDDFFF1ACFA
:1098600000000000000000000000000001004300B4
:109870003895FFF7FFFFFFFFFFFFFFFFF9EE0452F0
:109880000008000000000000000020002000A721C8
:10989000BFEFFFFFFFFFDFF7FFFFFEFF8EB40018F3
:1098A0002000368DFFFFFFFF1DD7FFF7FFFFFFFFF3
:1098B000FFFFDFFFFEFFDDFFD5DD001002008A2184
:1098C000FFEFFFF7FFFFFFFFFFFFFFFFFFFFFEFFC1
:1098D000BDFFAC8B00100000CE32FFDFFFF7FFFFB3
:1098E000FFFFFFFFFFFFFFFFFEFFFEFFFEFFBDFFCD
:1098F000AD8B00002200AC3AFFF7FFFFFFFFFFFF38
:10990000FFFFFFFFFFFFFFFFFFFFFFFFFFFFFFFF67
:10991000FFFFFFFFFFFFFFFFFFFFFFFFFFFFFFFF57
:10992000FFFFFFFFFFFFFFFFFFFFFFFFFFFFFFFF47
:10993000FFFFFFFFFFFFFFFFFFFFFFFFFFFFFFFF37
:10994000FFFFFFFFFFFFFFFFFFFFFFFFFFFFFFFF27
:10995000FFFFFFFFFFFFFFFFFFFFFFFFFFFFFFFF17
:10996000FFFFFFFFFFFFFFFFFFFFFFFFFFFFFFFF07
:10997000FFFFFFFF8E73AE73FFFFFFFFFFFFCF7B85
:1099800000000000A21092941084AE73DFFFFFFF6E
:10999000DFFFFFFFFFFFFFFFFFFFFFFF10848210CD
:1099A000B6B5B6B500000000B294FFFFFFFFFFFFA1
:1099B000518C6D6B5DEFFFFFFFFFFFFFFFFFFFFFB0
:1099C000FFFFFFFFFFFFFFFFFFFFFFFFFFFFFEFFA8
:1099D000D1B4001002004400527CBACEFAD6D9D6D7
:1099E000D29CE84189299FF7DFFFD5CD4C6B4C63B2
:1099F0002C632B6B0A736018010043002D632C5BF2
:109A00004C632D5B2E5B98ADFFFFDDFFF0B40010C3
:109A10000008010086007FCFFFF7FFFFFFFFFFFF79
:109A2000FFFFFFFFFFFFFFFFFFFFDDFFD3DD0010A4
:109A300000082100CA11DFD7FFF7DEFFFCFFF0AC02
:109A400065193595FCDEFFFF1AF7B4C560200000EC
:109A500045005DB6FFF7FFFFFFFFDEFF8B830008C9
:109A6000852996A5FCE6DEFFB8DE675200080000F7
:109A7000146CFFEFFFF7FFFFFFFFBCFF456A00100C
:109A8000C819DFD7FFF7FFFFFFFFFFFFFFFFFFFF53
:109A9000FFFFFEFFFDFF9BFFC23800082300A9194E
:109AA000DFE7FFF7FFFFFFFFFEFFFEFFFBF68E8BFA
:109AB0004110000800080000CE32FFDFFFF7FFFF73
:109AC000FFFFFFFFFFFFFFFFDDFF19F7AC8360180B
:109AD000000800002300CD3AFFF7FFFFFFFFFFFF64
:109AE000FFFFFFFFFFFFFFFFFFFFFFFFFFFFFFFF86
:109AF000FFFFFFFFFFFFFFFFFFFFFFFFFFFFFFFF76
:109B0000FFFFFFFFFFFFFFFFFFFFFFFFFFFFFFFF65
:109B1000FFFFFFFFFFFFFFFFFFFFFFFFFFFFFFFF55
:109B2000FFFFFFFFFFFFFFFFFFFFFFFFFFFFFFFF45
:109B3000FFFFFFFFFFFFFFFFFFFFFFFFFFFFFFFF35
:109B4000FFFFFFFFFFFFFFFFFFFFFFFFFFFFFFFF25
:109B5000FFFFFFFF8E73EF7BDFFFFFFFFFFFB6B559
:109B60004108000014A538C6C318EB5AFFFFFFFFD9
:109B7000FFFFFFFFFFFFFFFFFFFFDFFF308400005D
:109B8000EB5A9EF7AA520000518CFFFFFFFFFFFF28
:109B9000D39C4D6B5DEFFFFFFFFFFFFFFFFFFFFF5C
:109BA000FFFFFFFFFFFFFFFFFFFFFEFFFDFFBCFF0B
:109BB000A02800088921BFDFFFF7FFFFFEF7FEFFA7
:109BC000FEFFFFFF1EE7DFFFDFFFFEFFDFFFFFFF00
:109BD000FFFFFEFFDCFF475A0200AA21BFE7FFF7A5
:109BE000FFFFFFFFFFFFFFFFDFF7FFFFAEAC001837
:109BF0002339830824005995FFEFFFF7FFFFFFFF8C
:109C0000FFFFFFFFFFFFFFFFFDFFBCFF465A0010F5
:109C100084312000CA11FFDFFFF7FFFFFDFF3AEF9D
:109C2000DFEFFFEFFFFFFFFFDDFFDCFFD4D5000814
:109C30000400356CFFF7DFFFFFFFFFFF6B7B32ADEA
:109C4000FFF7FFF7FFFFFFFFFDFFFCFF8B83000027
:109C500085009FCFFFF7FFFFFEFFBCFF056A0010E6
:109C6000AD3AFFDFFFF7DFFFFFFFFFFFFFFFFFFF63
:109C7000FFFFFEFFFCFFCFAC001000002300A91186
:109C8000FFEFFFF7FFFFFFFFDDFF16D60008011013
:109C900001006629C6492008AE32FFDFFFF7FFFF4B
:109CA000DFFFFFFFFFFFFFFFF6D5001000080008F1
:109CB0004331283A2300CE32FFF7FFFFFFFFFFFFBB
:109CC000FFFFFFFFFFFFFFFFFFFFFFFFFFFFFFFFA4
:109CD000FFFFFFFFFFFFFFFFFFFFFFFFFFFFFFFF94
:109CE000FFFFFFFFFFFFFFFFFFFFFFFFFFFFFFFF84
:109CF000FFFFFFFFFFFFFFFFFFFFFFFFFFFFFFFF74
:109D0000FFFFFFFFFFFFFFFFFFFFFFFFFFFFFFFF63
:109D1000FFFFFFFFFFFFFFFFFFFFFFFFFFFFFFFF53
:109D2000FFFFFFFFFFFFFFFFFFFFFFFFFFFFFFFF43
:109D3000FFFFFFFF8E738E73FFFFFFFFFFFF55AD29
:109D40000000C739BEF7CF7B20000C63FFFFFFFF89
:109D5000FFFFFFFFDFFFDFFFFFFF5DEF694A00004E
:109D6000A210FBDE59CE2000A21079CEFFFFFFFF2C
:109D7000718C4D6B5DEFFFFFFFFFFFFFFFFFFFFFEC
:109D8000FFFFFFFFFFF7FFF7FFFFFDFFDCFFF4DD45
:109D9000000820005895FFEFFFFFFFFFFFFFFFFFC8
:109DA000FEFFFFFFFFFFDFFFFFFFFFFFFFFFFFFFE4
:109DB000FFFFFEFFBAFF26620300AA19FFE7FFF7C5
:109DC000FFFFFFFFFFFFFFFFFFFFFFFFF0B40018E3
:109DD0002010EC5A03008A21FFEFFFF7FFFFFFFF7F
:109DE000FFFFFFFFFFFFFDFFFBFFF4D50000210099
:109DF000E8622000EA19BFD7FFF7FFFFFEFFFEFF72
:109E0000FFFFFFFFFFFFFFFFFFFFFDFFBBFFC120C5
:109E10004400CF3AFFF7FFFFFFFFFFFFFEFFFEFF0B
:109E2000FFFFFFFFFFFFFFFFFEFFFDFF13DE000848
:109E30002300798DFFF7FEFFFEFFDDFF466A00106D
:109E4000F26BFFE7FFFFFFFFFFFFDFFFFFFFFFFFFB
:109E5000FFFFFDFFD7F66020401087292400CB19B3
:109E6000BFE7FFFFFFFFFFFFDDFF16CE0000461933
:109E700096A5FEFF47620008AE32FFDFFFF7FFFF47
:109E8000FFFFFFFFFFFFDEFF17DE0008452195AD56
:109E9000DCFF67522300CE32FFF7FFFFFFFFFFFF1B
:109EA000FFFFFFFFFFFFFFFFFFFFFFFFFFFFFFFFC2
:109EB000FFFFFFFFFFFFFFFFFFFFFFFFFFFFFFFFB2
:109EC000FFFFFFFFFFFFFFFFFFFFFFFFFFFFFFFFA2
:109ED000FFFFFFFFFFFFFFFFFFFFFFFFFFFFFFFF92
:109EE000FFFFFFFFFFFFFFFFFFFFFFFFFFFFFFFF82
:109EF000FFFFFFFFFFFFFFFFFFFFFFFFFFFFFFFF72
:109F0000FFFFFFFFFFFFFFFFFFFFFFFFFFFFFFFF61
:109F1000FFFFFFFFAE73AE73FFFFFFFF1CE786314D
:109F20000000F39C1CE7E73900008631DBDEDFFF31
:109F3000FFFFFFFFFFFFFFFFFFFFB6B54108000077
:109F4000000055AD5DEFE3180000B6B5FFFFFFFF61
:109F500092944D6B5DEFFFFFFFFFFFFFFFFFFFFFE1
:109F6000FFFFFFFFFFFFFFF7DEF7FDFFDBFFF4DD85
:109F7000000800007995FFE7FFFFDEFFFFFFFFFF0E
:109F8000FFFFFFFFDFFFFFFFFFFFFFFFFFFFFFFF01
:109F9000DFF7FEFF99FF266203008A11FFE7FFF754
:109FA000FFFFFFFFFFFFFFFFFFFFFFFFAFB400104A
:109FB000411036AD020003007BBEFFEFFFFFFFFF45
:109FC000FFFFFFFFFFFFFDFFDAFF6A830200AC42E5
:109FD0008A730000C919FFDFFFFFFFFFFFFFFFFFCC
:109FE000FFFFFFFFFFFFFFFFFFFFFEFFBAFF46522D
:109FF00023008E32FFF7FFFFFFFFFFFFFFFFFFFF92
:10A00000FFFFFFFFFFFFFFFFDFFFFDFFD6F6602032
:10A0100043005895FFFFFDFFFEFFDDFF265A0008B5
:10A02000127CFFEFDFF7FFFFFFFFFFFFFFFFFFFFE8
:10A03000DDFFFDFF465A0008ED83AE6B04008A1970
:10A04000DFE7FFFFFFFFDEFFFDFF3BEFBBCEFFF7CC
:10A05000FFF7DDFF25620010CE42FFE7FFF7FFFFAD
:10A06000FFFFFFFFFFFFFFFF1CF79ADEFFF7FFFF79
:10A07000BBFF665A2200CE32FFF7FFFFFFFFFFFF54
:10A08000FFFFFFFFFFFFFFFFFFFFFFFFFFFFFFFFE0
:10A09000FFFFFFFFFFFFFFFFFFFFFFFFFFFFFFFFD0
:10A0A000FFFFFFFFFFFFFFFFFFFFFFFFFFFFFFFFC0
:10A0B000FFFFFFFFFFFFFFFFFFFFFFFFFFFFFFFFB0
:10A0C000FFFFFFFFFFFFFFFFFFFFFFFFFFFFFFFFA0
:10A0D000FFFFFFFFFFFFFFFFFFFFFFFFFFFFFFFF90
:10A0E000FFFFFFFFFFFFFFFFFFFFFFFFFFFFFFFF80
:10A0F000FFFFFFFF6D6BCF7BFFFFFFFFBAD6E318BB
:10A100000000BAD618C6410800000000D39CFFFF2B
:10A11000FFFFFFFFFFFFFFFFFFFF34A52000000050
:10A120000000CF7BDBDE4529A6319EF7DFFFFFFF76
:10A1300092946D6B5DEFFFFFFFFFFFFFFFFFFFFFDF
:10A14000FFFFFFFFFFFFFFFFFFFFFDFFFCFFD8EE5C
:10A15000602000008E3AFFEFFFF7FFFFFFFFFFFFD9
:10A16000FFFFDFFFDFFFFFFFFFFFFFFFFFFFFFFF3F
:10A17000FFFFFEFFBAFF26620200CA19FFE7FFF7E2
:10A18000FFFFFFFFFFFFFFFFFFFFDEFFAFB4001089
:10A1900042001EDFA32000088D3AFFE7FFF7FFFF14
:10A1A000FFFFFFFFFFFFFEFFD7FE60202300789533
:10A1B0008A7B2008C819BFD7FFFFDFFFFFFFFFFF23
:10A1C000DFF7FFFFFFFFFFFFDFFFFEFF79FF01313A
:10A1D0002200798DFFF7FFFFFFFFDFFFFFFFFFFF8B
:10A1E000FFFFFFFFFFFFFFFFFFFFDDFF13DE0008A4
:10A1F00043005CBEFDFF14D600000000000000001C
:10A20000000002002400A919DFE7FFF7FFFFFEFFAF
:10A21000DCFFD0AC0100A729BBFF6B7323008A19B8
:10A22000FFEFFFF7FFFFFFFFFEFFFEFFFFFFFFFF58
:10A23000FEFFFDFF456A0010AD3AFFE7FFF7FEFFA6
:10A24000FFFFFFFFFFFFFFFFDFFFFFFFFFFFFEFF3F
:10A25000DAFF255A2300CF32FFF7FFFFFFFFFFFF92
:10A26000FFFFFFFFFFFFFFFFFFFFFFFFFFFFFFFFFE
:10A27000FFFFFFFFFFFFFFFFFFFFFFFFFFFFFFFFEE
:10A28000FFFFFFFFFFFFFFFFFFFFFFFFFFFFFFFFDE
:10A29000FFFFFFFFFFFFFFFFFFFFFFFFFFFFFFFFCE
:10A2A000FFFFFFFFFFFFFFFFFFFFFFFFFFFFFFFFBE
:10A2B000FFFFFFFFFFFFFFFFFFFFFFFFFFFFFFFFAE
:10A2C000FFFFFFFFFFFFFFFFFFFFFFFFFFFFFFFF9E
:10A2D000FFFFFFFF8E738E73FFFFFFFFFFFFCB5A61
:10A2E000A21079CED39C000000000000718CDFFF2B
:10A2F000FFFFFFFFFFFFFFFFFFFFB6B5821000006B
:10A3000020002C6396B5E31886315DEFFFFFFFFF59
:10A31000718C4D6B5DEFFFFFFFFFFFFFFFFFFFFF46
:10A32000FFFFFFFFFFFFFFFFFFFFFEFFFDFFDCFF63
:10A330002662000802004F53DFEFFFF7FFF7FFFF31
:10A34000FFFFFFFFFFFFDEFFFFFFFFFFFFFFFFFF3E
:10A35000FFFFDEFFBAFF266202008A19BFE7FFF7A0
:10A36000FFFFFFFFFFFFFFFFFFFFDEFFCFBC00107F
:10A3700063007FDFB1AC001065007FD7FFF7FFFF00
:10A38000FFFFFFFFFEFFDDFFB0B40008A921BFDF24
:10A390008A830008C819DFD7FFFFFFFFDFFFFFFF39
:10A3A000FFFFFFFFDFFFFFFFFFFFDEFF8B830000EC
:10A3B00084009FD7FFFFFFFFFFFFFFFFDFFFFFFFCF
:10A3C000FFFFFFFFFFFFFFFFDEFFDDFFF0B4000830
:10A3D00064007FDFFDFF35DE00000000200000008C
:10A3E000000002000400AA19DFE7FFF7FFFFFDFFEE
:10A3F000B8F6601823005795DBFF8A830200CA2154
:10A40000DFE7FFF7FFF7FFFFFFFFDFFFFFFFFFFFC4
:10A41000FEFFDCFF25620010AD3AFFE7FFF7FFFF0C
:10A42000FFFFFFFFFFFFFFFFFFFFFFFFFFF7FEFF45
:10A430009AFF46622300CF32FFF7FFFFFFFFFFFFC7
:10A44000FFFFFFFFFFFFFFFFFFFFFFFFFFFFFFFF1C
:10A45000FFFFFFFFFFFFFFFFFFFFFFFFFFFFFFFF0C
:10A46000FFFFFFFFFFFFFFFFFFFFFFFFFFFFFFFFFC
:10A47000FFFFFFFFFFFFFFFFFFFFFFFFFFFFFFFFEC
:10A48000FFFFFFFFFFFFFFFFFFFFFFFFFFFFFFFFDC
:10A49000FFFFFFFFFFFFFFFFFFFFFFFFFFFFFFFFCC
:10A4A000FFFFFFFFFFFFFFFFFFFFFFFFFFFFFFFFBC
:10A4B000FFFFFFFF6D6BEF7BFFFFFFFFFFFFEB5A1F
:10A4C000410875AD518C0000000000009294FFFF20
:10A4D000DFFFFFFFBEF7FFFFFFFF96B5410820003B
:10A4E00000006108C318000086319AD6DFFFFFFF25
:10A4F000718C6D6B7DEFFFFFFFFFFFFFFFFFFFFF25
:10A50000FFFFFFFFFFFFFFFFFFFFFFFFDFFFFEFF7C
:10A51000B8F660280008000043003795FFEFFFF70A
:10A52000FFFFFFFFFFFFFFFFFFFFFEFFFFFFFFFF3C
:10A53000FFFFFEFFBAFF255A0300CB19FFE7FFF725
:10A54000FFFFFFFFFFFFFFFFFFFFFEFFCFB400088D
:10A5500064007FD7BCFFA0300300146CFFEFFFF74F
:10A56000FFFFFFFFDCFFDCFFA33001085795FFF77B
:10A570006A830010C819FFDFDFF7FFFFFFFFFEFF50
:10A58000FDFFD9E6DBE6BBDE95B5E741200087217C
:10A590005BB6FFF7FFF7FFFFFFFFFFFFFFFFFFFFC8
:10A5A000FFFFFFFFDEFFFEFFDDFFB8EE61180100D9
:10A5B0008D3AFFEFFFFFBEFFFEFFFDFF265A0008AA
:10A5C0001174FFEFFFF7FFF7FFF7FFFFBCFFDCFFA2
:10A5D000285A01008D3AFFF7DBFF6A8B0200AA19A7
:10A5E000DFDFFFF7FFF7FFFFFFFFFFFFBFFFFFFF0B
:10A5F000FEFFDCFF25620010CD3AFFE7FFF7FFFF0B
:10A60000FFFFFFFFFFFFFFFFFFFFFFFFFFFFFDFF5C
:10A61000BAFF465A2300CF32FFF7FFFFFFFFFFFFCD
:10A62000FFFFFFFFFFFFFFFFFFFFFFFFFFFFFFFF3A
:10A63000FFFFFFFFFFFFFFFFFFFFFFFFFFFFFFFF2A
:10A64000FFFFFFFFFFFFFFFFFFFFFFFFFFFFFFFF1A
:10A65000FFFFFFFFFFFFFFFFFFFFFFFFFFFFFFFF0A
:10A66000FFFFFFFFFFFFFFFFFFFFFFFFFFFFFFFFFA
:10A67000FFFFFFFFFFFFFFFFFFFFFFFFFFFFFFFFEA
:10A68000FFFFFFFFFFFFFFFFFFFFFFFFFFFFFFFFDA
:10A69000FFFFFFFF8E73AE73FFFFFFFFFBDE08427D
:10A6A000000082106108000000000000718CFFFFB4
:10A6B000FFFFDFFFFFFFDFFFFFFF59CE8E738A52E0
:10A6C0008631C739863104212C6359CEFFFFFFFF45
:10A6D000718C6D6B7DEFFFFFFFFFFFFFDFFFFFFF63
:10A6E000FFFFFFFFFFFFFFFFFFFFFFFFFFFFFFFF7A
:10A6F000DDFFF8F6E4490000010002004400F69492
:10A70000FFFFFFFFFFFFFFFFFFFFFFFFFFFFFFFF59
:10A71000FFFFDEFF9AFF466203008A11DFE7FFF7C3
:10A72000FFFFFFFFFFFFFFFFFFFFDEFFCFB40008CB
:10A7300085007FD7DDFF6B8B010064007FDFFFEFBB
:10A74000FFF7FFFFFBFFAFAC020825087FDFFFFF2D
:10A75000698B0010A819DFD7FFF7FFFFFFFFFEFF8F
:10A76000D8EE60180000000000084000727CDFDFB7
:10A77000FFEFFFF7FFFFFFFFFFFFFFFFFFFFFFFF01
:10A78000FFFFFFFFFEFFFDFFD8EE60200100640029
:10A790007FDFFFEFFFFFFFFFFEFFFCFF45620008CA
:10A7A0005374FFE7FFF7FFFFFFFFFEFFDCFFD0B4AE
:10A7B00000008921DFE7FFF7DBFF6A8B0200AA199F
:10A7C000FFE7FFEFFFF7FFFFFFFFFFFFFFFFDFFFE9
:10A7D000FEFFDCFF45620008AD3AFFE7FFF7FFFF31
:10A7E000FFFFFFFFFFFFFFFFFFFFFFFFFFFFFDFF7B
:10A7F00099FF46622300CF32FFFFFFFFFFFFFFFFFD
:10A80000FFFFFFFFFFFFFFFFFFFFFFFFFFFFFFFF58
:10A81000FFFFFFFFFFFFFFFFFFFFFFFFFFFFFFFF48
:10A82000FFFFFFFFFFFFFFFFFFFFFFFFFFFFFFFF38
:10A83000FFFFFFFFFFFFFFFFFFFFFFFFFFFFFFFF28
:10A84000FFFFFFFFFFFFFFFFFFFFFFFFFFFFFFFF18
:10A85000FFFFFFFFFFFFFFFFFFFFFFFFFFFFFFFF08
:10A86000FFFFFFFFFFFFFFFFFFFFFFFFFFFFFFFFF8
:10A87000FFFFFFFF6D6BCF7BFFFFFFFF9AD6EF7BE4
:10A8800024218631E7396529694A6D6BD7BDFFFF01
:10A89000FFFFFFFFFFFFFFFFFFFFFFFFFFFF1CE7C3
:10A8A0002C6314A5F39C8E73FFFFFFFFFFFFFFFFD8
:10A8B00092944D6B7DEFFFFFDFFFFFFFFFFFFFFF78
:10A8C000FFFFFFFFFFFFFFFFFFFFFFFFFFFFFFFF98
:10A8D000DEFFFDFFFCFFB3BD6018000800080100AB
:10A8E0008821DDC6FFEFFFF7FFFFFEFFFFFFFFFF41
:10A8F000FFFFDEFFBAFF46620200AB19DFE7FFF79A
:10A90000FFFFFFFFFFFFFFFFFFFFFEFFAFBC0010D9
:10A9100085007FD7FEFFD8EE402000003895FFEF7E
:10A92000FFF7FEFFDAFF465A0300F56BFFF7DEFF85
:10A93000688B0010C821DFD7FFF7FFFFFFFFFFFF85
:10A94000F9EE2652C63900000008000020008719E1
:10A95000BDBEFFEFFFFFFFFFDFFFFFFFDFFFFFFFDA
:10A96000FFFFFEFFFCFF93C58118010023007CBEA2
:10A97000FFF7FFFFFFFFFFFFFEFFDDFF2562001077
:10A98000126CFFE7FFF7FFFFFEFFFDFFF4DD001095
:10A9900023007DB6FFEFFEFFFAFF6A8303008B19E9
:10A9A000DFE7FFF7FFF7FFFFFFFFFFFFFFFFFFFFFF
:10A9B000FEFFFDFF256A0010AE3AFFE7FFF7FFFF3D
:10A9C000FFFFFFFFFFFFFFFFFFFFFFFFFFFFFDFF99
:10A9D000B9FF45622300CF32FFFFFFFFFFFFFFFFFC
:10A9E000FFFFFFFFFFFFFFFFFFFFFFFFFFFFFFFF77
:10A9F000FFFFFFFFFFFFFFFFFFFFFFFFFFFFFFFF67
:10AA0000FFFFFFFFFFFFFFFFFFFFFFFFFFFFFFFF56
:10AA1000FFFFFFFFFFFFFFFFFFFFFFFFFFFFFFFF46
:10AA2000FFFFFFFFFFFFFFFFFFFFFFFFFFFFFFFF36
:10AA3000FFFFFFFFFFFFFFFFFFFFFFFFFFFFFFFF26
:10AA4000FFFFFFFFFFFFFFFFFFFFFFFFFFFFFFFF16
:10AA5000FFFFFFFF8E73AE73FFFFFFFFFFFFFFFFE0
:10AA6000B294718CB2942C639AD6FFFFFFFFDFFF84
:10AA7000FFFFFFFFFFFFFFFFFFFFFFFFFFFFFBDE0B
:10AA8000EB5AD39CB2944D6BDFFFFFFFFFFFFFFF3C
:10AA900092944D6B7DEFFFFFFFFFFFFFFFFFFFFF76
:10AAA000FFFFFFFFFFFFFFFFBFF7FFFFFFFFFFFFFE
:10AAB000FFFFDEFFFDFFFDFFDCFF90A44018000854
:10AAC000020064009CB6FFEFFFF7FFFFFFFFDFFF10
:10AAD000DFFFFEFFBAFF46620200AB19DFE7FFF7B8
:10AAE000FFFFFFFFFFFFFFFFFFFFFEFFAFBC0010F8
:10AAF00065007FD7FFFFFDFF6A8B0010AA21BFDF33
:10AB0000FFFFFDFF13DE000865009FCFFFFFFEFF84
:10AB100088930010A821FFDFFFF7FFFFFFFFFFFF73
:10AB2000DDFFFDFFFFFFFFFFFEFFF5C52642200012
:10AB30000300799DFFF7FFFFFFFFFFFFFFFFDEFF31
:10AB4000DEFFFDFFAB83000801004719DDC6FFF7FC
:10AB5000FFFFDFFFFFFFFFFFFEFFDDFF256A0010A5
:10AB6000126CFFE7FFF7FFFFDDFFF8EE2018000093
:10AB70003374FFEFFFF7FEFFFBFF6A7B0300AB219F
:10AB8000BFE7FFF7FFF7FFF7FFFFFFFFFFFFFFFF45
:10AB9000FEFFBBFF256A0010AE3AFFE7FFF7FFFF9D
:10ABA000FFFFFFFFFFFFFFFFFFFFFFFFFFFFFDFFB7
:10ABB000B9FF45622300CF32FFFFFFFFFFFFFFFF1A
:10ABC000FFFFFFFFFFFFFFFFFFFFFFFFFFFFFFFF95
:10ABD000FFFFFFFFFFFFFFFFFFFFFFFFFFFFFFFF85
:10ABE000FFFFFFFFFFFFFFFFFFFFFFFFFFFFFFFF75
:10ABF000FFFFFFFFFFFFFFFFFFFFFFFFFFFFFFFF65
:10AC0000FFFFFFFFFFFFFFFFFFFFFFFFFFFFFFFF54
:10AC1000FFFFFFFFFFFFFFFFFFFFFFFFFFFFFFFF44
:10AC2000FFFFFFFFFFFFFFFFFFFFFFFFFFFFFFFF34
:10AC3000FFFFFFFF8E73CF7BFFFFFFFFFFFFFFFFD5
:10AC4000718C308492940C6379CEFFFFFFFFFFFF7D
:10AC5000FFFFFFFFFFFFFFFFFFFFFFFFFFFFFBDE29
:10AC6000EB5AD39C92944D6BDFFFFFFFFFFFFFFF7A
:10AC700092944D6B7DEFFFFFFFFFFFFFFFFFFFFF94
:10AC8000FFFFFFFFFFFFFFFFFFFFFFFFFFFFFFFFD4
:10AC9000FFFFFFFFFEFFFEFFFEFFFEFFDDFFAC83B9
:10ACA0000008000064007FD7FFFFFFFFFFFFFFFFEA
:10ACB000FFFFFEFFDAFF46620200AB21BFE7FFFFA6
:10ACC000FFFFFFFFFFFFFFFFFFFFFDFFAFB400101F
:10ACD00065007FD7FFFFFEFFF3DD000823009EB66F
:10ACE000FFFFDBFF266200088D3AFFE7FFF7DDFF7D
:10ACF000488B0010C919DFDFFFF7FFFFFFFFFFFFE1
:10AD0000FEFFFEFFFFFFFFFFFEFFFDFFDBFF675AB9
:10AD1000010064009FDFFFEFFFF7FFFFDDFFFDFF96
:10AD2000F9F6E551000001000F5BBFEFFFF7FFF7F9
:10AD3000FFFFFFFFFFFFFFFFFEFFDCFF256A0010A4
:10AD4000136CFFE7FFF7FEFFBBFFA0282100AC421A
:10AD5000FFF7FFFFFFFFFEFFDCFF8B830200A9214F
:10AD6000DFEFFFF7FFEFFFEFFFFFFFFFFFFFFEFF4C
:10AD7000FEFFFCFF45620008AD3AFFE7FFF7FFFF6B
:10AD8000FFFFFFFFFFFFFFFFFFFFFFFFFFFFFDFFD5
:10AD9000BAFF465A2300CF32FFF7FFFFFFFFFFFF46
:10ADA000FFFFFFFFFFFFFFFFFFFFFFFFFFFFFFFFB3
:10ADB000FFFFFFFFFFFFFFFFFFFFFFFFFFFFFFFFA3
:10ADC000FFFFFFFFFFFFFFFFFFFFFFFFFFFFFFFF93
:10ADD000FFFFFFFFFFFFFFFFFFFFFFFFFFFFFFFF83
:10ADE000FFFFFFFFFFFFFFFFFFFFFFFFFFFFFFFF73
:10ADF000FFFFFFFFFFFFFFFFFFFFFFFFFFFFFFFF63
:10AE0000FFFFFFFFFFFFFFFFFFFFFFFFFFFFFFFF52
:10AE1000FFFFFFFF6D6BCF7BFFFFFFFFFFFFFFFF1C
:10AE2000518C308492940C6379CEFFFFFFFFFFFFBB
:10AE3000FFFFFFFFFFFFFFFFFFFFFFFFFFFF1CE71D
:10AE4000EB5AD39C92944D6BDFFFFFFFFFFFFFFF98
:10AE500092946D6B7DEFFFFFFFFFFFFFFFFFFFFF92
:10AE6000FFFFFFFFFFFFFFFFFFFFFFFFFFFFFFFFF2
:10AE7000FFFFFFFFDFFFFFFFFFFFFEFFFEFFFDFF06
:10AE8000D0BC000844003564FFF7FFFFFFFFFFFF61
:10AE9000FFFFFEFFDAFF46620200AB21BFEFFFFFBC
:10AEA000FFFFFFFFFFFFFFFFFFFFFDFFCFB400101D
:10AEB00065007FD7FFF7FEFFFBFF465A03008E4277
:10AEC000DEFF19EF611821085BB6FFEFFFF7FDFF0A
:10AED000898B0008C919FFD7FFFFFFFFDFFFFFFFC6
:10AEE000FEFFFFFFFFFFFFFFFFFFFEFFFBFFF4D5AD
:10AEF000000043009BB6FFEFFFF7FEFFFDFFD8EE1B
:10AF000040180008410077A5FFF7DFF7FFFFFFFFBC
:10AF1000FFFFFFFFFFFFFFFFFEFFDCFF246A0010C3
:10AF2000136CFFE7FFF7BDFF456200102100EE4AFA
:10AF30002E634D6B4C634B6B09736441010022001F
:10AF40004D5B4D5B937CDFEFFFFFFFFFFFFFFEFFDD
:10AF5000FEFFDCFF45620008AD3AFFE7FFF7FFFFA9
:10AF6000FFFFFFFFFFFFFFFFFFFFFFFFFFFFFEFFF2
:10AF7000BBFF475A2300CF32FFF7FFFFFFFFFFFF62
:10AF8000FFFFFFFFFFFFFFFFFFFFFFFFFFFFFFFFD1
:10AF9000FFFFFFFFFFFFFFFFFFFFFFFFFFFFFFFFC1
:10AFA000FFFFFFFFFFFFFFFFFFFFFFFFFFFFFFFFB1
:10AFB000FFFFFFFFFFFFFFFFFFFFFFFFFFFFFFFFA1
:10AFC000FFFFFFFFFFFFFFFFFFFFFFFFFFFFFFFF91
:10AFD000FFFFFFFFFFFFFFFFFFFFFFFFFFFFFFFF81
:10AFE000FFFFFFFFFFFFFFFFFFFFFFFFFFFFFFFF71
:10AFF000FFFFFFFF6D6BAE73FFFFFFFFFFFFFFFF64
:10B000003084308492940C6379CEFFFFFFFFFFFF02
:10B01000FFFFFFFFFFFFFFFFFFFFFFFFFFFF1CE73B
:10B02000EB5AD39C92944D6BDFFFFFFFFFFFFFFFB6
:10B0300092946D6B7DEFFFFFFFFFFFFFFFFFFFFFB0
:10B04000FFFFFFFFFFFFFFFFFFFFFFFFFEFFFFFF11
:10B05000DEFFFFFFFFFFFFFFFFFFFFFFFFFFFEFF22
:10B060009AFFC1302400AF2AFFF7FFFFFFFFDFFF89
:10B07000FFFFFEFFBAFF46620200AB21BFE7FFF70A
:10B08000FFFFFFFFFFFFFFFFFFFFFDFFCEB400103C
:10B0900065007FD7FFF7FEFFFBFFD0AC0108230858
:10B0A0003CEF8D7301008821DFEFFFFFDFFFFEFF24
:10B0B00047830008C819FFD7FFF7DFFFFFFFFFFF37
:10B0C000FFFFFFFFFFFFDFFFFFFFFFFFBAFFF7F606
:10B0D000201801007795FFEFFFF7FEFFBAFFC030A1
:10B0E0000100A929DFEFFFFFFFFFFFFFFFF7FFFFD1
:10B0F000FFFFFFFFFFFFFFFFFEFFDCFF246A0010E2
:10B10000136CFFE7FFF7FEFF265A0008000001005E
:10B1100021000000000000000010000801004200B3
:10B120002000200088219FE7FFFFFFFFFFFFFEFFB9
:10B13000FEFFDCFF45620008AD3AFFE7FFF7FFFFC7
:10B14000FFFFFFFFFFFFFFFFFFFFFFFFFFFFFEFF10
:10B15000BBFF475A2300CF32FFF7FFFFFFFFFFFF80
:10B16000FFFFFFFFFFFFFFFFFFFFFFFFFFFFFFFFEF
:10B17000FFFFFFFFFFFFFFFFFFFFFFFFFFFFFFFFDF
:10B18000FFFFFFFFFFFFFFFFFFFFFFFFFFFFFFFFCF
:10B19000FFFFFFFFFFFFFFFFFFFFFFFFFFFFFFFFBF
:10B1A000FFFFFFFFFFFFFFFFFFFFFFFFFFFFFFFFAF
:10B1B000FFFFFFFFFFFFFFFFFFFFFFFFFFFFFFFF9F
:10B1C000FFFFFFFFFFFFFFFFFFFFFFFFFFFFFFFF8F
:10B1D000FFFFFFFF6D6BCF7BFFFFFFFFFFFFFFFF59
:10B1E0003084308492940C6379CEFFFFFFFFFFFF21
:10B1F000FFFFFFFFFFFFFFFFFFFFFFFFFFFF1CE75A
:10B20000EB5AD39C92944D6BDFFFFFFFFFFFFFFFD4
:10B2100092946D6B7DEFFFFFFFFFFFFFFFFFFFFFCE
:10B22000FFFFFFFFFFFFDFFFFFFFFFFFFEFFFEFF50
:10B23000FFFFFFFFDFFFFFFFFFFFFFFFFFFFDEFF5F
:10B240005AFFC1302400CF32FFF7FFFFFFFFFFFF9F
:10B25000FFFFFEFFB9FF45620300AB21BFE7FFF729
:10B26000FFFFFFFFFFFFFFFFFFFFFDFFCEB4000862
:10B2700065007FD7FFEFFEFFFDFFBCFFA32800089E
:10B28000CF83041923005895FFF7FFFFDFFFFEFF70
:10B29000A88B0008C819DFD7FFF7FFFFDFFFFFFF0C
:10B2A000FFFFFFFFFFFFFFFFFFFFFFFFFBFF14DEBE
:10B2B000000823007CBEFFF7FFFFDDFF6A8B001054
:10B2C0008921BFDFFFF7FFFFDFFFFFFFFFFFFFFF6A
:10B2D000FFFFFFFFFFFFFFFFFEFFDCFF256A0010FF
:10B2E000136CFFE7FFFFFFFFF6CD95C5B6B5D7BDE1
:10B2F000D7BDB7B5F6B594BD74CD486201008821BD
:10B3000095A5D7ADF9B5FFF7FFFFFFFFFFFFFEFFE4
:10B31000FEFFDDFF25620008AD3AFFE7FFF7FFFF04
:10B32000FFFFFFFFFFFFFFFFFFFFFFFFFFFFFEFF2E
:10B33000BBFF465A2300CE32FFF7FFFFFFFFFFFFA0
:10B34000FFFFFFFFFFFFFFFFFFFFFFFFFFFFFFFF0D
:10B35000FFFFFFFFFFFFFFFFFFFFFFFFFFFFFFFFFD
:10B36000FFFFFFFFFFFFFFFFFFFFFFFFFFFFFFFFED
:10B37000FFFFFFFFFFFFFFFFFFFFFFFFFFFFFFFFDD
:10B38000FFFFFFFFFFFFFFFFFFFFFFFFFFFFFFFFCD
:10B39000FFFFFFFFFFFFFFFFFFFFFFFFFFFFFFFFBD
:10B3A000FFFFFFFFFFFFFFFFFFFFFFFFFFFFFFFFAD
:10B3B000FFFFFFFF8E73CF7BFFFFFFFFFFFFFFFF4E
:10B3C0003084308492940C6379CEFFFFFFFFFFFF3F
:10B3D000FFFFFFFFFFFFFFFFFFFFFFFFFFFF1CE778
:10B3E000EB5AD39C92944D6BDFFFFFFFFFFFFFFFF3
:10B3F00092946D6B7DEFFFFFFFFFFFFFFFFFFFFFED
:10B40000FFFFFFFFFFFFFFFFDFFFFFFFFDFF1AEF63
:10B410009AD6FFFFFFFFFFFFFFFFFFFFFEFFDDFFED
:10B4200097F6601824003564FFF7FFFFFFFFFFFF6A
:10B43000FFFFFDFFD9FF45620300AB21BFEFFFFF18
:10B44000FFFFFFFFFFFFFFFFFFFFFEFFCEB4001077
:10B4500065007FD7FFF7FFFFFFFFBDFFD0B40010EF
:10B4600000000100AB19DFDFFFF7FFFFFFFFBDFFAB
:10B47000478B0010A921DFDFFFF7DFFFFFFFFFFF92
:10B48000FFFFFFF7FFFFFFFFFFFFDEFFDBFF6B8329
:10B49000020065007FDFFFF7FDFFF8EE40180100B6
:10B4A000599DFFEFFFFFFFFFFFFFFEFFFEFFFFFFC6
:10B4B000FFFFFFFFFFFFFFFFFEFFDCFF256A00101D
:10B4C000126CFFE7FFFFFFFFFFFFDEFFFFFFFFFF45
:10B4D000FFFFFFFFFFFFFEFFDBFF4A830300AA1908
:10B4E000DFE7FFF7FFFFBFF7FFFFFFFFFFFFFFFFF4
:10B4F000FEFFDCFF25620008AD3AFFE7FFF7FFFF24
:10B50000FFFFFFFFFFFFFFFFFFFFFFFFFFFFFEFF4C
:10B51000BAFF455A2200CE32FFF7FFFFFFFFFFFFC1
:10B52000FFFFFFFFFFFFFFFFFFFFFFFFFFFFFFFF2B
:10B53000FFFFFFFFFFFFFFFFFFFFFFFFFFFFFFFF1B
:10B54000FFFFFFFFFFFFFFFFFFFFFFFFFFFFFFFF0B
:10B55000FFFFFFFFFFFFFFFFFFFFFFFFFFFFFFFFFB
:10B56000FFFFFFFFFFFFFFFFFFFFFFFFFFFFFFFFEB
:10B57000FFFFFFFFFFFFFFFFFFFFFFFFFFFFFFFFDB
:10B58000FFFFFFFFFFFFFFFFFFFFFFFFFFFFFFFFCB
:10B59000FFFFFFFF8E73AE73FFFFFFFFFFFFFFFF95
:10B5A00030843084B2942C6379CEFFFFFFFFFFFF1D
:10B5B000FFFFFFFFFFFFFFFFFFFFFFFFFFFF1CE796
:10B5C000EB5AD39C92944D6BBEF7FFFFFFFFFFFF3A
:10B5D00092946D6B7DEFFFFFFFFFFFFFFFFFFFFF0B
:10B5E000FEFFFEFFFFFFFFFFFFFFDFFFFDFF56CE69
:10B5F0000000EC5A7ACEFFFFFFFFFFFFFEFFD6C52B
:10B600008020000045007DAEFFF7FFFFFEFFFFFF3B
:10B61000FFFFFDFFB9FF46620300AB19BFEFFFFF5D
:10B62000FFFFFFFFFFFFFFFFFFFFFEFFCEB4001095
:10B6300065007FD7FFF7FFFFFFFFFEFFB6F660282C
:10B6400000000200146CFFEFFFF7FFFFFFFFFEFF9B
:10B6500088930010A921DFDFFFF7FFFFFAEEE64134
:10B6600099CEFFFFFFF7FFFFFFFFFEFFAC8300084F
:10B670000300F473FFF7FEFFFBFFF4D50008220080
:10B6800079A5FECEDCD6FBDEDADEFADEFADEDBD62C
:10B69000FDD6FEDEFFFFFFFFFEFFFCFF266A001067
:10B6A0001274FFEFFFFFFFFFFFFFFFFFFFFFFFFF32
:10B6B000FFFFFFFFFFFFDEFFDAFF8A8B0300CB19DE
:10B6C000DFE7FFF7FFFFFFFFFFFFFFFFFFFFFFFFCA
:10B6D000FEFFBCFF25620010AD3AFFE7FFF7FFFF5A
:10B6E000FFFFFFFFFFFFFFFFFFFFFFFFFFFFFEFF6B
:10B6F000BAFF455A2200CE32FFF7FFFFFFFFFFFFE0
:10B70000FFFFFFFFFFFFFFFFFFFFFFFFFFFFFFFF49
:10B71000FFFFFFFFFFFFFFFFFFFFFFFFFFFFFFFF39
:10B72000FFFFFFFFFFFFFFFFFFFFFFFFFFFFFFFF29
:10B73000FFFFFFFFFFFFFFFFFFFFFFFFFFFFFFFF19
:10B74000FFFFFFFFFFFFFFFFFFFFFFFFFFFFFFFF09
:10B75000FFFFFFFFFFFFFFFFFFFFFFFFFFFFFFFFF9
:10B76000FFFFFFFFFFFFFFFFFFFFFFFFFFFFFFFFE9
:10B77000FFFFFFFF8E73AE73FFFFFFFFFFFFFFFFB3
:10B780001084308492940C6379CEFFFFFFFFFFFF9B
:10B79000FFFFFFFFFFFFFFFFFFFFFFFFFFFF1CE7B4
:10B7A000EB5AD39C92944D6BDFFFFFFFFFFFFFFF2F
:10B7B00092946D6B7EEFFFFFFFFFFFFFFFFFFFFF28
:10B7C000FFFFFEFFFFFFDFFFFFFFFFFFFCFF35CEA8
:10B7D00000000000000000000008821800000000C7
:10B7E000010043005895FFEFFFFFFFFFFFFFFFFF42
:10B7F000DFFFDEFFBAFF466203008B19DFEFFFFFBA
:10B80000FFFFFFFFFFFFFFFFFFFFFEFFAEB40010D3
:10B8100065007FCFFFF7FFFFFFFFFEFFFBFF6A839F
:10B82000010045007FDFFFEFFFF7FFFFFFFFFEFF97
:10B83000488B0010A921FFDFFFF7FEFFD8F660203C
:10B8400000000000C631E739A531000020000100EA
:10B850002F5BFFF7FFF7FEFFDBFFAFB40000010037
:10B8600000000000000000002000000000000100B7
:10B870000400AB21BFEFFFFFFEFFDCFF25620010DD
:10B88000136CFFE7FFFFFFFFFFFFFFFFFFFFFFFF5F
:10B89000FFFFFFFFFFFFFFFFDAFF8A8B0300CB21D3
:10B8A000DFE7FFF7FFFFFFFFFFFFFFFFFFFFFFFFE8
:10B8B000FEFFFDFF256200108D3AFFE7FFF7FFFF57
:10B8C000FFFFFFFFFFFFFFFFFFFFFFFFFFFFFFFF88
:10B8D000BAFF455A2100CD32FFF7FFFFFFFFFFFF00
:10B8E000FFFFFFFFFFFFFFFFFFFFFFFFFFFFFFFF68
:10B8F000FFFFFFFFFFFFFFFFFFFFFFFFFFFFFFFF58
:10B90000FFFFFFFFFFFFFFFFFFFFFFFFFFFFFFFF47
:10B91000FFFFFFFFFFFFFFFFFFFFFFFFFFFFFFFF37
:10B92000FFFFFFFFFFFFFFFFFFFFFFFFFFFFFFFF27
:10B93000FFFFFFFFFFFFFFFFFFFFFFFFFFFFFFFF17
:10B94000FFFFFFFFFFFFFFFFFFFFFFFFFFFFFFFF07
:10B95000FFFFFFFF8E73AE73FFFFFFFFFFFFFFFFD1
:10B960003084308492940C6379CEFFFFFFFFFFFF99
:10B97000FFFFFFFFFFFFFFFFFFFFFFFFFFFF1CE7D2
:10B98000EB5AD39C92944D6BDFFFFFFFFFFFFFFF4D
:10B9900092946D6B7EEFFFFFFFFFFFFFFFFFFFFF46
:10B9A000FFFFFFFFFFFFFFFFFFFFDEFFFDFFFCFFCD
:10B9B0006D7382100000000000000000010801000B
:10B9C000ED52BCC6FFEFFFF7FFFFFFFFFFFFFFFFDA
:10B9D000FFFFDEFFBCFF06520200CA21DFEFFFF7C8
:10B9E000FFFFFFFFFFFFFFFFFFFFFEFFD0B40008D8
:10B9F00084009FDFFFFFFFFFFFFFFEFFFCFFD9EE8C
:10BA000063088D4AFFF7FFF7FFF7FFF7FFFFFEFF21
:10BA1000AB8B0008A821DFDFFFF7FFFFBCFF4A7BED
:10BA2000000800000000000000000000872198A529
:10BA3000FFFFFFFFFFFFFEFFDBFFCFB400000000B2
:10BA400020080000000020000000000000000100AD
:10BA500024006A21DFF7FFF7FEFFFDFF475A0008C9
:10BA60003274FFEFFFFFFFFFFFFFFFFFFFFFFFFF4E
:10BA7000FFFFFFFFFFFFFFFFFBFF6A7B0200892143
:10BA8000BFEFFFFFFFFFFFFFFFFFFFFFFFFFFFFF16
:10BA9000FEFFFDFF46620008AD42FFE7FFF7FFFF34
:10BAA000FFFFFFFFFFFFFFFFDEFFFFFFFFFFDEFFE8
:10BAB000DCFF665A2100AC3AFFF7DFFFFFFFFFFF14
:10BAC000DFFFFFFFFFFFFFFFFFFFFFFFFFFFFFFFA6
:10BAD000FFFFFFFFFFFFFFFFFFFFFFFFFFFFFFFF76
:10BAE000FFFFFFFFFFFFFFFFFFFFFFFFFFFFFFFF66
:10BAF000FFFFFFFFFFFFFFFFFFFFFFFFFFFFFFFF56
:10BB0000FFFFFFFFFFFFFFFFFFFFFFFFFFFFFFFF45
:10BB1000FFFFFFFFFFFFFFFFFFFFFFFFFFFFFFFF35
:10BB2000FFFFFFFFFFFFFFFFFFFFFFFFFFFFFFFF25
:10BB3000FFFFFFFF8E73AE73FFFFFFFFFFFFFFFFEF
:10BB40003084308492940C6379CEFFFFFFFFFFFFB7
:10BB5000FFFFFFFFFFFFFFFFFFFFFFFFFFFF1CE7F0
:10BB6000EB5AD39C92944D6BDFFFFFFFFFFFFFFF6B
:10BB700092946D6B7DEFFFFFFFFFFFFFFFFFFFFF65
:10BB8000FFFFFFFFFFFFFFFFFFFFFFFFFEFFFEFFC7
:10BB9000FFFFFFFFFEFFD9D6B7B5BBD69BDEFFFF89
:10BBA000FFFFFFF7FFFFFFF7FFFFDFFFDFFFFFFFF5
:10BBB000FFFFFFFFFEFFFFFFFFFFFFFFFFFFFFFF96
:10BBC000FFFFFFFFFFFFDFFFFFFFFFFFDEFFFFFFC6
:10BBD000FFFFFFF7DFFFFFFFFFFFBEFFFFFFFFFFDE
:10BBE000FFFFFFFFFFFFFFFFFFFFFFFFFFFFFFFF65
:10BBF000BDFFFEFFFFFFFFFFFFFFFFFFFFFFFEFF99
:10BC0000FEFF1BEFF7C5B6B5FBD6DFF7FFFFDFF78B
:10BC1000FFFFFFFFDFFFFFFFFEFFFEFFFFFFFFFF56
:10BC2000DFFFFFFFFFFFFFFFFFFFFFFFFFFFFFFF44
:10BC3000DFFFFFFFDFFFFFFFFEFFFEFFFFFFFFFF56
:10BC4000DFFFFFFFFFFFFFFFFFFFFFFFFFFFFFFF24
:10BC5000FFFFFFFFFFFFFFFFDDFFFEFFFFFFFFF71F
:10BC6000FFFFDFF7FFFFFFFFFFFFFFFFFFFFFFFF0C
:10BC7000FEFFFEFFDEFFFFFFFFF7FFF7FFFFFFFF07
:10BC8000FFFFFFFFFFFFFFFFFFFFDEFFFFFFFFFFE5
:10BC9000DDFFFFFFFFF7FFF7FFFFFFFFFFFFDFFF06
:10BCA000FFFFFFFFFFFFFFFFFFFFFFFFFFFFFFFFA4
:10BCB000FFFFFFFFFFFFFFFFFFFFFFFFFFFFFFFF94
:10BCC000FFFFFFFFFFFFFFFFFFFFFFFFFFFFFFFF84
:10BCD000FFFFFFFFFFFFFFFFFFFFFFFFFFFFFFFF74
:10BCE000FFFFFFFFFFFFFFFFFFFFFFFFFFFFFFFF64
:10BCF000FFFFFFFFFFFFFFFFFFFFFFFFFFFFFFFF54
:10BD0000FFFFFFFFFFFFFFFFFFFFFFFFFFFFFFFF43
:10BD1000FFFFFFFF8E73AE73FFFFFFFFFFFFFFFF0D
:10BD20003084308492940C6379CEFFFFFFFFFFFFD5
:10BD3000FFFFFFFFFFFFFFFFFFFFFFFFFFFF1CE70E
:10BD4000EB5AD39C92944D6BDFFFFFFFFFFFFFFF89
:10BD500092946D6B7DEFFFFFFFFFFFFFFFFFFFFF83
:10BD6000FFFFFFFFFFFFFFFFFFFFDFFFFFFFFFFF03
:10BD7000FFFFFFFFFEFFFFFFFFFFFFFFFFFFFFFFD4
:10BD8000FFFFFFFFFFFFFFFFFFFFDFFFFFFFFFFFE3
:10BD9000FFFFFFFFFFFFDFFFFFFFFFFFFFFFFFFFD3
:10BDA000FFFFFFFFFFFFFFFFFFFFFFFFFFFFDFFFC3
:10BDB000FFFFFFFFFFFFFFFFDFFFFFFFFFFFFFFFB3
:10BDC000FFFFFFFFFFFFFFFFFEFFFEFFDFFFFFFFA5
:10BDD000FFFFFFFFFFFFFFFFFFFFFFFFFFFFFFFF73
:10BDE000DEFFFEFFFFFFFFFFFFFFFFFFFFFFFFFF85
:10BDF000FFFFFFFFFFFFDFFFDFFFFFFFFFFFDFFFB3
:10BE0000FFFFFFFFFFFFFFFFFFFFFFFFFFFFFFFF42
:10BE1000FFFFFFFFFFFFFFFFFFFFFFFFFFFFDFFF52
:10BE2000FFFFFFFFFFFFFFFFFFFFFFFFFFFFFFFF22
:10BE3000FFFFFFFFFFFFFFFFFFFFFFFFFFFFFFFF12
:10BE4000FFFFFFFFFFFFFFFFFFFFFFFFFFFFFFFF02
:10BE5000FFFFFFFFFFFFFFFFFFFFFFFFFFFFFFFFF2
:10BE6000FFFFDFFFFFFFFFFFFFFFFFFFDEFFFFFF23
:10BE7000FFFFFFFFFFFFFFF7FFFFFFFFFFFFFFFFDA
:10BE8000FFFFFFFFFFFFFFFFFFFFFFFFFFFFFFFFC2
:10BE9000FFFFFFFFFFFFFFFFFFFFFFFFFFFFFFFFB2
:10BEA000FFFFFFFFFFFFFFFFFFFFFFFFFFFFFFFFA2
:10BEB000FFFFFFFFFFFFFFFFFFFFFFFFFFFFFFFF92
:10BEC000FFFFFFFFFFFFFFFFFFFFFFFFFFFFFFFF82
:10BED000FFFFFFFFFFFFFFFFFFFFFFFFFFFFFFFF72
:10BEE000FFFFFFFFFFFFFFFFFFFFFFFFFFFFFFFF62
:10BEF000FFFFFFFF8E73AE73FFFFFFFFFFFFFFFF2C
:10BF00003084308492940C6379CEFFFFFFFFFFFFF3
:10BF1000FFFFFFFFFFFFFFFFFFFFFFFFFFFFFBDE56
:10BF2000EB5AD39C92944D6BDFFFFFFFFFFFFFFFA7
:10BF300092946D6B7DEFFFFFFFFFFFFFFFFFFFFFA1
:10BF4000FFFFFFFFFFFFFFFFFFFFFFFFFFFFFFFF01
:10BF5000FFFFFFFFFFFFFFFFFFFFFFFFFFFFFFFFF1
:10BF6000FFFFFFFFFFFFFFFFDFFFFFFFFFFFDFF729
:10BF7000FFFFFFFFFFFFFFFFFFFFFFFFFFFFFFFFD1
:10BF8000FFFFFFFFFFFFFFFFFFFFFFFFFFFFFFFFC1
:10BF9000FFFFFFFFFFFFDFFFFFFFFFFFFFFFFFFFD1
:10BFA000FFFFFFFFFFFFFFFFFFFFFFFFFFFFFFFFA1
:10BFB000FFFFFFFFFFFFFFFFFFFFFFFFFFFFFFFF91
:10BFC000FFFFFFFFFFFFFFFFDFFFFFFFFFFFFFFFA1
:10BFD000DEFFFFFFDEFFFFFFFFFFFFFFFFFFFFFFB3
:10BFE000FFFFFFFFFFFFFFFFFFFFFFFFFFFFFFFF61
:10BFF000FFFFFFFFDFFFFFFFFFFFFFFFFFFFFFFF71
:10C00000FFFFFFFFFFFFFFFFFFFFFFFFFFFFFFFF40
:10C01000FFFFFFFFFFFFFFFFFFFFFFFFFFFFDEFF51
:10C02000FFFFFFFFFFFFFFFFFFFFFFFFFFFFFFFF20
:10C03000FFFFFFFFFFFFFFFFFFFFFFFFFFFFFEFF11
:10C04000FFFFFFFFFFFFFFFFFFFFFFFFFFFFDFFF20
:10C05000FFFFFFFFDFFFFFFFFFFFFFFFFFFFFFFF10
:10C06000FFFFFFFFFFFFFFFFFFFFFFFFFFFFFFFFE0
:10C07000FFFFFFFFFFFFFFFFFFFFFFFFFFFFFFFFD0
:10C08000FFFFFFFFFFFFFFFFFFFFFFFFFFFFFFFFC0
:10C09000FFFFFFFFFFFFFFFFFFFFFFFFFFFFFFFFB0
:10C0A000FFFFFFFFFFFFFFFFFFFFFFFFFFFFFFFFA0
:10C0B000FFFFFFFFFFFFFFFFFFFFFFFFFFFFFFFF90
:10C0C000FFFFFFFFFFFFFFFFFFFFFFFFFFFFFFFF80
:10C0D000FFFFFFFF8E73AE73FFFFFFFFFFFFFFFF4A
:10C0E0003084308492940C6379CEFFFFFFFFFFFF12
:10C0F000FFFFFFFFFFFFFFFFFFFFFFFFFFFFFBDE75
:10C10000EB5AD39C92944D6BDFFFFFFFFFFFFFFFC5
:10C1100092946D6B7DEFFFFFDFFFFFFFFFFFFFFFDF
:10C12000FFFFFFFFFFFFFFFFFFFFFFFFFFFFFFFF1F
:10C13000FFFFFFFFFFFFDFFFFFFFFFFFFFFFFFFF2F
:10C14000FFFFFFFFFFFFFFFFFFFFFFFFFFFFFFFFFF
:10C15000FFFFFFFFFFFFFFFFFFFFDFF7FFFFFFFF17
:10C16000FFFFFFFFFFFFFFFFFFFFFFFFFFFFFFFFDF
:10C17000FFFFFFFFDFFFFFFFFFFFFFFFFFFFFFFFEF
:10C18000FFFFDFFFFFFFFFFFFFFFDFFFDFFFFFFF1F
:10C19000FFFFFFFFFFFFFFFFFFFFFFFFFFFFFFFFAF
:10C1A000FFFFDFFFFFFFFFFFFFFFDFFFFFFFFFFFDF
:10C1B000FFFFFFFFFFFFDFFFFFFFFFFFFFFFFFFFAF
:10C1C000FFFFFFFFFFFFFFFFFFFFFFFFFFFFFFFF7F
:10C1D000FFFFDFFFFFFFFFFFFFFFFFFFDFFFFFFFAF
:10C1E000FFFFFFFFFFFFFFFFFFFFFFFFFFFFFFFF5F
:10C1F000FFFFFFFFFFFFFFFFFFFFFFFFFFFFFFFF4F
:10C20000FFFFFFFFFFFFFFFFFFFFFFFFFFFFFFFF3E
:10C21000FFFFFFFFFFFFFFFFFFFFFFFFFFFFFFFF2E
:10C22000FFFFFFFFFFFFFFFFFFFFFFFFFFFFFFFF1E
:10C23000FFFFFFFFFFFFFFFFDFFFFFFFDFFFFFFF4E
:10C24000FFFFFFFFFFFFFFFFFFFFFFFFFFFFFFFFFE
:10C25000FFFFFFFFFFFFFFFFFFFFFFFFFFFFFFFFEE
:10C26000FFFFFFFFFFFFFFFFFFFFFFFFFFFFFFFFDE
:10C27000FFFFFFFFFFFFFFFFFFFFFFFFFFFFFFFFCE
:10C28000FFFFFFFFFFFFFFFFFFFFFFFFFFFFFFFFBE
:10C29000FFFFFFFFFFFFFFFFFFFFFFFFFFFFFFFFAE
:10C2A000FFFFFFFFFFFFFFFFFFFFFFFFFFFFFFFF9E
:10C2B000FFFFFFFF8E73AE73FFFFFFFFFFFFFFFF68
:10C2C0003084308492940C6379CEFFFFFFFFFFFF30
:10C2D000FFFFFFFFFFFFFFFFFFFFFFFFFFFF1CE769
:10C2E000EB5AD39C92944D6BDFFFFFFFFFFFFFFFE4
:10C2F00092946D6B7DEFFFFFDFFFFFFFFFFFFFFFFE
:10C30000FFFFFFFFFFFFFFFFFFFFFFFFFFFFFFFF3D
:10C31000FFFFFFFFFFFFFFFFFFFFFFFFFFFFFFFF2D
:10C32000FFFFFFFFFFFFFFFFFFFFFFFFFFFFFFFF1D
:10C33000FFFFFFFFFFFFFFFFFFFFFFFFFFFFFFFF0D
:10C34000FFFFFFFFFFFFFFFFFFFFFFFFFFFFFFFFFD
:10C35000FFFFFFFFFFFFDFFFFFFFFFFFDFFFFFFF2D
:10C36000DFFFFFFFFFFFFFFFFFFFFFFFFFFFFFFFFD
:10C37000FFFFFFFFFFFFDFFFFFFFFFFFFFFFFFFFED
:10C38000FFFFFFFFFFFFDFFFFFFFFFFFFFFFFFFFDD
:10C39000FFFFDFFFFFFFFFFFFFFFFFFFFFFFFFFFCD
:10C3A000FFFFFFFFFFFFFFFFFFFFFFFFFFFFFFFF9D
:10C3B000FFFFFFFFFFFFFFFFDFFFFFFFFFFFDFFFCD
:10C3C000FFFFFFFFFFFFFFFFFFFFFFFFFFFFFFFF7D
:10C3D000FFFFFFFFFFFFFFFFFFFFFFFFFFFFFFFF6D
:10C3E000FFFFFFFFFFFFFFFFFFFFFFFFFFFFFFFF5D
:10C3F000FFFFFFFFFFFFFFFFFFFFFFFFFFFFFFFF4D
:10C40000FFFFFFFFFFFFFFFFFFFFFFFFFFFFFFFF3C
:10C41000FFFFFFFFDFFFDFFFFFFFFFFFFFFFFFFF6C
:10C42000FFFFFFFFFFFFFFFFFFFFFFFFFFFFFFFF1C
:10C43000FFFFFFFFFFFFFFFFFFFFFFFFFFFFFFFF0C
:10C44000FFFFFFFFFFFFFFFFFFFFFFFFFFFFFFFFFC
:10C45000FFFFFFFFFFFFFFFFFFFFFFFFFFFFFFFFEC
:10C46000FFFFFFFFFFFFFFFFFFFFFFFFFFFFFFFFDC
:10C47000FFFFFFFFFFFFFFFFFFFFFFFFFFFFFFFFCC
:10C48000FFFFFFFFFFFFFFFFFFFFFFFFFFFFFFFFBC
:10C49000FFFFFFFF8E73AE73FFFFFFFFFFFFFFFF86
:10C4A0003084308492940C6379CEFFFFFFFFFFFF4E
:10C4B000FFFFFFFFFFFFFFFFFFFFFFFFFFFF1CE787
:10C4C000EB5AD39C92944D6BDFFFFFFFFFFFFFFF02
:10C4D00092946D6B7DEFFFFFDFFFFFFFFFFFFFFF1C
:10C4E000FFFFFFFFFFFFDFFFFFFFFFFFFFFFFFFF7C
:10C4F000FFFFFFFFFFFFFFFFFFFFFFFFFFFFFFFF4C
:10C50000FFFFFFFFFFFFFFFFFFFFFFFFFFFFFFFF3B
:10C51000FFFFFFFFFFFFFFFFFFFFFFFFFFFFFFFF2B
:10C52000FFFFFFFFFFFFFFFFFFFFFFFFFFFFFFFF1B
:10C53000FFFFFFFFFFFFFFFFFFFFFFFFFFFFFFFF0B
:10C54000FFFFFFFFFFFFFFFFFFFFFFFFFFFFFFFFFB
:10C55000FFFFFFFFFFFFFFFFFFFFFFFFFFFFFFFFEB
:10C56000FFFFFFFFFFFFFFFFFFFFFFFFFFFFFFFFDB
:10C57000FFFFFFFFFFFFFFFFFFFFFFFFFFFFFFFFCB
:10C58000FFFFFFFFFFFFFFFFFFFFDFFFFFFFFFFFDB
:10C59000FFFFFFFFFFFFDFFFFFFFFFFFFFFFFFFFCB
:10C5A000FFFFFFFFFFFFFFFFFFFFFFFFFFFFFFFF9B
:10C5B000FFFFFFFFFFFFFFFFFFFFFFFFFFFFFFFF8B
:10C5C000FFFFFFFFFFFFFFFFFFFFFFFFFFFFFFFF7B
:10C5D000FFFFFFFFFFFFFFFFFFFFFFFFFFFFFFFF6B
:10C5E000FFFFFFFFFFFFFFFFFFFFFFFFFFFFFFFF5B
:10C5F000FFFFFFFFFFFFFFFFFFFFFFFFFFFFFFFF4B
:10C60000DFFFFFFFFFFFFFFFFFFFFFFFFFFFFFFF5A
:10C61000FFFFFFFFFFFFFFFFFFFFFFFFFFFFFFFF2A
:10C62000FFFFFFFFFFFFFFFFFFFFFFFFFFFFFFFF1A
:10C63000FFFFFFFFFFFFFFFFFFFFFFFFFFFFFFFF0A
:10C64000FFFFFFFFFFFFFFFFFFFFFFFFFFFFFFFFFA
:10C65000FFFFFFFFFFFFFFFFFFFFFFFFFFFFFFFFEA
:10C66000FFFFFFFFFFFFFFFFFFFFFFFFFFFFFFFFDA
:10C67000FFFFFFFF8E73AE73FFFFFFFFFFFFFFFFA4
:10C680003084308492940C6379CEFFFFFFFFFFFF6C
:10C69000FFFFFFFFFFFFFFFFFFFFFFFFFFFF1CE7A5
:10C6A000EB5AD39C92944D6BDFFFFFFFFFFFFFFF20
:10C6B00092946D6B7DEFFFFFDFFFFFFFFFFFFFFF3A
:10C6C000FFFFFFFFFFFFFFFFFFFFFFFFFFFFFFFF7A
:10C6D000FFFFFFFFFFFFFFFFFFFFFFFFFFFFFFFF6A
:10C6E000FFFFFFFFFFFFFFFFFFFFFFFFFFFFFFFF5A
:10C6F000FFFFFFFFFFFFFFFFFFFFFFFFFFFFFFFF4A
:10C70000FFFFFFFFFFFFFFFFFFFFFFFFFFFFFFFF39
:10C71000FFFFFFFFFFFFFFFFFFFFFFFFFFFFFFFF29
:10C72000FFFFFFFFFFFFFFFFFFFFFFFFFFFFFFFF19
:10C73000FFFFFFFFFFFFFFFFFFFFFFFFFFFFFFFF09
:10C74000FFFFFFFFFFFFFFFFFFFFFFFFFFFFFFFFF9
:10C75000FFFFFFFFFFFFFFFFFFFFFFFFFFFFFFFFE9
:10C76000FFFFFFFFFFFFFFFFFFFFFFFFFFFFFFFFD9
:10C77000FFFFFFFFFFFFFFFFFFFFFFFFFFFFFFFFC9
:10C78000FFFFFFFFFFFFFFFFFFFFFFFFFFFFFFFFB9
:10C79000FFFFFFFFFFFFFFFFFFFFFFFFFFFFFFFFA9
:10C7A000FFFFFFFFFFFFFFFFFFFFFFFFFFFFFFFF99
:10C7B000FFFFFFFFFFFFFFFFFFFFFFFFFFFFFFFF89
:10C7C000FFFFFFFFFFFFFFFFFFFFFFFFFFFFFFFF79
:10C7D000FFFFFFFFFFFFFFFFFFFFFFFFFFFFFFFF69
:10C7E000FFFFFFFFFFFFFFFFFFFFFFFFFFFFFFFF59
:10C7F000FFFFFFFFFFFFFFFFFFFFFFFFFFFFFFFF49
:10C80000FFFFFFFFFFFFFFFFFFFFFFFFFFFFFFFF38
:10C81000FFFFFFFFFFFFFFFFFFFFFFFFFFFFFFFF28
:10C82000FFFFFFFFFFFFFFFFFFFFFFFFFFFFFFFF18
:10C83000FFFFFFFFFFFFFFFFFFFFFFFFFFFFFFFF08
:10C84000FFFFFFFFFFFFFFFFFFFFFFFFFFFFFFFFF8
:10C85000FFFFFFFF8E73AE73FFFFFFFFFFFFFFFFC2
:10C860003084308492940C6379CEFFFFFFFFFFFF8A
:10C87000FFFFFFFFFFFFFFFFFFFFFFFFFFFF1CE7C3
:10C88000EB5AD39C92944D6BDFFFFFFFFFFFFFFF3E
:10C8900092946D6B7DEFFFFFFFFFFFFFFFFFFFFF38
:10C8A000FFFFFFFFFFFFFFFFFFFFFFFFFFFFFFFF98
:10C8B000FFFFFFFFFFFFFFFFFFFFFFFFFFFFFFFF88
:10C8C000FFFFFFFFFFFFFFFFFFFFFFFFFFFFFFFF78
:10C8D000FFFFFFFFFFFFFFFFFFFFFFFFFFFFFFFF68
:10C8E000FFFFFFFFFFFFFFFFFFFFFFFFFFFFFFFF58
:10C8F000FFFFFFFFFFFFFFFFFFFFFFFFFFFFFFFF48
:10C90000FFFFFFFFFFFFFFFFFFFFFFFFFFFFFFFF37
:10C91000FFFFFFFFFFFFFFFFFFFFFFFFFFFFFFFF27
:10C92000FFFFFFFFFFFFFFFFFFFFFFFFFFFFFFFF17
:10C93000FFFFFFFFFFFFFFFFFFFFFFFFFFFFFFFF07
:10C94000FFFFFFFFFFFFFFFFFFFFFFFFFFFFFFFFF7
:10C95000FFFFFFFFFFFFFFFFFFFFFFFFFFFFFFFFE7
:10C96000FFFFFFFFFFFFFFFFFFFFFFFFFFFFFFFFD7
:10C97000FFFFFFFFFFFFFFFFFFFFFFFFFFFFFFFFC7
:10C98000FFFFFFFFFFFFFFFFFFFFFFFFFFFFFFFFB7
:10C99000FFFFFFFFFFFFFFFFFFFFFFFFFFFFFFFFA7
:10C9A000FFFFFFFFFFFFFFFFFFFFFFFFFFFFFFFF97
:10C9B000FFFFFFFFFFFFFFFFFFFFFFFFFFFFFFFF87
:10C9C000FFFFFFFFFFFFFFFFFFFFFFFFFFFFFFFF77
:10C9D000FFFFFFFFFFFFFFFFFFFFFFFFFFFFFFFF67
:10C9E000FFFFFFFFFFFFFFFFFFFFFFFFFFFFFFFF57
:10C9F000FFFFFFFFFFFFFFFFFFFFFFFFFFFFFFFF47
:10CA0000FFFFFFFFFFFFFFFFFFFFFFFFFFFFFFFF36
:10CA1000FFFFFFFFFFFFFFFFFFFFFFFFFFFFFFFF26
:10CA2000FFFFFFFFFFFFFFFFFFFFFFFFFFFFFFFF16
:10CA3000FFFFFFFF8E73AE73FFFFFFFFFFFFFFFFE0
:10CA40003084308492940C6379CEFFFFFFFFFFFFA8
:10CA5000FFFFFFFFFFFFFFFFFFFFFFFFFFFF1CE7E1
:10CA6000EB5AD39C92944D6BDFFFFFFFFFFFFFFF5C
:10CA700092946D6B7DEFFFFFFFFFFFFFFFFFFFFF56
:10CA8000FFFFFFFFFFFFFFFFFFFFFFFFFFFFFFFFB6
:10CA9000FFFFFFFFFFFFFFFFFFFFFFFFFFFFFFFFA6
:10CAA000FFFFFFFFFFFFFFFFFFFFFFFFFFFFFFFF96
:10CAB000FFFFFFFFFFFFFFFFFFFFFFFFFFFFFFFF86
:10CAC000FFFFFFFFFFFFFFFFFFFFFFFFFFFFFFFF76
:10CAD000FFFFFFFFFFFFFFFFFFFFFFFFFFFFFFFF66
:10CAE000FFFFFFFFFFFFFFFFFFFFFFFFFFFFFFFF56
:10CAF000FFFFFFFFFFFFFFFFFFFFFFFFFFFFFFFF46
:10CB0000FFFFFFFFFFFFFFFFFFFFFFFFFFFFFFFF35
:10CB1000FFFFFFFFFFFFFFFFFFFFFFFFFFFFFFFF25
:10CB2000FFFFFFFFFFFFFFFFFFFFFFFFFFFFFFFF15
:10CB3000FFFFFFFFFFFFFFFFFFFFFFFFFFFFFFFF05
:10CB4000FFFFFFFFFFFFFFFFFFFFFFFFFFFFFFFFF5
:10CB5000FFFFFFFFFFFFFFFFFFFFFFFFFFFFFFFFE5
:10CB6000FFFFFFFFFFFFFFFFFFFFFFFFFFFFFFFFD5
:10CB7000FFFFFFFFFFFFFFFFFFFFFFFFFFFFFFFFC5
:10CB8000FFFFFFFFFFFFFFFFFFFFFFFFFFFFFFFFB5
:10CB9000FFFFFFFFFFFFFFFFFFFFFFFFFFFFFFFFA5
:10CBA000FFFFFFFFFFFFFFFFFFFFFFFFFFFFFFFF95
:10CBB000FFFFFFFFFFFFFFFFFFFFFFFFFFFFFFFF85
:10CBC000FFFFFFFFFFFFFFFFFFFFFFFFFFFFFFFF75
:10CBD000FFFFFFFFFFFFFFFFFFFFFFFFFFFFFFFF65
:10CBE000FFFFFFFFFFFFFFFFFFFFFFFFFFFFFFFF55
:10CBF000FFFFFFFFFFFFFFFFFFFFFFFFFFFFFFFF45
:10CC0000FFFFFFFFFFFFFFFFFFFFFFFFFFFFFFFF34
:10CC1000FFFFFFFF8E73AE73FFFFFFFFFFFFFFFFFE
:10CC20003084308492940C6379CEFFFFFFFFFFFFC6
:10CC3000FFFFFFFFFFFFFFFFFFFFFFFFFFFF1CE7FF
:10CC4000EB5AD39C92944D6BDFFFFFFFFFFFFFFF7A
:10CC500092946D6B7DEFFFFFFFFFFFFFFFFFFFFF74
:10CC6000FFFFFFFFFFFFFFFFFFFFFFFFFFFFFFFFD4
:10CC7000FFFFFFFFFFFFFFFFFFFFFFFFFFFFFFFFC4
:10CC8000FFFFFFFFFFFFFFFFFFFFFFFFFFFFFFFFB4
:10CC9000FFFFFFFFFFFFFFFFFFFFFFFFFFFFFFFFA4
:10CCA000FFFFFFFFFFFFFFFFFFFFFFFFFFFFFFFF94
:10CCB000FFFFFFFFFFFFFFFFFFFFFFFFFFFFFFFF84
:10CCC000FFFFFFFFFFFFFFFFFFFFFFFFFFFFFFFF74
:10CCD000FFFFFFFFFFFFFFFFFFFFFFFFFFFFFFFF64
:10CCE000FFFFFFFFFFFFFFFFFFFFFFFFFFFFFFFF54
:10CCF000FFFFFFFFFFFFFFFFFFFFFFFFFFFFFFFF44
:10CD0000FFFFFFFFFFFFFFFFFFFFFFFFFFFFFFFF33
:10CD1000FFFFFFFFFFFFFFFFFFFFFFFFFFFFFFFF23
:10CD2000FFFFFFFFFFFFFFFFFFFFFFFFFFFFFFFF13
:10CD3000FFFFFFFFFFFFFFFFFFFFFFFFFFFFFFFF03
:10CD4000FFFFFFFFFFFFFFFFFFFFFFFFFFFFFFFFF3
:10CD5000FFFFFFFFFFFFFFFFFFFFFFFFFFFFFFFFE3
:10CD6000FFFFFFFFFFFFFFFFFFFFFFFFFFFFFFFFD3
:10CD7000FFFFFFFFFFFFFFFFFFFFFFFFFFFFFFFFC3
:10CD8000FFFFFFFFFFFFFFFFFFFFFFFFFFFFFFFFB3
:10CD9000FFFFFFFFFFFFFFFFFFFFFFFFFFFFFFFFA3
:10CDA000FFFFFFFFFFFFFFFFFFFFFFFFFFFFFFFF93
:10CDB000FFFFFFFFFFFFFFFFFFFFFFFFFFFFFFFF83
:10CDC000FFFFFFFFFFFFFFFFFFFFFFFFFFFFFFFF73
:10CDD000FFFFFFFFFFFFFFFFFFFFFFFFFFFFFFFF63
:10CDE000FFFFFFFFFFFFFFFFFFFFFFFFFFFFFFFF53
:10CDF000FFFFFFFF8E73AE73FFFFFFFFFFFFFFFF1D
:10CE00003084308492940C6379CEFFFFFFFFFFFFE4
:10CE1000FFFFFFFFFFFFFFFFFFFFFFFFFFFF1CE71D
:10CE2000EB5AD39C92944D6BDFFFFFFFFFFFFFFF98
:10CE300092946D6B7DEFFFFFFFFFFFFFFFFFFFFF92
:10CE4000FFFFFFFFFFFFFFFFFFFFFFFFFFFFFFFFF2
:10CE5000FFFFFFFFFFFFFFFFFFFFFFFFFFFFFFFFE2
:10CE6000FFFFFFFFFFFFFFFFFFFFFFFFFFFFFFFFD2
:10CE7000FFFFFFFFFFFFFFFFFFFFFFFFFFFFFFFFC2
:10CE8000FFFFFFFFFFFFFFFFFFFFFFFFFFFFFFFFB2
:10CE9000FFFFFFFFFFFFFFFFFFFFFFFFFFFFFFFFA2
:10CEA000FFFFFFFFFFFFFFFFFFFFFFFFFFFFFFFF92
:10CEB000FFFFFFFFFFFFFFFFFFFFFFFFFFFFFFFF82
:10CEC000FFFFFFFFFFFFFFFFFFFFFFFFFFFFFFFF72
:10CED000FFFFFFFFFFFFFFFFFFFFFFFFFFFFFFFF62
:10CEE000FFFFFFFFFFFFFFFFFFFFFFFFFFFFFFFF52
:10CEF000FFFFFFFFFFFFFFFFFFFFFFFFFFFFFFFF42
:10CF0000FFFFFFFFFFFFFFFFFFFFFFFFFFFFFFFF31
:10CF1000FFFFFFFFFFFFFFFFFFFFFFFFFFFFFFFF21
:10CF2000FFFFFFFFFFFFFFFFFFFFFFFFFFFFFFFF11
:10CF3000FFFFFFFFFFFFFFFFFFFFFFFFFFFFFFFF01
:10CF4000FFFFFFFFFFFFFFFFFFFFFFFFFFFFFFFFF1
:10CF5000FFFFFFFFFFFFFFFFFFFFFFFFFFFFFFFFE1
:10CF6000FFFFFFFFFFFFFFFFFFFFFFFFFFFFFFFFD1
:10CF7000FFFFFFFFFFFFFFFFFFFFFFFFFFFFFFFFC1
:10CF8000FFFFFFFFFFFFFFFFFFFFFFFFFFFFFFFFB1
:10CF9000FFFFFFFFFFFFFFFFFFFFFFFFFFFFFFFFA1
:10CFA000FFFFFFFFFFFFFFFFFFFFFFFFFFFFFFFF91
:10CFB000FFFFFFFFFFFFFFFFFFFFFFFFFFFFFFFF81
:10CFC000FFFFFFFFFFFFFFFFFFFFFFFFFFFFFFFF71
:10CFD000FFFFFFFF8E73AE73FFFFFFFFFFFFFFFF3B
:10CFE0003084308492940C6379CEFFFFFFFFFFFF03
:10CFF000FFFFFFFFFFFFFFFFFFFFFFFFFFFF1CE73C
:10D00000EB5AD39C92944D6BDFFFFFFFFFFFFFFFB6
:10D0100092946D6B7DEFFFFFFFFFFFFFFFFFFFFFB0
:10D02000FFFFFFFFFFFFFFFFFFFFFFFFFFFFFFFF10
:10D03000FFFFFFFFFFFFFFFFFFFFFFFFFFFFFFFF00
:10D04000FFFFFFFFFFFFFFFFFFFFFFFFFFFFFFFFF0
:10D05000FFFFFFFFFFFFFFFFFFFFFFFFFFFFFFFFE0
:10D06000FFFFFFFFFFFFFFFFFFFFFFFFFFFFFFFFD0
:10D07000FFFFFFFFFFFFFFFFFFFFFFFFFFFFFFFFC0
:10D08000FFFFFFFFFFFFFFFFFFFFFFFFFFFFFFFFB0
:10D09000FFFFFFFFFFFFFFFFFFFFFFFFFFFFFFFFA0
:10D0A000FFFFFFFFFFFFFFFFFFFFFFFFFFFFFFFF90
:10D0B000FFFFFFFFFFFFFFFFFFFFFFFFFFFFFFFF80
:10D0C000FFFFFFFFFFFFFFFFFFFFFFFFFFFFFFFF70
:10D0D000FFFFFFFFFFFFFFFFFFFFFFFFFFFFFFFF60
:10D0E000FFFFFFFFFFFFFFFFFFFFFFFFFFFFFFFF50
:10D0F000FFFFFFFFFFFFFFFFFFFFFFFFFFFFFFFF40
:10D10000FFFFFFFFFFFFFFFFFFFFFFFFFFFFFFFF2F
:10D11000FFFFFFFFFFFFFFFFFFFFFFFFFFFFFFFF1F
:10D12000FFFFFFFFFFFFFFFFFFFFFFFFFFFFFFFF0F
:10D13000FFFFFFFFFFFFFFFFFFFFFFFFFFFFFFFFFF
:10D14000FFFFFFFFFFFFFFFFFFFFFFFFFFFFFFFFEF
:10D15000FFFFFFFFFFFFFFFFFFFFFFFFFFFFFFFFDF
:10D16000FFFFFFFFFFFFFFFFFFFFFFFFFFFFFFFFCF
:10D17000FFFFFFFFFFFFFFFFFFFFFFFFFFFFFFFFBF
:10D18000FFFFFFFFFFFFFFFFFFFFFFFFFFFFFFFFAF
:10D19000FFFFFFFFFFFFFFFFFFFFFFFFFFFFFFFF9F
:10D1A000FFFFFFFFFFFFFFFFFFFFFFFFFFFFFFFF8F
:10D1B000FFFFFFFF8E73AE73FFFFFFFFFFFFFFFF59
:10D1C0003084308492940C6379CEFFFFFFFFFFFF21
:10D1D000FFFFFFFFFFFFFFFFFFFFFFFFFFFF1CE75A
:10D1E000EB5AD39C92944D6BDFFFFFFFFFFFFFFFD5
:10D1F00092946D6B7DEFFFFFFFFFFFFFFFFFFFFFCF
:10D20000FFFFFFFFFFFFFFFFFFFFFFFFFFFFFFFF2E
:10D21000FFFFFFFFFFFFFFFFFFFFFFFFFFFFFFFF1E
:10D22000FFFFFFFFFFFFFFFFFFFFFFFFFFFFFFFF0E
:10D23000FFFFFFFFFFFFFFFFFFFFFFFFFFFFFFFFFE
:10D24000FFFFFFFFFFFFFFFFFFFFFFFFFFFFFFFFEE
:10D25000FFFFFFFFFFFFFFFFFFFFFFFFFFFFFFFFDE
:10D26000FFFFFFFFFFFFFFFFFFFFFFFFFFFFFFFFCE
:10D27000FFFFFFFFFFFFFFFFFFFFFFFFFFFFFFFFBE
:10D28000FFFFFFFFFFFFFFFFFFFFFFFFFFFFFFFFAE
:10D29000FFFFFFFFFFFFFFFFFFFFFFFFFFFFFFFF9E
:10D2A000FFFFFFFFFFFFFFFFFFFFFFFFFFFFFFFF8E
:10D2B000FFFFFFFFFFFFFFFFFFFFFFFFFFFFFFFF7E
:10D2C000FFFFFFFFFFFFFFFFFFFFFFFFFFFFFFFF6E
:10D2D000FFFFFFFFFFFFFFFFFFFFFFFFFFFFFFFF5E
:10D2E000FFFFFFFFFFFFFFFFFFFFFFFFFFFFFFFF4E
:10D2F000FFFFFFFFFFFFFFFFFFFFFFFFFFFFFFFF3E
:10D30000FFFFFFFFFFFFFFFFFFFFFFFFFFFFFFFF2D
:10D31000FFFFFFFFFFFFFFFFFFFFFFFFFFFFFFFF1D
:10D32000FFFFFFFFFFFFFFFFFFFFFFFFFFFFFFFF0D
:10D33000FFFFFFFFFFFFFFFFFFFFFFFFFFFFFFFFFD
:10D34000FFFFFFFFFFFFFFFFFFFFFFFFFFFFFFFFED
:10D35000FFFFFFFFFFFFFFFFFFFFFFFFFFFFFFFFDD
:10D36000FFFFFFFFFFFFFFFFFFFFFFFFFFFFFFFFCD
:10D37000FFFFFFFFFFFFFFFFFFFFFFFFFFFFFFFFBD
:10D38000FFFFFFFFFFFFFFFFFFFFFFFFFFFFFFFFAD
:10D39000FFFFFFFF8E73AE73FFFFFFFFFFFFFFFF77
:10D3A0003084308492940C6379CEFFFFFFFFFFFF3F
:10D3B000FFFFFFFFFFFFFFFFFFFFFFFFFFFF1CE778
:10D3C000EB5AD39C92944D6BDFFFFFFFFFFFFFFFF3
:10D3D00092946D6B7DEFFFFFFFFFFFFFFFFFFFFFED
:10D3E000FFFFFFFFFFFFFFFFFFFFFFFFFFFFFFFF4D
:10D3F000FFFFFFFFFFFFFFFFFFFFFFFFFFFFFFFF3D
:10D40000FFFFFFFFFFFFFFFFFFFFFFFFFFFFFFFF2C
:10D41000FFFFFFFFFFFFFFFFFFFFFFFFFFFFFFFF1C
:10D42000FFFFFFFFFFFFFFFFFFFFFFFFFFFFFFFF0C
:10D43000FFFFFFFFFFFFFFFFFFFFFFFFFFFFFFFFFC
:10D44000FFFFFFFFFFFFFFFFFFFFFFFFFFFFFFFFEC
:10D45000FFFFFFFFFFFFFFFFFFFFFFFFFFFFFFFFDC
:10D46000FFFFFFFFFFFFFFFFFFFFFFFFFFFFFFFFCC
:10D47000FFFFFFFFFFFFFFFFFFFFFFFFFFFFFFFFBC
:10D48000FFFFFFFFFFFFFFFFFFFFFFFFFFFFFFFFAC
:10D49000FFFFFFFFFFFFFFFFFFFFFFFFFFFFFFFF9C
:10D4A000FFFFFFFFFFFFFFFFFFFFFFFFFFFFFFFF8C
:10D4B000FFFFFFFFFFFFFFFFFFFFFFFFFFFFFFFF7C
:10D4C000FFFFFFFFFFFFFFFFFFFFFFFFFFFFFFFF6C
:10D4D000FFFFFFFFFFFFFFFFFFFFFFFFFFFFFFFF5C
:10D4E000FFFFFFFFFFFFFFFFFFFFFFFFFFFFFFFF4C
:10D4F000FFFFFFFFFFFFFFFFFFFFFFFFFFFFFFFF3C
:10D50000FFFFFFFFFFFFFFFFFFFFFFFFFFFFFFFF2B
:10D51000FFFFFFFFFFFFFFFFFFFFFFFFFFFFFFFF1B
:10D52000FFFFFFFFFFFFFFFFFFFFFFFFFFFFFFFF0B
:10D53000FFFFFFFFFFFFFFFFFFFFFFFFFFFFFFFFFB
:10D54000FFFFFFFFFFFFFFFFFFFFFFFFFFFFFFFFEB
:10D55000FFFFFFFFFFFFFFFFFFFFFFFFFFFFFFFFDB
:10D56000FFFFFFFFFFFFFFFFFFFFFFFFFFFFFFFFCB
:10D57000FFFFFFFF8E73AE73FFFFFFFFFFFFFFFF95
:10D580003084308492940C6379CEFFFFFFFFFFFF5D
:10D59000FFFFFFFFFFFFFFFFFFFFFFFFFFFF1CE796
:10D5A000EB5AD39C92944D6BDFFFFFFFFFFFFFFF11
:10D5B00092946D6B7DEFFFFFFFFFFFFFFFFFFFFF0B
:10D5C000FFFFFFFFFFFFFFFFFFFFFFFFFFFFFFFF6B
:10D5D000FFFFFFFFFFFFFFFFFFFFFFFFFFFFFFFF5B
:10D5E000FFFFFFFFFFFFFFFFFFFFFFFFFFFFFFFF4B
:10D5F000FFFFFFFFFFFFFFFFFFFFFFFFFFFFFFFF3B
:10D60000FFFFFFFFFFFFFFFFFFFFFFFFFFFFFFFF2A
:10D61000FFFFFFFFFFFFFFFFFFFFFFFFFFFFFFFF1A
:10D62000FFFFFFFFFFFFFFFFFFFFFFFFFFFFFFFF0A
:10D63000FFFFFFFFFFFFFFFFFFFFFFFFFFFFFFFFFA
:10D64000FFFFFFFFFFFFFFFFFFFFFFFFFFFFFFFFEA
:10D65000FFFFFFFFFFFFFFFFFFFFFFFFFFFFFFFFDA
:10D66000FFFFFFFFFFFFFFFFFFFFFFFFFFFFFFFFCA
:10D67000FFFFFFFFFFFFFFFFFFFFFFFFFFFFFFFFBA
:10D68000FFFFFFFFFFFFFFFFFFFFFFFFFFFFFFFFAA
:10D69000FFFFFFFFFFFFFFFFFFFFFFFFFFFFFFFF9A
:10D6A000FFFFFFFFFFFFFFFFFFFFFFFFFFFFFFFF8A
:10D6B000FFFFFFFFFFFFFFFFFFFFFFFFFFFFFFFF7A
:10D6C000FFFFFFFFFFFFFFFFFFFFFFFFFFFFFFFF6A
:10D6D000FFFFFFFFFFFFFFFFFFFFFFFFFFFFFFFF5A
:10D6E000FFFFFFFFFFFFFFFFFFFFFFFFFFFFFFFF4A
:10D6F000FFFFFFFFFFFFFFFFFFFFFFFFFFFFFFFF3A
:10D70000FFFFFFFFFFFFFFFFFFFFFFFFFFFFFFFF29
:10D71000FFFFFFFFFFFFFFFFFFFFFFFFFFFFFFFF19
:10D72000FFFFFFFFFFFFFFFFFFFFFFFFFFFFFFFF09
:10D73000FFFFFFFFFFFFFFFFFFFFFFFFFFFFFFFFF9
:10D74000FFFFFFFFFFFFFFFFFFFFFFFFFFFFFFFFE9
:10D75000FFFFFFFF8E73AE73FFFFFFFFFFFFFFFFB3
:10D760003084308492940C6379CEFFFFFFFFFFFF7B
:10D77000FFFFFFFFFFFFFFFFFFFFFFFFFFFF1CE7B4
:10D78000EB5AD39C92944D6BDFFFFFFFFFFFFFFF2F
:10D7900092946D6B7DEFFFFFFFFFFFFFFFFFFFFF29
:10D7A000FFFFFFFFFFFFFFFFFFFFFFFFFFFFFFFF89
:10D7B000FFFFFFFFFFFFFFFFFFFFFFFFFFFFFFFF79
:10D7C000FFFFFFFFFFFFFFFFFFFFFFFFFFFFFFFF69
:10D7D000FFFFFFFFFFFFFFFFFFFFFFFFFFFFFFFF59
:10D7E000FFFFFFFFFFFFFFFFFFFFFFFFFFFFFFFF49
:10D7F000FFFFFFFFFFFFFFFFFFFFFFFFFFFFFFFF39
:10D80000FFFFFFFFFFFFFFFFFFFFFFFFFFFFFFFF28
:10D81000FFFFFFFFFFFFFFFFFFFFFFFFFFFFFFFF18
:10D82000FFFFFFFFFFFFFFFFFFFFFFFFFFFFFFFF08
:10D83000FFFFFFFFFFFFFFFFFFFFFFFFFFFFFFFFF8
:10D84000FFFFFFFFFFFFFFFFFFFFFFFFFFFFFFFFE8
:10D85000FFFFFFFFFFFFFFFFFFFFFFFFFFFFFFFFD8
:10D86000FFFFFFFFFFFFFFFFFFFFFFFFFFFFFFFFC8
:10D87000FFFFFFFFFFFFFFFFFFFFFFFFFFFFFFFFB8
:10D88000FFFFFFFFFFFFFFFFFFFFFFFFFFFFFFFFA8
:10D89000FFFFFFFFFFFFFFFFFFFFFFFFFFFFFFFF98
:10D8A000FFFFFFFFFFFFFFFFFFFFFFFFFFFFFFFF88
:10D8B000FFFFFFFFFFFFFFFFFFFFFFFFFFFFFFFF78
:10D8C000FFFFFFFFFFFFFFFFFFFFFFFFFFFFFFFF68
:10D8D000FFFFFFFFFFFFFFFFFFFFFFFFFFFFFFFF58
:10D8E000FFFFFFFFFFFFFFFFFFFFFFFFFFFFFFFF48
:10D8F000FFFFFFFFFFFFFFFFFFFFFFFFFFFFFFFF38
:10D90000FFFFFFFFFFFFFFFFFFFFFFFFFFFFFFFF27
:10D91000FFFFFFFFFFFFFFFFFFFFFFFFFFFFFFFF17
:10D92000FFFFFFFFFFFFFFFFFFFFFFFFFFFFFFFF07
:10D93000FFFFFFFF8E73AE73FFFFFFFFFFFFFFFFD1
:10D940003084308492940C6379CEFFFFFFFFFFFF99
:10D95000FFFFFFFFFFFFFFFFFFFFFFFFFFFF1CE7D2
:10D96000EB5AD39C92944D6BDFFFFFFFFFFFFFFF4D
:10D9700092946D6B7DEFFFFFFFFFFFFFFFFFFFFF47
:10D98000FFFFFFFFFFFFFFFFFFFFFFFFFFFFFFFFA7
:10D99000FFFFFFFFFFFFFFFFFFFFFFFFFFFFFFFF97
:10D9A000FFFFFFFFFFFFFFFFFFFFFFFFFFFFFFFF87
:10D9B000FFFFFFFFFFFFFFFFFFFFFFFFFFFFFFFF77
:10D9C000FFFFFFFFFFFFFFFFFFFFFFFFFFFFFFFF67
:10D9D000FFFFFFFFFFFFFFFFFFFFFFFFFFFFFFFF57
:10D9E000FFFFFFFFFFFFFFFFFFFFFFFFFFFFFFFF47
:10D9F000FFFFFFFFFFFFFFFFFFFFFFFFFFFFFFFF37
:10DA0000FFFFFFFFFFFFFFFFFFFFFFFFFFFFFFFF26
:10DA1000FFFFFFFFFFFFFFFFFFFFFFFFFFFFFFFF16
:10DA2000FFFFFFFFFFFFFFFFFFFFFFFFFFFFFFFF06
:10DA3000FFFFFFFFFFFFFFFFFFFFFFFFFFFFFFFFF6
:10DA4000FFFFFFFFFFFFFFFFFFFFFFFFFFFFFFFFE6
:10DA5000FFFFFFFFFFFFFFFFFFFFFFFFFFFFFFFFD6
:10DA6000FFFFFFFFFFFFFFFFFFFFFFFFFFFFFFFFC6
:10DA7000FFFFFFFFFFFFFFFFFFFFFFFFFFFFFFFFB6
:10DA8000FFFFFFFFFFFFFFFFFFFFFFFFFFFFFFFFA6
:10DA9000FFFFFFFFFFFFFFFFFFFFFFFFFFFFFFFF96
:10DAA000FFFFFFFFFFFFFFFFFFFFFFFFFFFFFFFF86
:10DAB000FFFFFFFFFFFFFFFFFFFFFFFFFFFFFFFF76
:10DAC000FFFFFFFFFFFFFFFFFFFFFFFFFFFFFFFF66
:10DAD000FFFFFFFFFFFFFFFFFFFFFFFFFFFFFFFF56
:10DAE000FFFFFFFFFFFFFFFFFFFFFFFFFFFFFFFF46
:10DAF000FFFFFFFFFFFFFFFFFFFFFFFFFFFFFFFF36
:10DB0000FFFFFFFFFFFFFFFFFFFFFFFFFFFFFFFF25
:10DB1000FFFFFFFF8E73AE73FFFFFFFFFFFFFFFFEF
:10DB20003084308492940C6379CEFFFFFFFFFFFFB7
:10DB3000FFFFFFFFFFFFFFFFFFFFFFFFFFFF1CE7F0
:10DB4000EB5AD39C92944D6BDFFFFFFFFFFFFFFF6B
:10DB500092946D6B7DEFFFFFFFFFFFFFFFFFFFFF65
:10DB6000FFFFFFFFFFFFFFFFFFFFFFFFFFFFFFFFC5
:10DB7000FFFFFFFFFFFFFFFFFFFFFFFFFFFFFFFFB5
:10DB8000FFFFFFFFFFFFFFFFFFFFFFFFFFFFFFFFA5
:10DB9000FFFFFFFFFFFFFFFFFFFFFFFFFFFFFFFF95
:10DBA000FFFFFFFFFFFFFFFFFFFFFFFFFFFFFFFF85
:10DBB000FFFFFFFFFFFFFFFFFFFFFFFFFFFFFFFF75
:10DBC000FFFFFFFFFFFFFFFFFFFFFFFFFFFFFFFF65
:10DBD000FFFFFFFFFFFFFFFFFFFFFFFFFFFFFFFF55
:10DBE000FFFFFFFFFFFFFFFFFFFFFFFFFFFFFFFF45
:10DBF000FFFFFFFFFFFFFFFFFFFFFFFFFFFFFFFF35
:10DC0000FFFFFFFFFFFFFFFFFFFFFFFFFFFFFFFF24
:10DC1000FFFFFFFFFFFFFFFFFFFFFFFFFFFFFFFF14
:10DC2000FFFFFFFFFFFFFFFFFFFFFFFFFFFFFFFF04
:10DC3000FFFFFFFFFFFFFFFFFFFFFFFFFFFFFFFFF4
:10DC4000FFFFFFFFFFFFFFFFFFFFFFFFFFFFFFFFE4
:10DC5000FFFFFFFFFFFFFFFFFFFFFFFFFFFFFFFFD4
:10DC6000FFFFFFFFFFFFFFFFFFFFFFFFFFFFFFFFC4
:10DC7000FFFFFFFFFFFFFFFFFFFFFFFFFFFFFFFFB4
:10DC8000FFFFFFFFFFFFFFFFFFFFFFFFFFFFFFFFA4
:10DC9000FFFFFFFFFFFFFFFFFFFFFFFFFFFFFFFF94
:10DCA000FFFFFFFFFFFFFFFFFFFFFFFFFFFFFFFF84
:10DCB000FFFFFFFFFFFFFFFFFFFFFFFFFFFFFFFF74
:10DCC000FFFFFFFFFFFFFFFFFFFFFFFFFFFFFFFF64
:10DCD000FFFFFFFFFFFFFFFFFFFFFFFFFFFFFFFF54
:10DCE000FFFFFFFFFFFFFFFFFFFFFFFFFFFFFFFF44
:10DCF000FFFFFFFF8E73AE73FFFFFFFFFFFFFFFF0E
:10DD00003084308492940C6379CEFFFFFFFFFFFFD5
:10DD1000FFFFFFFFFFFFFFFFFFFFFFFFFFFF1CE70E
:10DD2000EB5AD39C92944D6BDFFFFFFFFFFFFFFF89
:10DD300092946D6B7DEFFFFFFFFFFFFFFFFFFFFF83
:10DD4000FFFFFFFFFFFFFFFFFFFFFFFFFFFFFFFFE3
:10DD5000FFFFFFFFFFFFFFFFFFFFFFFFFFFFFFFFD3
:10DD6000FFFFFFFFFFFFFFFFFFFFFFFFFFFFFFFFC3
:10DD7000FFFFFFFFFFFFFFFFFFFFFFFFFFFFFFFFB3
:10DD8000FFFFFFFFFFFFFFFFFFFFFFFFFFFFFFFFA3
:10DD9000FFFFFFFFFFFFFFFFFFFFFFFFFFFFFFFF93
:10DDA000FFFFFFFFFFFFFFFFFFFFFFFFFFFFFFFF83
:10DDB000FFFFFFFFFFFFFFFFFFFFFFFFFFFFFFFF73
:10DDC000FFFFFFFFFFFFFFFFFFFFFFFFFFFFFFFF63
:10DDD000FFFFFFFFFFFFFFFFFFFFFFFFFFFFFFFF53
:10DDE000FFFFFFFFFFFFFFFFFFFFFFFFFFFFFFFF43
:10DDF000FFFFFFFFFFFFFFFFFFFFFFFFFFFFFFFF33
:10DE0000FFFFFFFFFFFFFFFFFFFFFFFFFFFFFFFF22
:10DE1000FFFFFFFFFFFFFFFFFFFFFFFFFFFFFFFF12
:10DE2000FFFFFFFFFFFFFFFFFFFFFFFFFFFFFFFF02
:10DE3000FFFFFFFFFFFFFFFFFFFFFFFFFFFFFFFFF2
:10DE4000FFFFFFFFFFFFFFFFFFFFFFFFFFFFFFFFE2
:10DE5000FFFFFFFFFFFFFFFFFFFFFFFFFFFFFFFFD2
:10DE6000FFFFFFFFFFFFFFFFFFFFFFFFFFFFFFFFC2
:10DE7000FFFFFFFFFFFFFFFFFFFFFFFFFFFFFFFFB2
:10DE8000FFFFFFFFFFFFFFFFFFFFFFFFFFFFFFFFA2
:10DE9000FFFFFFFFFFFFFFFFFFFFFFFFFFFFFFFF92
:10DEA000FFFFFFFFFFFFFFFFFFFFFFFFFFFFFFFF82
:10DEB000FFFFFFFFFFFFFFFFFFFFFFFFFFFFFFFF72
:10DEC000FFFFFFFFFFFFFFFFFFFFFFFFFFFFFFFF62
:10DED000FFFFFFFF8E73AE73FFFFFFFFFFFFFFFF2C
:10DEE0003084308492940C6379CEFFFFFFFFFFFFF4
:10DEF000FFFFFFFFFFFFFFFFFFFFFFFFFFFF1CE72D
:10DF0000EB5AD39C92944D6BDFFFFFFFFFFFFFFFA7
:10DF100092946D6B7DEFFFFFFFFFFFFFFFFFFFFFA1
:10DF2000FFFFFFFFFFFFFFFFFFFFFFFFFFFFFFFF01
:10DF3000FFFFFFFFFFFFFFFFFFFFFFFFFFFFFFFFF1
:10DF4000FFFFFFFFFFFFFFFFFFFFFFFFFFFFFFFFE1
:10DF5000FFFFFFFFFFFFFFFFFFFFFFFFFFFFFFFFD1
:10DF6000FFFFFFFFFFFFFFFFFFFFFFFFFFFFFFFFC1
:10DF7000FFFFFFFFFFFFFFFFFFFFFFFFFFFFFFFFB1
:10DF8000FFFFFFFFFFFFFFFFFFFFFFFFFFFFFFFFA1
:10DF9000FFFFFFFFFFFFFFFFFFFFFFFFFFFFFFFF91
:10DFA000FFFFFFFFFFFFFFFFFFFFFFFFFFFFFFFF81
:10DFB000FFFFFFFFFFFFFFFFFFFFFFFFFFFFFFFF71
:10DFC000FFFFFFFFFFFFFFFFFFFFFFFFFFFFFFFF61
:10DFD000FFFFFFFFFFFFFFFFFFFFFFFFFFFFFFFF51
:10DFE000FFFFFFFFFFFFFFFFFFFFFFFFFFFFFFFF41
:10DFF000FFFFFFFFFFFFFFFFFFFFFFFFFFFFFFFF31
:10E00000FFFFFFFFFFFFFFFFFFFFFFFFFFFFFFFF20
:10E01000FFFFFFFFFFFFFFFFFFFFFFFFFFFFFFFF10
:10E02000FFFFFFFFFFFFFFFFFFFFFFFFFFFFFFFF00
:10E03000FFFFFFFFFFFFFFFFFFFFFFFFFFFFFFFFF0
:10E04000FFFFFFFFFFFFFFFFFFFFFFFFFFFFFFFFE0
:10E05000FFFFFFFFFFFFFFFFFFFFFFFFFFFFFFFFD0
:10E06000FFFFFFFFFFFFFFFFFFFFFFFFFFFFFFFFC0
:10E07000FFFFFFFFFFFFFFFFFFFFFFFFFFFFFFFFB0
:10E08000FFFFFFFFFFFFFFFFFFFFFFFFFFFFFFFFA0
:10E09000FFFFFFFFFFFFFFFFFFFFFFFFFFFFFFFF90
:10E0A000FFFFFFFFFFFFFFFFFFFFFFFFFFFFFFFF80
:10E0B000FFFFFFFF8E73AE73FFFFFFFFFFFFFFFF4A
:10E0C0003084308492940C6379CEFFFFFFFFFFFF12
:10E0D000FFFFFFFFFFFFFFFFFFFFFFFFFFFF1CE74B
:10E0E000EB5AD39C92944D6BDFFFFFFFFFFFFFFFC6
:10E0F00092946D6B7DEFFFFFFFFFFFFFFFFFFFFFC0
:10E10000FFFFFFFFFFFFFFFFFFFFFFFFFFFFFFFF1F
:10E11000FFFFFFFFFFFFFFFFFFFFFFFFFFFFFFFF0F
:10E12000FFFFFFFFFFFFFFFFFFFFFFFFFFFFFFFFFF
:10E13000FFFFFFFFFFFFFFFFFFFFFFFFFFFFFFFFEF
:10E14000FFFFFFFFFFFFFFFFFFFFFFFFFFFFFFFFDF
:10E15000FFFFFFFFFFFFFFFFFFFFFFFFFFFFFFFFCF
:10E16000FFFFFFFFFFFFFFFFFFFFFFFFFFFFFFFFBF
:10E17000FFFFFFFFFFFFFFFFFFFFFFFFFFFFFFFFAF
:10E18000FFFFFFFFFFFFFFFFFFFFFFFFFFFFFFFF9F
:10E19000FFFFFFFFFFFFFFFFFFFFFFFFFFFFFFFF8F
:10E1A000FFFFFFFFFFFFFFFFFFFFFFFFFFFFFFFF7F
:10E1B000FFFFFFFFFFFFFFFFFFFFFFFFFFFFFFFF6F
:10E1C000FFFFFFFFFFFFFFFFFFFFFFFFFFFFFFFF5F
:10E1D000FFFFFFFFFFFFFFFFFFFFFFFFFFFFFFFF4F
:10E1E000FFFFFFFFFFFFFFFFFFFFFFFFFFFFFFFF3F
:10E1F000FFFFFFFFFFFFFFFFFFFFFFFFFFFFFFFF2F
:10E20000FFFFFFFFFFFFFFFFFFFFFFFFFFFFFFFF1E
:10E21000FFFFFFFFFFFFFFFFFFFFFFFFFFFFFFFF0E
:10E22000FFFFFFFFFFFFFFFFFFFFFFFFFFFFFFFFFE
:10E23000FFFFFFFFFFFFFFFFFFFFFFFFFFFFFFFFEE
:10E24000FFFFFFFFFFFFFFFFFFFFFFFFFFFFFFFFDE
:10E25000FFFFFFFFFFFFFFFFFFFFFFFFFFFFFFFFCE
:10E26000FFFFFFFFFFFFFFFFFFFFFFFFFFFFFFFFBE
:10E27000FFFFFFFFFFFFFFFFFFFFFFFFFFFFFFFFAE
:10E28000FFFFFFFFFFFFFFFFFFFFFFFFFFFFFFFF9E
:10E29000FFFFFFFF8E73AE73FFFFFFFFFFFFFFFF68
:10E2A0003084308492940C6379CEFFFFFFFFFFFF30
:10E2B000FFFFFFFFFFFFFFFFFFFFFFFFFFFF1CE769
:10E2C000EB5AD39C92944D6BDFFFFFFFFFFFFFFFE4
:10E2D00092946D6B7DEFFFFFFFFFFFFFFFFFFFFFDE
:10E2E000FFFFFFFFFFFFFFFFFFFFFFFFFFFFFFFF3E
:10E2F000FFFFFFFFFFFFFFFFFFFFFFFFFFFFFFFF2E
:10E30000FFFFFFFFFFFFFFFFFFFFFFFFFFFFFFFF1D
:10E31000FFFFFFFFFFFFFFFFFFFFFFFFFFFFFFFF0D
:10E32000FFFFFFFFFFFFFFFFFFFFFFFFFFFFFFFFFD
:10E33000FFFFFFFFFFFFFFFFFFFFFFFFFFFFFFFFED
:10E34000FFFFFFFFFFFFFFFFFFFFFFFFFFFFFFFFDD
:10E35000FFFFFFFFFFFFFFFFFFFFFFFFFFFFFFFFCD
:10E36000FFFFFFFFFFFFFFFFFFFFFFFFFFFFFFFFBD
:10E37000FFFFFFFFFFFFFFFFFFFFFFFFFFFFFFFFAD
:10E38000FFFFFFFFFFFFFFFFFFFFFFFFFFFFFFFF9D
:10E39000FFFFFFFFFFFFFFFFFFFFFFFFFFFFFFFF8D
:10E3A000FFFFFFFFFFFFFFFFFFFFFFFFFFFFFFFF7D
:10E3B000FFFFFFFFFFFFFFFFFFFFFFFFFFFFFFFF6D
:10E3C000FFFFFFFFFFFFFFFFFFFFFFFFFFFFFFFF5D
:10E3D000FFFFFFFFFFFFFFFFFFFFFFFFFFFFFFFF4D
:10E3E000FFFFFFFFFFFFFFFFFFFFFFFFFFFFFFFF3D
:10E3F000FFFFFFFFFFFFFFFFFFFFFFFFFFFFFFFF2D
:10E40000FFFFFFFFFFFFFFFFFFFFFFFFFFFFFFFF1C
:10E41000FFFFFFFFFFFFFFFFFFFFFFFFFFFFFFFF0C
:10E42000FFFFFFFFFFFFFFFFFFFFFFFFFFFFFFFFFC
:10E43000FFFFFFFFFFFFFFFFFFFFFFFFFFFFFFFFEC
:10E44000FFFFFFFFFFFFFFFFFFFFFFFFFFFFFFFFDC
:10E45000FFFFFFFFFFFFFFFFFFFFFFFFFFFFFFFFCC
:10E46000FFFFFFFFFFFFFFFFFFFFFFFFFFFFFFFFBC
:10E47000FFFFFFFF8E73AE73FFFFFFFFFFFFFFFF86
:10E480003084308492940C6379CEFFFFFFFFFFFF4E
:10E49000FFFFFFFFFFFFFFFFFFFFFFFFFFFF1CE787
:10E4A000EB5AD39C92944D6BDFFFFFFFFFFFFFFF02
:10E4B00092946D6B7DEFFFFFFFFFFFFFFFFFFFFFFC
:10E4C000FFFFFFFFFFFFFFFFFFFFFFFFFFFFFFFF5C
:10E4D000FFFFFFFFFFFFFFFFFFFFFFFFFFFFFFFF4C
:10E4E000FFFFFFFFFFFFFFFFFFFFFFFFFFFFFFFF3C
:10E4F000FFFFFFFFFFFFFFFFFFFFFFFFFFFFFFFF2C
:10E50000FFFFFFFFFFFFFFFFFFFFFFFFDFFFFFFF3B
:10E51000FFFFFFFFFFFFFFFFFFFFFFFFFFFFFFFF0B
:10E52000FFFFFFFFFFFFFFF7FFFFFFFFFFFFFFFF03
:10E53000FFFFFFFFFFFFFFFFFFFFFFFFFFFFFFFFEB
:10E54000FFFFFFFFFFFFFFFFFFFFFFFFFFFFFFFFDB
:10E55000FFFFFFFFFFFFFFFFFFFFFFFFFFFFFFFFCB
:10E56000FFFFFFFFFFFFFFFFFFFFFFFFFFFFFFFFBB
:10E57000FFFFFFFFFFFFFFFFFFFFFFFFFFFFFFFFAB
:10E58000FFFFFFFFFFFFDFFFFFFFFFFFFFFFFFFFBB
:10E59000FFFFFFFFFFFFFFFFFFFFFFFFDFFFFFFFAB
:10E5A000FFFFFFFFFFFFFFFFFFFFFFF7FFFFFFFF83
:10E5B000FFFFFFFFFFFFFFFFFFFFDFFFFFFFFFFF8B
:10E5C000FFFFFFFFFFFFFFFFDFFFDFFFFFFFDFFFBB
:10E5D000DFFFFFFFFFFFFFFFFFFFFFFFFFFFFFFF6B
:10E5E000FFFFFFFFFFFFFFFFFFFFFFFFFFFFFFFF3B
:10E5F000FFFFFFFFFFFFFFFFFFFFFFFFFFFFFFFF2B
:10E60000FFFFFFFFFFFFFFFFFFFFFFFFFFFFFFFF1A
:10E61000FFFFFFFFFFFFFFFFFFFFFFFFFFFFFFFF0A
:10E62000FFFFFFFFFFFFFFFFFFFFFFFFFFFFFFFFFA
:10E63000FFFFFFFFFFFFFFFFFFFFFFFFFFFFFFFFEA
:10E64000FFFFFFFFFFFFFFFFFFFFFFFFFFFFFFFFDA
:10E65000FFFFFFFF8E73AE73FFFFFFFFFFFFFFFFA4
:10E660003084308492940C6379CEFFFFFFFFFFFF6C
:10E67000FFFFFFFFFFFFFFFFFFFFFFFFFFFF1CE7A5
:10E68000EB5AD39C92944D6BDFFFFFFFFFFFFFFF20
:10E6900092946D6B7DEFFFFFFFFFFFFFFFFFFFFF1A
:10E6A000FFFFFFFFFFFFFFFFFFFFFFFFFFFFFFFF7A
:10E6B000FFFFFEFF1BE7BAD6FFFFFFFFFFFFFFFFD5
:10E6C000FFFFFFFFFFFFFFFFFDFF99DE4E63BFEF80
:10E6D000FFFFFFFFDFFFFFFFFFFFFFFFFFFFFFFF6A
:10E6E000DFFFFFFFFFFFFFFFFFFFFFFFFFFFFFFF5A
:10E6F000FFFFFFFFFFFFFFFFFFFFFFFFFFFFFFFF2A
:10E70000FFFFFFFFFFFFFFFFFFFFFFFFFFFFFFFF19
:10E71000FFFFFFFFFFFFFFFFFFFFFFFFFFFFFFFF09
:10E72000FFFFDFFFFFFFFFFFFFFFFFFFFFFFFFFF19
:10E73000DFFFDFFFFFFFFFFFFFFFFFFFFFFFFFFF29
:10E74000FFFFFFFFDFFFFFFFFFFFFFFFDFFFFFFF19
:10E75000FFFFFFFFFFFFFFFFFFFFFFFFFFFFFFFFC9
:10E76000D8BDBBD6FFFFFFFFFFFFFEFFFFFFFFFF90
:10E77000FFFFFFFFFFFFFFFFDFFFFFFFFFFFDFFFE9
:10E78000DFFFFFFFFFFFFFF7FFFFFFFFFFFFFFFFC1
:10E79000DFFFFFFFDFFFFFFFDEFFFFFFB9DEB6B5E4
:10E7A0007ACEFFFFFFFFFFFFFFFFFFFFFFFFFFFF2F
:10E7B000FFFFFFFFFFFFFFFFFFFFFFFFFFFFFFFF69
:10E7C000FFFFFFFFFFFFFFFFFFFFFFFFFFFFFFFF59
:10E7D000FFFFFFFFFFFFFFFFFFFFFFFFFFFFFFFF49
:10E7E000FFFFFFFFFFFFFFFFFFFFFFFFFFFFFFFF39
:10E7F000FFFFFFFFFFFFFFFFFFFFFFFFFFFFFFFF29
:10E80000FFFFFFFFFFFFFFFFFFFFFFFFFFFFFFFF18
:10E81000FFFFFFFFFFFFFFFFFFFFFFFFFFFFFFFF08
:10E82000FFFFFFFFFFFFFFFFFFFFFFFFFFFFFFFFF8
:10E83000FFFFFFFF8E73AE73FFFFFFFFFFFFFFFFC2
:10E840003084308492940C6379CEFFFFFFFFFFFF8A
:10E85000FFFFFFFFFFFFFFFFFFFFFFFFFFFF1CE7C3
:10E86000EB5AD39C92944D6BDFFFFFFFFFFFFFFF3E
:10E8700092946D6B7DEFFFFFDFFFFFFFFFFFFFFF58
:10E88000FFFFFFFFFFFFFFFFFFFFFFFFFFFFFFFF98
:10E89000FDFFFDFF49620008F17BFFF7FFF7FFFF77
:10E8A000FFFFFFFFFFFFFEFFB7F640200200589D6D
:10E8B000FFF7FFFFFFFFDFF7FFFFFFFFFFFFFFFF98
:10E8C000FFFFDFFFFFFFFFFFFFFFFFFFFFFFFFFF78
:10E8D000DEF7FEFFFDFFFDFFFFFFFFFFFFFFFFFF76
:10E8E000FFFFFFFFFFF7FFFFFFFFDFF7FFF7FFF778
:10E8F000FFFFFFFFFFFFDFFFFEFFFAE61BE7BADEC9
:10E90000DBDEDBDEDADEFBD61CCFDFE7FFFFDFFF7F
:10E910001BF7B9EEDAE6DBDEDBDEDBDEDBDEDBD6E9
:10E92000DCCEFFF7FFFFFFFFFFFFDEFFFFFFFFFF74
:10E93000FFFFFFFFFFFFFFFFFFFFDEFFFCFFF1AC6C
:10E94000000843089FD7FFEFFFFFFFFFFFFFFFFF18
:10E95000DFFFFFFFFFFFFFFFFFFFDFFFDEFFDEFF49
:10E96000FFFFFFFFFFFFFFFFFFFFDFFFFFF7FFF7E7
:10E97000FFFFFFFFFFFFFEFFFDFFDCFFC1280000E0
:10E98000989DFFE7FFF7FFFFFFFFFFFFFEFFFFFF81
:10E99000FFFFFFFFFFFFFFFFFFFFFFFFFFFFFFFF87
:10E9A000FFFFFFFFFFFFFFFFFFFFFFFFFFFFFFFF77
:10E9B000FFFFFFFFFFFFFFFFFFFFFFFFFFFFFFFF67
:10E9C000FFFFFFFFFFFFFFFFFFFFFFFFFFFFFFFF57
:10E9D000FFFFFFFFFFFFFFFFFFFFFFFFFFFFFFFF47
:10E9E000FFFFFFFFFFFFFFFFFFFFFFFFFFFFFFFF37
:10E9F000FFFFFFFFFFFFFFFFFFFFFFFFFFFFFFFF27
:10EA0000FFFFFFFFFFFFFFFFFFFFFFFFFFFFFFFF16
:10EA1000FFFFFFFF8E73AE73FFFFFFFFFFFFFFFFE0
:10EA20003084308492940C6379CEFFFFFFFFFFFFA8
:10EA3000FFFFFFFFFFFFFFFFFFFFFFFFFFFF1CE7E1
:10EA4000EB5AD39C92944D6BDFFFFFFFFFFFFFFF5C
:10EA500092946D6B7DEFFFFFDFFFFFFFFFFFFFFF76
:10EA6000FFFFFFFFFFFFFFFFFFFFFFFFFFFFFEFFB7
:10EA7000FCFFB8EE211823107FE7FFF7FFFFFFFF31
:10EA8000FFFFDFFFFFFFFEFFDCFFF2B402004400E8
:10EA90005EDFFFF7FFF7FFFFFFFFFFFFFFF7FFFF5F
:10EAA000FFFF1BF7BBDEDBDEBADEFBDEFCDE1CDFBE
:10EAB0001BDFFAD6BCF712A5210001000000000000
:10EAC00000000000000000000000000085005FDF83
:10EAD000FFFFFFFFFFFFFFFF16CE0000000000005A
:10EAE00000000000000800004100526CFFF7DDFF4D
:10EAF000276200100000000000000000000000007D
:10EB000064005CBEFFFFFFFFDEFFFEFFFFFFFFFFB5
:10EB1000FFFFFFFFFFFFFFFFFFFFFEFFFCFFBCFF4C
:10EB2000A3280100CC3AFFE7FFF7FFFFFFFFDFFF5D
:10EB3000FFFFFFFFFFFFFFFFFFFFDFFFFAEE6018A1
:10EB40000000000000000000000800001274FFEF49
:10EB5000FFFFFFFFFFFFFEFFFBFFCFAC0008000041
:10EB6000C921DFE7FFFFFFFFDEF7FFFFFFFFFFFF2A
:10EB7000FFFFFFFFFFFFFFFFFFFFFFFFFFFFFFFFA5
:10EB8000FFFFFFFFFFFFFFFFFFFFFFFFFFFFFFFF95
:10EB9000FFFFFFFFFFFFFFFFFFFFFFFFFFFFFFFF85
:10EBA000FFFFFFFFFFFFFFFFFFFFFFFFFFFFFFFF75
:10EBB000FFFFFFFFFFFFFFFFFFFFFFFFFFFFFFFF65
:10EBC000FFFFFFFFFFFFFFFFFFFFFFFFFFFFFFFF55
:10EBD000FFFFFFFFFFFFFFFFFFFFFFFFFFFFFFFF45
:10EBE000FFFFFFFFFFFFFFFFFFFFFFFFFFFFFFFF35
:10EBF000FFFFFFFF8E73AE73FFFFFFFFFFFFFFFFFF
:10EC00003084308492940C6379CEFFFFFFFFFFFFC6
:10EC1000FFFFFFFFFFFFFFFFFFFFFFFFFFFF1CE7FF
:10EC2000EB5AD39C92944D6BDFFFFFFFFFFFFFFF7A
:10EC300092946D6B7DEFFFFFFFFFFFFFFFFFFFFF74
:10EC4000FFFFFFFFFFFFFFFFFFFFFFFFFFFFDEFFF5
:10EC5000DBFF6B8302003474FFF7FFFF15DE00104B
:10EC60000008010000000000000800080100210069
:10EC70002000200000000000000022007BB6FFF70B
:10EC80007CFFC13000000000000000000000000018
:10EC9000000000001084F59CC831E831E731E6310E
:10ECA000C639E741A741A64184410000CA21DFDF00
:10ECB000FFF7FFFFFFFFFFFFF4D50008106CD89DA2
:10ECC000B7ADB5BD93C5B09C22005364FFF7BDFF3F
:10ECD000286A001896A5F7A5D7B5B6BD93C56C737D
:10ECE00043007DB6FFF7FFFFBDFFFDFFFEFFFFFF07
:10ECF000FFFFDFFFFFFFFFFFDFFFFFFFFEFFFEFF66
:10ED000017D60000EC52FFEFFFF7FFFFFFFFFFFFFA
:10ED1000FFFFFFFFFFFFFFFFFFF7FFF7FAE6264ABF
:10ED2000C639C739C739E741402000085795FFE782
:10ED3000FFF7FFFFFEFFFDFFB6EE60206108906B5E
:10ED40000200F17BDFF7FFFFFFFFFFFFFFFFFFFF89
:10ED5000FFFFFFFFFFFFFFFFFFFFFFFFFFFFFFFFC3
:10ED6000FFFFFFFFFFFFFFFFFFFFFFFFFFFFFFFFB3
:10ED7000FFFFFFFFFFFFFFFFFFFFFFFFFFFFFFFFA3
:10ED8000FFFFFFFFFFFFFFFFFFFFFFFFFFFFFFFF93
:10ED9000FFFFFFFFFFFFFFFFFFFFFFFFFFFFFFFF83
:10EDA000FFFFFFFFFFFFFFFFFFFFFFFFFFFFFFFF73
:10EDB000FFFFFFFFFFFFFFFFFFFFFFFFFFFFFFFF63
:10EDC000FFFFFFFFFFFFFFFFFFFFFFFFFFFFFFFF53
:10EDD000FFFFFFFF8E73AE73FFFFFFFFFFFFFFFF1D
:10EDE0003084308492940C6379CEFFFFFFFFFFFFE5
:10EDF000FFFFFFFFFFFFFFFFFFFFFFFFFFFF1CE71E
:10EE0000EB5AD39C92944D6BDFFFFFFFFFFFFFFF98
:10EE100092946D6B7DEFFFFFFFFFFFFFFFFFFFFF92
:10EE2000FFFFFFFFFFF7FFFFFFFFFFFFFFFFFEFFFB
:10EE300097F6602084007FCFFFF7FFFFD3DD001837
:10EE4000E8412E632D632C632D6B2D6B0C632C63BB
:10EE50002B5B4C632C630C6BE74921089BB6FFEFDF
:10EE6000BDFF6C8B2C6B2D6BEB62200086216E5BE3
:10EE70000C632D6377ADFFFFFFFFB6B59AC6FFF7B2
:10EE8000FFFFDEFFFFFFDEFFD8EEA018A919FFDFAE
:10EE9000FFF7FFFFFFFFDEFFF4DD00087695FFE7D9
:10EEA000FFF7FEFFDCFF16CE23003464FFF7FEFF02
:10EEB000E85901183DDFFFEFFFFFBEFFDBFFF0ACBD
:10EEC00064007DAEFFF7FEFFFCFF8B8300000000B7
:10EED0000000000000000000200000000000000012
:10EEE0000000000000000100000020000000000001
:10EEF00000000000000000008C3AFFEFFEFFFDFF65
:10EF0000FFFFFFFFFFFFFFFF90B40008789DFFE7C2
:10EF1000FFF7FFFFFEFFDDFF675A0000359DDFF7BB
:10EF20004952000857A5FFF7FFFFFFFFFFFFFFFF54
:10EF3000DFFFFFFFFFFFFFFFFFFFFFFFFFFFFFFF01
:10EF4000FFFFFFFFFFFFFFFFFFFFFFFFFFFFFFFFD1
:10EF5000FFFFFFFFFFFFFFFFFFFFFFFFFFFFFFFFC1
:10EF6000FFFFFFFFFFFFFFFFFFFFFFFFFFFFFFFFB1
:10EF7000FFFFFFFFFFFFFFFFFFFFFFFFFFFFFFFFA1
:10EF8000FFFFFFFFFFFFFFFFFFFFFFFFFFFFFFFF91
:10EF9000FFFFFFFFFFFFFFFFFFFFFFFFFFFFFFFF81
:10EFA000FFFFFFFFFFFFFFFFFFFFFFFFFFFFFFFF71
:10EFB000FFFFFFFF8E73AE73FFFFFFFFFFFFFFFF3B
:10EFC0003084308492940C6379CEFFFFFFFFFFFF03
:10EFD000FFFFFFFFFFFFFFFFFFFFFFFFFFFF1CE73C
:10EFE000EB5AD39C92944D6BDFFFFFFFFFFFFFFFB7
:10EFF00092946D6B7DEFFFFFDFFFFFFFFFFFFFFFD1
:10F00000FFFFFFFFFFF7FFFFDFFFFFFFFFFFBDFF7A
:10F010006C8B0008526CFFE7FFF7FFFF13DE001058
:10F02000569DFFEFFFF7FFFFFFFFFFFFFFFFFFFF13
:10F03000FFFFFFFFFFFFDFFFB1B400089BB6FFE754
:10F04000FFFFDFFFFFFFDEFFF0AC00081174FFEFF2
:10F05000FFFFFFFFFFFFFFFF14D60000AC42FFEFF2
:10F06000FFFFDFFFFFFFFEFF14DE0008CD3AFFDFEA
:10F07000FFF7FFFFFFFFDEFFF4DD00087695FFE7F7
:10F08000FFF7DEFFDBFF16CE23003464FFF7FEFF41
:10F090000A6202207FE7FFF7FFFFFEFFDBFFAFA45E
:10F0A00043009DB6FFF7FDFFDAFF6A830000010011
:10F0B00000000000610000000000000000000000EF
:10F0C00000002000400020000000000000000000C0
:10F0D0000000000000080000AE32FFE7FFFFDDFF88
:10F0E0004E73CD5ABFF7FEFF6B8B00107BBEFFE760
:10F0F000FFFFDEFFDBFF6A830100AD42FFF7FFFF8A
:10F1000098EE401804005EBEFFF7FFFFFFFFDFFF31
:10F11000DFFFFFFFFFFFFFFFFFFFFFFFFFFFFFFF1F
:10F12000FFFFFFFFFFFFFFFFFFFFFFFFFFFFFFFFEF
:10F13000FFFFFFFFFFFFFFFFFFFFFFFFFFFFFFFFDF
:10F14000FFFFFFFFFFFFFFFFFFFFFFFFFFFFFFFFCF
:10F15000FFFFFFFFFFFFFFFFFFFFFFFFFFFFFFFFBF
:10F16000FFFFFFFFFFFFFFFFFFFFFFFFFFFFFFFFAF
:10F17000FFFFFFFFFFFFFFFFFFFFFFFFFFFFFFFF9F
:10F18000FFFFFFFFFFFFFFFFFFFFFFFFFFFFFFFF8F
:10F19000FFFFFFFF8E73AE73FFFFFFFFFFFFFFFF59
:10F1A0003084308492940C6379CEFFFFFFFFFFFF21
:10F1B000FFFFFFFFFFFFFFFFFFFFFFFFFFFF1CE75A
:10F1C000EB5AD39C92944D6BDFFFFFFFFFFFFFFFD5
:10F1D00092946D6B7DEFFFFFDFFFFFFFFFFFFFFFEF
:10F1E000FFFFFFFFFFFFFFFFFFFFFFFFDDFFF9EE68
:10F1F000411062087DDFFFEFD06B76AD14DE0010AA
:10F20000569DFFEFFFF7FFFFFFFFFFFFDFFFFFFF51
:10F21000FFFFFFFFFFFFFFFFB1B400107AB6FFE76B
:10F22000FFF7FFFFFFFFFEFF8B8320087ABEFFEF93
:10F23000FFFFFFFFFFFFFEFF33DE0008136CFFE759
:10F24000FFFFFFFFFFFFFEFFF4DD0010336CFFE761
:10F25000FFF7FFFFFFFFDEFF13DE001035951EC72F
:10F26000FCD6FAE6D8EEB5BD24005464FFFFBDFF1E
:10F27000296201187ACEFCD6DBDEDAE6B7EE909C86
:10F2800065005DAEFFF7FDFFDAFF8A830100579549
:10F29000FFFFFFFFFEFFFFFFFFFFDFFFFFFFFFFF9F
:10F2A000FFFFFFFFFEFFFEFFFFFFFFFFFFFFFFFF70
:10F2B000FFFFFFFFF6D50000CE3AFFE7FFF7DDFFC7
:10F2C000C51868319EEFFEFF4B8320107ABEFFEF1A
:10F2D000FFFFDDFFD0B4000884009FCFFFF7FEFFE3
:10F2E000DDFF17DE020044009CCEFFF7FFFFFFFFAB
:10F2F000FFFFDFFFFFFFFFFFFFFFFFFFFFFFFFFF3E
:10F30000FFFFFFFFFFFFFFFFFFFFFFFFFFFFFFFF0D
:10F31000FFFFFFFFFFFFFFFFFFFFFFFFFFFFFFFFFD
:10F32000FFFFFFFFFFFFFFFFFFFFFFFFFFFFFFFFED
:10F33000FFFFFFFFFFFFFFFFFFFFFFFFFFFFFFFFDD
:10F34000FFFFFFFFFFFFFFFFFFFFFFFFFFFFFFFFCD
:10F35000FFFFFFFFFFFFFFFFFFFFFFFFFFFFFFFFBD
:10F36000FFFFFFFFFFFFFFFFFFFFFFFFFFFFFFFFAD
:10F37000FFFFFFFF8E73AE73FFFFFFFFFFFFFFFF77
:10F380003084308492940C6379CEFFFFFFFFFFFF3F
:10F39000FFFFFFFFFFFFFFFFFFFFFFFFFFFF1CE778
:10F3A000EB5AD39C92944D6BDFFFFFFFFFFFFFFFF3
:10F3B00092946D6B7DEFFFFFDFFFFFFFFFFFFFFF0D
:10F3C000FFFFFFFFFFFFFFFFFFFFFEFFBAFF8B8383
:10F3D0000100369DFEFF16CE2200A821B3CD0010FD
:10F3E000E8412E632C634C634D634D6B0C632C6BB7
:10F3F0004C6B2C632C632C6BC74901087BBEFFEF61
:10F40000FFF7FEFFFCFFDCFFE4188729DFE7FFF7CB
:10F41000FFFFFFFFFFFFDDFFEFB40008126CFFE707
:10F42000FFF7FFFFFFFFFEFFEEB40008136CFFE7DE
:10F43000FFF7FFFFFFFFDEFFF3DD001000002200FB
:10F44000010000000000000064001364FFFFBCFF27
:10F45000276200100000000000000000000800000B
:10F4600045005EB6FFF7FEFFDBFF6A83210077955C
:10F47000DFFFFEFFF1A4E962BCD6DFF7FFF7FFFF75
:10F48000FFFFFEFF6A830008569DFFEFFFF7FFFFB7
:10F49000FFFFFFFFF5D50008AD42FFE7FDFFBCF71A
:10F4A000E7186E4AFFFFFEFF6D8B20107DDFFFEF38
:10F4B000FDFFB1AC000823007CBEFFEFFFF7FFFFAC
:10F4C000DFFFDEFFB0AC000842005BBEFFEFFFF7DE
:10F4D000FFFFFFFFFFFFFFFFFFFFFFFFFFFFFFFF3C
:10F4E000FFFFFFFFFFFFFFFFFFFFFFFFFFFFFFFF2C
:10F4F000FFFFFFFFFFFFFFFFFFFFFFFFFFFFFFFF1C
:10F50000FFFFFFFFFFFFFFFFFFFFFFFFFFFFFFFF0B
:10F51000FFFFFFFFFFFFFFFFFFFFFFFFFFFFFFFFFB
:10F52000FFFFFFFFFFFFFFFFFFFFFFFFFFFFFFFFEB
:10F53000FFFFFFFFFFFFFFFFFFFFFFFFFFFFFFFFDB
:10F54000FFFFFFFFFFFFFFFFFFFFFFFFFFFFFFFFCB
:10F55000FFFFFFFF8E73AE73FFFFFFFFFFFFFFFF95
:10F560003084308492940C6379CEFFFFFFFFFFFF5D
:10F57000FFFFFFFFFFFFFFFFFFFFFFFFFFFF1CE796
:10F58000EB5AD39C92944D6BDFFFFFFFFFFFFFFF11
:10F5900092946D6B7DEFFFFFDFFFFFFFFFFFFFFF2B
:10F5A000FFFFFFFFFFFFFFFFFFFFDDFF13DE001088
:10F5B0008721DFEFDDFF475A4300569515D600102F
:10F5C000000001000000000000000000000000003A
:10F5D0000000000020000000000042085AB6FFEFC3
:10F5E000FFFFFDFFFBFFF0AC02001374FFF7FFFF0E
:10F5F000FFFFFFFFFFFFFEFFAFB400105695FFE7D0
:10F60000FFF7FFFFFFFFFEFF49830010579DFFE755
:10F61000FFF7FFFFFFFFFEFFF4D50008EF7BD8AD3B
:10F6200097B596B5D4BDB1942200326CFFF7DEFFDA
:10F63000285A001853B5919C318CB7BD76B5906BA4
:10F6400025005DBEFFFFFEFFDCFFF1AC4E5B5BBE45
:10F65000FFFFFAEEE449000800002F63DFE7FFF741
:10F66000FFFFFDFF456A0010368DFFE7FFF7FFFF44
:10F67000FFFFFFFFF9F6E96A9384FFF7FCFFF9E665
:10F68000A5088E42FFFF9DFF295A21187CE7FDF750
:10F69000AC83001023085CBEFFEFFFF7FFFFDFFF26
:10F6A000FFFFFEFFDBFFCFAC000062001164DFDF75
:10F6B000FFF7FFFFFFFFFFFFFFFFFFFFFFFFFFFF62
:10F6C000FFFFFFFFFFFFFFFFFFFFFFFFFFFFFFFF4A
:10F6D000FFFFFFFFFFFFFFFFFFFFFFFFFFFFFFFF3A
:10F6E000FFFFFFFFFFFFFFFFFFFFFFFFFFFFFFFF2A
:10F6F000FFFFFFFFFFFFFFFFFFFFFFFFFFFFFFFF1A
:10F70000FFFFFFFFFFFFFFFFFFFFFFFFFFFFFFFF09
:10F71000FFFFFFFFFFFFFFFFFFFFFFFFFFFFFFFFF9
:10F72000FFFFFFFFFFFFFFFFFFFFFFFFFFFFFFFFE9
:10F73000FFFFFFFF8E73AE73FFFFFFFFFFFFFFFFB3
:10F740003084308492940C6379CEFFFFFFFFFFFF7B
:10F75000FFFFFFFFFFFFFFFFFFFFFFFFFFFF1CE7B4
:10F76000EB5AD39C92944D6BDFFFFFFFFFFFFFFF2F
:10F7700092946D6B7DEFFFFFFFFFFFFFFFFFFFFF29
:10F78000FFFFFFFFFFFFFFFFFFFFFEFFEFB40008DB
:10F7900000000000001000088919DFE715D60008F6
:10F7A000169DDECEDBD6FBDEFBDEFBDEFCDEDCD632
:10F7B000DBD6FCDEDBD6DBDE729401007AC6FFF717
:10F7C000FFFFFDFFBAFF666222009DB6FFF7FFFF55
:10F7D000FFFFFFFFFFFFDEFF498B0010769DFFE775
:10F7E000FFF7FFFFFFFFFEFF6B8B00107AB6FFE70E
:10F7F000FFF7DFFFFFFFFFFF5BF7B5BDDCDEFFFFBD
:10F80000FFFFFFFFFFFFDEFFFAE6BBD6840868219B
:10F81000DCE6DAE61AF7C2300108338CFFFF1DD7A9
:10F82000D8ADBFEFFFFFFEFFFEFFFFFFFFFFFFFFB3
:10F83000FFFFFEFFFDFF909C602000004400746C01
:10F84000DFEFDDFF266A0010989DFFDFFFF7FFFF67
:10F85000FFFFFFFFFEFFFFFFDFFFFFFFFCFFF9EEF3
:10F8600084003274FEFFFDFF4A5A66417AFF465219
:10F87000000023003AC6FFFFFFFFFFFFFFFFFFFF6F
:10F88000FFFFFEFFFEFFFEFFF19C200042004F4BFA
:10F89000FFF7FFFFFFFFFFFFFFFFFFFFFFFFFFFF80
:10F8A000FFFFFFFFFFFFFFFFFFFFFFFFFFFFFFFF68
:10F8B000FFFFFFFFFFFFFFFFFFFFFFFFFFFFFFFF58
:10F8C000FFFFFFFFFFFFFFFFFFFFFFFFFFFFFFFF48
:10F8D000FFFFFFFFFFFFFFFFFFFFFFFFFFFFFFFF38
:10F8E000FFFFFFFFFFFFFFFFFFFFFFFFFFFFFFFF28
:10F8F000FFFFFFFFFFFFFFFFFFFFFFFFFFFFFFFF18
:10F90000FFFFFFFFFFFFFFFFFFFFFFFFFFFFFFFF07
:10F91000FFFFFFFF8E73AE73FFFFFFFFFFFFFFFFD1
:10F920003084308492940C6379CEFFFFFFFFFFFF99
:10F93000FFFFFFFFFFFFFFFFFFFFFFFFFFFF1CE7D2
:10F94000EB5AD39C92944D6BDFFFFFFFFFFFFFFF4D
:10F9500092946D6B7DEFFFFFFEFFFFFFFFFFFFFF48
:10F96000FFFFFFFFFFFFFFFFDEFFFEFF35CEC449B5
:10F970004B7BEB6A431023007CBEFFF7F4CD0010F5
:10F98000579DFFEFFFFFFFFFFFFFFFFFFFFFFFFFA1
:10F99000FFFFFFFFFFFFFFFFFFFFFFFFFFF7FFF787
:10F9A000DEFFFDFFF4E50010A8217995D8B5B7B5C5
:10F9B000D7AD9BC6FFFFDEFF6A93201879BEFFEF2D
:10F9C000FFF7FFFFFFFFBDFF286220187AB6FFE7B1
:10F9D000FFF7FFFFFEFFFEFFFEFFFFFFFFFFDFFF62
:10F9E000FFFFFFFFFFFFFFFFFDFF17CE0200F373D6
:10F9F000DFFFFFFFDDFFDAEE4A5A02008B4AFFF716
:10FA0000FFFFFFFFFFF7FFF7FFF7FFFFFFFFFEFF1F
:10FA1000FFFFFFFFFFFFFEFFFAF64D732300CD3A15
:10FA2000FFF7DDFF266200105795FFE7FFFFFFFF9E
:10FA3000FFFFDFFFFFFFFFFFFFFFDEFFDBFFD4CD98
:10FA400001003274FDFFDCFFC5204739BBFFAB7BF3
:10FA500063089DCE694A000000000000000000001D
:10FA600020000000000000004F84F6B5092A7FDF67
:10FA7000FFF7FFFFFFFFFFFFFFFFFFFFFFFFFFFF9E
:10FA8000FFFFFFFFFFFFFFFFFFFFFFFFFFFFFFFF86
:10FA9000FFFFFFFFFFFFFFFFFFFFFFFFFFFFFFFF76
:10FAA000FFFFFFFFFFFFFFFFFFFFFFFFFFFFFFFF66
:10FAB000FFFFFFFFFFFFFFFFFFFFFFFFFFFFFFFF56
:10FAC000FFFFFFFFFFFFFFFFFFFFFFFFFFFFFFFF46
:10FAD000FFFFFFFFFFFFFFFFFFFFFFFFFFFFFFFF36
:10FAE000FFFFFFFFFFFFFFFFFFFFFFFFFFFFFFFF26
:10FAF000FFFFFFFF8E73AE73FFFFFFFFFFFFFFFFF0
:10FB00003084308492940C6379CEFFFFFFFFFFFFB7
:10FB1000FFFFFFFFFFFFFFFFFFFFFFFFFFFF1CE7F0
:10FB2000EB5AD39C92944D6BDFFFFFFFFFFFFFFF6B
:10FB300092946D6B7DEFFFFFFEFFFFFFFFFFFFFF66
:10FB4000FEFFFFFFFFFFDFFFFFFFDEFFFEFFFDFF0A
:10FB5000BCFFD6D50200CF42FFF7FFFF14DE001036
:10FB600016A53FDFDCDEDADEDBDEFBE6DADEFBDE1F
:10FB7000FBDEFADEDADEFBDEDBDEFCD6FFE7FFF7DC
:10FB8000FEFFBCFF466200080200230000000000E8
:10FB90002200AC42FFFFDCFF066A00107ABEFFEFD6
:10FBA000FFF7FFFFFEFFDDFF295A21107EDFFFEF89
:10FBB000FFF7FFFFBBFF665A0000210000000000B6
:10FBC0000000000000000000000000000000010034
:10FBD0000000210000000000000000000000000004
:10FBE0000000000084009FD7FFFFFFFFFCFFDCFF49
:10FBF0004752CB629BCEFFF7DFFFFFFF39BE9EEF80
:10FC0000DEFFDDFF266200103795FFEFFFFFFFFFED
:10FC1000FFFFFFFFDFFFFFFFFFFFFEFFBBFFB0B4F3
:10FC20000100569DFEFFDDFFA4206C52FFFFFFF791
:10FC3000BEEFDEF7D19C2B6B4D6B2D6B0C6B2C6BE1
:10FC40002C632C634C632C6375ADFFF7FFFFFFFF44
:10FC5000FFFFFFFFFFFFFFFFFFFFFFFFFFFFFFFFB4
:10FC6000FFFFFFFFFFFFFFFFFFFFFFFFFFFFFFFFA4
:10FC7000FFFFFFFFFFFFFFFFFFFFFFFFFFFFFFFF94
:10FC8000FFFFFFFFFFFFFFFFFFFFFFFFFFFFFFFF84
:10FC9000FFFFFFFFFFFFFFFFFFFFFFFFFFFFFFFF74
:10FCA000FFFFFFFFFFFFFFFFFFFFFFFFFFFFFFFF64
:10FCB000FFFFFFFFFFFFFFFFFFFFFFFFFFFFFFFF54
:10FCC000FFFFFFFFFFFFFFFFFFFFFFFFFFFFFFFF44
:10FCD000FFFFFFFF8E73AE73FFFFFFFFFFFFFFFF0E
:10FCE0003084308492940C6379CEFFFFFFFFFFFFD6
:10FCF000FFFFFFFFFFFFFFFFFFFFFFFFFFFF1CE70F
:10FD0000EB5AD39C92944D6BDFFFFFFFFFFFFFFF89
:10FD100092946D6B7DEFFFFFFFFFFFFFFFFFFFFF83
:10FD2000FFFFFFFFDFFFFFFFDFFFFFFFFFFFFDFF25
:10FD30009BFFE23084007FCFFFF7FEFFF3DD001072
:10FD400014A58C4A220000000008000000000000FA
:10FD50000000000000000000000000001264FFF737
:10FD6000DDFFF4D500100008A929D9ADB4B5F29C87
:10FD700085008D3AFFFFDCFF476A00106621E8210D
:10FD8000C731E739C539A5390008000865210832AF
:10FD90002E53FFFFDCFF497BA639C731E839E73135
:10FDA000C631C539C539E639000000000000000041
:10FDB00000000100E831E731E7310732C739C739C0
:10FDC000A639E8390B2A7FD7FFFFFFFFFDFF35D6A5
:10FDD000601800080000CC52BDCEFFFFFFFFFFFF00
:10FDE000DDFFBCFF476A00185BBEFFEFFFFFFFFFB0
:10FDF000FFFFFFFFFFFFFFFFFFFFFDFFDCFFD1B4B1
:10FE000001004200E639843100080200E9217695BC
:10FE1000FFFFFEFFFEFFFEFFDEFFFFFF3DEFFFFFE8
:10FE2000FFFFDEFFFEFFFFFFFFFFFFFFFFFFFFFF04
:10FE3000FFFFFFFFFFFFFFFFFFFFFFFFFFFFFFFFD2
:10FE4000FFFFFFFFFFFFFFFFFFFFFFFFFFFFFFFFC2
:10FE5000FFFFFFFFFFFFFFFFFFFFFFFFFFFFFFFFB2
:10FE6000FFFFFFFFFFFFFFFFFFFFFFFFFFFFFFFFA2
:10FE7000FFFFFFFFFFFFFFFFFFFFFFFFFFFFFFFF92
:10FE8000FFFFFFFFFFFFFFFFFFFFFFFFFFFFFFFF82
:10FE9000FFFFFFFFFFFFFFFFFFFFFFFFFFFFFFFF72
:10FEA000FFFFFFFFFFFFFFFFFFFFFFFFFFFFFFFF62
:10FEB000FFFFFFFF8E73AE73FFFFFFFFFFFFFFFF2C
:10FEC0003084308492940C6379CEFFFFFFFFFFFFF4
:10FED000FFFFFFFFFFFFFFFFFFFFFFFFFFFF1CE72D
:10FEE000EB5AD39C92944D6BDFFFFFFFFFFFFFFFA8
:10FEF00092946D6B7EEFFFFFFFFFFFFFFFFFFFFFA1
:10FF0000FFFFFFFFFFFFFFFFDFFFDFFFFEFFFDFF44
:10FF1000B1AC00003374FFE7FFFFFEFFD4D500183B
:10FF2000F1AC6942A811B79D53B58020A929B9AD9C
:10FF300074BD6018ED5AD8B590A4A118136CFFEFEA
:10FF4000DBFFC03000080100AE3AFFEFFEFF1AE70A
:10FF50006400AD42FFFFBDFFA128000800002100A2
:10FF60000000000000000000000000000008000089
:10FF7000AD3AFFEFFFFFFEFFFFFFDFFFFFFFFFFFD9
:10FF8000DDFFFDFFFCFFB0942200430079C637C6B9
:10FF9000000066313ABEFFF7FFF7FFF7FFFFFFFFF4
:10FFA000DFFFFFFFFFF7FFF7FFFFFFFFFFFFFEFF92
:10FFB000DDFF90A46020000803000F53BFE7FEFFA1
:10FFC000FDFFBCFF832802087CBEFFEFFFF7FFFFA9
:10FFD000FFFFFFFFFFFFFFFFFFFFDEFFDDFF6C8383
:10FFE00000002100000000000008000822005795D2
:10FFF000FFFFDEFFFFF7FFFFDDFF4B7B43007CB61B
:020000040801F1
:10000000FFFFFFFFDCFFD9EEC510347CFFFFFFFFD1
:10001000FFFFFFFFFFFFFFFFFFFFFFFFFFFFFFFFF0
:10002000FFFFFFFFFFFFFFFFFFFFFFFFFFFFFFFFE0
:10003000FFFFFFFFFFFFFFFFFFFFFFFFFFFFFFFFD0
:10004000FFFFFFFFFFFFFFFFFFFFFFFFFFFFFFFFC0
:10005000FFFFFFFFFFFFFFFFFFFFFFFFFFFFFFFFB0
:10006000FFFFFFFFFFFFFFFFFFFFFFFFFFFFFFFFA0
:10007000FFFFFFFFFFFFFFFFFFFFFFFFFFFFFFFF90
:10008000FFFFFFFFFFFFFFFFFFFFFFFFFFFFFFFF80
:10009000FFFFFFFF8E73AE73FFFFFFFFFFFFFFFF4A
:1000A0003084308492940C6379CEFFFFFFFFFFFF12
:1000B000FFFFFFFFFFFFFFFFFFFFFFFFFFFF1CE74B
:1000C000EB5AD39C92944D6BDFFFFFFFFFFFFFFFC6
:1000D00092946D6B5EEFFFFFDFFFFFFFFFFFFFFFFF
:1000E000FFFFFFFFFFFFFFFFDFFFFFFFFDFFF9EE59
:1000F00061188731BFEFFFF7FFFFFFFFB1B40018B2
:1001000035D6884AE911FFDFBCFFA0306D42FFF70A
:100110009DFFA1281274FFF7B8EE6020336CFFEF4B
:10012000D0A4001022396208CF32FFE7FDFFF9E6C4
:100130008400AE42FFFFFFFFDFFFDFFFFFFFFFFF97
:10014000FFFFFFFFDFFFFFFFDFFFFFFFD0AC000877
:10015000336CFFE7FFFFFEFFFFFFFFFFFFFFBEFF68
:10016000D6C56C730000400088197CB6FFF7FEFF0F
:10017000D6C561100100672196A5FFFFDFFFFFFFD5
:10018000FFFFFFFFFFF7FFFFFFFFFFFFDFFFFFFFA7
:10019000FEFFFDFFBCFFAE8302003374FFF7FFFFDD
:1001A000FCFFD8E6631844085FDFFFEFFFFFFFFFA7
:1001B000FFFFFFFFFFFFFFFFFFFFFFFFDEFFFEFF71
:1001C000FFFFFFFFFFFFFEFFFCFFD1A463007CB633
:1001D000FBF6C230A821DFE7DCFFF1B40200136CAC
:1001E000FFF7FEFFDBFFF1B40300146CFFFFFFFF1E
:1001F000FFFFFFFFFFFFFFFFFFFFFFFFFFFFFFFF0F
:10020000FFFFFFFFFFFFFFFFFFFFFFFFFFFFFFFFFE
:10021000FFFFFFFFFFFFFFFFFFFFFFFFFFFFFFFFEE
:10022000FFFFFFFFFFFFFFFFFFFFFFFFFFFFFFFFDE
:10023000FFFFFFFFFFFFFFFFFFFFFFFFFFFFFFFFCE
:10024000FFFFFFFFFFFFFFFFFFFFFFFFFFFFFFFFBE
:10025000FFFFFFFFFFFFFFFFFFFFFFFFFFFFFFFFAE
:10026000FFFFFFFFFFFFFFFFFFFFFFFFFFFFFFFF9E
:10027000FFFFFFFF8E73AE73FFFFFFFFFFFFFFFF68
:100280003084308492940C6379CEFFFFFFFFFFFF30
:10029000FFFFFFFFFFFFFFFFFFFFFFFFFFFF1CE769
:1002A000EB5AD39C92944D6BDFFFFFFFFFFFFFFFE4
:1002B00092946D6B7EEFFFFFDFFFFFFFFFFFFFFFFD
:1002C000FFFFFFFFFFFFFFFFFFFFFFFF9BFFA030D0
:1002D0000008C8392942C831A5088C4AB2AC201898
:1002E00014CEA84AEA11DFDF9CFFC138AC42FFF709
:1002F0007CFFA130126CFFEFB8EE40203374FFE7B3
:10030000BEFF465A35DE8010CD32FFE7FDFFD9E64D
:1003100084008E3AFFFFFFFFFFFFFFFFFFFFFFFF9D
:10032000FFFFDFFFFFFFFFFFDFFFFEFFCFB400088F
:10033000326CFFEFBDFFD4CD4F94284A82180000E5
:100340000000200065195595DFEFFFF7FFF7FFFF6D
:10035000DDFF3BEF6C730000000000000108094264
:100360002C634D5B505399A5FFFFDEFFFFFFFFFF9E
:10037000FFFFFEFFFEFFFFFF3DE7BFEFFFFFFFFFB9
:10038000DDFF16D60100A921BFEFFFF7FFFFFFFF3A
:10039000FFFFFFFFFFFFFFFFFFF7FFF7FFFFFFFF7D
:1003A000FFFFFFFFFFFFFDFFDBFF6B7B64007CB601
:1003B000BCFF465A64007CBEFEFFFAEE64108D4A14
:1003C000FFFFFEFFBAFF466244007EB6FFF7FFFF65
:1003D000FFFFFFFFFFFFFFFFFFFFFFFFFFFFFFFF2D
:1003E000FFFFFFFFFFFFFFFFFFFFFFFFFFFFFFFF1D
:1003F000FFFFFFFFFFFFFFFFFFFFFFFFFFFFFFFF0D
:10040000FFFFFFFFFFFFFFFFFFFFFFFFFFFFFFFFFC
:10041000FFFFFFFFFFFFFFFFFFFFFFFFFFFFFFFFEC
:10042000FFFFFFFFFFFFFFFFFFFFFFFFFFFFFFFFDC
:10043000FFFFFFFFFFFFFFFFFFFFFFFFFFFFFFFFCC
:10044000FFFFFFFFFFFFFFFFFFFFFFFFFFFFFFFFBC
:10045000FFFFFFFF8E73AE73FFFFFFFFFFFFFFFF86
:100460003084308492940C6379CEFFFFFFFFFFFF4E
:10047000FFFFFFFFFFFFFFFFFFFFFFFFFFFF1CE787
:10048000EB5AD39C92944D6BDFFFFFFFFFFFFFFF02
:1004900092946D6B7EEFFFFFDFFFFFFFFFFFFFFF1B
:1004A000FFFFFFFFFFFFFFFFFFFFFEFF9CFF80300E
:1004B000000001000000C739C929369D6E7B201855
:1004C00038F7674AC819DFE79CFF80288B42FFF79F
:1004D0009CFFA1281274FFEFF9EE6018136CFFEF78
:1004E000FFFFDDFFB6EE8018CD32FFE7FDFFD9EE4E
:1004F000A4008D42FFFFFFFFFFFFFFFFFEFFFFFF96
:10050000FFFFFFFFFFFFFFFFFFFFFFFFCFB4001064
:10051000116CFFEF37CE0008201000080000E94101
:1005200052843DD7FFF7FFF7FFF7FFFFFFFFFEFF06
:10053000FDFFFDFFFDFFFEFFF5C5EA6A6218000042
:100540000100220065005FDFFBE62652A641E73985
:10055000E731C631E739A631E739E739C739C6414E
:100560008449601821002200E831A739C739C7390A
:10057000C731E739E739E731E921769DFFFFDEFF33
:10058000FFFFFFFFFFFFF6C571C58C7B64005CB603
:10059000FCFFD0AC0200F373FFFFFEFF29524210B4
:1005A0005EE7FFFFB7F660208921DFDFFFF7FFFF7F
:1005B000FFFFFFFFFFFFFFFFFFFFFFFFFFFFFFFF4B
:1005C000FFFFFFFFFFFFFFFFFFFFFFFFFFFFFFFF3B
:1005D000FFFFFFFFFFFFFFFFFFFFFFFFFFFFFFFF2B
:1005E000FFFFFFFFFFFFFFFFFFFFFFFFFFFFFFFF1B
:1005F000FFFFFFFFFFFFFFFFFFFFFFFFFFFFFFFF0B
:10060000FFFFFFFFFFFFFFFFFFFFFFFFFFFFFFFFFA
:10061000FFFFFFFFFFFFFFFFFFFFFFFFFFFFFFFFEA
:10062000FFFFFFFFFFFFFFFFFFFFFFFFFFFFFFFFDA
:10063000FFFFFFFF8E73AE73FFFFFFFFFFFFFFFFA4
:100640003084308492940C6379CEFFFFFFFFFFFF6C
:10065000FFFFFFFFFFFFFFFFFFFFFFFFFFFF1CE7A5
:10066000EB5AD39C92944D6BDFFFFFFFFFFFFFFF20
:1006700092946D6B7EEFFFFFFFFFFFFFFFFFFFFF19
:10068000FFFFFFFFFFFFFFFFFFFFDEFFBDFF1BF7C9
:10069000FCE6DFFFFFFFFEFFFEFFFFFF2A4A4639B1
:1006A0007AFF665A0000C739833920080000E73115
:1006B000A33100004300E931833120003364FFE7B8
:1006C000FFFFDEFFD8FE8020AD3AFFE7FDFFF8E632
:1006D0008400AD42D9E62A730B6B0C634C6B2C6B18
:1006E0004D730C6B2D6B2D6370539AC6AFAC00101D
:1006F000326CFFE7DFFFB0A46EA40010A739C83941
:10070000C839C739C739C839CA299584FFF7FEFFE8
:10071000AC8BC449E641A631C739C741854185390B
:100720004300126CBCBEFFFFB9E660200000000071
:100730000000200000002000000000000000000079
:10074000001000082100410000000000000000002F
:1007500000000000000000002200359DF9F6B0B452
:100760000852411000002000665A8D7B45007DB67E
:10077000FEFFF9E663186831DFEFFFFF6B7B0008CF
:100780005695FFF7D0AC00101274FFEFFFF7DFFFB4
:10079000FEFFFFFFFFFFFFFFFFFFFFFFFFFFFFFF6A
:1007A000FFFFFFFFFFFFFFFFFFFFFFFFFFFFFFFF59
:1007B000FFFFFFFFFFFFFFFFFFFFFFFFFFFFFFFF49
:1007C000FFFFFFFFFFFFFFFFFFFFFFFFFFFFFFFF39
:1007D000FFFFFFFFFFFFFFFFFFFFFFFFFFFFFFFF29
:1007E000FFFFFFFFFFFFFFFFFFFFFFFFFFFFFFFF19
:1007F000FFFFFFFFFFFFFFFFFFFFFFFFFFFFFFFF09
:10080000FFFFFFFFFFFFFFFFFFFFFFFFFFFFFFFFF8
:10081000FFFFFFFF8E73AE73FFFFFFFFFFFFFFFFC2
:100820003084308492940C6379CEFFFFFFFFFFFF8A
:10083000FFFFFFFFFFFFFFFFFFFFFFFFFFFF1CE7C3
:10084000EB5AD39C92944D6BDFFFFFFFFFFFFFFF3E
:1008500092946D6B7EEFFFFFFFFFFFFFFFFFFFFF37
:10086000FFFFFFFFDFFFFFFFFFFFFEFFFEFFFFFFBA
:10087000DFFFFFFFFFFFFEFFFDFFFADE64088C5283
:10088000BBFF25620000C639A33900000000E73134
:10089000C33900002200A93184392000536CFFE7DE
:1008A000FFF7DEFF97F64018CE42FFE7FDFFF8E6C0
:1008B00084008D4238D600080000000000000000CF
:1008C00000000000000000002200769DCFB4001060
:1008D000779DFFE7FFFFDEFFF3DD00104100E93108
:1008E000C839A641A64961100400146CDFF7FFFF68
:1008F0008B8B00104429E731C731C639C5496018D0
:100900002200588DFFF7FEFFDEFFDEFFFEFFFFFF38
:10091000FFFFFFFFFFFFFFFFFFFFDEFFFEFFDEFF2A
:10092000485A0008AB4AFFF7FFFFFFFFFFFFFFFF3A
:10093000FFFFFFFFFFFFFFFFFFF7FFFF8C8B0010A4
:10094000000841080C5B54A5BBFF6C7B45005FD7DA
:10095000FFFFDDFF285A00087BBEFFF7F1A4000867
:100960001074FFF7485200087BC6FFF7FFFFFFFF38
:10097000FFFFFFFFFFFFFFFFFFFFFFFFFFFFFFFF87
:10098000FFFFFFFFFFFFFFFFFFFFFFFFFFFFFFFF77
:10099000FFFFFFFFFFFFFFFFFFFFFFFFFFFFFFFF67
:1009A000FFFFFFFFFFFFFFFFFFFFFFFFFFFFFFFF57
:1009B000FFFFFFFFFFFFFFFFFFFFFFFFFFFFFFFF47
:1009C000FFFFFFFFFFFFFFFFFFFFFFFFFFFFFFFF37
:1009D000FFFFFFFFFFFFFFFFFFFFFFFFFFFFFFFF27
:1009E000FFFFFFFFFFFFFFFFFFFFFFFFFFFFFFFF17
:1009F000FFFFFFFF8E73AE73FFFFFFFFFFFFFFFFE1
:100A00003084308492940C6379CEFFFFFFFFFFFFA8
:100A1000FFFFFFFFFFFFFFFFFFFFFFFFFFFF1CE7E1
:100A2000EB5AD39C92944D6BDFFFFFFFFFFFFFFF5C
:100A300092946D6B7EEFFFFFFFFFFFFFFFFFFFFF55
:100A4000FFFFFFFFFFFFFFFFFFFFFFFFBDFFFEFFF9
:100A5000DFFFFFFFFFFF1CEFF6CD718C2400D16B91
:100A6000DBFF4562A721DFE79BFFC0288C42FFF731
:100A70009CFFE128F273FFF7D9F64018326CFFE7CC
:100A8000FFFFDEFFD8FE6018AE3AFFE7FDFF19E773
:100A900084008E42DFFFDBE6DBDEDADEFADEFAD64A
:100AA000DBDEFCDEDBDEDBD61DDFFFFF298B00108B
:100AB0005695FFE7FFF7FEFFF3DD0010579DFFEFB0
:100AC000FFFFDEFFDCFFF6D52300346CFFFFFFFFE6
:100AD0004C8320187DE7FFF7FFFFFEFFDBFFF1AC43
:100AE0002200988DFFF7FFFFDFFFDFFFFFFFFFFF13
:100AF000FFFFFFFFFFFFFFFFFEFFFDFFBCFF475AA9
:100B00000008000000000D53FDCEFFF7FFF7FFFFC8
:100B1000DFFFFFFFFFFFFFFFFFFFBFFFF7C575BD53
:100B20009DF7FFFFFFF7FDFFFBFF6B7B65005FD7C6
:100B3000FFF7FEFFD1AC00101174FFF71BE7E5498A
:100B400093B5F9DEC308A821BFEFFFFFDFFFFFFF6A
:100B5000FFFFFEFFFFFFFFFFFFFFFFFFFFFFFFFFA6
:100B6000FFFFFFFFFFFFFFFFFFFFFFFFFFFFFFFF95
:100B7000FFFFFFFFFFFFFFFFFFFFFFFFFFFFFFFF85
:100B8000FFFFFFFFFFFFFFFFFFFFFFFFFFFFFFFF75
:100B9000FFFFFFFFFFFFFFFFFFFFFFFFFFFFFFFF65
:100BA000FFFFFFFFFFFFFFFFFFFFFFFFFFFFFFFF55
:100BB000FFFFFFFFFFFFFFFFFFFFFFFFFFFFFFFF45
:100BC000FFFFFFFFFFFFFFFFFFFFFFFFFFFFFFFF35
:100BD000FFFFFFFF8E73AE73FFFFFFFFFFFFFFFFFF
:100BE0003084308492940C6379CEFFFFFFFFFFFFC7
:100BF000FFFFFFFFFFFFFFFFFFFFFFFFFFFF1CE700
:100C0000EB5AD39C92944D6BDFFFFFFFFFFFFFFF7A
:100C100092946D6B7DEFFFFFFFFFFFFFFFFFFFFF74
:100C2000FFFFFFFFFFFFFFFFFFFFDEFFF6CD0A6BB9
:100C3000A7398310010800080008000065007BBE8A
:100C4000DBFF455AC819DFE79CFFC130AD42FFEF1B
:100C50007CFFC130326CFFF7B8F640203274FFE7FA
:100C6000FFFFDEFFB7F66020AD42FFEFFDFFF9E6C4
:100C7000A500AF42FFFFFFFFFFFFFFFFFFFFFFFFEA
:100C8000FFFFFFFFFFFFFFFFFEFFFEFF8B93001044
:100C90005695FFE7FFF7FEFFF3DD00105795FFE7DE
:100CA000FFFFFEFFDCFF16CE23001364FFFFDFFF14
:100CB0002C8320189DE7FFEFFFF7FDFFDBFFD1A49A
:100CC0002200788DFFF7FFFFDFFFFFFFDFFFDFFF71
:100CD000FFFFFFFFFFFFFEFFFEFFD5C56018000806
:100CE00020084D6B821000002200671997A5FFFFB6
:100CF000FFFFFFFFFFFFFFFFFFFFFFFFDFFFFFFF24
:100D0000FFFFFFFFFFFFFDFFDAFF255A45007FDFF2
:100D1000FFF7FFFF16D62F94FDDEFFF7FFFFFDFF65
:100D2000FCFF6B7322007895FFF7FFFFFFFFFFFFCB
:100D3000FFFFFFFFFFFFFFFFFFFFFFFFFFFFFFFFC3
:100D4000FFFFFFFFFFFFFFFFFFFFFFFFFFFFFFFFB3
:100D5000FFFFFFFFFFFFFFFFFFFFFFFFFFFFFFFFA3
:100D6000FFFFFFFFFFFFFFFFFFFFFFFFFFFFFFFF93
:100D7000FFFFFFFFFFFFFFFFFFFFFFFFFFFFFFFF83
:100D8000FFFFFFFFFFFFFFFFFFFFFFFFFFFFFFFF73
:100D9000FFFFFFFFFFFFFFFFFFFFFFFFFFFFFFFF63
:100DA000FFFFFFFFFFFFFFFFFFFFFFFFFFFFFFFF53
:100DB000FFFFFFFF8E73AE73FFFFFFFFFFFFFFFF1D
:100DC0003084308492940C6379CEFFFFFFFFFFFFE5
:100DD000FFFFFFFFFFFFFFFFFFFFFFFFFFFF1CE71E
:100DE000EB5AD39C92944D6BDFFFFFFFFFFFFFFF99
:100DF00092946D6B7DEFFFFFFFFFFFFFFFFFFFFF93
:100E0000FFFFFFFFFFF7FFFFFFFFFFFFB0AC00108A
:100E100000004200C931519472BD6010C921DFE762
:100E2000BBFF4662C921BFDFBCFFC128AD3AFFE767
:100E3000BCFFC130336CFFE7B8F66028F16BFFEF01
:100E4000FFFFDEFFB7FE402800002000200000006A
:100E500024008F32FFFFFFFFFFFFFFFFFFFFFFFFB9
:100E6000FFFFFFFFFFFFDEFFFDFFDCFF285A010849
:100E70007BB6FFEFFFF7DDFFF3D50010369DFFEFE8
:100E8000FFFFFFFFFDFF37C64400346CFFFFBEFFCE
:100E90008C9320185CE7FFF7FFFFFEFFDDFF13AD2B
:100EA0002300788DFFF7DFFFFFFFFFFFDFFFFFFF6E
:100EB000DDFFFDFFDEFFF6C5074A000021008621A9
:100EC000DCD6DFFFDDFFF5C581100000000041002A
:100ED000527CBFEFFFF7FFF7FFFFDFFFFFFFFFFFD2
:100EE000FFFFFFFFFFFFFEFF9AFF666243003FDF49
:100EF000FFFFFFFFFEFFFFFFDFFFDFFFFFFFFEFF44
:100F00007BFFE33064007FD7FFF7FFFFFFF7FFFFB2
:100F1000DFFFFFFFFFFFFFFFFFFFFFFFFFFFFFFF01
:100F2000FFFFFFFFFFFFFFFFFFFFFFFFFFFFFFFFD1
:100F3000FFFFFFFFFFFFFFFFFFFFFFFFFFFFFFFFC1
:100F4000FFFFFFFFFFFFFFFFFFFFFFFFFFFFFFFFB1
:100F5000FFFFFFFFFFFFFFFFFFFFFFFFFFFFFFFFA1
:100F6000FFFFFFFFFFFFFFFFFFFFFFFFFFFFFFFF91
:100F7000FFFFFFFFFFFFFFFFFFFFFFFFFFFFFFFF81
:100F8000FFFFFFFFFFFFFFFFFFFFFFFFFFFFFFFF71
:100F9000FFFFFFFF8E73AE73FFFFFFFFFFFFFFFF3B
:100FA0003084308492940C6379CEFFFFFFFFFFFF03
:100FB000FFFFFFFFFFFFFFFFFFFFFFFFFFFF1CE73C
:100FC000EB5AD39C92944D6BDFFFFFFFFFFFFFFFB7
:100FD00092946D6B7DEFFFFFDFFFFFFFFFFFFFFFD1
:100FE000FFFFFFFFFFFFFFF7FFFFFFFF1BF7B5CD81
:100FF0009EF7FFFFFFFFFFFF8C830000126CFFF7DF
:10100000DBFF465AA919DFE7BCFFC128CD3AFFEF45
:101010009CFFC1303274FFF7D9F640203374FFEFE4
:10102000FFFFDEFFB7FE402044218E5B2B632C5B6D
:101030002400AE3AFFFFFFFFFFFFFFFFFFFFFFFFB0
:101040003CEFDAE6BAE6DAE6D8DEB09C00006408E7
:101050005FDFFFF7FFFFFEFF14DE0010010023003B
:10106000010000000008000024003464FFFFDEFFE0
:101070004B8B001020002000200000000008000022
:1010800023007895FFFFFFFFFFFFDEFFFFFFFFFF5D
:10109000D5C56C730000000000004100727CDFE7E2
:1010A000FFF7FFFFFEFFFDFFDDFFD6C5074A00008B
:1010B000000042002D5B9FE7FFF7FFFFFFFFFFFFF0
:1010C000FFFFFEFFFFFFDEFFB4C5000867291ABE61
:1010D0000D632C632C630C632D6B2D6B2C632B6BBE
:1010E000EA72000847194F532D5B2C636E63BCCE28
:1010F000FFFFFFFFFFFFFFFFFFFFFFFFFFFFFFFF00
:10110000FFFFFFFFFFFFFFFFFFFFFFFFFFFFFFFFEF
:10111000FFFFFFFFFFFFFFFFFFFFFFFFFFFFFFFFDF
:10112000FFFFFFFFFFFFFFFFFFFFFFFFFFFFFFFFCF
:10113000FFFFFFFFFFFFFFFFFFFFFFFFFFFFFFFFBF
:10114000FFFFFFFFFFFFFFFFFFFFFFFFFFFFFFFFAF
:10115000FFFFFFFFFFFFFFFFFFFFFFFFFFFFFFFF9F
:10116000FFFFFFFFFFFFFFFFFFFFFFFFFFFFFFFF8F
:10117000FFFFFFFF8E73AE73FFFFFFFFFFFFFFFF59
:101180003084308492940C6379CEFFFFFFFFFFFF21
:10119000FFFFFFFFFFFFFFFFFFFFFFFFFFFF1CE75A
:1011A000EB5AD39C92944D6BDFFFFFFFFFFFFFFFD5
:1011B00092946D6B7DEFFFFFFFFFFFFFFFFFFFFFCF
:1011C000FFFFFFFFFFFFFFFFFFFFFFFFFEFFFFFF30
:1011D000FFFFFFFFFDFF16CE000843105EDFFFFF9D
:1011E000BAFF6662C819FFDFBDFFE228AB42FFF716
:1011F000BCFF0552CA62B6BD2C730000336CFFE71A
:10120000FFF7FEFFB7FE2020AC4AFFEFFDFF1AE715
:1012100084008D42FFFFFFFFFFFFFFFFFFFFFEFF88
:1012200015D6000800080000000000004200F2632C
:10123000FFF7FFFFFFFFDEFFF3DD001809322F533A
:101240002E630C730B7B084A23003464FFF7FEFF08
:101250002B8B0018CA526D5B4D632B632A73064AB1
:1012600002005895FFFFDEFFF9F68C8B85390000F0
:101270002100010001004200527CDFEFFFFFFFFF71
:10128000FFFFFFFFFFFFFFFFFEFFDEFFFEFFF6C5D4
:10129000C5410008000000002F4BDFE7FFFFDEFF25
:1012A000065A00100000000021000000107CD39CB2
:1012B000000000000000000000000000000000002E
:1012C00000080000000000002000000043005BC692
:1012D000FFFFFFFFFFFFFFFFFFFFFFFFFFFFFFFF1E
:1012E000FFFFFFFFFFFFFFFFFFFFFFFFFFFFFFFF0E
:1012F000FFFFFFFFFFFFFFFFFFFFFFFFFFFFFFFFFE
:10130000FFFFFFFFFFFFFFFFFFFFFFFFFFFFFFFFED
:10131000FFFFFFFFFFFFFFFFFFFFFFFFFFFFFFFFDD
:10132000FFFFFFFFFFFFFFFFFFFFFFFFFFFFFFFFCD
:10133000FFFFFFFFFFFFFFFFFFFFFFFFFFFFFFFFBD
:10134000FFFFFFFFFFFFFFFFFFFFFFFFFFFFFFFFAD
:10135000FFFFFFFF8E73AE73FFFFFFFFFFFFFFFF77
:101360003084308492940C6379CEFFFFFFFFFFFF3F
:10137000FFFFFFFFFFFFFFFFFFFFFFFFFFFF1CE778
:10138000EB5AD39C92944D6BDFFFFFFFFFFFFFFFF3
:1013900092946D6B7DEFFFFFFFFFFFFFFFFFFFFFED
:1013A000FFFFFFFFFFFFFFFFFFFFFFFFFFFFFFFF4D
:1013B000FFFFFFFFFDFFBCFFA52017ADFFFFFFFFF5
:1013C000DCFF475AC719DFDFFFFFFEFFFFF7FFFF14
:1013D000FEFFFDFF8C7B0008000842007CB6FFEF9B
:1013E000FFF7FEFFB8EE27522E5BFFEFFEFFFDFF7B
:1013F000B7AD9CCEFFFFDFFFFFFFFFFFBFFFFEFF8C
:10140000F8EEC341A539C739C839E931368DFFEF48
:10141000FFFFFFFFDFFFDFFFF4DD0008359DFFF773
:10142000FFFFDFFFDEFFF7C52200326CFFF7FFFF93
:101430006C8340205CE7FFF7FFFFFFFFDDFFF2A4B6
:101440000200589DFFFFFEFF7BFFA0300008000058
:1014500022000E53BCCEFFF7FFF7FFF7FFFFFFFFA1
:10146000FFFFDFFFDFFFFFFFDEFFFFFFFEFFFEFFEF
:10147000FDFFD4C5E6490000CC3AFFEFFFFFDEFFD9
:10148000CC934020000801004611B384FFFFFFFF0A
:10149000BADEDBDEDBDEDCDEFBDEDBDEDBDEDBDE84
:1014A000DBDEDBDEBAD6FBDEDBDEDCDEDDD6FFFF3D
:1014B000FFFFFFFFFFFFFFFFFFFFFFFFFFFFFFFF3C
:1014C000FFFFFFFFFFFFFFFFFFFFFFFFFFFFFFFF2C
:1014D000FFFFFFFFFFFFFFFFFFFFFFFFFFFFFFFF1C
:1014E000FFFFFFFFFFFFFFFFFFFFFFFFFFFFFFFF0C
:1014F000FFFFFFFFFFFFFFFFFFFFFFFFFFFFFFFFFC
:10150000FFFFFFFFFFFFFFFFFFFFFFFFFFFFFFFFEB
:10151000FFFFFFFFFFFFFFFFFFFFFFFFFFFFFFFFDB
:10152000FFFFFFFFFFFFFFFFFFFFFFFFFFFFFFFFCB
:10153000FFFFFFFF8E73AE73FFFFFFFFFFFFFFFF95
:101540003084308492940C6379CEFFFFFFFFFFFF5D
:10155000FFFFFFFFFFFFFFFFFFFFFFFFFFFF1CE796
:10156000EB5AD39C92944D6BDFFFFFFFFFFFFFFF11
:1015700092946D6B7DEFFFFFFFFFFFFFFFFFFFFF0B
:10158000FFFFFFFFFFFFFFFFFFFFFFFFFFFFFFFF6B
:10159000FFFFFFFFFEFFDEFFFFFFDFFFFFFFFFFF9D
:1015A000BEFF1CEF3DDFFFFFDFFFFFFFFFFFFFFF81
:1015B000FFFFFEFFDEFFDAE6DBE6FFFFFFF7FFF7E8
:1015C000FFFFFEFFFEFFFFFFFFFFDFFFFFFFFEFF4E
:1015D000FFF7FFFFFFFFFFFFFFFFFFFFFFFFDFFF43
:1015E000FDFFFEFFFFFFFFFFFFFFFFFFFFF7FFF71E
:1015F000FFFFDFFFDFFFFFFFDDFFFEFFFFFFFFFF5E
:10160000FFFFFFFFFEFFFFFFFFFFFFF7FFFFFFFFF3
:10161000FFFFDEFFFFFFFFFFFFFFFFFFFFFFFFFFFB
:10162000FFFFFFF7FFFFDFFFDDFF36D654ADFCDE27
:10163000FFFFFFFFDFFFFFFFFFFFFFFFFFFFDFFFFA
:10164000FFFFFFFFFFFFFFFFFFFFFFFFFFFFDFFFCA
:10165000FFFFFFFFFFFFF8C5DEEFFFF7FFFFDFFF34
:10166000DEFFFEFFFFFFFFFFFFF7FFF7FFF7FFFFC4
:10167000FFFFFFFFFFFFFFFFFFFFFFFFFFFFFFFF7A
:10168000FFFFFFFFFFFFFFFFFFFFFFFFFFFFFFFF6A
:10169000FFFFFFFFFFFFFFFFFFFFFFFFFFFFFFFF5A
:1016A000FFFFFFFFFFFFFFFFFFFFFFFFFFFFFFFF4A
:1016B000FFFFFFFFFFFFFFFFFFFFFFFFFFFFFFFF3A
:1016C000FFFFFFFFFFFFFFFFFFFFFFFFFFFFFFFF2A
:1016D000FFFFFFFFFFFFFFFFFFFFFFFFFFFFFFFF1A
:1016E000FFFFFFFFFFFFFFFFFFFFFFFFFFFFFFFF0A
:1016F000FFFFFFFFFFFFFFFFFFFFFFFFFFFFFFFFFA
:10170000FFFFFFFFFFFFFFFFFFFFFFFFFFFFFFFFE9
:10171000FFFFFFFF8E73AE73FFFFFFFFFFFFFFFFB3
:101720003084308492940C6379CEFFFFFFFFFFFF7B
:10173000FFFFFFFFFFFFFFFFFFFFFFFFFFFF1CE7B4
:10174000EB5AD39C92944D6BDFFFFFFFFFFFFFFF2F
:1017500092946D6B7DEFFFFFFFFFFFFFFFFFFFFF29
:10176000FFFFFFFFFFFFFFFFFFFFFFFFFFFFFFFF89
:10177000FFFFFFFFFFFFFFFFFFFFFFFFFFFFFFFF79
:10178000FFFFFFFFDFFFFFFFDFFFDFFFFFFFBFF711
:10179000FFFFFFFFFFFFFFFFFFFFFFFFFFFFFFFF59
:1017A000FFFFFFFFFFFFFFFFFFFFFFFFDFFFFFFF69
:1017B000FFFFFFFFFFFFFFFFFFFFFFFFFFFFFFFF39
:1017C000FFFFFFFFFFFFFFFFFFFFFFFFFFFFFFFF29
:1017D000FFFFFFFFFFFFFFFFFFFFDEFFFFFFFFFF3A
:1017E000FFFFFFFFFFFFFEFFFFFFFFFFFFFFFFFF0A
:1017F000FFFFFFFFFFFFFFFFFFFFFFFFFFFFFFFFF9
:10180000FFFFFFFFFFFFFFFFFEFFFEFFFFFFFFFFEA
:10181000FFFFFFFFFFFFFFFFFFFFDFFFFFFFFFFFF8
:10182000DFFFFFFFFFFFFEFFFFFFFFFFDFFFFFFF09
:10183000FFFFFFFFFFFFFFFFFEFFFEFFFFFFFFFFBA
:10184000FFFFFFFFFFFFFFFFFFF7FFFFFFFFFFFFB0
:10185000FFFFFFFFFFFFFFFFFFFFFFFFFFFFFFFF98
:10186000FFFFFFFFFFFFDEFFFFFFFFFFFFFFFFFFA9
:10187000FFFFFFFFFFFFFFFFFFFFFFFFFFFFFFFF78
:10188000FFFFFFFFFFFFFFFFFFFFFFFFFFFFFFFF68
:10189000FFFFFFFFFFFFFFFFFFFFFFFFFFFFFFFF58
:1018A000FFFFFFFFFFFFFFFFFFFFFFFFFFFFFFFF48
:1018B000FFFFFFFFFFFFFFFFFFFFFFFFFFFFFFFF38
:1018C000FFFFFFFFFFFFFFFFFFFFFFFFFFFFFFFF28
:1018D000FFFFFFFFFFFFFFFFFFFFFFFFFFFFFFFF18
:1018E000FFFFFFFFFFFFFFFFFFFFFFFFFFFFFFFF08
:1018F000FFFFFFFF8E73AE73FFFFFFFFFFFFFFFFD2
:101900003084308492940C6379CEFFFFFFFFFFFF99
:10191000FFFFFFFFFFFFFFFFFFFFFFFFFFFF1CE7D2
:10192000EB5AD39C92944D6BDFFFFFFFFFFFFFFF4D
:1019300092946D6B7DEFFFFFFFFFFFFFFFFFFFFF47
:10194000FFFFFFFFFFFFFFFFFFFFFFFFFFFFFFFFA7
:10195000FFFFFFFFFFFFFFFFFFFFFFFFFFFFDFFFB7
:10196000FFFFFFFFFFFFDFFFDFFFDFFFDFFFFFFF07
:10197000FFFFFFFFFFFFFFFFDFFFDFFFFFFFFFFFB7
:10198000FFFFFFFFFFFFFFFFDFFFFFFFFFFFFFFF87
:10199000FFFFFFFFFFFFFFFFFFFFFFFFFFFFFFFF57
:1019A000DFFFFFFFFFFFFFFFFFFFFFFFFFFFDFFF87
:1019B000FFFFFFFFFFFFFFFFFFFFFFFFFFFFFFFF37
:1019C000FFFFFFFFFFFFFFF7FFFFFEFFFFFFFFFF30
:1019D000FFFFFFFFFFFFFFFFDFFFFFFFFFFFFFFF37
:1019E000FFFFFFFFFFFFFFFFFFFFFFFFFFFFFFFF07
:1019F000DFFFFFFFFFFFFFFFFFFFFFFFFFFFFFFF17
:101A0000FFFFFFFFFFFFFFFFFFFFFFFFFFFFFFFFE6
:101A1000FFFFFFFFFFFFFFFFFFFFFFFFFFFFFFFFD6
:101A2000DFFFDFFFFFFFFFFFFFFFFFFFFFFFDFFF26
:101A3000FFFFFFFFFFFFFFFFFFFFFFFFFFFFFFFFB6
:101A4000FFFFFFFFFFFFFFFFFFFFFFFFFFFFFFFFA6
:101A5000DEFFFFFFFFFFFFFFFFFFFFFFFFFFFFFFB7
:101A6000FFFFFFFFFFFFFFFFFFFFFFFFFFFFFFFF86
:101A7000FFFFFFFFFFFFFFFFFFFFFFFFFFFFFFFF76
:101A8000FFFFFFFFFFFFFFFFFFFFFFFFFFFFFFFF66
:101A9000FFFFFFFFFFFFFFFFFFFFFFFFFFFFFFFF56
:101AA000FFFFFFFFFFFFFFFFFFFFFFFFFFFFFFFF46
:101AB000FFFFFFFFFFFFFFFFFFFFFFFFFFFFFFFF36
:101AC000FFFFFFFFFFFFFFFFFFFFFFFFFFFFFFFF26
:101AD000FFFFFFFF8E73AE73FFFFFFFFFFFFFFFFF0
:101AE0003084308492940C6379CEFFFFFFFFFFFFB8
:101AF000FFFFFFFFFFFFFFFFFFFFFFFFFFFF1CE7F1
:101B0000EB5AD39C92944D6BDFFFFFFFFFFFFFFF6B
:101B100092946D6B7DEFFFFFFFFFFFFFFFFFFFFF65
:101B2000FFFFFFFFFFFFFFFFFFFFFFFFFFFFFFFFC5
:101B3000FFFFFFFFFFFFFFFFFFFFFFFFDFFFFFFFD5
:101B4000FFFFFFFFFFFFFFFFFFFFDFFFFFFFFFFFC5
:101B5000FFFFFFFFFFFFFFFFFFFFFFFFFFFFFFFF95
:101B6000FFFFFFFFFFFFFFFFFFFFFFFFFFFFBEFFC6
:101B7000FFFFFFFFFFFFFFFFFFFFFFFFFFFFFFFF75
:101B8000FFFFFFFFFFFFFFFFFFFFFFFFDFFFFFFF85
:101B9000FFFFFFFFFFFFFFF7FFFFFFFFDFFFFFFF7D
:101BA000FFFFDFFFFFF7FFFFFFFFFFFFFFFFFFFF6D
:101BB000FFFFFFFFFFFFFFFFFFFFFFFFFFFFFFFF35
:101BC000FFFFFFFFFFFFFFFFFFFFFFF7FFFFFFFF2D
:101BD000FFFFFFFFFFFFFFFFFFFFFFFFFFFFFFFF15
:101BE000FFFFFFFFFFFFFFFFFFFFFFFFFFFFFFFF05
:101BF000FFFFFFFFFFFFFFFFFFFFFFFFFFFFFFFFF5
